2023-06-19 17:16:29,200 : (Core) S >> 8=FIX.4.2|9=84|35=A|34=1|49=RUAT_ROLX_1|52=20230619-08:16:29.000|56=FSX_UAT_ROLX|98=0|108=30|141=Y|10=124|
2023-06-19 17:16:29,378 : (Core) R << 8=FIX.4.2|9=84|35=A|34=1|49=FSX_UAT_ROLX|52=20230619-08:16:29.264|56=RUAT_ROLX_1|98=0|108=30|141=Y|10=136|
2023-06-19 17:16:30,869 : (sendMsg) S >> 8=FIX.4.2|9=198|35=D|34=2|49=RUAT_ROLX_1|52=20230619-08:16:30.000|56=FSX_UAT_ROLX|1=RUAT_ACCOUNT_1|11=2023900168716259000000001|21=1|38=1|40=1|54=2|55=1332|60=20230619-08:16:30.868117|109=2023900168716259000000001|10=167|
2023-06-19 17:16:30,875 : (sendMsg) S >> 8=FIX.4.2|9=198|35=D|34=3|49=RUAT_ROLX_1|52=20230619-08:16:30.000|56=FSX_UAT_ROLX|1=RUAT_ACCOUNT_1|11=2023900168716259000000002|21=1|38=1|40=1|54=2|55=1333|60=20230619-08:16:30.875121|109=2023900168716259000000002|10=164|
2023-06-19 17:16:30,880 : (sendMsg) S >> 8=FIX.4.2|9=198|35=D|34=4|49=RUAT_ROLX_1|52=20230619-08:16:30.000|56=FSX_UAT_ROLX|1=RUAT_ACCOUNT_1|11=2023900168716259000000003|21=1|38=1|40=1|54=2|55=1414|60=20230619-08:16:30.880040|109=2023900168716259000000003|10=163|
2023-06-19 17:16:30,885 : (sendMsg) S >> 8=FIX.4.2|9=198|35=D|34=5|49=RUAT_ROLX_1|52=20230619-08:16:30.000|56=FSX_UAT_ROLX|1=RUAT_ACCOUNT_1|11=2023900168716259000000004|21=1|38=1|40=1|54=2|55=1417|60=20230619-08:16:30.885667|109=2023900168716259000000004|10=189|
2023-06-19 17:16:30,891 : (sendMsg) S >> 8=FIX.4.2|9=198|35=D|34=6|49=RUAT_ROLX_1|52=20230619-08:16:30.000|56=FSX_UAT_ROLX|1=RUAT_ACCOUNT_1|11=2023900168716259000000005|21=1|38=1|40=1|54=2|55=1605|60=20230619-08:16:30.891154|109=2023900168716259000000005|10=179|
2023-06-19 17:16:30,896 : (sendMsg) S >> 8=FIX.4.2|9=198|35=D|34=7|49=RUAT_ROLX_1|52=20230619-08:16:30.000|56=FSX_UAT_ROLX|1=RUAT_ACCOUNT_1|11=2023900168716259000000006|21=1|38=1|40=1|54=2|55=1721|60=20230619-08:16:30.896520|109=2023900168716259000000006|10=183|
2023-06-19 17:16:30,901 : (sendMsg) S >> 8=FIX.4.2|9=198|35=D|34=8|49=RUAT_ROLX_1|52=20230619-08:16:30.000|56=FSX_UAT_ROLX|1=RUAT_ACCOUNT_1|11=2023900168716259000000007|21=1|38=1|40=1|54=2|55=1801|60=20230619-08:16:30.901808|109=2023900168716259000000007|10=181|
2023-06-19 17:16:30,907 : (sendMsg) S >> 8=FIX.4.2|9=198|35=D|34=9|49=RUAT_ROLX_1|52=20230619-08:16:30.000|56=FSX_UAT_ROLX|1=RUAT_ACCOUNT_1|11=2023900168716259000000008|21=1|38=1|40=1|54=2|55=1802|60=20230619-08:16:30.907073|109=2023900168716259000000008|10=185|
2023-06-19 17:16:30,912 : (sendMsg) S >> 8=FIX.4.2|9=199|35=D|34=10|49=RUAT_ROLX_1|52=20230619-08:16:30.000|56=FSX_UAT_ROLX|1=RUAT_ACCOUNT_1|11=2023900168716259000000009|21=1|38=1|40=1|54=2|55=1803|60=20230619-08:16:30.912557|109=2023900168716259000000009|10=232|
2023-06-19 17:16:30,917 : (sendMsg) S >> 8=FIX.4.2|9=199|35=D|34=11|49=RUAT_ROLX_1|52=20230619-08:16:30.000|56=FSX_UAT_ROLX|1=RUAT_ACCOUNT_1|11=2023900168716259000000010|21=1|38=1|40=1|54=2|55=1808|60=20230619-08:16:30.917848|109=2023900168716259000000010|10=230|
2023-06-19 17:16:30,923 : (sendMsg) S >> 8=FIX.4.2|9=199|35=D|34=12|49=RUAT_ROLX_1|52=20230619-08:16:30.000|56=FSX_UAT_ROLX|1=RUAT_ACCOUNT_1|11=2023900168716259000000011|21=1|38=1|40=1|54=2|55=1812|60=20230619-08:16:30.923138|109=2023900168716259000000011|10=217|
2023-06-19 17:16:30,928 : (sendMsg) S >> 8=FIX.4.2|9=199|35=D|34=13|49=RUAT_ROLX_1|52=20230619-08:16:30.000|56=FSX_UAT_ROLX|1=RUAT_ACCOUNT_1|11=2023900168716259000000012|21=1|38=1|40=1|54=2|55=1820|60=20230619-08:16:30.928387|109=2023900168716259000000012|10=230|
2023-06-19 17:16:30,933 : (sendMsg) S >> 8=FIX.4.2|9=199|35=D|34=14|49=RUAT_ROLX_1|52=20230619-08:16:30.000|56=FSX_UAT_ROLX|1=RUAT_ACCOUNT_1|11=2023900168716259000000013|21=1|38=1|40=1|54=2|55=1860|60=20230619-08:16:30.933621|109=2023900168716259000000013|10=224|
2023-06-19 17:16:30,938 : (sendMsg) S >> 8=FIX.4.2|9=199|35=D|34=15|49=RUAT_ROLX_1|52=20230619-08:16:30.000|56=FSX_UAT_ROLX|1=RUAT_ACCOUNT_1|11=2023900168716259000000014|21=1|38=1|40=1|54=2|55=1878|60=20230619-08:16:30.938927|109=2023900168716259000000014|10=250|
2023-06-19 17:16:30,944 : (sendMsg) S >> 8=FIX.4.2|9=199|35=D|34=16|49=RUAT_ROLX_1|52=20230619-08:16:30.000|56=FSX_UAT_ROLX|1=RUAT_ACCOUNT_1|11=2023900168716259000000015|21=1|38=1|40=1|54=2|55=1893|60=20230619-08:16:30.944209|109=2023900168716259000000015|10=240|
2023-06-19 17:16:30,949 : (sendMsg) S >> 8=FIX.4.2|9=199|35=D|34=17|49=RUAT_ROLX_1|52=20230619-08:16:30.000|56=FSX_UAT_ROLX|1=RUAT_ACCOUNT_1|11=2023900168716259000000016|21=1|38=1|40=1|54=2|55=1911|60=20230619-08:16:30.949565|109=2023900168716259000000016|10=244|
2023-06-19 17:16:30,955 : (sendMsg) S >> 8=FIX.4.2|9=199|35=D|34=18|49=RUAT_ROLX_1|52=20230619-08:16:30.000|56=FSX_UAT_ROLX|1=RUAT_ACCOUNT_1|11=2023900168716259000000017|21=1|38=1|40=1|54=2|55=1944|60=20230619-08:16:30.955379|109=2023900168716259000000017|10=253|
2023-06-19 17:16:30,960 : (sendMsg) S >> 8=FIX.4.2|9=199|35=D|34=19|49=RUAT_ROLX_1|52=20230619-08:16:30.000|56=FSX_UAT_ROLX|1=RUAT_ACCOUNT_1|11=2023900168716259000000018|21=1|38=1|40=1|54=2|55=1951|60=20230619-08:16:30.960602|109=2023900168716259000000018|10=239|
2023-06-19 17:16:30,965 : (sendMsg) S >> 8=FIX.4.2|9=199|35=D|34=20|49=RUAT_ROLX_1|52=20230619-08:16:30.000|56=FSX_UAT_ROLX|1=RUAT_ACCOUNT_1|11=2023900168716259000000019|21=1|38=1|40=1|54=2|55=1959|60=20230619-08:16:30.965775|109=2023900168716259000000019|10=001|
2023-06-19 17:16:30,970 : (sendMsg) S >> 8=FIX.4.2|9=199|35=D|34=21|49=RUAT_ROLX_1|52=20230619-08:16:30.000|56=FSX_UAT_ROLX|1=RUAT_ACCOUNT_1|11=2023900168716259000000020|21=1|38=1|40=1|54=2|55=1963|60=20230619-08:16:30.970943|109=2023900168716259000000020|10=230|
2023-06-19 17:16:30,976 : (sendMsg) S >> 8=FIX.4.2|9=199|35=D|34=22|49=RUAT_ROLX_1|52=20230619-08:16:30.000|56=FSX_UAT_ROLX|1=RUAT_ACCOUNT_1|11=2023900168716259000000021|21=1|38=1|40=1|54=2|55=2002|60=20230619-08:16:30.976100|109=2023900168716259000000021|10=209|
2023-06-19 17:16:30,981 : (sendMsg) S >> 8=FIX.4.2|9=199|35=D|34=23|49=RUAT_ROLX_1|52=20230619-08:16:30.000|56=FSX_UAT_ROLX|1=RUAT_ACCOUNT_1|11=2023900168716259000000022|21=1|38=1|40=1|54=2|55=2127|60=20230619-08:16:30.981237|109=2023900168716259000000022|10=227|
2023-06-19 17:16:30,986 : (sendMsg) S >> 8=FIX.4.2|9=199|35=D|34=24|49=RUAT_ROLX_1|52=20230619-08:16:30.000|56=FSX_UAT_ROLX|1=RUAT_ACCOUNT_1|11=2023900168716259000000023|21=1|38=1|40=1|54=2|55=2175|60=20230619-08:16:30.986473|109=2023900168716259000000023|10=240|
2023-06-19 17:16:30,991 : (sendMsg) S >> 8=FIX.4.2|9=199|35=D|34=25|49=RUAT_ROLX_1|52=20230619-08:16:30.000|56=FSX_UAT_ROLX|1=RUAT_ACCOUNT_1|11=2023900168716259000000024|21=1|38=1|40=1|54=2|55=2181|60=20230619-08:16:30.991687|109=2023900168716259000000024|10=243|
2023-06-19 17:16:30,996 : (sendMsg) S >> 8=FIX.4.2|9=199|35=D|34=26|49=RUAT_ROLX_1|52=20230619-08:16:30.000|56=FSX_UAT_ROLX|1=RUAT_ACCOUNT_1|11=2023900168716259000000025|21=1|38=1|40=1|54=2|55=2201|60=20230619-08:16:30.996844|109=2023900168716259000000025|10=239|
2023-06-19 17:16:31,002 : (sendMsg) S >> 8=FIX.4.2|9=199|35=D|34=27|49=RUAT_ROLX_1|52=20230619-08:16:31.000|56=FSX_UAT_ROLX|1=RUAT_ACCOUNT_1|11=2023900168716259100000026|21=1|38=1|40=1|54=2|55=2206|60=20230619-08:16:31.002052|109=2023900168716259100000026|10=220|
2023-06-19 17:16:31,007 : (sendMsg) S >> 8=FIX.4.2|9=199|35=D|34=28|49=RUAT_ROLX_1|52=20230619-08:16:31.000|56=FSX_UAT_ROLX|1=RUAT_ACCOUNT_1|11=2023900168716259100000027|21=1|38=1|40=1|54=2|55=2212|60=20230619-08:16:31.007250|109=2023900168716259100000027|10=225|
2023-06-19 17:16:31,012 : (sendMsg) S >> 8=FIX.4.2|9=199|35=D|34=29|49=RUAT_ROLX_1|52=20230619-08:16:31.000|56=FSX_UAT_ROLX|1=RUAT_ACCOUNT_1|11=2023900168716259100000028|21=1|38=1|40=1|54=2|55=2229|60=20230619-08:16:31.012456|109=2023900168716259100000028|10=240|
2023-06-19 17:16:31,017 : (sendMsg) S >> 8=FIX.4.2|9=199|35=D|34=30|49=RUAT_ROLX_1|52=20230619-08:16:31.000|56=FSX_UAT_ROLX|1=RUAT_ACCOUNT_1|11=2023900168716259100000029|21=1|38=1|40=1|54=2|55=2264|60=20230619-08:16:31.017595|109=2023900168716259100000029|10=242|
2023-06-19 17:16:31,022 : (sendMsg) S >> 8=FIX.4.2|9=199|35=D|34=31|49=RUAT_ROLX_1|52=20230619-08:16:31.000|56=FSX_UAT_ROLX|1=RUAT_ACCOUNT_1|11=2023900168716259100000030|21=1|38=1|40=1|54=2|55=2267|60=20230619-08:16:31.022833|109=2023900168716259100000030|10=221|
2023-06-19 17:16:31,028 : (sendMsg) S >> 8=FIX.4.2|9=199|35=D|34=32|49=RUAT_ROLX_1|52=20230619-08:16:31.000|56=FSX_UAT_ROLX|1=RUAT_ACCOUNT_1|11=2023900168716259100000031|21=1|38=1|40=1|54=2|55=2269|60=20230619-08:16:31.028035|109=2023900168716259100000031|10=226|
2023-06-19 17:16:31,033 : (sendMsg) S >> 8=FIX.4.2|9=199|35=D|34=33|49=RUAT_ROLX_1|52=20230619-08:16:31.000|56=FSX_UAT_ROLX|1=RUAT_ACCOUNT_1|11=2023900168716259100000032|21=1|38=1|40=1|54=2|55=2282|60=20230619-08:16:31.033223|109=2023900168716259100000032|10=219|
2023-06-19 17:16:31,038 : (sendMsg) S >> 8=FIX.4.2|9=199|35=D|34=34|49=RUAT_ROLX_1|52=20230619-08:16:31.000|56=FSX_UAT_ROLX|1=RUAT_ACCOUNT_1|11=2023900168716259100000033|21=1|38=1|40=1|54=2|55=2331|60=20230619-08:16:31.038361|109=2023900168716259100000033|10=225|
2023-06-19 17:16:31,043 : (sendMsg) S >> 8=FIX.4.2|9=199|35=D|34=35|49=RUAT_ROLX_1|52=20230619-08:16:31.000|56=FSX_UAT_ROLX|1=RUAT_ACCOUNT_1|11=2023900168716259100000034|21=1|38=1|40=1|54=2|55=2371|60=20230619-08:16:31.043498|109=2023900168716259100000034|10=239|
2023-06-19 17:16:31,048 : (sendMsg) S >> 8=FIX.4.2|9=199|35=D|34=36|49=RUAT_ROLX_1|52=20230619-08:16:31.000|56=FSX_UAT_ROLX|1=RUAT_ACCOUNT_1|11=2023900168716259100000035|21=1|38=1|40=1|54=2|55=2412|60=20230619-08:16:31.048696|109=2023900168716259100000035|10=243|
2023-06-19 17:16:31,053 : (sendMsg) S >> 8=FIX.4.2|9=199|35=D|34=37|49=RUAT_ROLX_1|52=20230619-08:16:31.000|56=FSX_UAT_ROLX|1=RUAT_ACCOUNT_1|11=2023900168716259100000036|21=1|38=1|40=1|54=2|55=2427|60=20230619-08:16:31.053867|109=2023900168716259100000036|10=248|
2023-06-19 17:16:31,059 : (sendMsg) S >> 8=FIX.4.2|9=199|35=D|34=38|49=RUAT_ROLX_1|52=20230619-08:16:31.000|56=FSX_UAT_ROLX|1=RUAT_ACCOUNT_1|11=2023900168716259100000037|21=1|38=1|40=1|54=2|55=2432|60=20230619-08:16:31.059241|109=2023900168716259100000037|10=239|
2023-06-19 17:16:31,064 : (sendMsg) S >> 8=FIX.4.2|9=199|35=D|34=39|49=RUAT_ROLX_1|52=20230619-08:16:31.000|56=FSX_UAT_ROLX|1=RUAT_ACCOUNT_1|11=2023900168716259100000038|21=1|38=1|40=1|54=2|55=2433|60=20230619-08:16:31.064425|109=2023900168716259100000038|10=243|
2023-06-19 17:16:31,069 : (sendMsg) S >> 8=FIX.4.2|9=199|35=D|34=40|49=RUAT_ROLX_1|52=20230619-08:16:31.000|56=FSX_UAT_ROLX|1=RUAT_ACCOUNT_1|11=2023900168716259100000039|21=1|38=1|40=1|54=2|55=2501|60=20230619-08:16:31.069598|109=2023900168716259100000039|10=249|
2023-06-19 17:16:31,074 : (sendMsg) S >> 8=FIX.4.2|9=199|35=D|34=41|49=RUAT_ROLX_1|52=20230619-08:16:31.000|56=FSX_UAT_ROLX|1=RUAT_ACCOUNT_1|11=2023900168716259100000040|21=1|38=1|40=1|54=2|55=2531|60=20230619-08:16:31.074814|109=2023900168716259100000040|10=224|
2023-06-19 17:16:31,080 : (sendMsg) S >> 8=FIX.4.2|9=199|35=D|34=42|49=RUAT_ROLX_1|52=20230619-08:16:31.000|56=FSX_UAT_ROLX|1=RUAT_ACCOUNT_1|11=2023900168716259100000041|21=1|38=1|40=1|54=2|55=2579|60=20230619-08:16:31.080025|109=2023900168716259100000041|10=230|
2023-06-19 17:16:31,085 : (sendMsg) S >> 8=FIX.4.2|9=199|35=D|34=43|49=RUAT_ROLX_1|52=20230619-08:16:31.000|56=FSX_UAT_ROLX|1=RUAT_ACCOUNT_1|11=2023900168716259100000042|21=1|38=1|40=1|54=2|55=2587|60=20230619-08:16:31.085185|109=2023900168716259100000042|10=244|
2023-06-19 17:16:31,090 : (sendMsg) S >> 8=FIX.4.2|9=199|35=D|34=44|49=RUAT_ROLX_1|52=20230619-08:16:31.000|56=FSX_UAT_ROLX|1=RUAT_ACCOUNT_1|11=2023900168716259100000043|21=1|38=1|40=1|54=2|55=2593|60=20230619-08:16:31.090343|109=2023900168716259100000043|10=236|
2023-06-19 17:16:31,095 : (sendMsg) S >> 8=FIX.4.2|9=199|35=D|34=45|49=RUAT_ROLX_1|52=20230619-08:16:31.000|56=FSX_UAT_ROLX|1=RUAT_ACCOUNT_1|11=2023900168716259100000044|21=1|38=1|40=1|54=2|55=2607|60=20230619-08:16:31.095596|109=2023900168716259100000044|10=250|
2023-06-19 17:16:31,100 : (sendMsg) S >> 8=FIX.4.2|9=199|35=D|34=46|49=RUAT_ROLX_1|52=20230619-08:16:31.000|56=FSX_UAT_ROLX|1=RUAT_ACCOUNT_1|11=2023900168716259100000045|21=1|38=1|40=1|54=2|55=2651|60=20230619-08:16:31.100814|109=2023900168716259100000045|10=232|
2023-06-19 17:16:31,106 : (sendMsg) S >> 8=FIX.4.2|9=199|35=D|34=47|49=RUAT_ROLX_1|52=20230619-08:16:31.000|56=FSX_UAT_ROLX|1=RUAT_ACCOUNT_1|11=2023900168716259100000046|21=1|38=1|40=1|54=2|55=2670|60=20230619-08:16:31.106038|109=2023900168716259100000046|10=240|
2023-06-19 17:16:31,111 : (sendMsg) S >> 8=FIX.4.2|9=199|35=D|34=48|49=RUAT_ROLX_1|52=20230619-08:16:31.000|56=FSX_UAT_ROLX|1=RUAT_ACCOUNT_1|11=2023900168716259100000047|21=1|38=1|40=1|54=2|55=2768|60=20230619-08:16:31.111227|109=2023900168716259100000047|10=247|
2023-06-19 17:16:31,116 : (sendMsg) S >> 8=FIX.4.2|9=199|35=D|34=49|49=RUAT_ROLX_1|52=20230619-08:16:31.000|56=FSX_UAT_ROLX|1=RUAT_ACCOUNT_1|11=2023900168716259100000048|21=1|38=1|40=1|54=2|55=2784|60=20230619-08:16:31.116438|109=2023900168716259100000048|10=001|
2023-06-19 17:16:31,121 : (sendMsg) S >> 8=FIX.4.2|9=199|35=D|34=50|49=RUAT_ROLX_1|52=20230619-08:16:31.000|56=FSX_UAT_ROLX|1=RUAT_ACCOUNT_1|11=2023900168716259100000049|21=1|38=1|40=1|54=2|55=2801|60=20230619-08:16:31.121621|109=2023900168716259100000049|10=231|
2023-06-19 17:16:31,122 : (recvMsg) R << 8=FIX.4.2|9=325|35=8|34=2|49=FSX_UAT_ROLX|52=20230619-08:16:31.009|56=RUAT_ROLX_1|1=RUAT_ACCOUNT_1|6=0|11=2023900168716259000000001|14=0|17=1670707114520240128|20=0|31=0|32=0|37=1670707114443493376|38=1|39=0|40=1|47=P|54=2|55=1332|59=0|60=20230619-08:16:31.008|76=ROLX|109=101|150=0|151=1|544=1|8164=ROL|8169=20230619-08:16:31.008261|8214=0|10=122|
2023-06-19 17:16:31,122 : Result : Accepted ,ordStatus =0
2023-06-19 17:16:31,122 : -------------------------------------------------------------------------------------------------
2023-06-19 17:16:31,125 : (recvMsg) R << 8=FIX.4.2|9=325|35=8|34=3|49=FSX_UAT_ROLX|52=20230619-08:16:31.010|56=RUAT_ROLX_1|1=RUAT_ACCOUNT_1|6=0|11=2023900168716259000000002|14=0|17=1670707114520240129|20=0|31=0|32=0|37=1670707114447687680|38=1|39=0|40=1|47=P|54=2|55=1333|59=0|60=20230619-08:16:31.009|76=ROLX|109=101|150=0|151=1|544=1|8164=ROL|8169=20230619-08:16:31.009642|8214=0|10=130|
2023-06-19 17:16:31,125 : Result : Accepted ,ordStatus =0
2023-06-19 17:16:31,125 : -------------------------------------------------------------------------------------------------
2023-06-19 17:16:31,126 : (recvMsg) R << 8=FIX.4.2|9=325|35=8|34=4|49=FSX_UAT_ROLX|52=20230619-08:16:31.011|56=RUAT_ROLX_1|1=RUAT_ACCOUNT_1|6=0|11=2023900168716259000000006|14=0|17=1670707114520240130|20=0|31=0|32=0|37=1670707114447687681|38=1|39=0|40=1|47=P|54=2|55=1721|59=0|60=20230619-08:16:31.011|76=ROLX|109=101|150=0|151=1|544=1|8164=ROL|8169=20230619-08:16:31.011447|8214=0|10=119|
2023-06-19 17:16:31,126 : Result : Accepted ,ordStatus =0
2023-06-19 17:16:31,126 : -------------------------------------------------------------------------------------------------
2023-06-19 17:16:31,126 : (recvMsg) R << 8=FIX.4.2|9=325|35=8|34=5|49=FSX_UAT_ROLX|52=20230619-08:16:31.013|56=RUAT_ROLX_1|1=RUAT_ACCOUNT_1|6=0|11=2023900168716259000000003|14=0|17=1670707114520240131|20=0|31=0|32=0|37=1670707114451881984|38=1|39=0|40=1|47=P|54=2|55=1414|59=0|60=20230619-08:16:31.013|76=ROLX|109=101|150=0|151=1|544=1|8164=ROL|8169=20230619-08:16:31.013317|8214=0|10=116|
2023-06-19 17:16:31,126 : Result : Accepted ,ordStatus =0
2023-06-19 17:16:31,126 : -------------------------------------------------------------------------------------------------
2023-06-19 17:16:31,126 : (sendMsg) S >> 8=FIX.4.2|9=199|35=D|34=51|49=RUAT_ROLX_1|52=20230619-08:16:31.000|56=FSX_UAT_ROLX|1=RUAT_ACCOUNT_1|11=2023900168716259100000050|21=1|38=1|40=1|54=2|55=2809|60=20230619-08:16:31.126785|109=2023900168716259100000050|10=240|
2023-06-19 17:16:31,131 : (sendMsg) S >> 8=FIX.4.2|9=199|35=D|34=52|49=RUAT_ROLX_1|52=20230619-08:16:31.000|56=FSX_UAT_ROLX|1=RUAT_ACCOUNT_1|11=2023900168716259100000051|21=1|38=1|40=1|54=2|55=2810|60=20230619-08:16:31.131954|109=2023900168716259100000051|10=229|
2023-06-19 17:16:31,137 : (sendMsg) S >> 8=FIX.4.2|9=199|35=D|34=53|49=RUAT_ROLX_1|52=20230619-08:16:31.000|56=FSX_UAT_ROLX|1=RUAT_ACCOUNT_1|11=2023900168716259100000052|21=1|38=1|40=1|54=2|55=2811|60=20230619-08:16:31.137031|109=2023900168716259100000052|10=225|
2023-06-19 17:16:31,142 : (sendMsg) S >> 8=FIX.4.2|9=199|35=D|34=54|49=RUAT_ROLX_1|52=20230619-08:16:31.000|56=FSX_UAT_ROLX|1=RUAT_ACCOUNT_1|11=2023900168716259100000053|21=1|38=1|40=1|54=2|55=2815|60=20230619-08:16:31.142291|109=2023900168716259100000053|10=236|
2023-06-19 17:16:31,147 : (sendMsg) S >> 8=FIX.4.2|9=199|35=D|34=55|49=RUAT_ROLX_1|52=20230619-08:16:31.000|56=FSX_UAT_ROLX|1=RUAT_ACCOUNT_1|11=2023900168716259100000054|21=1|38=1|40=1|54=2|55=2871|60=20230619-08:16:31.147517|109=2023900168716259100000054|10=247|
2023-06-19 17:16:31,152 : (sendMsg) S >> 8=FIX.4.2|9=199|35=D|34=56|49=RUAT_ROLX_1|52=20230619-08:16:31.000|56=FSX_UAT_ROLX|1=RUAT_ACCOUNT_1|11=2023900168716259100000055|21=1|38=1|40=1|54=2|55=2875|60=20230619-08:16:31.152763|109=2023900168716259100000055|10=253|
2023-06-19 17:16:31,158 : (sendMsg) S >> 8=FIX.4.2|9=199|35=D|34=57|49=RUAT_ROLX_1|52=20230619-08:16:31.000|56=FSX_UAT_ROLX|1=RUAT_ACCOUNT_1|11=2023900168716259100000056|21=1|38=1|40=1|54=2|55=2897|60=20230619-08:16:31.157992|109=2023900168716259100000056|10=013|
2023-06-19 17:16:31,163 : (sendMsg) S >> 8=FIX.4.2|9=199|35=D|34=58|49=RUAT_ROLX_1|52=20230619-08:16:31.000|56=FSX_UAT_ROLX|1=RUAT_ACCOUNT_1|11=2023900168716259100000057|21=1|38=1|40=1|54=2|55=3003|60=20230619-08:16:31.163209|109=2023900168716259100000057|10=240|
2023-06-19 17:16:31,164 : (recvMsg) R << 8=FIX.4.2|9=325|35=8|34=6|49=FSX_UAT_ROLX|52=20230619-08:16:31.014|56=RUAT_ROLX_1|1=RUAT_ACCOUNT_1|6=0|11=2023900168716259000000007|14=0|17=1670707114520240132|20=0|31=0|32=0|37=1670707114451881985|38=1|39=0|40=1|47=P|54=2|55=1801|59=0|60=20230619-08:16:31.014|76=ROLX|109=101|150=0|151=1|544=1|8164=ROL|8169=20230619-08:16:31.014161|8214=0|10=123|
2023-06-19 17:16:31,164 : Result : Accepted ,ordStatus =0
2023-06-19 17:16:31,164 : -------------------------------------------------------------------------------------------------
2023-06-19 17:16:31,164 : (recvMsg) R << 8=FIX.4.2|9=325|35=8|34=7|49=FSX_UAT_ROLX|52=20230619-08:16:31.045|56=RUAT_ROLX_1|1=RUAT_ACCOUNT_1|6=0|11=2023900168716259000000008|14=0|17=1670707114520240133|20=0|31=0|32=0|37=1670707114456076288|38=1|39=0|40=1|47=P|54=2|55=1802|59=0|60=20230619-08:16:31.044|76=ROLX|109=101|150=0|151=1|544=1|8164=ROL|8169=20230619-08:16:31.044795|8214=0|10=147|
2023-06-19 17:16:31,164 : Result : Accepted ,ordStatus =0
2023-06-19 17:16:31,164 : -------------------------------------------------------------------------------------------------
2023-06-19 17:16:31,164 : (recvMsg) R << 8=FIX.4.2|9=325|35=8|34=8|49=FSX_UAT_ROLX|52=20230619-08:16:31.046|56=RUAT_ROLX_1|1=RUAT_ACCOUNT_1|6=0|11=2023900168716259000000004|14=0|17=1670707114520240134|20=0|31=0|32=0|37=1670707114456076289|38=1|39=0|40=1|47=P|54=2|55=1417|59=0|60=20230619-08:16:31.045|76=ROLX|109=101|150=0|151=1|544=1|8164=ROL|8169=20230619-08:16:31.045768|8214=0|10=151|
2023-06-19 17:16:31,164 : Result : Accepted ,ordStatus =0
2023-06-19 17:16:31,164 : -------------------------------------------------------------------------------------------------
2023-06-19 17:16:31,165 : (recvMsg) R << 8=FIX.4.2|9=325|35=8|34=9|49=FSX_UAT_ROLX|52=20230619-08:16:31.046|56=RUAT_ROLX_1|1=RUAT_ACCOUNT_1|6=0|11=2023900168716259000000005|14=0|17=1670707114520240135|20=0|31=0|32=0|37=1670707114460270592|38=1|39=0|40=1|47=P|54=2|55=1605|59=0|60=20230619-08:16:31.046|76=ROLX|109=101|150=0|151=1|544=1|8164=ROL|8169=20230619-08:16:31.046571|8214=0|10=135|
2023-06-19 17:16:31,165 : Result : Accepted ,ordStatus =0
2023-06-19 17:16:31,165 : -------------------------------------------------------------------------------------------------
2023-06-19 17:16:31,165 : (recvMsg) R << 8=FIX.4.2|9=326|35=8|34=10|49=FSX_UAT_ROLX|52=20230619-08:16:31.048|56=RUAT_ROLX_1|1=RUAT_ACCOUNT_1|6=0|11=2023900168716259000000009|14=0|17=1670707114599931904|20=0|31=0|32=0|37=1670707114581905408|38=1|39=0|40=1|47=P|54=2|55=1803|59=0|60=20230619-08:16:31.047|76=ROLX|109=101|150=0|151=1|544=1|8164=ROL|8169=20230619-08:16:31.047885|8214=0|10=224|
2023-06-19 17:16:31,165 : Result : Accepted ,ordStatus =0
2023-06-19 17:16:31,165 : -------------------------------------------------------------------------------------------------
2023-06-19 17:16:31,165 : (recvMsg) R << 8=FIX.4.2|9=326|35=8|34=11|49=FSX_UAT_ROLX|52=20230619-08:16:31.049|56=RUAT_ROLX_1|1=RUAT_ACCOUNT_1|6=0|11=2023900168716259000000010|14=0|17=1670707114608320512|20=0|31=0|32=0|37=1670707114586099712|38=1|39=0|40=1|47=P|54=2|55=1808|59=0|60=20230619-08:16:31.049|76=ROLX|109=101|150=0|151=1|544=1|8164=ROL|8169=20230619-08:16:31.049129|8214=0|10=203|
2023-06-19 17:16:31,165 : Result : Accepted ,ordStatus =0
2023-06-19 17:16:31,165 : -------------------------------------------------------------------------------------------------
2023-06-19 17:16:31,165 : (recvMsg) R << 8=FIX.4.2|9=326|35=8|34=12|49=FSX_UAT_ROLX|52=20230619-08:16:31.050|56=RUAT_ROLX_1|1=RUAT_ACCOUNT_1|6=0|11=2023900168716259000000011|14=0|17=1670707114620903424|20=0|31=0|32=0|37=1670707114594488320|38=1|39=0|40=1|47=P|54=2|55=1812|59=0|60=20230619-08:16:31.049|76=ROLX|109=101|150=0|151=1|544=1|8164=ROL|8169=20230619-08:16:31.049922|8214=0|10=192|
2023-06-19 17:16:31,166 : Result : Accepted ,ordStatus =0
2023-06-19 17:16:31,166 : -------------------------------------------------------------------------------------------------
2023-06-19 17:16:31,166 : (recvMsg) R << 8=FIX.4.2|9=326|35=8|34=13|49=FSX_UAT_ROLX|52=20230619-08:16:31.051|56=RUAT_ROLX_1|1=RUAT_ACCOUNT_1|6=0|11=2023900168716259000000012|14=0|17=1670707114620903425|20=0|31=0|32=0|37=1670707114598682624|38=1|39=0|40=1|47=P|54=2|55=1820|59=0|60=20230619-08:16:31.050|76=ROLX|109=101|150=0|151=1|544=1|8164=ROL|8169=20230619-08:16:31.050748|8214=0|10=192|
2023-06-19 17:16:31,166 : Result : Accepted ,ordStatus =0
2023-06-19 17:16:31,166 : -------------------------------------------------------------------------------------------------
2023-06-19 17:16:31,168 : (sendMsg) S >> 8=FIX.4.2|9=199|35=D|34=59|49=RUAT_ROLX_1|52=20230619-08:16:31.000|56=FSX_UAT_ROLX|1=RUAT_ACCOUNT_1|11=2023900168716259100000058|21=1|38=1|40=1|54=2|55=3038|60=20230619-08:16:31.168377|109=2023900168716259100000058|10=006|
2023-06-19 17:16:31,173 : (sendMsg) S >> 8=FIX.4.2|9=199|35=D|34=60|49=RUAT_ROLX_1|52=20230619-08:16:31.000|56=FSX_UAT_ROLX|1=RUAT_ACCOUNT_1|11=2023900168716259100000059|21=1|38=1|40=1|54=2|55=3064|60=20230619-08:16:31.173584|109=2023900168716259100000059|10=251|
2023-06-19 17:16:31,178 : (sendMsg) S >> 8=FIX.4.2|9=199|35=D|34=61|49=RUAT_ROLX_1|52=20230619-08:16:31.000|56=FSX_UAT_ROLX|1=RUAT_ACCOUNT_1|11=2023900168716259100000060|21=1|38=1|40=1|54=2|55=3086|60=20230619-08:16:31.178790|109=2023900168716259100000060|10=244|
2023-06-19 17:16:31,180 : (recvMsg) R << 8=FIX.4.2|9=326|35=8|34=14|49=FSX_UAT_ROLX|52=20230619-08:16:31.052|56=RUAT_ROLX_1|1=RUAT_ACCOUNT_1|6=0|11=2023900168716259000000013|14=0|17=1670707114629292032|20=0|31=0|32=0|37=1670707114607071232|38=1|39=0|40=1|47=P|54=2|55=1860|59=0|60=20230619-08:16:31.051|76=ROLX|109=101|150=0|151=1|544=1|8164=ROL|8169=20230619-08:16:31.051403|8214=0|10=171|
2023-06-19 17:16:31,180 : Result : Accepted ,ordStatus =0
2023-06-19 17:16:31,180 : -------------------------------------------------------------------------------------------------
2023-06-19 17:16:31,180 : (recvMsg) R << 8=FIX.4.2|9=326|35=8|34=15|49=FSX_UAT_ROLX|52=20230619-08:16:31.052|56=RUAT_ROLX_1|1=RUAT_ACCOUNT_1|6=0|11=2023900168716259000000014|14=0|17=1670707114637680640|20=0|31=0|32=0|37=1670707114615459840|38=1|39=0|40=1|47=P|54=2|55=1878|59=0|60=20230619-08:16:31.052|76=ROLX|109=101|150=0|151=1|544=1|8164=ROL|8169=20230619-08:16:31.052174|8214=0|10=208|
2023-06-19 17:16:31,180 : Result : Accepted ,ordStatus =0
2023-06-19 17:16:31,180 : -------------------------------------------------------------------------------------------------
2023-06-19 17:16:31,180 : (recvMsg) R << 8=FIX.4.2|9=326|35=8|34=16|49=FSX_UAT_ROLX|52=20230619-08:16:31.053|56=RUAT_ROLX_1|1=RUAT_ACCOUNT_1|6=0|11=2023900168716259000000015|14=0|17=1670707114637680641|20=0|31=0|32=0|37=1670707114615459841|38=1|39=0|40=1|47=P|54=2|55=1893|59=0|60=20230619-08:16:31.052|76=ROLX|109=101|150=0|151=1|544=1|8164=ROL|8169=20230619-08:16:31.052978|8214=0|10=222|
2023-06-19 17:16:31,181 : Result : Accepted ,ordStatus =0
2023-06-19 17:16:31,181 : -------------------------------------------------------------------------------------------------
2023-06-19 17:16:31,181 : (recvMsg) R << 8=FIX.4.2|9=326|35=8|34=17|49=FSX_UAT_ROLX|52=20230619-08:16:31.061|56=RUAT_ROLX_1|1=RUAT_ACCOUNT_1|6=0|11=2023900168716259000000016|14=0|17=1670707114759315456|20=0|31=0|32=0|37=1670707114737094656|38=1|39=0|40=1|47=P|54=2|55=1911|59=0|60=20230619-08:16:31.061|76=ROLX|109=101|150=0|151=1|544=1|8164=ROL|8169=20230619-08:16:31.061402|8214=0|10=204|
2023-06-19 17:16:31,181 : Result : Accepted ,ordStatus =0
2023-06-19 17:16:31,181 : -------------------------------------------------------------------------------------------------
2023-06-19 17:16:31,183 : (sendMsg) S >> 8=FIX.4.2|9=199|35=D|34=62|49=RUAT_ROLX_1|52=20230619-08:16:31.000|56=FSX_UAT_ROLX|1=RUAT_ACCOUNT_1|11=2023900168716259100000061|21=1|38=1|40=1|54=2|55=3088|60=20230619-08:16:31.183934|109=2023900168716259100000061|10=245|
2023-06-19 17:16:31,189 : (sendMsg) S >> 8=FIX.4.2|9=199|35=D|34=63|49=RUAT_ROLX_1|52=20230619-08:16:31.000|56=FSX_UAT_ROLX|1=RUAT_ACCOUNT_1|11=2023900168716259100000062|21=1|38=1|40=1|54=2|55=3092|60=20230619-08:16:31.189085|109=2023900168716259100000062|10=246|
2023-06-19 17:16:31,194 : (sendMsg) S >> 8=FIX.4.2|9=199|35=D|34=64|49=RUAT_ROLX_1|52=20230619-08:16:31.000|56=FSX_UAT_ROLX|1=RUAT_ACCOUNT_1|11=2023900168716259100000063|21=1|38=1|40=1|54=2|55=3099|60=20230619-08:16:31.194286|109=2023900168716259100000063|10=255|
2023-06-19 17:16:31,198 : (recvMsg) R << 8=FIX.4.2|9=326|35=8|34=18|49=FSX_UAT_ROLX|52=20230619-08:16:31.065|56=RUAT_ROLX_1|1=RUAT_ACCOUNT_1|6=0|11=2023900168716259000000017|14=0|17=1670707114771898368|20=0|31=0|32=0|37=1670707114741288960|38=1|39=0|40=1|47=P|54=2|55=1944|59=0|60=20230619-08:16:31.065|76=ROLX|109=101|150=0|151=1|544=1|8164=ROL|8169=20230619-08:16:31.065444|8214=0|10=240|
2023-06-19 17:16:31,198 : Result : Accepted ,ordStatus =0
2023-06-19 17:16:31,198 : -------------------------------------------------------------------------------------------------
2023-06-19 17:16:31,198 : (recvMsg) R << 8=FIX.4.2|9=326|35=8|34=19|49=FSX_UAT_ROLX|52=20230619-08:16:31.081|56=RUAT_ROLX_1|1=RUAT_ACCOUNT_1|6=0|11=2023900168716259000000018|14=0|17=1670707114822230016|20=0|31=0|32=0|37=1670707114804203520|38=1|39=0|40=1|47=P|54=2|55=1951|59=0|60=20230619-08:16:31.081|76=ROLX|109=101|150=0|151=1|544=1|8164=ROL|8169=20230619-08:16:31.081215|8214=0|10=176|
2023-06-19 17:16:31,198 : Result : Accepted ,ordStatus =0
2023-06-19 17:16:31,198 : -------------------------------------------------------------------------------------------------
2023-06-19 17:16:31,198 : (recvMsg) R << 8=FIX.4.2|9=326|35=8|34=20|49=FSX_UAT_ROLX|52=20230619-08:16:31.082|56=RUAT_ROLX_1|1=RUAT_ACCOUNT_1|6=0|11=2023900168716259000000019|14=0|17=1670707114834812928|20=0|31=0|32=0|37=1670707114812592128|38=1|39=0|40=1|47=P|54=2|55=1959|59=0|60=20230619-08:16:31.082|76=ROLX|109=101|150=0|151=1|544=1|8164=ROL|8169=20230619-08:16:31.082422|8214=0|10=215|
2023-06-19 17:16:31,198 : Result : Accepted ,ordStatus =0
2023-06-19 17:16:31,198 : -------------------------------------------------------------------------------------------------
2023-06-19 17:16:31,198 : (recvMsg) R << 8=FIX.4.2|9=326|35=8|34=21|49=FSX_UAT_ROLX|52=20230619-08:16:31.084|56=RUAT_ROLX_1|1=RUAT_ACCOUNT_1|6=0|11=2023900168716259000000020|14=0|17=1670707114847395840|20=0|31=0|32=0|37=1670707114820980736|38=1|39=0|40=1|47=P|54=2|55=1963|59=0|60=20230619-08:16:31.083|76=ROLX|109=101|150=0|151=1|544=1|8164=ROL|8169=20230619-08:16:31.083996|8214=0|10=231|
2023-06-19 17:16:31,198 : Result : Accepted ,ordStatus =0
2023-06-19 17:16:31,198 : -------------------------------------------------------------------------------------------------
2023-06-19 17:16:31,199 : (sendMsg) S >> 8=FIX.4.2|9=199|35=D|34=65|49=RUAT_ROLX_1|52=20230619-08:16:31.000|56=FSX_UAT_ROLX|1=RUAT_ACCOUNT_1|11=2023900168716259100000064|21=1|38=1|40=1|54=2|55=3101|60=20230619-08:16:31.199456|109=2023900168716259100000064|10=246|
2023-06-19 17:16:31,204 : (sendMsg) S >> 8=FIX.4.2|9=199|35=D|34=66|49=RUAT_ROLX_1|52=20230619-08:16:31.000|56=FSX_UAT_ROLX|1=RUAT_ACCOUNT_1|11=2023900168716259100000065|21=1|38=1|40=1|54=2|55=3105|60=20230619-08:16:31.204757|109=2023900168716259100000065|10=244|
2023-06-19 17:16:31,209 : (sendMsg) S >> 8=FIX.4.2|9=199|35=D|34=67|49=RUAT_ROLX_1|52=20230619-08:16:31.000|56=FSX_UAT_ROLX|1=RUAT_ACCOUNT_1|11=2023900168716259100000066|21=1|38=1|40=1|54=2|55=3107|60=20230619-08:16:31.209943|109=2023900168716259100000066|10=251|
2023-06-19 17:16:31,215 : (sendMsg) S >> 8=FIX.4.2|9=199|35=D|34=68|49=RUAT_ROLX_1|52=20230619-08:16:31.000|56=FSX_UAT_ROLX|1=RUAT_ACCOUNT_1|11=2023900168716259100000067|21=1|38=1|40=1|54=2|55=3116|60=20230619-08:16:31.215159|109=2023900168716259100000067|10=250|
2023-06-19 17:16:31,220 : (sendMsg) S >> 8=FIX.4.2|9=199|35=D|34=69|49=RUAT_ROLX_1|52=20230619-08:16:31.000|56=FSX_UAT_ROLX|1=RUAT_ACCOUNT_1|11=2023900168716259100000068|21=1|38=1|40=1|54=2|55=3141|60=20230619-08:16:31.220375|109=2023900168716259100000068|10=247|
2023-06-19 17:16:31,225 : (sendMsg) S >> 8=FIX.4.2|9=199|35=D|34=70|49=RUAT_ROLX_1|52=20230619-08:16:31.000|56=FSX_UAT_ROLX|1=RUAT_ACCOUNT_1|11=2023900168716259100000069|21=1|38=1|40=1|54=2|55=3197|60=20230619-08:16:31.225570|109=2023900168716259100000069|10=254|
2023-06-19 17:16:31,230 : (sendMsg) S >> 8=FIX.4.2|9=199|35=D|34=71|49=RUAT_ROLX_1|52=20230619-08:16:31.000|56=FSX_UAT_ROLX|1=RUAT_ACCOUNT_1|11=2023900168716259100000070|21=1|38=1|40=1|54=2|55=3231|60=20230619-08:16:31.230840|109=2023900168716259100000070|10=224|
2023-06-19 17:16:31,231 : (recvMsg) R << 8=FIX.4.2|9=326|35=8|34=22|49=FSX_UAT_ROLX|52=20230619-08:16:31.085|56=RUAT_ROLX_1|1=RUAT_ACCOUNT_1|6=0|11=2023900168716259000000021|14=0|17=1670707114855784448|20=0|31=0|32=0|37=1670707114825175040|38=1|39=0|40=1|47=P|54=2|55=2002|59=0|60=20230619-08:16:31.084|76=ROLX|109=101|150=0|151=1|544=1|8164=ROL|8169=20230619-08:16:31.084873|8214=0|10=209|
2023-06-19 17:16:31,231 : Result : Accepted ,ordStatus =0
2023-06-19 17:16:31,232 : -------------------------------------------------------------------------------------------------
2023-06-19 17:16:31,232 : (recvMsg) R << 8=FIX.4.2|9=326|35=8|34=23|49=FSX_UAT_ROLX|52=20230619-08:16:31.086|56=RUAT_ROLX_1|1=RUAT_ACCOUNT_1|6=0|11=2023900168716259000000022|14=0|17=1670707114855784449|20=0|31=0|32=0|37=1670707114833563648|38=1|39=0|40=1|47=P|54=2|55=2127|59=0|60=20230619-08:16:31.086|76=ROLX|109=101|150=0|151=1|544=1|8164=ROL|8169=20230619-08:16:31.086139|8214=0|10=234|
2023-06-19 17:16:31,232 : Result : Accepted ,ordStatus =0
2023-06-19 17:16:31,232 : -------------------------------------------------------------------------------------------------
2023-06-19 17:16:31,232 : (recvMsg) R << 8=FIX.4.2|9=326|35=8|34=24|49=FSX_UAT_ROLX|52=20230619-08:16:31.104|56=RUAT_ROLX_1|1=RUAT_ACCOUNT_1|6=0|11=2023900168716259000000023|14=0|17=1670707114910310400|20=0|31=0|32=0|37=1670707114888089600|38=1|39=0|40=1|47=P|54=2|55=2175|59=0|60=20230619-08:16:31.103|76=ROLX|109=101|150=0|151=1|544=1|8164=ROL|8169=20230619-08:16:31.103642|8214=0|10=174|
2023-06-19 17:16:31,232 : Result : Accepted ,ordStatus =0
2023-06-19 17:16:31,232 : -------------------------------------------------------------------------------------------------
2023-06-19 17:16:31,232 : (recvMsg) R << 8=FIX.4.2|9=326|35=8|34=25|49=FSX_UAT_ROLX|52=20230619-08:16:31.117|56=RUAT_ROLX_1|1=RUAT_ACCOUNT_1|6=0|11=2023900168716259000000024|14=0|17=1670707114918699008|20=0|31=0|32=0|37=1670707114896478208|38=1|39=0|40=1|47=P|54=2|55=2181|59=0|60=20230619-08:16:31.117|76=ROLX|109=101|150=0|151=1|544=1|8164=ROL|8169=20230619-08:16:31.117082|8214=0|10=222|
2023-06-19 17:16:31,232 : Result : Accepted ,ordStatus =0
2023-06-19 17:16:31,232 : -------------------------------------------------------------------------------------------------
2023-06-19 17:16:31,232 : (recvMsg) R << 8=FIX.4.2|9=326|35=8|34=26|49=FSX_UAT_ROLX|52=20230619-08:16:31.118|56=RUAT_ROLX_1|1=RUAT_ACCOUNT_1|6=0|11=2023900168716259000000025|14=0|17=1670707114935476224|20=0|31=0|32=0|37=1670707114900672512|38=1|39=0|40=1|47=P|54=2|55=2201|59=0|60=20230619-08:16:31.117|76=ROLX|109=101|150=0|151=1|544=1|8164=ROL|8169=20230619-08:16:31.117838|8214=0|10=199|
2023-06-19 17:16:31,233 : Result : Accepted ,ordStatus =0
2023-06-19 17:16:31,233 : -------------------------------------------------------------------------------------------------
2023-06-19 17:16:31,233 : (recvMsg) R << 8=FIX.4.2|9=326|35=8|34=27|49=FSX_UAT_ROLX|52=20230619-08:16:31.119|56=RUAT_ROLX_1|1=RUAT_ACCOUNT_1|6=0|11=2023900168716259100000026|14=0|17=1670707114935476225|20=0|31=0|32=0|37=1670707114909061120|38=1|39=0|40=1|47=P|54=2|55=2206|59=0|60=20230619-08:16:31.118|76=ROLX|109=101|150=0|151=1|544=1|8164=ROL|8169=20230619-08:16:31.118773|8214=0|10=205|
2023-06-19 17:16:31,233 : Result : Accepted ,ordStatus =0
2023-06-19 17:16:31,233 : -------------------------------------------------------------------------------------------------
2023-06-19 17:16:31,233 : (recvMsg) R << 8=FIX.4.2|9=326|35=8|34=28|49=FSX_UAT_ROLX|52=20230619-08:16:31.120|56=RUAT_ROLX_1|1=RUAT_ACCOUNT_1|6=0|11=2023900168716259100000027|14=0|17=1670707114948059136|20=0|31=0|32=0|37=1670707114913255424|38=1|39=0|40=1|47=P|54=2|55=2212|59=0|60=20230619-08:16:31.119|76=ROLX|109=101|150=0|151=1|544=1|8164=ROL|8169=20230619-08:16:31.119629|8214=0|10=207|
2023-06-19 17:16:31,233 : Result : Accepted ,ordStatus =0
2023-06-19 17:16:31,233 : -------------------------------------------------------------------------------------------------
2023-06-19 17:16:31,234 : (recvMsg) R << 8=FIX.4.2|9=326|35=8|34=29|49=FSX_UAT_ROLX|52=20230619-08:16:31.121|56=RUAT_ROLX_1|1=RUAT_ACCOUNT_1|6=0|11=2023900168716259100000028|14=0|17=1670707114948059137|20=0|31=0|32=0|37=1670707114921644032|38=1|39=0|40=1|47=P|54=2|55=2229|59=0|60=20230619-08:16:31.120|76=ROLX|109=101|150=0|151=1|544=1|8164=ROL|8169=20230619-08:16:31.120685|8214=0|10=201|
2023-06-19 17:16:31,234 : Result : Accepted ,ordStatus =0
2023-06-19 17:16:31,234 : -------------------------------------------------------------------------------------------------
2023-06-19 17:16:31,235 : (sendMsg) S >> 8=FIX.4.2|9=199|35=D|34=72|49=RUAT_ROLX_1|52=20230619-08:16:31.000|56=FSX_UAT_ROLX|1=RUAT_ACCOUNT_1|11=2023900168716259100000071|21=1|38=1|40=1|54=2|55=3288|60=20230619-08:16:31.235203|109=2023900168716259100000071|10=237|
2023-06-19 17:16:31,240 : (sendMsg) S >> 8=FIX.4.2|9=199|35=D|34=73|49=RUAT_ROLX_1|52=20230619-08:16:31.000|56=FSX_UAT_ROLX|1=RUAT_ACCOUNT_1|11=2023900168716259100000072|21=1|38=1|40=1|54=2|55=3289|60=20230619-08:16:31.240377|109=2023900168716259100000072|10=249|
2023-06-19 17:16:31,245 : (sendMsg) S >> 8=FIX.4.2|9=199|35=D|34=74|49=RUAT_ROLX_1|52=20230619-08:16:31.000|56=FSX_UAT_ROLX|1=RUAT_ACCOUNT_1|11=2023900168716259100000073|21=1|38=1|40=1|54=2|55=3291|60=20230619-08:16:31.245533|109=2023900168716259100000073|10=244|
2023-06-19 17:16:31,250 : (sendMsg) S >> 8=FIX.4.2|9=199|35=D|34=75|49=RUAT_ROLX_1|52=20230619-08:16:31.000|56=FSX_UAT_ROLX|1=RUAT_ACCOUNT_1|11=2023900168716259100000074|21=1|38=1|40=1|54=2|55=3349|60=20230619-08:16:31.250753|109=2023900168716259100000074|10=251|
2023-06-19 17:16:31,256 : (sendMsg) S >> 8=FIX.4.2|9=199|35=D|34=76|49=RUAT_ROLX_1|52=20230619-08:16:31.000|56=FSX_UAT_ROLX|1=RUAT_ACCOUNT_1|11=2023900168716259100000075|21=1|38=1|40=1|54=2|55=3360|60=20230619-08:16:31.255991|109=2023900168716259100000075|10=000|
2023-06-19 17:16:31,261 : (sendMsg) S >> 8=FIX.4.2|9=199|35=D|34=77|49=RUAT_ROLX_1|52=20230619-08:16:31.000|56=FSX_UAT_ROLX|1=RUAT_ACCOUNT_1|11=2023900168716259100000076|21=1|38=1|40=1|54=2|55=3391|60=20230619-08:16:31.261194|109=2023900168716259100000076|10=255|
2023-06-19 17:16:31,266 : (sendMsg) S >> 8=FIX.4.2|9=199|35=D|34=78|49=RUAT_ROLX_1|52=20230619-08:16:31.000|56=FSX_UAT_ROLX|1=RUAT_ACCOUNT_1|11=2023900168716259100000077|21=1|38=1|40=1|54=2|55=3401|60=20230619-08:16:31.266395|109=2023900168716259100000077|10=002|
2023-06-19 17:16:31,268 : (recvMsg) R << 8=FIX.4.2|9=326|35=8|34=30|49=FSX_UAT_ROLX|52=20230619-08:16:31.121|56=RUAT_ROLX_1|1=RUAT_ACCOUNT_1|6=0|11=2023900168716259100000029|14=0|17=1670707114956447744|20=0|31=0|32=0|37=1670707114925838336|38=1|39=0|40=1|47=P|54=2|55=2264|59=0|60=20230619-08:16:31.121|76=ROLX|109=101|150=0|151=1|544=1|8164=ROL|8169=20230619-08:16:31.121529|8214=0|10=212|
2023-06-19 17:16:31,268 : Result : Accepted ,ordStatus =0
2023-06-19 17:16:31,268 : -------------------------------------------------------------------------------------------------
2023-06-19 17:16:31,268 : (recvMsg) R << 8=FIX.4.2|9=326|35=8|34=31|49=FSX_UAT_ROLX|52=20230619-08:16:31.136|56=RUAT_ROLX_1|1=RUAT_ACCOUNT_1|6=0|11=2023900168716259100000030|14=0|17=1670707115065499648|20=0|31=0|32=0|37=1670707115043278848|38=1|39=0|40=1|47=P|54=2|55=2267|59=0|60=20230619-08:16:31.135|76=ROLX|109=101|150=0|151=1|544=1|8164=ROL|8169=20230619-08:16:31.135704|8214=0|10=219|
2023-06-19 17:16:31,268 : Result : Accepted ,ordStatus =0
2023-06-19 17:16:31,268 : -------------------------------------------------------------------------------------------------
2023-06-19 17:16:31,268 : (recvMsg) R << 8=FIX.4.2|9=326|35=8|34=32|49=FSX_UAT_ROLX|52=20230619-08:16:31.138|56=RUAT_ROLX_1|1=RUAT_ACCOUNT_1|6=0|11=2023900168716259100000031|14=0|17=1670707115073888256|20=0|31=0|32=0|37=1670707115047473152|38=1|39=0|40=1|47=P|54=2|55=2269|59=0|60=20230619-08:16:31.137|76=ROLX|109=101|150=0|151=1|544=1|8164=ROL|8169=20230619-08:16:31.137797|8214=0|10=226|
2023-06-19 17:16:31,269 : Result : Accepted ,ordStatus =0
2023-06-19 17:16:31,269 : -------------------------------------------------------------------------------------------------
2023-06-19 17:16:31,269 : (recvMsg) R << 8=FIX.4.2|9=326|35=8|34=33|49=FSX_UAT_ROLX|52=20230619-08:16:31.153|56=RUAT_ROLX_1|1=RUAT_ACCOUNT_1|6=0|11=2023900168716259100000032|14=0|17=1670707115132608512|20=0|31=0|32=0|37=1670707115114582016|38=1|39=0|40=1|47=P|54=2|55=2282|59=0|60=20230619-08:16:31.153|76=ROLX|109=101|150=0|151=1|544=1|8164=ROL|8169=20230619-08:16:31.153265|8214=0|10=182|
2023-06-19 17:16:31,269 : Result : Accepted ,ordStatus =0
2023-06-19 17:16:31,269 : -------------------------------------------------------------------------------------------------
2023-06-19 17:16:31,271 : (sendMsg) S >> 8=FIX.4.2|9=199|35=D|34=79|49=RUAT_ROLX_1|52=20230619-08:16:31.000|56=FSX_UAT_ROLX|1=RUAT_ACCOUNT_1|11=2023900168716259100000078|21=1|38=1|40=1|54=2|55=3405|60=20230619-08:16:31.271626|109=2023900168716259100000078|10=002|
2023-06-19 17:16:31,276 : (sendMsg) S >> 8=FIX.4.2|9=199|35=D|34=80|49=RUAT_ROLX_1|52=20230619-08:16:31.000|56=FSX_UAT_ROLX|1=RUAT_ACCOUNT_1|11=2023900168716259100000079|21=1|38=1|40=1|54=2|55=3436|60=20230619-08:16:31.276865|109=2023900168716259100000079|10=010|
2023-06-19 17:16:31,282 : (sendMsg) S >> 8=FIX.4.2|9=199|35=D|34=81|49=RUAT_ROLX_1|52=20230619-08:16:31.000|56=FSX_UAT_ROLX|1=RUAT_ACCOUNT_1|11=2023900168716259100000080|21=1|38=1|40=1|54=2|55=3549|60=20230619-08:16:31.282085|109=2023900168716259100000080|10=247|
2023-06-19 17:16:31,287 : (sendMsg) S >> 8=FIX.4.2|9=199|35=D|34=82|49=RUAT_ROLX_1|52=20230619-08:16:31.000|56=FSX_UAT_ROLX|1=RUAT_ACCOUNT_1|11=2023900168716259100000081|21=1|38=1|40=1|54=2|55=3563|60=20230619-08:16:31.287083|109=2023900168716259100000081|10=249|
2023-06-19 17:16:31,292 : (sendMsg) S >> 8=FIX.4.2|9=199|35=D|34=83|49=RUAT_ROLX_1|52=20230619-08:16:31.000|56=FSX_UAT_ROLX|1=RUAT_ACCOUNT_1|11=2023900168716259100000082|21=1|38=1|40=1|54=2|55=3591|60=20230619-08:16:31.292300|109=2023900168716259100000082|10=241|
2023-06-19 17:16:31,296 : (recvMsg) R << 8=FIX.4.2|9=326|35=8|34=34|49=FSX_UAT_ROLX|52=20230619-08:16:31.157|56=RUAT_ROLX_1|1=RUAT_ACCOUNT_1|6=0|11=2023900168716259100000033|14=0|17=1670707115149385728|20=0|31=0|32=0|37=1670707115122970624|38=1|39=0|40=1|47=P|54=2|55=2331|59=0|60=20230619-08:16:31.156|76=ROLX|109=101|150=0|151=1|544=1|8164=ROL|8169=20230619-08:16:31.156616|8214=0|10=213|
2023-06-19 17:16:31,296 : Result : Accepted ,ordStatus =0
2023-06-19 17:16:31,296 : -------------------------------------------------------------------------------------------------
2023-06-19 17:16:31,296 : (recvMsg) R << 8=FIX.4.2|9=326|35=8|34=35|49=FSX_UAT_ROLX|52=20230619-08:16:31.157|56=RUAT_ROLX_1|1=RUAT_ACCOUNT_1|6=0|11=2023900168716259100000034|14=0|17=1670707115161968640|20=0|31=0|32=0|37=1670707115127164928|38=1|39=0|40=1|47=P|54=2|55=2371|59=0|60=20230619-08:16:31.157|76=ROLX|109=101|150=0|151=1|544=1|8164=ROL|8169=20230619-08:16:31.157569|8214=0|10=229|
2023-06-19 17:16:31,297 : Result : Accepted ,ordStatus =0
2023-06-19 17:16:31,297 : -------------------------------------------------------------------------------------------------
2023-06-19 17:16:31,297 : (recvMsg) R << 8=FIX.4.2|9=326|35=8|34=36|49=FSX_UAT_ROLX|52=20230619-08:16:31.158|56=RUAT_ROLX_1|1=RUAT_ACCOUNT_1|6=0|11=2023900168716259100000035|14=0|17=1670707115161968641|20=0|31=0|32=0|37=1670707115131359232|38=1|39=0|40=1|47=P|54=2|55=2412|59=0|60=20230619-08:16:31.158|76=ROLX|109=101|150=0|151=1|544=1|8164=ROL|8169=20230619-08:16:31.158475|8214=0|10=216|
2023-06-19 17:16:31,297 : Result : Accepted ,ordStatus =0
2023-06-19 17:16:31,297 : -------------------------------------------------------------------------------------------------
2023-06-19 17:16:31,297 : (recvMsg) R << 8=FIX.4.2|9=326|35=8|34=37|49=FSX_UAT_ROLX|52=20230619-08:16:31.161|56=RUAT_ROLX_1|1=RUAT_ACCOUNT_1|6=0|11=2023900168716259100000036|14=0|17=1670707115161968642|20=0|31=0|32=0|37=1670707115139747840|38=1|39=0|40=1|47=P|54=2|55=2427|59=0|60=20230619-08:16:31.160|76=ROLX|109=101|150=0|151=1|544=1|8164=ROL|8169=20230619-08:16:31.160576|8214=0|10=221|
2023-06-19 17:16:31,297 : Result : Accepted ,ordStatus =0
2023-06-19 17:16:31,297 : -------------------------------------------------------------------------------------------------
2023-06-19 17:16:31,297 : (sendMsg) S >> 8=FIX.4.2|9=199|35=D|34=84|49=RUAT_ROLX_1|52=20230619-08:16:31.000|56=FSX_UAT_ROLX|1=RUAT_ACCOUNT_1|11=2023900168716259100000083|21=1|38=1|40=1|54=2|55=3626|60=20230619-08:16:31.297552|109=2023900168716259100000083|10=001|
2023-06-19 17:16:31,300 : (recvMsg) R << 8=FIX.4.2|9=326|35=8|34=38|49=FSX_UAT_ROLX|52=20230619-08:16:31.185|56=RUAT_ROLX_1|1=RUAT_ACCOUNT_1|6=0|11=2023900168716259100000037|14=0|17=1670707115208105984|20=0|31=0|32=0|37=1670707115190079488|38=1|39=0|40=1|47=P|54=2|55=2432|59=0|60=20230619-08:16:31.185|76=ROLX|109=101|150=0|151=1|544=1|8164=ROL|8169=20230619-08:16:31.185567|8214=0|10=236|
2023-06-19 17:16:31,300 : Result : Accepted ,ordStatus =0
2023-06-19 17:16:31,300 : -------------------------------------------------------------------------------------------------
2023-06-19 17:16:31,300 : (recvMsg) R << 8=FIX.4.2|9=326|35=8|34=39|49=FSX_UAT_ROLX|52=20230619-08:16:31.186|56=RUAT_ROLX_1|1=RUAT_ACCOUNT_1|6=0|11=2023900168716259100000038|14=0|17=1670707115220688896|20=0|31=0|32=0|37=1670707115198468096|38=1|39=0|40=1|47=P|54=2|55=2433|59=0|60=20230619-08:16:31.186|76=ROLX|109=101|150=0|151=1|544=1|8164=ROL|8169=20230619-08:16:31.186379|8214=0|10=004|
2023-06-19 17:16:31,300 : Result : Accepted ,ordStatus =0
2023-06-19 17:16:31,300 : -------------------------------------------------------------------------------------------------
2023-06-19 17:16:31,300 : (recvMsg) R << 8=FIX.4.2|9=326|35=8|34=40|49=FSX_UAT_ROLX|52=20230619-08:16:31.187|56=RUAT_ROLX_1|1=RUAT_ACCOUNT_1|6=0|11=2023900168716259100000039|14=0|17=1670707115233271808|20=0|31=0|32=0|37=1670707115202662400|38=1|39=0|40=1|47=P|54=2|55=2501|59=0|60=20230619-08:16:31.187|76=ROLX|109=101|150=0|151=1|544=1|8164=ROL|8169=20230619-08:16:31.187102|8214=0|10=192|
2023-06-19 17:16:31,300 : Result : Accepted ,ordStatus =0
2023-06-19 17:16:31,300 : -------------------------------------------------------------------------------------------------
2023-06-19 17:16:31,303 : (sendMsg) S >> 8=FIX.4.2|9=199|35=D|34=85|49=RUAT_ROLX_1|52=20230619-08:16:31.000|56=FSX_UAT_ROLX|1=RUAT_ACCOUNT_1|11=2023900168716259100000084|21=1|38=1|40=1|54=2|55=3635|60=20230619-08:16:31.303246|109=2023900168716259100000084|10=248|
2023-06-19 17:16:31,308 : (sendMsg) S >> 8=FIX.4.2|9=199|35=D|34=86|49=RUAT_ROLX_1|52=20230619-08:16:31.000|56=FSX_UAT_ROLX|1=RUAT_ACCOUNT_1|11=2023900168716259100000085|21=1|38=1|40=1|54=2|55=3659|60=20230619-08:16:31.308465|109=2023900168716259100000085|10=009|
2023-06-19 17:16:31,313 : (sendMsg) S >> 8=FIX.4.2|9=199|35=D|34=87|49=RUAT_ROLX_1|52=20230619-08:16:31.000|56=FSX_UAT_ROLX|1=RUAT_ACCOUNT_1|11=2023900168716259100000086|21=1|38=1|40=1|54=2|55=3697|60=20230619-08:16:31.313654|109=2023900168716259100000086|10=010|
2023-06-19 17:16:31,315 : (recvMsg) R << 8=FIX.4.2|9=326|35=8|34=41|49=FSX_UAT_ROLX|52=20230619-08:16:31.188|56=RUAT_ROLX_1|1=RUAT_ACCOUNT_1|6=0|11=2023900168716259100000040|14=0|17=1670707115233271809|20=0|31=0|32=0|37=1670707115206856704|38=1|39=0|40=1|47=P|54=2|55=2531|59=0|60=20230619-08:16:31.187|76=ROLX|109=101|150=0|151=1|544=1|8164=ROL|8169=20230619-08:16:31.187774|8214=0|10=221|
2023-06-19 17:16:31,315 : Result : Accepted ,ordStatus =0
2023-06-19 17:16:31,315 : -------------------------------------------------------------------------------------------------
2023-06-19 17:16:31,315 : (recvMsg) R << 8=FIX.4.2|9=326|35=8|34=42|49=FSX_UAT_ROLX|52=20230619-08:16:31.188|56=RUAT_ROLX_1|1=RUAT_ACCOUNT_1|6=0|11=2023900168716259100000041|14=0|17=1670707115241660416|20=0|31=0|32=0|37=1670707115215245312|38=1|39=0|40=1|47=P|54=2|55=2579|59=0|60=20230619-08:16:31.188|76=ROLX|109=101|150=0|151=1|544=1|8164=ROL|8169=20230619-08:16:31.188465|8214=0|10=216|
2023-06-19 17:16:31,315 : Result : Accepted ,ordStatus =0
2023-06-19 17:16:31,315 : -------------------------------------------------------------------------------------------------
2023-06-19 17:16:31,315 : (recvMsg) R << 8=FIX.4.2|9=326|35=8|34=43|49=FSX_UAT_ROLX|52=20230619-08:16:31.189|56=RUAT_ROLX_1|1=RUAT_ACCOUNT_1|6=0|11=2023900168716259100000042|14=0|17=1670707115241660417|20=0|31=0|32=0|37=1670707115219439616|38=1|39=0|40=1|47=P|54=2|55=2587|59=0|60=20230619-08:16:31.189|76=ROLX|109=101|150=0|151=1|544=1|8164=ROL|8169=20230619-08:16:31.189148|8214=0|10=235|
2023-06-19 17:16:31,315 : Result : Accepted ,ordStatus =0
2023-06-19 17:16:31,315 : -------------------------------------------------------------------------------------------------
2023-06-19 17:16:31,315 : (recvMsg) R << 8=FIX.4.2|9=326|35=8|34=44|49=FSX_UAT_ROLX|52=20230619-08:16:31.190|56=RUAT_ROLX_1|1=RUAT_ACCOUNT_1|6=0|11=2023900168716259100000043|14=0|17=1670707115258437632|20=0|31=0|32=0|37=1670707115227828224|38=1|39=0|40=1|47=P|54=2|55=2593|59=0|60=20230619-08:16:31.189|76=ROLX|109=101|150=0|151=1|544=1|8164=ROL|8169=20230619-08:16:31.189816|8214=0|10=233|
2023-06-19 17:16:31,315 : Result : Accepted ,ordStatus =0
2023-06-19 17:16:31,315 : -------------------------------------------------------------------------------------------------
2023-06-19 17:16:31,318 : (sendMsg) S >> 8=FIX.4.2|9=199|35=D|34=88|49=RUAT_ROLX_1|52=20230619-08:16:31.000|56=FSX_UAT_ROLX|1=RUAT_ACCOUNT_1|11=2023900168716259100000087|21=1|38=1|40=1|54=2|55=3765|60=20230619-08:16:31.318862|109=2023900168716259100000087|10=015|
2023-06-19 17:16:31,324 : (sendMsg) S >> 8=FIX.4.2|9=199|35=D|34=89|49=RUAT_ROLX_1|52=20230619-08:16:31.000|56=FSX_UAT_ROLX|1=RUAT_ACCOUNT_1|11=2023900168716259100000088|21=1|38=1|40=1|54=2|55=3769|60=20230619-08:16:31.324063|109=2023900168716259100000088|10=012|
2023-06-19 17:16:31,329 : (sendMsg) S >> 8=FIX.4.2|9=199|35=D|34=90|49=RUAT_ROLX_1|52=20230619-08:16:31.000|56=FSX_UAT_ROLX|1=RUAT_ACCOUNT_1|11=2023900168716259100000089|21=1|38=1|40=1|54=2|55=3774|60=20230619-08:16:31.329254|109=2023900168716259100000089|10=009|
2023-06-19 17:16:31,334 : (sendMsg) S >> 8=FIX.4.2|9=199|35=D|34=91|49=RUAT_ROLX_1|52=20230619-08:16:31.000|56=FSX_UAT_ROLX|1=RUAT_ACCOUNT_1|11=2023900168716259100000090|21=1|38=1|40=1|54=2|55=3861|60=20230619-08:16:31.334410|109=2023900168716259100000090|10=237|
2023-06-19 17:16:31,336 : (recvMsg) R << 8=FIX.4.2|9=326|35=8|34=45|49=FSX_UAT_ROLX|52=20230619-08:16:31.202|56=RUAT_ROLX_1|1=RUAT_ACCOUNT_1|6=0|11=2023900168716259100000044|14=0|17=1670707115346518016|20=0|31=0|32=0|37=1670707115328491520|38=1|39=0|40=1|47=P|54=2|55=2607|59=0|60=20230619-08:16:31.201|76=ROLX|109=101|150=0|151=1|544=1|8164=ROL|8169=20230619-08:16:31.201899|8214=0|10=197|
2023-06-19 17:16:31,336 : Result : Accepted ,ordStatus =0
2023-06-19 17:16:31,336 : -------------------------------------------------------------------------------------------------
2023-06-19 17:16:31,336 : (recvMsg) R << 8=FIX.4.2|9=326|35=8|34=46|49=FSX_UAT_ROLX|52=20230619-08:16:31.204|56=RUAT_ROLX_1|1=RUAT_ACCOUNT_1|6=0|11=2023900168716259100000045|14=0|17=1670707115359100928|20=0|31=0|32=0|37=1670707115332685824|38=1|39=0|40=1|47=P|54=2|55=2651|59=0|60=20230619-08:16:31.204|76=ROLX|109=101|150=0|151=1|544=1|8164=ROL|8169=20230619-08:16:31.204255|8214=0|10=202|
2023-06-19 17:16:31,336 : Result : Accepted ,ordStatus =0
2023-06-19 17:16:31,336 : -------------------------------------------------------------------------------------------------
2023-06-19 17:16:31,337 : (recvMsg) R << 8=FIX.4.2|9=326|35=8|34=47|49=FSX_UAT_ROLX|52=20230619-08:16:31.221|56=RUAT_ROLX_1|1=RUAT_ACCOUNT_1|6=0|11=2023900168716259100000046|14=0|17=1670707115413626880|20=0|31=0|32=0|37=1670707115395600384|38=1|39=0|40=1|47=P|54=2|55=2670|59=0|60=20230619-08:16:31.220|76=ROLX|109=101|150=0|151=1|544=1|8164=ROL|8169=20230619-08:16:31.220736|8214=0|10=202|
2023-06-19 17:16:31,337 : Result : Accepted ,ordStatus =0
2023-06-19 17:16:31,337 : -------------------------------------------------------------------------------------------------
2023-06-19 17:16:31,337 : (recvMsg) R << 8=FIX.4.2|9=326|35=8|34=48|49=FSX_UAT_ROLX|52=20230619-08:16:31.222|56=RUAT_ROLX_1|1=RUAT_ACCOUNT_1|6=0|11=2023900168716259100000047|14=0|17=1670707115426209792|20=0|31=0|32=0|37=1670707115399794688|38=1|39=0|40=1|47=P|54=2|55=2768|59=0|60=20230619-08:16:31.221|76=ROLX|109=101|150=0|151=1|544=1|8164=ROL|8169=20230619-08:16:31.221564|8214=0|10=242|
2023-06-19 17:16:31,337 : Result : Accepted ,ordStatus =0
2023-06-19 17:16:31,337 : -------------------------------------------------------------------------------------------------
2023-06-19 17:16:31,339 : (sendMsg) S >> 8=FIX.4.2|9=199|35=D|34=92|49=RUAT_ROLX_1|52=20230619-08:16:31.000|56=FSX_UAT_ROLX|1=RUAT_ACCOUNT_1|11=2023900168716259100000091|21=1|38=1|40=1|54=2|55=3880|60=20230619-08:16:31.339575|109=2023900168716259100000091|10=002|
2023-06-19 17:16:31,344 : (sendMsg) S >> 8=FIX.4.2|9=199|35=D|34=93|49=RUAT_ROLX_1|52=20230619-08:16:31.000|56=FSX_UAT_ROLX|1=RUAT_ACCOUNT_1|11=2023900168716259100000092|21=1|38=1|40=1|54=2|55=3923|60=20230619-08:16:31.344785|109=2023900168716259100000092|10=002|
2023-06-19 17:16:31,349 : (sendMsg) S >> 8=FIX.4.2|9=199|35=D|34=94|49=RUAT_ROLX_1|52=20230619-08:16:31.000|56=FSX_UAT_ROLX|1=RUAT_ACCOUNT_1|11=2023900168716259100000093|21=1|38=1|40=1|54=2|55=3941|60=20230619-08:16:31.349937|109=2023900168716259100000093|10=009|
2023-06-19 17:16:31,355 : (sendMsg) S >> 8=FIX.4.2|9=199|35=D|34=95|49=RUAT_ROLX_1|52=20230619-08:16:31.000|56=FSX_UAT_ROLX|1=RUAT_ACCOUNT_1|11=2023900168716259100000094|21=1|38=1|40=1|54=2|55=3994|60=20230619-08:16:31.355080|109=2023900168716259100000094|10=006|
2023-06-19 17:16:31,358 : (recvMsg) R << 8=FIX.4.2|9=326|35=8|34=49|49=FSX_UAT_ROLX|52=20230619-08:16:31.224|56=RUAT_ROLX_1|1=RUAT_ACCOUNT_1|6=0|11=2023900168716259100000048|14=0|17=1670707115426209793|20=0|31=0|32=0|37=1670707115403988992|38=1|39=0|40=1|47=P|54=2|55=2784|59=0|60=20230619-08:16:31.224|76=ROLX|109=101|150=0|151=1|544=1|8164=ROL|8169=20230619-08:16:31.224214|8214=0|10=232|
2023-06-19 17:16:31,358 : Result : Accepted ,ordStatus =0
2023-06-19 17:16:31,358 : -------------------------------------------------------------------------------------------------
2023-06-19 17:16:31,359 : (recvMsg) R << 8=FIX.4.2|9=326|35=8|34=50|49=FSX_UAT_ROLX|52=20230619-08:16:31.225|56=RUAT_ROLX_1|1=RUAT_ACCOUNT_1|6=0|11=2023900168716259100000049|14=0|17=1670707115434598400|20=0|31=0|32=0|37=1670707115412377600|38=1|39=0|40=1|47=P|54=2|55=2801|59=0|60=20230619-08:16:31.225|76=ROLX|109=101|150=0|151=1|544=1|8164=ROL|8169=20230619-08:16:31.225375|8214=0|10=199|
2023-06-19 17:16:31,359 : Result : Accepted ,ordStatus =0
2023-06-19 17:16:31,359 : -------------------------------------------------------------------------------------------------
2023-06-19 17:16:31,359 : (recvMsg) R << 8=FIX.4.2|9=326|35=8|34=51|49=FSX_UAT_ROLX|52=20230619-08:16:31.238|56=RUAT_ROLX_1|1=RUAT_ACCOUNT_1|6=0|11=2023900168716259100000050|14=0|17=1670707115497512960|20=0|31=0|32=0|37=1670707115475292160|38=1|39=0|40=1|47=P|54=2|55=2809|59=0|60=20230619-08:16:31.238|76=ROLX|109=101|150=0|151=1|544=1|8164=ROL|8169=20230619-08:16:31.238052|8214=0|10=216|
2023-06-19 17:16:31,360 : (sendMsg) S >> 8=FIX.4.2|9=199|35=D|34=96|49=RUAT_ROLX_1|52=20230619-08:16:31.000|56=FSX_UAT_ROLX|1=RUAT_ACCOUNT_1|11=2023900168716259100000095|21=1|38=1|40=1|54=2|55=4004|60=20230619-08:16:31.360282|109=2023900168716259100000095|10=248|
2023-06-19 17:16:31,360 : Result : Accepted ,ordStatus =0
2023-06-19 17:16:31,360 : -------------------------------------------------------------------------------------------------
2023-06-19 17:16:31,360 : (recvMsg) R << 8=FIX.4.2|9=326|35=8|34=52|49=FSX_UAT_ROLX|52=20230619-08:16:31.241|56=RUAT_ROLX_1|1=RUAT_ACCOUNT_1|6=0|11=2023900168716259100000051|14=0|17=1670707115510095872|20=0|31=0|32=0|37=1670707115479486464|38=1|39=0|40=1|47=P|54=2|55=2810|59=0|60=20230619-08:16:31.240|76=ROLX|109=101|150=0|151=1|544=1|8164=ROL|8169=20230619-08:16:31.240962|8214=0|10=210|
2023-06-19 17:16:31,360 : Result : Accepted ,ordStatus =0
2023-06-19 17:16:31,361 : -------------------------------------------------------------------------------------------------
2023-06-19 17:16:31,366 : (sendMsg) S >> 8=FIX.4.2|9=199|35=D|34=97|49=RUAT_ROLX_1|52=20230619-08:16:31.000|56=FSX_UAT_ROLX|1=RUAT_ACCOUNT_1|11=2023900168716259100000096|21=1|38=1|40=1|54=2|55=4005|60=20230619-08:16:31.366011|109=2023900168716259100000096|10=248|
2023-06-19 17:16:31,371 : (sendMsg) S >> 8=FIX.4.2|9=199|35=D|34=98|49=RUAT_ROLX_1|52=20230619-08:16:31.000|56=FSX_UAT_ROLX|1=RUAT_ACCOUNT_1|11=2023900168716259100000097|21=1|38=1|40=1|54=2|55=4021|60=20230619-08:16:31.371297|109=2023900168716259100000097|10=005|
2023-06-19 17:16:31,374 : (recvMsg) R << 8=FIX.4.2|9=326|35=8|34=53|49=FSX_UAT_ROLX|52=20230619-08:16:31.247|56=RUAT_ROLX_1|1=RUAT_ACCOUNT_1|6=0|11=2023900168716259100000052|14=0|17=1670707115522678784|20=0|31=0|32=0|37=1670707115487875072|38=1|39=0|40=1|47=P|54=2|55=2811|59=0|60=20230619-08:16:31.246|76=ROLX|109=101|150=0|151=1|544=1|8164=ROL|8169=20230619-08:16:31.246931|8214=0|10=235|
2023-06-19 17:16:31,374 : Result : Accepted ,ordStatus =0
2023-06-19 17:16:31,374 : -------------------------------------------------------------------------------------------------
2023-06-19 17:16:31,374 : (recvMsg) R << 8=FIX.4.2|9=326|35=8|34=54|49=FSX_UAT_ROLX|52=20230619-08:16:31.248|56=RUAT_ROLX_1|1=RUAT_ACCOUNT_1|6=0|11=2023900168716259100000053|14=0|17=1670707115522678785|20=0|31=0|32=0|37=1670707115496263680|38=1|39=0|40=1|47=P|54=2|55=2815|59=0|60=20230619-08:16:31.247|76=ROLX|109=101|150=0|151=1|544=1|8164=ROL|8169=20230619-08:16:31.247749|8214=0|10=248|
2023-06-19 17:16:31,374 : Result : Accepted ,ordStatus =0
2023-06-19 17:16:31,374 : -------------------------------------------------------------------------------------------------
2023-06-19 17:16:31,374 : (recvMsg) R << 8=FIX.4.2|9=326|35=8|34=55|49=FSX_UAT_ROLX|52=20230619-08:16:31.260|56=RUAT_ROLX_1|1=RUAT_ACCOUNT_1|6=0|11=2023900168716259100000054|14=0|17=1670707115522678786|20=0|31=0|32=0|37=1670707115500457984|38=1|39=0|40=1|47=P|54=2|55=2871|59=0|60=20230619-08:16:31.260|76=ROLX|109=101|150=0|151=1|544=1|8164=ROL|8169=20230619-08:16:31.260499|8214=0|10=237|
2023-06-19 17:16:31,374 : Result : Accepted ,ordStatus =0
2023-06-19 17:16:31,374 : -------------------------------------------------------------------------------------------------
2023-06-19 17:16:31,374 : (recvMsg) R << 8=FIX.4.2|9=326|35=8|34=56|49=FSX_UAT_ROLX|52=20230619-08:16:31.261|56=RUAT_ROLX_1|1=RUAT_ACCOUNT_1|6=0|11=2023900168716259100000055|14=0|17=1670707115531067392|20=0|31=0|32=0|37=1670707115504652288|38=1|39=0|40=1|47=P|54=2|55=2875|59=0|60=20230619-08:16:31.261|76=ROLX|109=101|150=0|151=1|544=1|8164=ROL|8169=20230619-08:16:31.261309|8214=0|10=219|
2023-06-19 17:16:31,374 : Result : Accepted ,ordStatus =0
2023-06-19 17:16:31,374 : -------------------------------------------------------------------------------------------------
2023-06-19 17:16:31,376 : (sendMsg) S >> 8=FIX.4.2|9=199|35=D|34=99|49=RUAT_ROLX_1|52=20230619-08:16:31.000|56=FSX_UAT_ROLX|1=RUAT_ACCOUNT_1|11=2023900168716259100000098|21=1|38=1|40=1|54=2|55=4042|60=20230619-08:16:31.376479|109=2023900168716259100000098|10=018|
2023-06-19 17:16:31,381 : (sendMsg) S >> 8=FIX.4.2|9=200|35=D|34=100|49=RUAT_ROLX_1|52=20230619-08:16:31.000|56=FSX_UAT_ROLX|1=RUAT_ACCOUNT_1|11=2023900168716259100000099|21=1|38=1|40=1|54=2|55=4043|60=20230619-08:16:31.381640|109=2023900168716259100000099|10=021|
2023-06-19 17:16:31,385 : (recvMsg) R << 8=FIX.4.2|9=326|35=8|34=57|49=FSX_UAT_ROLX|52=20230619-08:16:31.262|56=RUAT_ROLX_1|1=RUAT_ACCOUNT_1|6=0|11=2023900168716259100000056|14=0|17=1670707115543650304|20=0|31=0|32=0|37=1670707115508846592|38=1|39=0|40=1|47=P|54=2|55=2897|59=0|60=20230619-08:16:31.262|76=ROLX|109=101|150=0|151=1|544=1|8164=ROL|8169=20230619-08:16:31.262042|8214=0|10=223|
2023-06-19 17:16:31,385 : Result : Accepted ,ordStatus =0
2023-06-19 17:16:31,385 : -------------------------------------------------------------------------------------------------
2023-06-19 17:16:31,385 : (recvMsg) R << 8=FIX.4.2|9=326|35=8|34=58|49=FSX_UAT_ROLX|52=20230619-08:16:31.263|56=RUAT_ROLX_1|1=RUAT_ACCOUNT_1|6=0|11=2023900168716259100000057|14=0|17=1670707115568816128|20=0|31=0|32=0|37=1670707115546595328|38=1|39=0|40=1|47=P|54=2|55=3003|59=0|60=20230619-08:16:31.263|76=ROLX|109=101|150=0|151=1|544=1|8164=ROL|8169=20230619-08:16:31.263121|8214=0|10=221|
2023-06-19 17:16:31,385 : Result : Accepted ,ordStatus =0
2023-06-19 17:16:31,385 : -------------------------------------------------------------------------------------------------
2023-06-19 17:16:31,386 : (recvMsg) R << 8=FIX.4.2|9=326|35=8|34=59|49=FSX_UAT_ROLX|52=20230619-08:16:31.264|56=RUAT_ROLX_1|1=RUAT_ACCOUNT_1|6=0|11=2023900168716259100000058|14=0|17=1670707115585593344|20=0|31=0|32=0|37=1670707115567566848|38=1|39=0|40=1|47=P|54=2|55=3038|59=0|60=20230619-08:16:31.263|76=ROLX|109=101|150=0|151=1|544=1|8164=ROL|8169=20230619-08:16:31.263960|8214=0|10=252|
2023-06-19 17:16:31,386 : Result : Accepted ,ordStatus =0
2023-06-19 17:16:31,386 : -------------------------------------------------------------------------------------------------
2023-06-19 17:16:31,386 : (recvMsg) R << 8=FIX.4.2|9=326|35=8|34=60|49=FSX_UAT_ROLX|52=20230619-08:16:31.268|56=RUAT_ROLX_1|1=RUAT_ACCOUNT_1|6=0|11=2023900168716259100000060|14=0|17=1670707115619147776|20=0|31=0|32=0|37=1670707115601121280|38=1|39=0|40=1|47=P|54=2|55=3086|59=0|60=20230619-08:16:31.268|76=ROLX|109=101|150=0|151=1|544=1|8164=ROL|8169=20230619-08:16:31.268146|8214=0|10=218|
2023-06-19 17:16:31,386 : Result : Accepted ,ordStatus =0
2023-06-19 17:16:31,386 : -------------------------------------------------------------------------------------------------
2023-06-19 17:16:31,386 : (sendMsg) S >> 8=FIX.4.2|9=200|35=D|34=101|49=RUAT_ROLX_1|52=20230619-08:16:31.000|56=FSX_UAT_ROLX|1=RUAT_ACCOUNT_1|11=2023900168716259100000100|21=1|38=1|40=1|54=2|55=4045|60=20230619-08:16:31.386800|109=2023900168716259100000100|10=249|
2023-06-19 17:16:31,391 : (sendMsg) S >> 8=FIX.4.2|9=200|35=D|34=102|49=RUAT_ROLX_1|52=20230619-08:16:31.000|56=FSX_UAT_ROLX|1=RUAT_ACCOUNT_1|11=2023900168716259100000101|21=1|38=1|40=1|54=2|55=4061|60=20230619-08:16:31.391841|109=2023900168716259100000101|10=251|
2023-06-19 17:16:31,397 : (sendMsg) S >> 8=FIX.4.2|9=200|35=D|34=103|49=RUAT_ROLX_1|52=20230619-08:16:31.000|56=FSX_UAT_ROLX|1=RUAT_ACCOUNT_1|11=2023900168716259100000102|21=1|38=1|40=1|54=2|55=4062|60=20230619-08:16:31.397049|109=2023900168716259100000102|10=005|
2023-06-19 17:16:31,403 : (sendMsg) S >> 8=FIX.4.2|9=200|35=D|34=104|49=RUAT_ROLX_1|52=20230619-08:16:31.000|56=FSX_UAT_ROLX|1=RUAT_ACCOUNT_1|11=2023900168716259100000103|21=1|38=1|40=1|54=2|55=4088|60=20230619-08:16:31.403399|109=2023900168716259100000103|10=012|
2023-06-19 17:16:31,408 : (sendMsg) S >> 8=FIX.4.2|9=200|35=D|34=105|49=RUAT_ROLX_1|52=20230619-08:16:31.000|56=FSX_UAT_ROLX|1=RUAT_ACCOUNT_1|11=2023900168716259100000104|21=1|38=1|40=1|54=2|55=4091|60=20230619-08:16:31.408587|109=2023900168716259100000104|10=013|
2023-06-19 17:16:31,413 : (sendMsg) S >> 8=FIX.4.2|9=200|35=D|34=106|49=RUAT_ROLX_1|52=20230619-08:16:31.000|56=FSX_UAT_ROLX|1=RUAT_ACCOUNT_1|11=2023900168716259100000105|21=1|38=1|40=1|54=2|55=4114|60=20230619-08:16:31.413154|109=2023900168716259100000105|10=254|
2023-06-19 17:16:31,418 : (sendMsg) S >> 8=FIX.4.2|9=200|35=D|34=107|49=RUAT_ROLX_1|52=20230619-08:16:31.000|56=FSX_UAT_ROLX|1=RUAT_ACCOUNT_1|11=2023900168716259100000106|21=1|38=1|40=1|54=2|55=4118|60=20230619-08:16:31.418329|109=2023900168716259100000106|10=014|
2023-06-19 17:16:31,423 : (sendMsg) S >> 8=FIX.4.2|9=200|35=D|34=108|49=RUAT_ROLX_1|52=20230619-08:16:31.000|56=FSX_UAT_ROLX|1=RUAT_ACCOUNT_1|11=2023900168716259100000107|21=1|38=1|40=1|54=2|55=4151|60=20230619-08:16:31.423731|109=2023900168716259100000107|10=007|
2023-06-19 17:16:31,424 : (recvMsg) R << 8=FIX.4.2|9=326|35=8|34=61|49=FSX_UAT_ROLX|52=20230619-08:16:31.271|56=RUAT_ROLX_1|1=RUAT_ACCOUNT_1|6=0|11=2023900168716259100000059|14=0|17=1670707115619147777|20=0|31=0|32=0|37=1670707115601121281|38=1|39=0|40=1|47=P|54=2|55=3064|59=0|60=20230619-08:16:31.271|76=ROLX|109=101|150=0|151=1|544=1|8164=ROL|8169=20230619-08:16:31.271614|8214=0|10=207|
2023-06-19 17:16:31,424 : Result : Accepted ,ordStatus =0
2023-06-19 17:16:31,424 : -------------------------------------------------------------------------------------------------
2023-06-19 17:16:31,425 : (recvMsg) R << 8=FIX.4.2|9=326|35=8|34=62|49=FSX_UAT_ROLX|52=20230619-08:16:31.294|56=RUAT_ROLX_1|1=RUAT_ACCOUNT_1|6=0|11=2023900168716259100000061|14=0|17=1670707115677868032|20=0|31=0|32=0|37=1670707115643064320|38=1|39=0|40=1|47=P|54=2|55=3088|59=0|60=20230619-08:16:31.294|76=ROLX|109=101|150=0|151=1|544=1|8164=ROL|8169=20230619-08:16:31.294447|8214=0|10=230|
2023-06-19 17:16:31,425 : Result : Accepted ,ordStatus =0
2023-06-19 17:16:31,425 : -------------------------------------------------------------------------------------------------
2023-06-19 17:16:31,425 : (recvMsg) R << 8=FIX.4.2|9=326|35=8|34=63|49=FSX_UAT_ROLX|52=20230619-08:16:31.295|56=RUAT_ROLX_1|1=RUAT_ACCOUNT_1|6=0|11=2023900168716259100000062|14=0|17=1670707115686256640|20=0|31=0|32=0|37=1670707115647258624|38=1|39=0|40=1|47=P|54=2|55=3092|59=0|60=20230619-08:16:31.295|76=ROLX|109=101|150=0|151=1|544=1|8164=ROL|8169=20230619-08:16:31.295323|8214=0|10=235|
2023-06-19 17:16:31,425 : Result : Accepted ,ordStatus =0
2023-06-19 17:16:31,425 : -------------------------------------------------------------------------------------------------
2023-06-19 17:16:31,425 : (recvMsg) R << 8=FIX.4.2|9=326|35=8|34=64|49=FSX_UAT_ROLX|52=20230619-08:16:31.296|56=RUAT_ROLX_1|1=RUAT_ACCOUNT_1|6=0|11=2023900168716259100000063|14=0|17=1670707115698839552|20=0|31=0|32=0|37=1670707115676618752|38=1|39=0|40=1|47=P|54=2|55=3099|59=0|60=20230619-08:16:31.296|76=ROLX|109=101|150=0|151=1|544=1|8164=ROL|8169=20230619-08:16:31.296085|8214=0|10=012|
2023-06-19 17:16:31,425 : Result : Accepted ,ordStatus =0
2023-06-19 17:16:31,425 : -------------------------------------------------------------------------------------------------
2023-06-19 17:16:31,429 : (sendMsg) S >> 8=FIX.4.2|9=200|35=D|34=109|49=RUAT_ROLX_1|52=20230619-08:16:31.000|56=FSX_UAT_ROLX|1=RUAT_ACCOUNT_1|11=2023900168716259100000108|21=1|38=1|40=1|54=2|55=4182|60=20230619-08:16:31.428985|109=2023900168716259100000108|10=030|
2023-06-19 17:16:31,434 : (sendMsg) S >> 8=FIX.4.2|9=200|35=D|34=110|49=RUAT_ROLX_1|52=20230619-08:16:31.000|56=FSX_UAT_ROLX|1=RUAT_ACCOUNT_1|11=2023900168716259100000109|21=1|38=1|40=1|54=2|55=4183|60=20230619-08:16:31.434151|109=2023900168716259100000109|10=007|
2023-06-19 17:16:31,439 : (sendMsg) S >> 8=FIX.4.2|9=200|35=D|34=111|49=RUAT_ROLX_1|52=20230619-08:16:31.000|56=FSX_UAT_ROLX|1=RUAT_ACCOUNT_1|11=2023900168716259100000110|21=1|38=1|40=1|54=2|55=4185|60=20230619-08:16:31.439338|109=2023900168716259100000110|10=006|
2023-06-19 17:16:31,444 : (sendMsg) S >> 8=FIX.4.2|9=200|35=D|34=112|49=RUAT_ROLX_1|52=20230619-08:16:31.000|56=FSX_UAT_ROLX|1=RUAT_ACCOUNT_1|11=2023900168716259100000111|21=1|38=1|40=1|54=2|55=4186|60=20230619-08:16:31.443999|109=2023900168716259100000111|10=018|
2023-06-19 17:16:31,448 : (sendMsg) S >> 8=FIX.4.2|9=200|35=D|34=113|49=RUAT_ROLX_1|52=20230619-08:16:31.000|56=FSX_UAT_ROLX|1=RUAT_ACCOUNT_1|11=2023900168716259100000112|21=1|38=1|40=1|54=2|55=4202|60=20230619-08:16:31.448719|109=2023900168716259100000112|10=005|
2023-06-19 17:16:31,449 : (recvMsg) R << 8=FIX.4.2|9=326|35=8|34=65|49=FSX_UAT_ROLX|52=20230619-08:16:31.312|56=RUAT_ROLX_1|1=RUAT_ACCOUNT_1|6=0|11=2023900168716259100000064|14=0|17=1670707115803697152|20=0|31=0|32=0|37=1670707115785670656|38=1|39=0|40=1|47=P|54=2|55=3101|59=0|60=20230619-08:16:31.312|76=ROLX|109=101|150=0|151=1|544=1|8164=ROL|8169=20230619-08:16:31.312661|8214=0|10=209|
2023-06-19 17:16:31,449 : Result : Accepted ,ordStatus =0
2023-06-19 17:16:31,449 : -------------------------------------------------------------------------------------------------
2023-06-19 17:16:31,449 : (recvMsg) R << 8=FIX.4.2|9=326|35=8|34=66|49=FSX_UAT_ROLX|52=20230619-08:16:31.315|56=RUAT_ROLX_1|1=RUAT_ACCOUNT_1|6=0|11=2023900168716259100000065|14=0|17=1670707115812085760|20=0|31=0|32=0|37=1670707115789864960|38=1|39=0|40=1|47=P|54=2|55=3105|59=0|60=20230619-08:16:31.315|76=ROLX|109=101|150=0|151=1|544=1|8164=ROL|8169=20230619-08:16:31.315329|8214=0|10=228|
2023-06-19 17:16:31,449 : Result : Accepted ,ordStatus =0
2023-06-19 17:16:31,449 : -------------------------------------------------------------------------------------------------
2023-06-19 17:16:31,449 : (recvMsg) R << 8=FIX.4.2|9=326|35=8|34=67|49=FSX_UAT_ROLX|52=20230619-08:16:31.331|56=RUAT_ROLX_1|1=RUAT_ACCOUNT_1|6=0|11=2023900168716259100000066|14=0|17=1670707115879194624|20=0|31=0|32=0|37=1670707115861168128|38=1|39=0|40=1|47=P|54=2|55=3107|59=0|60=20230619-08:16:31.330|76=ROLX|109=101|150=0|151=1|544=1|8164=ROL|8169=20230619-08:16:31.330649|8214=0|10=226|
2023-06-19 17:16:31,449 : Result : Accepted ,ordStatus =0
2023-06-19 17:16:31,449 : -------------------------------------------------------------------------------------------------
2023-06-19 17:16:31,449 : (recvMsg) R << 8=FIX.4.2|9=326|35=8|34=68|49=FSX_UAT_ROLX|52=20230619-08:16:31.333|56=RUAT_ROLX_1|1=RUAT_ACCOUNT_1|6=0|11=2023900168716259100000067|14=0|17=1670707115887583232|20=0|31=0|32=0|37=1670707115865362432|38=1|39=0|40=1|47=P|54=2|55=3116|59=0|60=20230619-08:16:31.333|76=ROLX|109=101|150=0|151=1|544=1|8164=ROL|8169=20230619-08:16:31.333073|8214=0|10=221|
2023-06-19 17:16:31,449 : Result : Accepted ,ordStatus =0
2023-06-19 17:16:31,449 : -------------------------------------------------------------------------------------------------
2023-06-19 17:16:31,453 : (sendMsg) S >> 8=FIX.4.2|9=200|35=D|34=114|49=RUAT_ROLX_1|52=20230619-08:16:31.000|56=FSX_UAT_ROLX|1=RUAT_ACCOUNT_1|11=2023900168716259100000113|21=1|38=1|40=1|54=2|55=4203|60=20230619-08:16:31.453908|109=2023900168716259100000113|10=005|
2023-06-19 17:16:31,459 : (sendMsg) S >> 8=FIX.4.2|9=200|35=D|34=115|49=RUAT_ROLX_1|52=20230619-08:16:31.000|56=FSX_UAT_ROLX|1=RUAT_ACCOUNT_1|11=2023900168716259100000114|21=1|38=1|40=1|54=2|55=4204|60=20230619-08:16:31.459148|109=2023900168716259100000114|10=011|
2023-06-19 17:16:31,464 : (sendMsg) S >> 8=FIX.4.2|9=200|35=D|34=116|49=RUAT_ROLX_1|52=20230619-08:16:31.000|56=FSX_UAT_ROLX|1=RUAT_ACCOUNT_1|11=2023900168716259100000115|21=1|38=1|40=1|54=2|55=4205|60=20230619-08:16:31.464370|109=2023900168716259100000115|10=008|
2023-06-19 17:16:31,468 : (recvMsg) R << 8=FIX.4.2|9=326|35=8|34=69|49=FSX_UAT_ROLX|52=20230619-08:16:31.335|56=RUAT_ROLX_1|1=RUAT_ACCOUNT_1|6=0|11=2023900168716259100000068|14=0|17=1670707115887583233|20=0|31=0|32=0|37=1670707115869556736|38=1|39=0|40=1|47=P|54=2|55=3141|59=0|60=20230619-08:16:31.334|76=ROLX|109=101|150=0|151=1|544=1|8164=ROL|8169=20230619-08:16:31.334687|8214=0|10=253|
2023-06-19 17:16:31,468 : Result : Accepted ,ordStatus =0
2023-06-19 17:16:31,468 : -------------------------------------------------------------------------------------------------
2023-06-19 17:16:31,469 : (sendMsg) S >> 8=FIX.4.2|9=200|35=D|34=117|49=RUAT_ROLX_1|52=20230619-08:16:31.000|56=FSX_UAT_ROLX|1=RUAT_ACCOUNT_1|11=2023900168716259100000116|21=1|38=1|40=1|54=2|55=4206|60=20230619-08:16:31.469525|109=2023900168716259100000116|10=019|
2023-06-19 17:16:31,474 : (recvMsg) R << 8=FIX.4.2|9=326|35=8|34=70|49=FSX_UAT_ROLX|52=20230619-08:16:31.359|56=RUAT_ROLX_1|1=RUAT_ACCOUNT_1|6=0|11=2023900168716259100000069|14=0|17=1670707115908554752|20=0|31=0|32=0|37=1670707115882139648|38=1|39=0|40=1|47=P|54=2|55=3197|59=0|60=20230619-08:16:31.359|76=ROLX|109=101|150=0|151=1|544=1|8164=ROL|8169=20230619-08:16:31.359330|8214=0|10=254|
2023-06-19 17:16:31,474 : Result : Accepted ,ordStatus =0
2023-06-19 17:16:31,474 : -------------------------------------------------------------------------------------------------
2023-06-19 17:16:31,474 : (recvMsg) R << 8=FIX.4.2|9=326|35=8|34=71|49=FSX_UAT_ROLX|52=20230619-08:16:31.360|56=RUAT_ROLX_1|1=RUAT_ACCOUNT_1|6=0|11=2023900168716259100000070|14=0|17=1670707115908554753|20=0|31=0|32=0|37=1670707115882139649|38=1|39=0|40=1|47=P|54=2|55=3231|59=0|60=20230619-08:16:31.360|76=ROLX|109=101|150=0|151=1|544=1|8164=ROL|8169=20230619-08:16:31.360128|8214=0|10=219|
2023-06-19 17:16:31,474 : Result : Accepted ,ordStatus =0
2023-06-19 17:16:31,474 : -------------------------------------------------------------------------------------------------
2023-06-19 17:16:31,474 : (recvMsg) R << 8=FIX.4.2|9=326|35=8|34=72|49=FSX_UAT_ROLX|52=20230619-08:16:31.361|56=RUAT_ROLX_1|1=RUAT_ACCOUNT_1|6=0|11=2023900168716259100000071|14=0|17=1670707115954692096|20=0|31=0|32=0|37=1670707115932471296|38=1|39=0|40=1|47=P|54=2|55=3288|59=0|60=20230619-08:16:31.360|76=ROLX|109=101|150=0|151=1|544=1|8164=ROL|8169=20230619-08:16:31.360929|8214=0|10=240|
2023-06-19 17:16:31,475 : Result : Accepted ,ordStatus =0
2023-06-19 17:16:31,475 : -------------------------------------------------------------------------------------------------
2023-06-19 17:16:31,475 : (sendMsg) S >> 8=FIX.4.2|9=200|35=D|34=118|49=RUAT_ROLX_1|52=20230619-08:16:31.000|56=FSX_UAT_ROLX|1=RUAT_ACCOUNT_1|11=2023900168716259100000117|21=1|38=1|40=1|54=2|55=4208|60=20230619-08:16:31.474901|109=2023900168716259100000117|10=018|
2023-06-19 17:16:31,475 : (recvMsg) R << 8=FIX.4.2|9=326|35=8|34=73|49=FSX_UAT_ROLX|52=20230619-08:16:31.362|56=RUAT_ROLX_1|1=RUAT_ACCOUNT_1|6=0|11=2023900168716259100000072|14=0|17=1670707115967275008|20=0|31=0|32=0|37=1670707115940859904|38=1|39=0|40=1|47=P|54=2|55=3289|59=0|60=20230619-08:16:31.361|76=ROLX|109=101|150=0|151=1|544=1|8164=ROL|8169=20230619-08:16:31.361719|8214=0|10=242|
2023-06-19 17:16:31,475 : Result : Accepted ,ordStatus =0
2023-06-19 17:16:31,475 : -------------------------------------------------------------------------------------------------
2023-06-19 17:16:31,475 : (recvMsg) R << 8=FIX.4.2|9=326|35=8|34=74|49=FSX_UAT_ROLX|52=20230619-08:16:31.362|56=RUAT_ROLX_1|1=RUAT_ACCOUNT_1|6=0|11=2023900168716259100000073|14=0|17=1670707115979857920|20=0|31=0|32=0|37=1670707115949248512|38=1|39=0|40=1|47=P|54=2|55=3291|59=0|60=20230619-08:16:31.362|76=ROLX|109=101|150=0|151=1|544=1|8164=ROL|8169=20230619-08:16:31.362440|8214=0|10=238|
2023-06-19 17:16:31,475 : Result : Accepted ,ordStatus =0
2023-06-19 17:16:31,476 : -------------------------------------------------------------------------------------------------
2023-06-19 17:16:31,476 : (recvMsg) R << 8=FIX.4.2|9=326|35=8|34=75|49=FSX_UAT_ROLX|52=20230619-08:16:31.363|56=RUAT_ROLX_1|1=RUAT_ACCOUNT_1|6=0|11=2023900168716259100000074|14=0|17=1670707115979857921|20=0|31=0|32=0|37=1670707115953442816|38=1|39=0|40=1|47=P|54=2|55=3349|59=0|60=20230619-08:16:31.363|76=ROLX|109=101|150=0|151=1|544=1|8164=ROL|8169=20230619-08:16:31.363122|8214=0|10=243|
2023-06-19 17:16:31,476 : Result : Accepted ,ordStatus =0
2023-06-19 17:16:31,476 : -------------------------------------------------------------------------------------------------
2023-06-19 17:16:31,476 : (recvMsg) R << 8=FIX.4.2|9=326|35=8|34=76|49=FSX_UAT_ROLX|52=20230619-08:16:31.364|56=RUAT_ROLX_1|1=RUAT_ACCOUNT_1|6=0|11=2023900168716259100000075|14=0|17=1670707115988246528|20=0|31=0|32=0|37=1670707115957637120|38=1|39=0|40=1|47=P|54=2|55=3360|59=0|60=20230619-08:16:31.363|76=ROLX|109=101|150=0|151=1|544=1|8164=ROL|8169=20230619-08:16:31.363853|8214=0|10=243|
2023-06-19 17:16:31,477 : Result : Accepted ,ordStatus =0
2023-06-19 17:16:31,477 : -------------------------------------------------------------------------------------------------
2023-06-19 17:16:31,480 : (sendMsg) S >> 8=FIX.4.2|9=200|35=D|34=119|49=RUAT_ROLX_1|52=20230619-08:16:31.000|56=FSX_UAT_ROLX|1=RUAT_ACCOUNT_1|11=2023900168716259100000118|21=1|38=1|40=1|54=2|55=4272|60=20230619-08:16:31.480294|109=2023900168716259100000118|10=024|
2023-06-19 17:16:31,485 : (sendMsg) S >> 8=FIX.4.2|9=200|35=D|34=120|49=RUAT_ROLX_1|52=20230619-08:16:31.000|56=FSX_UAT_ROLX|1=RUAT_ACCOUNT_1|11=2023900168716259100000119|21=1|38=1|40=1|54=2|55=4307|60=20230619-08:16:31.485459|109=2023900168716259100000119|10=025|
