2023-10-06 20:11:03,819 : (Core) S >> 8=FIX.4.2|9=83|35=A|34=1|49=RSIT_EDP_1|52=20231006-11:11:03.000|56=FSX_SIT_EDP|98=0|108=300|141=Y|10=195|
2023-10-06 20:11:04,215 : (Core) R << 8=FIX.4.2|9=83|35=A|34=1|49=FSX_SIT_EDP|52=20231006-11:11:03.930|56=RSIT_EDP_1|98=0|108=300|141=Y|10=207|
2023-10-06 20:11:05,757 : (sendMsg) S >> 8=FIX.4.2|9=162|35=D|34=2|49=RSIT_EDP_1|52=20231006-11:11:05.000|56=FSX_SIT_EDP|1=RSIT_EDP_ACCOUNT_1|11=16965906654587000001|38=100|40=1|54=2|55=5110|60=20231006-11:11:05.756006|10=203|
2023-10-06 20:11:05,882 : (recvMsg) Order Rejected << 8=FIX.4.2|9=380|35=8|34=2|49=FSX_SIT_EDP|52=20231006-11:11:05.922|56=RSIT_EDP_1|1=RSIT_EDP_ACCOUNT_1|6=0|11=16965906654587000001|14=0|17=1710251326842355712|20=0|31=0|32=0|37=1710251326827008000|38=100|39=8|40=1|44=0|47=P|54=2|55=5110|58=ERROR_20010064,Book is Closed|59=3|60=20231006-11:11:05.922|103=2|109=101|110=0|150=8|151=0|544=1|8060=3|8164=EDP|8169=20231006-11:11:05.922470|8174=0|8214=0|10=232|
2023-10-06 20:11:05,883 : (Core) S >> 8=FIX.4.2|9=64|35=5|34=3|49=RSIT_EDP_1|52=20231006-11:11:05.000|56=FSX_SIT_EDP|10=068|
2023-10-06 20:11:06,058 : (Core) R << 8=FIX.4.2|9=64|35=5|34=3|49=FSX_SIT_EDP|52=20231006-11:11:05.994|56=RSIT_EDP_1|10=090|
2023-10-06 20:11:06,063 : Result: order_new = 1（ order_accepted = 0, order_rejected = 1, order_book_is_close =1）
2023-10-06 20:11:06,063 : Result: order_edp_indication = 0（ order_tostnet_confirmation = 0, order_tostnet_rejection = 0）
2023-10-06 20:11:06,063 : Result: order_ioc_expired = 0
2023-10-06 20:11:06,063 : Result: not_book_is_close = []
