2023-10-06 20:11:30,050 : (Core) S >> 8=FIX.4.2|9=83|35=A|34=1|49=RSIT_EDP_6|52=20231006-11:11:30.000|56=FSX_SIT_EDP|98=0|108=300|141=Y|10=200|
2023-10-06 20:11:30,171 : (Core) R << 8=FIX.4.2|9=83|35=A|34=1|49=FSX_SIT_EDP|52=20231006-11:11:30.218|56=RSIT_EDP_6|98=0|108=300|141=Y|10=211|
2023-10-06 20:11:31,928 : (sendMsg) S >> 8=FIX.4.2|9=162|35=D|34=2|49=RSIT_EDP_6|52=20231006-11:11:31.000|56=FSX_SIT_EDP|1=RSIT_EDP_ACCOUNT_6|11=16965906912615000001|38=100|40=1|54=2|55=5110|60=20231006-11:11:31.928107|10=203|
2023-10-06 20:11:32,075 : (recvMsg) Order Rejected << 8=FIX.4.2|9=380|35=8|34=2|49=FSX_SIT_EDP|52=20231006-11:11:32.110|56=RSIT_EDP_6|1=RSIT_EDP_ACCOUNT_6|6=0|11=16965906912615000001|14=0|17=1710251436712148992|20=0|31=0|32=0|37=1710251436700995584|38=100|39=8|40=1|44=0|47=P|54=2|55=5110|58=ERROR_20010064,Book is Closed|59=3|60=20231006-11:11:32.110|103=2|109=106|110=0|150=8|151=0|544=1|8060=3|8164=EDP|8169=20231006-11:11:32.110467|8174=0|8214=0|10=241|
2023-10-06 20:11:32,076 : (Core) S >> 8=FIX.4.2|9=64|35=5|34=3|49=RSIT_EDP_6|52=20231006-11:11:32.000|56=FSX_SIT_EDP|10=073|
2023-10-06 20:11:32,201 : (Core) R << 8=FIX.4.2|9=64|35=5|34=3|49=FSX_SIT_EDP|52=20231006-11:11:32.238|56=RSIT_EDP_6|10=086|
2023-10-06 20:11:32,205 : Result: order_new = 1（ order_accepted = 0, order_rejected = 1, order_book_is_close =1）
2023-10-06 20:11:32,206 : Result: order_edp_indication = 0（ order_tostnet_confirmation = 0, order_tostnet_rejection = 0）
2023-10-06 20:11:32,206 : Result: order_ioc_expired = 0
2023-10-06 20:11:32,206 : Result: not_book_is_close = []
