2023-10-06 20:11:35,548 : (Core) S >> 8=FIX.4.2|9=83|35=A|34=1|49=RSIT_EDP_7|52=20231006-11:11:35.000|56=FSX_SIT_EDP|98=0|108=300|141=Y|10=206|
2023-10-06 20:11:35,672 : (Core) R << 8=FIX.4.2|9=83|35=A|34=1|49=FSX_SIT_EDP|52=20231006-11:11:35.718|56=RSIT_EDP_7|98=0|108=300|141=Y|10=222|
2023-10-06 20:11:37,439 : (sendMsg) S >> 8=FIX.4.2|9=162|35=D|34=2|49=RSIT_EDP_7|52=20231006-11:11:37.000|56=FSX_SIT_EDP|1=RSIT_EDP_ACCOUNT_7|11=16965906975107000001|38=100|40=1|54=2|55=5110|60=20231006-11:11:37.438943|10=226|
2023-10-06 20:11:37,569 : (recvMsg) Order Rejected << 8=FIX.4.2|9=380|35=8|34=2|49=FSX_SIT_EDP|52=20231006-11:11:37.619|56=RSIT_EDP_7|1=RSIT_EDP_ACCOUNT_7|6=0|11=16965906975107000001|14=0|17=1710251459818569728|20=0|31=0|32=0|37=1710251459811610624|38=100|39=8|40=1|44=0|47=P|54=2|55=5110|58=ERROR_20010064,Book is Closed|59=3|60=20231006-11:11:37.619|103=2|109=107|110=0|150=8|151=0|544=1|8060=3|8164=EDP|8169=20231006-11:11:37.619504|8174=0|8214=0|10=045|
2023-10-06 20:11:37,570 : (Core) S >> 8=FIX.4.2|9=64|35=5|34=3|49=RSIT_EDP_7|52=20231006-11:11:37.000|56=FSX_SIT_EDP|10=079|
2023-10-06 20:11:37,691 : (Core) R << 8=FIX.4.2|9=64|35=5|34=3|49=FSX_SIT_EDP|52=20231006-11:11:37.738|56=RSIT_EDP_7|10=097|
2023-10-06 20:11:37,694 : Result: order_new = 1（ order_accepted = 0, order_rejected = 1, order_book_is_close =1）
2023-10-06 20:11:37,694 : Result: order_edp_indication = 0（ order_tostnet_confirmation = 0, order_tostnet_rejection = 0）
2023-10-06 20:11:37,694 : Result: order_ioc_expired = 0
2023-10-06 20:11:37,694 : Result: not_book_is_close = []
