2023-10-06 20:11:50,858 : (Core) S >> 8=FIX.4.2|9=84|35=A|34=1|49=RSIT_EDP_10|52=20231006-11:11:50.000|56=FSX_SIT_EDP|98=0|108=300|141=Y|10=246|
2023-10-06 20:11:51,263 : (Core) R << 8=FIX.4.2|9=84|35=A|34=1|49=FSX_SIT_EDP|52=20231006-11:11:50.968|56=RSIT_EDP_10|98=0|108=300|141=Y|10=013|
2023-10-06 20:11:52,798 : (sendMsg) S >> 8=FIX.4.2|9=164|35=D|34=2|49=RSIT_EDP_10|52=20231006-11:11:52.000|56=FSX_SIT_EDP|1=RSIT_EDP_ACCOUNT_10|11=16965907127234000001|38=100|40=1|54=2|55=5110|60=20231006-11:11:52.797600|10=039|
2023-10-06 20:11:52,916 : (recvMsg) Order Rejected << 8=FIX.4.2|9=382|35=8|34=2|49=FSX_SIT_EDP|52=20231006-11:11:52.963|56=RSIT_EDP_10|1=RSIT_EDP_ACCOUNT_10|6=0|11=16965907127234000001|14=0|17=1710251524138221568|20=0|31=0|32=0|37=1710251524135456768|38=100|39=8|40=1|44=0|47=P|54=2|55=5110|58=ERROR_20010064,Book is Closed|59=3|60=20231006-11:11:52.963|103=2|109=110|110=0|150=8|151=0|544=1|8060=3|8164=EDP|8169=20231006-11:11:52.963436|8174=0|8214=0|10=101|
2023-10-06 20:11:52,918 : (Core) S >> 8=FIX.4.2|9=65|35=5|34=3|49=RSIT_EDP_10|52=20231006-11:11:52.000|56=FSX_SIT_EDP|10=119|
2023-10-06 20:11:52,980 : (Core) R << 8=FIX.4.2|9=65|35=5|34=3|49=FSX_SIT_EDP|52=20231006-11:11:53.028|56=RSIT_EDP_10|10=130|
2023-10-06 20:11:52,982 : Result: order_new = 1（ order_accepted = 0, order_rejected = 1, order_book_is_close =1）
2023-10-06 20:11:52,982 : Result: order_edp_indication = 0（ order_tostnet_confirmation = 0, order_tostnet_rejection = 0）
2023-10-06 20:11:52,982 : Result: order_ioc_expired = 0
2023-10-06 20:11:52,982 : Result: not_book_is_close = []
