2023-10-06 20:11:24,529 : (Core) S >> 8=FIX.4.2|9=83|35=A|34=1|49=RSIT_EDP_5|52=20231006-11:11:24.000|56=FSX_SIT_EDP|98=0|108=300|141=Y|10=202|
2023-10-06 20:11:24,651 : (Core) R << 8=FIX.4.2|9=83|35=A|34=1|49=FSX_SIT_EDP|52=20231006-11:11:24.697|56=RSIT_EDP_5|98=0|108=300|141=Y|10=224|
2023-10-06 20:11:26,423 : (sendMsg) S >> 8=FIX.4.2|9=162|35=D|34=2|49=RSIT_EDP_5|52=20231006-11:11:26.000|56=FSX_SIT_EDP|1=RSIT_EDP_ACCOUNT_5|11=16965906868764000001|38=100|40=1|54=2|55=5110|60=20231006-11:11:26.422447|10=220|
2023-10-06 20:11:26,568 : (recvMsg) Order Rejected << 8=FIX.4.2|9=380|35=8|34=2|49=FSX_SIT_EDP|52=20231006-11:11:26.608|56=RSIT_EDP_5|1=RSIT_EDP_ACCOUNT_5|6=0|11=16965906868764000001|14=0|17=1710251413605728256|20=0|31=0|32=0|37=1710251413602963456|38=100|39=8|40=1|44=0|47=P|54=2|55=5110|58=ERROR_20010064,Book is Closed|59=3|60=20231006-11:11:26.608|103=2|109=105|110=0|150=8|151=0|544=1|8060=3|8164=EDP|8169=20231006-11:11:26.608428|8174=0|8214=0|10=021|
2023-10-06 20:11:26,569 : (Core) S >> 8=FIX.4.2|9=64|35=5|34=3|49=RSIT_EDP_5|52=20231006-11:11:26.000|56=FSX_SIT_EDP|10=075|
2023-10-06 20:11:26,692 : (Core) R << 8=FIX.4.2|9=64|35=5|34=3|49=FSX_SIT_EDP|52=20231006-11:11:26.736|56=RSIT_EDP_5|10=091|
2023-10-06 20:11:26,698 : Result: order_new = 1（ order_accepted = 0, order_rejected = 1, order_book_is_close =1）
2023-10-06 20:11:26,698 : Result: order_edp_indication = 0（ order_tostnet_confirmation = 0, order_tostnet_rejection = 0）
2023-10-06 20:11:26,698 : Result: order_ioc_expired = 0
2023-10-06 20:11:26,698 : Result: not_book_is_close = []
