2023-10-06 20:11:46,461 : (Core) S >> 8=FIX.4.2|9=83|35=A|34=1|49=RSIT_EDP_9|52=20231006-11:11:46.000|56=FSX_SIT_EDP|98=0|108=300|141=Y|10=210|
2023-10-06 20:11:46,527 : (Core) R << 8=FIX.4.2|9=83|35=A|34=1|49=FSX_SIT_EDP|52=20231006-11:11:46.573|56=RSIT_EDP_9|98=0|108=300|141=Y|10=225|
2023-10-06 20:11:47,405 : (sendMsg) S >> 8=FIX.4.2|9=162|35=D|34=2|49=RSIT_EDP_9|52=20231006-11:11:47.000|56=FSX_SIT_EDP|1=RSIT_EDP_ACCOUNT_9|11=16965907077128000001|38=100|40=1|54=2|55=5110|60=20231006-11:11:47.404583|10=222|
2023-10-06 20:11:47,494 : (recvMsg) Order Rejected << 8=FIX.4.2|9=380|35=8|34=2|49=FSX_SIT_EDP|52=20231006-11:11:47.534|56=RSIT_EDP_9|1=RSIT_EDP_ACCOUNT_9|6=0|11=16965907077128000001|14=0|17=1710251501392510976|20=0|31=0|32=0|37=1710251501389746176|38=100|39=8|40=1|44=0|47=P|54=2|55=5110|58=ERROR_20010064,Book is Closed|59=3|60=20231006-11:11:47.534|103=2|109=109|110=0|150=8|151=0|544=1|8060=3|8164=EDP|8169=20231006-11:11:47.534591|8174=0|8214=0|10=031|
2023-10-06 20:11:47,495 : (Core) S >> 8=FIX.4.2|9=64|35=5|34=3|49=RSIT_EDP_9|52=20231006-11:11:47.000|56=FSX_SIT_EDP|10=082|
2023-10-06 20:11:47,565 : (Core) R << 8=FIX.4.2|9=64|35=5|34=3|49=FSX_SIT_EDP|52=20231006-11:11:47.605|56=RSIT_EDP_9|10=093|
2023-10-06 20:11:47,569 : Result: order_new = 1（ order_accepted = 0, order_rejected = 1, order_book_is_close =1）
2023-10-06 20:11:47,569 : Result: order_edp_indication = 0（ order_tostnet_confirmation = 0, order_tostnet_rejection = 0）
2023-10-06 20:11:47,569 : Result: order_ioc_expired = 0
2023-10-06 20:11:47,569 : Result: not_book_is_close = []
