2023-10-06 20:11:56,272 : (Core) S >> 8=FIX.4.2|9=84|35=A|34=1|49=RSIT_EDP_99|52=20231006-11:11:56.000|56=FSX_SIT_EDP|98=0|108=300|141=Y|10=013|
2023-10-06 20:11:56,343 : (Core) R << 8=FIX.4.2|9=84|35=A|34=1|49=FSX_SIT_EDP|52=20231006-11:11:56.384|56=RSIT_EDP_99|98=0|108=300|141=Y|10=028|
2023-10-06 20:11:58,211 : (sendMsg) S >> 8=FIX.4.2|9=164|35=D|34=2|49=RSIT_EDP_99|52=20231006-11:11:58.000|56=FSX_SIT_EDP|1=RSIT_EDP_ACCOUNT_99|11=16965907184235000001|38=100|40=1|54=2|55=5110|60=20231006-11:11:58.210636|10=078|
2023-10-06 20:11:58,325 : (recvMsg) Order Rejected << 8=FIX.4.2|9=382|35=8|34=2|49=FSX_SIT_EDP|52=20231006-11:11:58.375|56=RSIT_EDP_99|1=RSIT_EDP_ACCOUNT_99|6=0|11=16965907184235000001|14=0|17=1710251546846183424|20=0|31=0|32=0|37=1710251546839224320|38=100|39=8|40=1|44=0|47=P|54=2|55=5110|58=ERROR_20010064,Book is Closed|59=3|60=20231006-11:11:58.374|103=2|109=199|110=0|150=8|151=0|544=1|8060=3|8164=EDP|8169=20231006-11:11:58.374999|8174=0|8214=0|10=177|
2023-10-06 20:11:58,326 : (Core) S >> 8=FIX.4.2|9=65|35=5|34=3|49=RSIT_EDP_99|52=20231006-11:11:58.000|56=FSX_SIT_EDP|10=142|
2023-10-06 20:11:58,387 : (Core) R << 8=FIX.4.2|9=65|35=5|34=3|49=FSX_SIT_EDP|52=20231006-11:11:58.436|56=RSIT_EDP_99|10=155|
2023-10-06 20:11:58,391 : Result: order_new = 1（ order_accepted = 0, order_rejected = 1, order_book_is_close =1）
2023-10-06 20:11:58,392 : Result: order_edp_indication = 0（ order_tostnet_confirmation = 0, order_tostnet_rejection = 0）
2023-10-06 20:11:58,392 : Result: order_ioc_expired = 0
2023-10-06 20:11:58,392 : Result: not_book_is_close = []
