20230626-01:38:07.000 : 8=FIX.4.2|9=85|35=A|34=1|49=RSIT_ROLX_1|52=20230626-01:38:07.000|56=FSX_SIT_ROLX|98=0|108=300|141=Y|10=176|
20230626-01:38:07.000 : 8=FIX.4.2|9=85|35=A|34=1|49=FSX_SIT_ROLX|52=20230626-01:38:07.766|56=RSIT_ROLX_1|98=0|108=300|141=Y|10=195|
20230626-01:38:09.000 : 8=FIX.4.2|9=230|35=D|34=2|49=RSIT_ROLX_1|52=20230626-01:38:09.000|56=FSX_SIT_ROLX|1=RSIT_ACCOUNT_1|11=9002023168774348900000001|21=1|38=5|40=1|47=P|54=1|55=5110|59=0|60=20230626-01:38:09.558470|109=9002023168774348900000001|544=1|8164=ROL|8214=0|10=225|
20230626-01:38:09.000 : 8=FIX.4.2|9=325|35=8|34=2|49=FSX_SIT_ROLX|52=20230626-01:38:09.679|56=RSIT_ROLX_1|1=RSIT_ACCOUNT_1|6=0|11=9002023168774348900000001|14=0|17=1673089675430730707|20=0|31=0|32=0|37=1673089725810895594|38=5|39=0|40=1|47=P|54=1|55=5110|59=0|60=20230626-01:38:09.679|76=ROLX|109=101|150=0|151=5|544=1|8164=ROL|8169=20230626-01:38:09.679165|8214=0|10=246|
20230626-01:38:10.000 : 8=FIX.4.2|9=230|35=D|34=3|49=RSIT_ROLX_1|52=20230626-01:38:10.000|56=FSX_SIT_ROLX|1=RSIT_ACCOUNT_1|11=9002023168774349000000002|21=1|38=5|40=1|47=P|54=2|55=5110|59=0|60=20230626-01:38:10.565614|109=9002023168774349000000002|544=1|8164=ROL|8214=0|10=195|
20230626-01:38:10.000 : 8=FIX.4.2|9=406|35=8|34=3|49=FSX_SIT_ROLX|52=20230626-01:38:10.482|56=RSIT_ROLX_1|1=RSIT_ACCOUNT_1|6=0|11=2023875346168774268700000001|14=0|17=1673089675430730696|20=0|37=1673089725810895578|38=1|39=C|40=1|41=2023875346168774268700000001|47=P|54=1|55=6028|58=ERROR_20010050,Order expired due to TimeInForce(60s)|59=0|60=20230626-01:25:47.018|76=ROLX|109=101|150=C|151=0|544=1|8164=ROL|8169=20230626-01:25:47.018706|8214=0|10=116|
20230626-01:38:10.000 : 8=FIX.4.2|9=406|35=8|34=4|49=FSX_SIT_ROLX|52=20230626-01:38:10.483|56=RSIT_ROLX_1|1=RSIT_ACCOUNT_1|6=0|11=2023054271168774268700000002|14=0|17=1673089675430730699|20=0|37=1673089725810895580|38=2|39=C|40=1|41=2023054271168774268700000002|47=P|54=2|55=6028|58=ERROR_20010050,Order expired due to TimeInForce(60s)|59=0|60=20230626-01:25:47.020|76=ROLX|109=101|150=C|151=0|544=1|8164=ROL|8169=20230626-01:25:47.020017|8214=0|10=071|
20230626-01:38:10.000 : 8=FIX.4.2|9=325|35=8|34=5|49=FSX_SIT_ROLX|52=20230626-01:38:10.677|56=RSIT_ROLX_1|1=RSIT_ACCOUNT_1|6=0|11=9002023168774349000000002|14=0|17=1673089675430730709|20=0|31=0|32=0|37=1673089725810895596|38=5|39=0|40=1|47=P|54=2|55=5110|59=0|60=20230626-01:38:10.677|76=ROLX|109=101|150=0|151=5|544=1|8164=ROL|8169=20230626-01:38:10.677064|8214=0|10=215|
20230626-01:38:11.000 : 8=FIX.4.2|9=238|35=D|34=4|49=RSIT_ROLX_1|52=20230626-01:38:11.000|56=FSX_SIT_ROLX|1=RSIT_ACCOUNT_1|11=9002023168774349100000003|21=1|38=5|40=2|44=1230|47=P|54=1|55=5110|59=0|60=20230626-01:38:11.572594|109=9002023168774349100000003|544=1|8164=ROL|8214=0|10=067|
20230626-01:38:11.000 : 8=FIX.4.2|9=333|35=8|34=6|49=FSX_SIT_ROLX|52=20230626-01:38:11.689|56=RSIT_ROLX_1|1=RSIT_ACCOUNT_1|6=0|11=9002023168774349100000003|14=0|17=1673089675430730711|20=0|31=0|32=0|37=1673089725810895598|38=5|39=0|40=2|44=1230|47=P|54=1|55=5110|59=0|60=20230626-01:38:11.688|76=ROLX|109=101|150=0|151=5|544=1|8164=ROL|8169=20230626-01:38:11.688658|8214=0|10=083|
20230626-01:38:12.000 : 8=FIX.4.2|9=238|35=D|34=5|49=RSIT_ROLX_1|52=20230626-01:38:12.000|56=FSX_SIT_ROLX|1=RSIT_ACCOUNT_1|11=9002023168774349200000004|21=1|38=5|40=2|44=1230|47=P|54=2|55=5110|59=0|60=20230626-01:38:12.579535|109=9002023168774349200000004|544=1|8164=ROL|8214=0|10=077|
20230626-01:38:12.000 : 8=FIX.4.2|9=333|35=8|34=7|49=FSX_SIT_ROLX|52=20230626-01:38:12.698|56=RSIT_ROLX_1|1=RSIT_ACCOUNT_1|6=0|11=9002023168774349200000004|14=0|17=1673089675430730713|20=0|31=0|32=0|37=1673089725810895600|38=5|39=0|40=2|44=1230|47=P|54=2|55=5110|59=0|60=20230626-01:38:12.698|76=ROLX|109=101|150=0|151=5|544=1|8164=ROL|8169=20230626-01:38:12.698135|8214=0|10=068|
20230626-01:38:13.000 : 8=FIX.4.2|9=230|35=D|34=6|49=RSIT_ROLX_1|52=20230626-01:38:13.000|56=FSX_SIT_ROLX|1=RSIT_ACCOUNT_1|11=9002023168774349300000005|21=1|38=5|40=1|47=P|54=1|55=6028|59=0|60=20230626-01:38:13.586046|109=9002023168774349300000005|544=1|8164=ROL|8214=0|10=226|
20230626-01:38:13.000 : 8=FIX.4.2|9=325|35=8|34=8|49=FSX_SIT_ROLX|52=20230626-01:38:13.700|56=RSIT_ROLX_1|1=RSIT_ACCOUNT_1|6=0|11=9002023168774349300000005|14=0|17=1673089675430730715|20=0|31=0|32=0|37=1673089725810895602|38=5|39=0|40=1|47=P|54=1|55=6028|59=0|60=20230626-01:38:13.700|76=ROLX|109=101|150=0|151=5|544=1|8164=ROL|8169=20230626-01:38:13.700160|8214=0|10=184|
20230626-01:38:14.000 : 8=FIX.4.2|9=230|35=D|34=7|49=RSIT_ROLX_1|52=20230626-01:38:14.000|56=FSX_SIT_ROLX|1=RSIT_ACCOUNT_1|11=9002023168774349400000006|21=1|38=5|40=1|47=P|54=2|55=6028|59=0|60=20230626-01:38:14.593013|109=9002023168774349400000006|544=1|8164=ROL|8214=0|10=226|
20230626-01:38:14.000 : 8=FIX.4.2|9=325|35=8|34=9|49=FSX_SIT_ROLX|52=20230626-01:38:14.706|56=RSIT_ROLX_1|1=RSIT_ACCOUNT_1|6=0|11=9002023168774349400000006|14=0|17=1673089675430730717|20=0|31=0|32=0|37=1673089725810895604|38=5|39=0|40=1|47=P|54=2|55=6028|59=0|60=20230626-01:38:14.706|76=ROLX|109=101|150=0|151=5|544=1|8164=ROL|8169=20230626-01:38:14.706367|8214=0|10=222|
20230626-01:38:15.000 : 8=FIX.4.2|9=238|35=D|34=8|49=RSIT_ROLX_1|52=20230626-01:38:15.000|56=FSX_SIT_ROLX|1=RSIT_ACCOUNT_1|11=9002023168774349500000007|21=1|38=5|40=2|44=3470|47=P|54=1|55=6028|59=0|60=20230626-01:38:15.600290|109=9002023168774349500000007|544=1|8164=ROL|8214=0|10=097|
20230626-01:38:15.000 : 8=FIX.4.2|9=334|35=8|34=10|49=FSX_SIT_ROLX|52=20230626-01:38:15.726|56=RSIT_ROLX_1|1=RSIT_ACCOUNT_1|6=0|11=9002023168774349500000007|14=0|17=1673089675430730719|20=0|31=0|32=0|37=1673089725810895606|38=5|39=0|40=2|44=3470|47=P|54=1|55=6028|59=0|60=20230626-01:38:15.726|76=ROLX|109=101|150=0|151=5|544=1|8164=ROL|8169=20230626-01:38:15.726308|8214=0|10=132|
20230626-01:38:16.000 : 8=FIX.4.2|9=238|35=D|34=9|49=RSIT_ROLX_1|52=20230626-01:38:16.000|56=FSX_SIT_ROLX|1=RSIT_ACCOUNT_1|11=9002023168774349600000008|21=1|38=5|40=2|44=3470|47=P|54=2|55=6028|59=0|60=20230626-01:38:16.606867|109=9002023168774349600000008|544=1|8164=ROL|8214=0|10=121|
20230626-01:38:16.000 : 8=FIX.4.2|9=334|35=8|34=11|49=FSX_SIT_ROLX|52=20230626-01:38:16.724|56=RSIT_ROLX_1|1=RSIT_ACCOUNT_1|6=0|11=9002023168774349600000008|14=0|17=1673089675430730721|20=0|31=0|32=0|37=1673089725810895608|38=5|39=0|40=2|44=3470|47=P|54=2|55=6028|59=0|60=20230626-01:38:16.723|76=ROLX|109=101|150=0|151=5|544=1|8164=ROL|8169=20230626-01:38:16.723700|8214=0|10=122|
20230626-01:38:17.000 : 8=FIX.4.2|9=231|35=D|34=10|49=RSIT_ROLX_1|52=20230626-01:38:17.000|56=FSX_SIT_ROLX|1=RSIT_ACCOUNT_1|11=9002023168774349700000009|21=1|38=5|40=1|47=P|54=1|55=5076|59=0|60=20230626-01:38:17.614180|109=9002023168774349700000009|544=1|8164=ROL|8214=0|10=031|
20230626-01:38:17.000 : 8=FIX.4.2|9=326|35=8|34=12|49=FSX_SIT_ROLX|52=20230626-01:38:17.726|56=RSIT_ROLX_1|1=RSIT_ACCOUNT_1|6=0|11=9002023168774349700000009|14=0|17=1673089675430730723|20=0|31=0|32=0|37=1673089725810895610|38=5|39=0|40=1|47=P|54=1|55=5076|59=0|60=20230626-01:38:17.726|76=ROLX|109=101|150=0|151=5|544=1|8164=ROL|8169=20230626-01:38:17.726201|8214=0|10=012|
20230626-01:38:21.000 : 8=FIX.4.2|9=166|35=F|34=11|49=RSIT_ROLX_1|52=20230626-01:38:21.000|56=FSX_SIT_ROLX|11=9002023168774350100000010|41=9002023168774349700000009|54=1|55=5076|60=20230626-01:38:21.626235|10=140|
20230626-01:38:21.000 : 8=FIX.4.2|9=345|35=8|34=13|49=FSX_SIT_ROLX|52=20230626-01:38:21.736|56=RSIT_ROLX_1|1=RSIT_ACCOUNT_1|6=0|11=9002023168774350100000010|14=0|17=1673089675430730725|20=0|37=1673089725810895610|38=5|39=4|40=1|41=9002023168774349700000009|47=P|54=1|55=5076|59=0|60=20230626-01:38:21.735|76=ROLX|109=101|150=4|151=0|544=1|8164=ROL|8169=20230626-01:38:21.735472|8214=0|10=248|
20230626-01:38:24.000 : 8=FIX.4.2|9=239|35=D|34=12|49=RSIT_ROLX_1|52=20230626-01:38:24.000|56=FSX_SIT_ROLX|1=RSIT_ACCOUNT_1|11=9002023168774350400000011|21=1|38=5|40=2|44=1037|47=P|54=2|55=5076|59=0|60=20230626-01:38:24.631683|109=9002023168774350400000011|544=1|8164=ROL|8214=0|10=123|
20230626-01:38:24.000 : 8=FIX.4.2|9=334|35=8|34=14|49=FSX_SIT_ROLX|52=20230626-01:38:24.744|56=RSIT_ROLX_1|1=RSIT_ACCOUNT_1|6=0|11=9002023168774350400000011|14=0|17=1673089675430730727|20=0|31=0|32=0|37=1673089725810895613|38=5|39=0|40=2|44=1037|47=P|54=2|55=5076|59=0|60=20230626-01:38:24.743|76=ROLX|109=101|150=0|151=5|544=1|8164=ROL|8169=20230626-01:38:24.743651|8214=0|10=118|
20230626-01:38:28.000 : 8=FIX.4.2|9=166|35=F|34=13|49=RSIT_ROLX_1|52=20230626-01:38:28.000|56=FSX_SIT_ROLX|11=9002023168774350800000012|41=9002023168774350400000011|54=2|55=5076|60=20230626-01:38:28.642850|10=149|
20230626-01:38:28.000 : 8=FIX.4.2|9=353|35=8|34=15|49=FSX_SIT_ROLX|52=20230626-01:38:28.753|56=RSIT_ROLX_1|1=RSIT_ACCOUNT_1|6=0|11=9002023168774350800000012|14=0|17=1673089675430730729|20=0|37=1673089725810895613|38=5|39=4|40=2|41=9002023168774350400000011|44=1037|47=P|54=2|55=5076|59=0|60=20230626-01:38:28.753|76=ROLX|109=101|150=4|151=0|544=1|8164=ROL|8169=20230626-01:38:28.753355|8214=0|10=126|
20230626-01:38:31.000 : 8=FIX.4.2|9=231|35=D|34=14|49=RSIT_ROLX_1|52=20230626-01:38:31.000|56=FSX_SIT_ROLX|1=RSIT_ACCOUNT_1|11=9002023168774351100000013|21=1|38=5|40=1|47=P|54=1|55=5108|59=0|60=20230626-01:38:31.648867|109=9002023168774351100000013|544=1|8164=ROL|8214=0|10=006|
20230626-01:38:31.000 : 8=FIX.4.2|9=326|35=8|34=16|49=FSX_SIT_ROLX|52=20230626-01:38:31.762|56=RSIT_ROLX_1|1=RSIT_ACCOUNT_1|6=0|11=9002023168774351100000013|14=0|17=1673089675430730731|20=0|31=0|32=0|37=1673089725810895616|38=5|39=0|40=1|47=P|54=1|55=5108|59=0|60=20230626-01:38:31.761|76=ROLX|109=101|150=0|151=5|544=1|8164=ROL|8169=20230626-01:38:31.761847|8214=0|10=001|
20230626-01:38:32.000 : 8=FIX.4.2|9=239|35=D|34=15|49=RSIT_ROLX_1|52=20230626-01:38:32.000|56=FSX_SIT_ROLX|1=RSIT_ACCOUNT_1|11=9002023168774351200000014|21=1|38=5|40=2|44=5222|47=P|54=2|55=5108|59=0|60=20230626-01:38:32.652694|109=9002023168774351200000014|544=1|8164=ROL|8214=0|10=129|
20230626-01:38:32.000 : 8=FIX.4.2|9=334|35=8|34=17|49=FSX_SIT_ROLX|52=20230626-01:38:32.767|56=RSIT_ROLX_1|1=RSIT_ACCOUNT_1|6=0|11=9002023168774351200000014|14=0|17=1673089675430730733|20=0|31=0|32=0|37=1673089725810895618|38=5|39=0|40=2|44=5222|47=P|54=2|55=5108|59=0|60=20230626-01:38:32.767|76=ROLX|109=101|150=0|151=5|544=1|8164=ROL|8169=20230626-01:38:32.767451|8214=0|10=133|
20230626-01:38:33.000 : 8=FIX.4.2|9=231|35=D|34=16|49=RSIT_ROLX_1|52=20230626-01:38:33.000|56=FSX_SIT_ROLX|1=RSIT_ACCOUNT_1|11=9002023168774351300000015|21=1|38=5|40=1|47=P|54=1|55=1311|59=0|60=20230626-01:38:33.659119|109=9002023168774351300000015|544=1|8164=ROL|8214=0|10=004|
20230626-01:38:33.000 : 8=FIX.4.2|9=326|35=8|34=18|49=FSX_SIT_ROLX|52=20230626-01:38:33.771|56=RSIT_ROLX_1|1=RSIT_ACCOUNT_1|6=0|11=9002023168774351300000015|14=0|17=1673089675430730735|20=0|31=0|32=0|37=1673089725810895620|38=5|39=0|40=1|47=P|54=1|55=1311|59=0|60=20230626-01:38:33.770|76=ROLX|109=101|150=0|151=5|544=1|8164=ROL|8169=20230626-01:38:33.770958|8214=0|10=007|
20230626-01:38:35.000 : 8=FIX.4.2|9=166|35=F|34=17|49=RSIT_ROLX_1|52=20230626-01:38:35.000|56=FSX_SIT_ROLX|11=9002023168774351500000016|41=9002023168774351300000015|54=1|55=1311|60=20230626-01:38:35.665817|10=150|
20230626-01:38:35.000 : 8=FIX.4.2|9=345|35=8|34=19|49=FSX_SIT_ROLX|52=20230626-01:38:35.780|56=RSIT_ROLX_1|1=RSIT_ACCOUNT_1|6=0|11=9002023168774351500000016|14=0|17=1673089675430730737|20=0|37=1673089725810895620|38=5|39=4|40=1|41=9002023168774351300000015|47=P|54=1|55=1311|59=0|60=20230626-01:38:35.779|76=ROLX|109=101|150=4|151=0|544=1|8164=ROL|8169=20230626-01:38:35.779667|8214=0|10=023|
20230626-01:38:36.000 : 8=FIX.4.2|9=231|35=D|34=18|49=RSIT_ROLX_1|52=20230626-01:38:36.000|56=FSX_SIT_ROLX|1=RSIT_ACCOUNT_1|11=9002023168774351600000017|21=1|38=5|40=1|47=P|54=2|55=1311|59=0|60=20230626-01:38:36.671110|109=9002023168774351600000017|544=1|8164=ROL|8214=0|10=008|
20230626-01:38:36.000 : 8=FIX.4.2|9=326|35=8|34=20|49=FSX_SIT_ROLX|52=20230626-01:38:36.786|56=RSIT_ROLX_1|1=RSIT_ACCOUNT_1|6=0|11=9002023168774351600000017|14=0|17=1673089675430730739|20=0|31=0|32=0|37=1673089725810895623|38=5|39=0|40=1|47=P|54=2|55=1311|59=0|60=20230626-01:38:36.786|76=ROLX|109=101|150=0|151=5|544=1|8164=ROL|8169=20230626-01:38:36.786540|8214=0|10=029|
20230626-01:38:38.000 : 8=FIX.4.2|9=166|35=F|34=19|49=RSIT_ROLX_1|52=20230626-01:38:38.000|56=FSX_SIT_ROLX|11=9002023168774351800000018|41=9002023168774351600000017|54=2|55=1311|60=20230626-01:38:38.682668|10=172|
20230626-01:38:38.000 : 8=FIX.4.2|9=345|35=8|34=21|49=FSX_SIT_ROLX|52=20230626-01:38:38.793|56=RSIT_ROLX_1|1=RSIT_ACCOUNT_1|6=0|11=9002023168774351800000018|14=0|17=1673089675430730741|20=0|37=1673089725810895623|38=5|39=4|40=1|41=9002023168774351600000017|47=P|54=2|55=1311|59=0|60=20230626-01:38:38.792|76=ROLX|109=101|150=4|151=0|544=1|8164=ROL|8169=20230626-01:38:38.792754|8214=0|10=025|
20230626-01:38:39.000 : 8=FIX.4.2|9=238|35=D|34=20|49=RSIT_ROLX_1|52=20230626-01:38:39.000|56=FSX_SIT_ROLX|1=RSIT_ACCOUNT_1|11=9002023168774351900000019|21=1|38=5|40=2|44=973|47=P|54=1|55=1311|59=0|60=20230626-01:38:39.690602|109=9002023168774351900000019|544=1|8164=ROL|8214=0|10=104|
20230626-01:38:39.000 : 8=FIX.4.2|9=333|35=8|34=22|49=FSX_SIT_ROLX|52=20230626-01:38:39.807|56=RSIT_ROLX_1|1=RSIT_ACCOUNT_1|6=0|11=9002023168774351900000019|14=0|17=1673089675430730743|20=0|31=0|32=0|37=1673089725810895626|38=5|39=0|40=2|44=973|47=P|54=1|55=1311|59=0|60=20230626-01:38:39.806|76=ROLX|109=101|150=0|151=5|544=1|8164=ROL|8169=20230626-01:38:39.806903|8214=0|10=097|
20230626-01:38:41.000 : 8=FIX.4.2|9=166|35=F|34=21|49=RSIT_ROLX_1|52=20230626-01:38:41.000|56=FSX_SIT_ROLX|11=9002023168774352100000020|41=9002023168774351900000019|54=1|55=1311|60=20230626-01:38:41.702575|10=134|
20230626-01:38:41.000 : 8=FIX.4.2|9=352|35=8|34=23|49=FSX_SIT_ROLX|52=20230626-01:38:41.814|56=RSIT_ROLX_1|1=RSIT_ACCOUNT_1|6=0|11=9002023168774352100000020|14=0|17=1673089675430730745|20=0|37=1673089725810895626|38=5|39=4|40=2|41=9002023168774351900000019|44=973|47=P|54=1|55=1311|59=0|60=20230626-01:38:41.814|76=ROLX|109=101|150=4|151=0|544=1|8164=ROL|8169=20230626-01:38:41.814386|8214=0|10=064|
20230626-01:38:42.000 : 8=FIX.4.2|9=238|35=D|34=22|49=RSIT_ROLX_1|52=20230626-01:38:42.000|56=FSX_SIT_ROLX|1=RSIT_ACCOUNT_1|11=9002023168774352200000021|21=1|38=5|40=2|44=973|47=P|54=2|55=1311|59=0|60=20230626-01:38:42.704909|109=9002023168774352200000021|544=1|8164=ROL|8214=0|10=075|
20230626-01:38:42.000 : 8=FIX.4.2|9=333|35=8|34=24|49=FSX_SIT_ROLX|52=20230626-01:38:42.815|56=RSIT_ROLX_1|1=RSIT_ACCOUNT_1|6=0|11=9002023168774352200000021|14=0|17=1673089675430730747|20=0|31=0|32=0|37=1673089725810895629|38=5|39=0|40=2|44=973|47=P|54=2|55=1311|59=0|60=20230626-01:38:42.815|76=ROLX|109=101|150=0|151=5|544=1|8164=ROL|8169=20230626-01:38:42.815088|8214=0|10=079|
20230626-01:38:44.000 : 8=FIX.4.2|9=166|35=F|34=23|49=RSIT_ROLX_1|52=20230626-01:38:44.000|56=FSX_SIT_ROLX|11=9002023168774352400000022|41=9002023168774352200000021|54=2|55=1311|60=20230626-01:38:44.717177|10=139|
20230626-01:38:44.000 : 8=FIX.4.2|9=352|35=8|34=25|49=FSX_SIT_ROLX|52=20230626-01:38:44.829|56=RSIT_ROLX_1|1=RSIT_ACCOUNT_1|6=0|11=9002023168774352400000022|14=0|17=1673089675430730749|20=0|37=1673089725810895629|38=5|39=4|40=2|41=9002023168774352200000021|44=973|47=P|54=2|55=1311|59=0|60=20230626-01:38:44.829|76=ROLX|109=101|150=4|151=0|544=1|8164=ROL|8169=20230626-01:38:44.829117|8214=0|10=085|
20230626-01:38:45.000 : 8=FIX.4.2|9=231|35=D|34=24|49=RSIT_ROLX_1|52=20230626-01:38:45.000|56=FSX_SIT_ROLX|1=RSIT_ACCOUNT_1|11=9002023168774352500000023|21=1|38=5|40=1|47=P|54=1|55=1313|59=0|60=20230626-01:38:45.720674|109=9002023168774352500000023|544=1|8164=ROL|8214=0|10=010|
20230626-01:38:45.000 : 8=FIX.4.2|9=415|35=8|34=26|49=FSX_SIT_ROLX|52=20230626-01:38:45.823|56=RSIT_ROLX_1|1=RSIT_ACCOUNT_1|6=0|11=9002023168774352500000023|14=0|17=None|20=0|21=1|31=0|32=0|37=None|38=5|39=8|40=1|44=0|47=P|54=1|55=1313|58=ERROR_20010022,Market is not available for symbol: symbol=1313, status=Closed|59=0|60=20230626-01:38:45.823|103=3|109=101|150=8|151=0|544=1|8051=20230626-01:38:45.821604|8164=ROL|8169=20230626-01:38:45.823303|8214=0|10=103|
20230626-01:38:46.000 : 8=FIX.4.2|9=231|35=D|34=25|49=RSIT_ROLX_1|52=20230626-01:38:46.000|56=FSX_SIT_ROLX|1=RSIT_ACCOUNT_1|11=9002023168774352600000024|21=1|38=5|40=1|47=P|54=2|55=1313|59=0|60=20230626-01:38:46.728051|109=9002023168774352600000024|544=1|8164=ROL|8214=0|10=015|
20230626-01:38:46.000 : 8=FIX.4.2|9=415|35=8|34=27|49=FSX_SIT_ROLX|52=20230626-01:38:46.827|56=RSIT_ROLX_1|1=RSIT_ACCOUNT_1|6=0|11=9002023168774352600000024|14=0|17=None|20=0|21=1|31=0|32=0|37=None|38=5|39=8|40=1|44=0|47=P|54=2|55=1313|58=ERROR_20010022,Market is not available for symbol: symbol=1313, status=Closed|59=0|60=20230626-01:38:46.827|103=3|109=101|150=8|151=0|544=1|8051=20230626-01:38:46.825557|8164=ROL|8169=20230626-01:38:46.827214|8214=0|10=135|
20230626-01:38:47.000 : 8=FIX.4.2|9=239|35=D|34=26|49=RSIT_ROLX_1|52=20230626-01:38:47.000|56=FSX_SIT_ROLX|1=RSIT_ACCOUNT_1|11=9002023168774352700000025|21=1|38=5|40=2|44=3365|47=P|54=1|55=1313|59=0|60=20230626-01:38:47.732128|109=9002023168774352700000025|544=1|8164=ROL|8214=0|10=149|
20230626-01:38:47.000 : 8=FIX.4.2|9=418|35=8|34=28|49=FSX_SIT_ROLX|52=20230626-01:38:47.831|56=RSIT_ROLX_1|1=RSIT_ACCOUNT_1|6=0|11=9002023168774352700000025|14=0|17=None|20=0|21=1|31=0|32=0|37=None|38=5|39=8|40=2|44=3365|47=P|54=1|55=1313|58=ERROR_20010022,Market is not available for symbol: symbol=1313, status=Closed|59=0|60=20230626-01:38:47.830|103=3|109=101|150=8|151=0|544=1|8051=20230626-01:38:47.828945|8164=ROL|8169=20230626-01:38:47.830632|8214=0|10=041|
20230626-01:38:48.000 : 8=FIX.4.2|9=239|35=D|34=27|49=RSIT_ROLX_1|52=20230626-01:38:48.000|56=FSX_SIT_ROLX|1=RSIT_ACCOUNT_1|11=9002023168774352800000026|21=1|38=5|40=2|44=3365|47=P|54=2|55=1313|59=0|60=20230626-01:38:48.739016|109=9002023168774352800000026|544=1|8164=ROL|8214=0|10=160|
20230626-01:38:48.000 : 8=FIX.4.2|9=418|35=8|34=29|49=FSX_SIT_ROLX|52=20230626-01:38:48.834|56=RSIT_ROLX_1|1=RSIT_ACCOUNT_1|6=0|11=9002023168774352800000026|14=0|17=None|20=0|21=1|31=0|32=0|37=None|38=5|39=8|40=2|44=3365|47=P|54=2|55=1313|58=ERROR_20010022,Market is not available for symbol: symbol=1313, status=Closed|59=0|60=20230626-01:38:48.834|103=3|109=101|150=8|151=0|544=1|8051=20230626-01:38:48.832381|8164=ROL|8169=20230626-01:38:48.834007|8214=0|10=045|
20230626-01:38:49.000 : 8=FIX.4.2|9=231|35=D|34=28|49=RSIT_ROLX_1|52=20230626-01:38:49.000|56=FSX_SIT_ROLX|1=RSIT_ACCOUNT_1|11=9002023168774352900000027|21=1|38=5|40=1|47=P|54=1|55=4689|59=0|60=20230626-01:38:49.745074|109=9002023168774352900000027|544=1|8164=ROL|8214=0|10=058|
20230626-01:38:49.000 : 8=FIX.4.2|9=326|35=8|34=30|49=FSX_SIT_ROLX|52=20230626-01:38:49.901|56=RSIT_ROLX_1|1=RSIT_ACCOUNT_1|6=0|11=9002023168774352900000027|14=0|17=1673089675430730751|20=0|31=0|32=0|37=1673089725810895632|38=5|39=0|40=1|47=P|54=1|55=4689|59=0|60=20230626-01:38:49.901|76=ROLX|109=101|150=0|151=5|544=1|8164=ROL|8169=20230626-01:38:49.901118|8214=0|10=029|
20230626-01:38:50.000 : 8=FIX.4.2|9=231|35=D|34=29|49=RSIT_ROLX_1|52=20230626-01:38:50.000|56=FSX_SIT_ROLX|1=RSIT_ACCOUNT_1|11=9002023168774353000000028|21=1|38=5|40=1|47=P|54=2|55=4689|59=0|60=20230626-01:38:50.750528|109=9002023168774353000000028|544=1|8164=ROL|8214=0|10=030|
20230626-01:38:50.000 : 8=FIX.4.2|9=326|35=8|34=31|49=FSX_SIT_ROLX|52=20230626-01:38:50.867|56=RSIT_ROLX_1|1=RSIT_ACCOUNT_1|6=0|11=9002023168774353000000028|14=0|17=1673089675430730753|20=0|31=0|32=0|37=1673089725810895634|38=5|39=0|40=1|47=P|54=2|55=4689|59=0|60=20230626-01:38:50.867|76=ROLX|109=101|150=0|151=5|544=1|8164=ROL|8169=20230626-01:38:50.867119|8214=0|10=038|
20230626-01:38:51.000 : 8=FIX.4.2|9=238|35=D|34=30|49=RSIT_ROLX_1|52=20230626-01:38:51.000|56=FSX_SIT_ROLX|1=RSIT_ACCOUNT_1|11=9002023168774353100000029|21=1|38=5|40=2|44=369|47=P|54=1|55=4689|59=0|60=20230626-01:38:51.757792|109=9002023168774353100000029|544=1|8164=ROL|8214=0|10=117|
20230626-01:38:51.000 : 8=FIX.4.2|9=333|35=8|34=32|49=FSX_SIT_ROLX|52=20230626-01:38:51.872|56=RSIT_ROLX_1|1=RSIT_ACCOUNT_1|6=0|11=9002023168774353100000029|14=0|17=1673089675430730755|20=0|31=0|32=0|37=1673089725810895636|38=5|39=0|40=2|44=369|47=P|54=1|55=4689|59=0|60=20230626-01:38:51.872|76=ROLX|109=101|150=0|151=5|544=1|8164=ROL|8169=20230626-01:38:51.872006|8214=0|10=101|
20230626-01:38:52.000 : 8=FIX.4.2|9=238|35=D|34=31|49=RSIT_ROLX_1|52=20230626-01:38:52.000|56=FSX_SIT_ROLX|1=RSIT_ACCOUNT_1|11=9002023168774353200000030|21=1|38=5|40=2|44=369|47=P|54=2|55=4689|59=0|60=20230626-01:38:52.764860|109=9002023168774353200000030|544=1|8164=ROL|8214=0|10=101|
20230626-01:38:52.000 : 8=FIX.4.2|9=333|35=8|34=33|49=FSX_SIT_ROLX|52=20230626-01:38:52.878|56=RSIT_ROLX_1|1=RSIT_ACCOUNT_1|6=0|11=9002023168774353200000030|14=0|17=1673089675430730757|20=0|31=0|32=0|37=1673089725810895638|38=5|39=0|40=2|44=369|47=P|54=2|55=4689|59=0|60=20230626-01:38:52.877|76=ROLX|109=101|150=0|151=5|544=1|8164=ROL|8169=20230626-01:38:52.877938|8214=0|10=133|
20230626-01:38:53.000 : 8=FIX.4.2|9=238|35=D|34=32|49=RSIT_ROLX_1|52=20230626-01:38:53.000|56=FSX_SIT_ROLX|1=RUAT_ACCOUNT_3|11=9002023168774353300000031|21=1|38=5|40=2|44=369|47=P|54=2|55=9999|59=0|60=20230626-01:38:53.772144|109=9002023168774353300000031|544=1|8164=ROL|8214=0|10=107|
20230626-01:38:54.000 : 8=FIX.4.2|9=237|35=D|34=33|49=RSIT_ROLX_1|52=20230626-01:38:54.000|56=FSX_SIT_ROLX|1=RSIT_ACCOUNT_1|11=9002023168774353400000032|21=1|38=5|40=2|44=58|47=P|54=2|55=1324|59=0|60=20230626-01:38:54.779117|109=9002023168774353400000032|544=1|8164=ROL|8214=0|10=045|
20230626-01:38:55.000 : 8=FIX.4.2|9=238|35=D|34=34|49=RSIT_ROLX_1|52=20230626-01:38:55.000|56=FSX_SIT_ROLX|1=RSIT_ACCOUNT_1|11=9002023168774353500000033|21=1|38=5|40=2|44=119|47=P|54=2|55=1324|59=0|60=20230626-01:38:55.784935|109=9002023168774353500000033|544=1|8164=ROL|8214=0|10=103|
20230626-01:38:56.000 : 8=FIX.4.2|9=240|35=D|34=35|49=RSIT_ROLX_1|52=20230626-01:38:56.000|56=FSX_SIT_ROLX|1=RSIT_ACCOUNT_1|11=9002023168774353600000034|21=1|38=5|40=2|44=371.5|47=P|54=2|55=4689|59=0|60=20230626-01:38:56.791961|109=9002023168774353600000034|544=1|8164=ROL|8214=0|10=216|
20230626-01:38:56.000 : 8=FIX.4.2|9=383|35=8|34=34|49=FSX_SIT_ROLX|52=20230626-01:38:56.890|56=RSIT_ROLX_1|1=RSIT_ACCOUNT_1|6=0|11=9002023168774353600000034|14=0|17=None|20=0|21=1|31=0|32=0|37=None|38=5|39=8|40=2|44=371.5|47=P|54=2|55=4689|58=ERROR_10010015,Tick-size is not matched with TOPIX100 tick: price=371.5|59=0|60=20230626-01:38:56.889|103=3|109=101|150=8|151=0|544=1|8164=ROL|8169=20230626-01:38:56.889622|8214=0|10=221|
20230626-01:38:57.000 : 8=FIX.4.2|9=241|35=D|34=36|49=RSIT_ROLX_1|52=20230626-01:38:57.000|56=FSX_SIT_ROLX|1=RSIT_ACCOUNT_1|11=9002023168774353700000035|21=1|38=5|40=2|44=2105.5|47=P|54=2|55=7203|59=0|60=20230626-01:38:57.794496|109=9002023168774353700000035|544=1|8164=ROL|8214=0|10=004|
20230626-01:38:57.000 : 8=FIX.4.2|9=385|35=8|34=35|49=FSX_SIT_ROLX|52=20230626-01:38:57.892|56=RSIT_ROLX_1|1=RSIT_ACCOUNT_1|6=0|11=9002023168774353700000035|14=0|17=None|20=0|21=1|31=0|32=0|37=None|38=5|39=8|40=2|44=2105.5|47=P|54=2|55=7203|58=ERROR_10010015,Tick-size is not matched with TOPIX100 tick: price=2105.5|59=0|60=20230626-01:38:57.891|103=3|109=101|150=8|151=0|544=1|8164=ROL|8169=20230626-01:38:57.891860|8214=0|10=040|
20230626-01:38:58.000 : 8=FIX.4.2|9=241|35=D|34=37|49=RSIT_ROLX_1|52=20230626-01:38:58.000|56=FSX_SIT_ROLX|1=RSIT_ACCOUNT_1|11=9002023168774353800000036|21=1|38=5|40=2|44=5000.5|47=P|54=2|55=9433|59=0|60=20230626-01:38:58.798286|109=9002023168774353800000036|544=1|8164=ROL|8214=0|10=016|
20230626-01:38:58.000 : 8=FIX.4.2|9=408|35=8|34=36|49=FSX_SIT_ROLX|52=20230626-01:38:58.891|56=RSIT_ROLX_1|1=RSIT_ACCOUNT_1|6=0|11=9002023168774353800000036|14=0|17=None|20=0|21=1|31=0|32=0|37=None|38=5|39=8|40=2|44=5000.5|47=P|54=2|55=9433|58=ERROR_10010014,Price exceeds the high - low price range: price=5000.5, price_limit=[3339, 4739]|59=0|60=20230626-01:38:58.891|103=3|109=101|150=8|151=0|544=1|8164=ROL|8169=20230626-01:38:58.891198|8214=0|10=102|
20230626-01:38:59.000 : 8=FIX.4.2|9=240|35=D|34=38|49=RSIT_ROLX_1|52=20230626-01:38:59.000|56=FSX_SIT_ROLX|1=RSIT_ACCOUNT_1|11=9002023168774353900000037|21=1|38=5|40=2|44=26001|47=P|54=2|55=6954|59=0|60=20230626-01:38:59.805681|109=9002023168774353900000037|544=1|8164=ROL|8214=0|10=224|
20230626-01:38:59.000 : 8=FIX.4.2|9=383|35=8|34=37|49=FSX_SIT_ROLX|52=20230626-01:38:59.902|56=RSIT_ROLX_1|1=RSIT_ACCOUNT_1|6=0|11=9002023168774353900000037|14=0|17=None|20=0|21=1|31=0|32=0|37=None|38=5|39=8|40=2|44=26001|47=P|54=2|55=6954|58=ERROR_10010015,Tick-size is not matched with TOPIX100 tick: price=26001|59=0|60=20230626-01:38:59.901|103=3|109=101|150=8|151=0|544=1|8164=ROL|8169=20230626-01:38:59.901581|8214=0|10=194|
20230626-01:39:00.000 : 8=FIX.4.2|9=240|35=D|34=39|49=RSIT_ROLX_1|52=20230626-01:39:00.000|56=FSX_SIT_ROLX|1=RSIT_ACCOUNT_1|11=9002023168774354000000038|21=1|38=5|40=2|44=75001|47=P|54=2|55=9983|59=0|60=20230626-01:39:00.808998|109=9002023168774354000000038|544=1|8164=ROL|8214=0|10=208|
20230626-01:39:00.000 : 8=FIX.4.2|9=383|35=8|34=38|49=FSX_SIT_ROLX|52=20230626-01:39:00.907|56=RSIT_ROLX_1|1=RSIT_ACCOUNT_1|6=0|11=9002023168774354000000038|14=0|17=None|20=0|21=1|31=0|32=0|37=None|38=5|39=8|40=2|44=75001|47=P|54=2|55=9983|58=ERROR_10010015,Tick-size is not matched with TOPIX100 tick: price=75001|59=0|60=20230626-01:39:00.906|103=3|109=101|150=8|151=0|544=1|8164=ROL|8169=20230626-01:39:00.906853|8214=0|10=179|
20230626-01:39:01.000 : 8=FIX.4.2|9=241|35=D|34=40|49=RSIT_ROLX_1|52=20230626-01:39:01.000|56=FSX_SIT_ROLX|1=RSIT_ACCOUNT_1|11=9002023168774354100000039|21=1|38=5|40=2|44=2500.5|47=P|54=2|55=1721|59=0|60=20230626-01:39:01.814105|109=9002023168774354100000039|544=1|8164=ROL|8214=0|10=211|
20230626-01:39:01.000 : 8=FIX.4.2|9=389|35=8|34=39|49=FSX_SIT_ROLX|52=20230626-01:39:01.909|56=RSIT_ROLX_1|1=RSIT_ACCOUNT_1|6=0|11=9002023168774354100000039|14=0|17=None|20=0|21=1|31=0|32=0|37=None|38=5|39=8|40=2|44=2500.5|47=P|54=2|55=1721|58=ERROR_10010016,Tick-size is not matched with non-TOPIX100 tick: price=2500.5|59=0|60=20230626-01:39:01.908|103=3|109=101|150=8|151=0|544=1|8164=ROL|8169=20230626-01:39:01.908701|8214=0|10=126|
20230626-01:39:02.000 : 8=FIX.4.2|9=241|35=D|34=41|49=RSIT_ROLX_1|52=20230626-01:39:02.000|56=FSX_SIT_ROLX|1=RSIT_ACCOUNT_1|11=9002023168774354200000040|21=1|38=5|40=2|44=4000.5|47=P|54=2|55=2282|59=0|60=20230626-01:39:02.817240|109=9002023168774354200000040|544=1|8164=ROL|8214=0|10=203|
20230626-01:39:02.000 : 8=FIX.4.2|9=389|35=8|34=40|49=FSX_SIT_ROLX|52=20230626-01:39:02.911|56=RSIT_ROLX_1|1=RSIT_ACCOUNT_1|6=0|11=9002023168774354200000040|14=0|17=None|20=0|21=1|31=0|32=0|37=None|38=5|39=8|40=2|44=4000.5|47=P|54=2|55=2282|58=ERROR_10010016,Tick-size is not matched with non-TOPIX100 tick: price=4000.5|59=0|60=20230626-01:39:02.910|103=3|109=101|150=8|151=0|544=1|8164=ROL|8169=20230626-01:39:02.910610|8214=0|10=089|
20230626-01:39:03.000 : 8=FIX.4.2|9=240|35=D|34=42|49=RSIT_ROLX_1|52=20230626-01:39:03.000|56=FSX_SIT_ROLX|1=RSIT_ACCOUNT_1|11=9002023168774354300000041|21=1|38=5|40=2|44=15001|47=P|54=2|55=1878|59=0|60=20230626-01:39:03.824221|109=9002023168774354300000041|544=1|8164=ROL|8214=0|10=168|
20230626-01:39:04.000 : 8=FIX.4.2|9=387|35=8|34=41|49=FSX_SIT_ROLX|52=20230626-01:39:03.923|56=RSIT_ROLX_1|1=RSIT_ACCOUNT_1|6=0|11=9002023168774354300000041|14=0|17=None|20=0|21=1|31=0|32=0|37=None|38=5|39=8|40=2|44=15001|47=P|54=2|55=1878|58=ERROR_10010016,Tick-size is not matched with non-TOPIX100 tick: price=15001|59=0|60=20230626-01:39:03.923|103=3|109=101|150=8|151=0|544=1|8164=ROL|8169=20230626-01:39:03.923347|8214=0|10=025|
20230626-01:39:04.000 : 8=FIX.4.2|9=231|35=D|34=43|49=RSIT_ROLX_1|52=20230626-01:39:04.000|56=FSX_SIT_ROLX|1=RSIT_ACCOUNT_1|11=9002023168774354400000042|21=1|38=0|40=1|47=P|54=2|55=1324|59=0|60=20230626-01:39:04.831094|109=9002023168774354400000042|544=1|8164=ROL|8214=0|10=004|
20230626-01:39:05.000 : 8=FIX.4.2|9=376|35=8|34=42|49=FSX_SIT_ROLX|52=20230626-01:39:04.927|56=RSIT_ROLX_1|1=RSIT_ACCOUNT_1|6=0|11=9002023168774354400000042|14=0|17=None|20=0|21=1|31=0|32=0|37=None|38=0|39=8|40=1|44=0|47=P|54=2|55=1324|58=ERROR_10010018,Invalid quantity or lot_size: quantity=0,lot_size=100|59=0|60=20230626-01:39:04.926|103=3|109=101|150=8|151=0|544=1|8164=ROL|8169=20230626-01:39:04.926872|8214=0|10=015|
20230626-01:39:05.000 : 8=FIX.4.2|9=233|35=D|34=44|49=RSIT_ROLX_1|52=20230626-01:39:05.000|56=FSX_SIT_ROLX|1=RSIT_ACCOUNT_1|11=9002023168774354500000043|21=1|38=100|40=1|47=P|54=2|55=1324|59=0|60=20230626-01:39:05.836489|109=9002023168774354500000043|544=1|8164=ROL|8214=0|10=123|
20230626-01:39:06.000 : 8=FIX.4.2|9=233|35=D|34=45|49=RSIT_ROLX_1|52=20230626-01:39:06.000|56=FSX_SIT_ROLX|1=RSIT_ACCOUNT_1|11=9002023168774354600000044|21=1|38=101|40=1|47=P|54=2|55=1324|59=0|60=20230626-01:39:06.840512|109=9002023168774354600000044|544=1|8164=ROL|8214=0|10=113|
20230626-01:39:07.000 : 8=FIX.4.2|9=231|35=D|34=46|49=RSIT_ROLX_1|52=20230626-01:39:07.000|56=FSX_SIT_ROLX|1=RSIT_ACCOUNT_1|11=9002023168774354700000045|21=1|38=1|40=1|47=P|54=2|55=8421|59=0|60=20230626-01:39:07.844540|109=9002023168774354700000045|544=1|8164=ROL|8214=0|10=031|
20230626-01:39:08.000 : 8=FIX.4.2|9=232|35=D|34=47|49=RSIT_ROLX_1|52=20230626-01:39:08.000|56=FSX_SIT_ROLX|1=RSIT_ACCOUNT_1|11=9002023168774354800000046|21=1|38=10|40=1|47=P|54=2|55=1322|59=0|60=20230626-01:39:08.849299|109=9002023168774354800000046|544=1|8164=ROL|8214=0|10=096|
20230626-01:39:09.000 : 8=FIX.4.2|9=401|35=8|34=43|49=FSX_SIT_ROLX|52=20230626-01:39:09.016|56=RSIT_ROLX_1|1=RSIT_ACCOUNT_1|6=0|11=9002023168774348900000001|14=0|17=1673089675430730759|20=0|37=1673089725810895594|38=5|39=C|40=1|41=9002023168774348900000001|47=P|54=1|55=5110|58=ERROR_20010050,Order expired due to TimeInForce(60s)|59=0|60=20230626-01:39:09.015|76=ROLX|109=101|150=C|151=0|544=1|8164=ROL|8169=20230626-01:39:09.015622|8214=0|10=077|
20230626-01:39:09.000 : 8=FIX.4.2|9=234|35=D|34=48|49=RSIT_ROLX_1|52=20230626-01:39:09.000|56=FSX_SIT_ROLX|1=RSIT_ACCOUNT_1|11=9002023168774354900000047|21=1|38=1000|40=1|47=P|54=2|55=1773|59=0|60=20230626-01:39:09.854758|109=9002023168774354900000047|544=1|8164=ROL|8214=0|10=207|
20230626-01:39:10.000 : 8=FIX.4.2|9=401|35=8|34=44|49=FSX_SIT_ROLX|52=20230626-01:39:10.012|56=RSIT_ROLX_1|1=RSIT_ACCOUNT_1|6=0|11=9002023168774349000000002|14=0|17=1673089675430730763|20=0|37=1673089725810895596|38=5|39=C|40=1|41=9002023168774349000000002|47=P|54=2|55=5110|58=ERROR_20010050,Order expired due to TimeInForce(60s)|59=0|60=20230626-01:39:10.011|76=ROLX|109=101|150=C|151=0|544=1|8164=ROL|8169=20230626-01:39:10.011608|8214=0|10=030|
20230626-01:39:10.000 : 8=FIX.4.2|9=231|35=D|34=49|49=RSIT_ROLX_1|52=20230626-01:39:10.000|56=FSX_SIT_ROLX|1=RSIT_ACCOUNT_1|11=9002023168774355000000048|21=1|38=1|40=9|47=P|54=2|55=1324|59=0|60=20230626-01:39:10.861968|109=9002023168774355000000048|544=1|8164=ROL|8214=0|10=032|
20230626-01:39:11.000 : 8=FIX.4.2|9=409|35=8|34=45|49=FSX_SIT_ROLX|52=20230626-01:39:11.011|56=RSIT_ROLX_1|1=RSIT_ACCOUNT_1|6=0|11=9002023168774349100000003|14=0|17=1673089675430730767|20=0|37=1673089725810895598|38=5|39=C|40=2|41=9002023168774349100000003|44=1230|47=P|54=1|55=5110|58=ERROR_20010050,Order expired due to TimeInForce(60s)|59=0|60=20230626-01:39:11.011|76=ROLX|109=101|150=C|151=0|544=1|8164=ROL|8169=20230626-01:39:11.011239|8214=0|10=159|
20230626-01:39:11.000 : 8=FIX.4.2|9=231|35=D|34=50|49=RSIT_ROLX_1|52=20230626-01:39:11.000|56=FSX_SIT_ROLX|1=RSIT_ACCOUNT_1|11=9002023168774355100000049|21=1|38=1|40=1|47=P|54=2|55=1324|59=6|60=20230626-01:39:11.869222|109=9002023168774355100000049|544=1|8164=ROL|8214=0|10=019|
20230626-01:39:12.000 : 8=FIX.4.2|9=409|35=8|34=46|49=FSX_SIT_ROLX|52=20230626-01:39:12.011|56=RSIT_ROLX_1|1=RSIT_ACCOUNT_1|6=0|11=9002023168774349200000004|14=0|17=1673089675430730771|20=0|37=1673089725810895600|38=5|39=C|40=2|41=9002023168774349200000004|44=1230|47=P|54=2|55=5110|58=ERROR_20010050,Order expired due to TimeInForce(60s)|59=0|60=20230626-01:39:12.011|76=ROLX|109=101|150=C|151=0|544=1|8164=ROL|8169=20230626-01:39:12.011115|8214=0|10=140|
20230626-01:39:12.000 : 8=FIX.4.2|9=231|35=D|34=51|49=RSIT_ROLX_1|52=20230626-01:39:12.000|56=FSX_SIT_ROLX|1=RSIT_ACCOUNT_1|11=9002023168774355200000050|21=1|38=1|40=1|47=P|54=5|55=1324|59=0|60=20230626-01:39:12.872091|109=9002023168774355200000050|544=1|8164=ROL|8214=0|10=003|
20230626-01:39:13.000 : 8=FIX.4.2|9=401|35=8|34=47|49=FSX_SIT_ROLX|52=20230626-01:39:13.011|56=RSIT_ROLX_1|1=RSIT_ACCOUNT_1|6=0|11=9002023168774349300000005|14=0|17=1673089675430730775|20=0|37=1673089725810895602|38=5|39=C|40=1|41=9002023168774349300000005|47=P|54=1|55=6028|58=ERROR_20010050,Order expired due to TimeInForce(60s)|59=0|60=20230626-01:39:13.010|76=ROLX|109=101|150=C|151=0|544=1|8164=ROL|8169=20230626-01:39:13.010665|8214=0|10=053|
20230626-01:39:13.000 : 8=FIX.4.2|9=232|35=D|34=52|49=RSIT_ROLX_1|52=20230626-01:39:13.000|56=FSX_SIT_ROLX|1=RSIT_ACCOUNT_13|11=9002023168774355300000051|21=1|38=1|40=1|47=P|54=1|55=1324|59=0|60=20230626-01:39:13.879312|109=9002023168774355300000051|544=1|8164=ROL|8214=0|10=061|
20230626-01:39:14.000 : 8=FIX.4.2|9=401|35=8|34=48|49=FSX_SIT_ROLX|52=20230626-01:39:14.012|56=RSIT_ROLX_1|1=RSIT_ACCOUNT_1|6=0|11=9002023168774349400000006|14=0|17=1673089675430730779|20=0|37=1673089725810895604|38=5|39=C|40=1|41=9002023168774349400000006|47=P|54=2|55=6028|58=ERROR_20010050,Order expired due to TimeInForce(60s)|59=0|60=20230626-01:39:14.012|76=ROLX|109=101|150=C|151=0|544=1|8164=ROL|8169=20230626-01:39:14.012272|8214=0|10=067|
20230626-01:39:14.000 : 8=FIX.4.2|9=231|35=D|34=53|49=RSIT_ROLX_1|52=20230626-01:39:14.000|56=FSX_SIT_ROLX|1=RSIT_ACCOUNT_1|11=9002023168774355400000052|21=1|38=1|40=1|47=S|54=1|55=1324|59=0|60=20230626-01:39:14.886575|109=9002023168774355400000052|544=1|8164=ROL|8214=0|10=028|
20230626-01:39:15.000 : 8=FIX.4.2|9=409|35=8|34=49|49=FSX_SIT_ROLX|52=20230626-01:39:15.012|56=RSIT_ROLX_1|1=RSIT_ACCOUNT_1|6=0|11=9002023168774349500000007|14=0|17=1673089675430730783|20=0|37=1673089725810895606|38=5|39=C|40=2|41=9002023168774349500000007|44=3470|47=P|54=1|55=6028|58=ERROR_20010050,Order expired due to TimeInForce(60s)|59=0|60=20230626-01:39:15.011|76=ROLX|109=101|150=C|151=0|544=1|8164=ROL|8169=20230626-01:39:15.011622|8214=0|10=193|
20230626-01:39:15.000 : 8=FIX.4.2|9=231|35=D|34=54|49=RSIT_ROLX_1|52=20230626-01:39:15.000|56=FSX_SIT_ROLX|1=RSIT_ACCOUNT_1|11=9002023168774355500000053|21=1|38=1|40=1|47=P|54=1|55=1324|59=0|60=20230626-01:39:15.892064|109=9002023168774355500000053|544=2|8164=ROL|8214=0|10=023|
20230626-01:39:16.000 : 8=FIX.4.2|9=409|35=8|34=50|49=FSX_SIT_ROLX|52=20230626-01:39:16.012|56=RSIT_ROLX_1|1=RSIT_ACCOUNT_1|6=0|11=9002023168774349600000008|14=0|17=1673089675430730787|20=0|37=1673089725810895608|38=5|39=C|40=2|41=9002023168774349600000008|44=3470|47=P|54=2|55=6028|58=ERROR_20010050,Order expired due to TimeInForce(60s)|59=0|60=20230626-01:39:16.011|76=ROLX|109=101|150=C|151=0|544=1|8164=ROL|8169=20230626-01:39:16.011553|8214=0|10=202|
20230626-01:39:16.000 : 8=FIX.4.2|9=231|35=D|34=55|49=RSIT_ROLX_1|52=20230626-01:39:16.000|56=FSX_SIT_ROLX|1=RSIT_ACCOUNT_1|11=9002023168774355600000054|21=1|38=1|40=1|47=P|54=1|55=1324|59=0|60=20230626-01:39:16.899383|109=9002023168774355600000054|544=1|8164=ROL|8214=1|10=041|
20230626-01:39:17.000 : 8=FIX.4.2|9=386|35=8|34=51|49=FSX_SIT_ROLX|52=20230626-01:39:16.998|56=RSIT_ROLX_1|1=RSIT_ACCOUNT_1|6=0|11=9002023168774355600000054|14=0|17=None|20=0|21=1|31=0|32=0|37=None|38=1|39=8|40=1|44=0|47=P|54=1|55=1324|58=ERROR_10010027,MarginTransactionType is not supported: marginTransactionType=1|59=0|60=20230626-01:39:16.997|103=3|109=101|150=8|151=0|544=1|8164=ROL|8169=20230626-01:39:16.997829|8214=1|10=008|
20230626-01:39:17.000 : 8=FIX.4.2|9=232|35=D|34=56|49=RSIT_ROLX_1|52=20230626-01:39:17.000|56=FSX_SIT_ROLX|1=RSIT_ACCOUNT_1|11=9002023168774355700000055|21=1|38=1|40=1|47=P|54=1|55=1324|59=0|60=20230626-01:39:17.906620|109=9002023168774355700000055|544=1|8164=ROLX|8214=0|10=119|
20230626-01:39:18.000 : 8=FIX.4.2|9=382|35=8|34=52|49=FSX_SIT_ROLX|52=20230626-01:39:18.003|56=RSIT_ROLX_1|1=RSIT_ACCOUNT_1|6=0|11=9002023168774355700000055|14=0|17=None|20=0|21=1|31=0|32=0|37=None|38=1|39=8|40=1|44=0|47=P|54=1|55=1324|58=ERROR_10010028,CrossingPriceType is not supported: crossingPriceType=ROLX|59=0|60=20230626-01:39:18.002|103=3|109=101|150=8|151=0|544=1|8164=ROLX|8169=20230626-01:39:18.002540|8214=0|10=216|
20230626-01:39:18.000 : 8=FIX.4.2|9=231|35=D|34=57|49=RSIT_ROLX_1|52=20230626-01:39:18.000|56=FSX_SIT_ROLX|1=RSIT_ACCOUNT_1|11=9002023168774355800000056|21=1|38=5|40=1|47=P|54=1|55=6954|59=0|60=20230626-01:39:18.913791|109=9002023168774355800000056|544=1|8164=ROL|8214=0|10=062|
20230626-01:39:19.000 : 8=FIX.4.2|9=326|35=8|34=53|49=FSX_SIT_ROLX|52=20230626-01:39:19.030|56=RSIT_ROLX_1|1=RSIT_ACCOUNT_1|6=0|11=9002023168774355800000056|14=0|17=1673089675430730794|20=0|31=0|32=0|37=1673089725810895640|38=5|39=0|40=1|47=P|54=1|55=6954|59=0|60=20230626-01:39:19.029|76=ROLX|109=101|150=0|151=5|544=1|8164=ROL|8169=20230626-01:39:19.029773|8214=0|10=037|
20230626-01:39:20.000 : 8=FIX.4.2|9=166|35=F|34=58|49=RSIT_ROLX_1|52=20230626-01:39:20.000|56=FSX_SIT_ROLX|11=9002023168774356000000057|41=9002023168774355800000056|54=1|55=6758|60=20230626-01:39:20.925899|10=193|
20230626-01:39:21.000 : 8=FIX.4.2|9=323|35=9|34=54|49=FSX_SIT_ROLX|52=20230626-01:39:21.027|56=RSIT_ROLX_1|11=9002023168774356000000057|37=None|39=8|41=9002023168774355800000056|58=ERROR_20010031,Requested order does not exist: origClOrdId=9002023168774355800000056, symbol=6758( expecting 6954)|60=20230626-01:39:21.026|102=1|434=1|8169=20230626-01:39:21.026687|10=104|
20230626-01:39:21.000 : 8=FIX.4.2|9=226|35=D|34=59|49=RSIT_ROLX_1|52=20230626-01:39:21.000|56=FSX_SIT_ROLX|1=RSIT_ACCOUNT_1|11=9002023168774356100000058|21=1|38=5|40=1|54=1|55=1325|59=0|60=20230626-01:39:21.933115|109=9002023168774356100000058|544=1|8164=ROL|8214=0|10=034|
20230626-01:39:22.000 : 8=FIX.4.2|9=326|35=8|34=55|49=FSX_SIT_ROLX|52=20230626-01:39:22.047|56=RSIT_ROLX_1|1=RSIT_ACCOUNT_1|6=0|11=9002023168774356100000058|14=0|17=1673089675430730796|20=0|31=0|32=0|37=1673089725810895642|38=5|39=0|40=1|47=P|54=1|55=1325|59=0|60=20230626-01:39:22.047|76=ROLX|109=101|150=0|151=5|544=1|8164=ROL|8169=20230626-01:39:22.047371|8214=0|10=010|
20230626-01:39:22.000 : 8=FIX.4.2|9=226|35=D|34=60|49=RSIT_ROLX_1|52=20230626-01:39:22.000|56=FSX_SIT_ROLX|1=RSIT_ACCOUNT_1|11=9002023168774356200000059|21=1|38=5|40=1|47=P|54=1|55=1325|60=20230626-01:39:22.940330|109=9002023168774356200000059|544=1|8164=ROL|8214=0|10=058|
20230626-01:39:23.000 : 8=FIX.4.2|9=326|35=8|34=56|49=FSX_SIT_ROLX|52=20230626-01:39:23.055|56=RSIT_ROLX_1|1=RSIT_ACCOUNT_1|6=0|11=9002023168774356200000059|14=0|17=1673089675430730798|20=0|31=0|32=0|37=1673089725810895644|38=5|39=0|40=1|47=P|54=1|55=1325|59=0|60=20230626-01:39:23.054|76=ROLX|109=101|150=0|151=5|544=1|8164=ROL|8169=20230626-01:39:23.054907|8214=0|10=020|
20230626-01:39:23.000 : 8=FIX.4.2|9=225|35=D|34=61|49=RSIT_ROLX_1|52=20230626-01:39:23.000|56=FSX_SIT_ROLX|1=RSIT_ACCOUNT_1|11=9002023168774356300000060|21=1|38=5|40=1|47=P|54=1|55=1325|59=0|60=20230626-01:39:23.945013|109=9002023168774356300000060|8164=ROL|8214=0|10=001|
20230626-01:39:24.000 : 8=FIX.4.2|9=326|35=8|34=57|49=FSX_SIT_ROLX|52=20230626-01:39:24.061|56=RSIT_ROLX_1|1=RSIT_ACCOUNT_1|6=0|11=9002023168774356300000060|14=0|17=1673089675430730803|20=0|31=0|32=0|37=1673089725810895646|38=5|39=0|40=1|47=P|54=1|55=1325|59=0|60=20230626-01:39:24.061|76=ROLX|109=101|150=0|151=5|544=1|8164=ROL|8169=20230626-01:39:24.061298|8214=0|10=002|
20230626-01:39:24.000 : 8=FIX.4.2|9=222|35=D|34=62|49=RSIT_ROLX_1|52=20230626-01:39:24.000|56=FSX_SIT_ROLX|1=RSIT_ACCOUNT_1|11=9002023168774356400000061|21=1|38=5|40=1|47=P|54=1|55=1325|59=0|60=20230626-01:39:24.952239|109=9002023168774356400000061|544=1|8214=0|10=027|
20230626-01:39:25.000 : 8=FIX.4.2|9=326|35=8|34=58|49=FSX_SIT_ROLX|52=20230626-01:39:25.063|56=RSIT_ROLX_1|1=RSIT_ACCOUNT_1|6=0|11=9002023168774356400000061|14=0|17=1673089675430730805|20=0|31=0|32=0|37=1673089725810895648|38=5|39=0|40=1|47=P|54=1|55=1325|59=0|60=20230626-01:39:25.063|76=ROLX|109=101|150=0|151=5|544=1|8164=ROL|8169=20230626-01:39:25.063003|8214=0|10=002|
20230626-01:39:25.000 : 8=FIX.4.2|9=224|35=D|34=63|49=RSIT_ROLX_1|52=20230626-01:39:25.000|56=FSX_SIT_ROLX|1=RSIT_ACCOUNT_1|11=9002023168774356500000062|21=1|38=5|40=1|47=P|54=1|55=1325|59=0|60=20230626-01:39:25.955016|109=9002023168774356500000062|544=1|8164=ROL|10=225|
20230626-01:39:26.000 : 8=FIX.4.2|9=326|35=8|34=59|49=FSX_SIT_ROLX|52=20230626-01:39:26.068|56=RSIT_ROLX_1|1=RSIT_ACCOUNT_1|6=0|11=9002023168774356500000062|14=0|17=1673089675430730807|20=0|31=0|32=0|37=1673089725810895650|38=5|39=0|40=1|47=P|54=1|55=1325|59=0|60=20230626-01:39:26.067|76=ROLX|109=101|150=0|151=5|544=1|8164=ROL|8169=20230626-01:39:26.067515|8214=0|10=024|
20230626-01:39:31.000 : 8=FIX.4.2|9=401|35=8|34=60|49=FSX_SIT_ROLX|52=20230626-01:39:31.013|56=RSIT_ROLX_1|1=RSIT_ACCOUNT_1|6=0|11=9002023168774351100000013|14=0|17=1673089675430730809|20=0|37=1673089725810895616|38=5|39=C|40=1|41=9002023168774351100000013|47=P|54=1|55=5108|58=ERROR_20010050,Order expired due to TimeInForce(60s)|59=0|60=20230626-01:39:31.012|76=ROLX|109=101|150=C|151=0|544=1|8164=ROL|8169=20230626-01:39:31.012882|8214=0|10=036|
20230626-01:39:32.000 : 8=FIX.4.2|9=409|35=8|34=61|49=FSX_SIT_ROLX|52=20230626-01:39:32.010|56=RSIT_ROLX_1|1=RSIT_ACCOUNT_1|6=0|11=9002023168774351200000014|14=0|17=1673089675430730813|20=0|37=1673089725810895618|38=5|39=C|40=2|41=9002023168774351200000014|44=5222|47=P|54=2|55=5108|58=ERROR_20010050,Order expired due to TimeInForce(60s)|59=0|60=20230626-01:39:32.010|76=ROLX|109=101|150=C|151=0|544=1|8164=ROL|8169=20230626-01:39:32.010404|8214=0|10=147|
20230626-01:39:49.000 : 8=FIX.4.2|9=401|35=8|34=62|49=FSX_SIT_ROLX|52=20230626-01:39:49.012|56=RSIT_ROLX_1|1=RSIT_ACCOUNT_1|6=0|11=9002023168774352900000027|14=0|17=1673089675430730829|20=0|37=1673089725810895632|38=5|39=C|40=1|41=9002023168774352900000027|47=P|54=1|55=4689|58=ERROR_20010050,Order expired due to TimeInForce(60s)|59=0|60=20230626-01:39:49.012|76=ROLX|109=101|150=C|151=0|544=1|8164=ROL|8169=20230626-01:39:49.012390|8214=0|10=099|
20230626-01:39:50.000 : 8=FIX.4.2|9=401|35=8|34=63|49=FSX_SIT_ROLX|52=20230626-01:39:50.011|56=RSIT_ROLX_1|1=RSIT_ACCOUNT_1|6=0|11=9002023168774353000000028|14=0|17=1673089675430730833|20=0|37=1673089725810895634|38=5|39=C|40=1|41=9002023168774353000000028|47=P|54=2|55=4689|58=ERROR_20010050,Order expired due to TimeInForce(60s)|59=0|60=20230626-01:39:50.010|76=ROLX|109=101|150=C|151=0|544=1|8164=ROL|8169=20230626-01:39:50.010938|8214=0|10=063|
20230626-01:39:51.000 : 8=FIX.4.2|9=408|35=8|34=64|49=FSX_SIT_ROLX|52=20230626-01:39:51.014|56=RSIT_ROLX_1|1=RSIT_ACCOUNT_1|6=0|11=9002023168774353100000029|14=0|17=1673089675430730837|20=0|37=1673089725810895636|38=5|39=C|40=2|41=9002023168774353100000029|44=369|47=P|54=1|55=4689|58=ERROR_20010050,Order expired due to TimeInForce(60s)|59=0|60=20230626-01:39:51.013|76=ROLX|109=101|150=C|151=0|544=1|8164=ROL|8169=20230626-01:39:51.013767|8214=0|10=165|
20230626-01:39:52.000 : 8=FIX.4.2|9=408|35=8|34=65|49=FSX_SIT_ROLX|52=20230626-01:39:52.012|56=RSIT_ROLX_1|1=RSIT_ACCOUNT_1|6=0|11=9002023168774353200000030|14=0|17=1673089675430730841|20=0|37=1673089725810895638|38=5|39=C|40=2|41=9002023168774353200000030|44=369|47=P|54=2|55=4689|58=ERROR_20010050,Order expired due to TimeInForce(60s)|59=0|60=20230626-01:39:52.012|76=ROLX|109=101|150=C|151=0|544=1|8164=ROL|8169=20230626-01:39:52.012241|8214=0|10=136|
20230626-01:40:19.000 : 8=FIX.4.2|9=401|35=8|34=66|49=FSX_SIT_ROLX|52=20230626-01:40:19.016|56=RSIT_ROLX_1|1=RSIT_ACCOUNT_1|6=0|11=9002023168774355800000056|14=0|17=1673089675430730845|20=0|37=1673089725810895640|38=5|39=C|40=1|41=9002023168774355800000056|47=P|54=1|55=6954|58=ERROR_20010050,Order expired due to TimeInForce(60s)|59=0|60=20230626-01:40:19.015|76=ROLX|109=101|150=C|151=0|544=1|8164=ROL|8169=20230626-01:40:19.015922|8214=0|10=083|
20230626-01:40:22.000 : 8=FIX.4.2|9=401|35=8|34=67|49=FSX_SIT_ROLX|52=20230626-01:40:22.010|56=RSIT_ROLX_1|1=RSIT_ACCOUNT_1|6=0|11=9002023168774356100000058|14=0|17=1673089675430730849|20=0|37=1673089725810895642|38=5|39=C|40=1|41=9002023168774356100000058|47=P|54=1|55=1325|58=ERROR_20010050,Order expired due to TimeInForce(60s)|59=0|60=20230626-01:40:22.010|76=ROLX|109=101|150=C|151=0|544=1|8164=ROL|8169=20230626-01:40:22.010245|8214=0|10=033|
20230626-01:40:23.000 : 8=FIX.4.2|9=401|35=8|34=68|49=FSX_SIT_ROLX|52=20230626-01:40:23.014|56=RSIT_ROLX_1|1=RSIT_ACCOUNT_1|6=0|11=9002023168774356200000059|14=0|17=1673089675430730853|20=0|37=1673089725810895644|38=5|39=C|40=1|41=9002023168774356200000059|47=P|54=1|55=1325|58=ERROR_20010050,Order expired due to TimeInForce(60s)|59=0|60=20230626-01:40:23.013|76=ROLX|109=101|150=C|151=0|544=1|8164=ROL|8169=20230626-01:40:23.013898|8214=0|10=062|
20230626-01:40:24.000 : 8=FIX.4.2|9=401|35=8|34=69|49=FSX_SIT_ROLX|52=20230626-01:40:24.012|56=RSIT_ROLX_1|1=RSIT_ACCOUNT_1|6=0|11=9002023168774356300000060|14=0|17=1673089675430730857|20=0|37=1673089725810895646|38=5|39=C|40=1|41=9002023168774356300000060|47=P|54=1|55=1325|58=ERROR_20010050,Order expired due to TimeInForce(60s)|59=0|60=20230626-01:40:24.012|76=ROLX|109=101|150=C|151=0|544=1|8164=ROL|8169=20230626-01:40:24.012070|8214=0|10=036|
20230626-01:40:25.000 : 8=FIX.4.2|9=401|35=8|34=70|49=FSX_SIT_ROLX|52=20230626-01:40:25.012|56=RSIT_ROLX_1|1=RSIT_ACCOUNT_1|6=0|11=9002023168774356400000061|14=0|17=1673089675430730861|20=0|37=1673089725810895648|38=5|39=C|40=1|41=9002023168774356400000061|47=P|54=1|55=1325|58=ERROR_20010050,Order expired due to TimeInForce(60s)|59=0|60=20230626-01:40:25.012|76=ROLX|109=101|150=C|151=0|544=1|8164=ROL|8169=20230626-01:40:25.012556|8214=0|10=041|
20230626-01:40:26.000 : 8=FIX.4.2|9=401|35=8|34=71|49=FSX_SIT_ROLX|52=20230626-01:40:26.012|56=RSIT_ROLX_1|1=RSIT_ACCOUNT_1|6=0|11=9002023168774356500000062|14=0|17=1673089675430730865|20=0|37=1673089725810895650|38=5|39=C|40=1|41=9002023168774356500000062|47=P|54=1|55=1325|58=ERROR_20010050,Order expired due to TimeInForce(60s)|59=0|60=20230626-01:40:26.012|76=ROLX|109=101|150=C|151=0|544=1|8164=ROL|8169=20230626-01:40:26.012266|8214=0|10=044|
