20231006-09:59:44.000 : 8=FIX.4.2|9=82|35=A|34=1|49=RSIT_EDP_2|52=20231006-09:59:44.000|56=FSX_SIT_EDP|98=0|108=30|141=Y|10=171|
20231006-09:59:44.000 : 8=FIX.4.2|9=82|35=A|34=1|49=FSX_SIT_EDP|52=20231006-09:59:44.951|56=RSIT_EDP_2|98=0|108=30|141=Y|10=186|
20231006-09:59:46.000 : 8=FIX.4.2|9=161|35=D|34=2|49=RSIT_EDP_2|52=20231006-09:59:46.000|56=FSX_SIT_EDP|1=RSIT_EDP_ACCOUNT_2|11=16965863862631000001|38=10|40=1|54=1|55=1305|60=20231006-09:59:46.523792|10=202|
20231006-09:59:46.000 : 8=FIX.4.2|9=161|35=D|34=3|49=RSIT_EDP_2|52=20231006-09:59:46.000|56=FSX_SIT_EDP|1=RSIT_EDP_ACCOUNT_2|11=16965863861028000002|38=10|40=1|54=1|55=1306|60=20231006-09:59:46.532571|10=199|
20231006-09:59:46.000 : 8=FIX.4.2|9=161|35=D|34=4|49=RSIT_EDP_2|52=20231006-09:59:46.000|56=FSX_SIT_EDP|1=RSIT_EDP_ACCOUNT_2|11=16965863861285000003|38=10|40=1|54=1|55=1311|60=20231006-09:59:46.538788|10=218|
20231006-09:59:46.000 : 8=FIX.4.2|9=163|35=D|34=5|49=RSIT_EDP_2|52=20231006-09:59:46.000|56=FSX_SIT_EDP|1=RSIT_EDP_ACCOUNT_2|11=16965863868352000004|38=1000|40=1|54=1|55=1319|60=20231006-09:59:46.545322|10=054|
20231006-09:59:46.000 : 8=FIX.4.2|9=160|35=D|34=6|49=RSIT_EDP_2|52=20231006-09:59:46.000|56=FSX_SIT_EDP|1=RSIT_EDP_ACCOUNT_2|11=16965863868530000005|38=1|40=1|54=1|55=1320|60=20231006-09:59:46.551098|10=162|
20231006-09:59:46.000 : 8=FIX.4.2|9=160|35=D|34=7|49=RSIT_EDP_2|52=20231006-09:59:46.000|56=FSX_SIT_EDP|1=RSIT_EDP_ACCOUNT_2|11=16965863865317000006|38=1|40=1|54=1|55=1321|60=20231006-09:59:46.555595|10=171|
20231006-09:59:46.000 : 8=FIX.4.2|9=162|35=D|34=8|49=RSIT_EDP_2|52=20231006-09:59:46.000|56=FSX_SIT_EDP|1=RSIT_EDP_ACCOUNT_2|11=16965863868103000007|38=100|40=1|54=1|55=1324|60=20231006-09:59:46.560830|10=002|
20231006-09:59:46.000 : 8=FIX.4.2|9=162|35=D|34=9|49=RSIT_EDP_2|52=20231006-09:59:46.000|56=FSX_SIT_EDP|1=RSIT_EDP_ACCOUNT_2|11=16965863863415000008|38=100|40=1|54=1|55=1325|60=20231006-09:59:46.566578|10=021|
20231006-09:59:46.000 : 8=FIX.4.2|9=161|35=D|34=10|49=RSIT_EDP_2|52=20231006-09:59:46.000|56=FSX_SIT_EDP|1=RSIT_EDP_ACCOUNT_2|11=16965863863642000009|38=1|40=1|54=1|55=1326|60=20231006-09:59:46.573446|10=216|
20231006-09:59:46.000 : 8=FIX.4.2|9=162|35=D|34=11|49=RSIT_EDP_2|52=20231006-09:59:46.000|56=FSX_SIT_EDP|1=RSIT_EDP_ACCOUNT_2|11=16965863868037000010|38=10|40=1|54=1|55=1328|60=20231006-09:59:46.579823|10=012|
20231006-09:59:46.000 : 8=FIX.4.2|9=161|35=D|34=12|49=RSIT_EDP_2|52=20231006-09:59:46.000|56=FSX_SIT_EDP|1=RSIT_EDP_ACCOUNT_2|11=16965863866082000011|38=1|40=1|54=1|55=1329|60=20231006-09:59:46.587122|10=211|
20231006-09:59:46.000 : 8=FIX.4.2|9=161|35=D|34=13|49=RSIT_EDP_2|52=20231006-09:59:46.000|56=FSX_SIT_EDP|1=RSIT_EDP_ACCOUNT_2|11=16965863860268000012|38=1|40=1|54=1|55=1330|60=20231006-09:59:46.594990|10=216|
20231006-09:59:46.000 : 8=FIX.4.2|9=163|35=D|34=14|49=RSIT_EDP_2|52=20231006-09:59:46.000|56=FSX_SIT_EDP|1=RSIT_EDP_ACCOUNT_2|11=16965863863027000013|38=100|40=1|54=1|55=1332|60=20231006-09:59:46.602133|10=037|
20231006-09:59:46.000 : 8=FIX.4.2|9=163|35=D|34=15|49=RSIT_EDP_2|52=20231006-09:59:46.000|56=FSX_SIT_EDP|1=RSIT_EDP_ACCOUNT_2|11=16965863866704000014|38=100|40=1|54=1|55=1333|60=20231006-09:59:46.606727|10=058|
20231006-09:59:46.000 : 8=FIX.4.2|9=162|35=D|34=16|49=RSIT_EDP_2|52=20231006-09:59:46.000|56=FSX_SIT_EDP|1=RSIT_EDP_ACCOUNT_2|11=16965863861832000015|38=10|40=1|54=1|55=1343|60=20231006-09:59:46.615328|10=006|
20231006-09:59:46.000 : 8=FIX.4.2|9=163|35=D|34=17|49=RSIT_EDP_2|52=20231006-09:59:46.000|56=FSX_SIT_EDP|1=RSIT_EDP_ACCOUNT_2|11=16965863862781000016|38=100|40=1|54=1|55=1345|60=20231006-09:59:46.626575|10=069|
20231006-09:59:46.000 : 8=FIX.4.2|9=161|35=D|34=18|49=RSIT_EDP_2|52=20231006-09:59:46.000|56=FSX_SIT_EDP|1=RSIT_EDP_ACCOUNT_2|11=16965863867618000017|38=1|40=1|54=1|55=1346|60=20231006-09:59:46.632237|10=226|
20231006-09:59:46.000 : 8=FIX.4.2|9=162|35=D|34=19|49=RSIT_EDP_2|52=20231006-09:59:46.000|56=FSX_SIT_EDP|1=RSIT_EDP_ACCOUNT_2|11=16965863866520000018|38=10|40=1|54=1|55=1348|60=20231006-09:59:46.638429|10=023|
20231006-09:59:46.000 : 8=FIX.4.2|9=428|35=8|34=2|49=FSX_SIT_EDP|52=20231006-09:59:46.652|56=RSIT_EDP_2|1=RSIT_EDP_ACCOUNT_2|6=0|11=16965863862631000001|14=0|17=None|20=0|31=0|32=0|37=None|38=10|39=8|40=1|44=0|47=P|54=1|55=1305|58=ERROR_10010013,No available instrument risk check data found: instrumentDate=not_found,expectedDate=20231006|59=3|60=20231006-09:59:46.652|103=3|109=102|110=0|150=8|151=0|544=1|8060=3|8164=EDP|8169=20231006-09:59:46.652250|8174=0|8214=0|10=100|
20231006-09:59:46.000 : 8=FIX.4.2|9=161|35=D|34=20|49=RSIT_EDP_2|52=20231006-09:59:46.000|56=FSX_SIT_EDP|1=RSIT_EDP_ACCOUNT_2|11=16965863860175000019|38=1|40=1|54=1|55=1349|60=20231006-09:59:46.649198|10=229|
20231006-09:59:46.000 : 8=FIX.4.2|9=162|35=D|34=21|49=RSIT_EDP_2|52=20231006-09:59:46.000|56=FSX_SIT_EDP|1=RSIT_EDP_ACCOUNT_2|11=16965863861480000020|38=10|40=1|54=1|55=1356|60=20231006-09:59:46.655233|10=000|
20231006-09:59:46.000 : 8=FIX.4.2|9=161|35=D|34=22|49=RSIT_EDP_2|52=20231006-09:59:46.000|56=FSX_SIT_EDP|1=RSIT_EDP_ACCOUNT_2|11=16965863865320000021|38=1|40=1|54=1|55=1358|60=20231006-09:59:46.670077|10=211|
20231006-09:59:46.000 : 8=FIX.4.2|9=162|35=D|34=23|49=RSIT_EDP_2|52=20231006-09:59:46.000|56=FSX_SIT_EDP|1=RSIT_EDP_ACCOUNT_2|11=16965863862483000022|38=10|40=1|54=1|55=1360|60=20231006-09:59:46.675987|10=021|
20231006-09:59:46.000 : 8=FIX.4.2|9=161|35=D|34=24|49=RSIT_EDP_2|52=20231006-09:59:46.000|56=FSX_SIT_EDP|1=RSIT_EDP_ACCOUNT_2|11=16965863867236000023|38=1|40=1|54=1|55=1364|60=20231006-09:59:46.681617|10=222|
20231006-09:59:46.000 : 8=FIX.4.2|9=161|35=D|34=25|49=RSIT_EDP_2|52=20231006-09:59:46.000|56=FSX_SIT_EDP|1=RSIT_EDP_ACCOUNT_2|11=16965863860243000024|38=1|40=1|54=1|55=1365|60=20231006-09:59:46.687150|10=214|
20231006-09:59:46.000 : 8=FIX.4.2|9=428|35=8|34=3|49=FSX_SIT_EDP|52=20231006-09:59:46.692|56=RSIT_EDP_2|1=RSIT_EDP_ACCOUNT_2|6=0|11=16965863861028000002|14=0|17=None|20=0|31=0|32=0|37=None|38=10|39=8|40=1|44=0|47=P|54=1|55=1306|58=ERROR_10010013,No available instrument risk check data found: instrumentDate=not_found,expectedDate=20231006|59=3|60=20231006-09:59:46.692|103=3|109=102|110=0|150=8|151=0|544=1|8060=3|8164=EDP|8169=20231006-09:59:46.692696|8174=0|8214=0|10=128|
20231006-09:59:46.000 : 8=FIX.4.2|9=161|35=D|34=26|49=RSIT_EDP_2|52=20231006-09:59:46.000|56=FSX_SIT_EDP|1=RSIT_EDP_ACCOUNT_2|11=16965863862043000025|38=1|40=1|54=1|55=1367|60=20231006-09:59:46.692581|10=222|
20231006-09:59:46.000 : 8=FIX.4.2|9=161|35=D|34=27|49=RSIT_EDP_2|52=20231006-09:59:46.000|56=FSX_SIT_EDP|1=RSIT_EDP_ACCOUNT_2|11=16965863867360000026|38=1|40=1|54=1|55=1369|60=20231006-09:59:46.697977|10=247|
20231006-09:59:46.000 : 8=FIX.4.2|9=379|35=8|34=4|49=FSX_SIT_EDP|52=20231006-09:59:46.704|56=RSIT_EDP_2|1=RSIT_EDP_ACCOUNT_2|6=0|11=16965863861285000003|14=0|17=1710233378530541568|20=0|31=0|32=0|37=1710233378523582464|38=10|39=8|40=1|44=0|47=P|54=1|55=1311|58=ERROR_20010064,Book is Closed|59=3|60=20231006-09:59:46.704|103=2|109=102|110=0|150=8|151=0|544=1|8060=3|8164=EDP|8169=20231006-09:59:46.704911|8174=0|8214=0|10=032|
20231006-09:59:46.000 : 8=FIX.4.2|9=161|35=D|34=28|49=RSIT_EDP_2|52=20231006-09:59:46.000|56=FSX_SIT_EDP|1=RSIT_EDP_ACCOUNT_2|11=16965863864825000027|38=1|40=1|54=1|55=1397|60=20231006-09:59:46.704143|10=227|
20231006-09:59:46.000 : 8=FIX.4.2|9=381|35=8|34=5|49=FSX_SIT_EDP|52=20231006-09:59:46.705|56=RSIT_EDP_2|1=RSIT_EDP_ACCOUNT_2|6=0|11=16965863868352000004|14=0|17=1710233378535399424|20=0|31=0|32=0|37=1710233378527776768|38=1000|39=8|40=1|44=0|47=P|54=1|55=1319|58=ERROR_20010064,Book is Closed|59=3|60=20231006-09:59:46.705|103=2|109=102|110=0|150=8|151=0|544=1|8060=3|8164=EDP|8169=20231006-09:59:46.705545|8174=0|8214=0|10=162|
20231006-09:59:46.000 : 8=FIX.4.2|9=380|35=8|34=6|49=FSX_SIT_EDP|52=20231006-09:59:46.708|56=RSIT_EDP_2|1=RSIT_EDP_ACCOUNT_2|6=0|11=16965863868103000007|14=0|17=1710233378547347456|20=0|31=0|32=0|37=1710233378536165376|38=100|39=8|40=1|44=0|47=P|54=1|55=1324|58=ERROR_20010064,Book is Closed|59=3|60=20231006-09:59:46.708|103=2|109=102|110=0|150=8|151=0|544=1|8060=3|8164=EDP|8169=20231006-09:59:46.708434|8174=0|8214=0|10=101|
20231006-09:59:46.000 : 8=FIX.4.2|9=378|35=8|34=7|49=FSX_SIT_EDP|52=20231006-09:59:46.709|56=RSIT_EDP_2|1=RSIT_EDP_ACCOUNT_2|6=0|11=16965863863642000009|14=0|17=1710233378551541760|20=0|31=0|32=0|37=1710233378544553984|38=1|39=8|40=1|44=0|47=P|54=1|55=1326|58=ERROR_20010064,Book is Closed|59=3|60=20231006-09:59:46.709|103=2|109=102|110=0|150=8|151=0|544=1|8060=3|8164=EDP|8169=20231006-09:59:46.709568|8174=0|8214=0|10=025|
20231006-09:59:46.000 : 8=FIX.4.2|9=378|35=8|34=8|49=FSX_SIT_EDP|52=20231006-09:59:46.710|56=RSIT_EDP_2|1=RSIT_EDP_ACCOUNT_2|6=0|11=16965863868530000005|14=0|17=1710233378538958848|20=0|31=0|32=0|37=1710233378531971072|38=1|39=8|40=1|44=0|47=P|54=1|55=1320|58=ERROR_20010064,Book is Closed|59=3|60=20231006-09:59:46.710|103=2|109=102|110=0|150=8|151=0|544=1|8060=3|8164=EDP|8169=20231006-09:59:46.710851|8174=0|8214=0|10=000|
20231006-09:59:46.000 : 8=FIX.4.2|9=378|35=8|34=9|49=FSX_SIT_EDP|52=20231006-09:59:46.711|56=RSIT_EDP_2|1=RSIT_EDP_ACCOUNT_2|6=0|11=16965863865317000006|14=0|17=1710233378538958849|20=0|31=0|32=0|37=1710233378531971073|38=1|39=8|40=1|44=0|47=P|54=1|55=1321|58=ERROR_20010064,Book is Closed|59=3|60=20231006-09:59:46.711|103=2|109=102|110=0|150=8|151=0|544=1|8060=3|8164=EDP|8169=20231006-09:59:46.711556|8174=0|8214=0|10=010|
20231006-09:59:46.000 : 8=FIX.4.2|9=381|35=8|34=10|49=FSX_SIT_EDP|52=20231006-09:59:46.712|56=RSIT_EDP_2|1=RSIT_EDP_ACCOUNT_2|6=0|11=16965863863415000008|14=0|17=1710233378547347457|20=0|31=0|32=0|37=1710233378540359680|38=100|39=8|40=1|44=0|47=P|54=1|55=1325|58=ERROR_20010064,Book is Closed|59=3|60=20231006-09:59:46.712|103=2|109=102|110=0|150=8|151=0|544=1|8060=3|8164=EDP|8169=20231006-09:59:46.712747|8174=0|8214=0|10=139|
20231006-09:59:46.000 : 8=FIX.4.2|9=162|35=D|34=29|49=RSIT_EDP_2|52=20231006-09:59:46.000|56=FSX_SIT_EDP|1=RSIT_EDP_ACCOUNT_2|11=16965863862375000028|38=10|40=1|54=1|55=1398|60=20231006-09:59:46.715019|10=025|
20231006-09:59:46.000 : 8=FIX.4.2|9=162|35=D|34=30|49=RSIT_EDP_2|52=20231006-09:59:46.000|56=FSX_SIT_EDP|1=RSIT_EDP_ACCOUNT_2|11=16965863862580000029|38=10|40=1|54=1|55=1399|60=20231006-09:59:46.720913|10=016|
20231006-09:59:46.000 : 8=FIX.4.2|9=163|35=D|34=31|49=RSIT_EDP_2|52=20231006-09:59:46.000|56=FSX_SIT_EDP|1=RSIT_EDP_ACCOUNT_2|11=16965863860845000030|38=100|40=1|54=1|55=1414|60=20231006-09:59:46.727230|10=047|
20231006-09:59:46.000 : 8=FIX.4.2|9=163|35=D|34=32|49=RSIT_EDP_2|52=20231006-09:59:46.000|56=FSX_SIT_EDP|1=RSIT_EDP_ACCOUNT_2|11=16965863868042000031|38=100|40=1|54=1|55=1417|60=20231006-09:59:46.733118|10=051|
20231006-09:59:46.000 : 8=FIX.4.2|9=161|35=D|34=33|49=RSIT_EDP_2|52=20231006-09:59:46.000|56=FSX_SIT_EDP|1=RSIT_EDP_ACCOUNT_2|11=16965863868527000032|38=1|40=1|54=1|55=1458|60=20231006-09:59:46.739067|10=233|
20231006-09:59:46.000 : 8=FIX.4.2|9=161|35=D|34=34|49=RSIT_EDP_2|52=20231006-09:59:46.000|56=FSX_SIT_EDP|1=RSIT_EDP_ACCOUNT_2|11=16965863862046000033|38=1|40=1|54=1|55=1464|60=20231006-09:59:46.744810|10=214|
20231006-09:59:46.000 : 8=FIX.4.2|9=162|35=D|34=35|49=RSIT_EDP_2|52=20231006-09:59:46.000|56=FSX_SIT_EDP|1=RSIT_EDP_ACCOUNT_2|11=16965863864782000034|38=10|40=1|54=1|55=1469|60=20231006-09:59:46.750399|10=032|
20231006-09:59:46.000 : 8=FIX.4.2|9=162|35=D|34=36|49=RSIT_EDP_2|52=20231006-09:59:46.000|56=FSX_SIT_EDP|1=RSIT_EDP_ACCOUNT_2|11=16965863862073000035|38=10|40=1|54=1|55=1473|60=20231006-09:59:46.755935|10=021|
20231006-09:59:46.000 : 8=FIX.4.2|9=161|35=D|34=37|49=RSIT_EDP_2|52=20231006-09:59:46.000|56=FSX_SIT_EDP|1=RSIT_EDP_ACCOUNT_2|11=16965863860648000036|38=1|40=1|54=1|55=1474|60=20231006-09:59:46.761765|10=235|
20231006-09:59:46.000 : 8=FIX.4.2|9=380|35=8|34=11|49=FSX_SIT_EDP|52=20231006-09:59:46.763|56=RSIT_EDP_2|1=RSIT_EDP_ACCOUNT_2|6=0|11=16965863868037000010|14=0|17=1710233378773811200|20=0|31=0|32=0|37=1710233378771046400|38=10|39=8|40=1|44=0|47=P|54=1|55=1328|58=ERROR_20010064,Book is Closed|59=3|60=20231006-09:59:46.763|103=2|109=102|110=0|150=8|151=0|544=1|8060=3|8164=EDP|8169=20231006-09:59:46.763106|8174=0|8214=0|10=071|
20231006-09:59:46.000 : 8=FIX.4.2|9=379|35=8|34=12|49=FSX_SIT_EDP|52=20231006-09:59:46.764|56=RSIT_EDP_2|1=RSIT_EDP_ACCOUNT_2|6=0|11=16965863866082000011|14=0|17=1710233378782199808|20=0|31=0|32=0|37=1710233378775240704|38=1|39=8|40=1|44=0|47=P|54=1|55=1329|58=ERROR_20010064,Book is Closed|59=3|60=20231006-09:59:46.764|103=2|109=102|110=0|150=8|151=0|544=1|8060=3|8164=EDP|8169=20231006-09:59:46.764339|8174=0|8214=0|10=073|
20231006-09:59:46.000 : 8=FIX.4.2|9=161|35=D|34=38|49=RSIT_EDP_2|52=20231006-09:59:46.000|56=FSX_SIT_EDP|1=RSIT_EDP_ACCOUNT_2|11=16965863866748000037|38=1|40=1|54=1|55=1479|60=20231006-09:59:46.767303|10=243|
20231006-09:59:46.000 : 8=FIX.4.2|9=161|35=D|34=39|49=RSIT_EDP_2|52=20231006-09:59:46.000|56=FSX_SIT_EDP|1=RSIT_EDP_ACCOUNT_2|11=16965863866843000038|38=1|40=1|54=1|55=1480|60=20231006-09:59:46.772461|10=234|
20231006-09:59:46.000 : 8=FIX.4.2|9=162|35=D|34=40|49=RSIT_EDP_2|52=20231006-09:59:46.000|56=FSX_SIT_EDP|1=RSIT_EDP_ACCOUNT_2|11=16965863865467000039|38=10|40=1|54=1|55=1484|60=20231006-09:59:46.778080|10=028|
20231006-09:59:46.000 : 8=FIX.4.2|9=161|35=D|34=41|49=RSIT_EDP_2|52=20231006-09:59:46.000|56=FSX_SIT_EDP|1=RSIT_EDP_ACCOUNT_2|11=16965863860263000040|38=1|40=1|54=1|55=1485|60=20231006-09:59:46.783416|10=217|
20231006-09:59:46.000 : 8=FIX.4.2|9=161|35=D|34=42|49=RSIT_EDP_2|52=20231006-09:59:46.000|56=FSX_SIT_EDP|1=RSIT_EDP_ACCOUNT_2|11=16965863864217000041|38=1|40=1|54=1|55=1486|60=20231006-09:59:46.788302|10=222|
20231006-09:59:46.000 : 8=FIX.4.2|9=161|35=D|34=43|49=RSIT_EDP_2|52=20231006-09:59:46.000|56=FSX_SIT_EDP|1=RSIT_EDP_ACCOUNT_2|11=16965863863206000042|38=1|40=1|54=1|55=1487|60=20231006-09:59:46.794103|10=218|
20231006-09:59:46.000 : 8=FIX.4.2|9=162|35=D|34=44|49=RSIT_EDP_2|52=20231006-09:59:46.000|56=FSX_SIT_EDP|1=RSIT_EDP_ACCOUNT_2|11=16965863866702000043|38=10|40=1|54=1|55=1488|60=20231006-09:59:46.799784|10=038|
20231006-09:59:46.000 : 8=FIX.4.2|9=161|35=D|34=45|49=RSIT_EDP_2|52=20231006-09:59:46.000|56=FSX_SIT_EDP|1=RSIT_EDP_ACCOUNT_2|11=16965863865438000044|38=1|40=1|54=1|55=1489|60=20231006-09:59:46.805428|10=236|
20231006-09:59:46.000 : 8=FIX.4.2|9=162|35=D|34=46|49=RSIT_EDP_2|52=20231006-09:59:46.000|56=FSX_SIT_EDP|1=RSIT_EDP_ACCOUNT_2|11=16965863867048000045|38=10|40=1|54=1|55=1490|60=20231006-09:59:46.811086|10=019|
20231006-09:59:46.000 : 8=FIX.4.2|9=161|35=D|34=47|49=RSIT_EDP_2|52=20231006-09:59:46.000|56=FSX_SIT_EDP|1=RSIT_EDP_ACCOUNT_2|11=16965863862781000046|38=1|40=1|54=1|55=1492|60=20231006-09:59:46.817017|10=229|
20231006-09:59:46.000 : 8=FIX.4.2|9=161|35=D|34=48|49=RSIT_EDP_2|52=20231006-09:59:46.000|56=FSX_SIT_EDP|1=RSIT_EDP_ACCOUNT_2|11=16965863864130000047|38=1|40=1|54=1|55=1493|60=20231006-09:59:46.822972|10=228|
20231006-09:59:46.000 : 8=FIX.4.2|9=161|35=D|34=49|49=RSIT_EDP_2|52=20231006-09:59:46.000|56=FSX_SIT_EDP|1=RSIT_EDP_ACCOUNT_2|11=16965863862765000048|38=1|40=1|54=1|55=1494|60=20231006-09:59:46.828787|10=253|
20231006-09:59:46.000 : 8=FIX.4.2|9=162|35=D|34=50|49=RSIT_EDP_2|52=20231006-09:59:46.000|56=FSX_SIT_EDP|1=RSIT_EDP_ACCOUNT_2|11=16965863866425000049|38=10|40=1|54=1|55=1495|60=20231006-09:59:46.835429|10=028|
20231006-09:59:46.000 : 8=FIX.4.2|9=161|35=D|34=51|49=RSIT_EDP_2|52=20231006-09:59:46.000|56=FSX_SIT_EDP|1=RSIT_EDP_ACCOUNT_2|11=16965863861654000050|38=1|40=1|54=1|55=1498|60=20231006-09:59:46.842591|10=228|
20231006-09:59:46.000 : 8=FIX.4.2|9=380|35=8|34=13|49=FSX_SIT_EDP|52=20231006-09:59:46.767|56=RSIT_EDP_2|1=RSIT_EDP_ACCOUNT_2|6=0|11=16965863861832000015|14=0|17=1710233378796683264|20=0|31=0|32=0|37=1710233378792017920|38=10|39=8|40=1|44=0|47=P|54=1|55=1343|58=ERROR_20010064,Book is Closed|59=3|60=20231006-09:59:46.767|103=2|109=102|110=0|150=8|151=0|544=1|8060=3|8164=EDP|8169=20231006-09:59:46.767821|8174=0|8214=0|10=117|
20231006-09:59:46.000 : 8=FIX.4.2|9=381|35=8|34=14|49=FSX_SIT_EDP|52=20231006-09:59:46.769|56=RSIT_EDP_2|1=RSIT_EDP_ACCOUNT_2|6=0|11=16965863862781000016|14=0|17=1710233378798977024|20=0|31=0|32=0|37=1710233378796212224|38=100|39=8|40=1|44=0|47=P|54=1|55=1345|58=ERROR_20010064,Book is Closed|59=3|60=20231006-09:59:46.769|103=2|109=102|110=0|150=8|151=0|544=1|8060=3|8164=EDP|8169=20231006-09:59:46.769331|8174=0|8214=0|10=176|
20231006-09:59:46.000 : 8=FIX.4.2|9=381|35=8|34=15|49=FSX_SIT_EDP|52=20231006-09:59:46.771|56=RSIT_EDP_2|1=RSIT_EDP_ACCOUNT_2|6=0|11=16965863863027000013|14=0|17=1710233378790617088|20=0|31=0|32=0|37=1710233378779435009|38=100|39=8|40=1|44=0|47=P|54=1|55=1332|58=ERROR_20010064,Book is Closed|59=3|60=20231006-09:59:46.771|103=2|109=102|110=0|150=8|151=0|544=1|8060=3|8164=EDP|8169=20231006-09:59:46.771247|8174=0|8214=0|10=151|
20231006-09:59:46.000 : 8=FIX.4.2|9=161|35=D|34=52|49=RSIT_EDP_2|52=20231006-09:59:46.000|56=FSX_SIT_EDP|1=RSIT_EDP_ACCOUNT_2|11=16965863864021000051|38=1|40=1|54=1|55=1499|60=20231006-09:59:46.849616|10=227|
20231006-09:59:46.000 : 8=FIX.4.2|9=381|35=8|34=16|49=FSX_SIT_EDP|52=20231006-09:59:46.772|56=RSIT_EDP_2|1=RSIT_EDP_ACCOUNT_2|6=0|11=16965863866704000014|14=0|17=1710233378790617089|20=0|31=0|32=0|37=1710233378783629312|38=100|39=8|40=1|44=0|47=P|54=1|55=1333|58=ERROR_20010064,Book is Closed|59=3|60=20231006-09:59:46.772|103=2|109=102|110=0|150=8|151=0|544=1|8060=3|8164=EDP|8169=20231006-09:59:46.772269|8174=0|8214=0|10=164|
20231006-09:59:46.000 : 8=FIX.4.2|9=379|35=8|34=17|49=FSX_SIT_EDP|52=20231006-09:59:46.773|56=RSIT_EDP_2|1=RSIT_EDP_ACCOUNT_2|6=0|11=16965863860268000012|14=0|17=1710233378809266176|20=0|31=0|32=0|37=1710233378779435008|38=1|39=8|40=1|44=0|47=P|54=1|55=1330|58=ERROR_20010064,Book is Closed|59=3|60=20231006-09:59:46.773|103=2|109=102|110=0|150=8|151=0|544=1|8060=3|8164=EDP|8169=20231006-09:59:46.773159|8174=0|8214=0|10=071|
20231006-09:59:46.000 : 8=FIX.4.2|9=380|35=8|34=18|49=FSX_SIT_EDP|52=20231006-09:59:46.774|56=RSIT_EDP_2|1=RSIT_EDP_ACCOUNT_2|6=0|11=16965863861480000020|14=0|17=1710233378815754240|20=0|31=0|32=0|37=1710233378808795136|38=10|39=8|40=1|44=0|47=P|54=1|55=1356|58=ERROR_20010064,Book is Closed|59=3|60=20231006-09:59:46.774|103=2|109=102|110=0|150=8|151=0|544=1|8060=3|8164=EDP|8169=20231006-09:59:46.774843|8174=0|8214=0|10=114|
20231006-09:59:46.000 : 8=FIX.4.2|9=379|35=8|34=19|49=FSX_SIT_EDP|52=20231006-09:59:46.777|56=RSIT_EDP_2|1=RSIT_EDP_ACCOUNT_2|6=0|11=16965863860175000019|14=0|17=1710233378815754241|20=0|31=0|32=0|37=1710233378804600832|38=1|39=8|40=1|44=0|47=P|54=1|55=1349|58=ERROR_20010064,Book is Closed|59=3|60=20231006-09:59:46.776|103=2|109=102|110=0|150=8|151=0|544=1|8060=3|8164=EDP|8169=20231006-09:59:46.776901|8174=0|8214=0|10=072|
20231006-09:59:46.000 : 8=FIX.4.2|9=379|35=8|34=20|49=FSX_SIT_EDP|52=20231006-09:59:46.778|56=RSIT_EDP_2|1=RSIT_EDP_ACCOUNT_2|6=0|11=16965863865320000021|14=0|17=1710233378820612096|20=0|31=0|32=0|37=1710233378812989440|38=1|39=8|40=1|44=0|47=P|54=1|55=1358|58=ERROR_20010064,Book is Closed|59=3|60=20231006-09:59:46.778|103=2|109=102|110=0|150=8|151=0|544=1|8060=3|8164=EDP|8169=20231006-09:59:46.778736|8174=0|8214=0|10=076|
20231006-09:59:46.000 : 8=FIX.4.2|9=380|35=8|34=21|49=FSX_SIT_EDP|52=20231006-09:59:46.780|56=RSIT_EDP_2|1=RSIT_EDP_ACCOUNT_2|6=0|11=16965863866520000018|14=0|17=1710233378807394304|20=0|31=0|32=0|37=1710233378800406529|38=10|39=8|40=1|44=0|47=P|54=1|55=1348|58=ERROR_20010064,Book is Closed|59=3|60=20231006-09:59:46.779|103=2|109=102|110=0|150=8|151=0|544=1|8060=3|8164=EDP|8169=20231006-09:59:46.779939|8174=0|8214=0|10=118|
20231006-09:59:46.000 : 8=FIX.4.2|9=379|35=8|34=22|49=FSX_SIT_EDP|52=20231006-09:59:46.781|56=RSIT_EDP_2|1=RSIT_EDP_ACCOUNT_2|6=0|11=16965863867618000017|14=0|17=1710233378812223488|20=0|31=0|32=0|37=1710233378800406528|38=1|39=8|40=1|44=0|47=P|54=1|55=1346|58=ERROR_20010064,Book is Closed|59=3|60=20231006-09:59:46.780|103=2|109=102|110=0|150=8|151=0|544=1|8060=3|8164=EDP|8169=20231006-09:59:46.780885|8174=0|8214=0|10=069|
20231006-09:59:46.000 : 8=FIX.4.2|9=380|35=8|34=23|49=FSX_SIT_EDP|52=20231006-09:59:46.782|56=RSIT_EDP_2|1=RSIT_EDP_ACCOUNT_2|6=0|11=16965863862483000022|14=0|17=1710233378824142848|20=0|31=0|32=0|37=1710233378817183744|38=10|39=8|40=1|44=0|47=P|54=1|55=1360|58=ERROR_20010064,Book is Closed|59=3|60=20231006-09:59:46.782|103=2|109=102|110=0|150=8|151=0|544=1|8060=3|8164=EDP|8169=20231006-09:59:46.782206|8174=0|8214=0|10=102|
20231006-09:59:46.000 : 8=FIX.4.2|9=379|35=8|34=24|49=FSX_SIT_EDP|52=20231006-09:59:46.783|56=RSIT_EDP_2|1=RSIT_EDP_ACCOUNT_2|6=0|11=16965863860243000024|14=0|17=1710233378832531456|20=0|31=0|32=0|37=1710233378825572352|38=1|39=8|40=1|44=0|47=P|54=1|55=1365|58=ERROR_20010064,Book is Closed|59=3|60=20231006-09:59:46.783|103=2|109=102|110=0|150=8|151=0|544=1|8060=3|8164=EDP|8169=20231006-09:59:46.783055|8174=0|8214=0|10=059|
20231006-09:59:46.000 : 8=FIX.4.2|9=379|35=8|34=25|49=FSX_SIT_EDP|52=20231006-09:59:46.783|56=RSIT_EDP_2|1=RSIT_EDP_ACCOUNT_2|6=0|11=16965863867236000023|14=0|17=1710233378826043392|20=0|31=0|32=0|37=1710233378821378048|38=1|39=8|40=1|44=0|47=P|54=1|55=1364|58=ERROR_20010064,Book is Closed|59=3|60=20231006-09:59:46.783|103=2|109=102|110=0|150=8|151=0|544=1|8060=3|8164=EDP|8169=20231006-09:59:46.783824|8174=0|8214=0|10=073|
20231006-09:59:46.000 : 8=FIX.4.2|9=379|35=8|34=26|49=FSX_SIT_EDP|52=20231006-09:59:46.789|56=RSIT_EDP_2|1=RSIT_EDP_ACCOUNT_2|6=0|11=16965863867360000026|14=0|17=1710233378888957952|20=0|31=0|32=0|37=1710233378880098304|38=1|39=8|40=1|44=0|47=P|54=1|55=1369|58=ERROR_20010064,Book is Closed|59=3|60=20231006-09:59:46.788|103=2|109=102|110=0|150=8|151=0|544=1|8060=3|8164=EDP|8169=20231006-09:59:46.788963|8174=0|8214=0|10=123|
20231006-09:59:46.000 : 8=FIX.4.2|9=379|35=8|34=27|49=FSX_SIT_EDP|52=20231006-09:59:46.790|56=RSIT_EDP_2|1=RSIT_EDP_ACCOUNT_2|6=0|11=16965863862043000025|14=0|17=1710233378887057408|20=0|31=0|32=0|37=1710233378875904000|38=1|39=8|40=1|44=0|47=P|54=1|55=1367|58=ERROR_20010064,Book is Closed|59=3|60=20231006-09:59:46.789|103=2|109=102|110=0|150=8|151=0|544=1|8060=3|8164=EDP|8169=20231006-09:59:46.789919|8174=0|8214=0|10=088|
20231006-09:59:46.000 : 8=FIX.4.2|9=379|35=8|34=28|49=FSX_SIT_EDP|52=20231006-09:59:46.792|56=RSIT_EDP_2|1=RSIT_EDP_ACCOUNT_2|6=0|11=16965863864825000027|14=0|17=1710233378893152256|20=0|31=0|32=0|37=1710233378884292608|38=1|39=8|40=1|44=0|47=P|54=1|55=1397|58=ERROR_20010064,Book is Closed|59=3|60=20231006-09:59:46.791|103=2|109=102|110=0|150=8|151=0|544=1|8060=3|8164=EDP|8169=20231006-09:59:46.791946|8174=0|8214=0|10=100|
20231006-09:59:46.000 : 8=FIX.4.2|9=381|35=8|34=29|49=FSX_SIT_EDP|52=20231006-09:59:46.836|56=RSIT_EDP_2|1=RSIT_EDP_ACCOUNT_2|6=0|11=16965863860845000030|14=0|17=1710233379084189696|20=0|31=0|32=0|37=1710233379081424896|38=100|39=8|40=1|44=0|47=P|54=1|55=1414|58=ERROR_20010064,Book is Closed|59=3|60=20231006-09:59:46.836|103=2|109=102|110=0|150=8|151=0|544=1|8060=3|8164=EDP|8169=20231006-09:59:46.836083|8174=0|8214=0|10=170|
20231006-09:59:46.000 : 8=FIX.4.2|9=380|35=8|34=30|49=FSX_SIT_EDP|52=20231006-09:59:46.837|56=RSIT_EDP_2|1=RSIT_EDP_ACCOUNT_2|6=0|11=16965863862375000028|14=0|17=1710233379075829760|20=0|31=0|32=0|37=1710233379073036288|38=10|39=8|40=1|44=0|47=P|54=1|55=1398|58=ERROR_20010064,Book is Closed|59=3|60=20231006-09:59:46.837|103=2|109=102|110=0|150=8|151=0|544=1|8060=3|8164=EDP|8169=20231006-09:59:46.837830|8174=0|8214=0|10=122|
20231006-09:59:46.000 : 8=FIX.4.2|9=379|35=8|34=31|49=FSX_SIT_EDP|52=20231006-09:59:46.839|56=RSIT_EDP_2|1=RSIT_EDP_ACCOUNT_2|6=0|11=16965863868527000032|14=0|17=1710233379096801280|20=0|31=0|32=0|37=1710233379089813504|38=1|39=8|40=1|44=0|47=P|54=1|55=1458|58=ERROR_20010064,Book is Closed|59=3|60=20231006-09:59:46.839|103=2|109=102|110=0|150=8|151=0|544=1|8060=3|8164=EDP|8169=20231006-09:59:46.839626|8174=0|8214=0|10=080|
20231006-09:59:46.000 : 8=FIX.4.2|9=380|35=8|34=32|49=FSX_SIT_EDP|52=20231006-09:59:46.840|56=RSIT_EDP_2|1=RSIT_EDP_ACCOUNT_2|6=0|11=16965863862580000029|14=0|17=1710233379084218368|20=0|31=0|32=0|37=1710233379077230592|38=10|39=8|40=1|44=0|47=P|54=1|55=1399|58=ERROR_20010064,Book is Closed|59=3|60=20231006-09:59:46.840|103=2|109=102|110=0|150=8|151=0|544=1|8060=3|8164=EDP|8169=20231006-09:59:46.840839|8174=0|8214=0|10=109|
20231006-09:59:46.000 : 8=FIX.4.2|9=379|35=8|34=33|49=FSX_SIT_EDP|52=20231006-09:59:46.841|56=RSIT_EDP_2|1=RSIT_EDP_ACCOUNT_2|6=0|11=16965863862046000033|14=0|17=1710233379096772608|20=0|31=0|32=0|37=1710233379094007808|38=1|39=8|40=1|44=0|47=P|54=1|55=1464|58=ERROR_20010064,Book is Closed|59=3|60=20231006-09:59:46.841|103=2|109=102|110=0|150=8|151=0|544=1|8060=3|8164=EDP|8169=20231006-09:59:46.841876|8174=0|8214=0|10=065|
20231006-09:59:46.000 : 8=FIX.4.2|9=161|35=D|34=53|49=RSIT_EDP_2|52=20231006-09:59:46.000|56=FSX_SIT_EDP|1=RSIT_EDP_ACCOUNT_2|11=16965863862047000052|38=1|40=1|54=1|55=1540|60=20231006-09:59:46.854546|10=220|
20231006-09:59:46.000 : 8=FIX.4.2|9=161|35=D|34=54|49=RSIT_EDP_2|52=20231006-09:59:46.000|56=FSX_SIT_EDP|1=RSIT_EDP_ACCOUNT_2|11=16965863862561000053|38=1|40=1|54=1|55=1542|60=20231006-09:59:46.860239|10=221|
20231006-09:59:46.000 : 8=FIX.4.2|9=161|35=D|34=55|49=RSIT_EDP_2|52=20231006-09:59:46.000|56=FSX_SIT_EDP|1=RSIT_EDP_ACCOUNT_2|11=16965863864380000054|38=1|40=1|54=1|55=1543|60=20231006-09:59:46.865999|10=243|
20231006-09:59:46.000 : 8=FIX.4.2|9=161|35=D|34=56|49=RSIT_EDP_2|52=20231006-09:59:46.000|56=FSX_SIT_EDP|1=RSIT_EDP_ACCOUNT_2|11=16965863865823000055|38=1|40=1|54=1|55=1545|60=20231006-09:59:46.870775|10=238|
20231006-09:59:46.000 : 8=FIX.4.2|9=161|35=D|34=57|49=RSIT_EDP_2|52=20231006-09:59:46.000|56=FSX_SIT_EDP|1=RSIT_EDP_ACCOUNT_2|11=16965863860652000056|38=1|40=1|54=1|55=1546|60=20231006-09:59:46.875841|10=235|
20231006-09:59:46.000 : 8=FIX.4.2|9=162|35=D|34=58|49=RSIT_EDP_2|52=20231006-09:59:46.000|56=FSX_SIT_EDP|1=RSIT_EDP_ACCOUNT_2|11=16965863860613000057|38=10|40=1|54=1|55=1547|60=20231006-09:59:46.881516|10=024|
20231006-09:59:46.000 : 8=FIX.4.2|9=162|35=D|34=59|49=RSIT_EDP_2|52=20231006-09:59:46.000|56=FSX_SIT_EDP|1=RSIT_EDP_ACCOUNT_2|11=16965863868036000058|38=10|40=1|54=1|55=1550|60=20231006-09:59:46.887134|10=029|
20231006-09:59:46.000 : 8=FIX.4.2|9=162|35=D|34=60|49=RSIT_EDP_2|52=20231006-09:59:46.000|56=FSX_SIT_EDP|1=RSIT_EDP_ACCOUNT_2|11=16965863864517000059|38=10|40=1|54=1|55=1551|60=20231006-09:59:46.891919|10=029|
20231006-09:59:46.000 : 8=FIX.4.2|9=162|35=D|34=61|49=RSIT_EDP_2|52=20231006-09:59:46.000|56=FSX_SIT_EDP|1=RSIT_EDP_ACCOUNT_2|11=16965863866732000060|38=10|40=1|54=1|55=1554|60=20231006-09:59:46.897536|10=027|
20231006-09:59:46.000 : 8=FIX.4.2|9=162|35=D|34=62|49=RSIT_EDP_2|52=20231006-09:59:46.000|56=FSX_SIT_EDP|1=RSIT_EDP_ACCOUNT_2|11=16965863867520000061|38=10|40=1|54=1|55=1555|60=20231006-09:59:46.903428|10=014|
20231006-09:59:46.000 : 8=FIX.4.2|9=380|35=8|34=34|49=FSX_SIT_EDP|52=20231006-09:59:46.843|56=RSIT_EDP_2|1=RSIT_EDP_ACCOUNT_2|6=0|11=16965863864782000034|14=0|17=1710233379100995584|20=0|31=0|32=0|37=1710233379094007809|38=10|39=8|40=1|44=0|47=P|54=1|55=1469|58=ERROR_20010064,Book is Closed|59=3|60=20231006-09:59:46.843|103=2|109=102|110=0|150=8|151=0|544=1|8060=3|8164=EDP|8169=20231006-09:59:46.843009|8174=0|8214=0|10=112|
20231006-09:59:46.000 : 8=FIX.4.2|9=161|35=D|34=63|49=RSIT_EDP_2|52=20231006-09:59:46.000|56=FSX_SIT_EDP|1=RSIT_EDP_ACCOUNT_2|11=16965863860361000062|38=1|40=1|54=1|55=1557|60=20231006-09:59:46.919143|10=222|
20231006-09:59:46.000 : 8=FIX.4.2|9=381|35=8|34=35|49=FSX_SIT_EDP|52=20231006-09:59:46.844|56=RSIT_EDP_2|1=RSIT_EDP_ACCOUNT_2|6=0|11=16965863868042000031|14=0|17=1710233379088412672|20=0|31=0|32=0|37=1710233379081424897|38=100|39=8|40=1|44=0|47=P|54=1|55=1417|58=ERROR_20010064,Book is Closed|59=3|60=20231006-09:59:46.844|103=2|109=102|110=0|150=8|151=0|544=1|8060=3|8164=EDP|8169=20231006-09:59:46.844094|8174=0|8214=0|10=155|
20231006-09:59:46.000 : 8=FIX.4.2|9=380|35=8|34=36|49=FSX_SIT_EDP|52=20231006-09:59:46.844|56=RSIT_EDP_2|1=RSIT_EDP_ACCOUNT_2|6=0|11=16965863862073000035|14=0|17=1710233379119644672|20=0|31=0|32=0|37=1710233379102396416|38=10|39=8|40=1|44=0|47=P|54=1|55=1473|58=ERROR_20010064,Book is Closed|59=3|60=20231006-09:59:46.844|103=2|109=102|110=0|150=8|151=0|544=1|8060=3|8164=EDP|8169=20231006-09:59:46.844875|8174=0|8214=0|10=109|
20231006-09:59:46.000 : 8=FIX.4.2|9=379|35=8|34=37|49=FSX_SIT_EDP|52=20231006-09:59:46.845|56=RSIT_EDP_2|1=RSIT_EDP_ACCOUNT_2|6=0|11=16965863860648000036|14=0|17=1710233379121938432|20=0|31=0|32=0|37=1710233379114979328|38=1|39=8|40=1|44=0|47=P|54=1|55=1474|58=ERROR_20010064,Book is Closed|59=3|60=20231006-09:59:46.845|103=2|109=102|110=0|150=8|151=0|544=1|8060=3|8164=EDP|8169=20231006-09:59:46.845594|8174=0|8214=0|10=084|
20231006-09:59:46.000 : 8=FIX.4.2|9=379|35=8|34=38|49=FSX_SIT_EDP|52=20231006-09:59:46.850|56=RSIT_EDP_2|1=RSIT_EDP_ACCOUNT_2|6=0|11=16965863866748000037|14=0|17=1710233379147104256|20=0|31=0|32=0|37=1710233379140145152|38=1|39=8|40=1|44=0|47=P|54=1|55=1479|58=ERROR_20010064,Book is Closed|59=3|60=20231006-09:59:46.850|103=2|109=102|110=0|150=8|151=0|544=1|8060=3|8164=EDP|8169=20231006-09:59:46.850677|8174=0|8214=0|10=064|
20231006-09:59:46.000 : 8=FIX.4.2|9=161|35=D|34=64|49=RSIT_EDP_2|52=20231006-09:59:46.000|56=FSX_SIT_EDP|1=RSIT_EDP_ACCOUNT_2|11=16965863865176000063|38=1|40=1|54=1|55=1566|60=20231006-09:59:46.925151|10=229|
20231006-09:59:46.000 : 8=FIX.4.2|9=379|35=8|34=39|49=FSX_SIT_EDP|52=20231006-09:59:46.853|56=RSIT_EDP_2|1=RSIT_EDP_ACCOUNT_2|6=0|11=16965863866843000038|14=0|17=1710233379155492864|20=0|31=0|32=0|37=1710233379152728064|38=1|39=8|40=1|44=0|47=P|54=1|55=1480|58=ERROR_20010064,Book is Closed|59=3|60=20231006-09:59:46.853|103=2|109=102|110=0|150=8|151=0|544=1|8060=3|8164=EDP|8169=20231006-09:59:46.853323|8174=0|8214=0|10=077|
20231006-09:59:46.000 : 8=FIX.4.2|9=380|35=8|34=40|49=FSX_SIT_EDP|52=20231006-09:59:46.857|56=RSIT_EDP_2|1=RSIT_EDP_ACCOUNT_2|6=0|11=16965863865467000039|14=0|17=1710233379174170624|20=0|31=0|32=0|37=1710233379165310976|38=10|39=8|40=1|44=0|47=P|54=1|55=1484|58=ERROR_20010064,Book is Closed|59=3|60=20231006-09:59:46.857|103=2|109=102|110=0|150=8|151=0|544=1|8060=3|8164=EDP|8169=20231006-09:59:46.857308|8174=0|8214=0|10=121|
20231006-09:59:46.000 : 8=FIX.4.2|9=162|35=D|34=65|49=RSIT_EDP_2|52=20231006-09:59:46.000|56=FSX_SIT_EDP|1=RSIT_EDP_ACCOUNT_2|11=16965863862685000064|38=10|40=1|54=1|55=1568|60=20231006-09:59:46.931808|10=034|
20231006-09:59:46.000 : 8=FIX.4.2|9=162|35=D|34=66|49=RSIT_EDP_2|52=20231006-09:59:46.000|56=FSX_SIT_EDP|1=RSIT_EDP_ACCOUNT_2|11=16965863862731000065|38=10|40=1|54=1|55=1569|60=20231006-09:59:46.939849|10=042|
20231006-09:59:46.000 : 8=FIX.4.2|9=161|35=D|34=67|49=RSIT_EDP_2|52=20231006-09:59:46.000|56=FSX_SIT_EDP|1=RSIT_EDP_ACCOUNT_2|11=16965863864268000066|38=1|40=1|54=1|55=1570|60=20231006-09:59:46.945713|10=237|
20231006-09:59:46.000 : 8=FIX.4.2|9=162|35=D|34=68|49=RSIT_EDP_2|52=20231006-09:59:46.000|56=FSX_SIT_EDP|1=RSIT_EDP_ACCOUNT_2|11=16965863861806000067|38=10|40=1|54=1|55=1573|60=20231006-09:59:46.954992|10=039|
20231006-09:59:46.000 : 8=FIX.4.2|9=161|35=D|34=69|49=RSIT_EDP_2|52=20231006-09:59:46.000|56=FSX_SIT_EDP|1=RSIT_EDP_ACCOUNT_2|11=16965863867431000068|38=1|40=1|54=1|55=1577|60=20231006-09:59:46.961587|10=250|
20231006-09:59:46.000 : 8=FIX.4.2|9=379|35=8|34=41|49=FSX_SIT_EDP|52=20231006-09:59:46.864|56=RSIT_EDP_2|1=RSIT_EDP_ACCOUNT_2|6=0|11=16965863860263000040|14=0|17=1710233379201658880|20=0|31=0|32=0|37=1710233379186282496|38=1|39=8|40=1|44=0|47=P|54=1|55=1485|58=ERROR_20010064,Book is Closed|59=3|60=20231006-09:59:46.864|103=2|109=102|110=0|150=8|151=0|544=1|8060=3|8164=EDP|8169=20231006-09:59:46.864054|8174=0|8214=0|10=070|
20231006-09:59:46.000 : 8=FIX.4.2|9=379|35=8|34=42|49=FSX_SIT_EDP|52=20231006-09:59:46.872|56=RSIT_EDP_2|1=RSIT_EDP_ACCOUNT_2|6=0|11=16965863864217000041|14=0|17=1710233379219070976|20=0|31=0|32=0|37=1710233379211448320|38=1|39=8|40=1|44=0|47=P|54=1|55=1486|58=ERROR_20010064,Book is Closed|59=3|60=20231006-09:59:46.871|103=2|109=102|110=0|150=8|151=0|544=1|8060=3|8164=EDP|8169=20231006-09:59:46.871903|8174=0|8214=0|10=056|
20231006-09:59:46.000 : 8=FIX.4.2|9=379|35=8|34=43|49=FSX_SIT_EDP|52=20231006-09:59:46.915|56=RSIT_EDP_2|1=RSIT_EDP_ACCOUNT_2|6=0|11=16965863863206000042|14=0|17=1710233379411345408|20=0|31=0|32=0|37=1710233379408580608|38=1|39=8|40=1|44=0|47=P|54=1|55=1487|58=ERROR_20010064,Book is Closed|59=3|60=20231006-09:59:46.915|103=2|109=102|110=0|150=8|151=0|544=1|8060=3|8164=EDP|8169=20231006-09:59:46.915168|8174=0|8214=0|10=058|
20231006-09:59:46.000 : 8=FIX.4.2|9=380|35=8|34=44|49=FSX_SIT_EDP|52=20231006-09:59:46.916|56=RSIT_EDP_2|1=RSIT_EDP_ACCOUNT_2|6=0|11=16965863866702000043|14=0|17=1710233379419734016|20=0|31=0|32=0|37=1710233379408580609|38=10|39=8|40=1|44=0|47=P|54=1|55=1488|58=ERROR_20010064,Book is Closed|59=3|60=20231006-09:59:46.916|103=2|109=102|110=0|150=8|151=0|544=1|8060=3|8164=EDP|8169=20231006-09:59:46.916566|8174=0|8214=0|10=116|
20231006-09:59:46.000 : 8=FIX.4.2|9=379|35=8|34=45|49=FSX_SIT_EDP|52=20231006-09:59:46.918|56=RSIT_EDP_2|1=RSIT_EDP_ACCOUNT_2|6=0|11=16965863865438000044|14=0|17=1710233379428122624|20=0|31=0|32=0|37=1710233379412774912|38=1|39=8|40=1|44=0|47=P|54=1|55=1489|58=ERROR_20010064,Book is Closed|59=3|60=20231006-09:59:46.917|103=2|109=102|110=0|150=8|151=0|544=1|8060=3|8164=EDP|8169=20231006-09:59:46.917852|8174=0|8214=0|10=079|
20231006-09:59:46.000 : 8=FIX.4.2|9=380|35=8|34=46|49=FSX_SIT_EDP|52=20231006-09:59:46.918|56=RSIT_EDP_2|1=RSIT_EDP_ACCOUNT_2|6=0|11=16965863867048000045|14=0|17=1710233379428122625|20=0|31=0|32=0|37=1710233379416969216|38=10|39=8|40=1|44=0|47=P|54=1|55=1490|58=ERROR_20010064,Book is Closed|59=3|60=20231006-09:59:46.918|103=2|109=102|110=0|150=8|151=0|544=1|8060=3|8164=EDP|8169=20231006-09:59:46.918634|8174=0|8214=0|10=120|
20231006-09:59:46.000 : 8=FIX.4.2|9=379|35=8|34=47|49=FSX_SIT_EDP|52=20231006-09:59:46.920|56=RSIT_EDP_2|1=RSIT_EDP_ACCOUNT_2|6=0|11=16965863862781000046|14=0|17=1710233379428122626|20=0|31=0|32=0|37=1710233379421163520|38=1|39=8|40=1|44=0|47=P|54=1|55=1492|58=ERROR_20010064,Book is Closed|59=3|60=20231006-09:59:46.920|103=2|109=102|110=0|150=8|151=0|544=1|8060=3|8164=EDP|8169=20231006-09:59:46.920154|8174=0|8214=0|10=040|
20231006-09:59:46.000 : 8=FIX.4.2|9=379|35=8|34=48|49=FSX_SIT_EDP|52=20231006-09:59:46.922|56=RSIT_EDP_2|1=RSIT_EDP_ACCOUNT_2|6=0|11=16965863864130000047|14=0|17=1710233379428786176|20=0|31=0|32=0|37=1710233379425357824|38=1|39=8|40=1|44=0|47=P|54=1|55=1493|58=ERROR_20010064,Book is Closed|59=3|60=20231006-09:59:46.922|103=2|109=102|110=0|150=8|151=0|544=1|8060=3|8164=EDP|8169=20231006-09:59:46.922308|8174=0|8214=0|10=072|
20231006-09:59:46.000 : 8=FIX.4.2|9=380|35=8|34=49|49=FSX_SIT_EDP|52=20231006-09:59:46.923|56=RSIT_EDP_2|1=RSIT_EDP_ACCOUNT_2|6=0|11=16965863866425000049|14=0|17=1710233379450994688|20=0|31=0|32=0|37=1710233379433746432|38=10|39=8|40=1|44=0|47=P|54=1|55=1495|58=ERROR_20010064,Book is Closed|59=3|60=20231006-09:59:46.923|103=2|109=102|110=0|150=8|151=0|544=1|8060=3|8164=EDP|8169=20231006-09:59:46.923524|8174=0|8214=0|10=129|
20231006-09:59:46.000 : 8=FIX.4.2|9=379|35=8|34=50|49=FSX_SIT_EDP|52=20231006-09:59:46.924|56=RSIT_EDP_2|1=RSIT_EDP_ACCOUNT_2|6=0|11=16965863862765000048|14=0|17=1710233379450994689|20=0|31=0|32=0|37=1710233379429552128|38=1|39=8|40=1|44=0|47=P|54=1|55=1494|58=ERROR_20010064,Book is Closed|59=3|60=20231006-09:59:46.924|103=2|109=102|110=0|150=8|151=0|544=1|8060=3|8164=EDP|8169=20231006-09:59:46.924664|8174=0|8214=0|10=093|
20231006-09:59:46.000 : 8=FIX.4.2|9=162|35=D|34=70|49=RSIT_EDP_2|52=20231006-09:59:46.000|56=FSX_SIT_EDP|1=RSIT_EDP_ACCOUNT_2|11=16965863867416000069|38=10|40=1|54=1|55=1579|60=20231006-09:59:46.976527|10=041|
20231006-09:59:46.000 : 8=FIX.4.2|9=162|35=D|34=71|49=RSIT_EDP_2|52=20231006-09:59:46.000|56=FSX_SIT_EDP|1=RSIT_EDP_ACCOUNT_2|11=16965863864035000070|38=10|40=1|54=1|55=1580|60=20231006-09:59:46.982375|10=018|
20231006-09:59:46.000 : 8=FIX.4.2|9=379|35=8|34=51|49=FSX_SIT_EDP|52=20231006-09:59:46.926|56=RSIT_EDP_2|1=RSIT_EDP_ACCOUNT_2|6=0|11=16965863861654000050|14=0|17=1710233379445563392|20=0|31=0|32=0|37=1710233379437940736|38=1|39=8|40=1|44=0|47=P|54=1|55=1498|58=ERROR_20010064,Book is Closed|59=3|60=20231006-09:59:46.926|103=2|109=102|110=0|150=8|151=0|544=1|8060=3|8164=EDP|8169=20231006-09:59:46.926604|8174=0|8214=0|10=079|
20231006-09:59:46.000 : 8=FIX.4.2|9=379|35=8|34=52|49=FSX_SIT_EDP|52=20231006-09:59:46.933|56=RSIT_EDP_2|1=RSIT_EDP_ACCOUNT_2|6=0|11=16965863862047000052|14=0|17=1710233379486842880|20=0|31=0|32=0|37=1710233379484078080|38=1|39=8|40=1|44=0|47=P|54=1|55=1540|58=ERROR_20010064,Book is Closed|59=3|60=20231006-09:59:46.933|103=2|109=102|110=0|150=8|151=0|544=1|8060=3|8164=EDP|8169=20231006-09:59:46.933049|8174=0|8214=0|10=067|
20231006-09:59:46.000 : 8=FIX.4.2|9=379|35=8|34=53|49=FSX_SIT_EDP|52=20231006-09:59:46.934|56=RSIT_EDP_2|1=RSIT_EDP_ACCOUNT_2|6=0|11=16965863864021000051|14=0|17=1710233379497132032|20=0|31=0|32=0|37=1710233379475689472|38=1|39=8|40=1|44=0|47=P|54=1|55=1499|58=ERROR_20010064,Book is Closed|59=3|60=20231006-09:59:46.934|103=2|109=102|110=0|150=8|151=0|544=1|8060=3|8164=EDP|8169=20231006-09:59:46.934185|8174=0|8214=0|10=074|
20231006-09:59:46.000 : 8=FIX.4.2|9=379|35=8|34=54|49=FSX_SIT_EDP|52=20231006-09:59:46.979|56=RSIT_EDP_2|1=RSIT_EDP_ACCOUNT_2|6=0|11=16965863865823000055|14=0|17=1710233379679780864|20=0|31=0|32=0|37=1710233379672821760|38=1|39=8|40=1|44=0|47=P|54=1|55=1545|58=ERROR_20010064,Book is Closed|59=3|60=20231006-09:59:46.979|103=2|109=102|110=0|150=8|151=0|544=1|8060=3|8164=EDP|8169=20231006-09:59:46.979501|8174=0|8214=0|10=112|
20231006-09:59:46.000 : 8=FIX.4.2|9=379|35=8|34=55|49=FSX_SIT_EDP|52=20231006-09:59:46.981|56=RSIT_EDP_2|1=RSIT_EDP_ACCOUNT_2|6=0|11=16965863864380000054|14=0|17=1710233379673292800|20=0|31=0|32=0|37=1710233379668627456|38=1|39=8|40=1|44=0|47=P|54=1|55=1543|58=ERROR_20010064,Book is Closed|59=3|60=20231006-09:59:46.981|103=2|109=102|110=0|150=8|151=0|544=1|8060=3|8164=EDP|8169=20231006-09:59:46.981675|8174=0|8214=0|10=091|
20231006-09:59:46.000 : 8=FIX.4.2|9=380|35=8|34=56|49=FSX_SIT_EDP|52=20231006-09:59:46.982|56=RSIT_EDP_2|1=RSIT_EDP_ACCOUNT_2|6=0|11=16965863860613000057|14=0|17=1710233379688169472|20=0|31=0|32=0|37=1710233379681210368|38=10|39=8|40=1|44=0|47=P|54=1|55=1547|58=ERROR_20010064,Book is Closed|59=3|60=20231006-09:59:46.982|103=2|109=102|110=0|150=8|151=0|544=1|8060=3|8164=EDP|8169=20231006-09:59:46.982637|8174=0|8214=0|10=134|
20231006-09:59:46.000 : 8=FIX.4.2|9=379|35=8|34=57|49=FSX_SIT_EDP|52=20231006-09:59:46.983|56=RSIT_EDP_2|1=RSIT_EDP_ACCOUNT_2|6=0|11=16965863860652000056|14=0|17=1710233379679780865|20=0|31=0|32=0|37=1710233379677016064|38=1|39=8|40=1|44=0|47=P|54=1|55=1546|58=ERROR_20010064,Book is Closed|59=3|60=20231006-09:59:46.983|103=2|109=102|110=0|150=8|151=0|544=1|8060=3|8164=EDP|8169=20231006-09:59:46.983496|8174=0|8214=0|10=109|
20231006-09:59:46.000 : 8=FIX.4.2|9=162|35=D|34=72|49=RSIT_EDP_2|52=20231006-09:59:46.000|56=FSX_SIT_EDP|1=RSIT_EDP_ACCOUNT_2|11=16965863868305000071|38=10|40=1|54=1|55=1585|60=20231006-09:59:46.987002|10=021|
20231006-09:59:46.000 : 8=FIX.4.2|9=379|35=8|34=58|49=FSX_SIT_EDP|52=20231006-09:59:46.984|56=RSIT_EDP_2|1=RSIT_EDP_ACCOUNT_2|6=0|11=16965863862561000053|14=0|17=1710233379672055808|20=0|31=0|32=0|37=1710233379664433152|38=1|39=8|40=1|44=0|47=P|54=1|55=1542|58=ERROR_20010064,Book is Closed|59=3|60=20231006-09:59:46.984|103=2|109=102|110=0|150=8|151=0|544=1|8060=3|8164=EDP|8169=20231006-09:59:46.984330|8174=0|8214=0|10=076|
20231006-09:59:46.000 : 8=FIX.4.2|9=380|35=8|34=59|49=FSX_SIT_EDP|52=20231006-09:59:46.985|56=RSIT_EDP_2|1=RSIT_EDP_ACCOUNT_2|6=0|11=16965863864517000059|14=0|17=1710233379697221632|20=0|31=0|32=0|37=1710233379689598976|38=10|39=8|40=1|44=0|47=P|54=1|55=1551|58=ERROR_20010064,Book is Closed|59=3|60=20231006-09:59:46.985|103=2|109=102|110=0|150=8|151=0|544=1|8060=3|8164=EDP|8169=20231006-09:59:46.985214|8174=0|8214=0|10=160|
20231006-09:59:46.000 : 8=FIX.4.2|9=380|35=8|34=60|49=FSX_SIT_EDP|52=20231006-09:59:46.986|56=RSIT_EDP_2|1=RSIT_EDP_ACCOUNT_2|6=0|11=16965863868036000058|14=0|17=1710233379692392448|20=0|31=0|32=0|37=1710233379685404672|38=10|39=8|40=1|44=0|47=P|54=1|55=1550|58=ERROR_20010064,Book is Closed|59=3|60=20231006-09:59:46.985|103=2|109=102|110=0|150=8|151=0|544=1|8060=3|8164=EDP|8169=20231006-09:59:46.985943|8174=0|8214=0|10=144|
20231006-09:59:46.000 : 8=FIX.4.2|9=380|35=8|34=61|49=FSX_SIT_EDP|52=20231006-09:59:46.986|56=RSIT_EDP_2|1=RSIT_EDP_ACCOUNT_2|6=0|11=16965863866732000060|14=0|17=1710233379700752384|20=0|31=0|32=0|37=1710233379693793280|38=10|39=8|40=1|44=0|47=P|54=1|55=1554|58=ERROR_20010064,Book is Closed|59=3|60=20231006-09:59:46.986|103=2|109=102|110=0|150=8|151=0|544=1|8060=3|8164=EDP|8169=20231006-09:59:46.986682|8174=0|8214=0|10=139|
20231006-09:59:46.000 : 8=FIX.4.2|9=161|35=D|34=73|49=RSIT_EDP_2|52=20231006-09:59:46.000|56=FSX_SIT_EDP|1=RSIT_EDP_ACCOUNT_2|11=16965863861584000072|38=1|40=1|54=1|55=1591|60=20231006-09:59:46.994053|10=233|
20231006-09:59:46.000 : 8=FIX.4.2|9=380|35=8|34=62|49=FSX_SIT_EDP|52=20231006-09:59:46.987|56=RSIT_EDP_2|1=RSIT_EDP_ACCOUNT_2|6=0|11=16965863867520000061|14=0|17=1710233379709169664|20=0|31=0|32=0|37=1710233379697987584|38=10|39=8|40=1|44=0|47=P|54=1|55=1555|58=ERROR_20010064,Book is Closed|59=3|60=20231006-09:59:46.987|103=2|109=102|110=0|150=8|151=0|544=1|8060=3|8164=EDP|8169=20231006-09:59:46.987387|8174=0|8214=0|10=171|
20231006-09:59:47.000 : 8=FIX.4.2|9=379|35=8|34=63|49=FSX_SIT_EDP|52=20231006-09:59:46.999|56=RSIT_EDP_2|1=RSIT_EDP_ACCOUNT_2|6=0|11=16965863860361000062|14=0|17=1710233379768524800|20=0|31=0|32=0|37=1710233379760902144|38=1|39=8|40=1|44=0|47=P|54=1|55=1557|58=ERROR_20010064,Book is Closed|59=3|60=20231006-09:59:46.999|103=2|109=102|110=0|150=8|151=0|544=1|8060=3|8164=EDP|8169=20231006-09:59:46.999179|8174=0|8214=0|10=101|
20231006-09:59:47.000 : 8=FIX.4.2|9=161|35=D|34=74|49=RSIT_EDP_2|52=20231006-09:59:47.000|56=FSX_SIT_EDP|1=RSIT_EDP_ACCOUNT_2|11=16965863872604000073|38=1|40=1|54=1|55=1593|60=20231006-09:59:47.003832|10=220|
20231006-09:59:47.000 : 8=FIX.4.2|9=162|35=D|34=75|49=RSIT_EDP_2|52=20231006-09:59:47.000|56=FSX_SIT_EDP|1=RSIT_EDP_ACCOUNT_2|11=16965863876743000074|38=10|40=1|54=1|55=1595|60=20231006-09:59:47.008362|10=028|
20231006-09:59:47.000 : 8=FIX.4.2|9=162|35=D|34=76|49=RSIT_EDP_2|52=20231006-09:59:47.000|56=FSX_SIT_EDP|1=RSIT_EDP_ACCOUNT_2|11=16965863878503000075|38=10|40=1|54=1|55=1596|60=20231006-09:59:47.022712|10=022|
20231006-09:59:47.000 : 8=FIX.4.2|9=162|35=D|34=77|49=RSIT_EDP_2|52=20231006-09:59:47.000|56=FSX_SIT_EDP|1=RSIT_EDP_ACCOUNT_2|11=16965863875471000076|38=10|40=1|54=1|55=1597|60=20231006-09:59:47.028856|10=041|
20231006-09:59:47.000 : 8=FIX.4.2|9=161|35=D|34=78|49=RSIT_EDP_2|52=20231006-09:59:47.000|56=FSX_SIT_EDP|1=RSIT_EDP_ACCOUNT_2|11=16965863875086000077|38=1|40=1|54=1|55=1599|60=20231006-09:59:47.034682|10=248|
20231006-09:59:47.000 : 8=FIX.4.2|9=380|35=8|34=64|49=FSX_SIT_EDP|52=20231006-09:59:47.043|56=RSIT_EDP_2|1=RSIT_EDP_ACCOUNT_2|6=0|11=16965863862685000064|14=0|17=1710233379952410624|20=0|31=0|32=0|37=1710233379949645824|38=10|39=8|40=1|44=0|47=P|54=1|55=1568|58=ERROR_20010064,Book is Closed|59=3|60=20231006-09:59:47.043|103=2|109=102|110=0|150=8|151=0|544=1|8060=3|8164=EDP|8169=20231006-09:59:47.043732|8174=0|8214=0|10=106|
20231006-09:59:47.000 : 8=FIX.4.2|9=163|35=D|34=79|49=RSIT_EDP_2|52=20231006-09:59:47.000|56=FSX_SIT_EDP|1=RSIT_EDP_ACCOUNT_2|11=16965863870761000078|38=100|40=1|54=1|55=1605|60=20231006-09:59:47.040884|10=076|
20231006-09:59:47.000 : 8=FIX.4.2|9=379|35=8|34=65|49=FSX_SIT_EDP|52=20231006-09:59:47.047|56=RSIT_EDP_2|1=RSIT_EDP_ACCOUNT_2|6=0|11=16965863864268000066|14=0|17=1710233379964993536|20=0|31=0|32=0|37=1710233379958034432|38=1|39=8|40=1|44=0|47=P|54=1|55=1570|58=ERROR_20010064,Book is Closed|59=3|60=20231006-09:59:47.046|103=2|109=102|110=0|150=8|151=0|544=1|8060=3|8164=EDP|8169=20231006-09:59:47.046992|8174=0|8214=0|10=087|
20231006-09:59:47.000 : 8=FIX.4.2|9=379|35=8|34=66|49=FSX_SIT_EDP|52=20231006-09:59:47.049|56=RSIT_EDP_2|1=RSIT_EDP_ACCOUNT_2|6=0|11=16965863865176000063|14=0|17=1710233379957268480|20=0|31=0|32=0|37=1710233379945451520|38=1|39=8|40=1|44=0|47=P|54=1|55=1566|58=ERROR_20010064,Book is Closed|59=3|60=20231006-09:59:47.049|103=2|109=102|110=0|150=8|151=0|544=1|8060=3|8164=EDP|8169=20231006-09:59:47.049045|8174=0|8214=0|10=078|
20231006-09:59:47.000 : 8=FIX.4.2|9=380|35=8|34=67|49=FSX_SIT_EDP|52=20231006-09:59:47.050|56=RSIT_EDP_2|1=RSIT_EDP_ACCOUNT_2|6=0|11=16965863862731000065|14=0|17=1710233379975282688|20=0|31=0|32=0|37=1710233379953840128|38=10|39=8|40=1|44=0|47=P|54=1|55=1569|58=ERROR_20010064,Book is Closed|59=3|60=20231006-09:59:47.050|103=2|109=102|110=0|150=8|151=0|544=1|8060=3|8164=EDP|8169=20231006-09:59:47.050020|8174=0|8214=0|10=098|
20231006-09:59:47.000 : 8=FIX.4.2|9=380|35=8|34=68|49=FSX_SIT_EDP|52=20231006-09:59:47.051|56=RSIT_EDP_2|1=RSIT_EDP_ACCOUNT_2|6=0|11=16965863861806000067|14=0|17=1710233379983671296|20=0|31=0|32=0|37=1710233379962228736|38=10|39=8|40=1|44=0|47=P|54=1|55=1573|58=ERROR_20010064,Book is Closed|59=3|60=20231006-09:59:47.051|103=2|109=102|110=0|150=8|151=0|544=1|8060=3|8164=EDP|8169=20231006-09:59:47.051058|8174=0|8214=0|10=113|
20231006-09:59:47.000 : 8=FIX.4.2|9=379|35=8|34=69|49=FSX_SIT_EDP|52=20231006-09:59:47.051|56=RSIT_EDP_2|1=RSIT_EDP_ACCOUNT_2|6=0|11=16965863867431000068|14=0|17=1710233379987865600|20=0|31=0|32=0|37=1710233379979005952|38=1|39=8|40=1|44=0|47=P|54=1|55=1577|58=ERROR_20010064,Book is Closed|59=3|60=20231006-09:59:47.051|103=2|109=102|110=0|150=8|151=0|544=1|8060=3|8164=EDP|8169=20231006-09:59:47.051796|8174=0|8214=0|10=087|
20231006-09:59:47.000 : 8=FIX.4.2|9=163|35=D|34=80|49=RSIT_EDP_2|52=20231006-09:59:47.000|56=FSX_SIT_EDP|1=RSIT_EDP_ACCOUNT_2|11=16965863875431000079|38=100|40=1|54=1|55=1615|60=20231006-09:59:47.056455|10=070|
20231006-09:59:47.000 : 8=FIX.4.2|9=380|35=8|34=70|49=FSX_SIT_EDP|52=20231006-09:59:47.062|56=RSIT_EDP_2|1=RSIT_EDP_ACCOUNT_2|6=0|11=16965863864035000070|14=0|17=1710233380034002945|20=0|31=0|32=0|37=1710233380029337600|38=10|39=8|40=1|44=0|47=P|54=1|55=1580|58=ERROR_20010064,Book is Closed|59=3|60=20231006-09:59:47.062|103=2|109=102|110=0|150=8|151=0|544=1|8060=3|8164=EDP|8169=20231006-09:59:47.062725|8174=0|8214=0|10=047|
20231006-09:59:47.000 : 8=FIX.4.2|9=380|35=8|34=71|49=FSX_SIT_EDP|52=20231006-09:59:47.065|56=RSIT_EDP_2|1=RSIT_EDP_ACCOUNT_2|6=0|11=16965863867416000069|14=0|17=1710233380034002944|20=0|31=0|32=0|37=1710233380025143296|38=10|39=8|40=1|44=0|47=P|54=1|55=1579|58=ERROR_20010064,Book is Closed|59=3|60=20231006-09:59:47.065|103=2|109=102|110=0|150=8|151=0|544=1|8060=3|8164=EDP|8169=20231006-09:59:47.065106|8174=0|8214=0|10=073|
20231006-09:59:47.000 : 8=FIX.4.2|9=380|35=8|34=72|49=FSX_SIT_EDP|52=20231006-09:59:47.068|56=RSIT_EDP_2|1=RSIT_EDP_ACCOUNT_2|6=0|11=16965863868305000071|14=0|17=1710233380063363072|20=0|31=0|32=0|37=1710233380041920512|38=10|39=8|40=1|44=0|47=P|54=1|55=1585|58=ERROR_20010064,Book is Closed|59=3|60=20231006-09:59:47.068|103=2|109=102|110=0|150=8|151=0|544=1|8060=3|8164=EDP|8169=20231006-09:59:47.068743|8174=0|8214=0|10=074|
20231006-09:59:47.000 : 8=FIX.4.2|9=161|35=D|34=81|49=RSIT_EDP_2|52=20231006-09:59:47.000|56=FSX_SIT_EDP|1=RSIT_EDP_ACCOUNT_2|11=16965863878137000080|38=1|40=1|54=1|55=1617|60=20231006-09:59:47.068435|10=230|
20231006-09:59:47.000 : 8=FIX.4.2|9=379|35=8|34=73|49=FSX_SIT_EDP|52=20231006-09:59:47.078|56=RSIT_EDP_2|1=RSIT_EDP_ACCOUNT_2|6=0|11=16965863861584000072|14=0|17=1710233380099211264|20=0|31=0|32=0|37=1710233380092252160|38=1|39=8|40=1|44=0|47=P|54=1|55=1591|58=ERROR_20010064,Book is Closed|59=3|60=20231006-09:59:47.077|103=2|109=102|110=0|150=8|151=0|544=1|8060=3|8164=EDP|8169=20231006-09:59:47.077909|8174=0|8214=0|10=047|
20231006-09:59:47.000 : 8=FIX.4.2|9=161|35=D|34=82|49=RSIT_EDP_2|52=20231006-09:59:47.000|56=FSX_SIT_EDP|1=RSIT_EDP_ACCOUNT_2|11=16965863876527000081|38=1|40=1|54=1|55=1618|60=20231006-09:59:47.074757|10=238|
20231006-09:59:47.000 : 8=FIX.4.2|9=161|35=D|34=83|49=RSIT_EDP_2|52=20231006-09:59:47.000|56=FSX_SIT_EDP|1=RSIT_EDP_ACCOUNT_2|11=16965863871240000082|38=1|40=1|54=1|55=1619|60=20231006-09:59:47.081618|10=222|
20231006-09:59:47.000 : 8=FIX.4.2|9=161|35=D|34=84|49=RSIT_EDP_2|52=20231006-09:59:47.000|56=FSX_SIT_EDP|1=RSIT_EDP_ACCOUNT_2|11=16965863876102000083|38=1|40=1|54=1|55=1620|60=20231006-09:59:47.087250|10=216|
20231006-09:59:47.000 : 8=FIX.4.2|9=161|35=D|34=85|49=RSIT_EDP_2|52=20231006-09:59:47.000|56=FSX_SIT_EDP|1=RSIT_EDP_ACCOUNT_2|11=16965863873547000084|38=1|40=1|54=1|55=1621|60=20231006-09:59:47.093748|10=238|
20231006-09:59:47.000 : 8=FIX.4.2|9=161|35=D|34=86|49=RSIT_EDP_2|52=20231006-09:59:47.000|56=FSX_SIT_EDP|1=RSIT_EDP_ACCOUNT_2|11=16965863874538000085|38=1|40=1|54=1|55=1622|60=20231006-09:59:47.099439|10=245|
20231006-09:59:47.000 : 8=FIX.4.2|9=161|35=D|34=87|49=RSIT_EDP_2|52=20231006-09:59:47.000|56=FSX_SIT_EDP|1=RSIT_EDP_ACCOUNT_2|11=16965863874261000086|38=1|40=1|54=1|55=1623|60=20231006-09:59:47.104785|10=232|
20231006-09:59:47.000 : 8=FIX.4.2|9=161|35=D|34=88|49=RSIT_EDP_2|52=20231006-09:59:47.000|56=FSX_SIT_EDP|1=RSIT_EDP_ACCOUNT_2|11=16965863871685000087|38=1|40=1|54=1|55=1624|60=20231006-09:59:47.110957|10=240|
20231006-09:59:47.000 : 8=FIX.4.2|9=380|35=8|34=74|49=FSX_SIT_EDP|52=20231006-09:59:47.124|56=RSIT_EDP_2|1=RSIT_EDP_ACCOUNT_2|6=0|11=16965863875471000076|14=0|17=1710233380289855488|20=0|31=0|32=0|37=1710233380280995840|38=10|39=8|40=1|44=0|47=P|54=1|55=1597|58=ERROR_20010064,Book is Closed|59=3|60=20231006-09:59:47.124|103=2|109=102|110=0|150=8|151=0|544=1|8060=3|8164=EDP|8169=20231006-09:59:47.124097|8174=0|8214=0|10=115|
20231006-09:59:47.000 : 8=FIX.4.2|9=379|35=8|34=75|49=FSX_SIT_EDP|52=20231006-09:59:47.125|56=RSIT_EDP_2|1=RSIT_EDP_ACCOUNT_2|6=0|11=16965863875086000077|14=0|17=1710233380289855489|20=0|31=0|32=0|37=1710233380285190144|38=1|39=8|40=1|44=0|47=P|54=1|55=1599|58=ERROR_20010064,Book is Closed|59=3|60=20231006-09:59:47.125|103=2|109=102|110=0|150=8|151=0|544=1|8060=3|8164=EDP|8169=20231006-09:59:47.125022|8174=0|8214=0|10=062|
20231006-09:59:47.000 : 8=FIX.4.2|9=379|35=8|34=76|49=FSX_SIT_EDP|52=20231006-09:59:47.126|56=RSIT_EDP_2|1=RSIT_EDP_ACCOUNT_2|6=0|11=16965863872604000073|14=0|17=1710233380277272576|20=0|31=0|32=0|37=1710233380268412928|38=1|39=8|40=1|44=0|47=P|54=1|55=1593|58=ERROR_20010064,Book is Closed|59=3|60=20231006-09:59:47.126|103=2|109=102|110=0|150=8|151=0|544=1|8060=3|8164=EDP|8169=20231006-09:59:47.126089|8174=0|8214=0|10=057|
20231006-09:59:47.000 : 8=FIX.4.2|9=161|35=D|34=89|49=RSIT_EDP_2|52=20231006-09:59:47.000|56=FSX_SIT_EDP|1=RSIT_EDP_ACCOUNT_2|11=16965863874610000088|38=1|40=1|54=1|55=1625|60=20231006-09:59:47.120404|10=222|
20231006-09:59:47.000 : 8=FIX.4.2|9=380|35=8|34=77|49=FSX_SIT_EDP|52=20231006-09:59:47.127|56=RSIT_EDP_2|1=RSIT_EDP_ACCOUNT_2|6=0|11=16965863878503000075|14=0|17=1710233380283789312|20=0|31=0|32=0|37=1710233380276801536|38=10|39=8|40=1|44=0|47=P|54=1|55=1596|58=ERROR_20010064,Book is Closed|59=3|60=20231006-09:59:47.126|103=2|109=102|110=0|150=8|151=0|544=1|8060=3|8164=EDP|8169=20231006-09:59:47.126929|8174=0|8214=0|10=105|
20231006-09:59:47.000 : 8=FIX.4.2|9=380|35=8|34=78|49=FSX_SIT_EDP|52=20231006-09:59:47.127|56=RSIT_EDP_2|1=RSIT_EDP_ACCOUNT_2|6=0|11=16965863876743000074|14=0|17=1710233380287983616|20=0|31=0|32=0|37=1710233380272607232|38=10|39=8|40=1|44=0|47=P|54=1|55=1595|58=ERROR_20010064,Book is Closed|59=3|60=20231006-09:59:47.127|103=2|109=102|110=0|150=8|151=0|544=1|8060=3|8164=EDP|8169=20231006-09:59:47.127728|8174=0|8214=0|10=107|
20231006-09:59:47.000 : 8=FIX.4.2|9=381|35=8|34=79|49=FSX_SIT_EDP|52=20231006-09:59:47.128|56=RSIT_EDP_2|1=RSIT_EDP_ACCOUNT_2|6=0|11=16965863870761000078|14=0|17=1710233380292812800|20=0|31=0|32=0|37=1710233380289384448|38=100|39=8|40=1|44=0|47=P|54=1|55=1605|58=ERROR_20010064,Book is Closed|59=3|60=20231006-09:59:47.128|103=2|109=102|110=0|150=8|151=0|544=1|8060=3|8164=EDP|8169=20231006-09:59:47.128819|8174=0|8214=0|10=152|
20231006-09:59:47.000 : 8=FIX.4.2|9=161|35=D|34=90|49=RSIT_EDP_2|52=20231006-09:59:47.000|56=FSX_SIT_EDP|1=RSIT_EDP_ACCOUNT_2|11=16965863871608000089|38=1|40=1|54=1|55=1626|60=20231006-09:59:47.142851|10=230|
20231006-09:59:47.000 : 8=FIX.4.2|9=161|35=D|34=91|49=RSIT_EDP_2|52=20231006-09:59:47.000|56=FSX_SIT_EDP|1=RSIT_EDP_ACCOUNT_2|11=16965863870325000090|38=1|40=1|54=1|55=1627|60=20231006-09:59:47.148667|10=230|
20231006-09:59:47.000 : 8=FIX.4.2|9=161|35=D|34=92|49=RSIT_EDP_2|52=20231006-09:59:47.000|56=FSX_SIT_EDP|1=RSIT_EDP_ACCOUNT_2|11=16965863870814000091|38=1|40=1|54=1|55=1628|60=20231006-09:59:47.154104|10=219|
20231006-09:59:47.000 : 8=FIX.4.2|9=161|35=D|34=93|49=RSIT_EDP_2|52=20231006-09:59:47.000|56=FSX_SIT_EDP|1=RSIT_EDP_ACCOUNT_2|11=16965863875182000092|38=1|40=1|54=1|55=1629|60=20231006-09:59:47.159738|10=243|
20231006-09:59:47.000 : 8=FIX.4.2|9=161|35=D|34=94|49=RSIT_EDP_2|52=20231006-09:59:47.000|56=FSX_SIT_EDP|1=RSIT_EDP_ACCOUNT_2|11=16965863877834000093|38=1|40=1|54=1|55=1630|60=20231006-09:59:47.164380|10=232|
20231006-09:59:47.000 : 8=FIX.4.2|9=161|35=D|34=95|49=RSIT_EDP_2|52=20231006-09:59:47.000|56=FSX_SIT_EDP|1=RSIT_EDP_ACCOUNT_2|11=16965863873406000094|38=1|40=1|54=1|55=1631|60=20231006-09:59:47.168752|10=233|
20231006-09:59:47.000 : 8=FIX.4.2|9=161|35=D|34=96|49=RSIT_EDP_2|52=20231006-09:59:47.000|56=FSX_SIT_EDP|1=RSIT_EDP_ACCOUNT_2|11=16965863872016000095|38=1|40=1|54=1|55=1632|60=20231006-09:59:47.174128|10=226|
20231006-09:59:47.000 : 8=FIX.4.2|9=161|35=D|34=97|49=RSIT_EDP_2|52=20231006-09:59:47.000|56=FSX_SIT_EDP|1=RSIT_EDP_ACCOUNT_2|11=16965863870714000096|38=1|40=1|54=1|55=1633|60=20231006-09:59:47.178735|10=240|
20231006-09:59:47.000 : 8=FIX.4.2|9=162|35=D|34=98|49=RSIT_EDP_2|52=20231006-09:59:47.000|56=FSX_SIT_EDP|1=RSIT_EDP_ACCOUNT_2|11=16965863873458000097|38=10|40=1|54=1|55=1651|60=20231006-09:59:47.184009|10=034|
20231006-09:59:47.000 : 8=FIX.4.2|9=162|35=D|34=99|49=RSIT_EDP_2|52=20231006-09:59:47.000|56=FSX_SIT_EDP|1=RSIT_EDP_ACCOUNT_2|11=16965863871375000098|38=10|40=1|54=1|55=1652|60=20231006-09:59:47.189950|10=043|
20231006-09:59:47.000 : 8=FIX.4.2|9=163|35=D|34=100|49=RSIT_EDP_2|52=20231006-09:59:47.000|56=FSX_SIT_EDP|1=RSIT_EDP_ACCOUNT_2|11=16965863870145000099|38=10|40=1|54=1|55=1653|60=20231006-09:59:47.196575|10=072|
20231006-09:59:47.000 : 8=FIX.4.2|9=163|35=D|34=101|49=RSIT_EDP_2|52=20231006-09:59:47.000|56=FSX_SIT_EDP|1=RSIT_EDP_ACCOUNT_2|11=16965863870453000100|38=10|40=1|54=1|55=1654|60=20231006-09:59:47.210786|10=050|
20231006-09:59:47.000 : 8=FIX.4.2|9=163|35=D|34=102|49=RSIT_EDP_2|52=20231006-09:59:47.000|56=FSX_SIT_EDP|1=RSIT_EDP_ACCOUNT_2|11=16965863876150000101|38=10|40=1|54=1|55=1655|60=20231006-09:59:47.218157|10=053|
20231006-09:59:47.000 : 8=FIX.4.2|9=163|35=D|34=103|49=RSIT_EDP_2|52=20231006-09:59:47.000|56=FSX_SIT_EDP|1=RSIT_EDP_ACCOUNT_2|11=16965863872618000102|38=10|40=1|54=1|55=1656|60=20231006-09:59:47.223675|10=062|
20231006-09:59:47.000 : 8=FIX.4.2|9=162|35=D|34=104|49=RSIT_EDP_2|52=20231006-09:59:47.000|56=FSX_SIT_EDP|1=RSIT_EDP_ACCOUNT_2|11=16965863877026000103|38=1|40=1|54=1|55=1660|60=20231006-09:59:47.229034|10=003|
20231006-09:59:47.000 : 8=FIX.4.2|9=162|35=D|34=105|49=RSIT_EDP_2|52=20231006-09:59:47.000|56=FSX_SIT_EDP|1=RSIT_EDP_ACCOUNT_2|11=16965863874628000104|38=1|40=1|54=1|55=1672|60=20231006-09:59:47.234715|10=015|
20231006-09:59:47.000 : 8=FIX.4.2|9=163|35=D|34=106|49=RSIT_EDP_2|52=20231006-09:59:47.000|56=FSX_SIT_EDP|1=RSIT_EDP_ACCOUNT_2|11=16965863870758000105|38=10|40=1|54=1|55=1673|60=20231006-09:59:47.240278|10=068|
20231006-09:59:47.000 : 8=FIX.4.2|9=162|35=D|34=107|49=RSIT_EDP_2|52=20231006-09:59:47.000|56=FSX_SIT_EDP|1=RSIT_EDP_ACCOUNT_2|11=16965863871025000106|38=1|40=1|54=1|55=1674|60=20231006-09:59:47.245873|10=016|
20231006-09:59:47.000 : 8=FIX.4.2|9=162|35=D|34=108|49=RSIT_EDP_2|52=20231006-09:59:47.000|56=FSX_SIT_EDP|1=RSIT_EDP_ACCOUNT_2|11=16965863870751000107|38=1|40=1|54=1|55=1675|60=20231006-09:59:47.251334|10=013|
20231006-09:59:47.000 : 8=FIX.4.2|9=162|35=D|34=109|49=RSIT_EDP_2|52=20231006-09:59:47.000|56=FSX_SIT_EDP|1=RSIT_EDP_ACCOUNT_2|11=16965863873504000108|38=1|40=1|54=1|55=1676|60=20231006-09:59:47.256985|10=032|
20231006-09:59:47.000 : 8=FIX.4.2|9=163|35=D|34=110|49=RSIT_EDP_2|52=20231006-09:59:47.000|56=FSX_SIT_EDP|1=RSIT_EDP_ACCOUNT_2|11=16965863871708000109|38=10|40=1|54=1|55=1677|60=20231006-09:59:47.262091|10=064|
20231006-09:59:47.000 : 8=FIX.4.2|9=164|35=D|34=111|49=RSIT_EDP_2|52=20231006-09:59:47.000|56=FSX_SIT_EDP|1=RSIT_EDP_ACCOUNT_2|11=16965863871628000110|38=100|40=1|54=1|55=1678|60=20231006-09:59:47.266780|10=117|
20231006-09:59:47.000 : 8=FIX.4.2|9=163|35=D|34=112|49=RSIT_EDP_2|52=20231006-09:59:47.000|56=FSX_SIT_EDP|1=RSIT_EDP_ACCOUNT_2|11=16965863878274000111|38=10|40=1|54=1|55=1679|60=20231006-09:59:47.272390|10=069|
20231006-09:59:47.000 : 8=FIX.4.2|9=163|35=D|34=113|49=RSIT_EDP_2|52=20231006-09:59:47.000|56=FSX_SIT_EDP|1=RSIT_EDP_ACCOUNT_2|11=16965863872705000112|38=10|40=1|54=1|55=1680|60=20231006-09:59:47.277910|10=059|
20231006-09:59:47.000 : 8=FIX.4.2|9=163|35=D|34=114|49=RSIT_EDP_2|52=20231006-09:59:47.000|56=FSX_SIT_EDP|1=RSIT_EDP_ACCOUNT_2|11=16965863870143000113|38=10|40=1|54=1|55=1681|60=20231006-09:59:47.283333|10=052|
20231006-09:59:47.000 : 8=FIX.4.2|9=164|35=D|34=115|49=RSIT_EDP_2|52=20231006-09:59:47.000|56=FSX_SIT_EDP|1=RSIT_EDP_ACCOUNT_2|11=16965863872106000114|38=100|40=1|54=1|55=1682|60=20231006-09:59:47.289005|10=107|
20231006-09:59:47.000 : 8=FIX.4.2|9=163|35=D|34=116|49=RSIT_EDP_2|52=20231006-09:59:47.000|56=FSX_SIT_EDP|1=RSIT_EDP_ACCOUNT_2|11=16965863870248000115|38=10|40=1|54=1|55=1684|60=20231006-09:59:47.294602|10=066|
20231006-09:59:47.000 : 8=FIX.4.2|9=163|35=D|34=117|49=RSIT_EDP_2|52=20231006-09:59:47.000|56=FSX_SIT_EDP|1=RSIT_EDP_ACCOUNT_2|11=16965863878310000116|38=10|40=1|54=1|55=1685|60=20231006-09:59:47.299189|10=082|
20231006-09:59:47.000 : 8=FIX.4.2|9=163|35=D|34=118|49=RSIT_EDP_2|52=20231006-09:59:47.000|56=FSX_SIT_EDP|1=RSIT_EDP_ACCOUNT_2|11=16965863871563000117|38=10|40=1|54=1|55=1686|60=20231006-09:59:47.304927|10=075|
20231006-09:59:47.000 : 8=FIX.4.2|9=163|35=D|34=119|49=RSIT_EDP_2|52=20231006-09:59:47.000|56=FSX_SIT_EDP|1=RSIT_EDP_ACCOUNT_2|11=16965863875046000118|38=10|40=1|54=1|55=1687|60=20231006-09:59:47.328315|10=075|
20231006-09:59:47.000 : 8=FIX.4.2|9=163|35=D|34=120|49=RSIT_EDP_2|52=20231006-09:59:47.000|56=FSX_SIT_EDP|1=RSIT_EDP_ACCOUNT_2|11=16965863874601000119|38=10|40=1|54=1|55=1688|60=20231006-09:59:47.334084|10=065|
20231006-09:59:47.000 : 8=FIX.4.2|9=163|35=D|34=121|49=RSIT_EDP_2|52=20231006-09:59:47.000|56=FSX_SIT_EDP|1=RSIT_EDP_ACCOUNT_2|11=16965863878173000120|38=10|40=1|54=1|55=1690|60=20231006-09:59:47.339656|10=069|
20231006-09:59:47.000 : 8=FIX.4.2|9=162|35=D|34=122|49=RSIT_EDP_2|52=20231006-09:59:47.000|56=FSX_SIT_EDP|1=RSIT_EDP_ACCOUNT_2|11=16965863871687000121|38=1|40=1|54=1|55=1691|60=20231006-09:59:47.345152|10=014|
20231006-09:59:47.000 : 8=FIX.4.2|9=164|35=D|34=123|49=RSIT_EDP_2|52=20231006-09:59:47.000|56=FSX_SIT_EDP|1=RSIT_EDP_ACCOUNT_2|11=16965863875321000122|38=100|40=1|54=1|55=1692|60=20231006-09:59:47.350715|10=105|
20231006-09:59:47.000 : 8=FIX.4.2|9=163|35=D|34=124|49=RSIT_EDP_2|52=20231006-09:59:47.000|56=FSX_SIT_EDP|1=RSIT_EDP_ACCOUNT_2|11=16965863876341000123|38=10|40=1|54=1|55=1693|60=20231006-09:59:47.356399|10=076|
20231006-09:59:47.000 : 8=FIX.4.2|9=163|35=D|34=125|49=RSIT_EDP_2|52=20231006-09:59:47.000|56=FSX_SIT_EDP|1=RSIT_EDP_ACCOUNT_2|11=16965863876287000124|38=10|40=1|54=1|55=1694|60=20231006-09:59:47.361973|10=082|
20231006-09:59:47.000 : 8=FIX.4.2|9=164|35=D|34=126|49=RSIT_EDP_2|52=20231006-09:59:47.000|56=FSX_SIT_EDP|1=RSIT_EDP_ACCOUNT_2|11=16965863877512000125|38=100|40=1|54=1|55=1695|60=20231006-09:59:47.367314|10=121|
20231006-09:59:47.000 : 8=FIX.4.2|9=164|35=D|34=127|49=RSIT_EDP_2|52=20231006-09:59:47.000|56=FSX_SIT_EDP|1=RSIT_EDP_ACCOUNT_2|11=16965863875370000126|38=100|40=1|54=1|55=1696|60=20231006-09:59:47.373276|10=128|
20231006-09:59:47.000 : 8=FIX.4.2|9=163|35=D|34=128|49=RSIT_EDP_2|52=20231006-09:59:47.000|56=FSX_SIT_EDP|1=RSIT_EDP_ACCOUNT_2|11=16965863873841000127|38=10|40=1|54=1|55=1697|60=20231006-09:59:47.378945|10=091|
20231006-09:59:47.000 : 8=FIX.4.2|9=379|35=8|34=80|49=FSX_SIT_EDP|52=20231006-09:59:47.387|56=RSIT_EDP_2|1=RSIT_EDP_ACCOUNT_2|6=0|11=16965863876102000083|14=0|17=1710233381391720448|20=0|31=0|32=0|37=1710233381384097792|38=1|39=8|40=1|44=0|47=P|54=1|55=1620|58=ERROR_20010064,Book is Closed|59=3|60=20231006-09:59:47.387|103=2|109=102|110=0|150=8|151=0|544=1|8060=3|8164=EDP|8169=20231006-09:59:47.387411|8174=0|8214=0|10=059|
20231006-09:59:47.000 : 8=FIX.4.2|9=379|35=8|34=81|49=FSX_SIT_EDP|52=20231006-09:59:47.388|56=RSIT_EDP_2|1=RSIT_EDP_ACCOUNT_2|6=0|11=16965863878137000080|14=0|17=1710233381397151744|20=0|31=0|32=0|37=1710233381371514880|38=1|39=8|40=1|44=0|47=P|54=1|55=1617|58=ERROR_20010064,Book is Closed|59=3|60=20231006-09:59:47.388|103=2|109=102|110=0|150=8|151=0|544=1|8060=3|8164=EDP|8169=20231006-09:59:47.388667|8174=0|8214=0|10=080|
20231006-09:59:47.000 : 8=FIX.4.2|9=381|35=8|34=82|49=FSX_SIT_EDP|52=20231006-09:59:47.389|56=RSIT_EDP_2|1=RSIT_EDP_ACCOUNT_2|6=0|11=16965863875431000079|14=0|17=1710233381380374528|20=0|31=0|32=0|37=1710233381367320576|38=100|39=8|40=1|44=0|47=P|54=1|55=1615|58=ERROR_20010064,Book is Closed|59=3|60=20231006-09:59:47.389|103=2|109=102|110=0|150=8|151=0|544=1|8060=3|8164=EDP|8169=20231006-09:59:47.389868|8174=0|8214=0|10=177|
20231006-09:59:47.000 : 8=FIX.4.2|9=379|35=8|34=83|49=FSX_SIT_EDP|52=20231006-09:59:47.390|56=RSIT_EDP_2|1=RSIT_EDP_ACCOUNT_2|6=0|11=16965863876527000081|14=0|17=1710233381383331840|20=0|31=0|32=0|37=1710233381375709184|38=1|39=8|40=1|44=0|47=P|54=1|55=1618|58=ERROR_20010064,Book is Closed|59=3|60=20231006-09:59:47.390|103=2|109=102|110=0|150=8|151=0|544=1|8060=3|8164=EDP|8169=20231006-09:59:47.390725|8174=0|8214=0|10=058|
20231006-09:59:47.000 : 8=FIX.4.2|9=163|35=D|34=129|49=RSIT_EDP_2|52=20231006-09:59:47.000|56=FSX_SIT_EDP|1=RSIT_EDP_ACCOUNT_2|11=16965863877562000128|38=10|40=1|54=1|55=1698|60=20231006-09:59:47.384882|10=095|
20231006-09:59:47.000 : 8=FIX.4.2|9=379|35=8|34=84|49=FSX_SIT_EDP|52=20231006-09:59:47.392|56=RSIT_EDP_2|1=RSIT_EDP_ACCOUNT_2|6=0|11=16965863874538000085|14=0|17=1710233381399445504|20=0|31=0|32=0|37=1710233381396680704|38=1|39=8|40=1|44=0|47=P|54=1|55=1622|58=ERROR_20010064,Book is Closed|59=3|60=20231006-09:59:47.392|103=2|109=102|110=0|150=8|151=0|544=1|8060=3|8164=EDP|8169=20231006-09:59:47.392584|8174=0|8214=0|10=076|
20231006-09:59:47.000 : 8=FIX.4.2|9=379|35=8|34=85|49=FSX_SIT_EDP|52=20231006-09:59:47.393|56=RSIT_EDP_2|1=RSIT_EDP_ACCOUNT_2|6=0|11=16965863871240000082|14=0|17=1710233381384568832|20=0|31=0|32=0|37=1710233381379903488|38=1|39=8|40=1|44=0|47=P|54=1|55=1619|58=ERROR_20010064,Book is Closed|59=3|60=20231006-09:59:47.393|103=2|109=102|110=0|150=8|151=0|544=1|8060=3|8164=EDP|8169=20231006-09:59:47.393517|8174=0|8214=0|10=078|
20231006-09:59:47.000 : 8=FIX.4.2|9=379|35=8|34=86|49=FSX_SIT_EDP|52=20231006-09:59:47.394|56=RSIT_EDP_2|1=RSIT_EDP_ACCOUNT_2|6=0|11=16965863873547000084|14=0|17=1710233381395279872|20=0|31=0|32=0|37=1710233381392486400|38=1|39=8|40=1|44=0|47=P|54=1|55=1621|58=ERROR_20010064,Book is Closed|59=3|60=20231006-09:59:47.394|103=2|109=102|110=0|150=8|151=0|544=1|8060=3|8164=EDP|8169=20231006-09:59:47.394637|8174=0|8214=0|10=082|
20231006-09:59:47.000 : 8=FIX.4.2|9=379|35=8|34=87|49=FSX_SIT_EDP|52=20231006-09:59:47.395|56=RSIT_EDP_2|1=RSIT_EDP_ACCOUNT_2|6=0|11=16965863874610000088|14=0|17=1710233381412028416|20=0|31=0|32=0|37=1710233381409263618|38=1|39=8|40=1|44=0|47=P|54=1|55=1625|58=ERROR_20010064,Book is Closed|59=3|60=20231006-09:59:47.395|103=2|109=102|110=0|150=8|151=0|544=1|8060=3|8164=EDP|8169=20231006-09:59:47.395612|8174=0|8214=0|10=058|
20231006-09:59:47.000 : 8=FIX.4.2|9=163|35=D|34=130|49=RSIT_EDP_2|52=20231006-09:59:47.000|56=FSX_SIT_EDP|1=RSIT_EDP_ACCOUNT_2|11=16965863876052000129|38=10|40=1|54=1|55=1699|60=20231006-09:59:47.390005|10=066|
20231006-09:59:47.000 : 8=FIX.4.2|9=379|35=8|34=88|49=FSX_SIT_EDP|52=20231006-09:59:47.396|56=RSIT_EDP_2|1=RSIT_EDP_ACCOUNT_2|6=0|11=16965863874261000086|14=0|17=1710233381413928960|20=0|31=0|32=0|37=1710233381409263617|38=1|39=8|40=1|44=0|47=P|54=1|55=1623|58=ERROR_20010064,Book is Closed|59=3|60=20231006-09:59:47.396|103=2|109=102|110=0|150=8|151=0|544=1|8060=3|8164=EDP|8169=20231006-09:59:47.396620|8174=0|8214=0|10=072|
20231006-09:59:47.000 : 8=FIX.4.2|9=379|35=8|34=89|49=FSX_SIT_EDP|52=20231006-09:59:47.397|56=RSIT_EDP_2|1=RSIT_EDP_ACCOUNT_2|6=0|11=16965863870325000090|14=0|17=1710233381424640001|20=0|31=0|32=0|37=1710233381417652224|38=1|39=8|40=1|44=0|47=P|54=1|55=1627|58=ERROR_20010064,Book is Closed|59=3|60=20231006-09:59:47.397|103=2|109=102|110=0|150=8|151=0|544=1|8060=3|8164=EDP|8169=20231006-09:59:47.397707|8174=0|8214=0|10=052|
20231006-09:59:47.000 : 8=FIX.4.2|9=164|35=D|34=131|49=RSIT_EDP_2|52=20231006-09:59:47.000|56=FSX_SIT_EDP|1=RSIT_EDP_ACCOUNT_2|11=16965863875410000130|38=100|40=1|54=1|55=1721|60=20231006-09:59:47.395421|10=098|
20231006-09:59:47.000 : 8=FIX.4.2|9=164|35=D|34=132|49=RSIT_EDP_2|52=20231006-09:59:47.000|56=FSX_SIT_EDP|1=RSIT_EDP_ACCOUNT_2|11=16965863871276000131|38=100|40=1|54=1|55=1801|60=20231006-09:59:47.401450|10=095|
20231006-09:59:47.000 : 8=FIX.4.2|9=164|35=D|34=133|49=RSIT_EDP_2|52=20231006-09:59:47.000|56=FSX_SIT_EDP|1=RSIT_EDP_ACCOUNT_2|11=16965863872135000132|38=100|40=1|54=1|55=1802|60=20231006-09:59:47.409399|10=113|
20231006-09:59:47.000 : 8=FIX.4.2|9=164|35=D|34=134|49=RSIT_EDP_2|52=20231006-09:59:47.000|56=FSX_SIT_EDP|1=RSIT_EDP_ACCOUNT_2|11=16965863870316000133|38=100|40=1|54=1|55=1803|60=20231006-09:59:47.416353|10=103|
20231006-09:59:47.000 : 8=FIX.4.2|9=164|35=D|34=135|49=RSIT_EDP_2|52=20231006-09:59:47.000|56=FSX_SIT_EDP|1=RSIT_EDP_ACCOUNT_2|11=16965863872781000134|38=100|40=1|54=1|55=1808|60=20231006-09:59:47.424093|10=118|
20231006-09:59:47.000 : 8=FIX.4.2|9=164|35=D|34=136|49=RSIT_EDP_2|52=20231006-09:59:47.000|56=FSX_SIT_EDP|1=RSIT_EDP_ACCOUNT_2|11=16965863878536000135|38=100|40=1|54=1|55=1812|60=20231006-09:59:47.429651|10=124|
20231006-09:59:47.000 : 8=FIX.4.2|9=164|35=D|34=137|49=RSIT_EDP_2|52=20231006-09:59:47.000|56=FSX_SIT_EDP|1=RSIT_EDP_ACCOUNT_2|11=16965863878517000136|38=100|40=1|54=1|55=1820|60=20231006-09:59:47.434631|10=118|
20231006-09:59:47.000 : 8=FIX.4.2|9=164|35=D|34=138|49=RSIT_EDP_2|52=20231006-09:59:47.000|56=FSX_SIT_EDP|1=RSIT_EDP_ACCOUNT_2|11=16965863873507000137|38=100|40=1|54=1|55=1860|60=20231006-09:59:47.443726|10=123|
20231006-09:59:47.000 : 8=FIX.4.2|9=164|35=D|34=139|49=RSIT_EDP_2|52=20231006-09:59:47.000|56=FSX_SIT_EDP|1=RSIT_EDP_ACCOUNT_2|11=16965863870472000138|38=100|40=1|54=1|55=1878|60=20231006-09:59:47.456267|10=136|
20231006-09:59:47.000 : 8=FIX.4.2|9=164|35=D|34=140|49=RSIT_EDP_2|52=20231006-09:59:47.000|56=FSX_SIT_EDP|1=RSIT_EDP_ACCOUNT_2|11=16965863874015000139|38=100|40=1|54=1|55=1893|60=20231006-09:59:47.462026|10=113|
20231006-09:59:47.000 : 8=FIX.4.2|9=164|35=D|34=141|49=RSIT_EDP_2|52=20231006-09:59:47.000|56=FSX_SIT_EDP|1=RSIT_EDP_ACCOUNT_2|11=16965863878216000140|38=100|40=1|54=1|55=1911|60=20231006-09:59:47.467666|10=119|
20231006-09:59:47.000 : 8=FIX.4.2|9=164|35=D|34=142|49=RSIT_EDP_2|52=20231006-09:59:47.000|56=FSX_SIT_EDP|1=RSIT_EDP_ACCOUNT_2|11=16965863877380000141|38=100|40=1|54=1|55=1925|60=20231006-09:59:47.474228|10=119|
20231006-09:59:47.000 : 8=FIX.4.2|9=164|35=D|34=143|49=RSIT_EDP_2|52=20231006-09:59:47.000|56=FSX_SIT_EDP|1=RSIT_EDP_ACCOUNT_2|11=16965863878642000142|38=100|40=1|54=1|55=1928|60=20231006-09:59:47.481193|10=125|
20231006-09:59:47.000 : 8=FIX.4.2|9=164|35=D|34=144|49=RSIT_EDP_2|52=20231006-09:59:47.000|56=FSX_SIT_EDP|1=RSIT_EDP_ACCOUNT_2|11=16965863875826000143|38=100|40=1|54=1|55=1944|60=20231006-09:59:47.487081|10=128|
20231006-09:59:47.000 : 8=FIX.4.2|9=164|35=D|34=145|49=RSIT_EDP_2|52=20231006-09:59:47.000|56=FSX_SIT_EDP|1=RSIT_EDP_ACCOUNT_2|11=16965863874670000144|38=100|40=1|54=1|55=1951|60=20231006-09:59:47.493488|10=132|
20231006-09:59:47.000 : 8=FIX.4.2|9=379|35=8|34=90|49=FSX_SIT_EDP|52=20231006-09:59:47.399|56=RSIT_EDP_2|1=RSIT_EDP_ACCOUNT_2|6=0|11=16965863871685000087|14=0|17=1710233381416251392|20=0|31=0|32=0|37=1710233381409263616|38=1|39=8|40=1|44=0|47=P|54=1|55=1624|58=ERROR_20010064,Book is Closed|59=3|60=20231006-09:59:47.399|103=2|109=102|110=0|150=8|151=0|544=1|8060=3|8164=EDP|8169=20231006-09:59:47.399151|8174=0|8214=0|10=072|
20231006-09:59:47.000 : 8=FIX.4.2|9=164|35=D|34=146|49=RSIT_EDP_2|52=20231006-09:59:47.000|56=FSX_SIT_EDP|1=RSIT_EDP_ACCOUNT_2|11=16965863878146000145|38=100|40=1|54=1|55=1959|60=20231006-09:59:47.500595|10=132|
20231006-09:59:47.000 : 8=FIX.4.2|9=379|35=8|34=91|49=FSX_SIT_EDP|52=20231006-09:59:47.400|56=RSIT_EDP_2|1=RSIT_EDP_ACCOUNT_2|6=0|11=16965863871608000089|14=0|17=1710233381424640000|20=0|31=0|32=0|37=1710233381413457920|38=1|39=8|40=1|44=0|47=P|54=1|55=1626|58=ERROR_20010064,Book is Closed|59=3|60=20231006-09:59:47.399|103=2|109=102|110=0|150=8|151=0|544=1|8060=3|8164=EDP|8169=20231006-09:59:47.399994|8174=0|8214=0|10=055|
20231006-09:59:47.000 : 8=FIX.4.2|9=379|35=8|34=92|49=FSX_SIT_EDP|52=20231006-09:59:47.401|56=RSIT_EDP_2|1=RSIT_EDP_ACCOUNT_2|6=0|11=16965863875182000092|14=0|17=1710233381447483393|20=0|31=0|32=0|37=1710233381430235137|38=1|39=8|40=1|44=0|47=P|54=1|55=1629|58=ERROR_20010064,Book is Closed|59=3|60=20231006-09:59:47.400|103=2|109=102|110=0|150=8|151=0|544=1|8060=3|8164=EDP|8169=20231006-09:59:47.400978|8174=0|8214=0|10=041|
20231006-09:59:47.000 : 8=FIX.4.2|9=379|35=8|34=93|49=FSX_SIT_EDP|52=20231006-09:59:47.403|56=RSIT_EDP_2|1=RSIT_EDP_ACCOUNT_2|6=0|11=16965863872016000095|14=0|17=1710233381445582848|20=0|31=0|32=0|37=1710233381442818048|38=1|39=8|40=1|44=0|47=P|54=1|55=1632|58=ERROR_20010064,Book is Closed|59=3|60=20231006-09:59:47.403|103=2|109=102|110=0|150=8|151=0|544=1|8060=3|8164=EDP|8169=20231006-09:59:47.403247|8174=0|8214=0|10=043|
20231006-09:59:47.000 : 8=FIX.4.2|9=379|35=8|34=94|49=FSX_SIT_EDP|52=20231006-09:59:47.404|56=RSIT_EDP_2|1=RSIT_EDP_ACCOUNT_2|6=0|11=16965863870814000091|14=0|17=1710233381437222912|20=0|31=0|32=0|37=1710233381430235136|38=1|39=8|40=1|44=0|47=P|54=1|55=1628|58=ERROR_20010064,Book is Closed|59=3|60=20231006-09:59:47.404|103=2|109=102|110=0|150=8|151=0|544=1|8060=3|8164=EDP|8169=20231006-09:59:47.404468|8174=0|8214=0|10=029|
20231006-09:59:47.000 : 8=FIX.4.2|9=379|35=8|34=95|49=FSX_SIT_EDP|52=20231006-09:59:47.405|56=RSIT_EDP_2|1=RSIT_EDP_ACCOUNT_2|6=0|11=16965863877834000093|14=0|17=1710233381446246400|20=0|31=0|32=0|37=1710233381434429440|38=1|39=8|40=1|44=0|47=P|54=1|55=1630|58=ERROR_20010064,Book is Closed|59=3|60=20231006-09:59:47.405|103=2|109=102|110=0|150=8|151=0|544=1|8060=3|8164=EDP|8169=20231006-09:59:47.405254|8174=0|8214=0|10=035|
20231006-09:59:47.000 : 8=FIX.4.2|9=379|35=8|34=96|49=FSX_SIT_EDP|52=20231006-09:59:47.406|56=RSIT_EDP_2|1=RSIT_EDP_ACCOUNT_2|6=0|11=16965863873406000094|14=0|17=1710233381447483392|20=0|31=0|32=0|37=1710233381438623744|38=1|39=8|40=1|44=0|47=P|54=1|55=1631|58=ERROR_20010064,Book is Closed|59=3|60=20231006-09:59:47.406|103=2|109=102|110=0|150=8|151=0|544=1|8060=3|8164=EDP|8169=20231006-09:59:47.406540|8174=0|8214=0|10=051|
20231006-09:59:47.000 : 8=FIX.4.2|9=380|35=8|34=97|49=FSX_SIT_EDP|52=20231006-09:59:47.407|56=RSIT_EDP_2|1=RSIT_EDP_ACCOUNT_2|6=0|11=16965863871375000098|14=0|17=1710233381463023616|20=0|31=0|32=0|37=1710233381455400960|38=10|39=8|40=1|44=0|47=P|54=1|55=1652|58=ERROR_20010064,Book is Closed|59=3|60=20231006-09:59:47.407|103=2|109=102|110=0|150=8|151=0|544=1|8060=3|8164=EDP|8169=20231006-09:59:47.407640|8174=0|8214=0|10=085|
20231006-09:59:47.000 : 8=FIX.4.2|9=380|35=8|34=98|49=FSX_SIT_EDP|52=20231006-09:59:47.408|56=RSIT_EDP_2|1=RSIT_EDP_ACCOUNT_2|6=0|11=16965863873458000097|14=0|17=1710233381458829313|20=0|31=0|32=0|37=1710233381451206657|38=10|39=8|40=1|44=0|47=P|54=1|55=1651|58=ERROR_20010064,Book is Closed|59=3|60=20231006-09:59:47.408|103=2|109=102|110=0|150=8|151=0|544=1|8060=3|8164=EDP|8169=20231006-09:59:47.408503|8174=0|8214=0|10=104|
20231006-09:59:47.000 : 8=FIX.4.2|9=379|35=8|34=99|49=FSX_SIT_EDP|52=20231006-09:59:47.409|56=RSIT_EDP_2|1=RSIT_EDP_ACCOUNT_2|6=0|11=16965863870714000096|14=0|17=1710233381458829312|20=0|31=0|32=0|37=1710233381451206656|38=1|39=8|40=1|44=0|47=P|54=1|55=1633|58=ERROR_20010064,Book is Closed|59=3|60=20231006-09:59:47.409|103=2|109=102|110=0|150=8|151=0|544=1|8060=3|8164=EDP|8169=20231006-09:59:47.409548|8174=0|8214=0|10=066|
20231006-09:59:47.000 : 8=FIX.4.2|9=164|35=D|34=147|49=RSIT_EDP_2|52=20231006-09:59:47.000|56=FSX_SIT_EDP|1=RSIT_EDP_ACCOUNT_2|11=16965863878047000146|38=100|40=1|54=1|55=1963|60=20231006-09:59:47.507222|10=123|
20231006-09:59:47.000 : 8=FIX.4.2|9=381|35=8|34=100|49=FSX_SIT_EDP|52=20231006-09:59:47.410|56=RSIT_EDP_2|1=RSIT_EDP_ACCOUNT_2|6=0|11=16965863870453000100|14=0|17=1710233381472649216|20=0|31=0|32=0|37=1710233381467983872|38=10|39=8|40=1|44=0|47=P|54=1|55=1654|58=ERROR_20010064,Book is Closed|59=3|60=20231006-09:59:47.410|103=2|109=102|110=0|150=8|151=0|544=1|8060=3|8164=EDP|8169=20231006-09:59:47.410472|8174=0|8214=0|10=117|
20231006-09:59:47.000 : 8=FIX.4.2|9=381|35=8|34=101|49=FSX_SIT_EDP|52=20231006-09:59:47.411|56=RSIT_EDP_2|1=RSIT_EDP_ACCOUNT_2|6=0|11=16965863870145000099|14=0|17=1710233381466583040|20=0|31=0|32=0|37=1710233381463789568|38=10|39=8|40=1|44=0|47=P|54=1|55=1653|58=ERROR_20010064,Book is Closed|59=3|60=20231006-09:59:47.411|103=2|109=102|110=0|150=8|151=0|544=1|8060=3|8164=EDP|8169=20231006-09:59:47.411316|8174=0|8214=0|10=129|
20231006-09:59:47.000 : 8=FIX.4.2|9=380|35=8|34=102|49=FSX_SIT_EDP|52=20231006-09:59:47.412|56=RSIT_EDP_2|1=RSIT_EDP_ACCOUNT_2|6=0|11=16965863877026000103|14=0|17=1710233381483331584|20=0|31=0|32=0|37=1710233381480566784|38=1|39=8|40=1|44=0|47=P|54=1|55=1660|58=ERROR_20010064,Book is Closed|59=3|60=20231006-09:59:47.412|103=2|109=102|110=0|150=8|151=0|544=1|8060=3|8164=EDP|8169=20231006-09:59:47.412214|8174=0|8214=0|10=065|
20231006-09:59:47.000 : 8=FIX.4.2|9=381|35=8|34=103|49=FSX_SIT_EDP|52=20231006-09:59:47.413|56=RSIT_EDP_2|1=RSIT_EDP_ACCOUNT_2|6=0|11=16965863872618000102|14=0|17=1710233381485232128|20=0|31=0|32=0|37=1710233381476372480|38=10|39=8|40=1|44=0|47=P|54=1|55=1656|58=ERROR_20010064,Book is Closed|59=3|60=20231006-09:59:47.413|103=2|109=102|110=0|150=8|151=0|544=1|8060=3|8164=EDP|8169=20231006-09:59:47.413126|8174=0|8214=0|10=115|
20231006-09:59:47.000 : 8=FIX.4.2|9=381|35=8|34=104|49=FSX_SIT_EDP|52=20231006-09:59:47.413|56=RSIT_EDP_2|1=RSIT_EDP_ACCOUNT_2|6=0|11=16965863876150000101|14=0|17=1710233381475606528|20=0|31=0|32=0|37=1710233381472178176|38=10|39=8|40=1|44=0|47=P|54=1|55=1655|58=ERROR_20010064,Book is Closed|59=3|60=20231006-09:59:47.413|103=2|109=102|110=0|150=8|151=0|544=1|8060=3|8164=EDP|8169=20231006-09:59:47.413762|8174=0|8214=0|10=125|
20231006-09:59:47.000 : 8=FIX.4.2|9=380|35=8|34=105|49=FSX_SIT_EDP|52=20231006-09:59:47.442|56=RSIT_EDP_2|1=RSIT_EDP_ACCOUNT_2|6=0|11=16965863874628000104|14=0|17=1710233381627838464|20=0|31=0|32=0|37=1710233381623173120|38=1|39=8|40=1|44=0|47=P|54=1|55=1672|58=ERROR_20010064,Book is Closed|59=3|60=20231006-09:59:47.442|103=2|109=102|110=0|150=8|151=0|544=1|8060=3|8164=EDP|8169=20231006-09:59:47.442201|8174=0|8214=0|10=068|
20231006-09:59:47.000 : 8=FIX.4.2|9=381|35=8|34=106|49=FSX_SIT_EDP|52=20231006-09:59:47.443|56=RSIT_EDP_2|1=RSIT_EDP_ACCOUNT_2|6=0|11=16965863870758000105|14=0|17=1710233381630132224|20=0|31=0|32=0|37=1710233381627367424|38=10|39=8|40=1|44=0|47=P|54=1|55=1673|58=ERROR_20010064,Book is Closed|59=3|60=20231006-09:59:47.443|103=2|109=102|110=0|150=8|151=0|544=1|8060=3|8164=EDP|8169=20231006-09:59:47.443737|8174=0|8214=0|10=128|
20231006-09:59:47.000 : 8=FIX.4.2|9=380|35=8|34=107|49=FSX_SIT_EDP|52=20231006-09:59:47.446|56=RSIT_EDP_2|1=RSIT_EDP_ACCOUNT_2|6=0|11=16965863871025000106|14=0|17=1710233381634326528|20=0|31=0|32=0|37=1710233381631561728|38=1|39=8|40=1|44=0|47=P|54=1|55=1674|58=ERROR_20010064,Book is Closed|59=3|60=20231006-09:59:47.446|103=2|109=102|110=0|150=8|151=0|544=1|8060=3|8164=EDP|8169=20231006-09:59:47.446577|8174=0|8214=0|10=095|
20231006-09:59:47.000 : 8=FIX.4.2|9=382|35=8|34=108|49=FSX_SIT_EDP|52=20231006-09:59:47.448|56=RSIT_EDP_2|1=RSIT_EDP_ACCOUNT_2|6=0|11=16965863871628000110|14=0|17=1710233381651132416|20=0|31=0|32=0|37=1710233381648338944|38=100|39=8|40=1|44=0|47=P|54=1|55=1678|58=ERROR_20010064,Book is Closed|59=3|60=20231006-09:59:47.448|103=2|109=102|110=0|150=8|151=0|544=1|8060=3|8164=EDP|8169=20231006-09:59:47.448217|8174=0|8214=0|10=199|
20231006-09:59:47.000 : 8=FIX.4.2|9=381|35=8|34=109|49=FSX_SIT_EDP|52=20231006-09:59:47.449|56=RSIT_EDP_2|1=RSIT_EDP_ACCOUNT_2|6=0|11=16965863871708000109|14=0|17=1710233381651767296|20=0|31=0|32=0|37=1710233381644144640|38=10|39=8|40=1|44=0|47=P|54=1|55=1677|58=ERROR_20010064,Book is Closed|59=3|60=20231006-09:59:47.449|103=2|109=102|110=0|150=8|151=0|544=1|8060=3|8164=EDP|8169=20231006-09:59:47.449278|8174=0|8214=0|10=171|
20231006-09:59:47.000 : 8=FIX.4.2|9=380|35=8|34=110|49=FSX_SIT_EDP|52=20231006-09:59:47.450|56=RSIT_EDP_2|1=RSIT_EDP_ACCOUNT_2|6=0|11=16965863870751000107|14=0|17=1710233381639184384|20=0|31=0|32=0|37=1710233381635756032|38=1|39=8|40=1|44=0|47=P|54=1|55=1675|58=ERROR_20010064,Book is Closed|59=3|60=20231006-09:59:47.449|103=2|109=102|110=0|150=8|151=0|544=1|8060=3|8164=EDP|8169=20231006-09:59:47.449986|8174=0|8214=0|10=106|
20231006-09:59:47.000 : 8=FIX.4.2|9=380|35=8|34=111|49=FSX_SIT_EDP|52=20231006-09:59:47.450|56=RSIT_EDP_2|1=RSIT_EDP_ACCOUNT_2|6=0|11=16965863873504000108|14=0|17=1710233381657198592|20=0|31=0|32=0|37=1710233381639950336|38=1|39=8|40=1|44=0|47=P|54=1|55=1676|58=ERROR_20010064,Book is Closed|59=3|60=20231006-09:59:47.450|103=2|109=102|110=0|150=8|151=0|544=1|8060=3|8164=EDP|8169=20231006-09:59:47.450855|8174=0|8214=0|10=100|
20231006-09:59:47.000 : 8=FIX.4.2|9=381|35=8|34=112|49=FSX_SIT_EDP|52=20231006-09:59:47.451|56=RSIT_EDP_2|1=RSIT_EDP_ACCOUNT_2|6=0|11=16965863878274000111|14=0|17=1710233381655961600|20=0|31=0|32=0|37=1710233381648338945|38=10|39=8|40=1|44=0|47=P|54=1|55=1679|58=ERROR_20010064,Book is Closed|59=3|60=20231006-09:59:47.451|103=2|109=102|110=0|150=8|151=0|544=1|8060=3|8164=EDP|8169=20231006-09:59:47.451696|8174=0|8214=0|10=154|
20231006-09:59:47.000 : 8=FIX.4.2|9=381|35=8|34=113|49=FSX_SIT_EDP|52=20231006-09:59:47.452|56=RSIT_EDP_2|1=RSIT_EDP_ACCOUNT_2|6=0|11=16965863870143000113|14=0|17=1710233381663686656|20=0|31=0|32=0|37=1710233381656727552|38=10|39=8|40=1|44=0|47=P|54=1|55=1681|58=ERROR_20010064,Book is Closed|59=3|60=20231006-09:59:47.452|103=2|109=102|110=0|150=8|151=0|544=1|8060=3|8164=EDP|8169=20231006-09:59:47.452645|8174=0|8214=0|10=143|
20231006-09:59:47.000 : 8=FIX.4.2|9=381|35=8|34=114|49=FSX_SIT_EDP|52=20231006-09:59:47.454|56=RSIT_EDP_2|1=RSIT_EDP_ACCOUNT_2|6=0|11=16965863871563000117|14=0|17=1710233381680463872|20=0|31=0|32=0|37=1710233381673504768|38=10|39=8|40=1|44=0|47=P|54=1|55=1686|58=ERROR_20010064,Book is Closed|59=3|60=20231006-09:59:47.454|103=2|109=102|110=0|150=8|151=0|544=1|8060=3|8164=EDP|8169=20231006-09:59:47.454106|8174=0|8214=0|10=151|
20231006-09:59:47.000 : 8=FIX.4.2|9=381|35=8|34=115|49=FSX_SIT_EDP|52=20231006-09:59:47.455|56=RSIT_EDP_2|1=RSIT_EDP_ACCOUNT_2|6=0|11=16965863872705000112|14=0|17=1710233381669781504|20=0|31=0|32=0|37=1710233381652533248|38=10|39=8|40=1|44=0|47=P|54=1|55=1680|58=ERROR_20010064,Book is Closed|59=3|60=20231006-09:59:47.454|103=2|109=102|110=0|150=8|151=0|544=1|8060=3|8164=EDP|8169=20231006-09:59:47.454994|8174=0|8214=0|10=150|
20231006-09:59:47.000 : 8=FIX.4.2|9=164|35=D|34=148|49=RSIT_EDP_2|52=20231006-09:59:47.000|56=FSX_SIT_EDP|1=RSIT_EDP_ACCOUNT_2|11=16965863875370000147|38=100|40=1|54=1|55=2002|60=20231006-09:59:47.513301|10=101|
20231006-09:59:47.000 : 8=FIX.4.2|9=382|35=8|34=116|49=FSX_SIT_EDP|52=20231006-09:59:47.456|56=RSIT_EDP_2|1=RSIT_EDP_ACCOUNT_2|6=0|11=16965863872106000114|14=0|17=1710233381667909632|20=0|31=0|32=0|37=1710233381660921856|38=100|39=8|40=1|44=0|47=P|54=1|55=1682|58=ERROR_20010064,Book is Closed|59=3|60=20231006-09:59:47.456|103=2|109=102|110=0|150=8|151=0|544=1|8060=3|8164=EDP|8169=20231006-09:59:47.456707|8174=0|8214=0|10=203|
20231006-09:59:47.000 : 8=FIX.4.2|9=381|35=8|34=117|49=FSX_SIT_EDP|52=20231006-09:59:47.457|56=RSIT_EDP_2|1=RSIT_EDP_ACCOUNT_2|6=0|11=16965863870248000115|14=0|17=1710233381668544512|20=0|31=0|32=0|37=1710233381665116160|38=10|39=8|40=1|44=0|47=P|54=1|55=1684|58=ERROR_20010064,Book is Closed|59=3|60=20231006-09:59:47.457|103=2|109=102|110=0|150=8|151=0|544=1|8060=3|8164=EDP|8169=20231006-09:59:47.457449|8174=0|8214=0|10=151|
20231006-09:59:47.000 : 8=FIX.4.2|9=381|35=8|34=118|49=FSX_SIT_EDP|52=20231006-09:59:47.458|56=RSIT_EDP_2|1=RSIT_EDP_ACCOUNT_2|6=0|11=16965863878310000116|14=0|17=1710233381676933120|20=0|31=0|32=0|37=1710233381669310464|38=10|39=8|40=1|44=0|47=P|54=1|55=1685|58=ERROR_20010064,Book is Closed|59=3|60=20231006-09:59:47.458|103=2|109=102|110=0|150=8|151=0|544=1|8060=3|8164=EDP|8169=20231006-09:59:47.458091|8174=0|8214=0|10=151|
20231006-09:59:47.000 : 8=FIX.4.2|9=382|35=8|34=119|49=FSX_SIT_EDP|52=20231006-09:59:47.506|56=RSIT_EDP_2|1=RSIT_EDP_ACCOUNT_2|6=0|11=16965863875321000122|14=0|17=1710233381894402048|20=0|31=0|32=0|37=1710233381887414272|38=100|39=8|40=1|44=0|47=P|54=1|55=1692|58=ERROR_20010064,Book is Closed|59=3|60=20231006-09:59:47.506|103=2|109=102|110=0|150=8|151=0|544=1|8060=3|8164=EDP|8169=20231006-09:59:47.506182|8174=0|8214=0|10=184|
20231006-09:59:47.000 : 8=FIX.4.2|9=380|35=8|34=120|49=FSX_SIT_EDP|52=20231006-09:59:47.507|56=RSIT_EDP_2|1=RSIT_EDP_ACCOUNT_2|6=0|11=16965863871687000121|14=0|17=1710233381890179072|20=0|31=0|32=0|37=1710233381883219969|38=1|39=8|40=1|44=0|47=P|54=1|55=1691|58=ERROR_20010064,Book is Closed|59=3|60=20231006-09:59:47.507|103=2|109=102|110=0|150=8|151=0|544=1|8060=3|8164=EDP|8169=20231006-09:59:47.507194|8174=0|8214=0|10=109|
20231006-09:59:47.000 : 8=FIX.4.2|9=381|35=8|34=121|49=FSX_SIT_EDP|52=20231006-09:59:47.508|56=RSIT_EDP_2|1=RSIT_EDP_ACCOUNT_2|6=0|11=16965863878173000120|14=0|17=1710233381890179073|20=0|31=0|32=0|37=1710233381883219970|38=10|39=8|40=1|44=0|47=P|54=1|55=1690|58=ERROR_20010064,Book is Closed|59=3|60=20231006-09:59:47.508|103=2|109=102|110=0|150=8|151=0|544=1|8060=3|8164=EDP|8169=20231006-09:59:47.508117|8174=0|8214=0|10=145|
20231006-09:59:47.000 : 8=FIX.4.2|9=381|35=8|34=122|49=FSX_SIT_EDP|52=20231006-09:59:47.509|56=RSIT_EDP_2|1=RSIT_EDP_ACCOUNT_2|6=0|11=16965863874601000119|14=0|17=1710233381894373376|20=0|31=0|32=0|37=1710233381883219971|38=10|39=8|40=1|44=0|47=P|54=1|55=1688|58=ERROR_20010064,Book is Closed|59=3|60=20231006-09:59:47.508|103=2|109=102|110=0|150=8|151=0|544=1|8060=3|8164=EDP|8169=20231006-09:59:47.508928|8174=0|8214=0|10=171|
20231006-09:59:47.000 : 8=FIX.4.2|9=381|35=8|34=123|49=FSX_SIT_EDP|52=20231006-09:59:47.509|56=RSIT_EDP_2|1=RSIT_EDP_ACCOUNT_2|6=0|11=16965863875046000118|14=0|17=1710233381892079616|20=0|31=0|32=0|37=1710233381883219968|38=10|39=8|40=1|44=0|47=P|54=1|55=1687|58=ERROR_20010064,Book is Closed|59=3|60=20231006-09:59:47.509|103=2|109=102|110=0|150=8|151=0|544=1|8060=3|8164=EDP|8169=20231006-09:59:47.509705|8174=0|8214=0|10=173|
20231006-09:59:47.000 : 8=FIX.4.2|9=162|35=D|34=149|49=RSIT_EDP_2|52=20231006-09:59:47.000|56=FSX_SIT_EDP|1=RSIT_EDP_ACCOUNT_2|11=16965863871475000148|38=1|40=1|54=1|55=2033|60=20231006-09:59:47.519568|10=032|
20231006-09:59:47.000 : 8=FIX.4.2|9=162|35=D|34=150|49=RSIT_EDP_2|52=20231006-09:59:47.000|56=FSX_SIT_EDP|1=RSIT_EDP_ACCOUNT_2|11=16965863871624000149|38=1|40=1|54=1|55=2034|60=20231006-09:59:47.525216|10=009|
20231006-09:59:47.000 : 8=FIX.4.2|9=162|35=D|34=151|49=RSIT_EDP_2|52=20231006-09:59:47.000|56=FSX_SIT_EDP|1=RSIT_EDP_ACCOUNT_2|11=16965863874516000150|38=1|40=1|54=1|55=2036|60=20231006-09:59:47.531037|10=005|
20231006-09:59:47.000 : 8=FIX.4.2|9=162|35=D|34=152|49=RSIT_EDP_2|52=20231006-09:59:47.000|56=FSX_SIT_EDP|1=RSIT_EDP_ACCOUNT_2|11=16965863877521000151|38=1|40=1|54=1|55=2040|60=20231006-09:59:47.536748|10=015|
20231006-09:59:47.000 : 8=FIX.4.2|9=162|35=D|34=153|49=RSIT_EDP_2|52=20231006-09:59:47.000|56=FSX_SIT_EDP|1=RSIT_EDP_ACCOUNT_2|11=16965863878504000152|38=1|40=1|54=1|55=2042|60=20231006-09:59:47.542664|10=015|
20231006-09:59:47.000 : 8=FIX.4.2|9=162|35=D|34=154|49=RSIT_EDP_2|52=20231006-09:59:47.000|56=FSX_SIT_EDP|1=RSIT_EDP_ACCOUNT_2|11=16965863870467000153|38=1|40=1|54=1|55=2043|60=20231006-09:59:47.548346|10=021|
20231006-09:59:47.000 : 8=FIX.4.2|9=162|35=D|34=155|49=RSIT_EDP_2|52=20231006-09:59:47.000|56=FSX_SIT_EDP|1=RSIT_EDP_ACCOUNT_2|11=16965863878547000154|38=1|40=1|54=1|55=2044|60=20231006-09:59:47.553604|10=024|
20231006-09:59:47.000 : 8=FIX.4.2|9=162|35=D|34=156|49=RSIT_EDP_2|52=20231006-09:59:47.000|56=FSX_SIT_EDP|1=RSIT_EDP_ACCOUNT_2|11=16965863873045000155|38=1|40=1|54=1|55=2045|60=20231006-09:59:47.559074|10=022|
20231006-09:59:47.000 : 8=FIX.4.2|9=162|35=D|34=157|49=RSIT_EDP_2|52=20231006-09:59:47.000|56=FSX_SIT_EDP|1=RSIT_EDP_ACCOUNT_2|11=16965863873160000156|38=1|40=1|54=1|55=2046|60=20231006-09:59:47.564468|10=026|
20231006-09:59:47.000 : 8=FIX.4.2|9=162|35=D|34=158|49=RSIT_EDP_2|52=20231006-09:59:47.000|56=FSX_SIT_EDP|1=RSIT_EDP_ACCOUNT_2|11=16965863873678000157|38=1|40=1|54=1|55=2048|60=20231006-09:59:47.569888|10=055|
20231006-09:59:47.000 : 8=FIX.4.2|9=162|35=D|34=159|49=RSIT_EDP_2|52=20231006-09:59:47.000|56=FSX_SIT_EDP|1=RSIT_EDP_ACCOUNT_2|11=16965863872134000158|38=1|40=1|54=1|55=2050|60=20231006-09:59:47.575311|10=014|
20231006-09:59:47.000 : 8=FIX.4.2|9=162|35=D|34=160|49=RSIT_EDP_2|52=20231006-09:59:47.000|56=FSX_SIT_EDP|1=RSIT_EDP_ACCOUNT_2|11=16965863877610000159|38=1|40=1|54=1|55=2065|60=20231006-09:59:47.580767|10=028|
20231006-09:59:47.000 : 8=FIX.4.2|9=162|35=D|34=161|49=RSIT_EDP_2|52=20231006-09:59:47.000|56=FSX_SIT_EDP|1=RSIT_EDP_ACCOUNT_2|11=16965863875236000160|38=1|40=1|54=1|55=2066|60=20231006-09:59:47.586195|10=025|
20231006-09:59:47.000 : 8=FIX.4.2|9=162|35=D|34=162|49=RSIT_EDP_2|52=20231006-09:59:47.000|56=FSX_SIT_EDP|1=RSIT_EDP_ACCOUNT_2|11=16965863870523000161|38=1|40=1|54=1|55=2067|60=20231006-09:59:47.591500|10=008|
20231006-09:59:47.000 : 8=FIX.4.2|9=162|35=D|34=163|49=RSIT_EDP_2|52=20231006-09:59:47.000|56=FSX_SIT_EDP|1=RSIT_EDP_ACCOUNT_2|11=16965863875031000162|38=1|40=1|54=1|55=2068|60=20231006-09:59:47.596221|10=015|
20231006-09:59:47.000 : 8=FIX.4.2|9=162|35=D|34=164|49=RSIT_EDP_2|52=20231006-09:59:47.000|56=FSX_SIT_EDP|1=RSIT_EDP_ACCOUNT_2|11=16965863878607000163|38=1|40=1|54=1|55=2069|60=20231006-09:59:47.602232|10=020|
20231006-09:59:47.000 : 8=FIX.4.2|9=162|35=D|34=165|49=RSIT_EDP_2|52=20231006-09:59:47.000|56=FSX_SIT_EDP|1=RSIT_EDP_ACCOUNT_2|11=16965863877560000164|38=1|40=1|54=1|55=2070|60=20231006-09:59:47.616149|10=023|
20231006-09:59:47.000 : 8=FIX.4.2|9=162|35=D|34=166|49=RSIT_EDP_2|52=20231006-09:59:47.000|56=FSX_SIT_EDP|1=RSIT_EDP_ACCOUNT_2|11=16965863877582000165|38=1|40=1|54=1|55=2071|60=20231006-09:59:47.627185|10=032|
20231006-09:59:47.000 : 8=FIX.4.2|9=162|35=D|34=167|49=RSIT_EDP_2|52=20231006-09:59:47.000|56=FSX_SIT_EDP|1=RSIT_EDP_ACCOUNT_2|11=16965863878462000166|38=1|40=1|54=1|55=2072|60=20231006-09:59:47.632827|10=032|
20231006-09:59:47.000 : 8=FIX.4.2|9=381|35=8|34=124|49=FSX_SIT_EDP|52=20231006-09:59:47.511|56=RSIT_EDP_2|1=RSIT_EDP_ACCOUNT_2|6=0|11=16965863876341000123|14=0|17=1710233381903425536|20=0|31=0|32=0|37=1710233381891608576|38=10|39=8|40=1|44=0|47=P|54=1|55=1693|58=ERROR_20010064,Book is Closed|59=3|60=20231006-09:59:47.511|103=2|109=102|110=0|150=8|151=0|544=1|8060=3|8164=EDP|8169=20231006-09:59:47.511795|8174=0|8214=0|10=139|
20231006-09:59:47.000 : 8=FIX.4.2|9=381|35=8|34=125|49=FSX_SIT_EDP|52=20231006-09:59:47.515|56=RSIT_EDP_2|1=RSIT_EDP_ACCOUNT_2|6=0|11=16965863876287000124|14=0|17=1710233381907619840|20=0|31=0|32=0|37=1710233381899997184|38=10|39=8|40=1|44=0|47=P|54=1|55=1694|58=ERROR_20010064,Book is Closed|59=3|60=20231006-09:59:47.515|103=2|109=102|110=0|150=8|151=0|544=1|8060=3|8164=EDP|8169=20231006-09:59:47.515143|8174=0|8214=0|10=171|
20231006-09:59:47.000 : 8=FIX.4.2|9=382|35=8|34=126|49=FSX_SIT_EDP|52=20231006-09:59:47.563|56=RSIT_EDP_2|1=RSIT_EDP_ACCOUNT_2|6=0|11=16965863877512000125|14=0|17=1710233382133448704|20=0|31=0|32=0|37=1710233382122295296|38=100|39=8|40=1|44=0|47=P|54=1|55=1695|58=ERROR_20010064,Book is Closed|59=3|60=20231006-09:59:47.563|103=2|109=102|110=0|150=8|151=0|544=1|8060=3|8164=EDP|8169=20231006-09:59:47.563288|8174=0|8214=0|10=200|
20231006-09:59:47.000 : 8=FIX.4.2|9=382|35=8|34=127|49=FSX_SIT_EDP|52=20231006-09:59:47.565|56=RSIT_EDP_2|1=RSIT_EDP_ACCOUNT_2|6=0|11=16965863875370000126|14=0|17=1710233382137643008|20=0|31=0|32=0|37=1710233382126489600|38=100|39=8|40=1|44=0|47=P|54=1|55=1696|58=ERROR_20010064,Book is Closed|59=3|60=20231006-09:59:47.565|103=2|109=102|110=0|150=8|151=0|544=1|8060=3|8164=EDP|8169=20231006-09:59:47.565815|8174=0|8214=0|10=201|
20231006-09:59:47.000 : 8=FIX.4.2|9=381|35=8|34=128|49=FSX_SIT_EDP|52=20231006-09:59:47.567|56=RSIT_EDP_2|1=RSIT_EDP_ACCOUNT_2|6=0|11=16965863873841000127|14=0|17=1710233382137643009|20=0|31=0|32=0|37=1710233382134878208|38=10|39=8|40=1|44=0|47=P|54=1|55=1697|58=ERROR_20010064,Book is Closed|59=3|60=20231006-09:59:47.566|103=2|109=102|110=0|150=8|151=0|544=1|8060=3|8164=EDP|8169=20231006-09:59:47.566926|8174=0|8214=0|10=169|
20231006-09:59:47.000 : 8=FIX.4.2|9=382|35=8|34=129|49=FSX_SIT_EDP|52=20231006-09:59:47.567|56=RSIT_EDP_2|1=RSIT_EDP_ACCOUNT_2|6=0|11=16965863875410000130|14=0|17=1710233382150225920|20=0|31=0|32=0|37=1710233382143266816|38=100|39=8|40=1|44=0|47=P|54=1|55=1721|58=ERROR_20010064,Book is Closed|59=3|60=20231006-09:59:47.567|103=2|109=102|110=0|150=8|151=0|544=1|8060=3|8164=EDP|8169=20231006-09:59:47.567866|8174=0|8214=0|10=189|
20231006-09:59:47.000 : 8=FIX.4.2|9=162|35=D|34=168|49=RSIT_EDP_2|52=20231006-09:59:47.000|56=FSX_SIT_EDP|1=RSIT_EDP_ACCOUNT_2|11=16965863874702000167|38=1|40=1|54=1|55=2073|60=20231006-09:59:47.639028|10=028|
20231006-09:59:47.000 : 8=FIX.4.2|9=382|35=8|34=130|49=FSX_SIT_EDP|52=20231006-09:59:47.569|56=RSIT_EDP_2|1=RSIT_EDP_ACCOUNT_2|6=0|11=16965863871276000131|14=0|17=1710233382156320768|20=0|31=0|32=0|37=1710233382147461120|38=100|39=8|40=1|44=0|47=P|54=1|55=1801|58=ERROR_20010064,Book is Closed|59=3|60=20231006-09:59:47.569|103=2|109=102|110=0|150=8|151=0|544=1|8060=3|8164=EDP|8169=20231006-09:59:47.569069|8174=0|8214=0|10=189|
20231006-09:59:47.000 : 8=FIX.4.2|9=381|35=8|34=131|49=FSX_SIT_EDP|52=20231006-09:59:47.570|56=RSIT_EDP_2|1=RSIT_EDP_ACCOUNT_2|6=0|11=16965863877562000128|14=0|17=1710233382146031616|20=0|31=0|32=0|37=1710233382134878209|38=10|39=8|40=1|44=0|47=P|54=1|55=1698|58=ERROR_20010064,Book is Closed|59=3|60=20231006-09:59:47.570|103=2|109=102|110=0|150=8|151=0|544=1|8060=3|8164=EDP|8169=20231006-09:59:47.570044|8174=0|8214=0|10=140|
20231006-09:59:47.000 : 8=FIX.4.2|9=381|35=8|34=132|49=FSX_SIT_EDP|52=20231006-09:59:47.571|56=RSIT_EDP_2|1=RSIT_EDP_ACCOUNT_2|6=0|11=16965863876052000129|14=0|17=1710233382147932160|20=0|31=0|32=0|37=1710233382139072512|38=10|39=8|40=1|44=0|47=P|54=1|55=1699|58=ERROR_20010064,Book is Closed|59=3|60=20231006-09:59:47.571|103=2|109=102|110=0|150=8|151=0|544=1|8060=3|8164=EDP|8169=20231006-09:59:47.571201|8174=0|8214=0|10=127|
20231006-09:59:47.000 : 8=FIX.4.2|9=382|35=8|34=133|49=FSX_SIT_EDP|52=20231006-09:59:47.572|56=RSIT_EDP_2|1=RSIT_EDP_ACCOUNT_2|6=0|11=16965863872135000132|14=0|17=1710233382158614528|20=0|31=0|32=0|37=1710233382151655424|38=100|39=8|40=1|44=0|47=P|54=1|55=1802|58=ERROR_20010064,Book is Closed|59=3|60=20231006-09:59:47.571|103=2|109=102|110=0|150=8|151=0|544=1|8060=3|8164=EDP|8169=20231006-09:59:47.571955|8174=0|8214=0|10=182|
20231006-09:59:47.000 : 8=FIX.4.2|9=382|35=8|34=134|49=FSX_SIT_EDP|52=20231006-09:59:47.572|56=RSIT_EDP_2|1=RSIT_EDP_ACCOUNT_2|6=0|11=16965863870316000133|14=0|17=1710233382158643200|20=0|31=0|32=0|37=1710233382155849728|38=100|39=8|40=1|44=0|47=P|54=1|55=1803|58=ERROR_20010064,Book is Closed|59=3|60=20231006-09:59:47.572|103=2|109=102|110=0|150=8|151=0|544=1|8060=3|8164=EDP|8169=20231006-09:59:47.572705|8174=0|8214=0|10=184|
20231006-09:59:47.000 : 8=FIX.4.2|9=382|35=8|34=135|49=FSX_SIT_EDP|52=20231006-09:59:47.573|56=RSIT_EDP_2|1=RSIT_EDP_ACCOUNT_2|6=0|11=16965863872781000134|14=0|17=1710233382171197440|20=0|31=0|32=0|37=1710233382160044032|38=100|39=8|40=1|44=0|47=P|54=1|55=1808|58=ERROR_20010064,Book is Closed|59=3|60=20231006-09:59:47.573|103=2|109=102|110=0|150=8|151=0|544=1|8060=3|8164=EDP|8169=20231006-09:59:47.573326|8174=0|8214=0|10=177|
20231006-09:59:47.000 : 8=FIX.4.2|9=382|35=8|34=136|49=FSX_SIT_EDP|52=20231006-09:59:47.613|56=RSIT_EDP_2|1=RSIT_EDP_ACCOUNT_2|6=0|11=16965863878517000136|14=0|17=1710233382343827456|20=0|31=0|32=0|37=1710233382336204800|38=100|39=8|40=1|44=0|47=P|54=1|55=1820|58=ERROR_20010064,Book is Closed|59=3|60=20231006-09:59:47.613|103=2|109=102|110=0|150=8|151=0|544=1|8060=3|8164=EDP|8169=20231006-09:59:47.613790|8174=0|8214=0|10=181|
20231006-09:59:47.000 : 8=FIX.4.2|9=382|35=8|34=137|49=FSX_SIT_EDP|52=20231006-09:59:47.615|56=RSIT_EDP_2|1=RSIT_EDP_ACCOUNT_2|6=0|11=16965863873507000137|14=0|17=1710233382347386880|20=0|31=0|32=0|37=1710233382340399104|38=100|39=8|40=1|44=0|47=P|54=1|55=1860|58=ERROR_20010064,Book is Closed|59=3|60=20231006-09:59:47.615|103=2|109=102|110=0|150=8|151=0|544=1|8060=3|8164=EDP|8169=20231006-09:59:47.615230|8174=0|8214=0|10=188|
20231006-09:59:47.000 : 8=FIX.4.2|9=382|35=8|34=138|49=FSX_SIT_EDP|52=20231006-09:59:47.616|56=RSIT_EDP_2|1=RSIT_EDP_ACCOUNT_2|6=0|11=16965863870472000138|14=0|17=1710233382351552512|20=0|31=0|32=0|37=1710233382344593408|38=100|39=8|40=1|44=0|47=P|54=1|55=1878|58=ERROR_20010064,Book is Closed|59=3|60=20231006-09:59:47.616|103=2|109=102|110=0|150=8|151=0|544=1|8060=3|8164=EDP|8169=20231006-09:59:47.616277|8174=0|8214=0|10=200|
20231006-09:59:47.000 : 8=FIX.4.2|9=382|35=8|34=139|49=FSX_SIT_EDP|52=20231006-09:59:47.617|56=RSIT_EDP_2|1=RSIT_EDP_ACCOUNT_2|6=0|11=16965863878536000135|14=0|17=1710233382339633152|20=0|31=0|32=0|37=1710233382332010496|38=100|39=8|40=1|44=0|47=P|54=1|55=1812|58=ERROR_20010064,Book is Closed|59=3|60=20231006-09:59:47.617|103=2|109=102|110=0|150=8|151=0|544=1|8060=3|8164=EDP|8169=20231006-09:59:47.617500|8174=0|8214=0|10=181|
20231006-09:59:47.000 : 8=FIX.4.2|9=382|35=8|34=140|49=FSX_SIT_EDP|52=20231006-09:59:47.618|56=RSIT_EDP_2|1=RSIT_EDP_ACCOUNT_2|6=0|11=16965863877380000141|14=0|17=1710233382359941120|20=0|31=0|32=0|37=1710233382357176321|38=100|39=8|40=1|44=0|47=P|54=1|55=1925|58=ERROR_20010064,Book is Closed|59=3|60=20231006-09:59:47.618|103=2|109=102|110=0|150=8|151=0|544=1|8060=3|8164=EDP|8169=20231006-09:59:47.618317|8174=0|8214=0|10=186|
20231006-09:59:47.000 : 8=FIX.4.2|9=382|35=8|34=141|49=FSX_SIT_EDP|52=20231006-09:59:47.619|56=RSIT_EDP_2|1=RSIT_EDP_ACCOUNT_2|6=0|11=16965863874015000139|14=0|17=1710233382364798976|20=0|31=0|32=0|37=1710233382348787712|38=100|39=8|40=1|44=0|47=P|54=1|55=1893|58=ERROR_20010064,Book is Closed|59=3|60=20231006-09:59:47.619|103=2|109=102|110=0|150=8|151=0|544=1|8060=3|8164=EDP|8169=20231006-09:59:47.619248|8174=0|8214=0|10=233|
20231006-09:59:47.000 : 8=FIX.4.2|9=382|35=8|34=142|49=FSX_SIT_EDP|52=20231006-09:59:47.620|56=RSIT_EDP_2|1=RSIT_EDP_ACCOUNT_2|6=0|11=16965863878642000142|14=0|17=1710233382366035968|20=0|31=0|32=0|37=1710233382361370624|38=100|39=8|40=1|44=0|47=P|54=1|55=1928|58=ERROR_20010064,Book is Closed|59=3|60=20231006-09:59:47.620|103=2|109=102|110=0|150=8|151=0|544=1|8060=3|8164=EDP|8169=20231006-09:59:47.620027|8174=0|8214=0|10=180|
20231006-09:59:47.000 : 8=FIX.4.2|9=382|35=8|34=143|49=FSX_SIT_EDP|52=20231006-09:59:47.620|56=RSIT_EDP_2|1=RSIT_EDP_ACCOUNT_2|6=0|11=16965863878216000140|14=0|17=1710233382364798977|20=0|31=0|32=0|37=1710233382357176320|38=100|39=8|40=1|44=0|47=P|54=1|55=1911|58=ERROR_20010064,Book is Closed|59=3|60=20231006-09:59:47.620|103=2|109=102|110=0|150=8|151=0|544=1|8060=3|8164=EDP|8169=20231006-09:59:47.620727|8174=0|8214=0|10=191|
20231006-09:59:47.000 : 8=FIX.4.2|9=163|35=D|34=169|49=RSIT_EDP_2|52=20231006-09:59:47.000|56=FSX_SIT_EDP|1=RSIT_EDP_ACCOUNT_2|11=16965863876703000168|38=10|40=1|54=1|55=2085|60=20231006-09:59:47.643838|10=089|
20231006-09:59:47.000 : 8=FIX.4.2|9=164|35=D|34=170|49=RSIT_EDP_2|52=20231006-09:59:47.000|56=FSX_SIT_EDP|1=RSIT_EDP_ACCOUNT_2|11=16965863874518000169|38=100|40=1|54=1|55=2127|60=20231006-09:59:47.648865|10=135|
20231006-09:59:47.000 : 8=FIX.4.2|9=164|35=D|34=171|49=RSIT_EDP_2|52=20231006-09:59:47.000|56=FSX_SIT_EDP|1=RSIT_EDP_ACCOUNT_2|11=16965863875326000170|38=100|40=1|54=1|55=2175|60=20231006-09:59:47.654275|10=121|
20231006-09:59:47.000 : 8=FIX.4.2|9=164|35=D|34=172|49=RSIT_EDP_2|52=20231006-09:59:47.000|56=FSX_SIT_EDP|1=RSIT_EDP_ACCOUNT_2|11=16965863870135000171|38=100|40=1|54=1|55=2181|60=20231006-09:59:47.660179|10=113|
20231006-09:59:47.000 : 8=FIX.4.2|9=164|35=D|34=173|49=RSIT_EDP_2|52=20231006-09:59:47.000|56=FSX_SIT_EDP|1=RSIT_EDP_ACCOUNT_2|11=16965863876385000172|38=100|40=1|54=1|55=2201|60=20231006-09:59:47.666477|10=128|
20231006-09:59:47.000 : 8=FIX.4.2|9=164|35=D|34=174|49=RSIT_EDP_2|52=20231006-09:59:47.000|56=FSX_SIT_EDP|1=RSIT_EDP_ACCOUNT_2|11=16965863877314000173|38=100|40=1|54=1|55=2206|60=20231006-09:59:47.672610|10=114|
20231006-09:59:47.000 : 8=FIX.4.2|9=164|35=D|34=175|49=RSIT_EDP_2|52=20231006-09:59:47.000|56=FSX_SIT_EDP|1=RSIT_EDP_ACCOUNT_2|11=16965863875034000174|38=100|40=1|54=1|55=2212|60=20231006-09:59:47.678132|10=115|
20231006-09:59:47.000 : 8=FIX.4.2|9=164|35=D|34=176|49=RSIT_EDP_2|52=20231006-09:59:47.000|56=FSX_SIT_EDP|1=RSIT_EDP_ACCOUNT_2|11=16965863873867000175|38=100|40=1|54=1|55=2229|60=20231006-09:59:47.684185|10=142|
20231006-09:59:47.000 : 8=FIX.4.2|9=163|35=D|34=177|49=RSIT_EDP_2|52=20231006-09:59:47.000|56=FSX_SIT_EDP|1=RSIT_EDP_ACCOUNT_2|11=16965863871453000176|38=10|40=1|54=1|55=2235|60=20231006-09:59:47.690923|10=078|
20231006-09:59:47.000 : 8=FIX.4.2|9=162|35=D|34=178|49=RSIT_EDP_2|52=20231006-09:59:47.000|56=FSX_SIT_EDP|1=RSIT_EDP_ACCOUNT_2|11=16965863871328000177|38=1|40=1|54=1|55=2237|60=20231006-09:59:47.699974|10=049|
20231006-09:59:47.000 : 8=FIX.4.2|9=162|35=D|34=179|49=RSIT_EDP_2|52=20231006-09:59:47.000|56=FSX_SIT_EDP|1=RSIT_EDP_ACCOUNT_2|11=16965863872438000178|38=1|40=1|54=1|55=2238|60=20231006-09:59:47.705708|10=038|
20231006-09:59:47.000 : 8=FIX.4.2|9=163|35=D|34=180|49=RSIT_EDP_2|52=20231006-09:59:47.000|56=FSX_SIT_EDP|1=RSIT_EDP_ACCOUNT_2|11=16965863877842000179|38=10|40=1|54=1|55=2239|60=20231006-09:59:47.712367|10=084|
20231006-09:59:47.000 : 8=FIX.4.2|9=163|35=D|34=181|49=RSIT_EDP_2|52=20231006-09:59:47.000|56=FSX_SIT_EDP|1=RSIT_EDP_ACCOUNT_2|11=16965863870752000180|38=10|40=1|54=1|55=2240|60=20231006-09:59:47.720042|10=051|
20231006-09:59:47.000 : 8=FIX.4.2|9=163|35=D|34=182|49=RSIT_EDP_2|52=20231006-09:59:47.000|56=FSX_SIT_EDP|1=RSIT_EDP_ACCOUNT_2|11=16965863876821000181|38=10|40=1|54=1|55=2241|60=20231006-09:59:47.726019|10=067|
20231006-09:59:47.000 : 8=FIX.4.2|9=163|35=D|34=183|49=RSIT_EDP_2|52=20231006-09:59:47.000|56=FSX_SIT_EDP|1=RSIT_EDP_ACCOUNT_2|11=16965863876138000182|38=10|40=1|54=1|55=2242|60=20231006-09:59:47.731880|10=073|
20231006-09:59:47.000 : 8=FIX.4.2|9=163|35=D|34=184|49=RSIT_EDP_2|52=20231006-09:59:47.000|56=FSX_SIT_EDP|1=RSIT_EDP_ACCOUNT_2|11=16965863878015000183|38=10|40=1|54=1|55=2245|60=20231006-09:59:47.737676|10=083|
20231006-09:59:47.000 : 8=FIX.4.2|9=163|35=D|34=185|49=RSIT_EDP_2|52=20231006-09:59:47.000|56=FSX_SIT_EDP|1=RSIT_EDP_ACCOUNT_2|11=16965863876027000184|38=10|40=1|54=1|55=2246|60=20231006-09:59:47.743436|10=078|
