20231002-12:12:07.000 : 8=FIX.4.2|9=83|35=A|34=1|49=RSIT_EDP_6|52=20231002-12:12:07.000|56=FSX_SIT_EDP|98=0|108=300|141=Y|10=202|
20231002-12:13:06.000 : 8=FIX.4.2|9=83|35=A|34=1|49=RSIT_EDP_6|52=20231002-12:13:06.000|56=FSX_SIT_EDP|98=0|108=300|141=Y|10=202|
