20231003-05:32:20.000 : 8=FIX.4.2|9=83|35=A|34=1|49=RUAT_EDP_5|52=20231003-05:32:20.000|56=FSX_UAT_EDP|98=0|108=300|141=Y|10=189|
20231003-05:32:20.000 : 8=FIX.4.2|9=83|35=A|34=1|49=FSX_UAT_EDP|52=20231003-05:32:20.406|56=RUAT_EDP_5|98=0|108=300|141=Y|10=199|
20231003-05:32:23.000 : 8=FIX.4.2|9=214|35=D|34=2|49=RUAT_EDP_5|52=20231003-05:32:23.000|56=FSX_UAT_EDP|1=RSIT_EDP_ACCOUNT_5|11=16963111438746000001|38=500|40=1|47=P|54=1|55=3002|59=3|60=20231003-05:32:23.616471|110=0|544=1|8060=3|8164=EDP|8174=0|8214=0|10=072|
20231003-05:32:23.000 : 8=FIX.4.2|9=429|35=8|34=2|49=FSX_UAT_EDP|52=20231003-05:32:23.670|56=RUAT_EDP_5|1=RSIT_EDP_ACCOUNT_5|6=0|11=16963111438746000001|14=0|17=None|20=0|31=0|32=0|37=None|38=500|39=8|40=1|44=0|47=P|54=1|55=3002|58=ERROR_10010013,No available instrument risk check data found: instrumentDate=not_found,expectedDate=20231003|59=3|60=20231003-05:32:23.670|103=3|109=105|110=0|150=8|151=0|544=1|8060=3|8164=EDP|8169=20231003-05:32:23.670854|8174=0|8214=0|10=080|
20231003-05:33:23.000 : 8=FIX.4.2|9=214|35=D|34=3|49=RUAT_EDP_5|52=20231003-05:33:23.000|56=FSX_UAT_EDP|1=RSIT_EDP_ACCOUNT_5|11=16963112038603000002|38=500|40=1|47=P|54=1|55=2980|59=3|60=20231003-05:33:23.624450|110=0|544=1|8060=3|8164=EDP|8174=0|8214=0|10=075|
20231003-05:33:23.000 : 8=FIX.4.2|9=429|35=8|34=3|49=FSX_UAT_EDP|52=20231003-05:33:23.680|56=RUAT_EDP_5|1=RSIT_EDP_ACCOUNT_5|6=0|11=16963112038603000002|14=0|17=None|20=0|31=0|32=0|37=None|38=500|39=8|40=1|44=0|47=P|54=1|55=2980|58=ERROR_10010013,No available instrument risk check data found: instrumentDate=not_found,expectedDate=20231003|59=3|60=20231003-05:33:23.680|103=3|109=105|110=0|150=8|151=0|544=1|8060=3|8164=EDP|8169=20231003-05:33:23.680645|8174=0|8214=0|10=089|
20231003-05:33:24.000 : 8=FIX.4.2|9=214|35=D|34=4|49=RUAT_EDP_5|52=20231003-05:33:24.000|56=FSX_UAT_EDP|1=RSIT_EDP_ACCOUNT_5|11=16963112045413000003|38=500|40=1|47=P|54=2|55=2982|59=3|60=20231003-05:33:24.632368|110=0|544=1|8060=3|8164=EDP|8174=0|8214=0|10=086|
20231003-05:33:24.000 : 8=FIX.4.2|9=429|35=8|34=4|49=FSX_UAT_EDP|52=20231003-05:33:24.686|56=RUAT_EDP_5|1=RSIT_EDP_ACCOUNT_5|6=0|11=16963112045413000003|14=0|17=None|20=0|31=0|32=0|37=None|38=500|39=8|40=1|44=0|47=P|54=2|55=2982|58=ERROR_10010013,No available instrument risk check data found: instrumentDate=not_found,expectedDate=20231003|59=3|60=20231003-05:33:24.686|103=3|109=105|110=0|150=8|151=0|544=1|8060=3|8164=EDP|8169=20231003-05:33:24.686459|8174=0|8214=0|10=115|
20231003-05:33:25.000 : 8=FIX.4.2|9=215|35=D|34=5|49=RUAT_EDP_5|52=20231003-05:33:25.000|56=FSX_UAT_EDP|1=RSIT_EDP_ACCOUNT_5|11=16963112058203000004|38=500|40=2|44=3215|47=P|54=1|55=2980|59=3|60=20231003-05:33:25.637369|110=0|544=1|8060=3|8164=EDP|8214=0|10=143|
20231003-05:33:25.000 : 8=FIX.4.2|9=432|35=8|34=5|49=FSX_UAT_EDP|52=20231003-05:33:25.692|56=RUAT_EDP_5|1=RSIT_EDP_ACCOUNT_5|6=0|11=16963112058203000004|14=0|17=None|20=0|31=0|32=0|37=None|38=500|39=8|40=2|44=3215|47=P|54=1|55=2980|58=ERROR_10010013,No available instrument risk check data found: instrumentDate=not_found,expectedDate=20231003|59=3|60=20231003-05:33:25.692|103=3|109=105|110=0|150=8|151=0|544=1|8060=3|8164=EDP|8169=20231003-05:33:25.692121|8174=0|8214=0|10=245|
20231003-05:33:26.000 : 8=FIX.4.2|9=214|35=D|34=6|49=RUAT_EDP_5|52=20231003-05:33:26.000|56=FSX_UAT_EDP|1=RSIT_EDP_ACCOUNT_5|11=16963112066243000005|38=500|40=2|44=195|47=P|54=2|55=2982|59=3|60=20231003-05:33:26.645302|110=0|544=1|8060=3|8164=EDP|8214=0|10=094|
20231003-05:33:26.000 : 8=FIX.4.2|9=431|35=8|34=6|49=FSX_UAT_EDP|52=20231003-05:33:26.703|56=RUAT_EDP_5|1=RSIT_EDP_ACCOUNT_5|6=0|11=16963112066243000005|14=0|17=None|20=0|31=0|32=0|37=None|38=500|39=8|40=2|44=195|47=P|54=2|55=2982|58=ERROR_10010013,No available instrument risk check data found: instrumentDate=not_found,expectedDate=20231003|59=3|60=20231003-05:33:26.703|103=3|109=105|110=0|150=8|151=0|544=1|8060=3|8164=EDP|8169=20231003-05:33:26.703261|8174=0|8214=0|10=195|
20231003-05:33:27.000 : 8=FIX.4.2|9=214|35=D|34=7|49=RUAT_EDP_5|52=20231003-05:33:27.000|56=FSX_UAT_EDP|1=RSIT_EDP_ACCOUNT_5|11=16963112076042000006|38=300|40=1|47=P|54=1|55=2989|59=3|60=20231003-05:33:27.651918|110=0|544=1|8060=3|8164=EDP|8174=0|8214=0|10=106|
20231003-05:33:27.000 : 8=FIX.4.2|9=429|35=8|34=7|49=FSX_UAT_EDP|52=20231003-05:33:27.706|56=RUAT_EDP_5|1=RSIT_EDP_ACCOUNT_5|6=0|11=16963112076042000006|14=0|17=None|20=0|31=0|32=0|37=None|38=300|39=8|40=1|44=0|47=P|54=1|55=2989|58=ERROR_10010013,No available instrument risk check data found: instrumentDate=not_found,expectedDate=20231003|59=3|60=20231003-05:33:27.706|103=3|109=105|110=0|150=8|151=0|544=1|8060=3|8164=EDP|8169=20231003-05:33:27.706738|8174=0|8214=0|10=115|
20231003-05:33:28.000 : 8=FIX.4.2|9=215|35=D|34=8|49=RUAT_EDP_5|52=20231003-05:33:28.000|56=FSX_UAT_EDP|1=RSIT_EDP_ACCOUNT_5|11=16963112084158000007|38=300|40=2|44=2500|47=P|54=2|55=1308|59=3|60=20231003-05:33:28.660131|110=0|544=1|8060=3|8164=EDP|8214=0|10=134|
20231003-05:33:28.000 : 8=FIX.4.2|9=432|35=8|34=8|49=FSX_UAT_EDP|52=20231003-05:33:28.714|56=RUAT_EDP_5|1=RSIT_EDP_ACCOUNT_5|6=0|11=16963112084158000007|14=0|17=None|20=0|31=0|32=0|37=None|38=300|39=8|40=2|44=2500|47=P|54=2|55=1308|58=ERROR_10010013,No available instrument risk check data found: instrumentDate=not_found,expectedDate=20231003|59=3|60=20231003-05:33:28.714|103=3|109=105|110=0|150=8|151=0|544=1|8060=3|8164=EDP|8169=20231003-05:33:28.714748|8174=0|8214=0|10=000|
20231003-05:33:29.000 : 8=FIX.4.2|9=215|35=D|34=9|49=RUAT_EDP_5|52=20231003-05:33:29.000|56=FSX_UAT_EDP|1=RSIT_EDP_ACCOUNT_5|11=16963112092074000008|38=1000|40=1|47=P|54=1|55=2993|59=3|60=20231003-05:33:29.668437|110=0|544=1|8060=3|8164=EDP|8174=0|8214=0|10=163|
20231003-05:33:29.000 : 8=FIX.4.2|9=430|35=8|34=9|49=FSX_UAT_EDP|52=20231003-05:33:29.725|56=RUAT_EDP_5|1=RSIT_EDP_ACCOUNT_5|6=0|11=16963112092074000008|14=0|17=None|20=0|31=0|32=0|37=None|38=1000|39=8|40=1|44=0|47=P|54=1|55=2993|58=ERROR_10010013,No available instrument risk check data found: instrumentDate=not_found,expectedDate=20231003|59=3|60=20231003-05:33:29.725|103=3|109=105|110=0|150=8|151=0|544=1|8060=3|8164=EDP|8169=20231003-05:33:29.725686|8174=0|8214=0|10=166|
20231003-05:33:30.000 : 8=FIX.4.2|9=223|35=D|34=10|49=RUAT_EDP_5|52=20231003-05:33:30.000|56=FSX_UAT_EDP|1=RSIT_EDP_ACCOUNT_5|11=16963112100213000009|38=1000|40=2|44=780|47=P|54=2|55=3154|59=3|60=20231003-05:33:30.680643|110=0|544=1|8060=3|8164=EDP|8174=0|8214=0|10=226|
20231003-05:33:30.000 : 8=FIX.4.2|9=433|35=8|34=10|49=FSX_UAT_EDP|52=20231003-05:33:30.736|56=RUAT_EDP_5|1=RSIT_EDP_ACCOUNT_5|6=0|11=16963112100213000009|14=0|17=None|20=0|31=0|32=0|37=None|38=1000|39=8|40=2|44=780|47=P|54=2|55=3154|58=ERROR_10010013,No available instrument risk check data found: instrumentDate=not_found,expectedDate=20231003|59=3|60=20231003-05:33:30.736|103=3|109=105|110=0|150=8|151=0|544=1|8060=3|8164=EDP|8169=20231003-05:33:30.736676|8174=0|8214=0|10=023|
20231003-05:33:31.000 : 8=FIX.4.2|9=214|35=D|34=11|49=RUAT_EDP_5|52=20231003-05:33:31.000|56=FSX_UAT_EDP|1=RSIT_EDP_ACCOUNT_5|11=16963112111547000010|38=99|40=1|47=P|54=1|55=1499|59=3|60=20231003-05:33:31.687303|110=0|544=1|8060=3|8164=EDP|8174=0|8214=0|10=093|
20231003-05:33:32.000 : 8=FIX.4.2|9=429|35=8|34=11|49=FSX_UAT_EDP|52=20231003-05:33:31.744|56=RUAT_EDP_5|1=RSIT_EDP_ACCOUNT_5|6=0|11=16963112111547000010|14=0|17=None|20=0|31=0|32=0|37=None|38=99|39=8|40=1|44=0|47=P|54=1|55=1499|58=ERROR_10010013,No available instrument risk check data found: instrumentDate=not_found,expectedDate=20231003|59=3|60=20231003-05:33:31.744|103=3|109=105|110=0|150=8|151=0|544=1|8060=3|8164=EDP|8169=20231003-05:33:31.744107|8174=0|8214=0|10=096|
20231003-05:33:32.000 : 8=FIX.4.2|9=214|35=D|34=12|49=RUAT_EDP_5|52=20231003-05:33:32.000|56=FSX_UAT_EDP|1=RSIT_EDP_ACCOUNT_5|11=16963112121684000011|38=99|40=1|47=P|54=2|55=1321|59=3|60=20231003-05:33:32.697823|110=0|544=1|8060=3|8164=EDP|8174=0|8214=0|10=093|
20231003-05:33:32.000 : 8=FIX.4.2|9=429|35=8|34=12|49=FSX_UAT_EDP|52=20231003-05:33:32.753|56=RUAT_EDP_5|1=RSIT_EDP_ACCOUNT_5|6=0|11=16963112121684000011|14=0|17=None|20=0|31=0|32=0|37=None|38=99|39=8|40=1|44=0|47=P|54=2|55=1321|58=ERROR_10010013,No available instrument risk check data found: instrumentDate=not_found,expectedDate=20231003|59=3|60=20231003-05:33:32.753|103=3|109=105|110=0|150=8|151=0|544=1|8060=3|8164=EDP|8169=20231003-05:33:32.753526|8174=0|8214=0|10=094|
20231003-05:33:33.000 : 8=FIX.4.2|9=222|35=D|34=13|49=RUAT_EDP_5|52=20231003-05:33:33.000|56=FSX_UAT_EDP|1=RSIT_EDP_ACCOUNT_5|11=16963112134301000012|38=99|40=2|44=9195|47=P|54=1|55=1499|59=3|60=20231003-05:33:33.706342|110=0|544=1|8060=3|8164=EDP|8174=0|8214=0|10=215|
20231003-05:33:33.000 : 8=FIX.4.2|9=432|35=8|34=13|49=FSX_UAT_EDP|52=20231003-05:33:33.762|56=RUAT_EDP_5|1=RSIT_EDP_ACCOUNT_5|6=0|11=16963112134301000012|14=0|17=None|20=0|31=0|32=0|37=None|38=99|39=8|40=2|44=9195|47=P|54=1|55=1499|58=ERROR_10010013,No available instrument risk check data found: instrumentDate=not_found,expectedDate=20231003|59=3|60=20231003-05:33:33.762|103=3|109=105|110=0|150=8|151=0|544=1|8060=3|8164=EDP|8169=20231003-05:33:33.762195|8174=0|8214=0|10=013|
20231003-05:33:34.000 : 8=FIX.4.2|9=223|35=D|34=14|49=RUAT_EDP_5|52=20231003-05:33:34.000|56=FSX_UAT_EDP|1=RSIT_EDP_ACCOUNT_5|11=16963112143821000013|38=99|40=2|44=33260|47=P|54=2|55=1321|59=3|60=20231003-05:33:34.714680|110=0|544=1|8060=3|8164=EDP|8174=0|8214=0|10=254|
20231003-05:33:34.000 : 8=FIX.4.2|9=433|35=8|34=14|49=FSX_UAT_EDP|52=20231003-05:33:34.769|56=RUAT_EDP_5|1=RSIT_EDP_ACCOUNT_5|6=0|11=16963112143821000013|14=0|17=None|20=0|31=0|32=0|37=None|38=99|39=8|40=2|44=33260|47=P|54=2|55=1321|58=ERROR_10010013,No available instrument risk check data found: instrumentDate=not_found,expectedDate=20231003|59=3|60=20231003-05:33:34.769|103=3|109=105|110=0|150=8|151=0|544=1|8060=3|8164=EDP|8169=20231003-05:33:34.769546|8174=0|8214=0|10=070|
20231003-05:33:35.000 : 8=FIX.4.2|9=214|35=D|34=15|49=RUAT_EDP_5|52=20231003-05:33:35.000|56=FSX_UAT_EDP|1=RSIT_EDP_ACCOUNT_5|11=16963112151435000014|38=10|40=1|47=P|54=1|55=1496|59=3|60=20231003-05:33:35.719242|110=0|544=1|8060=3|8164=EDP|8174=0|8214=0|10=087|
20231003-05:33:35.000 : 8=FIX.4.2|9=429|35=8|34=15|49=FSX_UAT_EDP|52=20231003-05:33:35.776|56=RUAT_EDP_5|1=RSIT_EDP_ACCOUNT_5|6=0|11=16963112151435000014|14=0|17=None|20=0|31=0|32=0|37=None|38=10|39=8|40=1|44=0|47=P|54=1|55=1496|58=ERROR_10010013,No available instrument risk check data found: instrumentDate=not_found,expectedDate=20231003|59=3|60=20231003-05:33:35.776|103=3|109=105|110=0|150=8|151=0|544=1|8060=3|8164=EDP|8169=20231003-05:33:35.776067|8174=0|8214=0|10=116|
20231003-05:33:40.000 : 8=FIX.4.2|9=154|35=F|34=16|49=RUAT_EDP_5|52=20231003-05:33:40.000|56=FSX_UAT_EDP|11=16963112201508000015|41=16963112151435000014|54=1|55=1496|60=20231003-05:33:40.737861|10=160|
20231003-05:33:40.000 : 8=FIX.4.2|9=222|35=D|34=17|49=RUAT_EDP_5|52=20231003-05:33:40.000|56=FSX_UAT_EDP|1=RSIT_EDP_ACCOUNT_5|11=16963112202780000016|38=100|40=2|44=851|47=P|54=2|55=2927|59=3|60=20231003-05:33:40.742876|110=0|544=1|8060=3|8164=EDP|8174=0|8214=0|10=209|
20231003-05:33:40.000 : 8=FIX.4.2|9=289|35=9|34=16|49=FSX_UAT_EDP|52=20231003-05:33:40.795|56=RUAT_EDP_5|11=16963112201508000015|37=None|39=8|41=16963112151435000014|58=ERROR_10010031,Requested order does not exist: origClOrdId=16963112151435000014, symbol=1496|60=20231003-05:33:40.794|102=1|434=1|8169=20231003-05:33:40.794925|10=056|
20231003-05:33:40.000 : 8=FIX.4.2|9=432|35=8|34=17|49=FSX_UAT_EDP|52=20231003-05:33:40.899|56=RUAT_EDP_5|1=RSIT_EDP_ACCOUNT_5|6=0|11=16963112202780000016|14=0|17=None|20=0|31=0|32=0|37=None|38=100|39=8|40=2|44=851|47=P|54=2|55=2927|58=ERROR_10010013,No available instrument risk check data found: instrumentDate=not_found,expectedDate=20231003|59=3|60=20231003-05:33:40.899|103=3|109=105|110=0|150=8|151=0|544=1|8060=3|8164=EDP|8169=20231003-05:33:40.899371|8174=0|8214=0|10=022|
20231003-05:33:45.000 : 8=FIX.4.2|9=154|35=F|34=18|49=RUAT_EDP_5|52=20231003-05:33:45.000|56=FSX_UAT_EDP|11=16963112251038000017|41=16963112202780000016|54=2|55=2927|60=20231003-05:33:45.758010|10=169|
20231003-05:33:45.000 : 8=FIX.4.2|9=215|35=D|34=19|49=RUAT_EDP_5|52=20231003-05:33:45.000|56=FSX_UAT_EDP|1=RSIT_EDP_ACCOUNT_5|11=16963112252847000018|38=200|40=1|47=P|54=1|55=3915|59=3|60=20231003-05:33:45.762694|110=0|544=1|8060=3|8164=EDP|8174=0|8214=0|10=163|
20231003-05:33:45.000 : 8=FIX.4.2|9=289|35=9|34=18|49=FSX_UAT_EDP|52=20231003-05:33:45.812|56=RUAT_EDP_5|11=16963112251038000017|37=None|39=8|41=16963112202780000016|58=ERROR_10010031,Requested order does not exist: origClOrdId=16963112202780000016, symbol=2927|60=20231003-05:33:45.812|102=1|434=1|8169=20231003-05:33:45.812498|10=059|
20231003-05:33:45.000 : 8=FIX.4.2|9=430|35=8|34=19|49=FSX_UAT_EDP|52=20231003-05:33:45.916|56=RUAT_EDP_5|1=RSIT_EDP_ACCOUNT_5|6=0|11=16963112252847000018|14=0|17=None|20=0|31=0|32=0|37=None|38=200|39=8|40=1|44=0|47=P|54=1|55=3915|58=ERROR_10010013,No available instrument risk check data found: instrumentDate=not_found,expectedDate=20231003|59=3|60=20231003-05:33:45.916|103=3|109=105|110=0|150=8|151=0|544=1|8060=3|8164=EDP|8169=20231003-05:33:45.916162|8174=0|8214=0|10=159|
20231003-05:33:50.000 : 8=FIX.4.2|9=154|35=F|34=20|49=RUAT_EDP_5|52=20231003-05:33:50.000|56=FSX_UAT_EDP|11=16963112303140000019|41=16963112252847000018|54=1|55=3915|60=20231003-05:33:50.779887|10=181|
20231003-05:33:50.000 : 8=FIX.4.2|9=223|35=D|34=21|49=RUAT_EDP_5|52=20231003-05:33:50.000|56=FSX_UAT_EDP|1=RSIT_EDP_ACCOUNT_5|11=16963112305216000020|38=200|40=2|44=1703|47=P|54=2|55=3916|59=3|60=20231003-05:33:50.782387|110=0|544=1|8060=3|8164=EDP|8174=0|8214=0|10=246|
20231003-05:33:50.000 : 8=FIX.4.2|9=289|35=9|34=20|49=FSX_UAT_EDP|52=20231003-05:33:50.834|56=RUAT_EDP_5|11=16963112303140000019|37=None|39=8|41=16963112252847000018|58=ERROR_10010031,Requested order does not exist: origClOrdId=16963112252847000018, symbol=3915|60=20231003-05:33:50.834|102=1|434=1|8169=20231003-05:33:50.834784|10=064|
20231003-05:33:50.000 : 8=FIX.4.2|9=433|35=8|34=21|49=FSX_UAT_EDP|52=20231003-05:33:50.939|56=RUAT_EDP_5|1=RSIT_EDP_ACCOUNT_5|6=0|11=16963112305216000020|14=0|17=None|20=0|31=0|32=0|37=None|38=200|39=8|40=2|44=1703|47=P|54=2|55=3916|58=ERROR_10010013,No available instrument risk check data found: instrumentDate=not_found,expectedDate=20231003|59=3|60=20231003-05:33:50.939|103=3|109=105|110=0|150=8|151=0|544=1|8060=3|8164=EDP|8169=20231003-05:33:50.939746|8174=0|8214=0|10=050|
20231003-05:33:55.000 : 8=FIX.4.2|9=154|35=F|34=22|49=RUAT_EDP_5|52=20231003-05:33:55.000|56=FSX_UAT_EDP|11=16963112356021000021|41=16963112305216000020|54=1|55=3916|60=20231003-05:33:55.797541|10=162|
20231003-05:33:55.000 : 8=FIX.4.2|9=214|35=D|34=23|49=RUAT_EDP_5|52=20231003-05:33:55.000|56=FSX_UAT_EDP|1=RSIT_EDP_ACCOUNT_5|11=16963112350671000022|38=88|40=1|47=P|54=1|55=1329|59=3|60=20231003-05:33:55.803258|110=0|544=1|8060=3|8164=EDP|8174=0|8214=0|10=103|
20231003-05:33:55.000 : 8=FIX.4.2|9=289|35=9|34=22|49=FSX_UAT_EDP|52=20231003-05:33:55.855|56=RUAT_EDP_5|11=16963112356021000021|37=None|39=8|41=16963112305216000020|58=ERROR_10010031,Requested order does not exist: origClOrdId=16963112305216000020, symbol=3916|60=20231003-05:33:55.855|102=1|434=1|8169=20231003-05:33:55.855155|10=046|
20231003-05:33:56.000 : 8=FIX.4.2|9=429|35=8|34=23|49=FSX_UAT_EDP|52=20231003-05:33:55.958|56=RUAT_EDP_5|1=RSIT_EDP_ACCOUNT_5|6=0|11=16963112350671000022|14=0|17=None|20=0|31=0|32=0|37=None|38=88|39=8|40=1|44=0|47=P|54=1|55=1329|58=ERROR_10010013,No available instrument risk check data found: instrumentDate=not_found,expectedDate=20231003|59=3|60=20231003-05:33:55.958|103=3|109=105|110=0|150=8|151=0|544=1|8060=3|8164=EDP|8169=20231003-05:33:55.958765|8174=0|8214=0|10=144|
20231003-05:33:56.000 : 8=FIX.4.2|9=214|35=D|34=24|49=RUAT_EDP_5|52=20231003-05:33:56.000|56=FSX_UAT_EDP|1=RSIT_EDP_ACCOUNT_5|11=16963112362316000023|38=88|40=1|47=P|54=2|55=1346|59=3|60=20231003-05:33:56.811768|110=0|544=1|8060=3|8164=EDP|8174=0|8214=0|10=111|
20231003-05:33:56.000 : 8=FIX.4.2|9=429|35=8|34=24|49=FSX_UAT_EDP|52=20231003-05:33:56.867|56=RUAT_EDP_5|1=RSIT_EDP_ACCOUNT_5|6=0|11=16963112362316000023|14=0|17=None|20=0|31=0|32=0|37=None|38=88|39=8|40=1|44=0|47=P|54=2|55=1346|58=ERROR_10010013,No available instrument risk check data found: instrumentDate=not_found,expectedDate=20231003|59=3|60=20231003-05:33:56.867|103=3|109=105|110=0|150=8|151=0|544=1|8060=3|8164=EDP|8169=20231003-05:33:56.867795|8174=0|8214=0|10=148|
20231003-05:33:57.000 : 8=FIX.4.2|9=223|35=D|34=25|49=RUAT_EDP_5|52=20231003-05:33:57.000|56=FSX_UAT_EDP|1=RSIT_EDP_ACCOUNT_5|11=16963112372134000024|38=88|40=2|44=33790|47=P|54=1|55=1329|59=3|60=20231003-05:33:57.821893|110=0|544=1|8060=3|8164=EDP|8174=0|8214=0|10=031|
20231003-05:33:58.000 : 8=FIX.4.2|9=433|35=8|34=25|49=FSX_UAT_EDP|52=20231003-05:33:57.877|56=RUAT_EDP_5|1=RSIT_EDP_ACCOUNT_5|6=0|11=16963112372134000024|14=0|17=None|20=0|31=0|32=0|37=None|38=88|39=8|40=2|44=33790|47=P|54=1|55=1329|58=ERROR_10010013,No available instrument risk check data found: instrumentDate=not_found,expectedDate=20231003|59=3|60=20231003-05:33:57.877|103=3|109=105|110=0|150=8|151=0|544=1|8060=3|8164=EDP|8169=20231003-05:33:57.877461|8174=0|8214=0|10=099|
20231003-05:33:58.000 : 8=FIX.4.2|9=223|35=D|34=26|49=RUAT_EDP_5|52=20231003-05:33:58.000|56=FSX_UAT_EDP|1=RSIT_EDP_ACCOUNT_5|11=16963112386841000025|38=88|40=2|44=33360|47=P|54=2|55=1346|59=3|60=20231003-05:33:58.825138|110=0|544=1|8060=3|8164=EDP|8174=0|8214=0|10=034|
20231003-05:33:58.000 : 8=FIX.4.2|9=433|35=8|34=26|49=FSX_UAT_EDP|52=20231003-05:33:58.878|56=RUAT_EDP_5|1=RSIT_EDP_ACCOUNT_5|6=0|11=16963112386841000025|14=0|17=None|20=0|31=0|32=0|37=None|38=88|39=8|40=2|44=33360|47=P|54=2|55=1346|58=ERROR_10010013,No available instrument risk check data found: instrumentDate=not_found,expectedDate=20231003|59=3|60=20231003-05:33:58.878|103=3|109=105|110=0|150=8|151=0|544=1|8060=3|8164=EDP|8169=20231003-05:33:58.878703|8174=0|8214=0|10=109|
20231003-05:33:59.000 : 8=FIX.4.2|9=214|35=D|34=27|49=RUAT_EDP_5|52=20231003-05:33:59.000|56=FSX_UAT_EDP|1=RSIT_EDP_ACCOUNT_5|11=16963112393061000026|38=10|40=1|47=P|54=1|55=1496|59=3|60=20231003-05:33:59.832508|110=0|544=1|8060=3|8164=EDP|8174=0|8214=0|10=109|
20231003-05:33:59.000 : 8=FIX.4.2|9=429|35=8|34=27|49=FSX_UAT_EDP|52=20231003-05:33:59.886|56=RUAT_EDP_5|1=RSIT_EDP_ACCOUNT_5|6=0|11=16963112393061000026|14=0|17=None|20=0|31=0|32=0|37=None|38=10|39=8|40=1|44=0|47=P|54=1|55=1496|58=ERROR_10010013,No available instrument risk check data found: instrumentDate=not_found,expectedDate=20231003|59=3|60=20231003-05:33:59.886|103=3|109=105|110=0|150=8|151=0|544=1|8060=3|8164=EDP|8169=20231003-05:33:59.886711|8174=0|8214=0|10=145|
20231003-05:34:04.000 : 8=FIX.4.2|9=154|35=F|34=28|49=RUAT_EDP_5|52=20231003-05:34:04.000|56=FSX_UAT_EDP|11=16963112442653000027|41=16963112393061000026|54=1|55=1496|60=20231003-05:34:04.848767|10=190|
20231003-05:34:04.000 : 8=FIX.4.2|9=215|35=D|34=29|49=RUAT_EDP_5|52=20231003-05:34:04.000|56=FSX_UAT_EDP|1=RSIT_EDP_ACCOUNT_5|11=16963112446021000028|38=100|40=1|47=P|54=2|55=2927|59=3|60=20231003-05:34:04.850368|110=0|544=1|8060=3|8164=EDP|8174=0|8214=0|10=144|
20231003-05:34:04.000 : 8=FIX.4.2|9=289|35=9|34=28|49=FSX_UAT_EDP|52=20231003-05:34:04.902|56=RUAT_EDP_5|11=16963112442653000027|37=None|39=8|41=16963112393061000026|58=ERROR_10010031,Requested order does not exist: origClOrdId=16963112393061000026, symbol=1496|60=20231003-05:34:04.902|102=1|434=1|8169=20231003-05:34:04.902665|10=058|
20231003-05:34:05.000 : 8=FIX.4.2|9=430|35=8|34=29|49=FSX_UAT_EDP|52=20231003-05:34:05.007|56=RUAT_EDP_5|1=RSIT_EDP_ACCOUNT_5|6=0|11=16963112446021000028|14=0|17=None|20=0|31=0|32=0|37=None|38=100|39=8|40=1|44=0|47=P|54=2|55=2927|58=ERROR_10010013,No available instrument risk check data found: instrumentDate=not_found,expectedDate=20231003|59=3|60=20231003-05:34:05.006|103=3|109=105|110=0|150=8|151=0|544=1|8060=3|8164=EDP|8169=20231003-05:34:05.006971|8174=0|8214=0|10=122|
20231003-05:34:09.000 : 8=FIX.4.2|9=154|35=F|34=30|49=RUAT_EDP_5|52=20231003-05:34:09.000|56=FSX_UAT_EDP|11=16963112492703000029|41=16963112446021000028|54=2|55=2927|60=20231003-05:34:09.860438|10=183|
20231003-05:34:09.000 : 8=FIX.4.2|9=224|35=D|34=31|49=RUAT_EDP_5|52=20231003-05:34:09.000|56=FSX_UAT_EDP|1=RSIT_EDP_ACCOUNT_5|11=16963112493610000030|38=100|40=2|44=22000|47=P|54=1|55=3915|59=3|60=20231003-05:34:09.862397|110=0|544=1|8060=3|8164=EDP|8174=0|8214=0|10=047|
20231003-05:34:09.000 : 8=FIX.4.2|9=289|35=9|34=30|49=FSX_UAT_EDP|52=20231003-05:34:09.914|56=RUAT_EDP_5|11=16963112492703000029|37=None|39=8|41=16963112446021000028|58=ERROR_10010031,Requested order does not exist: origClOrdId=16963112446021000028, symbol=2927|60=20231003-05:34:09.914|102=1|434=1|8169=20231003-05:34:09.914170|10=063|
20231003-05:34:10.000 : 8=FIX.4.2|9=434|35=8|34=31|49=FSX_UAT_EDP|52=20231003-05:34:10.017|56=RUAT_EDP_5|1=RSIT_EDP_ACCOUNT_5|6=0|11=16963112493610000030|14=0|17=None|20=0|31=0|32=0|37=None|38=100|39=8|40=2|44=22000|47=P|54=1|55=3915|58=ERROR_10010013,No available instrument risk check data found: instrumentDate=not_found,expectedDate=20231003|59=3|60=20231003-05:34:10.017|103=3|109=105|110=0|150=8|151=0|544=1|8060=3|8164=EDP|8169=20231003-05:34:10.017717|8174=0|8214=0|10=047|
20231003-05:34:14.000 : 8=FIX.4.2|9=154|35=F|34=32|49=RUAT_EDP_5|52=20231003-05:34:14.000|56=FSX_UAT_EDP|11=16963112540183000031|41=16963112493610000030|54=1|55=3915|60=20231003-05:34:14.874323|10=160|
20231003-05:34:14.000 : 8=FIX.4.2|9=223|35=D|34=33|49=RUAT_EDP_5|52=20231003-05:34:14.000|56=FSX_UAT_EDP|1=RSIT_EDP_ACCOUNT_5|11=16963112542146000032|38=500|40=2|44=1800|47=P|54=2|55=3916|59=3|60=20231003-05:34:14.877360|110=0|544=1|8060=3|8164=EDP|8174=0|8214=0|10=000|
20231003-05:34:14.000 : 8=FIX.4.2|9=289|35=9|34=32|49=FSX_UAT_EDP|52=20231003-05:34:14.930|56=RUAT_EDP_5|11=16963112540183000031|37=None|39=8|41=16963112493610000030|58=ERROR_10010031,Requested order does not exist: origClOrdId=16963112493610000030, symbol=3915|60=20231003-05:34:14.930|102=1|434=1|8169=20231003-05:34:14.930153|10=033|
20231003-05:34:15.000 : 8=FIX.4.2|9=433|35=8|34=33|49=FSX_UAT_EDP|52=20231003-05:34:15.036|56=RUAT_EDP_5|1=RSIT_EDP_ACCOUNT_5|6=0|11=16963112542146000032|14=0|17=None|20=0|31=0|32=0|37=None|38=500|39=8|40=2|44=1800|47=P|54=2|55=3916|58=ERROR_10010013,No available instrument risk check data found: instrumentDate=not_found,expectedDate=20231003|59=3|60=20231003-05:34:15.036|103=3|109=105|110=0|150=8|151=0|544=1|8060=3|8164=EDP|8169=20231003-05:34:15.036791|8174=0|8214=0|10=032|
20231003-05:34:19.000 : 8=FIX.4.2|9=154|35=F|34=34|49=RUAT_EDP_5|52=20231003-05:34:19.000|56=FSX_UAT_EDP|11=16963112592018000033|41=16963112542146000032|54=2|55=3916|60=20231003-05:34:19.892911|10=184|
20231003-05:34:19.000 : 8=FIX.4.2|9=215|35=D|34=35|49=RUAT_EDP_5|52=20231003-05:34:19.000|56=FSX_UAT_EDP|1=RSIT_EDP_ACCOUNT_5|11=16963112594620000034|38=500|40=1|47=P|54=1|55=1332|59=3|60=20231003-05:34:19.895711|110=0|544=1|8060=3|8164=EDP|8174=0|8214=0|10=152|
20231003-05:34:20.000 : 8=FIX.4.2|9=289|35=9|34=34|49=FSX_UAT_EDP|52=20231003-05:34:19.950|56=RUAT_EDP_5|11=16963112592018000033|37=None|39=8|41=16963112542146000032|58=ERROR_10010031,Requested order does not exist: origClOrdId=16963112542146000032, symbol=3916|60=20231003-05:34:19.947|102=1|434=1|8169=20231003-05:34:19.947678|10=089|
20231003-05:34:20.000 : 8=FIX.4.2|9=405|35=8|34=35|49=FSX_UAT_EDP|52=20231003-05:34:20.056|56=RUAT_EDP_5|1=RSIT_EDP_ACCOUNT_5|6=0|11=16963112594620000034|14=0|17=None|20=0|31=0|32=0|37=None|38=500|39=8|40=1|44=0|47=P|54=1|55=1332|58=ERROR_10010009,Invalid account: senderCompID=RUAT_EDP_5, account=RSIT_EDP_ACCOUNT_5|59=3|60=20231003-05:34:20.055|103=3|109=105|110=0|150=8|151=0|544=1|8060=3|8164=EDP|8169=20231003-05:34:20.055940|8174=0|8214=0|10=153|
20231003-05:34:20.000 : 8=FIX.4.2|9=215|35=D|34=36|49=RUAT_EDP_5|52=20231003-05:34:20.000|56=FSX_UAT_EDP|1=RSIT_EDP_ACCOUNT_5|11=16963112604270000035|38=500|40=1|47=P|54=2|55=1332|59=3|60=20231003-05:34:20.902288|110=0|544=1|8060=3|8164=EDP|8174=0|8214=0|10=130|
20231003-05:34:21.000 : 8=FIX.4.2|9=405|35=8|34=36|49=FSX_UAT_EDP|52=20231003-05:34:20.960|56=RUAT_EDP_5|1=RSIT_EDP_ACCOUNT_5|6=0|11=16963112604270000035|14=0|17=None|20=0|31=0|32=0|37=None|38=500|39=8|40=1|44=0|47=P|54=2|55=1332|58=ERROR_10010009,Invalid account: senderCompID=RUAT_EDP_5, account=RSIT_EDP_ACCOUNT_5|59=3|60=20231003-05:34:20.960|103=3|109=105|110=0|150=8|151=0|544=1|8060=3|8164=EDP|8169=20231003-05:34:20.960358|8174=0|8214=0|10=166|
20231003-05:34:21.000 : 8=FIX.4.2|9=224|35=D|34=37|49=RUAT_EDP_5|52=20231003-05:34:21.000|56=FSX_UAT_EDP|1=RSIT_EDP_ACCOUNT_5|11=16963112614126000036|38=500|40=2|44=650.1|47=P|54=1|55=1332|59=3|60=20231003-05:34:21.913233|110=0|544=1|8060=3|8164=EDP|8174=0|8214=0|10=031|
20231003-05:34:22.000 : 8=FIX.4.2|9=409|35=8|34=37|49=FSX_UAT_EDP|52=20231003-05:34:21.968|56=RUAT_EDP_5|1=RSIT_EDP_ACCOUNT_5|6=0|11=16963112614126000036|14=0|17=None|20=0|31=0|32=0|37=None|38=500|39=8|40=2|44=650.1|47=P|54=1|55=1332|58=ERROR_10010009,Invalid account: senderCompID=RUAT_EDP_5, account=RSIT_EDP_ACCOUNT_5|59=3|60=20231003-05:34:21.968|103=3|109=105|110=0|150=8|151=0|544=1|8060=3|8164=EDP|8169=20231003-05:34:21.968564|8174=0|8214=0|10=145|
20231003-05:34:22.000 : 8=FIX.4.2|9=224|35=D|34=38|49=RUAT_EDP_5|52=20231003-05:34:22.000|56=FSX_UAT_EDP|1=RSIT_EDP_ACCOUNT_5|11=16963112625723000037|38=500|40=2|44=600.1|47=P|54=2|55=1332|59=3|60=20231003-05:34:22.921749|110=0|544=1|8060=3|8164=EDP|8174=0|8214=0|10=047|
20231003-05:34:23.000 : 8=FIX.4.2|9=409|35=8|34=38|49=FSX_UAT_EDP|52=20231003-05:34:22.976|56=RUAT_EDP_5|1=RSIT_EDP_ACCOUNT_5|6=0|11=16963112625723000037|14=0|17=None|20=0|31=0|32=0|37=None|38=500|39=8|40=2|44=600.1|47=P|54=2|55=1332|58=ERROR_10010009,Invalid account: senderCompID=RUAT_EDP_5, account=RSIT_EDP_ACCOUNT_5|59=3|60=20231003-05:34:22.976|103=3|109=105|110=0|150=8|151=0|544=1|8060=3|8164=EDP|8169=20231003-05:34:22.976466|8174=0|8214=0|10=149|
20231003-05:34:23.000 : 8=FIX.4.2|9=222|35=D|34=39|49=RUAT_EDP_5|52=20231003-05:34:23.000|56=FSX_UAT_EDP|1=RSIT_EDP_ACCOUNT_5|11=16963112636837000038|38=500|40=2|44=369|47=P|54=2|55=9999|59=3|60=20231003-05:34:23.932738|110=0|544=1|8060=3|8164=EDP|8174=0|8214=0|10=001|
20231003-05:34:24.000 : 8=FIX.4.2|9=432|35=8|34=39|49=FSX_UAT_EDP|52=20231003-05:34:23.988|56=RUAT_EDP_5|1=RSIT_EDP_ACCOUNT_5|6=0|11=16963112636837000038|14=0|17=None|20=0|31=0|32=0|37=None|38=500|39=8|40=2|44=369|47=P|54=2|55=9999|58=ERROR_10010013,No available instrument risk check data found: instrumentDate=not_found,expectedDate=20231003|59=3|60=20231003-05:34:23.988|103=3|109=105|110=0|150=8|151=0|544=1|8060=3|8164=EDP|8169=20231003-05:34:23.988255|8174=0|8214=0|10=072|
20231003-05:34:24.000 : 8=FIX.4.2|9=222|35=D|34=40|49=RUAT_EDP_5|52=20231003-05:34:24.000|56=FSX_UAT_EDP|1=RSIT_EDP_ACCOUNT_5|11=16963112645376000039|38=500|40=2|44=580|47=P|54=2|55=2980|59=3|60=20231003-05:34:24.940273|110=0|544=1|8060=3|8164=EDP|8174=0|8214=0|10=221|
20231003-05:34:25.000 : 8=FIX.4.2|9=432|35=8|34=40|49=FSX_UAT_EDP|52=20231003-05:34:24.994|56=RUAT_EDP_5|1=RSIT_EDP_ACCOUNT_5|6=0|11=16963112645376000039|14=0|17=None|20=0|31=0|32=0|37=None|38=500|39=8|40=2|44=580|47=P|54=2|55=2980|58=ERROR_10010013,No available instrument risk check data found: instrumentDate=not_found,expectedDate=20231003|59=3|60=20231003-05:34:24.994|103=3|109=105|110=0|150=8|151=0|544=1|8060=3|8164=EDP|8169=20231003-05:34:24.994658|8174=0|8214=0|10=042|
20231003-05:34:25.000 : 8=FIX.4.2|9=222|35=D|34=41|49=RUAT_EDP_5|52=20231003-05:34:25.000|56=FSX_UAT_EDP|1=RSIT_EDP_ACCOUNT_5|11=16963112657651000040|38=500|40=2|44=119|47=P|54=2|55=2980|59=3|60=20231003-05:34:25.953813|110=0|544=1|8060=3|8164=EDP|8174=0|8214=0|10=217|
20231003-05:34:26.000 : 8=FIX.4.2|9=432|35=8|34=41|49=FSX_UAT_EDP|52=20231003-05:34:26.009|56=RUAT_EDP_5|1=RSIT_EDP_ACCOUNT_5|6=0|11=16963112657651000040|14=0|17=None|20=0|31=0|32=0|37=None|38=500|39=8|40=2|44=119|47=P|54=2|55=2980|58=ERROR_10010013,No available instrument risk check data found: instrumentDate=not_found,expectedDate=20231003|59=3|60=20231003-05:34:26.009|103=3|109=105|110=0|150=8|151=0|544=1|8060=3|8164=EDP|8169=20231003-05:34:26.009451|8174=0|8214=0|10=246|
20231003-05:34:26.000 : 8=FIX.4.2|9=225|35=D|34=42|49=RUAT_EDP_5|52=20231003-05:34:26.000|56=FSX_UAT_EDP|1=RSIT_EDP_ACCOUNT_5|11=16963112667325000041|38=500|40=2|44=148.25|47=P|54=2|55=1682|59=3|60=20231003-05:34:26.964272|110=0|544=1|8060=3|8164=EDP|8174=0|8214=0|10=117|
20231003-05:34:27.000 : 8=FIX.4.2|9=435|35=8|34=42|49=FSX_UAT_EDP|52=20231003-05:34:27.019|56=RUAT_EDP_5|1=RSIT_EDP_ACCOUNT_5|6=0|11=16963112667325000041|14=0|17=None|20=0|31=0|32=0|37=None|38=500|39=8|40=2|44=148.25|47=P|54=2|55=1682|58=ERROR_10010013,No available instrument risk check data found: instrumentDate=not_found,expectedDate=20231003|59=3|60=20231003-05:34:27.019|103=3|109=105|110=0|150=8|151=0|544=1|8060=3|8164=EDP|8169=20231003-05:34:27.019664|8174=0|8214=0|10=155|
20231003-05:34:27.000 : 8=FIX.4.2|9=225|35=D|34=43|49=RUAT_EDP_5|52=20231003-05:34:27.000|56=FSX_UAT_EDP|1=RSIT_EDP_ACCOUNT_5|11=16963112672081000042|38=500|40=2|44=1302.6|47=P|54=2|55=2002|59=3|60=20231003-05:34:27.973591|110=0|544=1|8060=3|8164=EDP|8174=0|8214=0|10=099|
20231003-05:34:28.000 : 8=FIX.4.2|9=422|35=8|34=43|49=FSX_UAT_EDP|52=20231003-05:34:28.028|56=RUAT_EDP_5|1=RSIT_EDP_ACCOUNT_5|6=0|11=16963112672081000042|14=0|17=None|20=0|31=0|32=0|37=None|38=500|39=8|40=2|44=1302.6|47=P|54=2|55=2002|58=ERROR_10010014,Price exceeds the high - low price range: price=1302.6, price_limit=[1491, 2291]|59=3|60=20231003-05:34:28.028|103=3|109=105|110=0|150=8|151=0|544=1|8060=3|8164=EDP|8169=20231003-05:34:28.028883|8174=0|8214=0|10=103|
20231003-05:34:28.000 : 8=FIX.4.2|9=225|35=D|34=44|49=RUAT_EDP_5|52=20231003-05:34:28.000|56=FSX_UAT_EDP|1=RSIT_EDP_ACCOUNT_5|11=16963112684618000043|38=500|40=2|44=5990.5|47=P|54=2|55=6965|59=3|60=20231003-05:34:28.981545|110=0|544=1|8060=3|8164=EDP|8174=0|8214=0|10=148|
20231003-05:34:29.000 : 8=FIX.4.2|9=410|35=8|34=44|49=FSX_UAT_EDP|52=20231003-05:34:29.044|56=RUAT_EDP_5|1=RSIT_EDP_ACCOUNT_5|6=0|11=16963112684618000043|14=0|17=None|20=0|31=0|32=0|37=None|38=500|39=8|40=2|44=5990.5|47=P|54=2|55=6965|58=ERROR_10010009,Invalid account: senderCompID=RUAT_EDP_5, account=RSIT_EDP_ACCOUNT_5|59=3|60=20231003-05:34:29.043|103=3|109=105|110=0|150=8|151=0|544=1|8060=3|8164=EDP|8169=20231003-05:34:29.043971|8174=0|8214=0|10=207|
20231003-05:34:29.000 : 8=FIX.4.2|9=224|35=D|34=45|49=RUAT_EDP_5|52=20231003-05:34:29.000|56=FSX_UAT_EDP|1=RSIT_EDP_ACCOUNT_5|11=16963112695163000044|38=500|40=2|44=24738|47=P|54=2|55=1577|59=3|60=20231003-05:34:29.995221|110=0|544=1|8060=3|8164=EDP|8174=0|8214=0|10=088|
20231003-05:34:30.000 : 8=FIX.4.2|9=434|35=8|34=45|49=FSX_UAT_EDP|52=20231003-05:34:30.054|56=RUAT_EDP_5|1=RSIT_EDP_ACCOUNT_5|6=0|11=16963112695163000044|14=0|17=None|20=0|31=0|32=0|37=None|38=500|39=8|40=2|44=24738|47=P|54=2|55=1577|58=ERROR_10010013,No available instrument risk check data found: instrumentDate=not_found,expectedDate=20231003|59=3|60=20231003-05:34:30.054|103=3|109=105|110=0|150=8|151=0|544=1|8060=3|8164=EDP|8169=20231003-05:34:30.054352|8174=0|8214=0|10=095|
20231003-05:34:31.000 : 8=FIX.4.2|9=224|35=D|34=46|49=RUAT_EDP_5|52=20231003-05:34:31.000|56=FSX_UAT_EDP|1=RSIT_EDP_ACCOUNT_5|11=16963112711457000045|38=500|40=2|44=50001|47=P|54=2|55=1624|59=3|60=20231003-05:34:31.010161|110=0|544=1|8060=3|8164=EDP|8174=0|8214=0|10=027|
20231003-05:34:31.000 : 8=FIX.4.2|9=434|35=8|34=46|49=FSX_UAT_EDP|52=20231003-05:34:31.066|56=RUAT_EDP_5|1=RSIT_EDP_ACCOUNT_5|6=0|11=16963112711457000045|14=0|17=None|20=0|31=0|32=0|37=None|38=500|39=8|40=2|44=50001|47=P|54=2|55=1624|58=ERROR_10010013,No available instrument risk check data found: instrumentDate=not_found,expectedDate=20231003|59=3|60=20231003-05:34:31.066|103=3|109=105|110=0|150=8|151=0|544=1|8060=3|8164=EDP|8169=20231003-05:34:31.066687|8174=0|8214=0|10=090|
20231003-05:34:32.000 : 8=FIX.4.2|9=224|35=D|34=47|49=RUAT_EDP_5|52=20231003-05:34:32.000|56=FSX_UAT_EDP|1=RSIT_EDP_ACCOUNT_5|11=16963112722761000046|38=500|40=2|44=590.5|47=P|54=2|55=6666|59=3|60=20231003-05:34:32.018387|110=0|544=1|8060=3|8164=EDP|8174=0|8214=0|10=071|
20231003-05:34:32.000 : 8=FIX.4.2|9=434|35=8|34=47|49=FSX_UAT_EDP|52=20231003-05:34:32.073|56=RUAT_EDP_5|1=RSIT_EDP_ACCOUNT_5|6=0|11=16963112722761000046|14=0|17=None|20=0|31=0|32=0|37=None|38=500|39=8|40=2|44=590.5|47=P|54=2|55=6666|58=ERROR_10010013,No available instrument risk check data found: instrumentDate=not_found,expectedDate=20231003|59=3|60=20231003-05:34:32.073|103=3|109=105|110=0|150=8|151=0|544=1|8060=3|8164=EDP|8169=20231003-05:34:32.073224|8174=0|8214=0|10=098|
20231003-05:34:33.000 : 8=FIX.4.2|9=223|35=D|34=48|49=RUAT_EDP_5|52=20231003-05:34:33.000|56=FSX_UAT_EDP|1=RSIT_EDP_ACCOUNT_5|11=16963112736853000047|38=500|40=2|44=4051|47=P|54=2|55=7740|59=3|60=20231003-05:34:33.026774|110=0|544=1|8060=3|8164=EDP|8174=0|8214=0|10=019|
20231003-05:34:33.000 : 8=FIX.4.2|9=433|35=8|34=48|49=FSX_UAT_EDP|52=20231003-05:34:33.082|56=RUAT_EDP_5|1=RSIT_EDP_ACCOUNT_5|6=0|11=16963112736853000047|14=0|17=None|20=0|31=0|32=0|37=None|38=500|39=8|40=2|44=4051|47=P|54=2|55=7740|58=ERROR_10010013,No available instrument risk check data found: instrumentDate=not_found,expectedDate=20231003|59=3|60=20231003-05:34:33.082|103=3|109=105|110=0|150=8|151=0|544=1|8060=3|8164=EDP|8169=20231003-05:34:33.082738|8174=0|8214=0|10=058|
20231003-05:34:34.000 : 8=FIX.4.2|9=223|35=D|34=49|49=RUAT_EDP_5|52=20231003-05:34:34.000|56=FSX_UAT_EDP|1=RSIT_EDP_ACCOUNT_5|11=16963112742035000048|38=500|40=2|44=7428|47=P|54=2|55=2222|59=3|60=20231003-05:34:34.036861|110=0|544=1|8060=3|8164=EDP|8174=0|8214=0|10=011|
20231003-05:34:34.000 : 8=FIX.4.2|9=433|35=8|34=49|49=FSX_UAT_EDP|52=20231003-05:34:34.095|56=RUAT_EDP_5|1=RSIT_EDP_ACCOUNT_5|6=0|11=16963112742035000048|14=0|17=None|20=0|31=0|32=0|37=None|38=500|39=8|40=2|44=7428|47=P|54=2|55=2222|58=ERROR_10010013,No available instrument risk check data found: instrumentDate=not_found,expectedDate=20231003|59=3|60=20231003-05:34:34.095|103=3|109=105|110=0|150=8|151=0|544=1|8060=3|8164=EDP|8169=20231003-05:34:34.095396|8174=0|8214=0|10=065|
20231003-05:34:35.000 : 8=FIX.4.2|9=224|35=D|34=50|49=RUAT_EDP_5|52=20231003-05:34:35.000|56=FSX_UAT_EDP|1=RSIT_EDP_ACCOUNT_5|11=16963112750871000049|38=500|40=2|44=46008|47=P|54=2|55=3476|59=3|60=20231003-05:34:35.044018|110=0|544=1|8060=3|8164=EDP|8174=0|8214=0|10=064|
20231003-05:34:35.000 : 8=FIX.4.2|9=434|35=8|34=50|49=FSX_UAT_EDP|52=20231003-05:34:35.101|56=RUAT_EDP_5|1=RSIT_EDP_ACCOUNT_5|6=0|11=16963112750871000049|14=0|17=None|20=0|31=0|32=0|37=None|38=500|39=8|40=2|44=46008|47=P|54=2|55=3476|58=ERROR_10010013,No available instrument risk check data found: instrumentDate=not_found,expectedDate=20231003|59=3|60=20231003-05:34:35.101|103=3|109=105|110=0|150=8|151=0|544=1|8060=3|8164=EDP|8169=20231003-05:34:35.101130|8174=0|8214=0|10=076|
20231003-05:34:36.000 : 8=FIX.4.2|9=223|35=D|34=51|49=RUAT_EDP_5|52=20231003-05:34:36.000|56=FSX_UAT_EDP|1=RSIT_EDP_ACCOUNT_5|11=16963112760261000050|38=50|40=2|44=56555|47=P|54=2|55=8963|59=3|60=20231003-05:34:36.052357|110=0|544=1|8060=3|8164=EDP|8174=0|8214=0|10=023|
20231003-05:34:36.000 : 8=FIX.4.2|9=433|35=8|34=51|49=FSX_UAT_EDP|52=20231003-05:34:36.110|56=RUAT_EDP_5|1=RSIT_EDP_ACCOUNT_5|6=0|11=16963112760261000050|14=0|17=None|20=0|31=0|32=0|37=None|38=50|39=8|40=2|44=56555|47=P|54=2|55=8963|58=ERROR_10010013,No available instrument risk check data found: instrumentDate=not_found,expectedDate=20231003|59=3|60=20231003-05:34:36.110|103=3|109=105|110=0|150=8|151=0|544=1|8060=3|8164=EDP|8169=20231003-05:34:36.110632|8174=0|8214=0|10=038|
20231003-05:34:37.000 : 8=FIX.4.2|9=225|35=D|34=52|49=RUAT_EDP_5|52=20231003-05:34:37.000|56=FSX_UAT_EDP|1=RSIT_EDP_ACCOUNT_5|11=16963112770325000051|38=500|40=2|44=401009|47=P|54=2|55=8964|59=3|60=20231003-05:34:37.062484|110=0|544=1|8060=3|8164=EDP|8174=0|8214=0|10=118|
20231003-05:34:37.000 : 8=FIX.4.2|9=435|35=8|34=52|49=FSX_UAT_EDP|52=20231003-05:34:37.117|56=RUAT_EDP_5|1=RSIT_EDP_ACCOUNT_5|6=0|11=16963112770325000051|14=0|17=None|20=0|31=0|32=0|37=None|38=500|39=8|40=2|44=401009|47=P|54=2|55=8964|58=ERROR_10010013,No available instrument risk check data found: instrumentDate=not_found,expectedDate=20231003|59=3|60=20231003-05:34:37.117|103=3|109=105|110=0|150=8|151=0|544=1|8060=3|8164=EDP|8169=20231003-05:34:37.117698|8174=0|8214=0|10=165|
20231003-05:34:38.000 : 8=FIX.4.2|9=214|35=D|34=53|49=RUAT_EDP_5|52=20231003-05:34:38.000|56=FSX_UAT_EDP|1=RSIT_EDP_ACCOUNT_5|11=16963112785402000052|38=99|40=1|47=P|54=2|55=1325|59=3|60=20231003-05:34:38.071765|110=0|544=1|8060=3|8164=EDP|8174=0|8214=0|10=116|
20231003-05:34:38.000 : 8=FIX.4.2|9=429|35=8|34=53|49=FSX_UAT_EDP|52=20231003-05:34:38.126|56=RUAT_EDP_5|1=RSIT_EDP_ACCOUNT_5|6=0|11=16963112785402000052|14=0|17=None|20=0|31=0|32=0|37=None|38=99|39=8|40=1|44=0|47=P|54=2|55=1325|58=ERROR_10010013,No available instrument risk check data found: instrumentDate=not_found,expectedDate=20231003|59=3|60=20231003-05:34:38.126|103=3|109=105|110=0|150=8|151=0|544=1|8060=3|8164=EDP|8169=20231003-05:34:38.126587|8174=0|8214=0|10=122|
20231003-05:34:39.000 : 8=FIX.4.2|9=213|35=D|34=54|49=RUAT_EDP_5|52=20231003-05:34:39.000|56=FSX_UAT_EDP|1=RSIT_EDP_ACCOUNT_5|11=16963112796572000053|38=0|40=1|47=P|54=2|55=1325|59=3|60=20231003-05:34:39.078689|110=0|544=1|8060=3|8164=EDP|8174=0|8214=0|10=075|
20231003-05:34:39.000 : 8=FIX.4.2|9=428|35=8|34=54|49=FSX_UAT_EDP|52=20231003-05:34:39.140|56=RUAT_EDP_5|1=RSIT_EDP_ACCOUNT_5|6=0|11=16963112796572000053|14=0|17=None|20=0|31=0|32=0|37=None|38=0|39=8|40=1|44=0|47=P|54=2|55=1325|58=ERROR_10010013,No available instrument risk check data found: instrumentDate=not_found,expectedDate=20231003|59=3|60=20231003-05:34:39.139|103=3|109=105|110=0|150=8|151=0|544=1|8060=3|8164=EDP|8169=20231003-05:34:39.139884|8174=0|8214=0|10=074|
20231003-05:34:40.000 : 8=FIX.4.2|9=215|35=D|34=55|49=RUAT_EDP_5|52=20231003-05:34:40.000|56=FSX_UAT_EDP|1=RSIT_EDP_ACCOUNT_5|11=16963112800173000054|38=100|40=1|47=P|54=2|55=1325|59=3|60=20231003-05:34:40.092873|110=0|544=1|8060=3|8164=EDP|8174=0|8214=0|10=134|
20231003-05:34:40.000 : 8=FIX.4.2|9=430|35=8|34=55|49=FSX_UAT_EDP|52=20231003-05:34:40.147|56=RUAT_EDP_5|1=RSIT_EDP_ACCOUNT_5|6=0|11=16963112800173000054|14=0|17=None|20=0|31=0|32=0|37=None|38=100|39=8|40=1|44=0|47=P|54=2|55=1325|58=ERROR_10010013,No available instrument risk check data found: instrumentDate=not_found,expectedDate=20231003|59=3|60=20231003-05:34:40.147|103=3|109=105|110=0|150=8|151=0|544=1|8060=3|8164=EDP|8169=20231003-05:34:40.147893|8174=0|8214=0|10=130|
20231003-05:34:41.000 : 8=FIX.4.2|9=215|35=D|34=56|49=RUAT_EDP_5|52=20231003-05:34:41.000|56=FSX_UAT_EDP|1=RSIT_EDP_ACCOUNT_5|11=16963112813147000055|38=200|40=1|47=P|54=2|55=1325|59=3|60=20231003-05:34:41.100127|110=0|544=1|8060=3|8164=EDP|8174=0|8214=0|10=126|
20231003-05:34:41.000 : 8=FIX.4.2|9=430|35=8|34=56|49=FSX_UAT_EDP|52=20231003-05:34:41.155|56=RUAT_EDP_5|1=RSIT_EDP_ACCOUNT_5|6=0|11=16963112813147000055|14=0|17=None|20=0|31=0|32=0|37=None|38=200|39=8|40=1|44=0|47=P|54=2|55=1325|58=ERROR_10010013,No available instrument risk check data found: instrumentDate=not_found,expectedDate=20231003|59=3|60=20231003-05:34:41.155|103=3|109=105|110=0|150=8|151=0|544=1|8060=3|8164=EDP|8169=20231003-05:34:41.155049|8174=0|8214=0|10=131|
20231003-05:34:42.000 : 8=FIX.4.2|9=215|35=D|34=57|49=RUAT_EDP_5|52=20231003-05:34:42.000|56=FSX_UAT_EDP|1=RSIT_EDP_ACCOUNT_5|11=16963112828731000056|38=101|40=1|47=P|54=2|55=1325|59=3|60=20231003-05:34:42.107517|110=0|544=1|8060=3|8164=EDP|8174=0|8214=0|10=145|
20231003-05:34:42.000 : 8=FIX.4.2|9=430|35=8|34=57|49=FSX_UAT_EDP|52=20231003-05:34:42.165|56=RUAT_EDP_5|1=RSIT_EDP_ACCOUNT_5|6=0|11=16963112828731000056|14=0|17=None|20=0|31=0|32=0|37=None|38=101|39=8|40=1|44=0|47=P|54=2|55=1325|58=ERROR_10010013,No available instrument risk check data found: instrumentDate=not_found,expectedDate=20231003|59=3|60=20231003-05:34:42.165|103=3|109=105|110=0|150=8|151=0|544=1|8060=3|8164=EDP|8169=20231003-05:34:42.165320|8174=0|8214=0|10=136|
20231003-05:34:43.000 : 8=FIX.4.2|9=213|35=D|34=58|49=RUAT_EDP_5|52=20231003-05:34:43.000|56=FSX_UAT_EDP|1=RSIT_EDP_ACCOUNT_5|11=16963112834173000057|38=1|40=1|47=P|54=2|55=8421|59=3|60=20231003-05:34:43.119005|110=0|544=1|8060=3|8164=EDP|8174=0|8214=0|10=046|
20231003-05:34:43.000 : 8=FIX.4.2|9=428|35=8|34=58|49=FSX_UAT_EDP|52=20231003-05:34:43.175|56=RUAT_EDP_5|1=RSIT_EDP_ACCOUNT_5|6=0|11=16963112834173000057|14=0|17=None|20=0|31=0|32=0|37=None|38=1|39=8|40=1|44=0|47=P|54=2|55=8421|58=ERROR_10010013,No available instrument risk check data found: instrumentDate=not_found,expectedDate=20231003|59=3|60=20231003-05:34:43.174|103=3|109=105|110=0|150=8|151=0|544=1|8060=3|8164=EDP|8169=20231003-05:34:43.174920|8174=0|8214=0|10=059|
20231003-05:34:44.000 : 8=FIX.4.2|9=213|35=D|34=59|49=RUAT_EDP_5|52=20231003-05:34:44.000|56=FSX_UAT_EDP|1=RSIT_EDP_ACCOUNT_5|11=16963112840354000058|38=7|40=1|47=P|54=2|55=1492|59=3|60=20231003-05:34:44.128343|110=0|544=1|8060=3|8164=EDP|8174=0|8214=0|10=060|
20231003-05:34:44.000 : 8=FIX.4.2|9=428|35=8|34=59|49=FSX_UAT_EDP|52=20231003-05:34:44.183|56=RUAT_EDP_5|1=RSIT_EDP_ACCOUNT_5|6=0|11=16963112840354000058|14=0|17=None|20=0|31=0|32=0|37=None|38=7|39=8|40=1|44=0|47=P|54=2|55=1492|58=ERROR_10010013,No available instrument risk check data found: instrumentDate=not_found,expectedDate=20231003|59=3|60=20231003-05:34:44.183|103=3|109=105|110=0|150=8|151=0|544=1|8060=3|8164=EDP|8169=20231003-05:34:44.183604|8174=0|8214=0|10=067|
20231003-05:34:45.000 : 8=FIX.4.2|9=216|35=D|34=60|49=RUAT_EDP_5|52=20231003-05:34:45.000|56=FSX_UAT_EDP|1=RSIT_EDP_ACCOUNT_5|11=16963112856715000059|38=1000|40=1|47=P|54=2|55=1319|59=3|60=20231003-05:34:45.138409|110=0|544=1|8060=3|8164=EDP|8174=0|8214=0|10=206|
20231003-05:34:45.000 : 8=FIX.4.2|9=431|35=8|34=60|49=FSX_UAT_EDP|52=20231003-05:34:45.194|56=RUAT_EDP_5|1=RSIT_EDP_ACCOUNT_5|6=0|11=16963112856715000059|14=0|17=None|20=0|31=0|32=0|37=None|38=1000|39=8|40=1|44=0|47=P|54=2|55=1319|58=ERROR_10010013,No available instrument risk check data found: instrumentDate=not_found,expectedDate=20231003|59=3|60=20231003-05:34:45.193|103=3|109=105|110=0|150=8|151=0|544=1|8060=3|8164=EDP|8169=20231003-05:34:45.193915|8174=0|8214=0|10=210|
20231003-05:34:46.000 : 8=FIX.4.2|9=216|35=D|34=61|49=RUAT_EDP_5|52=20231003-05:34:46.000|56=FSX_UAT_EDP|1=RSIT_EDP_ACCOUNT_5|11=16963112861754000060|38=2000|40=1|47=P|54=2|55=1319|59=3|60=20231003-05:34:46.147096|110=0|544=1|8060=3|8164=EDP|8174=0|8214=0|10=203|
20231003-05:34:46.000 : 8=FIX.4.2|9=431|35=8|34=61|49=FSX_UAT_EDP|52=20231003-05:34:46.202|56=RUAT_EDP_5|1=RSIT_EDP_ACCOUNT_5|6=0|11=16963112861754000060|14=0|17=None|20=0|31=0|32=0|37=None|38=2000|39=8|40=1|44=0|47=P|54=2|55=1319|58=ERROR_10010013,No available instrument risk check data found: instrumentDate=not_found,expectedDate=20231003|59=3|60=20231003-05:34:46.202|103=3|109=105|110=0|150=8|151=0|544=1|8060=3|8164=EDP|8169=20231003-05:34:46.202002|8174=0|8214=0|10=165|
20231003-05:34:47.000 : 8=FIX.4.2|9=216|35=D|34=62|49=RUAT_EDP_5|52=20231003-05:34:47.000|56=FSX_UAT_EDP|1=RSIT_EDP_ACCOUNT_5|11=16963112878310000061|38=1001|40=1|47=P|54=2|55=1319|59=3|60=20231003-05:34:47.153232|110=0|544=1|8060=3|8164=EDP|8174=0|8214=0|10=192|
20231003-05:34:47.000 : 8=FIX.4.2|9=431|35=8|34=62|49=FSX_UAT_EDP|52=20231003-05:34:47.209|56=RUAT_EDP_5|1=RSIT_EDP_ACCOUNT_5|6=0|11=16963112878310000061|14=0|17=None|20=0|31=0|32=0|37=None|38=1001|39=8|40=1|44=0|47=P|54=2|55=1319|58=ERROR_10010013,No available instrument risk check data found: instrumentDate=not_found,expectedDate=20231003|59=3|60=20231003-05:34:47.209|103=3|109=105|110=0|150=8|151=0|544=1|8060=3|8164=EDP|8169=20231003-05:34:47.209049|8174=0|8214=0|10=198|
20231003-05:34:48.000 : 8=FIX.4.2|9=217|35=D|34=63|49=RUAT_EDP_5|52=20231003-05:34:48.000|56=FSX_UAT_EDP|1=RSIT_EDP_ACCOUNT_5|11=16963112880485000062|38=10000|40=1|47=P|54=2|55=8301|59=3|60=20231003-05:34:48.162454|110=0|544=1|8060=3|8164=EDP|8174=0|8214=0|10=254|
20231003-05:34:48.000 : 8=FIX.4.2|9=432|35=8|34=63|49=FSX_UAT_EDP|52=20231003-05:34:48.217|56=RUAT_EDP_5|1=RSIT_EDP_ACCOUNT_5|6=0|11=16963112880485000062|14=0|17=None|20=0|31=0|32=0|37=None|38=10000|39=8|40=1|44=0|47=P|54=2|55=8301|58=ERROR_10010013,No available instrument risk check data found: instrumentDate=not_found,expectedDate=20231003|59=3|60=20231003-05:34:48.217|103=3|109=105|110=0|150=8|151=0|544=1|8060=3|8164=EDP|8169=20231003-05:34:48.217665|8174=0|8214=0|10=000|
20231003-05:34:49.000 : 8=FIX.4.2|9=215|35=D|34=64|49=RUAT_EDP_5|52=20231003-05:34:49.000|56=FSX_UAT_EDP|1=RSIT_EDP_ACCOUNT_5|11=16963112896481000063|38=500|40=9|47=P|54=2|55=1324|59=3|60=20231003-05:34:49.170622|110=0|544=1|8060=3|8164=EDP|8174=0|8214=0|10=169|
20231003-05:34:50.000 : 8=FIX.4.2|9=215|35=D|34=65|49=RUAT_EDP_5|52=20231003-05:34:50.000|56=FSX_UAT_EDP|1=RSIT_EDP_ACCOUNT_5|11=16963112903147000064|38=500|40=1|47=P|54=2|55=1324|59=6|60=20231003-05:34:50.176718|110=0|544=1|8060=3|8164=EDP|8174=0|8214=0|10=150|
20231003-05:34:50.000 : 8=FIX.4.2|9=430|35=8|34=64|49=FSX_UAT_EDP|52=20231003-05:34:49.226|56=RUAT_EDP_5|1=RSIT_EDP_ACCOUNT_5|6=0|11=16963112896481000063|14=0|17=None|20=0|31=0|32=0|37=None|38=500|39=8|40=9|44=0|47=P|54=2|55=1324|58=ERROR_10010013,No available instrument risk check data found: instrumentDate=not_found,expectedDate=20231003|59=3|60=20231003-05:34:49.225|103=3|109=105|110=0|150=8|151=0|544=1|8060=3|8164=EDP|8169=20231003-05:34:49.225968|8174=0|8214=0|10=180|
20231003-05:34:50.000 : 8=FIX.4.2|9=430|35=8|34=65|49=FSX_UAT_EDP|52=20231003-05:34:50.231|56=RUAT_EDP_5|1=RSIT_EDP_ACCOUNT_5|6=0|11=16963112903147000064|14=0|17=None|20=0|31=0|32=0|37=None|38=500|39=8|40=1|44=0|47=P|54=2|55=1324|58=ERROR_10010013,No available instrument risk check data found: instrumentDate=not_found,expectedDate=20231003|59=6|60=20231003-05:34:50.231|103=3|109=105|110=0|150=8|151=0|544=1|8060=3|8164=EDP|8169=20231003-05:34:50.231013|8174=0|8214=0|10=112|
20231003-05:34:51.000 : 8=FIX.4.2|9=215|35=D|34=66|49=RUAT_EDP_5|52=20231003-05:34:51.000|56=FSX_UAT_EDP|1=RSIT_EDP_ACCOUNT_5|11=16963112912457000065|38=500|40=1|47=P|54=5|55=1324|59=3|60=20231003-05:34:51.185011|110=0|544=1|8060=3|8164=EDP|8174=0|8214=0|10=144|
20231003-05:34:51.000 : 8=FIX.4.2|9=430|35=8|34=66|49=FSX_UAT_EDP|52=20231003-05:34:51.240|56=RUAT_EDP_5|1=RSIT_EDP_ACCOUNT_5|6=0|11=16963112912457000065|14=0|17=None|20=0|31=0|32=0|37=None|38=500|39=8|40=1|44=0|47=P|54=5|55=1324|58=ERROR_10010013,No available instrument risk check data found: instrumentDate=not_found,expectedDate=20231003|59=3|60=20231003-05:34:51.240|103=3|109=105|110=0|150=8|151=0|544=1|8060=3|8164=EDP|8169=20231003-05:34:51.240420|8174=0|8214=0|10=123|
20231003-05:34:52.000 : 8=FIX.4.2|9=216|35=D|34=67|49=RUAT_EDP_5|52=20231003-05:34:52.000|56=FSX_UAT_EDP|1=RSIT_EDP_ACCOUNT_53|11=16963112928205000066|38=500|40=1|47=P|54=1|55=1324|59=3|60=20231003-05:34:52.190120|110=0|544=1|8060=3|8164=EDP|8174=0|8214=0|10=191|
20231003-05:34:52.000 : 8=FIX.4.2|9=431|35=8|34=67|49=FSX_UAT_EDP|52=20231003-05:34:52.245|56=RUAT_EDP_5|1=RSIT_EDP_ACCOUNT_53|6=0|11=16963112928205000066|14=0|17=None|20=0|31=0|32=0|37=None|38=500|39=8|40=1|44=0|47=P|54=1|55=1324|58=ERROR_10010013,No available instrument risk check data found: instrumentDate=not_found,expectedDate=20231003|59=3|60=20231003-05:34:52.245|103=3|109=105|110=0|150=8|151=0|544=1|8060=3|8164=EDP|8169=20231003-05:34:52.245497|8174=0|8214=0|10=203|
20231003-05:34:53.000 : 8=FIX.4.2|9=215|35=D|34=68|49=RUAT_EDP_5|52=20231003-05:34:53.000|56=FSX_UAT_EDP|1=RSIT_EDP_ACCOUNT_5|11=16963112930741000067|38=500|40=1|47=S|54=1|55=1324|59=3|60=20231003-05:34:53.197085|110=0|544=1|8060=3|8164=EDP|8174=0|8214=0|10=161|
20231003-05:34:53.000 : 8=FIX.4.2|9=430|35=8|34=68|49=FSX_UAT_EDP|52=20231003-05:34:53.255|56=RUAT_EDP_5|1=RSIT_EDP_ACCOUNT_5|6=0|11=16963112930741000067|14=0|17=None|20=0|31=0|32=0|37=None|38=500|39=8|40=1|44=0|47=S|54=1|55=1324|58=ERROR_10010013,No available instrument risk check data found: instrumentDate=not_found,expectedDate=20231003|59=3|60=20231003-05:34:53.255|103=3|109=105|110=0|150=8|151=0|544=1|8060=3|8164=EDP|8169=20231003-05:34:53.255096|8174=0|8214=0|10=155|
20231003-05:34:54.000 : 8=FIX.4.2|9=215|35=D|34=69|49=RUAT_EDP_5|52=20231003-05:34:54.000|56=FSX_UAT_EDP|1=RSIT_EDP_ACCOUNT_5|11=16963112943257000068|38=500|40=1|47=P|54=1|55=1324|59=3|60=20231003-05:34:54.205514|110=0|544=2|8060=3|8164=EDP|8174=0|8214=0|10=156|
20231003-05:34:54.000 : 8=FIX.4.2|9=430|35=8|34=69|49=FSX_UAT_EDP|52=20231003-05:34:54.260|56=RUAT_EDP_5|1=RSIT_EDP_ACCOUNT_5|6=0|11=16963112943257000068|14=0|17=None|20=0|31=0|32=0|37=None|38=500|39=8|40=1|44=0|47=P|54=1|55=1324|58=ERROR_10010013,No available instrument risk check data found: instrumentDate=not_found,expectedDate=20231003|59=3|60=20231003-05:34:54.260|103=3|109=105|110=0|150=8|151=0|544=2|8060=3|8164=EDP|8169=20231003-05:34:54.260806|8174=0|8214=0|10=151|
20231003-05:34:55.000 : 8=FIX.4.2|9=215|35=D|34=70|49=RUAT_EDP_5|52=20231003-05:34:55.000|56=FSX_UAT_EDP|1=RSIT_EDP_ACCOUNT_5|11=16963112953726000069|38=500|40=1|47=P|54=1|55=1324|59=3|60=20231003-05:34:55.213024|110=0|544=1|8060=3|8164=EDP|8174=0|8214=1|10=148|
20231003-05:34:55.000 : 8=FIX.4.2|9=430|35=8|34=70|49=FSX_UAT_EDP|52=20231003-05:34:55.269|56=RUAT_EDP_5|1=RSIT_EDP_ACCOUNT_5|6=0|11=16963112953726000069|14=0|17=None|20=0|31=0|32=0|37=None|38=500|39=8|40=1|44=0|47=P|54=1|55=1324|58=ERROR_10010013,No available instrument risk check data found: instrumentDate=not_found,expectedDate=20231003|59=3|60=20231003-05:34:55.269|103=3|109=105|110=0|150=8|151=0|544=1|8060=3|8164=EDP|8169=20231003-05:34:55.269685|8174=0|8214=1|10=181|
20231003-05:34:56.000 : 8=FIX.4.2|9=215|35=D|34=71|49=RUAT_EDP_5|52=20231003-05:34:56.000|56=FSX_UAT_EDP|1=RSIT_EDP_ACCOUNT_5|11=16963112965067000070|38=500|40=1|47=P|54=1|55=1324|59=3|60=20231003-05:34:56.221878|110=0|544=1|8060=3|8164=ROL|8174=0|8214=0|10=179|
20231003-05:34:56.000 : 8=FIX.4.2|9=394|35=8|34=71|49=FSX_UAT_EDP|52=20231003-05:34:56.275|56=RUAT_EDP_5|1=RSIT_EDP_ACCOUNT_5|6=0|11=16963112965067000070|14=0|17=None|20=0|31=0|32=0|37=None|38=500|39=8|40=1|44=0|47=P|54=1|55=1324|58=ERROR_10010028,CrossingPriceType is not supported: crossingPriceType=ROL|59=3|60=20231003-05:34:56.275|103=3|109=105|110=0|150=8|151=0|544=1|8060=3|8164=ROL|8169=20231003-05:34:56.275236|8174=0|8214=0|10=178|
20231003-05:34:57.000 : 8=FIX.4.2|9=210|35=D|34=72|49=RUAT_EDP_5|52=20231003-05:34:57.000|56=FSX_UAT_EDP|1=RSIT_EDP_ACCOUNT_5|11=16963112974068000071|38=500|40=1|54=1|55=1325|59=3|60=20231003-05:34:57.228496|110=0|544=1|8060=3|8164=EDP|8174=0|8214=0|10=170|
20231003-05:34:57.000 : 8=FIX.4.2|9=430|35=8|34=72|49=FSX_UAT_EDP|52=20231003-05:34:57.284|56=RUAT_EDP_5|1=RSIT_EDP_ACCOUNT_5|6=0|11=16963112974068000071|14=0|17=None|20=0|31=0|32=0|37=None|38=500|39=8|40=1|44=0|47=P|54=1|55=1325|58=ERROR_10010013,No available instrument risk check data found: instrumentDate=not_found,expectedDate=20231003|59=3|60=20231003-05:34:57.284|103=3|109=105|110=0|150=8|151=0|544=1|8060=3|8164=EDP|8169=20231003-05:34:57.284145|8174=0|8214=0|10=166|
20231003-05:34:58.000 : 8=FIX.4.2|9=210|35=D|34=73|49=RUAT_EDP_5|52=20231003-05:34:58.000|56=FSX_UAT_EDP|1=RSIT_EDP_ACCOUNT_5|11=16963112985028000072|38=500|40=1|47=P|54=1|55=1325|60=20231003-05:34:58.237688|110=0|544=1|8060=3|8164=EDP|8174=0|8214=0|10=201|
20231003-05:34:58.000 : 8=FIX.4.2|9=430|35=8|34=73|49=FSX_UAT_EDP|52=20231003-05:34:58.292|56=RUAT_EDP_5|1=RSIT_EDP_ACCOUNT_5|6=0|11=16963112985028000072|14=0|17=None|20=0|31=0|32=0|37=None|38=500|39=8|40=1|44=0|47=P|54=1|55=1325|58=ERROR_10010013,No available instrument risk check data found: instrumentDate=not_found,expectedDate=20231003|59=3|60=20231003-05:34:58.292|103=3|109=105|110=0|150=8|151=0|544=1|8060=3|8164=EDP|8169=20231003-05:34:58.292859|8174=0|8214=0|10=178|
20231003-05:34:59.000 : 8=FIX.4.2|9=209|35=D|34=74|49=RUAT_EDP_5|52=20231003-05:34:59.000|56=FSX_UAT_EDP|1=RSIT_EDP_ACCOUNT_5|11=16963112993215000073|38=500|40=1|47=P|54=1|55=1325|59=3|60=20231003-05:34:59.248150|110=0|8060=3|8164=EDP|8174=0|8214=0|10=151|
20231003-05:34:59.000 : 8=FIX.4.2|9=430|35=8|34=74|49=FSX_UAT_EDP|52=20231003-05:34:59.303|56=RUAT_EDP_5|1=RSIT_EDP_ACCOUNT_5|6=0|11=16963112993215000073|14=0|17=None|20=0|31=0|32=0|37=None|38=500|39=8|40=1|44=0|47=P|54=1|55=1325|58=ERROR_10010013,No available instrument risk check data found: instrumentDate=not_found,expectedDate=20231003|59=3|60=20231003-05:34:59.303|103=3|109=105|110=0|150=8|151=0|544=1|8060=3|8164=EDP|8169=20231003-05:34:59.303732|8174=0|8214=0|10=149|
20231003-05:35:00.000 : 8=FIX.4.2|9=215|35=D|34=75|49=RUAT_EDP_5|52=20231003-05:35:00.000|56=FSX_UAT_EDP|1=RSIT_EDP_ACCOUNT_5|11=16963113006182000074|38=500|40=1|47=P|54=1|55=1325|59=3|60=20231003-05:35:00.251320|110=0|544=1|8060=3|8164=EDP|8174=0|8214=0|10=118|
20231003-05:35:00.000 : 8=FIX.4.2|9=430|35=8|34=75|49=FSX_UAT_EDP|52=20231003-05:35:00.305|56=RUAT_EDP_5|1=RSIT_EDP_ACCOUNT_5|6=0|11=16963113006182000074|14=0|17=None|20=0|31=0|32=0|37=None|38=500|39=8|40=1|44=0|47=P|54=1|55=1325|58=ERROR_10010013,No available instrument risk check data found: instrumentDate=not_found,expectedDate=20231003|59=3|60=20231003-05:35:00.305|103=3|109=105|110=0|150=8|151=0|544=1|8060=3|8164=EDP|8169=20231003-05:35:00.305760|8174=0|8214=0|10=108|
20231003-05:35:01.000 : 8=FIX.4.2|9=208|35=D|34=76|49=RUAT_EDP_5|52=20231003-05:35:01.000|56=FSX_UAT_EDP|1=RSIT_EDP_ACCOUNT_5|11=16963113012478000075|38=500|40=1|47=P|54=1|55=1325|59=3|60=20231003-05:35:01.258589|110=0|544=1|8060=3|8164=EDP|8174=0|10=092|
20231003-05:35:01.000 : 8=FIX.4.2|9=430|35=8|34=76|49=FSX_UAT_EDP|52=20231003-05:35:01.314|56=RUAT_EDP_5|1=RSIT_EDP_ACCOUNT_5|6=0|11=16963113012478000075|14=0|17=None|20=0|31=0|32=0|37=None|38=500|39=8|40=1|44=0|47=P|54=1|55=1325|58=ERROR_10010013,No available instrument risk check data found: instrumentDate=not_found,expectedDate=20231003|59=3|60=20231003-05:35:01.313|103=3|109=105|110=0|150=8|151=0|544=1|8060=3|8164=EDP|8169=20231003-05:35:01.313990|8174=0|8214=0|10=121|
20231003-05:35:02.000 : 8=FIX.4.2|9=209|35=D|34=77|49=RUAT_EDP_5|52=20231003-05:35:02.000|56=FSX_UAT_EDP|1=RSIT_EDP_ACCOUNT_5|11=16963113027156000076|38=500|40=1|47=P|54=1|55=1325|59=3|60=20231003-05:35:02.266461|544=1|8060=3|8164=EDP|8174=0|8214=0|10=145|
20231003-05:35:02.000 : 8=FIX.4.2|9=430|35=8|34=77|49=FSX_UAT_EDP|52=20231003-05:35:02.321|56=RUAT_EDP_5|1=RSIT_EDP_ACCOUNT_5|6=0|11=16963113027156000076|14=0|17=None|20=0|31=0|32=0|37=None|38=500|39=8|40=1|44=0|47=P|54=1|55=1325|58=ERROR_10010013,No available instrument risk check data found: instrumentDate=not_found,expectedDate=20231003|59=3|60=20231003-05:35:02.321|103=3|109=105|110=0|150=8|151=0|544=1|8060=3|8164=EDP|8169=20231003-05:35:02.321043|8174=0|8214=0|10=110|
20231003-05:35:03.000 : 8=FIX.4.2|9=208|35=D|34=78|49=RUAT_EDP_5|52=20231003-05:35:03.000|56=FSX_UAT_EDP|1=RSIT_EDP_ACCOUNT_5|11=16963113031876000077|38=500|40=1|47=P|54=1|55=1325|59=3|60=20231003-05:35:03.273553|110=0|544=1|8164=EDP|8174=0|8214=0|10=089|
20231003-05:35:03.000 : 8=FIX.4.2|9=430|35=8|34=78|49=FSX_UAT_EDP|52=20231003-05:35:03.329|56=RUAT_EDP_5|1=RSIT_EDP_ACCOUNT_5|6=0|11=16963113031876000077|14=0|17=None|20=0|31=0|32=0|37=None|38=500|39=8|40=1|44=0|47=P|54=1|55=1325|58=ERROR_10010013,No available instrument risk check data found: instrumentDate=not_found,expectedDate=20231003|59=3|60=20231003-05:35:03.329|103=3|109=105|110=0|150=8|151=0|544=1|8060=3|8164=EDP|8169=20231003-05:35:03.329085|8174=0|8214=0|10=149|
20231003-05:35:04.000 : 8=FIX.4.2|9=208|35=D|34=79|49=RUAT_EDP_5|52=20231003-05:35:04.000|56=FSX_UAT_EDP|1=RSIT_EDP_ACCOUNT_5|11=16963113043574000078|38=500|40=1|47=P|54=1|55=1325|59=3|60=20231003-05:35:04.277140|110=0|544=1|8060=3|8164=EDP|8214=0|10=084|
20231003-05:35:04.000 : 8=FIX.4.2|9=430|35=8|34=79|49=FSX_UAT_EDP|52=20231003-05:35:04.331|56=RUAT_EDP_5|1=RSIT_EDP_ACCOUNT_5|6=0|11=16963113043574000078|14=0|17=None|20=0|31=0|32=0|37=None|38=500|39=8|40=1|44=0|47=P|54=1|55=1325|58=ERROR_10010013,No available instrument risk check data found: instrumentDate=not_found,expectedDate=20231003|59=3|60=20231003-05:35:04.331|103=3|109=105|110=0|150=8|151=0|544=1|8060=3|8164=EDP|8169=20231003-05:35:04.331054|8174=0|8214=0|10=127|
20231003-05:35:05.000 : 8=FIX.4.2|9=163|35=D|34=80|49=RUAT_EDP_5|52=20231003-05:35:05.000|56=FSX_UAT_EDP|1=RSIT_EDP_ACCOUNT_5|11=16963113050362000079|38=500|40=1|54=1|55=1325|60=20231003-05:35:05.285355|10=005|
20231003-05:35:05.000 : 8=FIX.4.2|9=430|35=8|34=80|49=FSX_UAT_EDP|52=20231003-05:35:05.340|56=RUAT_EDP_5|1=RSIT_EDP_ACCOUNT_5|6=0|11=16963113050362000079|14=0|17=None|20=0|31=0|32=0|37=None|38=500|39=8|40=1|44=0|47=P|54=1|55=1325|58=ERROR_10010013,No available instrument risk check data found: instrumentDate=not_found,expectedDate=20231003|59=3|60=20231003-05:35:05.340|103=3|109=105|110=0|150=8|151=0|544=1|8060=3|8164=EDP|8169=20231003-05:35:05.340006|8174=0|8214=0|10=113|
20231003-05:35:22.000 : 8=FIX.4.2|9=83|35=A|34=1|49=RUAT_EDP_5|52=20231003-05:35:22.000|56=FSX_UAT_EDP|98=0|108=300|141=Y|10=194|
20231003-05:35:23.000 : 8=FIX.4.2|9=83|35=A|34=1|49=FSX_UAT_EDP|52=20231003-05:35:22.949|56=RUAT_EDP_5|98=0|108=300|141=Y|10=216|
20231003-05:35:25.000 : 8=FIX.4.2|9=214|35=D|34=2|49=RUAT_EDP_5|52=20231003-05:35:25.000|56=FSX_UAT_EDP|1=RUAT_EDP_ACCOUNT_5|11=16963113258356000001|38=500|40=1|47=P|54=1|55=3002|59=3|60=20231003-05:35:25.160019|110=0|544=1|8060=3|8164=EDP|8174=0|8214=0|10=067|
20231003-05:35:25.000 : 8=FIX.4.2|9=429|35=8|34=2|49=FSX_UAT_EDP|52=20231003-05:35:25.218|56=RUAT_EDP_5|1=RUAT_EDP_ACCOUNT_5|6=0|11=16963113258356000001|14=0|17=None|20=0|31=0|32=0|37=None|38=500|39=8|40=1|44=0|47=P|54=1|55=3002|58=ERROR_10010013,No available instrument risk check data found: instrumentDate=not_found,expectedDate=20231003|59=3|60=20231003-05:35:25.218|103=3|109=105|110=0|150=8|151=0|544=1|8060=3|8164=EDP|8169=20231003-05:35:25.218601|8174=0|8214=0|10=072|
20231003-05:36:25.000 : 8=FIX.4.2|9=214|35=D|34=3|49=RUAT_EDP_5|52=20231003-05:36:25.000|56=FSX_UAT_EDP|1=RUAT_EDP_ACCOUNT_5|11=16963113854015000002|38=500|40=1|47=P|54=1|55=2980|59=3|60=20231003-05:36:25.168082|110=0|544=1|8060=3|8164=EDP|8174=0|8214=0|10=087|
20231003-05:36:25.000 : 8=FIX.4.2|9=429|35=8|34=3|49=FSX_UAT_EDP|52=20231003-05:36:25.233|56=RUAT_EDP_5|1=RUAT_EDP_ACCOUNT_5|6=0|11=16963113854015000002|14=0|17=None|20=0|31=0|32=0|37=None|38=500|39=8|40=1|44=0|47=P|54=1|55=2980|58=ERROR_10010013,No available instrument risk check data found: instrumentDate=not_found,expectedDate=20231003|59=3|60=20231003-05:36:25.233|103=3|109=105|110=0|150=8|151=0|544=1|8060=3|8164=EDP|8169=20231003-05:36:25.233483|8174=0|8214=0|10=084|
20231003-05:36:26.000 : 8=FIX.4.2|9=214|35=D|34=4|49=RUAT_EDP_5|52=20231003-05:36:26.000|56=FSX_UAT_EDP|1=RUAT_EDP_ACCOUNT_5|11=16963113865743000003|38=500|40=1|47=P|54=2|55=2982|59=3|60=20231003-05:36:26.181849|110=0|544=1|8060=3|8164=EDP|8174=0|8214=0|10=110|
20231003-05:36:26.000 : 8=FIX.4.2|9=429|35=8|34=4|49=FSX_UAT_EDP|52=20231003-05:36:26.242|56=RUAT_EDP_5|1=RUAT_EDP_ACCOUNT_5|6=0|11=16963113865743000003|14=0|17=None|20=0|31=0|32=0|37=None|38=500|39=8|40=1|44=0|47=P|54=2|55=2982|58=ERROR_10010013,No available instrument risk check data found: instrumentDate=not_found,expectedDate=20231003|59=3|60=20231003-05:36:26.242|103=3|109=105|110=0|150=8|151=0|544=1|8060=3|8164=EDP|8169=20231003-05:36:26.242234|8174=0|8214=0|10=096|
20231003-05:36:27.000 : 8=FIX.4.2|9=215|35=D|34=5|49=RUAT_EDP_5|52=20231003-05:36:27.000|56=FSX_UAT_EDP|1=RUAT_EDP_ACCOUNT_5|11=16963113875813000004|38=500|40=2|44=3215|47=P|54=1|55=2980|59=3|60=20231003-05:36:27.191059|110=0|544=1|8060=3|8164=EDP|8214=0|10=153|
20231003-05:36:27.000 : 8=FIX.4.2|9=432|35=8|34=5|49=FSX_UAT_EDP|52=20231003-05:36:27.251|56=RUAT_EDP_5|1=RUAT_EDP_ACCOUNT_5|6=0|11=16963113875813000004|14=0|17=None|20=0|31=0|32=0|37=None|38=500|39=8|40=2|44=3215|47=P|54=1|55=2980|58=ERROR_10010013,No available instrument risk check data found: instrumentDate=not_found,expectedDate=20231003|59=3|60=20231003-05:36:27.251|103=3|109=105|110=0|150=8|151=0|544=1|8060=3|8164=EDP|8169=20231003-05:36:27.251291|8174=0|8214=0|10=250|
20231003-05:36:28.000 : 8=FIX.4.2|9=214|35=D|34=6|49=RUAT_EDP_5|52=20231003-05:36:28.000|56=FSX_UAT_EDP|1=RUAT_EDP_ACCOUNT_5|11=16963113885061000005|38=500|40=2|44=195|47=P|54=2|55=2982|59=3|60=20231003-05:36:28.196833|110=0|544=1|8060=3|8164=EDP|8214=0|10=116|
20231003-05:36:28.000 : 8=FIX.4.2|9=431|35=8|34=6|49=FSX_UAT_EDP|52=20231003-05:36:28.256|56=RUAT_EDP_5|1=RUAT_EDP_ACCOUNT_5|6=0|11=16963113885061000005|14=0|17=None|20=0|31=0|32=0|37=None|38=500|39=8|40=2|44=195|47=P|54=2|55=2982|58=ERROR_10010013,No available instrument risk check data found: instrumentDate=not_found,expectedDate=20231003|59=3|60=20231003-05:36:28.256|103=3|109=105|110=0|150=8|151=0|544=1|8060=3|8164=EDP|8169=20231003-05:36:28.256630|8174=0|8214=0|10=221|
20231003-05:36:29.000 : 8=FIX.4.2|9=214|35=D|34=7|49=RUAT_EDP_5|52=20231003-05:36:29.000|56=FSX_UAT_EDP|1=RUAT_EDP_ACCOUNT_5|11=16963113890731000006|38=300|40=1|47=P|54=1|55=2989|59=3|60=20231003-05:36:29.206088|110=0|544=1|8060=3|8164=EDP|8174=0|8214=0|10=114|
20231003-05:36:29.000 : 8=FIX.4.2|9=429|35=8|34=7|49=FSX_UAT_EDP|52=20231003-05:36:29.265|56=RUAT_EDP_5|1=RUAT_EDP_ACCOUNT_5|6=0|11=16963113890731000006|14=0|17=None|20=0|31=0|32=0|37=None|38=300|39=8|40=1|44=0|47=P|54=1|55=2989|58=ERROR_10010013,No available instrument risk check data found: instrumentDate=not_found,expectedDate=20231003|59=3|60=20231003-05:36:29.265|103=3|109=105|110=0|150=8|151=0|544=1|8060=3|8164=EDP|8169=20231003-05:36:29.265723|8174=0|8214=0|10=128|
20231003-05:36:30.000 : 8=FIX.4.2|9=215|35=D|34=8|49=RUAT_EDP_5|52=20231003-05:36:30.000|56=FSX_UAT_EDP|1=RUAT_EDP_ACCOUNT_5|11=16963113903865000007|38=300|40=2|44=2500|47=P|54=2|55=1308|59=3|60=20231003-05:36:30.213897|110=0|544=1|8060=3|8164=EDP|8214=0|10=139|
20231003-05:36:30.000 : 8=FIX.4.2|9=432|35=8|34=8|49=FSX_UAT_EDP|52=20231003-05:36:30.272|56=RUAT_EDP_5|1=RUAT_EDP_ACCOUNT_5|6=0|11=16963113903865000007|14=0|17=None|20=0|31=0|32=0|37=None|38=300|39=8|40=2|44=2500|47=P|54=2|55=1308|58=ERROR_10010013,No available instrument risk check data found: instrumentDate=not_found,expectedDate=20231003|59=3|60=20231003-05:36:30.272|103=3|109=105|110=0|150=8|151=0|544=1|8060=3|8164=EDP|8169=20231003-05:36:30.272689|8174=0|8214=0|10=245|
20231003-05:36:31.000 : 8=FIX.4.2|9=215|35=D|34=9|49=RUAT_EDP_5|52=20231003-05:36:31.000|56=FSX_UAT_EDP|1=RUAT_EDP_ACCOUNT_5|11=16963113910365000008|38=1000|40=1|47=P|54=1|55=2993|59=3|60=20231003-05:36:31.218782|110=0|544=1|8060=3|8164=EDP|8174=0|8214=0|10=146|
20231003-05:36:31.000 : 8=FIX.4.2|9=430|35=8|34=9|49=FSX_UAT_EDP|52=20231003-05:36:31.279|56=RUAT_EDP_5|1=RUAT_EDP_ACCOUNT_5|6=0|11=16963113910365000008|14=0|17=None|20=0|31=0|32=0|37=None|38=1000|39=8|40=1|44=0|47=P|54=1|55=2993|58=ERROR_10010013,No available instrument risk check data found: instrumentDate=not_found,expectedDate=20231003|59=3|60=20231003-05:36:31.279|103=3|109=105|110=0|150=8|151=0|544=1|8060=3|8164=EDP|8169=20231003-05:36:31.279242|8174=0|8214=0|10=151|
20231003-05:36:32.000 : 8=FIX.4.2|9=223|35=D|34=10|49=RUAT_EDP_5|52=20231003-05:36:32.000|56=FSX_UAT_EDP|1=RUAT_EDP_ACCOUNT_5|11=16963113926243000009|38=1000|40=2|44=780|47=P|54=2|55=3154|59=3|60=20231003-05:36:32.226122|110=0|544=1|8060=3|8164=EDP|8174=0|8214=0|10=238|
20231003-05:36:32.000 : 8=FIX.4.2|9=433|35=8|34=10|49=FSX_UAT_EDP|52=20231003-05:36:32.287|56=RUAT_EDP_5|1=RUAT_EDP_ACCOUNT_5|6=0|11=16963113926243000009|14=0|17=None|20=0|31=0|32=0|37=None|38=1000|39=8|40=2|44=780|47=P|54=2|55=3154|58=ERROR_10010013,No available instrument risk check data found: instrumentDate=not_found,expectedDate=20231003|59=3|60=20231003-05:36:32.286|103=3|109=105|110=0|150=8|151=0|544=1|8060=3|8164=EDP|8169=20231003-05:36:32.286892|8174=0|8214=0|10=053|
20231003-05:36:33.000 : 8=FIX.4.2|9=214|35=D|34=11|49=RUAT_EDP_5|52=20231003-05:36:33.000|56=FSX_UAT_EDP|1=RUAT_EDP_ACCOUNT_5|11=16963113935028000010|38=99|40=1|47=P|54=1|55=1499|59=3|60=20231003-05:36:33.235232|110=0|544=1|8060=3|8164=EDP|8174=0|8214=0|10=096|
20231003-05:36:33.000 : 8=FIX.4.2|9=429|35=8|34=11|49=FSX_UAT_EDP|52=20231003-05:36:33.294|56=RUAT_EDP_5|1=RUAT_EDP_ACCOUNT_5|6=0|11=16963113935028000010|14=0|17=None|20=0|31=0|32=0|37=None|38=99|39=8|40=1|44=0|47=P|54=1|55=1499|58=ERROR_10010013,No available instrument risk check data found: instrumentDate=not_found,expectedDate=20231003|59=3|60=20231003-05:36:33.294|103=3|109=105|110=0|150=8|151=0|544=1|8060=3|8164=EDP|8169=20231003-05:36:33.294545|8174=0|8214=0|10=120|
20231003-05:36:34.000 : 8=FIX.4.2|9=214|35=D|34=12|49=RUAT_EDP_5|52=20231003-05:36:34.000|56=FSX_UAT_EDP|1=RUAT_EDP_ACCOUNT_5|11=16963113947314000011|38=99|40=1|47=P|54=2|55=1321|59=3|60=20231003-05:36:34.243638|110=0|544=1|8060=3|8164=EDP|8174=0|8214=0|10=095|
20231003-05:36:34.000 : 8=FIX.4.2|9=429|35=8|34=12|49=FSX_UAT_EDP|52=20231003-05:36:34.305|56=RUAT_EDP_5|1=RUAT_EDP_ACCOUNT_5|6=0|11=16963113947314000011|14=0|17=None|20=0|31=0|32=0|37=None|38=99|39=8|40=1|44=0|47=P|54=2|55=1321|58=ERROR_10010013,No available instrument risk check data found: instrumentDate=not_found,expectedDate=20231003|59=3|60=20231003-05:36:34.304|103=3|109=105|110=0|150=8|151=0|544=1|8060=3|8164=EDP|8169=20231003-05:36:34.304915|8174=0|8214=0|10=089|
20231003-05:36:35.000 : 8=FIX.4.2|9=222|35=D|34=13|49=RUAT_EDP_5|52=20231003-05:36:35.000|56=FSX_UAT_EDP|1=RUAT_EDP_ACCOUNT_5|11=16963113957148000012|38=99|40=2|44=9195|47=P|54=1|55=1499|59=3|60=20231003-05:36:35.251643|110=0|544=1|8060=3|8164=EDP|8174=0|8214=0|10=241|
20231003-05:36:35.000 : 8=FIX.4.2|9=432|35=8|34=13|49=FSX_UAT_EDP|52=20231003-05:36:35.312|56=RUAT_EDP_5|1=RUAT_EDP_ACCOUNT_5|6=0|11=16963113957148000012|14=0|17=None|20=0|31=0|32=0|37=None|38=99|39=8|40=2|44=9195|47=P|54=1|55=1499|58=ERROR_10010013,No available instrument risk check data found: instrumentDate=not_found,expectedDate=20231003|59=3|60=20231003-05:36:35.311|103=3|109=105|110=0|150=8|151=0|544=1|8060=3|8164=EDP|8169=20231003-05:36:35.311904|8174=0|8214=0|10=014|
20231003-05:36:36.000 : 8=FIX.4.2|9=223|35=D|34=14|49=RUAT_EDP_5|52=20231003-05:36:36.000|56=FSX_UAT_EDP|1=RUAT_EDP_ACCOUNT_5|11=16963113965647000013|38=99|40=2|44=33260|47=P|54=2|55=1321|59=3|60=20231003-05:36:36.257192|110=0|544=1|8060=3|8164=EDP|8174=0|8214=0|10=021|
20231003-05:36:36.000 : 8=FIX.4.2|9=433|35=8|34=14|49=FSX_UAT_EDP|52=20231003-05:36:36.318|56=RUAT_EDP_5|1=RUAT_EDP_ACCOUNT_5|6=0|11=16963113965647000013|14=0|17=None|20=0|31=0|32=0|37=None|38=99|39=8|40=2|44=33260|47=P|54=2|55=1321|58=ERROR_10010013,No available instrument risk check data found: instrumentDate=not_found,expectedDate=20231003|59=3|60=20231003-05:36:36.318|103=3|109=105|110=0|150=8|151=0|544=1|8060=3|8164=EDP|8169=20231003-05:36:36.318552|8174=0|8214=0|10=065|
20231003-05:36:37.000 : 8=FIX.4.2|9=214|35=D|34=15|49=RUAT_EDP_5|52=20231003-05:36:37.000|56=FSX_UAT_EDP|1=RUAT_EDP_ACCOUNT_5|11=16963113975281000014|38=10|40=1|47=P|54=1|55=1496|59=3|60=20231003-05:36:37.266445|110=0|544=1|8060=3|8164=EDP|8174=0|8214=0|10=107|
20231003-05:36:37.000 : 8=FIX.4.2|9=429|35=8|34=15|49=FSX_UAT_EDP|52=20231003-05:36:37.326|56=RUAT_EDP_5|1=RUAT_EDP_ACCOUNT_5|6=0|11=16963113975281000014|14=0|17=None|20=0|31=0|32=0|37=None|38=10|39=8|40=1|44=0|47=P|54=1|55=1496|58=ERROR_10010013,No available instrument risk check data found: instrumentDate=not_found,expectedDate=20231003|59=3|60=20231003-05:36:37.325|103=3|109=105|110=0|150=8|151=0|544=1|8060=3|8164=EDP|8169=20231003-05:36:37.325929|8174=0|8214=0|10=117|
20231003-05:36:42.000 : 8=FIX.4.2|9=154|35=F|34=16|49=RUAT_EDP_5|52=20231003-05:36:42.000|56=FSX_UAT_EDP|11=16963114027810000015|41=16963113975281000014|54=1|55=1496|60=20231003-05:36:42.277504|10=181|
20231003-05:36:42.000 : 8=FIX.4.2|9=222|35=D|34=17|49=RUAT_EDP_5|52=20231003-05:36:42.000|56=FSX_UAT_EDP|1=RUAT_EDP_ACCOUNT_5|11=16963114021425000016|38=100|40=2|44=851|47=P|54=2|55=2927|59=3|60=20231003-05:36:42.282553|110=0|544=1|8060=3|8164=EDP|8174=0|8214=0|10=201|
20231003-05:36:42.000 : 8=FIX.4.2|9=289|35=9|34=16|49=FSX_UAT_EDP|52=20231003-05:36:42.339|56=RUAT_EDP_5|11=16963114027810000015|37=None|39=8|41=16963113975281000014|58=ERROR_10010031,Requested order does not exist: origClOrdId=16963113975281000014, symbol=1496|60=20231003-05:36:42.339|102=1|434=1|8169=20231003-05:36:42.339558|10=089|
20231003-05:36:42.000 : 8=FIX.4.2|9=432|35=8|34=17|49=FSX_UAT_EDP|52=20231003-05:36:42.803|56=RUAT_EDP_5|1=RUAT_EDP_ACCOUNT_5|6=0|11=16963114021425000016|14=0|17=None|20=0|31=0|32=0|37=None|38=100|39=8|40=2|44=851|47=P|54=2|55=2927|58=ERROR_10010013,No available instrument risk check data found: instrumentDate=not_found,expectedDate=20231003|59=3|60=20231003-05:36:42.803|103=3|109=105|110=0|150=8|151=0|544=1|8060=3|8164=EDP|8169=20231003-05:36:42.803058|8174=0|8214=0|10=241|
20231003-05:36:47.000 : 8=FIX.4.2|9=154|35=F|34=18|49=RUAT_EDP_5|52=20231003-05:36:47.000|56=FSX_UAT_EDP|11=16963114077165000017|41=16963114021425000016|54=2|55=2927|60=20231003-05:36:47.293853|10=194|
20231003-05:36:47.000 : 8=FIX.4.2|9=215|35=D|34=19|49=RUAT_EDP_5|52=20231003-05:36:47.000|56=FSX_UAT_EDP|1=RUAT_EDP_ACCOUNT_5|11=16963114075718000018|38=200|40=1|47=P|54=1|55=3915|59=3|60=20231003-05:36:47.298955|110=0|544=1|8060=3|8164=EDP|8174=0|8214=0|10=173|
20231003-05:36:47.000 : 8=FIX.4.2|9=289|35=9|34=18|49=FSX_UAT_EDP|52=20231003-05:36:47.356|56=RUAT_EDP_5|11=16963114077165000017|37=None|39=8|41=16963114021425000016|58=ERROR_10010031,Requested order does not exist: origClOrdId=16963114021425000016, symbol=2927|60=20231003-05:36:47.356|102=1|434=1|8169=20231003-05:36:47.356357|10=080|
20231003-05:36:47.000 : 8=FIX.4.2|9=430|35=8|34=19|49=FSX_UAT_EDP|52=20231003-05:36:47.480|56=RUAT_EDP_5|1=RUAT_EDP_ACCOUNT_5|6=0|11=16963114075718000018|14=0|17=None|20=0|31=0|32=0|37=None|38=200|39=8|40=1|44=0|47=P|54=1|55=3915|58=ERROR_10010013,No available instrument risk check data found: instrumentDate=not_found,expectedDate=20231003|59=3|60=20231003-05:36:47.480|103=3|109=105|110=0|150=8|151=0|544=1|8060=3|8164=EDP|8169=20231003-05:36:47.480199|8174=0|8214=0|10=168|
20231003-05:36:52.000 : 8=FIX.4.2|9=154|35=F|34=20|49=RUAT_EDP_5|52=20231003-05:36:52.000|56=FSX_UAT_EDP|11=16963114124071000019|41=16963114075718000018|54=1|55=3915|60=20231003-05:36:52.311816|10=173|
20231003-05:36:52.000 : 8=FIX.4.2|9=223|35=D|34=21|49=RUAT_EDP_5|52=20231003-05:36:52.000|56=FSX_UAT_EDP|1=RUAT_EDP_ACCOUNT_5|11=16963114123607000020|38=200|40=2|44=1703|47=P|54=2|55=3916|59=3|60=20231003-05:36:52.314099|110=0|544=1|8060=3|8164=EDP|8174=0|8214=0|10=245|
20231003-05:36:52.000 : 8=FIX.4.2|9=289|35=9|34=20|49=FSX_UAT_EDP|52=20231003-05:36:52.370|56=RUAT_EDP_5|11=16963114124071000019|37=None|39=8|41=16963114075718000018|58=ERROR_10010031,Requested order does not exist: origClOrdId=16963114075718000018, symbol=3915|60=20231003-05:36:52.370|102=1|434=1|8169=20231003-05:36:52.370202|10=059|
20231003-05:36:52.000 : 8=FIX.4.2|9=433|35=8|34=21|49=FSX_UAT_EDP|52=20231003-05:36:52.491|56=RUAT_EDP_5|1=RUAT_EDP_ACCOUNT_5|6=0|11=16963114123607000020|14=0|17=None|20=0|31=0|32=0|37=None|38=200|39=8|40=2|44=1703|47=P|54=2|55=3916|58=ERROR_10010013,No available instrument risk check data found: instrumentDate=not_found,expectedDate=20231003|59=3|60=20231003-05:36:52.491|103=3|109=105|110=0|150=8|151=0|544=1|8060=3|8164=EDP|8169=20231003-05:36:52.491785|8174=0|8214=0|10=045|
20231003-05:36:57.000 : 8=FIX.4.2|9=154|35=F|34=22|49=RUAT_EDP_5|52=20231003-05:36:57.000|56=FSX_UAT_EDP|11=16963114174703000021|41=16963114123607000020|54=1|55=3916|60=20231003-05:36:57.327344|10=173|
20231003-05:36:57.000 : 8=FIX.4.2|9=214|35=D|34=23|49=RUAT_EDP_5|52=20231003-05:36:57.000|56=FSX_UAT_EDP|1=RUAT_EDP_ACCOUNT_5|11=16963114171407000022|38=88|40=1|47=P|54=1|55=1329|59=3|60=20231003-05:36:57.328390|110=0|544=1|8060=3|8164=EDP|8174=0|8214=0|10=106|
20231003-05:36:57.000 : 8=FIX.4.2|9=289|35=9|34=22|49=FSX_UAT_EDP|52=20231003-05:36:57.385|56=RUAT_EDP_5|11=16963114174703000021|37=None|39=8|41=16963114123607000020|58=ERROR_10010031,Requested order does not exist: origClOrdId=16963114123607000020, symbol=3916|60=20231003-05:36:57.385|102=1|434=1|8169=20231003-05:36:57.385607|10=072|
20231003-05:36:57.000 : 8=FIX.4.2|9=429|35=8|34=23|49=FSX_UAT_EDP|52=20231003-05:36:57.507|56=RUAT_EDP_5|1=RUAT_EDP_ACCOUNT_5|6=0|11=16963114171407000022|14=0|17=None|20=0|31=0|32=0|37=None|38=88|39=8|40=1|44=0|47=P|54=1|55=1329|58=ERROR_10010013,No available instrument risk check data found: instrumentDate=not_found,expectedDate=20231003|59=3|60=20231003-05:36:57.507|103=3|109=105|110=0|150=8|151=0|544=1|8060=3|8164=EDP|8169=20231003-05:36:57.507818|8174=0|8214=0|10=122|
20231003-05:36:58.000 : 8=FIX.4.2|9=214|35=D|34=24|49=RUAT_EDP_5|52=20231003-05:36:58.000|56=FSX_UAT_EDP|1=RUAT_EDP_ACCOUNT_5|11=16963114187584000023|38=88|40=1|47=P|54=2|55=1346|59=3|60=20231003-05:36:58.334680|110=0|544=1|8060=3|8164=EDP|8174=0|8214=0|10=122|
20231003-05:36:58.000 : 8=FIX.4.2|9=429|35=8|34=24|49=FSX_UAT_EDP|52=20231003-05:36:58.393|56=RUAT_EDP_5|1=RUAT_EDP_ACCOUNT_5|6=0|11=16963114187584000023|14=0|17=None|20=0|31=0|32=0|37=None|38=88|39=8|40=1|44=0|47=P|54=2|55=1346|58=ERROR_10010013,No available instrument risk check data found: instrumentDate=not_found,expectedDate=20231003|59=3|60=20231003-05:36:58.393|103=3|109=105|110=0|150=8|151=0|544=1|8060=3|8164=EDP|8169=20231003-05:36:58.393760|8174=0|8214=0|10=145|
20231003-05:36:59.000 : 8=FIX.4.2|9=223|35=D|34=25|49=RUAT_EDP_5|52=20231003-05:36:59.000|56=FSX_UAT_EDP|1=RUAT_EDP_ACCOUNT_5|11=16963114193684000024|38=88|40=2|44=33790|47=P|54=1|55=1329|59=3|60=20231003-05:36:59.341678|110=0|544=1|8060=3|8164=EDP|8174=0|8214=0|10=046|
20231003-05:36:59.000 : 8=FIX.4.2|9=433|35=8|34=25|49=FSX_UAT_EDP|52=20231003-05:36:59.400|56=RUAT_EDP_5|1=RUAT_EDP_ACCOUNT_5|6=0|11=16963114193684000024|14=0|17=None|20=0|31=0|32=0|37=None|38=88|39=8|40=2|44=33790|47=P|54=1|55=1329|58=ERROR_10010013,No available instrument risk check data found: instrumentDate=not_found,expectedDate=20231003|59=3|60=20231003-05:36:59.400|103=3|109=105|110=0|150=8|151=0|544=1|8060=3|8164=EDP|8169=20231003-05:36:59.400787|8174=0|8214=0|10=078|
20231003-05:37:00.000 : 8=FIX.4.2|9=223|35=D|34=26|49=RUAT_EDP_5|52=20231003-05:37:00.000|56=FSX_UAT_EDP|1=RUAT_EDP_ACCOUNT_5|11=16963114208374000025|38=88|40=2|44=33360|47=P|54=2|55=1346|59=3|60=20231003-05:37:00.345260|110=0|544=1|8060=3|8164=EDP|8174=0|8214=0|10=255|
20231003-05:37:00.000 : 8=FIX.4.2|9=433|35=8|34=26|49=FSX_UAT_EDP|52=20231003-05:37:00.404|56=RUAT_EDP_5|1=RUAT_EDP_ACCOUNT_5|6=0|11=16963114208374000025|14=0|17=None|20=0|31=0|32=0|37=None|38=88|39=8|40=2|44=33360|47=P|54=2|55=1346|58=ERROR_10010013,No available instrument risk check data found: instrumentDate=not_found,expectedDate=20231003|59=3|60=20231003-05:37:00.404|103=3|109=105|110=0|150=8|151=0|544=1|8060=3|8164=EDP|8169=20231003-05:37:00.404323|8174=0|8214=0|10=025|
20231003-05:37:01.000 : 8=FIX.4.2|9=214|35=D|34=27|49=RUAT_EDP_5|52=20231003-05:37:01.000|56=FSX_UAT_EDP|1=RUAT_EDP_ACCOUNT_5|11=16963114210168000026|38=10|40=1|47=P|54=1|55=1496|59=3|60=20231003-05:37:01.348030|110=0|544=1|8060=3|8164=EDP|8174=0|8214=0|10=075|
20231003-05:37:01.000 : 8=FIX.4.2|9=429|35=8|34=27|49=FSX_UAT_EDP|52=20231003-05:37:01.407|56=RUAT_EDP_5|1=RUAT_EDP_ACCOUNT_5|6=0|11=16963114210168000026|14=0|17=None|20=0|31=0|32=0|37=None|38=10|39=8|40=1|44=0|47=P|54=1|55=1496|58=ERROR_10010013,No available instrument risk check data found: instrumentDate=not_found,expectedDate=20231003|59=3|60=20231003-05:37:01.407|103=3|109=105|110=0|150=8|151=0|544=1|8060=3|8164=EDP|8169=20231003-05:37:01.407173|8174=0|8214=0|10=079|
20231003-05:37:06.000 : 8=FIX.4.2|9=154|35=F|34=28|49=RUAT_EDP_5|52=20231003-05:37:06.000|56=FSX_UAT_EDP|11=16963114267486000027|41=16963114210168000026|54=1|55=1496|60=20231003-05:37:06.360242|10=186|
20231003-05:37:06.000 : 8=FIX.4.2|9=215|35=D|34=29|49=RUAT_EDP_5|52=20231003-05:37:06.000|56=FSX_UAT_EDP|1=RUAT_EDP_ACCOUNT_5|11=16963114268620000028|38=100|40=1|47=P|54=2|55=2927|59=3|60=20231003-05:37:06.361470|110=0|544=1|8060=3|8164=EDP|8174=0|8214=0|10=148|
20231003-05:37:06.000 : 8=FIX.4.2|9=289|35=9|34=28|49=FSX_UAT_EDP|52=20231003-05:37:06.420|56=RUAT_EDP_5|11=16963114267486000027|37=None|39=8|41=16963114210168000026|58=ERROR_10010031,Requested order does not exist: origClOrdId=16963114210168000026, symbol=1496|60=20231003-05:37:06.420|102=1|434=1|8169=20231003-05:37:06.420111|10=051|
20231003-05:37:06.000 : 8=FIX.4.2|9=430|35=8|34=29|49=FSX_UAT_EDP|52=20231003-05:37:06.544|56=RUAT_EDP_5|1=RUAT_EDP_ACCOUNT_5|6=0|11=16963114268620000028|14=0|17=None|20=0|31=0|32=0|37=None|38=100|39=8|40=1|44=0|47=P|54=2|55=2927|58=ERROR_10010013,No available instrument risk check data found: instrumentDate=not_found,expectedDate=20231003|59=3|60=20231003-05:37:06.544|103=3|109=105|110=0|150=8|151=0|544=1|8060=3|8164=EDP|8169=20231003-05:37:06.544062|8174=0|8214=0|10=148|
20231003-05:37:11.000 : 8=FIX.4.2|9=154|35=F|34=30|49=RUAT_EDP_5|52=20231003-05:37:11.000|56=FSX_UAT_EDP|11=16963114312534000029|41=16963114268620000028|54=2|55=2927|60=20231003-05:37:11.370880|10=176|
20231003-05:37:11.000 : 8=FIX.4.2|9=224|35=D|34=31|49=RUAT_EDP_5|52=20231003-05:37:11.000|56=FSX_UAT_EDP|1=RUAT_EDP_ACCOUNT_5|11=16963114316435000030|38=100|40=2|44=22000|47=P|54=1|55=3915|59=3|60=20231003-05:37:11.372726|110=0|544=1|8060=3|8164=EDP|8174=0|8214=0|10=026|
20231003-05:37:11.000 : 8=FIX.4.2|9=289|35=9|34=30|49=FSX_UAT_EDP|52=20231003-05:37:11.430|56=RUAT_EDP_5|11=16963114312534000029|37=None|39=8|41=16963114268620000028|58=ERROR_10010031,Requested order does not exist: origClOrdId=16963114268620000028, symbol=2927|60=20231003-05:37:11.430|102=1|434=1|8169=20231003-05:37:11.430165|10=047|
20231003-05:37:11.000 : 8=FIX.4.2|9=434|35=8|34=31|49=FSX_UAT_EDP|52=20231003-05:37:11.551|56=RUAT_EDP_5|1=RUAT_EDP_ACCOUNT_5|6=0|11=16963114316435000030|14=0|17=None|20=0|31=0|32=0|37=None|38=100|39=8|40=2|44=22000|47=P|54=1|55=3915|58=ERROR_10010013,No available instrument risk check data found: instrumentDate=not_found,expectedDate=20231003|59=3|60=20231003-05:37:11.551|103=3|109=105|110=0|150=8|151=0|544=1|8060=3|8164=EDP|8169=20231003-05:37:11.551781|8174=0|8214=0|10=064|
20231003-05:37:16.000 : 8=FIX.4.2|9=154|35=F|34=32|49=RUAT_EDP_5|52=20231003-05:37:16.000|56=FSX_UAT_EDP|11=16963114363526000031|41=16963114316435000030|54=1|55=3915|60=20231003-05:37:16.381444|10=174|
20231003-05:37:16.000 : 8=FIX.4.2|9=223|35=D|34=33|49=RUAT_EDP_5|52=20231003-05:37:16.000|56=FSX_UAT_EDP|1=RUAT_EDP_ACCOUNT_5|11=16963114365043000032|38=500|40=2|44=1800|47=P|54=2|55=3916|59=3|60=20231003-05:37:16.382792|110=0|544=1|8060=3|8164=EDP|8174=0|8214=0|10=005|
20231003-05:37:16.000 : 8=FIX.4.2|9=289|35=9|34=32|49=FSX_UAT_EDP|52=20231003-05:37:16.444|56=RUAT_EDP_5|11=16963114363526000031|37=None|39=8|41=16963114316435000030|58=ERROR_10010031,Requested order does not exist: origClOrdId=16963114316435000030, symbol=3915|60=20231003-05:37:16.443|102=1|434=1|8169=20231003-05:37:16.443924|10=060|
20231003-05:37:16.000 : 8=FIX.4.2|9=433|35=8|34=33|49=FSX_UAT_EDP|52=20231003-05:37:16.907|56=RUAT_EDP_5|1=RUAT_EDP_ACCOUNT_5|6=0|11=16963114365043000032|14=0|17=None|20=0|31=0|32=0|37=None|38=500|39=8|40=2|44=1800|47=P|54=2|55=3916|58=ERROR_10010013,No available instrument risk check data found: instrumentDate=not_found,expectedDate=20231003|59=3|60=20231003-05:37:16.907|103=3|109=105|110=0|150=8|151=0|544=1|8060=3|8164=EDP|8169=20231003-05:37:16.907178|8174=0|8214=0|10=059|
20231003-05:37:21.000 : 8=FIX.4.2|9=154|35=F|34=34|49=RUAT_EDP_5|52=20231003-05:37:21.000|56=FSX_UAT_EDP|11=16963114410746000033|41=16963114365043000032|54=2|55=3916|60=20231003-05:37:21.397771|10=180|
20231003-05:37:21.000 : 8=FIX.4.2|9=215|35=D|34=35|49=RUAT_EDP_5|52=20231003-05:37:21.000|56=FSX_UAT_EDP|1=RUAT_EDP_ACCOUNT_5|11=16963114415648000034|38=500|40=1|47=P|54=1|55=1332|59=3|60=20231003-05:37:21.399129|110=0|544=1|8060=3|8164=EDP|8174=0|8214=0|10=144|
20231003-05:37:21.000 : 8=FIX.4.2|9=289|35=9|34=34|49=FSX_UAT_EDP|52=20231003-05:37:21.457|56=RUAT_EDP_5|11=16963114410746000033|37=None|39=8|41=16963114365043000032|58=ERROR_10010031,Requested order does not exist: origClOrdId=16963114365043000032, symbol=3916|60=20231003-05:37:21.457|102=1|434=1|8169=20231003-05:37:21.457728|10=068|
20231003-05:37:21.000 : 8=FIX.4.2|9=346|35=8|34=35|49=FSX_UAT_EDP|52=20231003-05:37:21.643|56=RUAT_EDP_5|1=RUAT_EDP_ACCOUNT_5|6=0|11=16963114415648000034|14=0|17=1709080175338590208|20=0|31=0|32=0|37=1709080175317176320|38=500|39=0|40=1|47=P|54=1|55=1332|59=3|60=20231003-05:37:21.643|76=EDP|109=105|110=0|150=0|151=500|544=1|8060=3|8164=EDP|8169=20231003-05:37:21.643384|8174=0|8214=0|10=244|
20231003-05:37:21.000 : 8=FIX.4.2|9=464|35=8|34=36|49=FSX_UAT_EDP|52=20231003-05:37:21.644|56=RUAT_EDP_5|1=RUAT_EDP_ACCOUNT_5|6=0|11=16963114415648000034|14=0|17=1709080175338590209|20=0|37=1709080175317176320|38=500|39=4|40=1|41=16963114415648000034|47=P|54=1|55=1332|58=ERROR_00010051,Order rejected due to IoC expired.|59=3|60=20231003-05:37:21.644|76=EDP|109=105|110=0|150=4|151=500|544=1|8031=705.5|8032=705.5|8033=705.7|8051=05:37:21.582|8060=3|8164=EDP|8169=20231003-05:37:21.644708|8174=0|8214=0|10=005|
20231003-05:37:22.000 : 8=FIX.4.2|9=215|35=D|34=36|49=RUAT_EDP_5|52=20231003-05:37:22.000|56=FSX_UAT_EDP|1=RUAT_EDP_ACCOUNT_5|11=16963114427628000035|38=500|40=1|47=P|54=2|55=1332|59=3|60=20231003-05:37:22.405319|110=0|544=1|8060=3|8164=EDP|8174=0|8214=0|10=139|
20231003-05:37:22.000 : 8=FIX.4.2|9=346|35=8|34=37|49=FSX_UAT_EDP|52=20231003-05:37:22.485|56=RUAT_EDP_5|1=RUAT_EDP_ACCOUNT_5|6=0|11=16963114427628000035|14=0|17=1709080178874388480|20=0|31=0|32=0|37=1709080178861363200|38=500|39=0|40=1|47=P|54=2|55=1332|59=3|60=20231003-05:37:22.485|76=EDP|109=105|110=0|150=0|151=500|544=1|8060=3|8164=EDP|8169=20231003-05:37:22.485341|8174=0|8214=0|10=018|
20231003-05:37:22.000 : 8=FIX.4.2|9=464|35=8|34=38|49=FSX_UAT_EDP|52=20231003-05:37:22.486|56=RUAT_EDP_5|1=RUAT_EDP_ACCOUNT_5|6=0|11=16963114427628000035|14=0|17=1709080178874388481|20=0|37=1709080178861363200|38=500|39=4|40=1|41=16963114427628000035|47=P|54=2|55=1332|58=ERROR_00010051,Order rejected due to IoC expired.|59=3|60=20231003-05:37:22.486|76=EDP|109=105|110=0|150=4|151=500|544=1|8031=705.5|8032=705.5|8033=705.7|8051=05:37:22.468|8060=3|8164=EDP|8169=20231003-05:37:22.486411|8174=0|8214=0|10=039|
20231003-05:37:23.000 : 8=FIX.4.2|9=224|35=D|34=37|49=RUAT_EDP_5|52=20231003-05:37:23.000|56=FSX_UAT_EDP|1=RUAT_EDP_ACCOUNT_5|11=16963114430483000036|38=500|40=2|44=650.1|47=P|54=1|55=1332|59=3|60=20231003-05:37:23.412554|110=0|544=1|8060=3|8164=EDP|8174=0|8214=0|10=039|
20231003-05:37:23.000 : 8=FIX.4.2|9=355|35=8|34=39|49=FSX_UAT_EDP|52=20231003-05:37:23.488|56=RUAT_EDP_5|1=RUAT_EDP_ACCOUNT_5|6=0|11=16963114430483000036|14=0|17=1709080183085469696|20=0|31=0|32=0|37=1709080183068250112|38=500|39=0|40=2|44=650.1|47=P|54=1|55=1332|59=3|60=20231003-05:37:23.488|76=EDP|109=105|110=0|150=0|151=500|544=1|8060=3|8164=EDP|8169=20231003-05:37:23.488490|8174=0|8214=0|10=182|
20231003-05:37:23.000 : 8=FIX.4.2|9=473|35=8|34=40|49=FSX_UAT_EDP|52=20231003-05:37:23.490|56=RUAT_EDP_5|1=RUAT_EDP_ACCOUNT_5|6=0|11=16963114430483000036|14=0|17=1709080183085469697|20=0|37=1709080183068250112|38=500|39=4|40=2|41=16963114430483000036|44=650.1|47=P|54=1|55=1332|58=ERROR_00010051,Order rejected due to IoC expired.|59=3|60=20231003-05:37:23.489|76=EDP|109=105|110=0|150=4|151=500|544=1|8031=705.5|8032=705.5|8033=705.7|8051=05:37:23.471|8060=3|8164=EDP|8169=20231003-05:37:23.489921|8174=0|8214=0|10=176|
20231003-05:37:24.000 : 8=FIX.4.2|9=224|35=D|34=38|49=RUAT_EDP_5|52=20231003-05:37:24.000|56=FSX_UAT_EDP|1=RUAT_EDP_ACCOUNT_5|11=16963114447051000037|38=500|40=2|44=600.1|47=P|54=2|55=1332|59=3|60=20231003-05:37:24.417988|110=0|544=1|8060=3|8164=EDP|8174=0|8214=0|10=054|
20231003-05:37:24.000 : 8=FIX.4.2|9=481|35=8|34=41|49=FSX_UAT_EDP|52=20231003-05:37:24.484|56=RUAT_EDP_5|1=RUAT_EDP_ACCOUNT_5|6=0|11=16963114447051000037|14=0|17=None|20=0|31=0|32=0|37=None|38=500|39=8|40=2|44=600.1|47=P|54=2|55=1332|58=ERROR_20010063,Order rejected due to SOR Limit Price Control, sor_price=600.1 exceeds TSE_Best_Bid=705.5|59=3|60=20231003-05:37:24.484|103=3|109=105|110=0|150=8|151=0|544=1|8031=705.5|8032=705.5|8033=705.7|8051=05:37:24.481|8060=3|8164=EDP|8169=20231003-05:37:24.484106|8174=0|8214=0|10=014|
20231003-05:37:25.000 : 8=FIX.4.2|9=222|35=D|34=39|49=RUAT_EDP_5|52=20231003-05:37:25.000|56=FSX_UAT_EDP|1=RUAT_EDP_ACCOUNT_5|11=16963114452754000038|38=500|40=2|44=369|47=P|54=2|55=9999|59=3|60=20231003-05:37:25.423254|110=0|544=1|8060=3|8164=EDP|8174=0|8214=0|10=245|
20231003-05:37:25.000 : 8=FIX.4.2|9=432|35=8|34=42|49=FSX_UAT_EDP|52=20231003-05:37:25.482|56=RUAT_EDP_5|1=RUAT_EDP_ACCOUNT_5|6=0|11=16963114452754000038|14=0|17=None|20=0|31=0|32=0|37=None|38=500|39=8|40=2|44=369|47=P|54=2|55=9999|58=ERROR_10010013,No available instrument risk check data found: instrumentDate=not_found,expectedDate=20231003|59=3|60=20231003-05:37:25.482|103=3|109=105|110=0|150=8|151=0|544=1|8060=3|8164=EDP|8169=20231003-05:37:25.482496|8174=0|8214=0|10=045|
20231003-05:37:26.000 : 8=FIX.4.2|9=222|35=D|34=40|49=RUAT_EDP_5|52=20231003-05:37:26.000|56=FSX_UAT_EDP|1=RUAT_EDP_ACCOUNT_5|11=16963114464718000039|38=500|40=2|44=580|47=P|54=2|55=2980|59=3|60=20231003-05:37:26.429932|110=0|544=1|8060=3|8164=EDP|8174=0|8214=0|10=230|
20231003-05:37:26.000 : 8=FIX.4.2|9=432|35=8|34=43|49=FSX_UAT_EDP|52=20231003-05:37:26.489|56=RUAT_EDP_5|1=RUAT_EDP_ACCOUNT_5|6=0|11=16963114464718000039|14=0|17=None|20=0|31=0|32=0|37=None|38=500|39=8|40=2|44=580|47=P|54=2|55=2980|58=ERROR_10010013,No available instrument risk check data found: instrumentDate=not_found,expectedDate=20231003|59=3|60=20231003-05:37:26.489|103=3|109=105|110=0|150=8|151=0|544=1|8060=3|8164=EDP|8169=20231003-05:37:26.489686|8174=0|8214=0|10=053|
20231003-05:37:27.000 : 8=FIX.4.2|9=222|35=D|34=41|49=RUAT_EDP_5|52=20231003-05:37:27.000|56=FSX_UAT_EDP|1=RUAT_EDP_ACCOUNT_5|11=16963114471530000040|38=500|40=2|44=119|47=P|54=2|55=2980|59=3|60=20231003-05:37:27.432106|110=0|544=1|8060=3|8164=EDP|8174=0|8214=0|10=200|
20231003-05:37:27.000 : 8=FIX.4.2|9=432|35=8|34=44|49=FSX_UAT_EDP|52=20231003-05:37:27.492|56=RUAT_EDP_5|1=RUAT_EDP_ACCOUNT_5|6=0|11=16963114471530000040|14=0|17=None|20=0|31=0|32=0|37=None|38=500|39=8|40=2|44=119|47=P|54=2|55=2980|58=ERROR_10010013,No available instrument risk check data found: instrumentDate=not_found,expectedDate=20231003|59=3|60=20231003-05:37:27.492|103=3|109=105|110=0|150=8|151=0|544=1|8060=3|8164=EDP|8169=20231003-05:37:27.492500|8174=0|8214=0|10=004|
20231003-05:37:28.000 : 8=FIX.4.2|9=225|35=D|34=42|49=RUAT_EDP_5|52=20231003-05:37:28.000|56=FSX_UAT_EDP|1=RUAT_EDP_ACCOUNT_5|11=16963114483851000041|38=500|40=2|44=148.25|47=P|54=2|55=1682|59=3|60=20231003-05:37:28.435439|110=0|544=1|8060=3|8164=EDP|8174=0|8214=0|10=121|
20231003-05:37:28.000 : 8=FIX.4.2|9=435|35=8|34=45|49=FSX_UAT_EDP|52=20231003-05:37:28.497|56=RUAT_EDP_5|1=RUAT_EDP_ACCOUNT_5|6=0|11=16963114483851000041|14=0|17=None|20=0|31=0|32=0|37=None|38=500|39=8|40=2|44=148.25|47=P|54=2|55=1682|58=ERROR_10010013,No available instrument risk check data found: instrumentDate=not_found,expectedDate=20231003|59=3|60=20231003-05:37:28.497|103=3|109=105|110=0|150=8|151=0|544=1|8060=3|8164=EDP|8169=20231003-05:37:28.497512|8174=0|8214=0|10=188|
20231003-05:37:29.000 : 8=FIX.4.2|9=225|35=D|34=43|49=RUAT_EDP_5|52=20231003-05:37:29.000|56=FSX_UAT_EDP|1=RUAT_EDP_ACCOUNT_5|11=16963114492836000042|38=500|40=2|44=1302.6|47=P|54=2|55=2002|59=3|60=20231003-05:37:29.442244|110=0|544=1|8060=3|8164=EDP|8174=0|8214=0|10=099|
20231003-05:37:29.000 : 8=FIX.4.2|9=422|35=8|34=46|49=FSX_UAT_EDP|52=20231003-05:37:29.504|56=RUAT_EDP_5|1=RUAT_EDP_ACCOUNT_5|6=0|11=16963114492836000042|14=0|17=None|20=0|31=0|32=0|37=None|38=500|39=8|40=2|44=1302.6|47=P|54=2|55=2002|58=ERROR_10010014,Price exceeds the high - low price range: price=1302.6, price_limit=[1491, 2291]|59=3|60=20231003-05:37:29.504|103=3|109=105|110=0|150=8|151=0|544=1|8060=3|8164=EDP|8169=20231003-05:37:29.504295|8174=0|8214=0|10=116|
20231003-05:37:30.000 : 8=FIX.4.2|9=225|35=D|34=44|49=RUAT_EDP_5|52=20231003-05:37:30.000|56=FSX_UAT_EDP|1=RUAT_EDP_ACCOUNT_5|11=16963114506123000043|38=500|40=2|44=5990.5|47=P|54=2|55=6965|59=3|60=20231003-05:37:30.445713|110=0|544=1|8060=3|8164=EDP|8174=0|8214=0|10=112|
20231003-05:37:30.000 : 8=FIX.4.2|9=479|35=8|34=47|49=FSX_UAT_EDP|52=20231003-05:37:30.508|56=RUAT_EDP_5|1=RUAT_EDP_ACCOUNT_5|6=0|11=16963114506123000043|14=0|17=None|20=0|31=0|32=0|37=None|38=500|39=8|40=2|44=5990.5|47=P|54=2|55=6965|58=ERROR_20010063,Order rejected due to SOR Limit Price Control, sor_price=5990.5 exceeds TSE_Best_Bid=6205|59=3|60=20231003-05:37:30.508|103=3|109=105|110=0|150=8|151=0|544=1|8031=6207|8032=6205|8033=6208|8051=05:37:30.506|8060=3|8164=EDP|8169=20231003-05:37:30.508804|8174=0|8214=0|10=216|
20231003-05:37:31.000 : 8=FIX.4.2|9=224|35=D|34=45|49=RUAT_EDP_5|52=20231003-05:37:31.000|56=FSX_UAT_EDP|1=RUAT_EDP_ACCOUNT_5|11=16963114513102000044|38=500|40=2|44=24738|47=P|54=2|55=1577|59=3|60=20231003-05:37:31.451804|110=0|544=1|8060=3|8164=EDP|8174=0|8214=0|10=052|
20231003-05:37:31.000 : 8=FIX.4.2|9=434|35=8|34=48|49=FSX_UAT_EDP|52=20231003-05:37:31.513|56=RUAT_EDP_5|1=RUAT_EDP_ACCOUNT_5|6=0|11=16963114513102000044|14=0|17=None|20=0|31=0|32=0|37=None|38=500|39=8|40=2|44=24738|47=P|54=2|55=1577|58=ERROR_10010013,No available instrument risk check data found: instrumentDate=not_found,expectedDate=20231003|59=3|60=20231003-05:37:31.513|103=3|109=105|110=0|150=8|151=0|544=1|8060=3|8164=EDP|8169=20231003-05:37:31.513341|8174=0|8214=0|10=086|
20231003-05:37:32.000 : 8=FIX.4.2|9=224|35=D|34=46|49=RUAT_EDP_5|52=20231003-05:37:32.000|56=FSX_UAT_EDP|1=RUAT_EDP_ACCOUNT_5|11=16963114524820000045|38=500|40=2|44=50001|47=P|54=2|55=1624|59=3|60=20231003-05:37:32.455542|110=0|544=1|8060=3|8164=EDP|8174=0|8214=0|10=043|
20231003-05:37:32.000 : 8=FIX.4.2|9=434|35=8|34=49|49=FSX_UAT_EDP|52=20231003-05:37:32.516|56=RUAT_EDP_5|1=RUAT_EDP_ACCOUNT_5|6=0|11=16963114524820000045|14=0|17=None|20=0|31=0|32=0|37=None|38=500|39=8|40=2|44=50001|47=P|54=2|55=1624|58=ERROR_10010013,No available instrument risk check data found: instrumentDate=not_found,expectedDate=20231003|59=3|60=20231003-05:37:32.516|103=3|109=105|110=0|150=8|151=0|544=1|8060=3|8164=EDP|8169=20231003-05:37:32.516725|8174=0|8214=0|10=090|
20231003-05:37:33.000 : 8=FIX.4.2|9=224|35=D|34=47|49=RUAT_EDP_5|52=20231003-05:37:33.000|56=FSX_UAT_EDP|1=RUAT_EDP_ACCOUNT_5|11=16963114534705000046|38=500|40=2|44=590.5|47=P|54=2|55=6666|59=3|60=20231003-05:37:33.459072|110=0|544=1|8060=3|8164=EDP|8174=0|8214=0|10=074|
20231003-05:37:33.000 : 8=FIX.4.2|9=434|35=8|34=50|49=FSX_UAT_EDP|52=20231003-05:37:33.517|56=RUAT_EDP_5|1=RUAT_EDP_ACCOUNT_5|6=0|11=16963114534705000046|14=0|17=None|20=0|31=0|32=0|37=None|38=500|39=8|40=2|44=590.5|47=P|54=2|55=6666|58=ERROR_10010013,No available instrument risk check data found: instrumentDate=not_found,expectedDate=20231003|59=3|60=20231003-05:37:33.517|103=3|109=105|110=0|150=8|151=0|544=1|8060=3|8164=EDP|8169=20231003-05:37:33.517367|8174=0|8214=0|10=116|
20231003-05:37:34.000 : 8=FIX.4.2|9=223|35=D|34=48|49=RUAT_EDP_5|52=20231003-05:37:34.000|56=FSX_UAT_EDP|1=RUAT_EDP_ACCOUNT_5|11=16963114548207000047|38=500|40=2|44=4051|47=P|54=2|55=7740|59=3|60=20231003-05:37:34.464771|110=0|544=1|8060=3|8164=EDP|8174=0|8214=0|10=020|
20231003-05:37:34.000 : 8=FIX.4.2|9=433|35=8|34=51|49=FSX_UAT_EDP|52=20231003-05:37:34.527|56=RUAT_EDP_5|1=RUAT_EDP_ACCOUNT_5|6=0|11=16963114548207000047|14=0|17=None|20=0|31=0|32=0|37=None|38=500|39=8|40=2|44=4051|47=P|54=2|55=7740|58=ERROR_10010013,No available instrument risk check data found: instrumentDate=not_found,expectedDate=20231003|59=3|60=20231003-05:37:34.527|103=3|109=105|110=0|150=8|151=0|544=1|8060=3|8164=EDP|8169=20231003-05:37:34.527536|8174=0|8214=0|10=062|
20231003-05:37:35.000 : 8=FIX.4.2|9=223|35=D|34=49|49=RUAT_EDP_5|52=20231003-05:37:35.000|56=FSX_UAT_EDP|1=RUAT_EDP_ACCOUNT_5|11=16963114556021000048|38=500|40=2|44=7428|47=P|54=2|55=2222|59=3|60=20231003-05:37:35.470169|110=0|544=1|8060=3|8164=EDP|8174=0|8214=0|10=016|
20231003-05:37:35.000 : 8=FIX.4.2|9=433|35=8|34=52|49=FSX_UAT_EDP|52=20231003-05:37:35.530|56=RUAT_EDP_5|1=RUAT_EDP_ACCOUNT_5|6=0|11=16963114556021000048|14=0|17=None|20=0|31=0|32=0|37=None|38=500|39=8|40=2|44=7428|47=P|54=2|55=2222|58=ERROR_10010013,No available instrument risk check data found: instrumentDate=not_found,expectedDate=20231003|59=3|60=20231003-05:37:35.530|103=3|109=105|110=0|150=8|151=0|544=1|8060=3|8164=EDP|8169=20231003-05:37:35.530343|8174=0|8214=0|10=039|
20231003-05:37:36.000 : 8=FIX.4.2|9=224|35=D|34=50|49=RUAT_EDP_5|52=20231003-05:37:36.000|56=FSX_UAT_EDP|1=RUAT_EDP_ACCOUNT_5|11=16963114566457000049|38=500|40=2|44=46008|47=P|54=2|55=3476|59=3|60=20231003-05:37:36.476846|110=0|544=1|8060=3|8164=EDP|8174=0|8214=0|10=091|
20231003-05:37:36.000 : 8=FIX.4.2|9=434|35=8|34=53|49=FSX_UAT_EDP|52=20231003-05:37:36.535|56=RUAT_EDP_5|1=RUAT_EDP_ACCOUNT_5|6=0|11=16963114566457000049|14=0|17=None|20=0|31=0|32=0|37=None|38=500|39=8|40=2|44=46008|47=P|54=2|55=3476|58=ERROR_10010013,No available instrument risk check data found: instrumentDate=not_found,expectedDate=20231003|59=3|60=20231003-05:37:36.535|103=3|109=105|110=0|150=8|151=0|544=1|8060=3|8164=EDP|8169=20231003-05:37:36.535394|8174=0|8214=0|10=137|
20231003-05:37:37.000 : 8=FIX.4.2|9=223|35=D|34=51|49=RUAT_EDP_5|52=20231003-05:37:37.000|56=FSX_UAT_EDP|1=RUAT_EDP_ACCOUNT_5|11=16963114576103000050|38=50|40=2|44=56555|47=P|54=2|55=8963|59=3|60=20231003-05:37:37.483505|110=0|544=1|8060=3|8164=EDP|8174=0|8214=0|10=030|
20231003-05:37:37.000 : 8=FIX.4.2|9=433|35=8|34=54|49=FSX_UAT_EDP|52=20231003-05:37:37.544|56=RUAT_EDP_5|1=RUAT_EDP_ACCOUNT_5|6=0|11=16963114576103000050|14=0|17=None|20=0|31=0|32=0|37=None|38=50|39=8|40=2|44=56555|47=P|54=2|55=8963|58=ERROR_10010013,No available instrument risk check data found: instrumentDate=not_found,expectedDate=20231003|59=3|60=20231003-05:37:37.544|103=3|109=105|110=0|150=8|151=0|544=1|8060=3|8164=EDP|8169=20231003-05:37:37.544809|8174=0|8214=0|10=088|
20231003-05:37:38.000 : 8=FIX.4.2|9=225|35=D|34=52|49=RUAT_EDP_5|52=20231003-05:37:38.000|56=FSX_UAT_EDP|1=RUAT_EDP_ACCOUNT_5|11=16963114585340000051|38=500|40=2|44=401009|47=P|54=2|55=8964|59=3|60=20231003-05:37:38.489852|110=0|544=1|8060=3|8164=EDP|8174=0|8214=0|10=135|
20231003-05:37:38.000 : 8=FIX.4.2|9=435|35=8|34=55|49=FSX_UAT_EDP|52=20231003-05:37:38.551|56=RUAT_EDP_5|1=RUAT_EDP_ACCOUNT_5|6=0|11=16963114585340000051|14=0|17=None|20=0|31=0|32=0|37=None|38=500|39=8|40=2|44=401009|47=P|54=2|55=8964|58=ERROR_10010013,No available instrument risk check data found: instrumentDate=not_found,expectedDate=20231003|59=3|60=20231003-05:37:38.551|103=3|109=105|110=0|150=8|151=0|544=1|8060=3|8164=EDP|8169=20231003-05:37:38.551310|8174=0|8214=0|10=164|
20231003-05:37:39.000 : 8=FIX.4.2|9=214|35=D|34=53|49=RUAT_EDP_5|52=20231003-05:37:39.000|56=FSX_UAT_EDP|1=RUAT_EDP_ACCOUNT_5|11=16963114594860000052|38=99|40=1|47=P|54=2|55=1325|59=3|60=20231003-05:37:39.496630|110=0|544=1|8060=3|8164=EDP|8174=0|8214=0|10=128|
20231003-05:37:40.000 : 8=FIX.4.2|9=213|35=D|34=54|49=RUAT_EDP_5|52=20231003-05:37:40.000|56=FSX_UAT_EDP|1=RUAT_EDP_ACCOUNT_5|11=16963114600235000053|38=0|40=1|47=P|54=2|55=1325|59=3|60=20231003-05:37:40.499280|110=0|544=1|8060=3|8164=EDP|8174=0|8214=0|10=035|
20231003-05:37:40.000 : 8=FIX.4.2|9=429|35=8|34=56|49=FSX_UAT_EDP|52=20231003-05:37:39.560|56=RUAT_EDP_5|1=RUAT_EDP_ACCOUNT_5|6=0|11=16963114594860000052|14=0|17=None|20=0|31=0|32=0|37=None|38=99|39=8|40=1|44=0|47=P|54=2|55=1325|58=ERROR_10010013,No available instrument risk check data found: instrumentDate=not_found,expectedDate=20231003|59=3|60=20231003-05:37:39.560|103=3|109=105|110=0|150=8|151=0|544=1|8060=3|8164=EDP|8169=20231003-05:37:39.560359|8174=0|8214=0|10=142|
20231003-05:37:41.000 : 8=FIX.4.2|9=428|35=8|34=57|49=FSX_UAT_EDP|52=20231003-05:37:40.557|56=RUAT_EDP_5|1=RUAT_EDP_ACCOUNT_5|6=0|11=16963114600235000053|14=0|17=None|20=0|31=0|32=0|37=None|38=0|39=8|40=1|44=0|47=P|54=2|55=1325|58=ERROR_10010013,No available instrument risk check data found: instrumentDate=not_found,expectedDate=20231003|59=3|60=20231003-05:37:40.557|103=3|109=105|110=0|150=8|151=0|544=1|8060=3|8164=EDP|8169=20231003-05:37:40.557688|8174=0|8214=0|10=060|
20231003-05:37:41.000 : 8=FIX.4.2|9=215|35=D|34=55|49=RUAT_EDP_5|52=20231003-05:37:41.000|56=FSX_UAT_EDP|1=RUAT_EDP_ACCOUNT_5|11=16963114617560000054|38=100|40=1|47=P|54=2|55=1325|59=3|60=20231003-05:37:41.503272|110=0|544=1|8060=3|8164=EDP|8174=0|8214=0|10=134|
20231003-05:37:41.000 : 8=FIX.4.2|9=430|35=8|34=58|49=FSX_UAT_EDP|52=20231003-05:37:41.562|56=RUAT_EDP_5|1=RUAT_EDP_ACCOUNT_5|6=0|11=16963114617560000054|14=0|17=None|20=0|31=0|32=0|37=None|38=100|39=8|40=1|44=0|47=P|54=2|55=1325|58=ERROR_10010013,No available instrument risk check data found: instrumentDate=not_found,expectedDate=20231003|59=3|60=20231003-05:37:41.562|103=3|109=105|110=0|150=8|151=0|544=1|8060=3|8164=EDP|8169=20231003-05:37:41.562566|8174=0|8214=0|10=147|
20231003-05:37:42.000 : 8=FIX.4.2|9=215|35=D|34=56|49=RUAT_EDP_5|52=20231003-05:37:42.000|56=FSX_UAT_EDP|1=RUAT_EDP_ACCOUNT_5|11=16963114625164000055|38=200|40=1|47=P|54=2|55=1325|59=3|60=20231003-05:37:42.509824|110=0|544=1|8060=3|8164=EDP|8174=0|8214=0|10=147|
20231003-05:37:42.000 : 8=FIX.4.2|9=430|35=8|34=59|49=FSX_UAT_EDP|52=20231003-05:37:42.568|56=RUAT_EDP_5|1=RUAT_EDP_ACCOUNT_5|6=0|11=16963114625164000055|14=0|17=None|20=0|31=0|32=0|37=None|38=200|39=8|40=1|44=0|47=P|54=2|55=1325|58=ERROR_10010013,No available instrument risk check data found: instrumentDate=not_found,expectedDate=20231003|59=3|60=20231003-05:37:42.568|103=3|109=105|110=0|150=8|151=0|544=1|8060=3|8164=EDP|8169=20231003-05:37:42.568330|8174=0|8214=0|10=159|
20231003-05:37:43.000 : 8=FIX.4.2|9=215|35=D|34=57|49=RUAT_EDP_5|52=20231003-05:37:43.000|56=FSX_UAT_EDP|1=RUAT_EDP_ACCOUNT_5|11=16963114634387000056|38=101|40=1|47=P|54=2|55=1325|59=3|60=20231003-05:37:43.516530|110=0|544=1|8060=3|8164=EDP|8174=0|8214=0|10=150|
20231003-05:37:43.000 : 8=FIX.4.2|9=430|35=8|34=60|49=FSX_UAT_EDP|52=20231003-05:37:43.576|56=RUAT_EDP_5|1=RUAT_EDP_ACCOUNT_5|6=0|11=16963114634387000056|14=0|17=None|20=0|31=0|32=0|37=None|38=101|39=8|40=1|44=0|47=P|54=2|55=1325|58=ERROR_10010013,No available instrument risk check data found: instrumentDate=not_found,expectedDate=20231003|59=3|60=20231003-05:37:43.576|103=3|109=105|110=0|150=8|151=0|544=1|8060=3|8164=EDP|8169=20231003-05:37:43.576371|8174=0|8214=0|10=164|
20231003-05:37:44.000 : 8=FIX.4.2|9=213|35=D|34=58|49=RUAT_EDP_5|52=20231003-05:37:44.000|56=FSX_UAT_EDP|1=RUAT_EDP_ACCOUNT_5|11=16963114640286000057|38=1|40=1|47=P|54=2|55=8421|59=3|60=20231003-05:37:44.523260|110=0|544=1|8060=3|8164=EDP|8174=0|8214=0|10=052|
20231003-05:37:44.000 : 8=FIX.4.2|9=428|35=8|34=61|49=FSX_UAT_EDP|52=20231003-05:37:44.582|56=RUAT_EDP_5|1=RUAT_EDP_ACCOUNT_5|6=0|11=16963114640286000057|14=0|17=None|20=0|31=0|32=0|37=None|38=1|39=8|40=1|44=0|47=P|54=2|55=8421|58=ERROR_10010013,No available instrument risk check data found: instrumentDate=not_found,expectedDate=20231003|59=3|60=20231003-05:37:44.582|103=3|109=105|110=0|150=8|151=0|544=1|8060=3|8164=EDP|8169=20231003-05:37:44.582142|8174=0|8214=0|10=065|
20231003-05:37:45.000 : 8=FIX.4.2|9=213|35=D|34=59|49=RUAT_EDP_5|52=20231003-05:37:45.000|56=FSX_UAT_EDP|1=RUAT_EDP_ACCOUNT_5|11=16963114657048000058|38=7|40=1|47=P|54=2|55=1492|59=3|60=20231003-05:37:45.528564|110=0|544=1|8060=3|8164=EDP|8174=0|8214=0|10=079|
