2023-06-09 16:20:02,461 : (Core) S >> 8=FIX.4.2|9=84|35=A|34=1|49=RSIT_ROLX_3|52=20230609-07:20:02.000|56=FSX_SIT_ROLX|98=0|108=30|141=Y|10=122|
2023-06-09 16:20:02,883 : (Core) R << 8=FIX.4.2|9=84|35=A|34=1|49=FSX_SIT_ROLX|52=20230609-07:20:04.571|56=RSIT_ROLX_3|98=0|108=30|141=Y|10=137|
2023-06-09 16:20:03,881 : (Core) S >> 8=FIX.4.2|9=66|35=5|34=2|49=RSIT_ROLX_3|52=20230609-07:20:03.000|56=FSX_SIT_ROLX|10=042|
2023-06-09 16:20:04,094 : (Core) R << 8=FIX.4.2|9=66|35=5|34=2|49=FSX_SIT_ROLX|52=20230609-07:20:05.790|56=RSIT_ROLX_3|10=060|
2023-06-09 16:20:04,095 : Order Not Miss, Result : Total = 0,Success = 0,Fail = 0
