20230620-04:04:05.000 : 8=FIX.4.2|9=84|35=A|34=1|49=RUAT_ROLX_1|52=20230620-04:04:05.000|56=FSX_UAT_ROLX|98=0|108=30|141=Y|10=103|
20230620-04:09:24.000 : 8=FIX.4.2|9=84|35=A|34=1|49=RUAT_ROLX_1|52=20230620-04:09:24.000|56=FSX_UAT_ROLX|98=0|108=30|141=Y|10=109|
20230620-06:05:53.000 : 8=FIX.4.2|9=84|35=A|34=1|49=RUAT_ROLX_1|52=20230620-06:05:53.000|56=FSX_UAT_ROLX|98=0|108=30|141=Y|10=109|
20230620-06:17:02.000 : 8=FIX.4.2|9=84|35=A|34=1|49=RUAT_ROLX_1|52=20230620-06:17:02.000|56=FSX_UAT_ROLX|98=0|108=30|141=Y|10=106|
20230620-06:17:02.000 : 8=FIX.4.2|9=84|35=A|34=1|49=FSX_UAT_ROLX|52=20230620-06:17:02.188|56=RUAT_ROLX_1|98=0|108=30|141=Y|10=123|
20230620-06:17:02.000 : 8=FIX.4.2|9=86|35=h|34=2|49=FSX_UAT_ROLX|52=20230620-06:17:02.575|56=RUAT_ROLX_1|336=ROL|339=3|340=3|10=062|
20230620-06:17:02.000 : 8=FIX.4.2|9=128|35=j|34=2|49=RUAT_ROLX_1|52=20230620-06:17:02.000|56=FSX_UAT_ROLX|45=2|58=Conditionally Required Field Missing (11)|372=h|380=5|10=220|
20230620-06:17:02.000 : 8=FIX.4.2|9=204|35=D|34=3|49=RUAT_ROLX_1|52=20230620-06:17:02.000|56=FSX_UAT_ROLX|1=RUAT_ACCOUNT_1|11=2023086174168724182200000001|21=1|38=2|40=1|54=1|55=5110|60=20230620-06:17:02.965597|109=2023086174168724182200000001|10=202|
20230620-06:17:03.000 : 8=FIX.4.2|9=418|35=8|34=3|49=FSX_UAT_ROLX|52=20230620-06:17:03.019|56=RUAT_ROLX_1|1=RUAT_ACCOUNT_1|6=0|11=2023086174168724182200000001|14=0|17=None|20=0|21=1|31=0|32=0|37=None|38=2|39=8|40=1|44=0|47=P|54=1|55=5110|58=ERROR_10010013,No available instrument risk check data found: instrumentDate=not_found,expectedDate=20230620|59=0|60=20230620-06:17:03.019|103=3|109=101|150=8|151=0|544=1|8164=ROL|8169=20230620-06:17:03.019402|8214=0|10=110|
20230620-06:19:37.000 : 8=FIX.4.2|9=84|35=A|34=1|49=RUAT_ROLX_1|52=20230620-06:19:37.000|56=FSX_UAT_ROLX|98=0|108=30|141=Y|10=116|
20230620-06:19:37.000 : 8=FIX.4.2|9=84|35=A|34=1|49=FSX_UAT_ROLX|52=20230620-06:19:37.562|56=RUAT_ROLX_1|98=0|108=30|141=Y|10=129|
20230620-06:19:38.000 : 8=FIX.4.2|9=204|35=D|34=2|49=RUAT_ROLX_1|52=20230620-06:19:38.000|56=FSX_UAT_ROLX|1=RUAT_ACCOUNT_1|11=2023356748168724197800000001|21=1|38=3|40=1|54=1|55=5110|60=20230620-06:19:38.239158|109=2023356748168724197800000001|10=249|
20230620-06:19:38.000 : 8=FIX.4.2|9=418|35=8|34=2|49=FSX_UAT_ROLX|52=20230620-06:19:38.427|56=RUAT_ROLX_1|1=RUAT_ACCOUNT_1|6=0|11=2023356748168724197800000001|14=0|17=None|20=0|21=1|31=0|32=0|37=None|38=3|39=8|40=1|44=0|47=P|54=1|55=5110|58=ERROR_10010013,No available instrument risk check data found: instrumentDate=not_found,expectedDate=20230620|59=0|60=20230620-06:19:38.427|103=3|109=101|150=8|151=0|544=1|8164=ROL|8169=20230620-06:19:38.427395|8214=0|10=179|
20230620-06:20:08.000 : 8=FIX.4.2|9=66|35=0|34=3|49=RUAT_ROLX_1|52=20230620-06:20:08.000|56=FSX_UAT_ROLX|10=021|
20230620-06:20:08.000 : 8=FIX.4.2|9=66|35=0|34=3|49=FSX_UAT_ROLX|52=20230620-06:20:08.354|56=RUAT_ROLX_1|10=033|
20230620-06:20:38.000 : 8=FIX.4.2|9=66|35=0|34=4|49=RUAT_ROLX_1|52=20230620-06:20:38.000|56=FSX_UAT_ROLX|10=025|
20230620-06:20:38.000 : 8=FIX.4.2|9=66|35=0|34=4|49=FSX_UAT_ROLX|52=20230620-06:20:38.081|56=RUAT_ROLX_1|10=034|
20230620-06:21:08.000 : 8=FIX.4.2|9=66|35=0|34=5|49=FSX_UAT_ROLX|52=20230620-06:21:08.104|56=RUAT_ROLX_1|10=029|
20230620-06:21:08.000 : 8=FIX.4.2|9=66|35=0|34=5|49=RUAT_ROLX_1|52=20230620-06:21:08.000|56=FSX_UAT_ROLX|10=024|
20230620-06:21:38.000 : 8=FIX.4.2|9=66|35=0|34=6|49=RUAT_ROLX_1|52=20230620-06:21:38.000|56=FSX_UAT_ROLX|10=028|
20230620-06:21:38.000 : 8=FIX.4.2|9=66|35=0|34=6|49=FSX_UAT_ROLX|52=20230620-06:21:38.340|56=RUAT_ROLX_1|10=035|
20230620-06:22:08.000 : 8=FIX.4.2|9=66|35=0|34=7|49=RUAT_ROLX_1|52=20230620-06:22:08.000|56=FSX_UAT_ROLX|10=027|
20230620-06:22:08.000 : 8=FIX.4.2|9=66|35=0|34=7|49=FSX_UAT_ROLX|52=20230620-06:22:08.453|56=RUAT_ROLX_1|10=039|
20230620-06:22:38.000 : 8=FIX.4.2|9=66|35=0|34=8|49=RUAT_ROLX_1|52=20230620-06:22:38.000|56=FSX_UAT_ROLX|10=031|
20230620-06:22:38.000 : 8=FIX.4.2|9=66|35=0|34=8|49=FSX_UAT_ROLX|52=20230620-06:22:38.376|56=RUAT_ROLX_1|10=047|
20230620-06:23:08.000 : 8=FIX.4.2|9=66|35=0|34=9|49=RUAT_ROLX_1|52=20230620-06:23:08.000|56=FSX_UAT_ROLX|10=030|
20230620-06:23:08.000 : 8=FIX.4.2|9=66|35=0|34=9|49=FSX_UAT_ROLX|52=20230620-06:23:08.080|56=RUAT_ROLX_1|10=038|
20230620-06:23:38.000 : 8=FIX.4.2|9=67|35=0|34=10|49=FSX_UAT_ROLX|52=20230620-06:23:38.103|56=RUAT_ROLX_1|10=078|
20230620-06:23:38.000 : 8=FIX.4.2|9=67|35=0|34=10|49=RUAT_ROLX_1|52=20230620-06:23:38.000|56=FSX_UAT_ROLX|10=074|
20230620-06:24:08.000 : 8=FIX.4.2|9=67|35=0|34=11|49=RUAT_ROLX_1|52=20230620-06:24:08.000|56=FSX_UAT_ROLX|10=073|
20230620-06:24:08.000 : 8=FIX.4.2|9=67|35=0|34=11|49=FSX_UAT_ROLX|52=20230620-06:24:08.354|56=RUAT_ROLX_1|10=085|
20230620-06:24:38.000 : 8=FIX.4.2|9=67|35=0|34=12|49=RUAT_ROLX_1|52=20230620-06:24:38.000|56=FSX_UAT_ROLX|10=077|
20230620-06:24:38.000 : 8=FIX.4.2|9=67|35=0|34=12|49=FSX_UAT_ROLX|52=20230620-06:24:38.379|56=RUAT_ROLX_1|10=096|
20230620-06:24:40.000 : 8=FIX.4.2|9=67|35=5|34=13|49=RUAT_ROLX_1|52=20230620-06:24:40.000|56=FSX_UAT_ROLX|10=076|
20230620-06:24:40.000 : 8=FIX.4.2|9=67|35=5|34=13|49=FSX_UAT_ROLX|52=20230620-06:24:40.410|56=RUAT_ROLX_1|10=081|
20230620-06:40:34.000 : 8=FIX.4.2|9=84|35=A|34=1|49=RUAT_ROLX_1|52=20230620-06:40:34.000|56=FSX_UAT_ROLX|98=0|108=30|141=Y|10=107|
20230620-06:40:34.000 : 8=FIX.4.2|9=84|35=A|34=1|49=FSX_UAT_ROLX|52=20230620-06:40:34.150|56=RUAT_ROLX_1|98=0|108=30|141=Y|10=113|
20230620-06:40:34.000 : 8=FIX.4.2|9=204|35=D|34=2|49=RUAT_ROLX_1|52=20230620-06:40:34.000|56=FSX_UAT_ROLX|1=RUAT_ACCOUNT_1|11=2023534806168724323400000001|21=1|38=5|40=1|54=1|55=5110|60=20230620-06:40:34.913160|109=2023534806168724323400000001|10=183|
20230620-06:40:35.000 : 8=FIX.4.2|9=418|35=8|34=2|49=FSX_UAT_ROLX|52=20230620-06:40:34.970|56=RUAT_ROLX_1|1=RUAT_ACCOUNT_1|6=0|11=2023534806168724323400000001|14=0|17=None|20=0|21=1|31=0|32=0|37=None|38=5|39=8|40=1|44=0|47=P|54=1|55=5110|58=ERROR_10010013,No available instrument risk check data found: instrumentDate=not_found,expectedDate=20230620|59=0|60=20230620-06:40:34.970|103=3|109=101|150=8|151=0|544=1|8164=ROL|8169=20230620-06:40:34.970540|8214=0|10=132|
20230620-06:41:04.000 : 8=FIX.4.2|9=66|35=0|34=3|49=RUAT_ROLX_1|52=20230620-06:41:04.000|56=FSX_UAT_ROLX|10=020|
20230620-06:41:05.000 : 8=FIX.4.2|9=66|35=0|34=3|49=FSX_UAT_ROLX|52=20230620-06:41:04.871|56=RUAT_ROLX_1|10=036|
20230620-06:41:34.000 : 8=FIX.4.2|9=66|35=0|34=4|49=RUAT_ROLX_1|52=20230620-06:41:34.000|56=FSX_UAT_ROLX|10=024|
20230620-06:41:34.000 : 8=FIX.4.2|9=66|35=0|34=4|49=FSX_UAT_ROLX|52=20230620-06:41:34.592|56=RUAT_ROLX_1|10=040|
20230620-06:42:04.000 : 8=FIX.4.2|9=66|35=0|34=5|49=RUAT_ROLX_1|52=20230620-06:42:04.000|56=FSX_UAT_ROLX|10=023|
20230620-06:42:04.000 : 8=FIX.4.2|9=66|35=0|34=5|49=FSX_UAT_ROLX|52=20230620-06:42:04.092|56=RUAT_ROLX_1|10=034|
20230620-06:42:34.000 : 8=FIX.4.2|9=66|35=0|34=6|49=FSX_UAT_ROLX|52=20230620-06:42:34.118|56=RUAT_ROLX_1|10=037|
20230620-06:42:34.000 : 8=FIX.4.2|9=66|35=0|34=6|49=RUAT_ROLX_1|52=20230620-06:42:34.000|56=FSX_UAT_ROLX|10=027|
20230620-06:43:04.000 : 8=FIX.4.2|9=66|35=0|34=7|49=RUAT_ROLX_1|52=20230620-06:43:04.000|56=FSX_UAT_ROLX|10=026|
20230620-06:43:04.000 : 8=FIX.4.2|9=66|35=0|34=7|49=FSX_UAT_ROLX|52=20230620-06:43:04.218|56=RUAT_ROLX_1|10=037|
20230620-06:43:34.000 : 8=FIX.4.2|9=66|35=0|34=8|49=RUAT_ROLX_1|52=20230620-06:43:34.000|56=FSX_UAT_ROLX|10=030|
20230620-06:43:34.000 : 8=FIX.4.2|9=66|35=0|34=8|49=FSX_UAT_ROLX|52=20230620-06:43:34.125|56=RUAT_ROLX_1|10=038|
20230620-06:44:04.000 : 8=FIX.4.2|9=66|35=0|34=9|49=FSX_UAT_ROLX|52=20230620-06:44:04.146|56=RUAT_ROLX_1|10=040|
20230620-06:44:04.000 : 8=FIX.4.2|9=66|35=0|34=9|49=RUAT_ROLX_1|52=20230620-06:44:04.000|56=FSX_UAT_ROLX|10=029|
20230620-06:44:34.000 : 8=FIX.4.2|9=67|35=0|34=10|49=FSX_UAT_ROLX|52=20230620-06:44:34.343|56=RUAT_ROLX_1|10=083|
20230620-06:44:34.000 : 8=FIX.4.2|9=67|35=0|34=10|49=RUAT_ROLX_1|52=20230620-06:44:34.000|56=FSX_UAT_ROLX|10=073|
20230620-06:45:04.000 : 8=FIX.4.2|9=67|35=0|34=11|49=RUAT_ROLX_1|52=20230620-06:45:04.000|56=FSX_UAT_ROLX|10=072|
20230620-06:45:04.000 : 8=FIX.4.2|9=67|35=0|34=11|49=FSX_UAT_ROLX|52=20230620-06:45:04.614|56=RUAT_ROLX_1|10=083|
20230620-06:45:34.000 : 8=FIX.4.2|9=67|35=0|34=12|49=RUAT_ROLX_1|52=20230620-06:45:34.000|56=FSX_UAT_ROLX|10=076|
20230620-06:45:34.000 : 8=FIX.4.2|9=67|35=0|34=12|49=FSX_UAT_ROLX|52=20230620-06:45:34.738|56=RUAT_ROLX_1|10=094|
20230620-06:45:36.000 : 8=FIX.4.2|9=67|35=5|34=13|49=RUAT_ROLX_1|52=20230620-06:45:36.000|56=FSX_UAT_ROLX|10=084|
20230620-06:45:36.000 : 8=FIX.4.2|9=67|35=5|34=13|49=FSX_UAT_ROLX|52=20230620-06:45:36.788|56=RUAT_ROLX_1|10=107|
20230620-06:58:00.000 : 8=FIX.4.2|9=84|35=A|34=1|49=RUAT_ROLX_1|52=20230620-06:58:00.000|56=FSX_UAT_ROLX|98=0|108=30|141=Y|10=109|
20230620-06:58:00.000 : 8=FIX.4.2|9=84|35=A|34=1|49=FSX_UAT_ROLX|52=20230620-06:58:00.281|56=RUAT_ROLX_1|98=0|108=30|141=Y|10=120|
20230620-06:58:00.000 : 8=FIX.4.2|9=204|35=D|34=2|49=RUAT_ROLX_1|52=20230620-06:58:00.000|56=FSX_UAT_ROLX|1=RUAT_ACCOUNT_1|11=2023543061168724428000000001|21=1|38=5|40=1|54=1|55=5110|60=20230620-06:58:00.915926|109=2023543061168724428000000001|10=189|
20230620-06:58:01.000 : 8=FIX.4.2|9=418|35=8|34=2|49=FSX_UAT_ROLX|52=20230620-06:58:00.997|56=RUAT_ROLX_1|1=RUAT_ACCOUNT_1|6=0|11=2023543061168724428000000001|14=0|17=None|20=0|21=1|31=0|32=0|37=None|38=5|39=8|40=1|44=0|47=P|54=1|55=5110|58=ERROR_10010013,No available instrument risk check data found: instrumentDate=not_found,expectedDate=20230620|59=0|60=20230620-06:58:00.996|103=3|109=101|150=8|151=0|544=1|8164=ROL|8169=20230620-06:58:00.996734|8214=0|10=163|
20230620-06:58:30.000 : 8=FIX.4.2|9=66|35=0|34=3|49=FSX_UAT_ROLX|52=20230620-06:58:30.018|56=RUAT_ROLX_1|10=036|
20230620-06:58:30.000 : 8=FIX.4.2|9=66|35=0|34=3|49=RUAT_ROLX_1|52=20230620-06:58:30.000|56=FSX_UAT_ROLX|10=027|
20230620-06:59:00.000 : 8=FIX.4.2|9=66|35=0|34=4|49=FSX_UAT_ROLX|52=20230620-06:59:00.300|56=RUAT_ROLX_1|10=029|
20230620-06:59:00.000 : 8=FIX.4.2|9=66|35=0|34=4|49=RUAT_ROLX_1|52=20230620-06:59:00.000|56=FSX_UAT_ROLX|10=026|
20230620-06:59:30.000 : 8=FIX.4.2|9=66|35=0|34=5|49=FSX_UAT_ROLX|52=20230620-06:59:30.515|56=RUAT_ROLX_1|10=041|
20230620-06:59:30.000 : 8=FIX.4.2|9=66|35=0|34=5|49=RUAT_ROLX_1|52=20230620-06:59:30.000|56=FSX_UAT_ROLX|10=030|
20230620-07:00:00.000 : 8=FIX.4.2|9=66|35=0|34=6|49=RUAT_ROLX_1|52=20230620-07:00:00.000|56=FSX_UAT_ROLX|10=015|
20230620-07:00:00.000 : 8=FIX.4.2|9=66|35=0|34=6|49=FSX_UAT_ROLX|52=20230620-07:00:00.135|56=RUAT_ROLX_1|10=024|
20230620-07:00:30.000 : 8=FIX.4.2|9=66|35=0|34=7|49=FSX_UAT_ROLX|52=20230620-07:00:30.158|56=RUAT_ROLX_1|10=033|
20230620-07:00:30.000 : 8=FIX.4.2|9=66|35=0|34=7|49=RUAT_ROLX_1|52=20230620-07:00:30.000|56=FSX_UAT_ROLX|10=019|
20230620-07:01:00.000 : 8=FIX.4.2|9=66|35=0|34=8|49=RUAT_ROLX_1|52=20230620-07:01:00.000|56=FSX_UAT_ROLX|10=018|
20230620-07:01:00.000 : 8=FIX.4.2|9=66|35=0|34=8|49=FSX_UAT_ROLX|52=20230620-07:01:00.270|56=RUAT_ROLX_1|10=027|
20230620-07:01:30.000 : 8=FIX.4.2|9=66|35=0|34=9|49=RUAT_ROLX_1|52=20230620-07:01:30.000|56=FSX_UAT_ROLX|10=022|
20230620-07:01:30.000 : 8=FIX.4.2|9=66|35=0|34=9|49=FSX_UAT_ROLX|52=20230620-07:01:30.148|56=RUAT_ROLX_1|10=035|
20230620-07:02:00.000 : 8=FIX.4.2|9=67|35=0|34=10|49=FSX_UAT_ROLX|52=20230620-07:02:00.169|56=RUAT_ROLX_1|10=077|
20230620-07:02:00.000 : 8=FIX.4.2|9=67|35=0|34=10|49=RUAT_ROLX_1|52=20230620-07:02:00.000|56=FSX_UAT_ROLX|10=061|
20230620-07:02:30.000 : 8=FIX.4.2|9=67|35=0|34=11|49=FSX_UAT_ROLX|52=20230620-07:02:30.436|56=RUAT_ROLX_1|10=078|
20230620-07:02:30.000 : 8=FIX.4.2|9=67|35=0|34=11|49=RUAT_ROLX_1|52=20230620-07:02:30.000|56=FSX_UAT_ROLX|10=065|
20230620-07:03:00.000 : 8=FIX.4.2|9=67|35=0|34=12|49=RUAT_ROLX_1|52=20230620-07:03:00.000|56=FSX_UAT_ROLX|10=064|
20230620-07:03:00.000 : 8=FIX.4.2|9=67|35=0|34=12|49=FSX_UAT_ROLX|52=20230620-07:03:00.631|56=RUAT_ROLX_1|10=074|
20230620-07:03:02.000 : 8=FIX.4.2|9=67|35=5|34=13|49=RUAT_ROLX_1|52=20230620-07:03:02.000|56=FSX_UAT_ROLX|10=072|
20230620-07:03:02.000 : 8=FIX.4.2|9=67|35=5|34=13|49=FSX_UAT_ROLX|52=20230620-07:03:02.681|56=RUAT_ROLX_1|10=087|
20230620-08:58:35.000 : 8=FIX.4.2|9=84|35=A|34=1|49=RUAT_ROLX_1|52=20230620-08:58:35.000|56=FSX_UAT_ROLX|98=0|108=30|141=Y|10=119|
20230620-08:59:31.000 : 8=FIX.4.2|9=84|35=A|34=1|49=RUAT_ROLX_1|52=20230620-08:59:31.000|56=FSX_UAT_ROLX|98=0|108=30|141=Y|10=116|
20230620-08:59:31.000 : 8=FIX.4.2|9=84|35=A|34=1|49=FSX_UAT_ROLX|52=20230620-08:59:31.609|56=RUAT_ROLX_1|98=0|108=30|141=Y|10=131|
20230620-08:59:32.000 : 8=FIX.4.2|9=190|35=D|34=2|49=RUAT_ROLX_1|52=20230620-08:59:32.000|56=FSX_UAT_ROLX|1=RUAT_ACCOUNT_1|11=009230620174515000015|21=1|38=2|40=1|54=1|55=5108|60=20230620-08:59:32.318011|109=009230620174515000015|10=255|
20230620-08:59:32.000 : 8=FIX.4.2|9=190|35=D|34=3|49=RUAT_ROLX_1|52=20230620-08:59:32.000|56=FSX_UAT_ROLX|1=RUAT_ACCOUNT_1|11=009230620174515000015|21=1|38=5|40=1|54=1|55=5108|60=20230620-08:59:32.362383|109=009230620174515000015|10=014|
20230620-08:59:32.000 : 8=FIX.4.2|9=411|35=8|34=2|49=FSX_UAT_ROLX|52=20230620-08:59:32.439|56=RUAT_ROLX_1|1=RUAT_ACCOUNT_1|6=0|11=009230620174515000015|14=0|17=None|20=0|21=1|31=0|32=0|37=None|38=2|39=8|40=1|44=0|47=P|54=1|55=5108|58=ERROR_10010013,No available instrument risk check data found: instrumentDate=not_found,expectedDate=20230620|59=0|60=20230620-08:59:32.439|103=3|109=101|150=8|151=0|544=1|8164=ROL|8169=20230620-08:59:32.439290|8214=0|10=058|
20230620-09:00:02.000 : 8=FIX.4.2|9=66|35=0|34=4|49=RUAT_ROLX_1|52=20230620-09:00:02.000|56=FSX_UAT_ROLX|10=017|
20230620-09:00:02.000 : 8=FIX.4.2|9=66|35=0|34=3|49=FSX_UAT_ROLX|52=20230620-09:00:02.355|56=RUAT_ROLX_1|10=029|
20230620-09:00:32.000 : 8=FIX.4.2|9=66|35=0|34=4|49=FSX_UAT_ROLX|52=20230620-09:00:32.375|56=RUAT_ROLX_1|10=035|
20230620-09:00:32.000 : 8=FIX.4.2|9=66|35=0|34=5|49=RUAT_ROLX_1|52=20230620-09:00:32.000|56=FSX_UAT_ROLX|10=021|
20230620-09:01:02.000 : 8=FIX.4.2|9=66|35=0|34=5|49=FSX_UAT_ROLX|52=20230620-09:01:02.581|56=RUAT_ROLX_1|10=033|
20230620-09:01:02.000 : 8=FIX.4.2|9=66|35=0|34=6|49=RUAT_ROLX_1|52=20230620-09:01:02.000|56=FSX_UAT_ROLX|10=020|
20230620-09:01:32.000 : 8=FIX.4.2|9=66|35=0|34=7|49=RUAT_ROLX_1|52=20230620-09:01:32.000|56=FSX_UAT_ROLX|10=024|
20230620-09:01:32.000 : 8=FIX.4.2|9=66|35=0|34=6|49=FSX_UAT_ROLX|52=20230620-09:01:32.892|56=RUAT_ROLX_1|10=042|
20230620-09:02:02.000 : 8=FIX.4.2|9=66|35=0|34=7|49=FSX_UAT_ROLX|52=20230620-09:02:02.073|56=RUAT_ROLX_1|10=032|
20230620-09:02:02.000 : 8=FIX.4.2|9=66|35=0|34=8|49=RUAT_ROLX_1|52=20230620-09:02:02.000|56=FSX_UAT_ROLX|10=023|
20230620-09:02:32.000 : 8=FIX.4.2|9=66|35=0|34=9|49=RUAT_ROLX_1|52=20230620-09:02:32.000|56=FSX_UAT_ROLX|10=027|
20230620-09:02:32.000 : 8=FIX.4.2|9=66|35=0|34=8|49=FSX_UAT_ROLX|52=20230620-09:02:32.182|56=RUAT_ROLX_1|10=037|
20230620-09:03:02.000 : 8=FIX.4.2|9=66|35=0|34=9|49=FSX_UAT_ROLX|52=20230620-09:03:02.198|56=RUAT_ROLX_1|10=043|
20230620-09:03:02.000 : 8=FIX.4.2|9=67|35=0|34=10|49=RUAT_ROLX_1|52=20230620-09:03:02.000|56=FSX_UAT_ROLX|10=066|
20230620-09:03:32.000 : 8=FIX.4.2|9=67|35=0|34=10|49=FSX_UAT_ROLX|52=20230620-09:03:32.403|56=RUAT_ROLX_1|10=076|
20230620-09:03:32.000 : 8=FIX.4.2|9=67|35=0|34=11|49=RUAT_ROLX_1|52=20230620-09:03:32.000|56=FSX_UAT_ROLX|10=070|
20230620-09:04:02.000 : 8=FIX.4.2|9=67|35=0|34=12|49=RUAT_ROLX_1|52=20230620-09:04:02.000|56=FSX_UAT_ROLX|10=069|
20230620-09:04:02.000 : 8=FIX.4.2|9=67|35=0|34=11|49=FSX_UAT_ROLX|52=20230620-09:04:02.706|56=RUAT_ROLX_1|10=081|
20230620-09:04:32.000 : 8=FIX.4.2|9=67|35=5|34=13|49=RUAT_ROLX_1|52=20230620-09:04:32.000|56=FSX_UAT_ROLX|10=078|
20230620-09:04:32.000 : 8=FIX.4.2|9=67|35=0|34=12|49=FSX_UAT_ROLX|52=20230620-09:04:32.903|56=RUAT_ROLX_1|10=084|
20230620-09:04:32.000 : 8=FIX.4.2|9=67|35=5|34=13|49=FSX_UAT_ROLX|52=20230620-09:04:32.921|56=RUAT_ROLX_1|10=090|
20230620-09:07:24.000 : 8=FIX.4.2|9=84|35=A|34=1|49=RUAT_ROLX_1|52=20230620-09:07:24.000|56=FSX_UAT_ROLX|98=0|108=30|141=Y|10=112|
20230620-09:07:24.000 : 8=FIX.4.2|9=84|35=A|34=1|49=FSX_UAT_ROLX|52=20230620-09:07:24.720|56=RUAT_ROLX_1|98=0|108=30|141=Y|10=121|
20230620-09:07:25.000 : 8=FIX.4.2|9=190|35=D|34=2|49=RUAT_ROLX_1|52=20230620-09:07:25.000|56=FSX_UAT_ROLX|1=RUAT_ACCOUNT_1|11=009230620174515000015|21=1|38=3|40=1|54=1|55=5108|60=20230620-09:07:25.393361|109=009230620174515000015|10=003|
20230620-09:07:25.000 : 8=FIX.4.2|9=190|35=D|34=3|49=RUAT_ROLX_1|52=20230620-09:07:25.000|56=FSX_UAT_ROLX|1=RUAT_ACCOUNT_1|11=009230620174515000015|21=1|38=2|40=1|54=1|55=5108|60=20230620-09:07:25.440207|109=009230620174515000015|10=251|
20230620-09:07:55.000 : 8=FIX.4.2|9=66|35=0|34=2|49=FSX_UAT_ROLX|52=20230620-09:07:54.871|56=RUAT_ROLX_1|10=045|
20230620-09:07:55.000 : 8=FIX.4.2|9=66|35=0|34=4|49=RUAT_ROLX_1|52=20230620-09:07:55.000|56=FSX_UAT_ROLX|10=032|
20230620-09:08:24.000 : 8=FIX.4.2|9=66|35=0|34=3|49=FSX_UAT_ROLX|52=20230620-09:08:24.156|56=RUAT_ROLX_1|10=040|
20230620-09:08:25.000 : 8=FIX.4.2|9=66|35=0|34=5|49=RUAT_ROLX_1|52=20230620-09:08:25.000|56=FSX_UAT_ROLX|10=031|
20230620-09:08:54.000 : 8=FIX.4.2|9=66|35=0|34=4|49=FSX_UAT_ROLX|52=20230620-09:08:54.041|56=RUAT_ROLX_1|10=037|
20230620-09:08:55.000 : 8=FIX.4.2|9=66|35=0|34=6|49=RUAT_ROLX_1|52=20230620-09:08:55.000|56=FSX_UAT_ROLX|10=035|
20230620-09:09:24.000 : 8=FIX.4.2|9=66|35=0|34=5|49=FSX_UAT_ROLX|52=20230620-09:09:24.325|56=RUAT_ROLX_1|10=041|
20230620-09:09:25.000 : 8=FIX.4.2|9=66|35=0|34=7|49=RUAT_ROLX_1|52=20230620-09:09:25.000|56=FSX_UAT_ROLX|10=034|
20230620-09:09:54.000 : 8=FIX.4.2|9=66|35=0|34=6|49=FSX_UAT_ROLX|52=20230620-09:09:54.493|56=RUAT_ROLX_1|10=051|
20230620-09:09:55.000 : 8=FIX.4.2|9=66|35=0|34=8|49=RUAT_ROLX_1|52=20230620-09:09:55.000|56=FSX_UAT_ROLX|10=038|
20230620-09:10:24.000 : 8=FIX.4.2|9=66|35=0|34=7|49=FSX_UAT_ROLX|52=20230620-09:10:24.725|56=RUAT_ROLX_1|10=039|
20230620-09:10:25.000 : 8=FIX.4.2|9=66|35=0|34=9|49=RUAT_ROLX_1|52=20230620-09:10:25.000|56=FSX_UAT_ROLX|10=028|
20230620-09:10:55.000 : 8=FIX.4.2|9=66|35=0|34=8|49=FSX_UAT_ROLX|52=20230620-09:10:54.921|56=RUAT_ROLX_1|10=041|
20230620-09:10:55.000 : 8=FIX.4.2|9=67|35=0|34=10|49=RUAT_ROLX_1|52=20230620-09:10:55.000|56=FSX_UAT_ROLX|10=072|
20230620-09:11:24.000 : 8=FIX.4.2|9=66|35=0|34=9|49=FSX_UAT_ROLX|52=20230620-09:11:24.174|56=RUAT_ROLX_1|10=040|
20230620-09:11:25.000 : 8=FIX.4.2|9=67|35=0|34=11|49=RUAT_ROLX_1|52=20230620-09:11:25.000|56=FSX_UAT_ROLX|10=071|
20230620-09:11:54.000 : 8=FIX.4.2|9=67|35=0|34=10|49=FSX_UAT_ROLX|52=20230620-09:11:54.318|56=RUAT_ROLX_1|10=084|
20230620-09:11:55.000 : 8=FIX.4.2|9=67|35=0|34=12|49=RUAT_ROLX_1|52=20230620-09:11:55.000|56=FSX_UAT_ROLX|10=075|
20230620-09:12:25.000 : 8=FIX.4.2|9=67|35=0|34=11|49=FSX_UAT_ROLX|52=20230620-09:12:24.948|56=RUAT_ROLX_1|10=092|
20230620-09:12:25.000 : 8=FIX.4.2|9=67|35=0|34=13|49=RUAT_ROLX_1|52=20230620-09:12:25.000|56=FSX_UAT_ROLX|10=074|
20230620-09:12:25.000 : 8=FIX.4.2|9=67|35=5|34=14|49=RUAT_ROLX_1|52=20230620-09:12:25.000|56=FSX_UAT_ROLX|10=080|
20230620-09:12:26.000 : 8=FIX.4.2|9=67|35=5|34=12|49=FSX_UAT_ROLX|52=20230620-09:12:26.096|56=RUAT_ROLX_1|10=094|
20230620-09:14:37.000 : 8=FIX.4.2|9=84|35=A|34=1|49=RUAT_ROLX_1|52=20230620-09:14:37.000|56=FSX_UAT_ROLX|98=0|108=30|141=Y|10=114|
20230620-09:14:37.000 : 8=FIX.4.2|9=84|35=A|34=1|49=FSX_UAT_ROLX|52=20230620-09:14:37.766|56=RUAT_ROLX_1|98=0|108=30|141=Y|10=133|
20230620-09:14:38.000 : 8=FIX.4.2|9=190|35=D|34=2|49=RUAT_ROLX_1|52=20230620-09:14:38.000|56=FSX_UAT_ROLX|1=RUAT_ACCOUNT_1|11=098230620172023000055|21=1|38=4|40=1|54=1|55=5110|60=20230620-09:14:38.514371|109=098230620172023000055|10=005|
20230620-09:14:38.000 : 8=FIX.4.2|9=190|35=D|34=3|49=RUAT_ROLX_1|52=20230620-09:14:38.000|56=FSX_UAT_ROLX|1=RUAT_ACCOUNT_1|11=098230620172023000055|21=1|38=2|40=1|54=1|55=5110|60=20230620-09:14:38.561187|109=098230620172023000055|10=011|
20230620-09:14:38.000 : 8=FIX.4.2|9=321|35=8|34=2|49=FSX_UAT_ROLX|52=20230620-09:14:38.669|56=RUAT_ROLX_1|1=RUAT_ACCOUNT_1|6=0|11=098230620172023000055|14=0|17=1671084130716487680|20=0|31=0|32=0|37=1671084130680782848|38=4|39=0|40=1|47=P|54=1|55=5110|59=0|60=20230620-09:14:38.669|76=ROLX|109=101|150=0|151=4|544=1|8164=ROL|8169=20230620-09:14:38.669366|8214=0|10=241|
20230620-09:14:39.000 : 8=FIX.4.2|9=370|35=8|34=3|49=FSX_UAT_ROLX|52=20230620-09:14:38.895|56=RUAT_ROLX_1|1=RUAT_ACCOUNT_1|6=0|11=098230620172023000055|14=0|17=None|20=0|21=1|31=0|32=0|37=None|38=2|39=8|40=1|44=0|47=P|54=1|55=5110|58=ERROR_10010002,ClOrdID is duplicated: clOrdID=098230620172023000055|59=0|60=20230620-09:14:38.895|103=3|109=101|150=8|151=0|544=1|8164=ROL|8169=20230620-09:14:38.895417|8214=0|10=060|
20230620-09:15:08.000 : 8=FIX.4.2|9=66|35=0|34=4|49=RUAT_ROLX_1|52=20230620-09:15:08.000|56=FSX_UAT_ROLX|10=029|
20230620-09:15:08.000 : 8=FIX.4.2|9=66|35=0|34=4|49=FSX_UAT_ROLX|52=20230620-09:15:08.805|56=RUAT_ROLX_1|10=042|
20230620-09:15:38.000 : 8=FIX.4.2|9=392|35=8|34=5|49=FSX_UAT_ROLX|52=20230620-09:15:38.024|56=RUAT_ROLX_1|1=RUAT_ACCOUNT_1|6=0|11=098230620172023000055|14=0|17=1671084379652624384|20=0|37=1671084130680782848|38=4|39=C|40=1|41=098230620172023000055|47=P|54=1|55=5110|58=ERROR_20010050,Order expired due to TimeInForce(60s)|59=0|60=20230620-09:15:38.024|76=ROLX|109=101|150=C|151=0|544=1|8164=ROL|8169=20230620-09:15:38.024285|8214=0|10=086|
20230620-09:15:38.000 : 8=FIX.4.2|9=66|35=0|34=5|49=RUAT_ROLX_1|52=20230620-09:15:38.000|56=FSX_UAT_ROLX|10=033|
20230620-09:16:08.000 : 8=FIX.4.2|9=66|35=0|34=6|49=FSX_UAT_ROLX|52=20230620-09:16:08.221|56=RUAT_ROLX_1|10=037|
20230620-09:16:08.000 : 8=FIX.4.2|9=66|35=0|34=6|49=RUAT_ROLX_1|52=20230620-09:16:08.000|56=FSX_UAT_ROLX|10=032|
20230620-09:16:38.000 : 8=FIX.4.2|9=66|35=0|34=7|49=RUAT_ROLX_1|52=20230620-09:16:38.000|56=FSX_UAT_ROLX|10=036|
20230620-09:16:38.000 : 8=FIX.4.2|9=66|35=0|34=7|49=FSX_UAT_ROLX|52=20230620-09:16:38.418|56=RUAT_ROLX_1|10=049|
20230620-09:17:08.000 : 8=FIX.4.2|9=66|35=0|34=8|49=RUAT_ROLX_1|52=20230620-09:17:08.000|56=FSX_UAT_ROLX|10=035|
20230620-09:17:08.000 : 8=FIX.4.2|9=66|35=0|34=8|49=FSX_UAT_ROLX|52=20230620-09:17:08.489|56=RUAT_ROLX_1|10=056|
20230620-09:17:38.000 : 8=FIX.4.2|9=66|35=0|34=9|49=RUAT_ROLX_1|52=20230620-09:17:38.000|56=FSX_UAT_ROLX|10=039|
20230620-09:17:38.000 : 8=FIX.4.2|9=66|35=0|34=9|49=FSX_UAT_ROLX|52=20230620-09:17:38.356|56=RUAT_ROLX_1|10=053|
20230620-09:18:08.000 : 8=FIX.4.2|9=67|35=0|34=10|49=FSX_UAT_ROLX|52=20230620-09:18:08.376|56=RUAT_ROLX_1|10=094|
20230620-09:18:08.000 : 8=FIX.4.2|9=67|35=0|34=10|49=RUAT_ROLX_1|52=20230620-09:18:08.000|56=FSX_UAT_ROLX|10=078|
20230620-09:18:38.000 : 8=FIX.4.2|9=67|35=0|34=11|49=RUAT_ROLX_1|52=20230620-09:18:38.000|56=FSX_UAT_ROLX|10=082|
20230620-09:18:38.000 : 8=FIX.4.2|9=67|35=0|34=11|49=FSX_UAT_ROLX|52=20230620-09:18:38.573|56=RUAT_ROLX_1|10=097|
20230620-09:19:08.000 : 8=FIX.4.2|9=67|35=0|34=12|49=RUAT_ROLX_1|52=20230620-09:19:08.000|56=FSX_UAT_ROLX|10=081|
20230620-09:19:08.000 : 8=FIX.4.2|9=67|35=0|34=12|49=FSX_UAT_ROLX|52=20230620-09:19:08.826|56=RUAT_ROLX_1|10=097|
20230620-09:19:38.000 : 8=FIX.4.2|9=67|35=0|34=13|49=RUAT_ROLX_1|52=20230620-09:19:38.000|56=FSX_UAT_ROLX|10=085|
20230620-09:19:38.000 : 8=FIX.4.2|9=67|35=5|34=14|49=RUAT_ROLX_1|52=20230620-09:19:38.000|56=FSX_UAT_ROLX|10=091|
20230620-09:19:38.000 : 8=FIX.4.2|9=67|35=0|34=13|49=FSX_UAT_ROLX|52=20230620-09:19:38.854|56=RUAT_ROLX_1|10=102|
20230620-09:19:39.000 : 8=FIX.4.2|9=67|35=5|34=14|49=FSX_UAT_ROLX|52=20230620-09:19:39.024|56=RUAT_ROLX_1|10=098|
20230620-09:20:19.000 : 8=FIX.4.2|9=84|35=A|34=1|49=RUAT_ROLX_1|52=20230620-09:20:19.000|56=FSX_UAT_ROLX|98=0|108=30|141=Y|10=111|
20230620-09:20:19.000 : 8=FIX.4.2|9=84|35=A|34=1|49=FSX_UAT_ROLX|52=20230620-09:20:19.243|56=RUAT_ROLX_1|98=0|108=30|141=Y|10=120|
20230620-09:20:20.000 : 8=FIX.4.2|9=191|35=D|34=2|49=RUAT_ROLX_1|52=20230620-09:20:20.000|56=FSX_UAT_ROLX|1=RUAT_ACCOUNT_1|11=032230620165045000064|21=1|38=5|40=1|54=1|55=51888|60=20230620-09:20:20.000890|109=032230620165045000064|10=038|
20230620-09:20:20.000 : 8=FIX.4.2|9=191|35=D|34=3|49=RUAT_ROLX_1|52=20230620-09:20:20.000|56=FSX_UAT_ROLX|1=RUAT_ACCOUNT_1|11=032230620165045000064|21=1|38=1|40=1|54=1|55=51888|60=20230620-09:20:20.042833|109=032230620165045000064|10=038|
20230620-09:20:20.000 : 8=FIX.4.2|9=412|35=8|34=2|49=FSX_UAT_ROLX|52=20230620-09:20:20.078|56=RUAT_ROLX_1|1=RUAT_ACCOUNT_1|6=0|11=032230620165045000064|14=0|17=None|20=0|21=1|31=0|32=0|37=None|38=5|39=8|40=1|44=0|47=P|54=1|55=51888|58=ERROR_10010013,No available instrument risk check data found: instrumentDate=not_found,expectedDate=20230620|59=0|60=20230620-09:20:20.078|103=3|109=101|150=8|151=0|544=1|8164=ROL|8169=20230620-09:20:20.078643|8214=0|10=081|
20230620-09:20:50.000 : 8=FIX.4.2|9=66|35=0|34=3|49=FSX_UAT_ROLX|52=20230620-09:20:50.268|56=RUAT_ROLX_1|10=037|
20230620-09:20:50.000 : 8=FIX.4.2|9=66|35=0|34=4|49=RUAT_ROLX_1|52=20230620-09:20:50.000|56=FSX_UAT_ROLX|10=022|
20230620-09:21:20.000 : 8=FIX.4.2|9=66|35=0|34=5|49=RUAT_ROLX_1|52=20230620-09:21:20.000|56=FSX_UAT_ROLX|10=021|
20230620-09:21:20.000 : 8=FIX.4.2|9=66|35=0|34=4|49=FSX_UAT_ROLX|52=20230620-09:21:20.113|56=RUAT_ROLX_1|10=025|
20230620-09:21:50.000 : 8=FIX.4.2|9=66|35=0|34=5|49=FSX_UAT_ROLX|52=20230620-09:21:50.131|56=RUAT_ROLX_1|10=029|
20230620-09:21:50.000 : 8=FIX.4.2|9=66|35=0|34=6|49=RUAT_ROLX_1|52=20230620-09:21:50.000|56=FSX_UAT_ROLX|10=025|
20230620-09:22:16.000 : 8=FIX.4.2|9=84|35=A|34=1|49=RUAT_ROLX_1|52=20230620-09:22:16.000|56=FSX_UAT_ROLX|98=0|108=30|141=Y|10=110|
20230620-09:22:20.000 : 8=FIX.4.2|9=66|35=0|34=6|49=FSX_UAT_ROLX|52=20230620-09:22:20.330|56=RUAT_ROLX_1|10=029|
20230620-09:22:20.000 : 8=FIX.4.2|9=66|35=0|34=7|49=RUAT_ROLX_1|52=20230620-09:22:20.000|56=FSX_UAT_ROLX|10=024|
20230620-09:22:50.000 : 8=FIX.4.2|9=66|35=0|34=8|49=RUAT_ROLX_1|52=20230620-09:22:50.000|56=FSX_UAT_ROLX|10=028|
20230620-09:22:50.000 : 8=FIX.4.2|9=66|35=0|34=7|49=FSX_UAT_ROLX|52=20230620-09:22:50.528|56=RUAT_ROLX_1|10=042|
20230620-09:23:20.000 : 8=FIX.4.2|9=66|35=0|34=9|49=RUAT_ROLX_1|52=20230620-09:23:20.000|56=FSX_UAT_ROLX|10=027|
20230620-09:23:20.000 : 8=FIX.4.2|9=66|35=0|34=8|49=FSX_UAT_ROLX|52=20230620-09:23:20.549|56=RUAT_ROLX_1|10=044|
20230620-09:23:47.000 : 8=FIX.4.2|9=84|35=A|34=1|49=RUAT_ROLX_1|52=20230620-09:23:47.000|56=FSX_UAT_ROLX|98=0|108=30|141=Y|10=115|
20230620-09:23:50.000 : 8=FIX.4.2|9=67|35=0|34=10|49=RUAT_ROLX_1|52=20230620-09:23:50.000|56=FSX_UAT_ROLX|10=071|
20230620-09:23:50.000 : 8=FIX.4.2|9=66|35=0|34=9|49=FSX_UAT_ROLX|52=20230620-09:23:50.407|56=RUAT_ROLX_1|10=041|
20230620-09:24:20.000 : 8=FIX.4.2|9=67|35=0|34=10|49=FSX_UAT_ROLX|52=20230620-09:24:20.428|56=RUAT_ROLX_1|10=083|
20230620-09:24:20.000 : 8=FIX.4.2|9=67|35=0|34=11|49=RUAT_ROLX_1|52=20230620-09:24:20.000|56=FSX_UAT_ROLX|10=070|
20230620-09:24:47.000 : 8=FIX.4.2|9=84|35=A|34=1|49=RUAT_ROLX_1|52=20230620-09:24:47.000|56=FSX_UAT_ROLX|98=0|108=30|141=Y|10=116|
20230620-09:24:50.000 : 8=FIX.4.2|9=67|35=0|34=11|49=FSX_UAT_ROLX|52=20230620-09:24:50.625|56=RUAT_ROLX_1|10=086|
20230620-09:24:50.000 : 8=FIX.4.2|9=67|35=0|34=12|49=RUAT_ROLX_1|52=20230620-09:24:50.000|56=FSX_UAT_ROLX|10=074|
20230620-09:25:12.000 : 8=FIX.4.2|9=84|35=A|34=1|49=RUAT_ROLX_1|52=20230620-09:25:12.000|56=FSX_UAT_ROLX|98=0|108=30|141=Y|10=109|
20230620-09:25:20.000 : 8=FIX.4.2|9=67|35=5|34=13|49=RUAT_ROLX_1|52=20230620-09:25:20.000|56=FSX_UAT_ROLX|10=078|
20230620-09:25:20.000 : 8=FIX.4.2|9=67|35=0|34=12|49=FSX_UAT_ROLX|52=20230620-09:25:20.867|56=RUAT_ROLX_1|10=093|
20230620-09:25:21.000 : 8=FIX.4.2|9=67|35=5|34=13|49=FSX_UAT_ROLX|52=20230620-09:25:20.919|56=RUAT_ROLX_1|10=097|
20230620-09:25:53.000 : 8=FIX.4.2|9=84|35=A|34=1|49=RUAT_ROLX_1|52=20230620-09:25:53.000|56=FSX_UAT_ROLX|98=0|108=30|141=Y|10=114|
20230620-09:25:53.000 : 8=FIX.4.2|9=84|35=A|34=1|49=FSX_UAT_ROLX|52=20230620-09:25:53.809|56=RUAT_ROLX_1|98=0|108=30|141=Y|10=131|
20230620-09:25:54.000 : 8=FIX.4.2|9=190|35=D|34=2|49=RUAT_ROLX_1|52=20230620-09:25:54.000|56=FSX_UAT_ROLX|1=RUAT_ACCOUNT_1|11=009230620174515000015|21=1|38=4|40=1|54=1|55=5108|60=20230620-09:25:54.564008|109=009230620174515000015|10=006|
20230620-09:25:54.000 : 8=FIX.4.2|9=190|35=D|34=3|49=RUAT_ROLX_1|52=20230620-09:25:54.000|56=FSX_UAT_ROLX|1=RUAT_ACCOUNT_1|11=009230620174515000015|21=1|38=3|40=1|54=1|55=5108|60=20230620-09:25:54.606352|109=009230620174515000015|10=005|
20230620-09:26:24.000 : 8=FIX.4.2|9=66|35=0|34=2|49=FSX_UAT_ROLX|52=20230620-09:26:23.966|56=RUAT_ROLX_1|10=047|
20230620-09:26:24.000 : 8=FIX.4.2|9=66|35=0|34=4|49=RUAT_ROLX_1|52=20230620-09:26:24.000|56=FSX_UAT_ROLX|10=029|
20230620-09:26:53.000 : 8=FIX.4.2|9=66|35=0|34=3|49=FSX_UAT_ROLX|52=20230620-09:26:53.350|56=RUAT_ROLX_1|10=038|
20230620-09:26:54.000 : 8=FIX.4.2|9=66|35=0|34=5|49=RUAT_ROLX_1|52=20230620-09:26:54.000|56=FSX_UAT_ROLX|10=033|
20230620-09:27:23.000 : 8=FIX.4.2|9=66|35=0|34=4|49=FSX_UAT_ROLX|52=20230620-09:27:23.633|56=RUAT_ROLX_1|10=041|
20230620-09:27:24.000 : 8=FIX.4.2|9=66|35=0|34=6|49=RUAT_ROLX_1|52=20230620-09:27:24.000|56=FSX_UAT_ROLX|10=032|
20230620-09:27:53.000 : 8=FIX.4.2|9=66|35=0|34=5|49=FSX_UAT_ROLX|52=20230620-09:27:53.835|56=RUAT_ROLX_1|10=049|
20230620-09:27:54.000 : 8=FIX.4.2|9=66|35=0|34=7|49=RUAT_ROLX_1|52=20230620-09:27:54.000|56=FSX_UAT_ROLX|10=036|
20230620-09:28:23.000 : 8=FIX.4.2|9=66|35=0|34=6|49=FSX_UAT_ROLX|52=20230620-09:28:23.037|56=RUAT_ROLX_1|10=042|
20230620-09:28:24.000 : 8=FIX.4.2|9=66|35=0|34=8|49=RUAT_ROLX_1|52=20230620-09:28:24.000|56=FSX_UAT_ROLX|10=035|
20230620-09:28:53.000 : 8=FIX.4.2|9=66|35=0|34=7|49=FSX_UAT_ROLX|52=20230620-09:28:53.197|56=RUAT_ROLX_1|10=053|
20230620-09:28:54.000 : 8=FIX.4.2|9=66|35=0|34=9|49=RUAT_ROLX_1|52=20230620-09:28:54.000|56=FSX_UAT_ROLX|10=039|
20230620-09:29:23.000 : 8=FIX.4.2|9=66|35=0|34=8|49=FSX_UAT_ROLX|52=20230620-09:29:23.406|56=RUAT_ROLX_1|10=045|
20230620-09:29:24.000 : 8=FIX.4.2|9=67|35=0|34=10|49=RUAT_ROLX_1|52=20230620-09:29:24.000|56=FSX_UAT_ROLX|10=078|
20230620-09:29:53.000 : 8=FIX.4.2|9=66|35=0|34=9|49=FSX_UAT_ROLX|52=20230620-09:29:53.028|56=RUAT_ROLX_1|10=049|
20230620-09:29:54.000 : 8=FIX.4.2|9=67|35=0|34=11|49=RUAT_ROLX_1|52=20230620-09:29:54.000|56=FSX_UAT_ROLX|10=082|
20230620-09:30:23.000 : 8=FIX.4.2|9=67|35=0|34=10|49=FSX_UAT_ROLX|52=20230620-09:30:23.169|56=RUAT_ROLX_1|10=085|
20230620-09:30:24.000 : 8=FIX.4.2|9=67|35=0|34=12|49=RUAT_ROLX_1|52=20230620-09:30:24.000|56=FSX_UAT_ROLX|10=072|
20230620-09:30:53.000 : 8=FIX.4.2|9=67|35=0|34=11|49=FSX_UAT_ROLX|52=20230620-09:30:53.391|56=RUAT_ROLX_1|10=086|
20230620-09:30:54.000 : 8=FIX.4.2|9=67|35=0|34=13|49=RUAT_ROLX_1|52=20230620-09:30:54.000|56=FSX_UAT_ROLX|10=076|
20230620-09:30:55.000 : 8=FIX.4.2|9=67|35=5|34=14|49=RUAT_ROLX_1|52=20230620-09:30:55.000|56=FSX_UAT_ROLX|10=083|
20230620-09:30:55.000 : 8=FIX.4.2|9=67|35=5|34=12|49=FSX_UAT_ROLX|52=20230620-09:30:55.427|56=RUAT_ROLX_1|10=094|
20230620-09:36:41.000 : 8=FIX.4.2|9=84|35=A|34=1|49=RUAT_ROLX_1|52=20230620-09:36:41.000|56=FSX_UAT_ROLX|98=0|108=30|141=Y|10=113|
20230620-09:36:41.000 : 8=FIX.4.2|9=84|35=A|34=1|49=FSX_UAT_ROLX|52=20230620-09:36:41.671|56=RUAT_ROLX_1|98=0|108=30|141=Y|10=127|
20230620-09:37:17.000 : 8=FIX.4.2|9=84|35=A|34=1|49=RUAT_ROLX_1|52=20230620-09:37:17.000|56=FSX_UAT_ROLX|98=0|108=30|141=Y|10=117|
20230620-09:37:17.000 : 8=FIX.4.2|9=84|35=A|34=1|49=FSX_UAT_ROLX|52=20230620-09:37:17.548|56=RUAT_ROLX_1|98=0|108=30|141=Y|10=134|
20230620-09:37:18.000 : 8=FIX.4.2|9=190|35=D|34=2|49=RUAT_ROLX_1|52=20230620-09:37:18.000|56=FSX_UAT_ROLX|1=RUAT_ACCOUNT_1|11=009230620174515000015|21=1|38=2|40=1|54=1|55=5108|60=20230620-09:37:18.294950|109=009230620174515000015|10=016|
20230620-09:37:18.000 : 8=FIX.4.2|9=190|35=D|34=3|49=RUAT_ROLX_1|52=20230620-09:37:18.000|56=FSX_UAT_ROLX|1=RUAT_ACCOUNT_1|11=009230620174515000015|21=1|38=3|40=1|54=1|55=5108|60=20230620-09:37:18.339409|109=009230620174515000015|10=017|
20230620-09:37:47.000 : 8=FIX.4.2|9=66|35=0|34=2|49=FSX_UAT_ROLX|52=20230620-09:37:47.612|56=RUAT_ROLX_1|10=043|
20230620-09:37:48.000 : 8=FIX.4.2|9=66|35=0|34=4|49=RUAT_ROLX_1|52=20230620-09:37:48.000|56=FSX_UAT_ROLX|10=037|
20230620-09:38:17.000 : 8=FIX.4.2|9=66|35=0|34=3|49=FSX_UAT_ROLX|52=20230620-09:38:17.867|56=RUAT_ROLX_1|10=054|
20230620-09:38:18.000 : 8=FIX.4.2|9=66|35=0|34=5|49=RUAT_ROLX_1|52=20230620-09:38:18.000|56=FSX_UAT_ROLX|10=036|
20230620-09:38:47.000 : 8=FIX.4.2|9=66|35=0|34=4|49=FSX_UAT_ROLX|52=20230620-09:38:47.050|56=RUAT_ROLX_1|10=042|
20230620-09:38:48.000 : 8=FIX.4.2|9=66|35=0|34=6|49=RUAT_ROLX_1|52=20230620-09:38:48.000|56=FSX_UAT_ROLX|10=040|
20230620-09:39:17.000 : 8=FIX.4.2|9=66|35=0|34=5|49=FSX_UAT_ROLX|52=20230620-09:39:17.252|56=RUAT_ROLX_1|10=045|
20230620-09:39:18.000 : 8=FIX.4.2|9=66|35=0|34=7|49=RUAT_ROLX_1|52=20230620-09:39:18.000|56=FSX_UAT_ROLX|10=039|
20230620-09:39:47.000 : 8=FIX.4.2|9=66|35=0|34=6|49=FSX_UAT_ROLX|52=20230620-09:39:47.457|56=RUAT_ROLX_1|10=056|
20230620-09:39:48.000 : 8=FIX.4.2|9=66|35=0|34=8|49=RUAT_ROLX_1|52=20230620-09:39:48.000|56=FSX_UAT_ROLX|10=043|
20230620-09:40:17.000 : 8=FIX.4.2|9=66|35=0|34=7|49=FSX_UAT_ROLX|52=20230620-09:40:17.654|56=RUAT_ROLX_1|10=045|
20230620-09:40:18.000 : 8=FIX.4.2|9=66|35=0|34=9|49=RUAT_ROLX_1|52=20230620-09:40:18.000|56=FSX_UAT_ROLX|10=033|
20230620-09:40:47.000 : 8=FIX.4.2|9=66|35=0|34=8|49=FSX_UAT_ROLX|52=20230620-09:40:47.854|56=RUAT_ROLX_1|10=051|
20230620-09:40:48.000 : 8=FIX.4.2|9=67|35=0|34=10|49=RUAT_ROLX_1|52=20230620-09:40:48.000|56=FSX_UAT_ROLX|10=077|
20230620-09:41:17.000 : 8=FIX.4.2|9=66|35=0|34=9|49=FSX_UAT_ROLX|52=20230620-09:41:17.010|56=RUAT_ROLX_1|10=034|
20230620-09:41:18.000 : 8=FIX.4.2|9=67|35=0|34=11|49=RUAT_ROLX_1|52=20230620-09:41:18.000|56=FSX_UAT_ROLX|10=076|
20230620-09:41:47.000 : 8=FIX.4.2|9=67|35=0|34=10|49=FSX_UAT_ROLX|52=20230620-09:41:47.240|56=RUAT_ROLX_1|10=083|
20230620-09:41:48.000 : 8=FIX.4.2|9=67|35=0|34=12|49=RUAT_ROLX_1|52=20230620-09:41:48.000|56=FSX_UAT_ROLX|10=080|
20230620-09:42:17.000 : 8=FIX.4.2|9=67|35=0|34=11|49=FSX_UAT_ROLX|52=20230620-09:42:17.381|56=RUAT_ROLX_1|10=088|
20230620-09:42:18.000 : 8=FIX.4.2|9=67|35=0|34=13|49=RUAT_ROLX_1|52=20230620-09:42:18.000|56=FSX_UAT_ROLX|10=079|
20230620-09:42:19.000 : 8=FIX.4.2|9=67|35=5|34=14|49=RUAT_ROLX_1|52=20230620-09:42:19.000|56=FSX_UAT_ROLX|10=086|
20230620-09:42:19.000 : 8=FIX.4.2|9=67|35=5|34=12|49=FSX_UAT_ROLX|52=20230620-09:42:19.449|56=RUAT_ROLX_1|10=101|
20230620-10:20:24.000 : 8=FIX.4.2|9=84|35=A|34=1|49=RUAT_ROLX_1|52=20230620-10:20:24.000|56=FSX_UAT_ROLX|98=0|108=30|141=Y|10=099|
20230620-10:20:24.000 : 8=FIX.4.2|9=84|35=A|34=1|49=FSX_UAT_ROLX|52=20230620-10:20:24.766|56=RUAT_ROLX_1|98=0|108=30|141=Y|10=118|
20230620-10:20:25.000 : 8=FIX.4.2|9=190|35=D|34=2|49=RUAT_ROLX_1|52=20230620-10:20:25.000|56=FSX_UAT_ROLX|1=RUAT_ACCOUNT_1|11=098230620172023000055|21=1|38=2|40=1|54=1|55=5110|60=20230620-10:20:25.548259|109=098230620172023000055|10=241|
20230620-10:20:25.000 : 8=FIX.4.2|9=190|35=D|34=3|49=RUAT_ROLX_1|52=20230620-10:20:25.000|56=FSX_UAT_ROLX|1=RUAT_ACCOUNT_1|11=098230620172023000055|21=1|38=2|40=1|54=1|55=5110|60=20230620-10:20:25.590226|109=098230620172023000055|10=233|
20230620-10:20:55.000 : 8=FIX.4.2|9=66|35=0|34=2|49=FSX_UAT_ROLX|52=20230620-10:20:54.852|56=RUAT_ROLX_1|10=031|
20230620-10:20:55.000 : 8=FIX.4.2|9=66|35=0|34=4|49=RUAT_ROLX_1|52=20230620-10:20:55.000|56=FSX_UAT_ROLX|10=019|
20230620-10:21:24.000 : 8=FIX.4.2|9=66|35=0|34=3|49=FSX_UAT_ROLX|52=20230620-10:21:24.141|56=RUAT_ROLX_1|10=021|
20230620-10:21:25.000 : 8=FIX.4.2|9=66|35=0|34=5|49=RUAT_ROLX_1|52=20230620-10:21:25.000|56=FSX_UAT_ROLX|10=018|
20230620-10:21:54.000 : 8=FIX.4.2|9=66|35=0|34=4|49=FSX_UAT_ROLX|52=20230620-10:21:54.327|56=RUAT_ROLX_1|10=031|
20230620-10:21:55.000 : 8=FIX.4.2|9=66|35=0|34=6|49=RUAT_ROLX_1|52=20230620-10:21:55.000|56=FSX_UAT_ROLX|10=022|
20230620-10:22:24.000 : 8=FIX.4.2|9=66|35=0|34=5|49=FSX_UAT_ROLX|52=20230620-10:22:24.522|56=RUAT_ROLX_1|10=027|
20230620-10:22:25.000 : 8=FIX.4.2|9=66|35=0|34=7|49=RUAT_ROLX_1|52=20230620-10:22:25.000|56=FSX_UAT_ROLX|10=021|
