20230620-09:43:13.000 : 8=FIX.4.2|9=84|35=A|34=1|49=RSIT_ROLX_1|52=20230620-09:43:13.000|56=FSX_SIT_ROLX|98=0|108=30|141=Y|10=122|
20230620-09:43:13.000 : 8=FIX.4.2|9=84|35=A|34=1|49=FSX_SIT_ROLX|52=20230620-09:43:13.829|56=RSIT_ROLX_1|98=0|108=30|141=Y|10=141|
20230620-09:43:14.000 : 8=FIX.4.2|9=190|35=D|34=2|49=RSIT_ROLX_1|52=20230620-09:43:14.000|56=FSX_SIT_ROLX|1=RSIT_ACCOUNT_1|11=009230620174515000015|21=1|38=3|40=1|54=1|55=5108|60=20230620-09:43:14.584513|109=009230620174515000015|10=018|
20230620-09:43:14.000 : 8=FIX.4.2|9=190|35=D|34=3|49=RSIT_ROLX_1|52=20230620-09:43:14.000|56=FSX_SIT_ROLX|1=RSIT_ACCOUNT_1|11=009230620174515000015|21=1|38=3|40=1|54=1|55=5108|60=20230620-09:43:14.630112|109=009230620174515000015|10=006|
20230620-09:43:14.000 : 8=FIX.4.2|9=370|35=8|34=2|49=FSX_SIT_ROLX|52=20230620-09:43:14.664|56=RSIT_ROLX_1|1=RSIT_ACCOUNT_1|6=0|11=009230620174515000015|14=0|17=None|20=0|21=1|31=0|32=0|37=None|38=3|39=8|40=1|44=0|47=P|54=1|55=5108|58=ERROR_10010002,ClOrdID is duplicated: clOrdID=009230620174515000015|59=0|60=20230620-09:43:14.664|103=3|109=101|150=8|151=0|544=1|8164=ROL|8169=20230620-09:43:14.664249|8214=0|10=050|
20230620-09:43:15.000 : 8=FIX.4.2|9=370|35=8|34=3|49=FSX_SIT_ROLX|52=20230620-09:43:14.839|56=RSIT_ROLX_1|1=RSIT_ACCOUNT_1|6=0|11=009230620174515000015|14=0|17=None|20=0|21=1|31=0|32=0|37=None|38=3|39=8|40=1|44=0|47=P|54=1|55=5108|58=ERROR_10010002,ClOrdID is duplicated: clOrdID=009230620174515000015|59=0|60=20230620-09:43:14.839|103=3|109=101|150=8|151=0|544=1|8164=ROL|8169=20230620-09:43:14.839075|8214=0|10=060|
20230620-09:43:44.000 : 8=FIX.4.2|9=66|35=0|34=4|49=RSIT_ROLX_1|52=20230620-09:43:44.000|56=FSX_SIT_ROLX|10=042|
20230620-09:43:44.000 : 8=FIX.4.2|9=66|35=0|34=4|49=FSX_SIT_ROLX|52=20230620-09:43:44.262|56=RSIT_ROLX_1|10=052|
20230620-09:44:14.000 : 8=FIX.4.2|9=66|35=0|34=5|49=FSX_SIT_ROLX|52=20230620-09:44:14.278|56=RSIT_ROLX_1|10=058|
20230620-09:44:14.000 : 8=FIX.4.2|9=66|35=0|34=5|49=RSIT_ROLX_1|52=20230620-09:44:14.000|56=FSX_SIT_ROLX|10=041|
20230620-09:44:44.000 : 8=FIX.4.2|9=66|35=0|34=6|49=FSX_SIT_ROLX|52=20230620-09:44:44.472|56=RSIT_ROLX_1|10=058|
20230620-09:44:44.000 : 8=FIX.4.2|9=66|35=0|34=6|49=RSIT_ROLX_1|52=20230620-09:44:44.000|56=FSX_SIT_ROLX|10=045|
20230620-09:45:14.000 : 8=FIX.4.2|9=66|35=0|34=7|49=FSX_SIT_ROLX|52=20230620-09:45:14.136|56=RSIT_ROLX_1|10=054|
20230620-09:45:14.000 : 8=FIX.4.2|9=66|35=0|34=7|49=RSIT_ROLX_1|52=20230620-09:45:14.000|56=FSX_SIT_ROLX|10=044|
20230620-09:45:44.000 : 8=FIX.4.2|9=66|35=0|34=8|49=RSIT_ROLX_1|52=20230620-09:45:44.000|56=FSX_SIT_ROLX|10=048|
20230620-09:45:44.000 : 8=FIX.4.2|9=66|35=0|34=8|49=FSX_SIT_ROLX|52=20230620-09:45:44.272|56=RSIT_ROLX_1|10=059|
20230620-09:46:14.000 : 8=FIX.4.2|9=66|35=0|34=9|49=RSIT_ROLX_1|52=20230620-09:46:14.000|56=FSX_SIT_ROLX|10=047|
20230620-09:46:14.000 : 8=FIX.4.2|9=66|35=0|34=9|49=FSX_SIT_ROLX|52=20230620-09:46:14.207|56=RSIT_ROLX_1|10=056|
20230620-09:46:44.000 : 8=FIX.4.2|9=67|35=0|34=10|49=FSX_SIT_ROLX|52=20230620-09:46:44.225|56=RSIT_ROLX_1|10=100|
20230620-09:46:44.000 : 8=FIX.4.2|9=67|35=0|34=10|49=RSIT_ROLX_1|52=20230620-09:46:44.000|56=FSX_SIT_ROLX|10=091|
20230620-09:47:14.000 : 8=FIX.4.2|9=67|35=0|34=11|49=FSX_SIT_ROLX|52=20230620-09:47:14.412|56=RSIT_ROLX_1|10=097|
20230620-09:47:14.000 : 8=FIX.4.2|9=67|35=0|34=11|49=RSIT_ROLX_1|52=20230620-09:47:14.000|56=FSX_SIT_ROLX|10=090|
20230620-09:47:44.000 : 8=FIX.4.2|9=67|35=0|34=12|49=RSIT_ROLX_1|52=20230620-09:47:44.000|56=FSX_SIT_ROLX|10=094|
20230620-09:47:44.000 : 8=FIX.4.2|9=67|35=0|34=12|49=FSX_SIT_ROLX|52=20230620-09:47:44.664|56=RSIT_ROLX_1|10=110|
20230620-09:48:14.000 : 8=FIX.4.2|9=67|35=0|34=13|49=RSIT_ROLX_1|52=20230620-09:48:14.000|56=FSX_SIT_ROLX|10=093|
20230620-09:48:14.000 : 8=FIX.4.2|9=67|35=0|34=13|49=FSX_SIT_ROLX|52=20230620-09:48:14.759|56=RSIT_ROLX_1|10=114|
20230620-09:48:15.000 : 8=FIX.4.2|9=67|35=5|34=14|49=RSIT_ROLX_1|52=20230620-09:48:15.000|56=FSX_SIT_ROLX|10=100|
20230620-09:48:15.000 : 8=FIX.4.2|9=67|35=5|34=14|49=FSX_SIT_ROLX|52=20230620-09:48:15.871|56=RSIT_ROLX_1|10=116|
20230620-09:51:14.000 : 8=FIX.4.2|9=84|35=A|34=1|49=RSIT_ROLX_1|52=20230620-09:51:14.000|56=FSX_SIT_ROLX|98=0|108=30|141=Y|10=122|
20230620-09:51:14.000 : 8=FIX.4.2|9=84|35=A|34=1|49=FSX_SIT_ROLX|52=20230620-09:51:14.489|56=RSIT_ROLX_1|98=0|108=30|141=Y|10=143|
20230620-09:51:15.000 : 8=FIX.4.2|9=190|35=D|34=2|49=RSIT_ROLX_1|52=20230620-09:51:15.000|56=FSX_SIT_ROLX|1=RSIT_ACCOUNT_1|11=098230620172023000055|21=1|38=4|40=1|54=1|55=5110|60=20230620-09:51:15.240761|109=098230620172023000055|10=014|
20230620-09:51:15.000 : 8=FIX.4.2|9=190|35=D|34=3|49=RSIT_ROLX_1|52=20230620-09:51:15.000|56=FSX_SIT_ROLX|1=RSIT_ACCOUNT_1|11=098230620172023000055|21=1|38=5|40=1|54=1|55=5110|60=20230620-09:51:15.284419|109=098230620172023000055|10=024|
20230620-09:51:44.000 : 8=FIX.4.2|9=66|35=0|34=2|49=FSX_SIT_ROLX|52=20230620-09:51:44.443|56=RSIT_ROLX_1|10=050|
20230620-09:51:45.000 : 8=FIX.4.2|9=66|35=0|34=4|49=RSIT_ROLX_1|52=20230620-09:51:45.000|56=FSX_SIT_ROLX|10=042|
20230620-09:52:14.000 : 8=FIX.4.2|9=66|35=0|34=3|49=FSX_SIT_ROLX|52=20230620-09:52:14.697|56=RSIT_ROLX_1|10=060|
20230620-09:52:15.000 : 8=FIX.4.2|9=66|35=0|34=5|49=RSIT_ROLX_1|52=20230620-09:52:15.000|56=FSX_SIT_ROLX|10=041|
20230620-09:52:45.000 : 8=FIX.4.2|9=66|35=0|34=4|49=FSX_SIT_ROLX|52=20230620-09:52:44.888|56=RSIT_ROLX_1|10=066|
20230620-09:52:45.000 : 8=FIX.4.2|9=66|35=0|34=6|49=RSIT_ROLX_1|52=20230620-09:52:45.000|56=FSX_SIT_ROLX|10=045|
20230620-09:52:57.000 : 8=FIX.4.2|9=84|35=A|34=1|49=RSIT_ROLX_1|52=20230620-09:52:57.000|56=FSX_SIT_ROLX|98=0|108=30|141=Y|10=130|
20230620-09:52:57.000 : 8=FIX.4.2|9=84|35=A|34=1|49=FSX_SIT_ROLX|52=20230620-09:52:57.306|56=RSIT_ROLX_1|98=0|108=30|141=Y|10=139|
20230620-09:52:58.000 : 8=FIX.4.2|9=191|35=D|34=2|49=RSIT_ROLX_1|52=20230620-09:52:58.000|56=FSX_SIT_ROLX|1=RSIT_ACCOUNT_1|11=032230620165045000064|21=1|38=4|40=1|54=1|55=51888|60=20230620-09:52:58.055348|109=032230620165045000064|10=095|
20230620-09:52:58.000 : 8=FIX.4.2|9=191|35=D|34=3|49=RSIT_ROLX_1|52=20230620-09:52:58.000|56=FSX_SIT_ROLX|1=RSIT_ACCOUNT_1|11=032230620165045000064|21=1|38=2|40=1|54=1|55=51888|60=20230620-09:52:58.101678|109=032230620165045000064|10=092|
20230620-09:53:27.000 : 8=FIX.4.2|9=66|35=0|34=2|49=FSX_SIT_ROLX|52=20230620-09:53:27.418|56=RSIT_ROLX_1|10=055|
20230620-09:53:28.000 : 8=FIX.4.2|9=66|35=0|34=4|49=RSIT_ROLX_1|52=20230620-09:53:28.000|56=FSX_SIT_ROLX|10=045|
20230620-09:53:57.000 : 8=FIX.4.2|9=66|35=0|34=3|49=FSX_SIT_ROLX|52=20230620-09:53:57.707|56=RSIT_ROLX_1|10=060|
20230620-09:53:58.000 : 8=FIX.4.2|9=66|35=0|34=5|49=RSIT_ROLX_1|52=20230620-09:53:58.000|56=FSX_SIT_ROLX|10=049|
20230620-09:54:27.000 : 8=FIX.4.2|9=66|35=0|34=4|49=FSX_SIT_ROLX|52=20230620-09:54:27.885|56=RSIT_ROLX_1|10=066|
20230620-09:54:28.000 : 8=FIX.4.2|9=66|35=0|34=6|49=RSIT_ROLX_1|52=20230620-09:54:28.000|56=FSX_SIT_ROLX|10=048|
20230620-09:54:57.000 : 8=FIX.4.2|9=66|35=0|34=5|49=FSX_SIT_ROLX|52=20230620-09:54:57.050|56=RSIT_ROLX_1|10=054|
20230620-09:54:58.000 : 8=FIX.4.2|9=66|35=0|34=7|49=RSIT_ROLX_1|52=20230620-09:54:58.000|56=FSX_SIT_ROLX|10=052|
20230620-09:55:27.000 : 8=FIX.4.2|9=66|35=0|34=6|49=FSX_SIT_ROLX|52=20230620-09:55:27.280|56=RSIT_ROLX_1|10=058|
20230620-09:55:28.000 : 8=FIX.4.2|9=66|35=0|34=8|49=RSIT_ROLX_1|52=20230620-09:55:28.000|56=FSX_SIT_ROLX|10=051|
20230620-09:55:58.000 : 8=FIX.4.2|9=66|35=0|34=7|49=FSX_SIT_ROLX|52=20230620-09:55:57.933|56=RSIT_ROLX_1|10=067|
20230620-09:55:58.000 : 8=FIX.4.2|9=66|35=0|34=9|49=RSIT_ROLX_1|52=20230620-09:55:58.000|56=FSX_SIT_ROLX|10=055|
20230620-09:56:27.000 : 8=FIX.4.2|9=66|35=0|34=8|49=FSX_SIT_ROLX|52=20230620-09:56:27.131|56=RSIT_ROLX_1|10=056|
20230620-09:56:28.000 : 8=FIX.4.2|9=67|35=0|34=10|49=RSIT_ROLX_1|52=20230620-09:56:28.000|56=FSX_SIT_ROLX|10=094|
20230620-09:56:57.000 : 8=FIX.4.2|9=66|35=0|34=9|49=FSX_SIT_ROLX|52=20230620-09:56:57.381|56=RSIT_ROLX_1|10=067|
20230620-09:56:58.000 : 8=FIX.4.2|9=67|35=0|34=11|49=RSIT_ROLX_1|52=20230620-09:56:58.000|56=FSX_SIT_ROLX|10=098|
20230620-09:57:33.000 : 8=FIX.4.2|9=84|35=A|34=1|49=RSIT_ROLX_1|52=20230620-09:57:33.000|56=FSX_SIT_ROLX|98=0|108=30|141=Y|10=129|
20230620-09:57:33.000 : 8=FIX.4.2|9=84|35=A|34=1|49=FSX_SIT_ROLX|52=20230620-09:57:33.173|56=RSIT_ROLX_1|98=0|108=30|141=Y|10=140|
20230620-09:57:33.000 : 8=FIX.4.2|9=190|35=D|34=2|49=RSIT_ROLX_1|52=20230620-09:57:33.000|56=FSX_SIT_ROLX|1=RSIT_ACCOUNT_1|11=032230620164816000063|21=1|38=1|40=1|54=1|55=5110|60=20230620-09:57:33.813678|109=032230620164816000063|10=032|
20230620-09:57:33.000 : 8=FIX.4.2|9=190|35=D|34=3|49=RSIT_ROLX_1|52=20230620-09:57:33.000|56=FSX_SIT_ROLX|1=RSIT_ACCOUNT_1|11=032230620164816000063|21=1|38=2|40=1|54=1|55=5110|60=20230620-09:57:33.856255|109=032230620164816000063|10=032|
20230620-09:58:03.000 : 8=FIX.4.2|9=66|35=0|34=4|49=RSIT_ROLX_1|52=20230620-09:58:03.000|56=FSX_SIT_ROLX|10=043|
20230620-09:58:03.000 : 8=FIX.4.2|9=66|35=0|34=2|49=FSX_SIT_ROLX|52=20230620-09:58:03.196|56=RSIT_ROLX_1|10=057|
20230620-09:58:33.000 : 8=FIX.4.2|9=66|35=0|34=3|49=FSX_SIT_ROLX|52=20230620-09:58:33.212|56=RSIT_ROLX_1|10=050|
20230620-09:58:33.000 : 8=FIX.4.2|9=66|35=0|34=5|49=RSIT_ROLX_1|52=20230620-09:58:33.000|56=FSX_SIT_ROLX|10=047|
20230620-09:59:03.000 : 8=FIX.4.2|9=66|35=0|34=6|49=RSIT_ROLX_1|52=20230620-09:59:03.000|56=FSX_SIT_ROLX|10=046|
20230620-09:59:04.000 : 8=FIX.4.2|9=66|35=0|34=4|49=FSX_SIT_ROLX|52=20230620-09:59:03.491|56=RSIT_ROLX_1|10=058|
20230620-09:59:33.000 : 8=FIX.4.2|9=66|35=0|34=7|49=RSIT_ROLX_1|52=20230620-09:59:33.000|56=FSX_SIT_ROLX|10=050|
20230620-09:59:33.000 : 8=FIX.4.2|9=66|35=0|34=5|49=FSX_SIT_ROLX|52=20230620-09:59:33.670|56=RSIT_ROLX_1|10=061|
20230620-10:00:03.000 : 8=FIX.4.2|9=66|35=0|34=8|49=RSIT_ROLX_1|52=20230620-10:00:03.000|56=FSX_SIT_ROLX|10=026|
20230620-10:00:03.000 : 8=FIX.4.2|9=66|35=0|34=6|49=FSX_SIT_ROLX|52=20230620-10:00:03.688|56=RSIT_ROLX_1|10=046|
20230620-10:00:33.000 : 8=FIX.4.2|9=66|35=0|34=9|49=RSIT_ROLX_1|52=20230620-10:00:33.000|56=FSX_SIT_ROLX|10=030|
20230620-10:00:33.000 : 8=FIX.4.2|9=66|35=0|34=7|49=FSX_SIT_ROLX|52=20230620-10:00:33.576|56=RSIT_ROLX_1|10=046|
20230620-10:01:03.000 : 8=FIX.4.2|9=67|35=0|34=10|49=RSIT_ROLX_1|52=20230620-10:01:03.000|56=FSX_SIT_ROLX|10=069|
20230620-10:01:03.000 : 8=FIX.4.2|9=66|35=0|34=8|49=FSX_SIT_ROLX|52=20230620-10:01:03.264|56=RSIT_ROLX_1|10=039|
20230620-10:01:33.000 : 8=FIX.4.2|9=67|35=0|34=11|49=RSIT_ROLX_1|52=20230620-10:01:33.000|56=FSX_SIT_ROLX|10=073|
20230620-10:01:34.000 : 8=FIX.4.2|9=66|35=0|34=9|49=FSX_SIT_ROLX|52=20230620-10:01:33.279|56=RSIT_ROLX_1|10=049|
20230620-10:02:03.000 : 8=FIX.4.2|9=67|35=0|34=12|49=RSIT_ROLX_1|52=20230620-10:02:03.000|56=FSX_SIT_ROLX|10=072|
20230620-10:02:03.000 : 8=FIX.4.2|9=67|35=0|34=10|49=FSX_SIT_ROLX|52=20230620-10:02:03.184|56=RSIT_ROLX_1|10=083|
20230620-10:02:26.000 : 8=FIX.4.2|9=84|35=A|34=1|49=RSIT_ROLX_1|52=20230620-10:02:26.000|56=FSX_SIT_ROLX|98=0|108=30|141=Y|10=113|
20230620-10:02:27.000 : 8=FIX.4.2|9=84|35=A|34=1|49=FSX_SIT_ROLX|52=20230620-10:02:26.981|56=RSIT_ROLX_1|98=0|108=30|141=Y|10=131|
20230620-10:02:27.000 : 8=FIX.4.2|9=190|35=D|34=2|49=RSIT_ROLX_1|52=20230620-10:02:27.000|56=FSX_SIT_ROLX|1=RSIT_ACCOUNT_1|11=032230620164816000063|21=1|38=4|40=1|54=1|55=5110|60=20230620-10:02:27.747907|109=032230620164816000063|10=006|
20230620-10:02:27.000 : 8=FIX.4.2|9=190|35=D|34=3|49=RSIT_ROLX_1|52=20230620-10:02:27.000|56=FSX_SIT_ROLX|1=RSIT_ACCOUNT_1|11=032230620164816000063|21=1|38=1|40=1|54=1|55=5110|60=20230620-10:02:27.794508|109=032230620164816000063|10=003|
20230620-10:02:56.000 : 8=FIX.4.2|9=66|35=0|34=2|49=FSX_SIT_ROLX|52=20230620-10:02:56.036|56=RSIT_ROLX_1|10=039|
20230620-10:02:57.000 : 8=FIX.4.2|9=66|35=0|34=4|49=RSIT_ROLX_1|52=20230620-10:02:57.000|56=FSX_SIT_ROLX|10=033|
20230620-10:03:26.000 : 8=FIX.4.2|9=66|35=0|34=3|49=FSX_SIT_ROLX|52=20230620-10:03:26.236|56=RSIT_ROLX_1|10=040|
20230620-10:03:27.000 : 8=FIX.4.2|9=66|35=0|34=5|49=RSIT_ROLX_1|52=20230620-10:03:27.000|56=FSX_SIT_ROLX|10=032|
20230620-10:03:56.000 : 8=FIX.4.2|9=66|35=0|34=4|49=FSX_SIT_ROLX|52=20230620-10:03:56.440|56=RSIT_ROLX_1|10=041|
20230620-10:03:57.000 : 8=FIX.4.2|9=66|35=0|34=6|49=RSIT_ROLX_1|52=20230620-10:03:57.000|56=FSX_SIT_ROLX|10=036|
20230620-10:04:26.000 : 8=FIX.4.2|9=66|35=0|34=5|49=FSX_SIT_ROLX|52=20230620-10:04:26.737|56=RSIT_ROLX_1|10=049|
20230620-10:04:27.000 : 8=FIX.4.2|9=66|35=0|34=7|49=RSIT_ROLX_1|52=20230620-10:04:27.000|56=FSX_SIT_ROLX|10=035|
20230620-10:04:57.000 : 8=FIX.4.2|9=66|35=0|34=6|49=FSX_SIT_ROLX|52=20230620-10:04:56.946|56=RSIT_ROLX_1|10=055|
20230620-10:04:57.000 : 8=FIX.4.2|9=66|35=0|34=8|49=RSIT_ROLX_1|52=20230620-10:04:57.000|56=FSX_SIT_ROLX|10=039|
20230620-10:05:26.000 : 8=FIX.4.2|9=66|35=0|34=7|49=FSX_SIT_ROLX|52=20230620-10:05:26.177|56=RSIT_ROLX_1|10=050|
20230620-10:05:27.000 : 8=FIX.4.2|9=66|35=0|34=9|49=RSIT_ROLX_1|52=20230620-10:05:27.000|56=FSX_SIT_ROLX|10=038|
20230620-10:05:56.000 : 8=FIX.4.2|9=66|35=0|34=8|49=FSX_SIT_ROLX|52=20230620-10:05:56.347|56=RSIT_ROLX_1|10=053|
20230620-10:05:57.000 : 8=FIX.4.2|9=67|35=0|34=10|49=RSIT_ROLX_1|52=20230620-10:05:57.000|56=FSX_SIT_ROLX|10=082|
20230620-10:06:26.000 : 8=FIX.4.2|9=66|35=0|34=9|49=FSX_SIT_ROLX|52=20230620-10:06:26.522|56=RSIT_ROLX_1|10=047|
20230620-10:06:27.000 : 8=FIX.4.2|9=67|35=0|34=11|49=RSIT_ROLX_1|52=20230620-10:06:27.000|56=FSX_SIT_ROLX|10=081|
20230620-10:06:56.000 : 8=FIX.4.2|9=67|35=0|34=10|49=FSX_SIT_ROLX|52=20230620-10:06:56.727|56=RSIT_ROLX_1|10=098|
20230620-10:06:57.000 : 8=FIX.4.2|9=67|35=0|34=12|49=RSIT_ROLX_1|52=20230620-10:06:57.000|56=FSX_SIT_ROLX|10=085|
20230620-10:07:27.000 : 8=FIX.4.2|9=67|35=0|34=11|49=FSX_SIT_ROLX|52=20230620-10:07:26.929|56=RSIT_ROLX_1|10=101|
20230620-10:07:27.000 : 8=FIX.4.2|9=67|35=0|34=13|49=RSIT_ROLX_1|52=20230620-10:07:27.000|56=FSX_SIT_ROLX|10=084|
20230620-10:07:28.000 : 8=FIX.4.2|9=67|35=5|34=14|49=RSIT_ROLX_1|52=20230620-10:07:28.000|56=FSX_SIT_ROLX|10=091|
20230620-10:07:28.000 : 8=FIX.4.2|9=67|35=5|34=12|49=FSX_SIT_ROLX|52=20230620-10:07:28.111|56=RSIT_ROLX_1|10=092|
20230620-10:07:38.000 : 8=FIX.4.2|9=84|35=A|34=1|49=RSIT_ROLX_1|52=20230620-10:07:38.000|56=FSX_SIT_ROLX|98=0|108=30|141=Y|10=121|
20230620-10:07:38.000 : 8=FIX.4.2|9=84|35=A|34=1|49=FSX_SIT_ROLX|52=20230620-10:07:38.193|56=RSIT_ROLX_1|98=0|108=30|141=Y|10=134|
20230620-10:07:38.000 : 8=FIX.4.2|9=190|35=D|34=2|49=RSIT_ROLX_1|52=20230620-10:07:38.000|56=FSX_SIT_ROLX|1=RSIT_ACCOUNT_1|11=009230620174515000015|21=1|38=1|40=1|54=1|55=5108|60=20230620-10:07:38.902984|109=009230620174515000015|10=018|
20230620-10:07:38.000 : 8=FIX.4.2|9=190|35=D|34=3|49=RSIT_ROLX_1|52=20230620-10:07:38.000|56=FSX_SIT_ROLX|1=RSIT_ACCOUNT_1|11=009230620174515000015|21=1|38=1|40=1|54=1|55=5108|60=20230620-10:07:38.949622|109=009230620174515000015|10=019|
20230620-10:08:08.000 : 8=FIX.4.2|9=66|35=0|34=4|49=RSIT_ROLX_1|52=20230620-10:08:08.000|56=FSX_SIT_ROLX|10=035|
20230620-10:08:08.000 : 8=FIX.4.2|9=66|35=0|34=2|49=FSX_SIT_ROLX|52=20230620-10:08:08.251|56=RSIT_ROLX_1|10=041|
20230620-10:08:38.000 : 8=FIX.4.2|9=66|35=0|34=3|49=FSX_SIT_ROLX|52=20230620-10:08:38.265|56=RSIT_ROLX_1|10=050|
20230620-10:08:38.000 : 8=FIX.4.2|9=66|35=0|34=5|49=RSIT_ROLX_1|52=20230620-10:08:38.000|56=FSX_SIT_ROLX|10=039|
20230620-10:09:08.000 : 8=FIX.4.2|9=66|35=0|34=4|49=FSX_SIT_ROLX|52=20230620-10:09:08.565|56=RSIT_ROLX_1|10=052|
20230620-10:09:08.000 : 8=FIX.4.2|9=66|35=0|34=6|49=RSIT_ROLX_1|52=20230620-10:09:08.000|56=FSX_SIT_ROLX|10=038|
20230620-10:09:38.000 : 8=FIX.4.2|9=66|35=0|34=7|49=RSIT_ROLX_1|52=20230620-10:09:38.000|56=FSX_SIT_ROLX|10=042|
20230620-10:09:38.000 : 8=FIX.4.2|9=66|35=0|34=5|49=FSX_SIT_ROLX|52=20230620-10:09:38.779|56=RSIT_ROLX_1|10=063|
20230620-10:10:08.000 : 8=FIX.4.2|9=66|35=0|34=8|49=RSIT_ROLX_1|52=20230620-10:10:08.000|56=FSX_SIT_ROLX|10=032|
20230620-10:10:09.000 : 8=FIX.4.2|9=66|35=0|34=6|49=FSX_SIT_ROLX|52=20230620-10:10:08.928|56=RSIT_ROLX_1|10=049|
20230620-10:10:38.000 : 8=FIX.4.2|9=66|35=0|34=9|49=RSIT_ROLX_1|52=20230620-10:10:38.000|56=FSX_SIT_ROLX|10=036|
20230620-10:10:38.000 : 8=FIX.4.2|9=66|35=0|34=7|49=FSX_SIT_ROLX|52=20230620-10:10:38.851|56=RSIT_ROLX_1|10=048|
20230620-10:11:08.000 : 8=FIX.4.2|9=67|35=0|34=10|49=RSIT_ROLX_1|52=20230620-10:11:08.000|56=FSX_SIT_ROLX|10=075|
20230620-10:11:08.000 : 8=FIX.4.2|9=66|35=0|34=8|49=FSX_SIT_ROLX|52=20230620-10:11:08.548|56=RSIT_ROLX_1|10=050|
20230620-10:12:31.000 : 8=FIX.4.2|9=84|35=A|34=1|49=RSIT_ROLX_1|52=20230620-10:12:31.000|56=FSX_SIT_ROLX|98=0|108=30|141=Y|10=110|
20230620-10:12:31.000 : 8=FIX.4.2|9=84|35=A|34=1|49=FSX_SIT_ROLX|52=20230620-10:12:31.376|56=RSIT_ROLX_1|98=0|108=30|141=Y|10=126|
20230620-10:12:32.000 : 8=FIX.4.2|9=190|35=D|34=2|49=RSIT_ROLX_1|52=20230620-10:12:32.000|56=FSX_SIT_ROLX|1=RSIT_ACCOUNT_1|11=098230620172023000055|21=1|38=3|40=1|54=1|55=5110|60=20230620-10:12:32.148885|109=098230620172023000055|10=003|
20230620-10:12:32.000 : 8=FIX.4.2|9=190|35=D|34=3|49=RSIT_ROLX_1|52=20230620-10:12:32.000|56=FSX_SIT_ROLX|1=RSIT_ACCOUNT_1|11=098230620172023000055|21=1|38=3|40=1|54=1|55=5110|60=20230620-10:12:32.195793|109=098230620172023000055|10=004|
20230620-10:13:02.000 : 8=FIX.4.2|9=66|35=0|34=2|49=FSX_SIT_ROLX|52=20230620-10:13:01.444|56=RSIT_ROLX_1|10=034|
20230620-10:13:02.000 : 8=FIX.4.2|9=66|35=0|34=4|49=RSIT_ROLX_1|52=20230620-10:13:02.000|56=FSX_SIT_ROLX|10=025|
20230620-10:13:31.000 : 8=FIX.4.2|9=66|35=0|34=3|49=FSX_SIT_ROLX|52=20230620-10:13:31.251|56=RSIT_ROLX_1|10=034|
20230620-10:13:32.000 : 8=FIX.4.2|9=66|35=0|34=5|49=RSIT_ROLX_1|52=20230620-10:13:32.000|56=FSX_SIT_ROLX|10=029|
20230620-10:14:01.000 : 8=FIX.4.2|9=66|35=0|34=4|49=FSX_SIT_ROLX|52=20230620-10:14:01.523|56=RSIT_ROLX_1|10=035|
20230620-10:14:02.000 : 8=FIX.4.2|9=66|35=0|34=6|49=RSIT_ROLX_1|52=20230620-10:14:02.000|56=FSX_SIT_ROLX|10=028|
20230620-10:14:31.000 : 8=FIX.4.2|9=66|35=0|34=5|49=FSX_SIT_ROLX|52=20230620-10:14:31.701|56=RSIT_ROLX_1|10=037|
20230620-10:14:32.000 : 8=FIX.4.2|9=66|35=0|34=7|49=RSIT_ROLX_1|52=20230620-10:14:32.000|56=FSX_SIT_ROLX|10=032|
20230620-10:15:02.000 : 8=FIX.4.2|9=66|35=0|34=6|49=FSX_SIT_ROLX|52=20230620-10:15:01.923|56=RSIT_ROLX_1|10=042|
20230620-10:15:02.000 : 8=FIX.4.2|9=66|35=0|34=8|49=RSIT_ROLX_1|52=20230620-10:15:02.000|56=FSX_SIT_ROLX|10=031|
20230620-10:15:13.000 : 8=FIX.4.2|9=84|35=A|34=1|49=RSIT_ROLX_1|52=20230620-10:15:13.000|56=FSX_SIT_ROLX|98=0|108=30|141=Y|10=113|
20230620-10:15:13.000 : 8=FIX.4.2|9=84|35=A|34=1|49=FSX_SIT_ROLX|52=20230620-10:15:13.070|56=RSIT_ROLX_1|98=0|108=30|141=Y|10=120|
20230620-10:15:13.000 : 8=FIX.4.2|9=190|35=D|34=2|49=RSIT_ROLX_1|52=20230620-10:15:13.000|56=FSX_SIT_ROLX|1=RSIT_ACCOUNT_1|11=098230620172023000055|21=1|38=5|40=1|54=1|55=5110|60=20230620-10:15:13.838050|109=098230620172023000055|10=255|
20230620-10:15:13.000 : 8=FIX.4.2|9=190|35=D|34=3|49=RSIT_ROLX_1|52=20230620-10:15:13.000|56=FSX_SIT_ROLX|1=RSIT_ACCOUNT_1|11=098230620172023000055|21=1|38=4|40=1|54=1|55=5110|60=20230620-10:15:13.885516|109=098230620172023000055|10=008|
20230620-10:15:43.000 : 8=FIX.4.2|9=66|35=0|34=2|49=FSX_SIT_ROLX|52=20230620-10:15:43.142|56=RSIT_ROLX_1|10=037|
20230620-10:15:43.000 : 8=FIX.4.2|9=66|35=0|34=4|49=RSIT_ROLX_1|52=20230620-10:15:43.000|56=FSX_SIT_ROLX|10=032|
20230620-10:16:13.000 : 8=FIX.4.2|9=66|35=0|34=3|49=FSX_SIT_ROLX|52=20230620-10:16:13.426|56=RSIT_ROLX_1|10=041|
20230620-10:16:13.000 : 8=FIX.4.2|9=66|35=0|34=5|49=RSIT_ROLX_1|52=20230620-10:16:13.000|56=FSX_SIT_ROLX|10=031|
20230620-10:16:43.000 : 8=FIX.4.2|9=66|35=0|34=4|49=FSX_SIT_ROLX|52=20230620-10:16:43.626|56=RSIT_ROLX_1|10=047|
20230620-10:16:43.000 : 8=FIX.4.2|9=66|35=0|34=6|49=RSIT_ROLX_1|52=20230620-10:16:43.000|56=FSX_SIT_ROLX|10=035|
20230620-10:17:13.000 : 8=FIX.4.2|9=66|35=0|34=7|49=RSIT_ROLX_1|52=20230620-10:17:13.000|56=FSX_SIT_ROLX|10=034|
20230620-10:17:13.000 : 8=FIX.4.2|9=66|35=0|34=5|49=FSX_SIT_ROLX|52=20230620-10:17:13.055|56=RSIT_ROLX_1|10=042|
20230620-10:17:43.000 : 8=FIX.4.2|9=66|35=0|34=8|49=RSIT_ROLX_1|52=20230620-10:17:43.000|56=FSX_SIT_ROLX|10=038|
20230620-10:17:43.000 : 8=FIX.4.2|9=66|35=0|34=6|49=FSX_SIT_ROLX|52=20230620-10:17:43.066|56=RSIT_ROLX_1|10=048|
20230620-10:18:13.000 : 8=FIX.4.2|9=66|35=0|34=9|49=RSIT_ROLX_1|52=20230620-10:18:13.000|56=FSX_SIT_ROLX|10=037|
20230620-10:18:14.000 : 8=FIX.4.2|9=66|35=0|34=7|49=FSX_SIT_ROLX|52=20230620-10:18:13.262|56=RSIT_ROLX_1|10=045|
20230620-10:18:43.000 : 8=FIX.4.2|9=67|35=0|34=10|49=RSIT_ROLX_1|52=20230620-10:18:43.000|56=FSX_SIT_ROLX|10=081|
20230620-10:18:43.000 : 8=FIX.4.2|9=66|35=0|34=8|49=FSX_SIT_ROLX|52=20230620-10:18:43.534|56=RSIT_ROLX_1|10=051|
20230620-10:19:13.000 : 8=FIX.4.2|9=67|35=0|34=11|49=RSIT_ROLX_1|52=20230620-10:19:13.000|56=FSX_SIT_ROLX|10=080|
20230620-10:19:13.000 : 8=FIX.4.2|9=66|35=0|34=9|49=FSX_SIT_ROLX|52=20230620-10:19:13.124|56=RSIT_ROLX_1|10=045|
20230620-10:23:29.000 : 8=FIX.4.2|9=84|35=A|34=1|49=RSIT_ROLX_1|52=20230620-10:23:29.000|56=FSX_SIT_ROLX|98=0|108=30|141=Y|10=119|
20230620-10:23:29.000 : 8=FIX.4.2|9=84|35=A|34=1|49=FSX_SIT_ROLX|52=20230620-10:23:29.703|56=RSIT_ROLX_1|98=0|108=30|141=Y|10=129|
20230620-10:23:30.000 : 8=FIX.4.2|9=190|35=D|34=2|49=RSIT_ROLX_1|52=20230620-10:23:30.000|56=FSX_SIT_ROLX|1=RSIT_ACCOUNT_1|11=098230620172023000055|21=1|38=4|40=1|54=1|55=5110|60=20230620-10:23:30.481134|109=098230620172023000055|10=247|
20230620-10:23:30.000 : 8=FIX.4.2|9=190|35=D|34=3|49=RSIT_ROLX_1|52=20230620-10:23:30.000|56=FSX_SIT_ROLX|1=RSIT_ACCOUNT_1|11=098230620172023000055|21=1|38=4|40=1|54=1|55=5110|60=20230620-10:23:30.524779|109=098230620172023000055|10=005|
20230620-10:23:59.000 : 8=FIX.4.2|9=66|35=0|34=2|49=FSX_SIT_ROLX|52=20230620-10:23:59.768|56=RSIT_ROLX_1|10=057|
20230620-10:24:00.000 : 8=FIX.4.2|9=66|35=0|34=4|49=RSIT_ROLX_1|52=20230620-10:24:00.000|56=FSX_SIT_ROLX|10=025|
20230620-10:24:30.000 : 8=FIX.4.2|9=66|35=0|34=3|49=FSX_SIT_ROLX|52=20230620-10:24:29.961|56=RSIT_ROLX_1|10=051|
20230620-10:24:30.000 : 8=FIX.4.2|9=66|35=0|34=5|49=RSIT_ROLX_1|52=20230620-10:24:30.000|56=FSX_SIT_ROLX|10=029|
20230620-10:24:59.000 : 8=FIX.4.2|9=66|35=0|34=4|49=FSX_SIT_ROLX|52=20230620-10:24:59.158|56=RSIT_ROLX_1|10=053|
20230620-10:25:00.000 : 8=FIX.4.2|9=66|35=0|34=6|49=RSIT_ROLX_1|52=20230620-10:25:00.000|56=FSX_SIT_ROLX|10=028|
20230620-10:27:27.000 : 8=FIX.4.2|9=84|35=A|34=1|49=RSIT_ROLX_1|52=20230620-10:27:27.000|56=FSX_SIT_ROLX|98=0|108=30|141=Y|10=121|
20230620-10:27:28.000 : 8=FIX.4.2|9=84|35=A|34=1|49=FSX_SIT_ROLX|52=20230620-10:27:28.019|56=RSIT_ROLX_1|98=0|108=30|141=Y|10=132|
20230620-10:27:28.000 : 8=FIX.4.2|9=190|35=D|34=2|49=RSIT_ROLX_1|52=20230620-10:27:28.000|56=FSX_SIT_ROLX|1=RSIT_ACCOUNT_1|11=098230620172023000055|21=1|38=5|40=1|54=1|55=5110|60=20230620-10:27:28.803311|109=098230620172023000055|10=009|
20230620-10:27:28.000 : 8=FIX.4.2|9=190|35=D|34=3|49=RSIT_ROLX_1|52=20230620-10:27:28.000|56=FSX_SIT_ROLX|1=RSIT_ACCOUNT_1|11=098230620172023000055|21=1|38=5|40=1|54=1|55=5110|60=20230620-10:27:28.849651|109=098230620172023000055|10=027|
20230620-10:27:58.000 : 8=FIX.4.2|9=66|35=0|34=2|49=FSX_SIT_ROLX|52=20230620-10:27:58.079|56=RSIT_ROLX_1|10=055|
20230620-10:27:58.000 : 8=FIX.4.2|9=66|35=0|34=4|49=RSIT_ROLX_1|52=20230620-10:27:58.000|56=FSX_SIT_ROLX|10=041|
20230620-10:28:28.000 : 8=FIX.4.2|9=66|35=0|34=3|49=FSX_SIT_ROLX|52=20230620-10:28:28.316|56=RSIT_ROLX_1|10=048|
20230620-10:28:28.000 : 8=FIX.4.2|9=66|35=0|34=5|49=RSIT_ROLX_1|52=20230620-10:28:28.000|56=FSX_SIT_ROLX|10=040|
20230620-10:28:55.000 : 8=FIX.4.2|9=84|35=A|34=1|49=RSIT_ROLX_1|52=20230620-10:28:55.000|56=FSX_SIT_ROLX|98=0|108=30|141=Y|10=123|
20230620-10:29:25.000 : 8=FIX.4.2|9=84|35=A|34=1|49=RSIT_ROLX_1|52=20230620-10:29:25.000|56=FSX_SIT_ROLX|98=0|108=30|141=Y|10=121|
20230620-10:29:25.000 : 8=FIX.4.2|9=84|35=A|34=1|49=FSX_SIT_ROLX|52=20230620-10:29:25.082|56=RSIT_ROLX_1|98=0|108=30|141=Y|10=131|
20230620-10:29:25.000 : 8=FIX.4.2|9=190|35=D|34=2|49=RSIT_ROLX_1|52=20230620-10:29:25.000|56=FSX_SIT_ROLX|1=RSIT_ACCOUNT_1|11=098230620172023000055|21=1|38=4|40=1|54=1|55=5110|60=20230620-10:29:25.665674|109=098230620172023000055|10=024|
20230620-10:29:25.000 : 8=FIX.4.2|9=190|35=D|34=3|49=RSIT_ROLX_1|52=20230620-10:29:25.000|56=FSX_SIT_ROLX|1=RSIT_ACCOUNT_1|11=098230620172023000055|21=1|38=4|40=1|54=1|55=5110|60=20230620-10:29:25.708070|109=098230620172023000055|10=013|
20230620-10:29:55.000 : 8=FIX.4.2|9=66|35=0|34=4|49=RSIT_ROLX_1|52=20230620-10:29:55.000|56=FSX_SIT_ROLX|10=040|
20230620-10:29:55.000 : 8=FIX.4.2|9=66|35=0|34=2|49=FSX_SIT_ROLX|52=20230620-10:29:55.816|56=RSIT_ROLX_1|10=053|
20230620-10:30:25.000 : 8=FIX.4.2|9=66|35=0|34=5|49=RSIT_ROLX_1|52=20230620-10:30:25.000|56=FSX_SIT_ROLX|10=030|
20230620-10:30:25.000 : 8=FIX.4.2|9=66|35=0|34=3|49=FSX_SIT_ROLX|52=20230620-10:30:25.497|56=RSIT_ROLX_1|10=048|
20230620-10:30:55.000 : 8=FIX.4.2|9=66|35=0|34=4|49=FSX_SIT_ROLX|52=20230620-10:30:55.512|56=RSIT_ROLX_1|10=040|
20230620-10:30:55.000 : 8=FIX.4.2|9=66|35=0|34=6|49=RSIT_ROLX_1|52=20230620-10:30:55.000|56=FSX_SIT_ROLX|10=034|
20230620-10:31:25.000 : 8=FIX.4.2|9=66|35=0|34=7|49=RSIT_ROLX_1|52=20230620-10:31:25.000|56=FSX_SIT_ROLX|10=033|
20230620-10:31:25.000 : 8=FIX.4.2|9=66|35=0|34=5|49=FSX_SIT_ROLX|52=20230620-10:31:25.711|56=RSIT_ROLX_1|10=040|
20230620-10:31:55.000 : 8=FIX.4.2|9=66|35=0|34=8|49=RSIT_ROLX_1|52=20230620-10:31:55.000|56=FSX_SIT_ROLX|10=037|
20230620-10:31:55.000 : 8=FIX.4.2|9=66|35=0|34=6|49=FSX_SIT_ROLX|52=20230620-10:31:55.805|56=RSIT_ROLX_1|10=048|
20230620-10:32:25.000 : 8=FIX.4.2|9=66|35=0|34=9|49=RSIT_ROLX_1|52=20230620-10:32:25.000|56=FSX_SIT_ROLX|10=036|
20230620-10:32:25.000 : 8=FIX.4.2|9=66|35=0|34=7|49=FSX_SIT_ROLX|52=20230620-10:32:25.700|56=RSIT_ROLX_1|10=041|
20230620-10:32:55.000 : 8=FIX.4.2|9=67|35=0|34=10|49=RSIT_ROLX_1|52=20230620-10:32:55.000|56=FSX_SIT_ROLX|10=080|
20230620-10:32:55.000 : 8=FIX.4.2|9=66|35=0|34=8|49=FSX_SIT_ROLX|52=20230620-10:32:55.388|56=RSIT_ROLX_1|10=057|
20230620-10:33:25.000 : 8=FIX.4.2|9=66|35=0|34=9|49=FSX_SIT_ROLX|52=20230620-10:33:25.407|56=RSIT_ROLX_1|10=048|
20230620-10:33:25.000 : 8=FIX.4.2|9=67|35=0|34=11|49=RSIT_ROLX_1|52=20230620-10:33:25.000|56=FSX_SIT_ROLX|10=079|
20230620-10:33:55.000 : 8=FIX.4.2|9=67|35=0|34=12|49=RSIT_ROLX_1|52=20230620-10:33:55.000|56=FSX_SIT_ROLX|10=083|
20230620-10:33:55.000 : 8=FIX.4.2|9=67|35=0|34=10|49=FSX_SIT_ROLX|52=20230620-10:33:55.628|56=RSIT_ROLX_1|10=097|
20230620-10:34:25.000 : 8=FIX.4.2|9=67|35=0|34=13|49=RSIT_ROLX_1|52=20230620-10:34:25.000|56=FSX_SIT_ROLX|10=082|
20230620-10:34:25.000 : 8=FIX.4.2|9=67|35=0|34=11|49=FSX_SIT_ROLX|52=20230620-10:34:25.621|56=RSIT_ROLX_1|10=089|
20230620-10:34:26.000 : 8=FIX.4.2|9=67|35=5|34=14|49=RSIT_ROLX_1|52=20230620-10:34:26.000|56=FSX_SIT_ROLX|10=089|
20230620-10:34:26.000 : 8=FIX.4.2|9=67|35=5|34=12|49=FSX_SIT_ROLX|52=20230620-10:34:26.761|56=RSIT_ROLX_1|10=101|
20230620-10:37:25.000 : 8=FIX.4.2|9=84|35=A|34=1|49=RSIT_ROLX_1|52=20230620-10:37:25.000|56=FSX_SIT_ROLX|98=0|108=30|141=Y|10=120|
20230620-10:37:25.000 : 8=FIX.4.2|9=84|35=A|34=1|49=FSX_SIT_ROLX|52=20230620-10:37:25.419|56=RSIT_ROLX_1|98=0|108=30|141=Y|10=134|
20230620-10:37:26.000 : 8=FIX.4.2|9=190|35=D|34=2|49=RSIT_ROLX_1|52=20230620-10:37:26.000|56=FSX_SIT_ROLX|1=RSIT_ACCOUNT_1|11=032230620164816000063|21=1|38=2|40=1|54=1|55=5110|60=20230620-10:37:26.211300|109=032230620164816000063|10=247|
20230620-10:37:26.000 : 8=FIX.4.2|9=190|35=D|34=3|49=RSIT_ROLX_1|52=20230620-10:37:26.000|56=FSX_SIT_ROLX|1=RSIT_ACCOUNT_1|11=032230620164816000063|21=1|38=3|40=1|54=1|55=5110|60=20230620-10:37:26.254452|109=032230620164816000063|10=008|
20230620-10:37:55.000 : 8=FIX.4.2|9=66|35=0|34=2|49=FSX_SIT_ROLX|52=20230620-10:37:55.586|56=RSIT_ROLX_1|10=056|
20230620-10:37:56.000 : 8=FIX.4.2|9=66|35=0|34=4|49=RSIT_ROLX_1|52=20230620-10:37:56.000|56=FSX_SIT_ROLX|10=040|
20230620-10:38:25.000 : 8=FIX.4.2|9=66|35=0|34=3|49=FSX_SIT_ROLX|52=20230620-10:38:25.783|56=RSIT_ROLX_1|10=054|
20230620-10:38:26.000 : 8=FIX.4.2|9=66|35=0|34=5|49=RSIT_ROLX_1|52=20230620-10:38:26.000|56=FSX_SIT_ROLX|10=039|
20230620-10:38:56.000 : 8=FIX.4.2|9=66|35=0|34=4|49=FSX_SIT_ROLX|52=20230620-10:38:55.953|56=RSIT_ROLX_1|10=057|
20230620-10:38:56.000 : 8=FIX.4.2|9=66|35=0|34=6|49=RSIT_ROLX_1|52=20230620-10:38:56.000|56=FSX_SIT_ROLX|10=043|
20230620-10:39:25.000 : 8=FIX.4.2|9=66|35=0|34=5|49=FSX_SIT_ROLX|52=20230620-10:39:25.174|56=RSIT_ROLX_1|10=051|
20230620-10:39:26.000 : 8=FIX.4.2|9=66|35=0|34=7|49=RSIT_ROLX_1|52=20230620-10:39:26.000|56=FSX_SIT_ROLX|10=042|
20230620-10:39:55.000 : 8=FIX.4.2|9=66|35=0|34=6|49=FSX_SIT_ROLX|52=20230620-10:39:55.450|56=RSIT_ROLX_1|10=052|
20230620-10:39:56.000 : 8=FIX.4.2|9=66|35=0|34=8|49=RSIT_ROLX_1|52=20230620-10:39:56.000|56=FSX_SIT_ROLX|10=046|
20230620-10:40:25.000 : 8=FIX.4.2|9=66|35=0|34=7|49=FSX_SIT_ROLX|52=20230620-10:40:25.643|56=RSIT_ROLX_1|10=046|
20230620-10:40:26.000 : 8=FIX.4.2|9=66|35=0|34=9|49=RSIT_ROLX_1|52=20230620-10:40:26.000|56=FSX_SIT_ROLX|10=036|
20230620-10:40:56.000 : 8=FIX.4.2|9=66|35=0|34=8|49=FSX_SIT_ROLX|52=20230620-10:40:55.844|56=RSIT_ROLX_1|10=053|
20230620-10:40:56.000 : 8=FIX.4.2|9=67|35=0|34=10|49=RSIT_ROLX_1|52=20230620-10:40:56.000|56=FSX_SIT_ROLX|10=080|
20230620-10:41:25.000 : 8=FIX.4.2|9=66|35=0|34=9|49=FSX_SIT_ROLX|52=20230620-10:41:25.094|56=RSIT_ROLX_1|10=049|
20230620-10:41:26.000 : 8=FIX.4.2|9=67|35=0|34=11|49=RSIT_ROLX_1|52=20230620-10:41:26.000|56=FSX_SIT_ROLX|10=079|
20230620-10:41:55.000 : 8=FIX.4.2|9=67|35=0|34=10|49=FSX_SIT_ROLX|52=20230620-10:41:55.324|56=RSIT_ROLX_1|10=089|
20230620-10:41:56.000 : 8=FIX.4.2|9=67|35=0|34=12|49=RSIT_ROLX_1|52=20230620-10:41:56.000|56=FSX_SIT_ROLX|10=083|
20230620-10:42:25.000 : 8=FIX.4.2|9=67|35=0|34=11|49=FSX_SIT_ROLX|52=20230620-10:42:25.526|56=RSIT_ROLX_1|10=092|
20230620-10:42:26.000 : 8=FIX.4.2|9=67|35=5|34=13|49=RSIT_ROLX_1|52=20230620-10:42:26.000|56=FSX_SIT_ROLX|10=087|
20230620-10:42:26.000 : 8=FIX.4.2|9=67|35=5|34=12|49=FSX_SIT_ROLX|52=20230620-10:42:26.710|56=RSIT_ROLX_1|10=094|
20230620-10:43:02.000 : 8=FIX.4.2|9=84|35=A|34=1|49=RSIT_ROLX_1|52=20230620-10:43:02.000|56=FSX_SIT_ROLX|98=0|108=30|141=Y|10=112|
20230620-10:43:02.000 : 8=FIX.4.2|9=84|35=A|34=1|49=FSX_SIT_ROLX|52=20230620-10:43:02.741|56=RSIT_ROLX_1|98=0|108=30|141=Y|10=124|
20230620-10:43:03.000 : 8=FIX.4.2|9=190|35=D|34=2|49=RSIT_ROLX_1|52=20230620-10:43:03.000|56=FSX_SIT_ROLX|1=RSIT_ACCOUNT_1|11=032230620164816000063|21=1|38=3|40=1|54=1|55=5110|60=20230620-10:43:03.532178|109=032230620164816000063|10=251|
20230620-10:43:03.000 : 8=FIX.4.2|9=190|35=D|34=3|49=RSIT_ROLX_1|52=20230620-10:43:03.000|56=FSX_SIT_ROLX|1=RSIT_ACCOUNT_1|11=032230620164816000063|21=1|38=3|40=1|54=1|55=5110|60=20230620-10:43:03.579092|109=032230620164816000063|10=002|
20230620-10:43:03.000 : 8=FIX.4.2|9=190|35=D|34=4|49=RSIT_ROLX_1|52=20230620-10:43:03.000|56=FSX_SIT_ROLX|1=RSIT_ACCOUNT_1|11=032230620164816000063|21=1|38=5|40=1|54=1|55=5110|60=20230620-10:43:03.624566|109=032230620164816000063|10=002|
20230620-10:43:03.000 : 8=FIX.4.2|9=370|35=8|34=2|49=FSX_SIT_ROLX|52=20230620-10:43:03.784|56=RSIT_ROLX_1|1=RSIT_ACCOUNT_1|6=0|11=032230620164816000063|14=0|17=None|20=0|21=1|31=0|32=0|37=None|38=5|39=8|40=1|44=0|47=P|54=1|55=5110|58=ERROR_10010002,ClOrdID is duplicated: clOrdID=032230620164816000063|59=0|60=20230620-10:43:03.784|103=3|109=101|150=8|151=0|544=1|8164=ROL|8169=20230620-10:43:03.784102|8214=0|10=016|
20230620-10:43:33.000 : 8=FIX.4.2|9=66|35=0|34=5|49=RSIT_ROLX_1|52=20230620-10:43:33.000|56=FSX_SIT_ROLX|10=033|
20230620-10:43:33.000 : 8=FIX.4.2|9=66|35=0|34=3|49=FSX_SIT_ROLX|52=20230620-10:43:33.620|56=RSIT_ROLX_1|10=039|
20230620-10:44:03.000 : 8=FIX.4.2|9=66|35=0|34=6|49=RSIT_ROLX_1|52=20230620-10:44:03.000|56=FSX_SIT_ROLX|10=032|
20230620-10:44:03.000 : 8=FIX.4.2|9=66|35=0|34=4|49=FSX_SIT_ROLX|52=20230620-10:44:03.236|56=RSIT_ROLX_1|10=041|
20230620-10:44:38.000 : 8=FIX.4.2|9=84|35=A|34=1|49=RSIT_ROLX_1|52=20230620-10:44:38.000|56=FSX_SIT_ROLX|98=0|108=30|141=Y|10=122|
20230620-10:44:38.000 : 8=FIX.4.2|9=84|35=A|34=1|49=FSX_SIT_ROLX|52=20230620-10:44:38.061|56=RSIT_ROLX_1|98=0|108=30|141=Y|10=129|
20230620-10:44:38.000 : 8=FIX.4.2|9=190|35=D|34=2|49=RSIT_ROLX_1|52=20230620-10:44:38.000|56=FSX_SIT_ROLX|1=RSIT_ACCOUNT_1|11=032230620164816000063|21=1|38=4|40=1|54=1|55=5110|60=20230620-10:44:38.364711|109=032230620164816000063|10=010|
20230620-10:44:38.000 : 8=FIX.4.2|9=190|35=D|34=3|49=RSIT_ROLX_1|52=20230620-10:44:38.000|56=FSX_SIT_ROLX|1=RSIT_ACCOUNT_1|11=032230620164816000063|21=1|38=1|40=1|54=1|55=5110|60=20230620-10:44:38.411606|109=032230620164816000063|10=004|
20230620-10:44:38.000 : 8=FIX.4.2|9=190|35=D|34=4|49=RSIT_ROLX_1|52=20230620-10:44:38.000|56=FSX_SIT_ROLX|1=RSIT_ACCOUNT_1|11=032230620164816000063|21=1|38=2|40=1|54=1|55=5110|60=20230620-10:44:38.456301|109=032230620164816000063|10=007|
20230620-10:44:38.000 : 8=FIX.4.2|9=190|35=D|34=5|49=RSIT_ROLX_1|52=20230620-10:44:38.000|56=FSX_SIT_ROLX|1=RSIT_ACCOUNT_1|11=032230620164816000063|21=1|38=5|40=1|54=1|55=5110|60=20230620-10:44:38.501805|109=032230620164816000063|10=011|
20230620-10:44:38.000 : 8=FIX.4.2|9=190|35=D|34=6|49=RSIT_ROLX_1|52=20230620-10:44:38.000|56=FSX_SIT_ROLX|1=RSIT_ACCOUNT_1|11=032230620164816000063|21=1|38=5|40=1|54=1|55=5110|60=20230620-10:44:38.546277|109=032230620164816000063|10=024|
20230620-10:44:38.000 : 8=FIX.4.2|9=190|35=D|34=7|49=RSIT_ROLX_1|52=20230620-10:44:38.000|56=FSX_SIT_ROLX|1=RSIT_ACCOUNT_1|11=032230620164816000063|21=1|38=2|40=1|54=1|55=5110|60=20230620-10:44:38.592084|109=032230620164816000063|10=019|
20230620-10:44:38.000 : 8=FIX.4.2|9=370|35=8|34=2|49=FSX_SIT_ROLX|52=20230620-10:44:38.614|56=RSIT_ROLX_1|1=RSIT_ACCOUNT_1|6=0|11=032230620164816000063|14=0|17=None|20=0|21=1|31=0|32=0|37=None|38=5|39=8|40=1|44=0|47=P|54=1|55=5110|58=ERROR_10010002,ClOrdID is duplicated: clOrdID=032230620164816000063|59=0|60=20230620-10:44:38.614|103=3|109=101|150=8|151=0|544=1|8164=ROL|8169=20230620-10:44:38.614104|8214=0|10=021|
20230620-10:44:38.000 : 8=FIX.4.2|9=370|35=8|34=3|49=FSX_SIT_ROLX|52=20230620-10:44:38.614|56=RSIT_ROLX_1|1=RSIT_ACCOUNT_1|6=0|11=032230620164816000063|14=0|17=None|20=0|21=1|31=0|32=0|37=None|38=5|39=8|40=1|44=0|47=P|54=1|55=5110|58=ERROR_10010002,ClOrdID is duplicated: clOrdID=032230620164816000063|59=0|60=20230620-10:44:38.614|103=3|109=101|150=8|151=0|544=1|8164=ROL|8169=20230620-10:44:38.614588|8214=0|10=038|
20230620-10:44:39.000 : 8=FIX.4.2|9=370|35=8|34=4|49=FSX_SIT_ROLX|52=20230620-10:44:38.787|56=RSIT_ROLX_1|1=RSIT_ACCOUNT_1|6=0|11=032230620164816000063|14=0|17=None|20=0|21=1|31=0|32=0|37=None|38=2|39=8|40=1|44=0|47=P|54=1|55=5110|58=ERROR_10010002,ClOrdID is duplicated: clOrdID=032230620164816000063|59=0|60=20230620-10:44:38.787|103=3|109=101|150=8|151=0|544=1|8164=ROL|8169=20230620-10:44:38.787163|8214=0|10=058|
20230620-10:45:08.000 : 8=FIX.4.2|9=66|35=0|34=8|49=RSIT_ROLX_1|52=20230620-10:45:08.000|56=FSX_SIT_ROLX|10=040|
20230620-10:45:08.000 : 8=FIX.4.2|9=66|35=0|34=5|49=FSX_SIT_ROLX|52=20230620-10:45:08.588|56=RSIT_ROLX_1|10=058|
20230620-10:45:38.000 : 8=FIX.4.2|9=66|35=0|34=6|49=FSX_SIT_ROLX|52=20230620-10:45:38.605|56=RSIT_ROLX_1|10=052|
20230620-10:45:38.000 : 8=FIX.4.2|9=66|35=0|34=9|49=RSIT_ROLX_1|52=20230620-10:45:38.000|56=FSX_SIT_ROLX|10=044|
20230620-10:46:08.000 : 8=FIX.4.2|9=67|35=0|34=10|49=RSIT_ROLX_1|52=20230620-10:46:08.000|56=FSX_SIT_ROLX|10=083|
20230620-10:46:08.000 : 8=FIX.4.2|9=66|35=0|34=7|49=FSX_SIT_ROLX|52=20230620-10:46:08.817|56=RSIT_ROLX_1|10=056|
20230620-10:46:38.000 : 8=FIX.4.2|9=67|35=0|34=11|49=RSIT_ROLX_1|52=20230620-10:46:38.000|56=FSX_SIT_ROLX|10=087|
20230620-10:46:38.000 : 8=FIX.4.2|9=66|35=0|34=8|49=FSX_SIT_ROLX|52=20230620-10:46:38.809|56=RSIT_ROLX_1|10=061|
20230620-10:47:08.000 : 8=FIX.4.2|9=67|35=0|34=12|49=RSIT_ROLX_1|52=20230620-10:47:08.000|56=FSX_SIT_ROLX|10=086|
20230620-10:47:08.000 : 8=FIX.4.2|9=66|35=0|34=9|49=FSX_SIT_ROLX|52=20230620-10:47:08.614|56=RSIT_ROLX_1|10=054|
20230620-10:47:35.000 : 8=FIX.4.2|9=84|35=A|34=1|49=RSIT_ROLX_1|52=20230620-10:47:35.000|56=FSX_SIT_ROLX|98=0|108=30|141=Y|10=122|
20230620-10:47:36.000 : 8=FIX.4.2|9=84|35=A|34=1|49=FSX_SIT_ROLX|52=20230620-10:47:35.928|56=RSIT_ROLX_1|98=0|108=30|141=Y|10=141|
20230620-10:47:36.000 : 8=FIX.4.2|9=190|35=D|34=2|49=RSIT_ROLX_1|52=20230620-10:47:36.000|56=FSX_SIT_ROLX|1=RSIT_ACCOUNT_1|11=098230620172023000055|21=1|38=3|40=1|54=1|55=5110|60=20230620-10:47:36.722835|109=098230620172023000055|10=020|
20230620-10:47:36.000 : 8=FIX.4.2|9=190|35=D|34=3|49=RSIT_ROLX_1|52=20230620-10:47:36.000|56=FSX_SIT_ROLX|1=RSIT_ACCOUNT_1|11=098230620172023000055|21=1|38=4|40=1|54=1|55=5110|60=20230620-10:47:36.765283|109=098230620172023000055|10=026|
20230620-10:47:36.000 : 8=FIX.4.2|9=190|35=D|34=4|49=RSIT_ROLX_1|52=20230620-10:47:36.000|56=FSX_SIT_ROLX|1=RSIT_ACCOUNT_1|11=098230620172023000055|21=1|38=3|40=1|54=1|55=5110|60=20230620-10:47:36.810268|109=098230620172023000055|10=020|
20230620-10:47:36.000 : 8=FIX.4.2|9=190|35=D|34=5|49=RSIT_ROLX_1|52=20230620-10:47:36.000|56=FSX_SIT_ROLX|1=RSIT_ACCOUNT_1|11=098230620172023000055|21=1|38=4|40=1|54=1|55=5110|60=20230620-10:47:36.855193|109=098230620172023000055|10=028|
20230620-10:48:05.000 : 8=FIX.4.2|9=66|35=0|34=2|49=FSX_SIT_ROLX|52=20230620-10:48:05.098|56=RSIT_ROLX_1|10=051|
20230620-10:48:06.000 : 8=FIX.4.2|9=66|35=0|34=6|49=RSIT_ROLX_1|52=20230620-10:48:06.000|56=FSX_SIT_ROLX|10=039|
20230620-10:48:27.000 : 8=FIX.4.2|9=84|35=A|34=1|49=RSIT_ROLX_1|52=20230620-10:48:27.000|56=FSX_SIT_ROLX|98=0|108=30|141=Y|10=124|
20230620-10:48:27.000 : 8=FIX.4.2|9=84|35=A|34=1|49=FSX_SIT_ROLX|52=20230620-10:48:27.194|56=RSIT_ROLX_1|98=0|108=30|141=Y|10=138|
20230620-10:48:27.000 : 8=FIX.4.2|9=190|35=D|34=2|49=RSIT_ROLX_1|52=20230620-10:48:27.000|56=FSX_SIT_ROLX|1=RSIT_ACCOUNT_1|11=098230620172023000055|21=1|38=2|40=1|54=1|55=5110|60=20230620-10:48:27.978685|109=098230620172023000055|10=037|
20230620-10:48:28.000 : 8=FIX.4.2|9=190|35=D|34=3|49=RSIT_ROLX_1|52=20230620-10:48:28.000|56=FSX_SIT_ROLX|1=RSIT_ACCOUNT_1|11=098230620172023000055|21=1|38=4|40=1|54=1|55=5110|60=20230620-10:48:28.023781|109=098230620172023000055|10=020|
20230620-10:48:28.000 : 8=FIX.4.2|9=190|35=D|34=4|49=RSIT_ROLX_1|52=20230620-10:48:28.000|56=FSX_SIT_ROLX|1=RSIT_ACCOUNT_1|11=098230620172023000055|21=1|38=2|40=1|54=1|55=5110|60=20230620-10:48:28.069374|109=098230620172023000055|10=027|
20230620-10:48:28.000 : 8=FIX.4.2|9=190|35=D|34=5|49=RSIT_ROLX_1|52=20230620-10:48:28.000|56=FSX_SIT_ROLX|1=RSIT_ACCOUNT_1|11=098230620172023000055|21=1|38=4|40=1|54=1|55=5110|60=20230620-10:48:28.112821|109=098230620172023000055|10=016|
20230620-10:48:28.000 : 8=FIX.4.2|9=190|35=D|34=6|49=RSIT_ROLX_1|52=20230620-10:48:28.000|56=FSX_SIT_ROLX|1=RSIT_ACCOUNT_1|11=098230620172023000055|21=1|38=2|40=1|54=1|55=5110|60=20230620-10:48:28.159623|109=098230620172023000055|10=026|
20230620-10:48:28.000 : 8=FIX.4.2|9=190|35=D|34=7|49=RSIT_ROLX_1|52=20230620-10:48:28.000|56=FSX_SIT_ROLX|1=RSIT_ACCOUNT_1|11=098230620172023000055|21=1|38=3|40=1|54=1|55=5110|60=20230620-10:48:28.203540|109=098230620172023000055|10=016|
20230620-10:48:28.000 : 8=FIX.4.2|9=190|35=D|34=8|49=RSIT_ROLX_1|52=20230620-10:48:28.000|56=FSX_SIT_ROLX|1=RSIT_ACCOUNT_1|11=098230620172023000055|21=1|38=5|40=1|54=1|55=5110|60=20230620-10:48:28.249340|109=098230620172023000055|10=027|
20230620-10:48:28.000 : 8=FIX.4.2|9=190|35=D|34=9|49=RSIT_ROLX_1|52=20230620-10:48:28.000|56=FSX_SIT_ROLX|1=RSIT_ACCOUNT_1|11=098230620172023000055|21=1|38=4|40=1|54=1|55=5110|60=20230620-10:48:28.290854|109=098230620172023000055|10=033|
20230620-10:48:28.000 : 8=FIX.4.2|9=191|35=D|34=10|49=RSIT_ROLX_1|52=20230620-10:48:28.000|56=FSX_SIT_ROLX|1=RSIT_ACCOUNT_1|11=098230620172023000055|21=1|38=3|40=1|54=1|55=5110|60=20230620-10:48:28.336992|109=098230620172023000055|10=077|
20230620-10:48:28.000 : 8=FIX.4.2|9=191|35=D|34=11|49=RSIT_ROLX_1|52=20230620-10:48:28.000|56=FSX_SIT_ROLX|1=RSIT_ACCOUNT_1|11=098230620172023000055|21=1|38=2|40=1|54=1|55=5110|60=20230620-10:48:28.382648|109=098230620172023000055|10=076|
20230620-10:48:28.000 : 8=FIX.4.2|9=370|35=8|34=2|49=FSX_SIT_ROLX|52=20230620-10:48:28.325|56=RSIT_ROLX_1|1=RSIT_ACCOUNT_1|6=0|11=098230620172023000055|14=0|17=None|20=0|21=1|31=0|32=0|37=None|38=5|39=8|40=1|44=0|47=P|54=1|55=5110|58=ERROR_10010002,ClOrdID is duplicated: clOrdID=098230620172023000055|59=0|60=20230620-10:48:28.325|103=3|109=101|150=8|151=0|544=1|8164=ROL|8169=20230620-10:48:28.325727|8214=0|10=042|
20230620-10:48:28.000 : 8=FIX.4.2|9=370|35=8|34=3|49=FSX_SIT_ROLX|52=20230620-10:48:28.326|56=RSIT_ROLX_1|1=RSIT_ACCOUNT_1|6=0|11=098230620172023000055|14=0|17=None|20=0|21=1|31=0|32=0|37=None|38=4|39=8|40=1|44=0|47=P|54=1|55=5110|58=ERROR_10010002,ClOrdID is duplicated: clOrdID=098230620172023000055|59=0|60=20230620-10:48:28.326|103=3|109=101|150=8|151=0|544=1|8164=ROL|8169=20230620-10:48:28.326194|8214=0|10=043|
20230620-10:48:28.000 : 8=FIX.4.2|9=370|35=8|34=4|49=FSX_SIT_ROLX|52=20230620-10:48:28.500|56=RSIT_ROLX_1|1=RSIT_ACCOUNT_1|6=0|11=098230620172023000055|14=0|17=None|20=0|21=1|31=0|32=0|37=None|38=3|39=8|40=1|44=0|47=P|54=1|55=5110|58=ERROR_10010002,ClOrdID is duplicated: clOrdID=098230620172023000055|59=0|60=20230620-10:48:28.500|103=3|109=101|150=8|151=0|544=1|8164=ROL|8169=20230620-10:48:28.500530|8214=0|10=019|
20230620-10:48:28.000 : 8=FIX.4.2|9=370|35=8|34=5|49=FSX_SIT_ROLX|52=20230620-10:48:28.501|56=RSIT_ROLX_1|1=RSIT_ACCOUNT_1|6=0|11=098230620172023000055|14=0|17=None|20=0|21=1|31=0|32=0|37=None|38=2|39=8|40=1|44=0|47=P|54=1|55=5110|58=ERROR_10010002,ClOrdID is duplicated: clOrdID=098230620172023000055|59=0|60=20230620-10:48:28.501|103=3|109=101|150=8|151=0|544=1|8164=ROL|8169=20230620-10:48:28.501035|8214=0|10=022|
20230620-10:48:58.000 : 8=FIX.4.2|9=67|35=0|34=12|49=RSIT_ROLX_1|52=20230620-10:48:58.000|56=FSX_SIT_ROLX|10=092|
20230620-10:48:58.000 : 8=FIX.4.2|9=66|35=0|34=6|49=FSX_SIT_ROLX|52=20230620-10:48:58.059|56=RSIT_ROLX_1|10=060|
20230620-10:49:28.000 : 8=FIX.4.2|9=66|35=0|34=7|49=FSX_SIT_ROLX|52=20230620-10:49:28.072|56=RSIT_ROLX_1|10=054|
20230620-10:49:28.000 : 8=FIX.4.2|9=67|35=0|34=13|49=RSIT_ROLX_1|52=20230620-10:49:28.000|56=FSX_SIT_ROLX|10=091|
20230620-10:49:58.000 : 8=FIX.4.2|9=67|35=0|34=14|49=RSIT_ROLX_1|52=20230620-10:49:58.000|56=FSX_SIT_ROLX|10=095|
20230620-10:49:58.000 : 8=FIX.4.2|9=66|35=0|34=8|49=FSX_SIT_ROLX|52=20230620-10:49:58.209|56=RSIT_ROLX_1|10=060|
20230620-10:50:28.000 : 8=FIX.4.2|9=67|35=0|34=15|49=RSIT_ROLX_1|52=20230620-10:50:28.000|56=FSX_SIT_ROLX|10=085|
20230620-10:50:28.000 : 8=FIX.4.2|9=66|35=0|34=9|49=FSX_SIT_ROLX|52=20230620-10:50:28.170|56=RSIT_ROLX_1|10=047|
20230620-10:50:58.000 : 8=FIX.4.2|9=84|35=A|34=1|49=RSIT_ROLX_1|52=20230620-10:50:58.000|56=FSX_SIT_ROLX|98=0|108=30|141=Y|10=121|
20230620-10:50:58.000 : 8=FIX.4.2|9=84|35=A|34=1|49=FSX_SIT_ROLX|52=20230620-10:50:58.354|56=RSIT_ROLX_1|98=0|108=30|141=Y|10=133|
20230620-10:50:59.000 : 8=FIX.4.2|9=191|35=D|34=2|49=RSIT_ROLX_1|52=20230620-10:50:59.000|56=FSX_SIT_ROLX|1=RSIT_ACCOUNT_1|11=032230620165045000064|21=1|38=2|40=1|54=1|55=51888|60=20230620-10:50:59.149150|109=032230620165045000064|10=070|
20230620-10:50:59.000 : 8=FIX.4.2|9=191|35=D|34=3|49=RSIT_ROLX_1|52=20230620-10:50:59.000|56=FSX_SIT_ROLX|1=RSIT_ACCOUNT_1|11=032230620165045000064|21=1|38=1|40=1|54=1|55=51888|60=20230620-10:50:59.191351|109=032230620165045000064|10=070|
20230620-10:50:59.000 : 8=FIX.4.2|9=191|35=D|34=4|49=RSIT_ROLX_1|52=20230620-10:50:59.000|56=FSX_SIT_ROLX|1=RSIT_ACCOUNT_1|11=032230620165045000064|21=1|38=5|40=1|54=1|55=51888|60=20230620-10:50:59.238011|109=032230620165045000064|10=070|
20230620-10:50:59.000 : 8=FIX.4.2|9=191|35=D|34=5|49=RSIT_ROLX_1|52=20230620-10:50:59.000|56=FSX_SIT_ROLX|1=RSIT_ACCOUNT_1|11=032230620165045000064|21=1|38=4|40=1|54=1|55=51888|60=20230620-10:50:59.284759|109=032230620165045000064|10=090|
20230620-10:50:59.000 : 8=FIX.4.2|9=191|35=D|34=6|49=RSIT_ROLX_1|52=20230620-10:50:59.000|56=FSX_SIT_ROLX|1=RSIT_ACCOUNT_1|11=032230620165045000064|21=1|38=5|40=1|54=1|55=51888|60=20230620-10:50:59.330528|109=032230620165045000064|10=078|
20230620-10:51:37.000 : 8=FIX.4.2|9=84|35=A|34=1|49=RSIT_ROLX_1|52=20230620-10:51:37.000|56=FSX_SIT_ROLX|98=0|108=30|141=Y|10=119|
20230620-10:51:37.000 : 8=FIX.4.2|9=84|35=A|34=1|49=FSX_SIT_ROLX|52=20230620-10:51:37.226|56=RSIT_ROLX_1|98=0|108=30|141=Y|10=129|
20230620-10:51:38.000 : 8=FIX.4.2|9=191|35=D|34=2|49=RSIT_ROLX_1|52=20230620-10:51:38.000|56=FSX_SIT_ROLX|1=RSIT_ACCOUNT_1|11=032230620165045000064|21=1|38=4|40=1|54=1|55=51888|60=20230620-10:51:38.018880|109=032230620165045000064|10=073|
20230620-10:51:38.000 : 8=FIX.4.2|9=191|35=D|34=3|49=RSIT_ROLX_1|52=20230620-10:51:38.000|56=FSX_SIT_ROLX|1=RSIT_ACCOUNT_1|11=032230620165045000064|21=1|38=1|40=1|54=1|55=51888|60=20230620-10:51:38.065588|109=032230620165045000064|10=078|
20230620-10:51:38.000 : 8=FIX.4.2|9=191|35=D|34=4|49=RSIT_ROLX_1|52=20230620-10:51:38.000|56=FSX_SIT_ROLX|1=RSIT_ACCOUNT_1|11=032230620165045000064|21=1|38=5|40=1|54=1|55=51888|60=20230620-10:51:38.108600|109=032230620165045000064|10=066|
20230620-10:51:38.000 : 8=FIX.4.2|9=191|35=D|34=5|49=RSIT_ROLX_1|52=20230620-10:51:38.000|56=FSX_SIT_ROLX|1=RSIT_ACCOUNT_1|11=032230620165045000064|21=1|38=2|40=1|54=1|55=51888|60=20230620-10:51:38.154866|109=032230620165045000064|10=079|
20230620-10:51:38.000 : 8=FIX.4.2|9=191|35=D|34=6|49=RSIT_ROLX_1|52=20230620-10:51:38.000|56=FSX_SIT_ROLX|1=RSIT_ACCOUNT_1|11=032230620165045000064|21=1|38=4|40=1|54=1|55=51888|60=20230620-10:51:38.200692|109=032230620165045000064|10=071|
20230620-10:51:38.000 : 8=FIX.4.2|9=191|35=D|34=7|49=RSIT_ROLX_1|52=20230620-10:51:38.000|56=FSX_SIT_ROLX|1=RSIT_ACCOUNT_1|11=032230620165045000064|21=1|38=3|40=1|54=1|55=51888|60=20230620-10:51:38.246878|109=032230620165045000064|10=087|
20230620-10:51:38.000 : 8=FIX.4.2|9=191|35=D|34=8|49=RSIT_ROLX_1|52=20230620-10:51:38.000|56=FSX_SIT_ROLX|1=RSIT_ACCOUNT_1|11=032230620165045000064|21=1|38=5|40=1|54=1|55=51888|60=20230620-10:51:38.293437|109=032230620165045000064|10=083|
20230620-10:51:38.000 : 8=FIX.4.2|9=191|35=D|34=9|49=RSIT_ROLX_1|52=20230620-10:51:38.000|56=FSX_SIT_ROLX|1=RSIT_ACCOUNT_1|11=032230620165045000064|21=1|38=4|40=1|54=1|55=51888|60=20230620-10:51:38.339826|109=032230620165045000064|10=086|
20230620-10:51:38.000 : 8=FIX.4.2|9=192|35=D|34=10|49=RSIT_ROLX_1|52=20230620-10:51:38.000|56=FSX_SIT_ROLX|1=RSIT_ACCOUNT_1|11=032230620165045000064|21=1|38=5|40=1|54=1|55=51888|60=20230620-10:51:38.383744|109=032230620165045000064|10=126|
20230620-10:51:38.000 : 8=FIX.4.2|9=192|35=D|34=11|49=RSIT_ROLX_1|52=20230620-10:51:38.000|56=FSX_SIT_ROLX|1=RSIT_ACCOUNT_1|11=032230620165045000064|21=1|38=4|40=1|54=1|55=51888|60=20230620-10:51:38.425769|109=032230620165045000064|10=130|
20230620-10:54:57.000 : 8=FIX.4.2|9=84|35=A|34=1|49=RSIT_ROLX_1|52=20230620-10:54:57.000|56=FSX_SIT_ROLX|98=0|108=30|141=Y|10=124|
20230620-10:55:51.000 : 8=FIX.4.2|9=84|35=A|34=1|49=RSIT_ROLX_1|52=20230620-10:55:51.000|56=FSX_SIT_ROLX|98=0|108=30|141=Y|10=119|
20230620-10:55:52.000 : 8=FIX.4.2|9=84|35=A|34=1|49=FSX_SIT_ROLX|52=20230620-10:55:51.926|56=RSIT_ROLX_1|98=0|108=30|141=Y|10=136|
20230620-10:55:52.000 : 8=FIX.4.2|9=191|35=D|34=2|49=RSIT_ROLX_1|52=20230620-10:55:52.000|56=FSX_SIT_ROLX|1=RSIT_ACCOUNT_1|11=032230620165045000064|21=1|38=4|40=1|54=1|55=51888|60=20230620-10:55:52.719412|109=032230620165045000064|10=072|
20230620-10:55:52.000 : 8=FIX.4.2|9=191|35=D|34=3|49=RSIT_ROLX_1|52=20230620-10:55:52.000|56=FSX_SIT_ROLX|1=RSIT_ACCOUNT_1|11=032230620165045000064|21=1|38=5|40=1|54=1|55=51888|60=20230620-10:55:52.763307|109=032230620165045000064|10=076|
20230620-10:55:52.000 : 8=FIX.4.2|9=191|35=D|34=4|49=RSIT_ROLX_1|52=20230620-10:55:52.000|56=FSX_SIT_ROLX|1=RSIT_ACCOUNT_1|11=032230620165045000064|21=1|38=5|40=1|54=1|55=51888|60=20230620-10:55:52.809804|109=032230620165045000064|10=080|
20230620-10:55:52.000 : 8=FIX.4.2|9=191|35=D|34=5|49=RSIT_ROLX_1|52=20230620-10:55:52.000|56=FSX_SIT_ROLX|1=RSIT_ACCOUNT_1|11=032230620165045000064|21=1|38=4|40=1|54=1|55=51888|60=20230620-10:55:52.856206|109=032230620165045000064|10=078|
20230620-10:55:52.000 : 8=FIX.4.2|9=191|35=D|34=6|49=RSIT_ROLX_1|52=20230620-10:55:52.000|56=FSX_SIT_ROLX|1=RSIT_ACCOUNT_1|11=032230620165045000064|21=1|38=5|40=1|54=1|55=51888|60=20230620-10:55:52.898052|109=032230620165045000064|10=085|
20230620-10:55:52.000 : 8=FIX.4.2|9=191|35=D|34=7|49=RSIT_ROLX_1|52=20230620-10:55:52.000|56=FSX_SIT_ROLX|1=RSIT_ACCOUNT_1|11=032230620165045000064|21=1|38=2|40=1|54=1|55=51888|60=20230620-10:55:52.944476|109=032230620165045000064|10=085|
20230620-10:55:52.000 : 8=FIX.4.2|9=191|35=D|34=8|49=RSIT_ROLX_1|52=20230620-10:55:52.000|56=FSX_SIT_ROLX|1=RSIT_ACCOUNT_1|11=032230620165045000064|21=1|38=3|40=1|54=1|55=51888|60=20230620-10:55:52.990297|109=032230620165045000064|10=089|
20230620-10:55:53.000 : 8=FIX.4.2|9=191|35=D|34=9|49=RSIT_ROLX_1|52=20230620-10:55:53.000|56=FSX_SIT_ROLX|1=RSIT_ACCOUNT_1|11=032230620165045000064|21=1|38=5|40=1|54=1|55=51888|60=20230620-10:55:53.033604|109=032230620165045000064|10=074|
20230620-10:55:53.000 : 8=FIX.4.2|9=192|35=D|34=10|49=RSIT_ROLX_1|52=20230620-10:55:53.000|56=FSX_SIT_ROLX|1=RSIT_ACCOUNT_1|11=032230620165045000064|21=1|38=3|40=1|54=1|55=51888|60=20230620-10:55:53.078905|109=032230620165045000064|10=126|
20230620-10:55:53.000 : 8=FIX.4.2|9=192|35=D|34=11|49=RSIT_ROLX_1|52=20230620-10:55:53.000|56=FSX_SIT_ROLX|1=RSIT_ACCOUNT_1|11=032230620165045000064|21=1|38=1|40=1|54=1|55=51888|60=20230620-10:55:53.122806|109=032230620165045000064|10=115|
20230620-10:55:53.000 : 8=FIX.4.2|9=192|35=D|34=12|49=RSIT_ROLX_1|52=20230620-10:55:53.000|56=FSX_SIT_ROLX|1=RSIT_ACCOUNT_1|11=032230620165045000064|21=1|38=4|40=1|54=1|55=51888|60=20230620-10:55:53.166523|109=032230620165045000064|10=123|
20230620-10:55:53.000 : 8=FIX.4.2|9=192|35=D|34=13|49=RSIT_ROLX_1|52=20230620-10:55:53.000|56=FSX_SIT_ROLX|1=RSIT_ACCOUNT_1|11=032230620165045000064|21=1|38=2|40=1|54=1|55=51888|60=20230620-10:55:53.210848|109=032230620165045000064|10=122|
20230620-10:55:53.000 : 8=FIX.4.2|9=192|35=D|34=14|49=RSIT_ROLX_1|52=20230620-10:55:53.000|56=FSX_SIT_ROLX|1=RSIT_ACCOUNT_1|11=032230620165045000064|21=1|38=1|40=1|54=1|55=51888|60=20230620-10:55:53.253073|109=032230620165045000064|10=119|
20230620-10:55:53.000 : 8=FIX.4.2|9=192|35=D|34=15|49=RSIT_ROLX_1|52=20230620-10:55:53.000|56=FSX_SIT_ROLX|1=RSIT_ACCOUNT_1|11=032230620165045000064|21=1|38=3|40=1|54=1|55=51888|60=20230620-10:55:53.296426|109=032230620165045000064|10=131|
20230620-10:55:53.000 : 8=FIX.4.2|9=192|35=D|34=16|49=RSIT_ROLX_1|52=20230620-10:55:53.000|56=FSX_SIT_ROLX|1=RSIT_ACCOUNT_1|11=032230620165045000064|21=1|38=3|40=1|54=1|55=51888|60=20230620-10:55:53.339026|109=032230620165045000064|10=126|
20230620-10:55:53.000 : 8=FIX.4.2|9=192|35=D|34=17|49=RSIT_ROLX_1|52=20230620-10:55:53.000|56=FSX_SIT_ROLX|1=RSIT_ACCOUNT_1|11=032230620165045000064|21=1|38=1|40=1|54=1|55=51888|60=20230620-10:55:53.383297|109=032230620165045000064|10=134|
20230620-10:55:53.000 : 8=FIX.4.2|9=192|35=D|34=18|49=RSIT_ROLX_1|52=20230620-10:55:53.000|56=FSX_SIT_ROLX|1=RSIT_ACCOUNT_1|11=032230620165045000064|21=1|38=4|40=1|54=1|55=51888|60=20230620-10:55:53.428958|109=032230620165045000064|10=142|
20230620-10:55:53.000 : 8=FIX.4.2|9=192|35=D|34=19|49=RSIT_ROLX_1|52=20230620-10:55:53.000|56=FSX_SIT_ROLX|1=RSIT_ACCOUNT_1|11=032230620165045000064|21=1|38=1|40=1|54=1|55=51888|60=20230620-10:55:53.473729|109=032230620165045000064|10=136|
20230620-10:55:53.000 : 8=FIX.4.2|9=192|35=D|34=20|49=RSIT_ROLX_1|52=20230620-10:55:53.000|56=FSX_SIT_ROLX|1=RSIT_ACCOUNT_1|11=032230620165045000064|21=1|38=4|40=1|54=1|55=51888|60=20230620-10:55:53.520000|109=032230620165045000064|10=106|
20230620-10:55:53.000 : 8=FIX.4.2|9=192|35=D|34=21|49=RSIT_ROLX_1|52=20230620-10:55:53.000|56=FSX_SIT_ROLX|1=RSIT_ACCOUNT_1|11=032230620165045000064|21=1|38=3|40=1|54=1|55=51888|60=20230620-10:55:53.562604|109=032230620165045000064|10=122|
20230620-10:55:53.000 : 8=FIX.4.2|9=412|35=8|34=2|49=FSX_SIT_ROLX|52=20230620-10:55:53.288|56=RSIT_ROLX_1|1=RSIT_ACCOUNT_1|6=0|11=032230620165045000064|14=0|17=None|20=0|21=1|31=0|32=0|37=None|38=4|39=8|40=1|44=0|47=P|54=1|55=51888|58=ERROR_10010013,No available instrument risk check data found: instrumentDate=not_found,expectedDate=20230620|59=0|60=20230620-10:55:53.288|103=3|109=101|150=8|151=0|544=1|8164=ROL|8169=20230620-10:55:53.288407|8214=0|10=123|
20230620-10:55:53.000 : 8=FIX.4.2|9=412|35=8|34=3|49=FSX_SIT_ROLX|52=20230620-10:55:53.288|56=RSIT_ROLX_1|1=RSIT_ACCOUNT_1|6=0|11=032230620165045000064|14=0|17=None|20=0|21=1|31=0|32=0|37=None|38=2|39=8|40=1|44=0|47=P|54=1|55=51888|58=ERROR_10010013,No available instrument risk check data found: instrumentDate=not_found,expectedDate=20230620|59=0|60=20230620-10:55:53.288|103=3|109=101|150=8|151=0|544=1|8164=ROL|8169=20230620-10:55:53.288835|8214=0|10=127|
20230620-10:55:53.000 : 8=FIX.4.2|9=412|35=8|34=4|49=FSX_SIT_ROLX|52=20230620-10:55:53.289|56=RSIT_ROLX_1|1=RSIT_ACCOUNT_1|6=0|11=032230620165045000064|14=0|17=None|20=0|21=1|31=0|32=0|37=None|38=1|39=8|40=1|44=0|47=P|54=1|55=51888|58=ERROR_10010013,No available instrument risk check data found: instrumentDate=not_found,expectedDate=20230620|59=0|60=20230620-10:55:53.289|103=3|109=101|150=8|151=0|544=1|8164=ROL|8169=20230620-10:55:53.289255|8214=0|10=126|
20230620-10:55:53.000 : 8=FIX.4.2|9=412|35=8|34=5|49=FSX_SIT_ROLX|52=20230620-10:55:53.468|56=RSIT_ROLX_1|1=RSIT_ACCOUNT_1|6=0|11=032230620165045000064|14=0|17=None|20=0|21=1|31=0|32=0|37=None|38=3|39=8|40=1|44=0|47=P|54=1|55=51888|58=ERROR_10010013,No available instrument risk check data found: instrumentDate=not_found,expectedDate=20230620|59=0|60=20230620-10:55:53.468|103=3|109=101|150=8|151=0|544=1|8164=ROL|8169=20230620-10:55:53.468583|8214=0|10=130|
20230620-10:55:55.000 : 8=FIX.4.2|9=412|35=8|34=6|49=FSX_SIT_ROLX|52=20230620-10:55:53.469|56=RSIT_ROLX_1|1=RSIT_ACCOUNT_1|6=0|11=032230620165045000064|14=0|17=None|20=0|21=1|31=0|32=0|37=None|38=3|39=8|40=1|44=0|47=P|54=1|55=51888|58=ERROR_10010013,No available instrument risk check data found: instrumentDate=not_found,expectedDate=20230620|59=0|60=20230620-10:55:53.469|103=3|109=101|150=8|151=0|544=1|8164=ROL|8169=20230620-10:55:53.469005|8214=0|10=123|
20230620-10:55:55.000 : 8=FIX.4.2|9=412|35=8|34=7|49=FSX_SIT_ROLX|52=20230620-10:55:53.469|56=RSIT_ROLX_1|1=RSIT_ACCOUNT_1|6=0|11=032230620165045000064|14=0|17=None|20=0|21=1|31=0|32=0|37=None|38=1|39=8|40=1|44=0|47=P|54=1|55=51888|58=ERROR_10010013,No available instrument risk check data found: instrumentDate=not_found,expectedDate=20230620|59=0|60=20230620-10:55:53.469|103=3|109=101|150=8|151=0|544=1|8164=ROL|8169=20230620-10:55:53.469431|8214=0|10=125|
20230620-10:55:55.000 : 8=FIX.4.2|9=412|35=8|34=8|49=FSX_SIT_ROLX|52=20230620-10:55:53.470|56=RSIT_ROLX_1|1=RSIT_ACCOUNT_1|6=0|11=032230620165045000064|14=0|17=None|20=0|21=1|31=0|32=0|37=None|38=4|39=8|40=1|44=0|47=P|54=1|55=51888|58=ERROR_10010013,No available instrument risk check data found: instrumentDate=not_found,expectedDate=20230620|59=0|60=20230620-10:55:53.469|103=3|109=101|150=8|151=0|544=1|8164=ROL|8169=20230620-10:55:53.469871|8214=0|10=129|
20230620-10:55:55.000 : 8=FIX.4.2|9=412|35=8|34=9|49=FSX_SIT_ROLX|52=20230620-10:55:53.651|56=RSIT_ROLX_1|1=RSIT_ACCOUNT_1|6=0|11=032230620165045000064|14=0|17=None|20=0|21=1|31=0|32=0|37=None|38=1|39=8|40=1|44=0|47=P|54=1|55=51888|58=ERROR_10010013,No available instrument risk check data found: instrumentDate=not_found,expectedDate=20230620|59=0|60=20230620-10:55:53.650|103=3|109=101|150=8|151=0|544=1|8164=ROL|8169=20230620-10:55:53.650837|8214=0|10=114|
20230620-10:55:55.000 : 8=FIX.4.2|9=413|35=8|34=10|49=FSX_SIT_ROLX|52=20230620-10:55:53.651|56=RSIT_ROLX_1|1=RSIT_ACCOUNT_1|6=0|11=032230620165045000064|14=0|17=None|20=0|21=1|31=0|32=0|37=None|38=4|39=8|40=1|44=0|47=P|54=1|55=51888|58=ERROR_10010013,No available instrument risk check data found: instrumentDate=not_found,expectedDate=20230620|59=0|60=20230620-10:55:53.651|103=3|109=101|150=8|151=0|544=1|8164=ROL|8169=20230620-10:55:53.651255|8214=0|10=154|
20230620-10:55:55.000 : 8=FIX.4.2|9=413|35=8|34=11|49=FSX_SIT_ROLX|52=20230620-10:55:53.651|56=RSIT_ROLX_1|1=RSIT_ACCOUNT_1|6=0|11=032230620165045000064|14=0|17=None|20=0|21=1|31=0|32=0|37=None|38=3|39=8|40=1|44=0|47=P|54=1|55=51888|58=ERROR_10010013,No available instrument risk check data found: instrumentDate=not_found,expectedDate=20230620|59=0|60=20230620-10:55:53.651|103=3|109=101|150=8|151=0|544=1|8164=ROL|8169=20230620-10:55:53.651658|8214=0|10=161|
20230620-10:58:32.000 : 8=FIX.4.2|9=84|35=A|34=1|49=RSIT_ROLX_1|52=20230620-10:58:32.000|56=FSX_SIT_ROLX|98=0|108=30|141=Y|10=121|
20230620-10:59:25.000 : 8=FIX.4.2|9=84|35=A|34=1|49=RSIT_ROLX_1|52=20230620-10:59:25.000|56=FSX_SIT_ROLX|98=0|108=30|141=Y|10=124|
20230620-10:59:26.000 : 8=FIX.4.2|9=84|35=A|34=1|49=FSX_SIT_ROLX|52=20230620-10:59:25.919|56=RSIT_ROLX_1|98=0|108=30|141=Y|10=143|
20230620-10:59:26.000 : 8=FIX.4.2|9=190|35=D|34=2|49=RSIT_ROLX_1|52=20230620-10:59:26.000|56=FSX_SIT_ROLX|1=RSIT_ACCOUNT_1|11=065230620195635000043|21=1|38=1|40=1|54=1|55=5110|60=20230620-10:59:26.702388|109=065230620195635000043|10=033|
20230620-10:59:26.000 : 8=FIX.4.2|9=190|35=D|34=3|49=RSIT_ROLX_1|52=20230620-10:59:26.000|56=FSX_SIT_ROLX|1=RSIT_ACCOUNT_1|11=065230620195635000043|21=1|38=5|40=1|54=1|55=5110|60=20230620-10:59:26.749438|109=065230620195635000043|10=045|
20230620-10:59:26.000 : 8=FIX.4.2|9=190|35=D|34=4|49=RSIT_ROLX_1|52=20230620-10:59:26.000|56=FSX_SIT_ROLX|1=RSIT_ACCOUNT_1|11=065230620195635000043|21=1|38=4|40=1|54=1|55=5110|60=20230620-10:59:26.792353|109=065230620195635000043|10=039|
20230620-10:59:26.000 : 8=FIX.4.2|9=190|35=D|34=5|49=RSIT_ROLX_1|52=20230620-10:59:26.000|56=FSX_SIT_ROLX|1=RSIT_ACCOUNT_1|11=065230620195635000043|21=1|38=4|40=1|54=1|55=5110|60=20230620-10:59:26.838939|109=065230620195635000043|10=051|
20230620-10:59:55.000 : 8=FIX.4.2|9=66|35=0|34=2|49=FSX_SIT_ROLX|52=20230620-10:59:55.036|56=RSIT_ROLX_1|10=050|
20230620-10:59:56.000 : 8=FIX.4.2|9=66|35=0|34=6|49=RSIT_ROLX_1|52=20230620-10:59:56.000|56=FSX_SIT_ROLX|10=046|
20230620-11:00:17.000 : 8=FIX.4.2|9=84|35=A|34=1|49=RSIT_ROLX_1|52=20230620-11:00:17.000|56=FSX_SIT_ROLX|98=0|108=30|141=Y|10=112|
20230620-11:00:17.000 : 8=FIX.4.2|9=84|35=A|34=1|49=FSX_SIT_ROLX|52=20230620-11:00:17.461|56=RSIT_ROLX_1|98=0|108=30|141=Y|10=123|
20230620-11:00:18.000 : 8=FIX.4.2|9=190|35=D|34=2|49=RSIT_ROLX_1|52=20230620-11:00:18.000|56=FSX_SIT_ROLX|1=RSIT_ACCOUNT_1|11=065230620195635000043|21=1|38=5|40=1|54=1|55=5110|60=20230620-11:00:18.257706|109=065230620195635000043|10=012|
20230620-11:00:18.000 : 8=FIX.4.2|9=190|35=D|34=3|49=RSIT_ROLX_1|52=20230620-11:00:18.000|56=FSX_SIT_ROLX|1=RSIT_ACCOUNT_1|11=065230620195635000043|21=1|38=5|40=1|54=1|55=5110|60=20230620-11:00:18.303371|109=065230620195635000043|10=003|
20230620-11:00:18.000 : 8=FIX.4.2|9=190|35=D|34=4|49=RSIT_ROLX_1|52=20230620-11:00:18.000|56=FSX_SIT_ROLX|1=RSIT_ACCOUNT_1|11=065230620195635000043|21=1|38=1|40=1|54=1|55=5110|60=20230620-11:00:18.348412|109=065230620195635000043|10=005|
20230620-11:00:18.000 : 8=FIX.4.2|9=190|35=D|34=5|49=RSIT_ROLX_1|52=20230620-11:00:18.000|56=FSX_SIT_ROLX|1=RSIT_ACCOUNT_1|11=065230620195635000043|21=1|38=3|40=1|54=1|55=5110|60=20230620-11:00:18.394902|109=065230620195635000043|10=013|
20230620-11:00:18.000 : 8=FIX.4.2|9=190|35=D|34=6|49=RSIT_ROLX_1|52=20230620-11:00:18.000|56=FSX_SIT_ROLX|1=RSIT_ACCOUNT_1|11=065230620195635000043|21=1|38=1|40=1|54=1|55=5110|60=20230620-11:00:18.438287|109=065230620195635000043|10=017|
20230620-11:00:18.000 : 8=FIX.4.2|9=190|35=D|34=7|49=RSIT_ROLX_1|52=20230620-11:00:18.000|56=FSX_SIT_ROLX|1=RSIT_ACCOUNT_1|11=065230620195635000043|21=1|38=4|40=1|54=1|55=5110|60=20230620-11:00:18.484491|109=065230620195635000043|10=019|
20230620-11:00:18.000 : 8=FIX.4.2|9=190|35=D|34=8|49=RSIT_ROLX_1|52=20230620-11:00:18.000|56=FSX_SIT_ROLX|1=RSIT_ACCOUNT_1|11=065230620195635000043|21=1|38=5|40=1|54=1|55=5110|60=20230620-11:00:18.528112|109=065230620195635000043|10=010|
20230620-11:00:18.000 : 8=FIX.4.2|9=190|35=D|34=9|49=RSIT_ROLX_1|52=20230620-11:00:18.000|56=FSX_SIT_ROLX|1=RSIT_ACCOUNT_1|11=065230620195635000043|21=1|38=3|40=1|54=1|55=5110|60=20230620-11:00:18.573043|109=065230620195635000043|10=012|
20230620-11:00:18.000 : 8=FIX.4.2|9=191|35=D|34=10|49=RSIT_ROLX_1|52=20230620-11:00:18.000|56=FSX_SIT_ROLX|1=RSIT_ACCOUNT_1|11=065230620195635000043|21=1|38=3|40=1|54=1|55=5110|60=20230620-11:00:18.619123|109=065230620195635000043|10=053|
20230620-11:00:18.000 : 8=FIX.4.2|9=191|35=D|34=11|49=RSIT_ROLX_1|52=20230620-11:00:18.000|56=FSX_SIT_ROLX|1=RSIT_ACCOUNT_1|11=065230620195635000043|21=1|38=2|40=1|54=1|55=5110|60=20230620-11:00:18.662353|109=065230620195635000043|10=056|
20230620-11:00:18.000 : 8=FIX.4.2|9=191|35=D|34=12|49=RSIT_ROLX_1|52=20230620-11:00:18.000|56=FSX_SIT_ROLX|1=RSIT_ACCOUNT_1|11=065230620195635000043|21=1|38=1|40=1|54=1|55=5110|60=20230620-11:00:18.703962|109=065230620195635000043|10=058|
20230620-11:00:18.000 : 8=FIX.4.2|9=191|35=D|34=13|49=RSIT_ROLX_1|52=20230620-11:00:18.000|56=FSX_SIT_ROLX|1=RSIT_ACCOUNT_1|11=065230620195635000043|21=1|38=2|40=1|54=1|55=5110|60=20230620-11:00:18.749817|109=065230620195635000043|10=069|
20230620-11:00:18.000 : 8=FIX.4.2|9=191|35=D|34=14|49=RSIT_ROLX_1|52=20230620-11:00:18.000|56=FSX_SIT_ROLX|1=RSIT_ACCOUNT_1|11=065230620195635000043|21=1|38=3|40=1|54=1|55=5110|60=20230620-11:00:18.795432|109=065230620195635000043|10=065|
20230620-11:00:18.000 : 8=FIX.4.2|9=191|35=D|34=15|49=RSIT_ROLX_1|52=20230620-11:00:18.000|56=FSX_SIT_ROLX|1=RSIT_ACCOUNT_1|11=065230620195635000043|21=1|38=4|40=1|54=1|55=5110|60=20230620-11:00:18.839287|109=065230620195635000043|10=074|
20230620-11:00:18.000 : 8=FIX.4.2|9=191|35=D|34=16|49=RSIT_ROLX_1|52=20230620-11:00:18.000|56=FSX_SIT_ROLX|1=RSIT_ACCOUNT_1|11=065230620195635000043|21=1|38=1|40=1|54=1|55=5110|60=20230620-11:00:18.883440|109=065230620195635000043|10=062|
20230620-11:00:18.000 : 8=FIX.4.2|9=191|35=D|34=17|49=RSIT_ROLX_1|52=20230620-11:00:18.000|56=FSX_SIT_ROLX|1=RSIT_ACCOUNT_1|11=065230620195635000043|21=1|38=5|40=1|54=1|55=5110|60=20230620-11:00:18.929379|109=065230620195635000043|10=079|
20230620-11:00:18.000 : 8=FIX.4.2|9=191|35=D|34=18|49=RSIT_ROLX_1|52=20230620-11:00:18.000|56=FSX_SIT_ROLX|1=RSIT_ACCOUNT_1|11=065230620195635000043|21=1|38=5|40=1|54=1|55=5110|60=20230620-11:00:18.975708|109=065230620195635000043|10=077|
20230620-11:00:19.000 : 8=FIX.4.2|9=191|35=D|34=19|49=RSIT_ROLX_1|52=20230620-11:00:19.000|56=FSX_SIT_ROLX|1=RSIT_ACCOUNT_1|11=065230620195635000043|21=1|38=5|40=1|54=1|55=5110|60=20230620-11:00:19.021549|109=065230620195635000043|10=065|
20230620-11:00:19.000 : 8=FIX.4.2|9=191|35=D|34=20|49=RSIT_ROLX_1|52=20230620-11:00:19.000|56=FSX_SIT_ROLX|1=RSIT_ACCOUNT_1|11=065230620195635000043|21=1|38=1|40=1|54=1|55=5110|60=20230620-11:00:19.063072|109=065230620195635000043|10=050|
20230620-11:00:19.000 : 8=FIX.4.2|9=191|35=D|34=21|49=RSIT_ROLX_1|52=20230620-11:00:19.000|56=FSX_SIT_ROLX|1=RSIT_ACCOUNT_1|11=065230620195635000043|21=1|38=3|40=1|54=1|55=5110|60=20230620-11:00:19.109076|109=065230620195635000043|10=058|
20230620-11:00:47.000 : 8=FIX.4.2|9=66|35=0|34=2|49=FSX_SIT_ROLX|52=20230620-11:00:47.205|56=RSIT_ROLX_1|10=036|
20230620-11:00:49.000 : 8=FIX.4.2|9=67|35=0|34=22|49=RSIT_ROLX_1|52=20230620-11:00:49.000|56=FSX_SIT_ROLX|10=082|
20230620-11:01:17.000 : 8=FIX.4.2|9=66|35=0|34=3|49=FSX_SIT_ROLX|52=20230620-11:01:17.358|56=RSIT_ROLX_1|10=044|
20230620-11:01:19.000 : 8=FIX.4.2|9=67|35=0|34=23|49=RSIT_ROLX_1|52=20230620-11:01:19.000|56=FSX_SIT_ROLX|10=081|
20230620-11:05:51.000 : 8=FIX.4.2|9=84|35=A|34=1|49=RSIT_ROLX_1|52=20230620-11:05:51.000|56=FSX_SIT_ROLX|98=0|108=30|141=Y|10=115|
20230620-11:06:32.000 : 8=FIX.4.2|9=84|35=A|34=1|49=RSIT_ROLX_1|52=20230620-11:06:32.000|56=FSX_SIT_ROLX|98=0|108=30|141=Y|10=115|
20230620-11:06:32.000 : 8=FIX.4.2|9=84|35=A|34=1|49=FSX_SIT_ROLX|52=20230620-11:06:32.445|56=RSIT_ROLX_1|98=0|108=30|141=Y|10=128|
20230620-11:06:33.000 : 8=FIX.4.2|9=190|35=D|34=2|49=RSIT_ROLX_1|52=20230620-11:06:33.000|56=FSX_SIT_ROLX|1=RSIT_ACCOUNT_1|11=006230620200412000031|21=1|38=2|40=1|54=1|55=5110|60=20230620-11:06:33.246675|109=006230620200412000031|10=218|
20230620-11:06:33.000 : 8=FIX.4.2|9=190|35=D|34=3|49=RSIT_ROLX_1|52=20230620-11:06:33.000|56=FSX_SIT_ROLX|1=RSIT_ACCOUNT_1|11=006230620200412000031|21=1|38=4|40=1|54=1|55=5110|60=20230620-11:06:33.293334|109=006230620200412000031|10=215|
20230620-11:06:33.000 : 8=FIX.4.2|9=190|35=D|34=4|49=RSIT_ROLX_1|52=20230620-11:06:33.000|56=FSX_SIT_ROLX|1=RSIT_ACCOUNT_1|11=006230620200412000031|21=1|38=3|40=1|54=1|55=5110|60=20230620-11:06:33.339389|109=006230620200412000031|10=226|
20230620-11:06:33.000 : 8=FIX.4.2|9=190|35=D|34=5|49=RSIT_ROLX_1|52=20230620-11:06:33.000|56=FSX_SIT_ROLX|1=RSIT_ACCOUNT_1|11=006230620200412000031|21=1|38=2|40=1|54=1|55=5110|60=20230620-11:06:33.383609|109=006230620200412000031|10=220|
20230620-11:06:33.000 : 8=FIX.4.2|9=190|35=D|34=6|49=RSIT_ROLX_1|52=20230620-11:06:33.000|56=FSX_SIT_ROLX|1=RSIT_ACCOUNT_1|11=006230620200412000031|21=1|38=4|40=1|54=1|55=5110|60=20230620-11:06:33.429677|109=006230620200412000031|10=229|
20230620-11:06:33.000 : 8=FIX.4.2|9=190|35=D|34=7|49=RSIT_ROLX_1|52=20230620-11:06:33.000|56=FSX_SIT_ROLX|1=RSIT_ACCOUNT_1|11=006230620200412000031|21=1|38=5|40=1|54=1|55=5110|60=20230620-11:06:33.472123|109=006230620200412000031|10=215|
20230620-11:06:33.000 : 8=FIX.4.2|9=190|35=D|34=8|49=RSIT_ROLX_1|52=20230620-11:06:33.000|56=FSX_SIT_ROLX|1=RSIT_ACCOUNT_1|11=006230620200412000031|21=1|38=2|40=1|54=1|55=5110|60=20230620-11:06:33.518464|109=006230620200412000031|10=222|
20230620-11:06:33.000 : 8=FIX.4.2|9=190|35=D|34=9|49=RSIT_ROLX_1|52=20230620-11:06:33.000|56=FSX_SIT_ROLX|1=RSIT_ACCOUNT_1|11=006230620200412000031|21=1|38=2|40=1|54=1|55=5110|60=20230620-11:06:33.563966|109=006230620200412000031|10=230|
20230620-11:06:33.000 : 8=FIX.4.2|9=191|35=D|34=10|49=RSIT_ROLX_1|52=20230620-11:06:33.000|56=FSX_SIT_ROLX|1=RSIT_ACCOUNT_1|11=006230620200412000031|21=1|38=5|40=1|54=1|55=5110|60=20230620-11:06:33.607806|109=006230620200412000031|10=010|
20230620-11:06:33.000 : 8=FIX.4.2|9=191|35=D|34=11|49=RSIT_ROLX_1|52=20230620-11:06:33.000|56=FSX_SIT_ROLX|1=RSIT_ACCOUNT_1|11=006230620200412000031|21=1|38=2|40=1|54=1|55=5110|60=20230620-11:06:33.649286|109=006230620200412000031|10=016|
20230620-11:06:33.000 : 8=FIX.4.2|9=191|35=D|34=12|49=RSIT_ROLX_1|52=20230620-11:06:33.000|56=FSX_SIT_ROLX|1=RSIT_ACCOUNT_1|11=006230620200412000031|21=1|38=4|40=1|54=1|55=5110|60=20230620-11:06:33.695411|109=006230620200412000031|10=010|
20230620-11:06:33.000 : 8=FIX.4.2|9=191|35=D|34=13|49=RSIT_ROLX_1|52=20230620-11:06:33.000|56=FSX_SIT_ROLX|1=RSIT_ACCOUNT_1|11=006230620200412000031|21=1|38=3|40=1|54=1|55=5110|60=20230620-11:06:33.741711|109=006230620200412000031|10=005|
20230620-11:06:33.000 : 8=FIX.4.2|9=191|35=D|34=14|49=RSIT_ROLX_1|52=20230620-11:06:33.000|56=FSX_SIT_ROLX|1=RSIT_ACCOUNT_1|11=006230620200412000031|21=1|38=4|40=1|54=1|55=5110|60=20230620-11:06:33.787751|109=006230620200412000031|10=021|
20230620-11:06:33.000 : 8=FIX.4.2|9=191|35=D|34=15|49=RSIT_ROLX_1|52=20230620-11:06:33.000|56=FSX_SIT_ROLX|1=RSIT_ACCOUNT_1|11=006230620200412000031|21=1|38=1|40=1|54=1|55=5110|60=20230620-11:06:33.832885|109=006230620200412000031|10=018|
20230620-11:06:33.000 : 8=FIX.4.2|9=191|35=D|34=16|49=RSIT_ROLX_1|52=20230620-11:06:33.000|56=FSX_SIT_ROLX|1=RSIT_ACCOUNT_1|11=006230620200412000031|21=1|38=3|40=1|54=1|55=5110|60=20230620-11:06:33.879218|109=006230620200412000031|10=022|
20230620-11:06:33.000 : 8=FIX.4.2|9=191|35=D|34=17|49=RSIT_ROLX_1|52=20230620-11:06:33.000|56=FSX_SIT_ROLX|1=RSIT_ACCOUNT_1|11=006230620200412000031|21=1|38=4|40=1|54=1|55=5110|60=20230620-11:06:33.925499|109=006230620200412000031|10=027|
20230620-11:06:33.000 : 8=FIX.4.2|9=191|35=D|34=18|49=RSIT_ROLX_1|52=20230620-11:06:33.000|56=FSX_SIT_ROLX|1=RSIT_ACCOUNT_1|11=006230620200412000031|21=1|38=3|40=1|54=1|55=5110|60=20230620-11:06:33.969950|109=006230620200412000031|10=027|
20230620-11:06:34.000 : 8=FIX.4.2|9=191|35=D|34=19|49=RSIT_ROLX_1|52=20230620-11:06:34.000|56=FSX_SIT_ROLX|1=RSIT_ACCOUNT_1|11=006230620200412000031|21=1|38=1|40=1|54=1|55=5110|60=20230620-11:06:34.016304|109=006230620200412000031|10=004|
20230620-11:06:34.000 : 8=FIX.4.2|9=191|35=D|34=20|49=RSIT_ROLX_1|52=20230620-11:06:34.000|56=FSX_SIT_ROLX|1=RSIT_ACCOUNT_1|11=006230620200412000031|21=1|38=4|40=1|54=1|55=5110|60=20230620-11:06:34.062863|109=006230620200412000031|10=010|
20230620-11:06:34.000 : 8=FIX.4.2|9=191|35=D|34=21|49=RSIT_ROLX_1|52=20230620-11:06:34.000|56=FSX_SIT_ROLX|1=RSIT_ACCOUNT_1|11=006230620200412000031|21=1|38=1|40=1|54=1|55=5110|60=20230620-11:06:34.109133|109=006230620200412000031|10=000|
20230620-11:06:34.000 : 8=FIX.4.2|9=191|35=D|34=22|49=RSIT_ROLX_1|52=20230620-11:06:34.000|56=FSX_SIT_ROLX|1=RSIT_ACCOUNT_1|11=006230620200412000031|21=1|38=2|40=1|54=1|55=5110|60=20230620-11:06:34.155431|109=006230620200412000031|10=004|
20230620-11:06:34.000 : 8=FIX.4.2|9=191|35=D|34=23|49=RSIT_ROLX_1|52=20230620-11:06:34.000|56=FSX_SIT_ROLX|1=RSIT_ACCOUNT_1|11=006230620200412000031|21=1|38=5|40=1|54=1|55=5110|60=20230620-11:06:34.197754|109=006230620200412000031|10=022|
20230620-11:06:34.000 : 8=FIX.4.2|9=370|35=8|34=2|49=FSX_SIT_ROLX|52=20230620-11:06:34.213|56=RSIT_ROLX_1|1=RSIT_ACCOUNT_1|6=0|11=006230620200412000031|14=0|17=None|20=0|21=1|31=0|32=0|37=None|38=2|39=8|40=1|44=0|47=P|54=1|55=5110|58=ERROR_10010002,ClOrdID is duplicated: clOrdID=006230620200412000031|59=0|60=20230620-11:06:34.213|103=3|109=101|150=8|151=0|544=1|8164=ROL|8169=20230620-11:06:34.213576|8214=0|10=215|
20230620-11:06:34.000 : 8=FIX.4.2|9=370|35=8|34=3|49=FSX_SIT_ROLX|52=20230620-11:06:34.383|56=RSIT_ROLX_1|1=RSIT_ACCOUNT_1|6=0|11=006230620200412000031|14=0|17=None|20=0|21=1|31=0|32=0|37=None|38=5|39=8|40=1|44=0|47=P|54=1|55=5110|58=ERROR_10010002,ClOrdID is duplicated: clOrdID=006230620200412000031|59=0|60=20230620-11:06:34.383|103=3|109=101|150=8|151=0|544=1|8164=ROL|8169=20230620-11:06:34.383685|8214=0|10=244|
20230620-11:07:04.000 : 8=FIX.4.2|9=67|35=0|34=24|49=RSIT_ROLX_1|52=20230620-11:07:04.000|56=FSX_SIT_ROLX|10=082|
20230620-11:07:04.000 : 8=FIX.4.2|9=66|35=0|34=4|49=FSX_SIT_ROLX|52=20230620-11:07:04.397|56=RSIT_ROLX_1|10=050|
20230620-11:07:34.000 : 8=FIX.4.2|9=67|35=0|34=25|49=RSIT_ROLX_1|52=20230620-11:07:34.000|56=FSX_SIT_ROLX|10=086|
20230620-11:07:34.000 : 8=FIX.4.2|9=66|35=0|34=5|49=FSX_SIT_ROLX|52=20230620-11:07:34.283|56=RSIT_ROLX_1|10=048|
20230620-11:08:04.000 : 8=FIX.4.2|9=66|35=0|34=6|49=FSX_SIT_ROLX|52=20230620-11:08:04.302|56=RSIT_ROLX_1|10=039|
20230620-11:08:04.000 : 8=FIX.4.2|9=67|35=0|34=26|49=RSIT_ROLX_1|52=20230620-11:08:04.000|56=FSX_SIT_ROLX|10=085|
20230620-11:08:34.000 : 8=FIX.4.2|9=66|35=0|34=7|49=FSX_SIT_ROLX|52=20230620-11:08:34.488|56=RSIT_ROLX_1|10=058|
20230620-11:08:34.000 : 8=FIX.4.2|9=67|35=0|34=27|49=RSIT_ROLX_1|52=20230620-11:08:34.000|56=FSX_SIT_ROLX|10=089|
20230620-11:09:04.000 : 8=FIX.4.2|9=67|35=0|34=28|49=RSIT_ROLX_1|52=20230620-11:09:04.000|56=FSX_SIT_ROLX|10=088|
20230620-11:09:04.000 : 8=FIX.4.2|9=66|35=0|34=8|49=FSX_SIT_ROLX|52=20230620-11:09:04.684|56=RSIT_ROLX_1|10=055|
20230620-11:09:34.000 : 8=FIX.4.2|9=67|35=0|34=29|49=RSIT_ROLX_1|52=20230620-11:09:34.000|56=FSX_SIT_ROLX|10=092|
20230620-11:09:34.000 : 8=FIX.4.2|9=66|35=0|34=9|49=FSX_SIT_ROLX|52=20230620-11:09:34.752|56=RSIT_ROLX_1|10=055|
20230620-11:10:04.000 : 8=FIX.4.2|9=67|35=0|34=30|49=RSIT_ROLX_1|52=20230620-11:10:04.000|56=FSX_SIT_ROLX|10=073|
20230620-11:10:04.000 : 8=FIX.4.2|9=67|35=0|34=10|49=FSX_SIT_ROLX|52=20230620-11:10:04.602|56=RSIT_ROLX_1|10=079|
20230620-11:10:34.000 : 8=FIX.4.2|9=67|35=0|34=31|49=RSIT_ROLX_1|52=20230620-11:10:34.000|56=FSX_SIT_ROLX|10=077|
20230620-11:10:34.000 : 8=FIX.4.2|9=67|35=0|34=11|49=FSX_SIT_ROLX|52=20230620-11:10:34.230|56=RSIT_ROLX_1|10=080|
20230621-02:55:59.000 : 8=FIX.4.2|9=84|35=A|34=1|49=RSIT_ROLX_1|52=20230621-02:55:59.000|56=FSX_SIT_ROLX|98=0|108=30|141=Y|10=129|
20230621-03:06:08.000 : 8=FIX.4.2|9=84|35=A|34=1|49=RSIT_ROLX_1|52=20230621-03:06:08.000|56=FSX_SIT_ROLX|98=0|108=30|141=Y|10=120|
20230621-03:06:44.000 : 8=FIX.4.2|9=84|35=A|34=1|49=RSIT_ROLX_1|52=20230621-03:06:44.000|56=FSX_SIT_ROLX|98=0|108=30|141=Y|10=120|
20230621-03:08:22.000 : 8=FIX.4.2|9=84|35=A|34=1|49=RSIT_ROLX_1|52=20230621-03:08:22.000|56=FSX_SIT_ROLX|98=0|108=30|141=Y|10=118|
20230625-11:48:40.000 : 8=FIX.4.2|9=84|35=A|34=1|49=RSIT_ROLX_1|52=20230625-11:48:40.000|56=FSX_SIT_ROLX|98=0|108=30|141=Y|10=125|
20230625-11:48:40.000 : 8=FIX.4.2|9=84|35=A|34=1|49=FSX_SIT_ROLX|52=20230625-11:48:40.586|56=RSIT_ROLX_1|98=0|108=30|141=Y|10=144|
20230625-11:49:40.000 : 8=FIX.4.2|9=84|35=A|34=1|49=RSIT_ROLX_1|52=20230625-11:49:40.000|56=FSX_SIT_ROLX|98=0|108=30|141=Y|10=126|
20230625-11:49:40.000 : 8=FIX.4.2|9=84|35=A|34=1|49=FSX_SIT_ROLX|52=20230625-11:49:40.700|56=RSIT_ROLX_1|98=0|108=30|141=Y|10=133|
20230625-11:50:43.000 : 8=FIX.4.2|9=84|35=A|34=1|49=RSIT_ROLX_1|52=20230625-11:50:43.000|56=FSX_SIT_ROLX|98=0|108=30|141=Y|10=121|
20230625-11:50:43.000 : 8=FIX.4.2|9=84|35=A|34=1|49=FSX_SIT_ROLX|52=20230625-11:50:43.449|56=RSIT_ROLX_1|98=0|108=30|141=Y|10=138|
20230625-11:51:43.000 : 8=FIX.4.2|9=84|35=A|34=1|49=RSIT_ROLX_1|52=20230625-11:51:43.000|56=FSX_SIT_ROLX|98=0|108=30|141=Y|10=122|
20230625-11:51:43.000 : 8=FIX.4.2|9=84|35=A|34=1|49=FSX_SIT_ROLX|52=20230625-11:51:43.514|56=RSIT_ROLX_1|98=0|108=30|141=Y|10=132|
20230625-11:52:28.000 : 8=FIX.4.2|9=84|35=A|34=1|49=RSIT_ROLX_1|52=20230625-11:52:28.000|56=FSX_SIT_ROLX|98=0|108=30|141=Y|10=126|
20230625-11:52:28.000 : 8=FIX.4.2|9=84|35=A|34=1|49=FSX_SIT_ROLX|52=20230625-11:52:28.215|56=RSIT_ROLX_1|98=0|108=30|141=Y|10=134|
20230625-11:52:43.000 : 8=FIX.4.2|9=84|35=A|34=1|49=RSIT_ROLX_1|52=20230625-11:52:43.000|56=FSX_SIT_ROLX|98=0|108=30|141=Y|10=123|
20230625-11:52:43.000 : 8=FIX.4.2|9=84|35=A|34=1|49=FSX_SIT_ROLX|52=20230625-11:52:43.584|56=RSIT_ROLX_1|98=0|108=30|141=Y|10=140|
20230625-11:53:27.000 : 8=FIX.4.2|9=84|35=A|34=1|49=RSIT_ROLX_1|52=20230625-11:53:27.000|56=FSX_SIT_ROLX|98=0|108=30|141=Y|10=126|
20230625-11:53:27.000 : 8=FIX.4.2|9=84|35=A|34=1|49=FSX_SIT_ROLX|52=20230625-11:53:27.816|56=RSIT_ROLX_1|98=0|108=30|141=Y|10=141|
20230625-11:53:28.000 : 8=FIX.4.2|9=84|35=A|34=1|49=RSIT_ROLX_1|52=20230625-11:53:28.000|56=FSX_SIT_ROLX|98=0|108=30|141=Y|10=127|
20230625-11:53:29.000 : 8=FIX.4.2|9=84|35=A|34=1|49=FSX_SIT_ROLX|52=20230625-11:53:28.998|56=RSIT_ROLX_1|98=0|108=30|141=Y|10=153|
20230625-11:53:44.000 : 8=FIX.4.2|9=84|35=A|34=1|49=RSIT_ROLX_1|52=20230625-11:53:44.000|56=FSX_SIT_ROLX|98=0|108=30|141=Y|10=125|
20230625-11:53:44.000 : 8=FIX.4.2|9=84|35=A|34=1|49=FSX_SIT_ROLX|52=20230625-11:53:44.352|56=RSIT_ROLX_1|98=0|108=30|141=Y|10=135|
20230625-11:54:27.000 : 8=FIX.4.2|9=84|35=A|34=1|49=RSIT_ROLX_1|52=20230625-11:54:27.000|56=FSX_SIT_ROLX|98=0|108=30|141=Y|10=127|
20230625-11:54:27.000 : 8=FIX.4.2|9=84|35=A|34=1|49=FSX_SIT_ROLX|52=20230625-11:54:27.604|56=RSIT_ROLX_1|98=0|108=30|141=Y|10=137|
20230625-11:54:28.000 : 8=FIX.4.2|9=84|35=A|34=1|49=RSIT_ROLX_1|52=20230625-11:54:28.000|56=FSX_SIT_ROLX|98=0|108=30|141=Y|10=128|
20230625-11:54:28.000 : 8=FIX.4.2|9=84|35=A|34=1|49=FSX_SIT_ROLX|52=20230625-11:54:28.796|56=RSIT_ROLX_1|98=0|108=30|141=Y|10=150|
20230625-11:54:43.000 : 8=FIX.4.2|9=84|35=A|34=1|49=RSIT_ROLX_1|52=20230625-11:54:43.000|56=FSX_SIT_ROLX|98=0|108=30|141=Y|10=125|
20230625-11:54:43.000 : 8=FIX.4.2|9=84|35=A|34=1|49=FSX_SIT_ROLX|52=20230625-11:54:43.250|56=RSIT_ROLX_1|98=0|108=30|141=Y|10=132|
20230625-11:56:14.000 : 8=FIX.4.2|9=84|35=A|34=1|49=RSIT_ROLX_1|52=20230625-11:56:14.000|56=FSX_SIT_ROLX|98=0|108=30|141=Y|10=125|
20230625-11:56:14.000 : 8=FIX.4.2|9=84|35=A|34=1|49=FSX_SIT_ROLX|52=20230625-11:56:14.497|56=RSIT_ROLX_1|98=0|108=30|141=Y|10=145|
20230625-11:57:14.000 : 8=FIX.4.2|9=84|35=A|34=1|49=RSIT_ROLX_1|52=20230625-11:57:14.000|56=FSX_SIT_ROLX|98=0|108=30|141=Y|10=126|
20230625-11:57:14.000 : 8=FIX.4.2|9=84|35=A|34=1|49=FSX_SIT_ROLX|52=20230625-11:57:14.290|56=RSIT_ROLX_1|98=0|108=30|141=Y|10=137|
20230625-11:58:15.000 : 8=FIX.4.2|9=84|35=A|34=1|49=RSIT_ROLX_1|52=20230625-11:58:15.000|56=FSX_SIT_ROLX|98=0|108=30|141=Y|10=128|
20230625-11:58:15.000 : 8=FIX.4.2|9=84|35=A|34=1|49=FSX_SIT_ROLX|52=20230625-11:58:15.231|56=RSIT_ROLX_1|98=0|108=30|141=Y|10=134|
20230625-11:59:14.000 : 8=FIX.4.2|9=84|35=A|34=1|49=RSIT_ROLX_1|52=20230625-11:59:14.000|56=FSX_SIT_ROLX|98=0|108=30|141=Y|10=128|
20230625-11:59:15.000 : 8=FIX.4.2|9=84|35=A|34=1|49=FSX_SIT_ROLX|52=20230625-11:59:14.997|56=RSIT_ROLX_1|98=0|108=30|141=Y|10=153|
20230625-12:00:15.000 : 8=FIX.4.2|9=84|35=A|34=1|49=RSIT_ROLX_1|52=20230625-12:00:15.000|56=FSX_SIT_ROLX|98=0|108=30|141=Y|10=116|
20230625-12:00:15.000 : 8=FIX.4.2|9=84|35=A|34=1|49=FSX_SIT_ROLX|52=20230625-12:00:15.094|56=RSIT_ROLX_1|98=0|108=30|141=Y|10=129|
20230625-12:01:27.000 : 8=FIX.4.2|9=84|35=A|34=1|49=RSIT_ROLX_1|52=20230625-12:01:27.000|56=FSX_SIT_ROLX|98=0|108=30|141=Y|10=120|
20230625-12:01:27.000 : 8=FIX.4.2|9=84|35=A|34=1|49=FSX_SIT_ROLX|52=20230625-12:01:27.393|56=RSIT_ROLX_1|98=0|108=30|141=Y|10=135|
20230625-12:06:17.000 : 8=FIX.4.2|9=84|35=A|34=1|49=RSIT_ROLX_1|52=20230625-12:06:17.000|56=FSX_SIT_ROLX|98=0|108=30|141=Y|10=124|
20230625-12:06:17.000 : 8=FIX.4.2|9=84|35=A|34=1|49=FSX_SIT_ROLX|52=20230625-12:06:17.443|56=RSIT_ROLX_1|98=0|108=30|141=Y|10=135|
20230625-12:06:42.000 : 8=FIX.4.2|9=84|35=A|34=1|49=RSIT_ROLX_1|52=20230625-12:06:42.000|56=FSX_SIT_ROLX|98=0|108=30|141=Y|10=122|
20230625-12:06:42.000 : 8=FIX.4.2|9=84|35=A|34=1|49=FSX_SIT_ROLX|52=20230625-12:06:42.343|56=RSIT_ROLX_1|98=0|108=30|141=Y|10=132|
20230625-12:07:01.000 : 8=FIX.4.2|9=84|35=A|34=1|49=RSIT_ROLX_1|52=20230625-12:07:01.000|56=FSX_SIT_ROLX|98=0|108=30|141=Y|10=118|
20230625-12:07:01.000 : 8=FIX.4.2|9=84|35=A|34=1|49=FSX_SIT_ROLX|52=20230625-12:07:01.564|56=RSIT_ROLX_1|98=0|108=30|141=Y|10=133|
20230625-12:08:01.000 : 8=FIX.4.2|9=84|35=A|34=1|49=RSIT_ROLX_1|52=20230625-12:08:01.000|56=FSX_SIT_ROLX|98=0|108=30|141=Y|10=119|
20230625-12:08:01.000 : 8=FIX.4.2|9=84|35=A|34=1|49=FSX_SIT_ROLX|52=20230625-12:08:01.360|56=RSIT_ROLX_1|98=0|108=30|141=Y|10=128|
20230625-12:09:01.000 : 8=FIX.4.2|9=84|35=A|34=1|49=RSIT_ROLX_1|52=20230625-12:09:01.000|56=FSX_SIT_ROLX|98=0|108=30|141=Y|10=120|
20230625-12:09:02.000 : 8=FIX.4.2|9=84|35=A|34=1|49=FSX_SIT_ROLX|52=20230625-12:09:02.001|56=RSIT_ROLX_1|98=0|108=30|141=Y|10=122|
20230625-12:10:01.000 : 8=FIX.4.2|9=84|35=A|34=1|49=RSIT_ROLX_1|52=20230625-12:10:01.000|56=FSX_SIT_ROLX|98=0|108=30|141=Y|10=112|
20230625-12:10:01.000 : 8=FIX.4.2|9=84|35=A|34=1|49=FSX_SIT_ROLX|52=20230625-12:10:01.589|56=RSIT_ROLX_1|98=0|108=30|141=Y|10=134|
20230625-12:11:02.000 : 8=FIX.4.2|9=84|35=A|34=1|49=RSIT_ROLX_1|52=20230625-12:11:02.000|56=FSX_SIT_ROLX|98=0|108=30|141=Y|10=114|
20230625-12:11:02.000 : 8=FIX.4.2|9=84|35=A|34=1|49=FSX_SIT_ROLX|52=20230625-12:11:02.130|56=RSIT_ROLX_1|98=0|108=30|141=Y|10=118|
20230625-12:12:01.000 : 8=FIX.4.2|9=84|35=A|34=1|49=RSIT_ROLX_1|52=20230625-12:12:01.000|56=FSX_SIT_ROLX|98=0|108=30|141=Y|10=114|
20230625-12:12:01.000 : 8=FIX.4.2|9=84|35=A|34=1|49=FSX_SIT_ROLX|52=20230625-12:12:01.500|56=RSIT_ROLX_1|98=0|108=30|141=Y|10=119|
20230625-12:14:09.000 : 8=FIX.4.2|9=84|35=A|34=1|49=RSIT_ROLX_1|52=20230625-12:14:09.000|56=FSX_SIT_ROLX|98=0|108=30|141=Y|10=124|
20230625-12:14:10.000 : 8=FIX.4.2|9=84|35=A|34=1|49=FSX_SIT_ROLX|52=20230625-12:14:09.920|56=RSIT_ROLX_1|98=0|108=30|141=Y|10=135|
20230625-12:15:09.000 : 8=FIX.4.2|9=84|35=A|34=1|49=RSIT_ROLX_1|52=20230625-12:15:09.000|56=FSX_SIT_ROLX|98=0|108=30|141=Y|10=125|
20230625-12:15:09.000 : 8=FIX.4.2|9=84|35=A|34=1|49=FSX_SIT_ROLX|52=20230625-12:15:09.747|56=RSIT_ROLX_1|98=0|108=30|141=Y|10=143|
20230625-12:16:09.000 : 8=FIX.4.2|9=84|35=A|34=1|49=RSIT_ROLX_1|52=20230625-12:16:09.000|56=FSX_SIT_ROLX|98=0|108=30|141=Y|10=126|
20230625-12:16:09.000 : 8=FIX.4.2|9=84|35=A|34=1|49=FSX_SIT_ROLX|52=20230625-12:16:09.494|56=RSIT_ROLX_1|98=0|108=30|141=Y|10=143|
20230625-12:16:39.000 : 8=FIX.4.2|9=66|35=0|34=2|49=RSIT_ROLX_1|52=20230625-12:16:39.000|56=FSX_SIT_ROLX|10=043|
20230625-12:16:39.000 : 8=FIX.4.2|9=66|35=0|34=2|49=FSX_SIT_ROLX|52=20230625-12:16:39.425|56=RSIT_ROLX_1|10=054|
20230625-12:17:09.000 : 8=FIX.4.2|9=66|35=0|34=3|49=RSIT_ROLX_1|52=20230625-12:17:09.000|56=FSX_SIT_ROLX|10=042|
20230625-12:17:09.000 : 8=FIX.4.2|9=66|35=0|34=3|49=FSX_SIT_ROLX|52=20230625-12:17:09.158|56=RSIT_ROLX_1|10=056|
20230625-12:17:39.000 : 8=FIX.4.2|9=66|35=0|34=4|49=FSX_SIT_ROLX|52=20230625-12:17:39.176|56=RSIT_ROLX_1|10=060|
20230625-12:17:39.000 : 8=FIX.4.2|9=66|35=0|34=4|49=RSIT_ROLX_1|52=20230625-12:17:39.000|56=FSX_SIT_ROLX|10=046|
20230625-12:18:09.000 : 8=FIX.4.2|9=66|35=0|34=5|49=RSIT_ROLX_1|52=20230625-12:18:09.000|56=FSX_SIT_ROLX|10=045|
20230625-12:18:09.000 : 8=FIX.4.2|9=66|35=0|34=5|49=FSX_SIT_ROLX|52=20230625-12:18:09.381|56=RSIT_ROLX_1|10=057|
20230625-12:18:39.000 : 8=FIX.4.2|9=66|35=0|34=6|49=RSIT_ROLX_1|52=20230625-12:18:39.000|56=FSX_SIT_ROLX|10=049|
20230625-12:18:39.000 : 8=FIX.4.2|9=66|35=0|34=6|49=FSX_SIT_ROLX|52=20230625-12:18:39.415|56=RSIT_ROLX_1|10=059|
20230625-12:19:09.000 : 8=FIX.4.2|9=66|35=0|34=7|49=RSIT_ROLX_1|52=20230625-12:19:09.000|56=FSX_SIT_ROLX|10=048|
20230625-12:19:09.000 : 8=FIX.4.2|9=66|35=0|34=7|49=FSX_SIT_ROLX|52=20230625-12:19:09.214|56=RSIT_ROLX_1|10=055|
20230625-12:19:11.000 : 8=FIX.4.2|9=66|35=5|34=8|49=RSIT_ROLX_1|52=20230625-12:19:11.000|56=FSX_SIT_ROLX|10=047|
20230625-12:19:11.000 : 8=FIX.4.2|9=66|35=5|34=8|49=FSX_SIT_ROLX|52=20230625-12:19:11.234|56=RSIT_ROLX_1|10=056|
20230625-12:23:18.000 : 8=FIX.4.2|9=84|35=A|34=1|49=RSIT_ROLX_1|52=20230625-12:23:18.000|56=FSX_SIT_ROLX|98=0|108=30|141=Y|10=124|
20230625-12:23:18.000 : 8=FIX.4.2|9=84|35=A|34=1|49=FSX_SIT_ROLX|52=20230625-12:23:18.115|56=RSIT_ROLX_1|98=0|108=30|141=Y|10=131|
20230625-12:24:18.000 : 8=FIX.4.2|9=84|35=A|34=1|49=RSIT_ROLX_1|52=20230625-12:24:18.000|56=FSX_SIT_ROLX|98=0|108=30|141=Y|10=125|
20230625-12:24:19.000 : 8=FIX.4.2|9=84|35=A|34=1|49=FSX_SIT_ROLX|52=20230625-12:24:18.937|56=RSIT_ROLX_1|98=0|108=30|141=Y|10=144|
20230625-12:25:19.000 : 8=FIX.4.2|9=84|35=A|34=1|49=RSIT_ROLX_1|52=20230625-12:25:19.000|56=FSX_SIT_ROLX|98=0|108=30|141=Y|10=127|
20230625-12:25:19.000 : 8=FIX.4.2|9=84|35=A|34=1|49=FSX_SIT_ROLX|52=20230625-12:25:19.751|56=RSIT_ROLX_1|98=0|108=30|141=Y|10=140|
20230625-12:26:18.000 : 8=FIX.4.2|9=84|35=A|34=1|49=RSIT_ROLX_1|52=20230625-12:26:18.000|56=FSX_SIT_ROLX|98=0|108=30|141=Y|10=127|
20230625-12:26:18.000 : 8=FIX.4.2|9=84|35=A|34=1|49=FSX_SIT_ROLX|52=20230625-12:26:18.408|56=RSIT_ROLX_1|98=0|108=30|141=Y|10=139|
20230625-12:27:19.000 : 8=FIX.4.2|9=84|35=A|34=1|49=RSIT_ROLX_1|52=20230625-12:27:19.000|56=FSX_SIT_ROLX|98=0|108=30|141=Y|10=129|
20230625-12:27:20.000 : 8=FIX.4.2|9=84|35=A|34=1|49=FSX_SIT_ROLX|52=20230625-12:27:19.993|56=RSIT_ROLX_1|98=0|108=30|141=Y|10=150|
20230625-12:28:18.000 : 8=FIX.4.2|9=84|35=A|34=1|49=RSIT_ROLX_1|52=20230625-12:28:18.000|56=FSX_SIT_ROLX|98=0|108=30|141=Y|10=129|
20230625-12:28:18.000 : 8=FIX.4.2|9=84|35=A|34=1|49=FSX_SIT_ROLX|52=20230625-12:28:18.468|56=RSIT_ROLX_1|98=0|108=30|141=Y|10=147|
20230625-12:47:52.000 : 8=FIX.4.2|9=84|35=A|34=1|49=RSIT_ROLX_1|52=20230625-12:47:52.000|56=FSX_SIT_ROLX|98=0|108=30|141=Y|10=128|
20230625-12:47:53.000 : 8=FIX.4.2|9=84|35=A|34=1|49=FSX_SIT_ROLX|52=20230625-12:47:52.958|56=RSIT_ROLX_1|98=0|108=30|141=Y|10=150|
20230625-12:48:53.000 : 8=FIX.4.2|9=84|35=A|34=1|49=RSIT_ROLX_1|52=20230625-12:48:53.000|56=FSX_SIT_ROLX|98=0|108=30|141=Y|10=130|
20230625-12:48:53.000 : 8=FIX.4.2|9=84|35=A|34=1|49=FSX_SIT_ROLX|52=20230625-12:48:53.565|56=RSIT_ROLX_1|98=0|108=30|141=Y|10=146|
20230625-12:55:37.000 : 8=FIX.4.2|9=84|35=A|34=1|49=RSIT_ROLX_1|52=20230625-12:55:37.000|56=FSX_SIT_ROLX|98=0|108=30|141=Y|10=130|
20230625-12:55:37.000 : 8=FIX.4.2|9=84|35=A|34=1|49=FSX_SIT_ROLX|52=20230625-12:55:37.810|56=RSIT_ROLX_1|98=0|108=30|141=Y|10=139|
20230625-12:55:38.000 : 8=FIX.4.2|9=204|35=D|34=2|49=RSIT_ROLX_1|52=20230625-12:55:38.000|56=FSX_SIT_ROLX|1=RSIT_ACCOUNT_1|11=2023420673168769773800000001|21=1|38=2|40=1|54=1|55=6028|60=20230625-12:55:38.633341|109=2023420673168769773800000001|10=011|
20230625-12:55:38.000 : 8=FIX.4.2|9=204|35=D|34=3|49=RSIT_ROLX_1|52=20230625-12:55:38.000|56=FSX_SIT_ROLX|1=RSIT_ACCOUNT_1|11=2023163472168769773800000002|21=1|38=1|40=1|54=2|55=6028|60=20230625-12:55:38.680638|109=2023163472168769773800000002|10=027|
20230625-12:55:38.000 : 8=FIX.4.2|9=385|35=8|34=2|49=FSX_SIT_ROLX|52=20230625-12:55:38.640|56=RSIT_ROLX_1|1=RSIT_ACCOUNT_1|6=0|11=2023420673168769773800000001|14=0|17=None|20=0|31=0|32=0|37=None|38=2|39=8|40=1|44=0|47=P|54=1|55=6028|58=failed to connect to all addresses; last error: UNKNOWN: tcp handshaker shutdown|59=0|60=20230625-12:55:38.639|103=3|109=101|150=8|151=0|544=1|8164=ROL|8169=20230625-12:55:38.639720|8214=0|10=133|
20230625-12:55:39.000 : 8=FIX.4.2|9=385|35=8|34=3|49=FSX_SIT_ROLX|52=20230625-12:55:38.826|56=RSIT_ROLX_1|1=RSIT_ACCOUNT_1|6=0|11=2023163472168769773800000002|14=0|17=None|20=0|31=0|32=0|37=None|38=1|39=8|40=1|44=0|47=P|54=2|55=6028|58=failed to connect to all addresses; last error: UNKNOWN: tcp handshaker shutdown|59=0|60=20230625-12:55:38.826|103=3|109=101|150=8|151=0|544=1|8164=ROL|8169=20230625-12:55:38.826277|8214=0|10=145|
20230625-12:56:08.000 : 8=FIX.4.2|9=66|35=0|34=4|49=RSIT_ROLX_1|52=20230625-12:56:08.000|56=FSX_SIT_ROLX|10=045|
20230625-12:56:08.000 : 8=FIX.4.2|9=66|35=0|34=4|49=FSX_SIT_ROLX|52=20230625-12:56:08.682|56=RSIT_ROLX_1|10=061|
20230625-12:57:27.000 : 8=FIX.4.2|9=84|35=A|34=1|49=RSIT_ROLX_1|52=20230625-12:57:27.000|56=FSX_SIT_ROLX|98=0|108=30|141=Y|10=131|
20230625-12:57:27.000 : 8=FIX.4.2|9=84|35=A|34=1|49=FSX_SIT_ROLX|52=20230625-12:57:27.493|56=RSIT_ROLX_1|98=0|108=30|141=Y|10=147|
20230625-12:59:33.000 : 8=FIX.4.2|9=84|35=A|34=1|49=RSIT_ROLX_1|52=20230625-12:59:33.000|56=FSX_SIT_ROLX|98=0|108=30|141=Y|10=130|
20230625-12:59:33.000 : 8=FIX.4.2|9=84|35=A|34=1|49=FSX_SIT_ROLX|52=20230625-12:59:33.001|56=RSIT_ROLX_1|98=0|108=30|141=Y|10=131|
20230625-13:00:35.000 : 8=FIX.4.2|9=84|35=A|34=1|49=RSIT_ROLX_1|52=20230625-13:00:35.000|56=FSX_SIT_ROLX|98=0|108=30|141=Y|10=119|
20230625-13:00:35.000 : 8=FIX.4.2|9=84|35=A|34=1|49=FSX_SIT_ROLX|52=20230625-13:00:35.790|56=RSIT_ROLX_1|98=0|108=30|141=Y|10=135|
20230625-13:01:34.000 : 8=FIX.4.2|9=84|35=A|34=1|49=RSIT_ROLX_1|52=20230625-13:01:34.000|56=FSX_SIT_ROLX|98=0|108=30|141=Y|10=119|
20230625-13:01:34.000 : 8=FIX.4.2|9=84|35=A|34=1|49=FSX_SIT_ROLX|52=20230625-13:01:34.555|56=RSIT_ROLX_1|98=0|108=30|141=Y|10=134|
20230625-13:02:04.000 : 8=FIX.4.2|9=66|35=0|34=2|49=RSIT_ROLX_1|52=20230625-13:02:04.000|56=FSX_SIT_ROLX|10=031|
20230625-13:02:04.000 : 8=FIX.4.2|9=66|35=0|34=2|49=FSX_SIT_ROLX|52=20230625-13:02:04.449|56=RSIT_ROLX_1|10=048|
20230625-13:02:34.000 : 8=FIX.4.2|9=66|35=0|34=3|49=RSIT_ROLX_1|52=20230625-13:02:34.000|56=FSX_SIT_ROLX|10=035|
20230625-13:02:34.000 : 8=FIX.4.2|9=66|35=0|34=3|49=FSX_SIT_ROLX|52=20230625-13:02:34.130|56=RSIT_ROLX_1|10=039|
20230625-13:03:04.000 : 8=FIX.4.2|9=66|35=0|34=4|49=RSIT_ROLX_1|52=20230625-13:03:04.000|56=FSX_SIT_ROLX|10=034|
20230625-13:03:04.000 : 8=FIX.4.2|9=66|35=0|34=4|49=FSX_SIT_ROLX|52=20230625-13:03:04.151|56=RSIT_ROLX_1|10=041|
20230625-13:03:34.000 : 8=FIX.4.2|9=66|35=0|34=5|49=FSX_SIT_ROLX|52=20230625-13:03:34.589|56=RSIT_ROLX_1|10=060|
20230625-13:03:34.000 : 8=FIX.4.2|9=66|35=0|34=5|49=RSIT_ROLX_1|52=20230625-13:03:34.000|56=FSX_SIT_ROLX|10=038|
20230625-13:04:04.000 : 8=FIX.4.2|9=66|35=0|34=6|49=RSIT_ROLX_1|52=20230625-13:04:04.000|56=FSX_SIT_ROLX|10=037|
20230625-13:04:04.000 : 8=FIX.4.2|9=66|35=0|34=6|49=FSX_SIT_ROLX|52=20230625-13:04:04.715|56=RSIT_ROLX_1|10=050|
20230625-13:04:34.000 : 8=FIX.4.2|9=66|35=5|34=7|49=RSIT_ROLX_1|52=20230625-13:04:34.000|56=FSX_SIT_ROLX|10=046|
20230625-13:04:34.000 : 8=FIX.4.2|9=66|35=5|34=7|49=FSX_SIT_ROLX|52=20230625-13:04:34.532|56=RSIT_ROLX_1|10=056|
20230626-01:24:46.000 : 8=FIX.4.2|9=84|35=A|34=1|49=RSIT_ROLX_1|52=20230626-01:24:46.000|56=FSX_SIT_ROLX|98=0|108=30|141=Y|10=125|
20230626-01:24:46.000 : 8=FIX.4.2|9=84|35=A|34=1|49=FSX_SIT_ROLX|52=20230626-01:24:46.743|56=RSIT_ROLX_1|98=0|108=30|141=Y|10=139|
20230626-01:24:47.000 : 8=FIX.4.2|9=204|35=D|34=2|49=RSIT_ROLX_1|52=20230626-01:24:47.000|56=FSX_SIT_ROLX|1=RSIT_ACCOUNT_1|11=2023875346168774268700000001|21=1|38=1|40=1|54=1|55=6028|60=20230626-01:24:47.482538|109=2023875346168774268700000001|10=020|
20230626-01:24:47.000 : 8=FIX.4.2|9=204|35=D|34=3|49=RSIT_ROLX_1|52=20230626-01:24:47.000|56=FSX_SIT_ROLX|1=RSIT_ACCOUNT_1|11=2023054271168774268700000002|21=1|38=2|40=1|54=2|55=6028|60=20230626-01:24:47.529612|109=2023054271168774268700000002|10=248|
20230626-01:24:47.000 : 8=FIX.4.2|9=328|35=8|34=2|49=FSX_SIT_ROLX|52=20230626-01:24:47.639|56=RSIT_ROLX_1|1=RSIT_ACCOUNT_1|6=0|11=2023875346168774268700000001|14=0|17=1673089675430730692|20=0|31=0|32=0|37=1673089725810895578|38=1|39=0|40=1|47=P|54=1|55=6028|59=0|60=20230626-01:24:47.639|76=ROLX|109=101|150=0|151=1|544=1|8164=ROL|8169=20230626-01:24:47.639053|8214=0|10=141|
20230626-01:24:47.000 : 8=FIX.4.2|9=328|35=8|34=3|49=FSX_SIT_ROLX|52=20230626-01:24:47.845|56=RSIT_ROLX_1|1=RSIT_ACCOUNT_1|6=0|11=2023054271168774268700000002|14=0|17=1673089675430730694|20=0|31=0|32=0|37=1673089725810895580|38=2|39=0|40=1|47=P|54=2|55=6028|59=0|60=20230626-01:24:47.845|76=ROLX|109=101|150=0|151=2|544=1|8164=ROL|8169=20230626-01:24:47.845064|8214=0|10=126|
20230626-01:24:50.000 : 8=FIX.4.2|9=86|35=h|34=4|49=FSX_SIT_ROLX|52=20230626-01:24:50.384|56=RSIT_ROLX_1|336=REX|339=3|340=3|10=078|
20230626-01:24:50.000 : 8=FIX.4.2|9=128|35=j|34=4|49=RSIT_ROLX_1|52=20230626-01:24:50.000|56=FSX_SIT_ROLX|45=4|58=Conditionally Required Field Missing (11)|372=h|380=5|10=238|
20230626-01:24:50.000 : 8=FIX.4.2|9=423|35=8|34=5|49=FSX_SIT_ROLX|52=20230626-01:24:50.384|56=RSIT_ROLX_1|1=RSIT_ACCOUNT_1|6=0|11=2023653487168773670700000007|14=0|17=201202306260905400030452|20=0|37=201202306260905400030453_Q|38=1|39=C|40=1|41=2023653487168773670700000007|47=P|54=1|55=1319|58=ERROR_20010044,REX order expired due to no TSE_Open_Price|59=0|60=20230626-00:30:01.097|76=ROLX|109=201|150=C|151=0|544=1|8164=REX|8169=20230626-00:30:01.097351|8214=0|10=169|
20230626-01:24:50.000 : 8=FIX.4.2|9=423|35=8|34=6|49=FSX_SIT_ROLX|52=20230626-01:24:50.384|56=RSIT_ROLX_1|1=RSIT_ACCOUNT_1|6=0|11=2023643207168773687900004271|14=0|17=201202306260905400030454|20=0|37=201202306260905400030455_Q|38=1|39=C|40=1|41=2023643207168773687900004271|47=P|54=2|55=1319|58=ERROR_20010044,REX order expired due to no TSE_Open_Price|59=0|60=20230626-00:30:01.098|76=ROLX|109=201|150=C|151=0|544=1|8164=REX|8169=20230626-00:30:01.098527|8214=0|10=194|
20230626-01:24:50.000 : 8=FIX.4.2|9=423|35=8|34=7|49=FSX_SIT_ROLX|52=20230626-01:24:50.385|56=RSIT_ROLX_1|1=RSIT_ACCOUNT_1|6=0|11=2023027341168773670700000011|14=0|17=201202306260905400030456|20=0|37=201202306260905400030457_Q|38=2|39=C|40=1|41=2023027341168773670700000011|47=P|54=1|55=1324|58=ERROR_20010044,REX order expired due to no TSE_Open_Price|59=0|60=20230626-00:30:01.099|76=ROLX|109=201|150=C|151=0|544=1|8164=REX|8169=20230626-00:30:01.099375|8214=0|10=145|
20230626-01:24:50.000 : 8=FIX.4.2|9=423|35=8|34=8|49=FSX_SIT_ROLX|52=20230626-01:24:50.385|56=RSIT_ROLX_1|1=RSIT_ACCOUNT_1|6=0|11=2023760583168773688000004275|14=0|17=201202306260905400030458|20=0|37=201202306260905400030459_Q|38=4|39=C|40=1|41=2023760583168773688000004275|47=P|54=2|55=1324|58=ERROR_20010044,REX order expired due to no TSE_Open_Price|59=0|60=20230626-00:30:01.100|76=ROLX|109=201|150=C|151=0|544=1|8164=REX|8169=20230626-00:30:01.100250|8214=0|10=171|
20230626-01:24:50.000 : 8=FIX.4.2|9=423|35=8|34=9|49=FSX_SIT_ROLX|52=20230626-01:24:50.386|56=RSIT_ROLX_1|1=RSIT_ACCOUNT_1|6=0|11=2023576310168773671100000111|14=0|17=201202306260905400030460|20=0|37=201202306260905400030461_Q|38=2|39=C|40=1|41=2023576310168773671100000111|47=P|54=1|55=1490|58=ERROR_20010044,REX order expired due to no TSE_Open_Price|59=0|60=20230626-00:30:01.101|76=ROLX|109=201|150=C|151=0|544=1|8164=REX|8169=20230626-00:30:01.101171|8214=0|10=106|
20230626-01:24:50.000 : 8=FIX.4.2|9=424|35=8|34=10|49=FSX_SIT_ROLX|52=20230626-01:24:50.386|56=RSIT_ROLX_1|1=RSIT_ACCOUNT_1|6=0|11=2023356104168773688400004375|14=0|17=201202306260905400030462|20=0|37=201202306260905400030463_Q|38=5|39=C|40=1|41=2023356104168773688400004375|47=P|54=2|55=1490|58=ERROR_20010044,REX order expired due to no TSE_Open_Price|59=0|60=20230626-00:30:01.102|76=ROLX|109=201|150=C|151=0|544=1|8164=REX|8169=20230626-00:30:01.102153|8214=0|10=205|
20230626-01:24:50.000 : 8=FIX.4.2|9=424|35=8|34=11|49=FSX_SIT_ROLX|52=20230626-01:24:50.386|56=RSIT_ROLX_1|1=RSIT_ACCOUNT_1|6=0|11=2023016758168773671300000151|14=0|17=201202306260905400030464|20=0|37=201202306260905400030465_Q|38=5|39=C|40=1|41=2023016758168773671300000151|47=P|54=1|55=1585|58=ERROR_20010044,REX order expired due to no TSE_Open_Price|59=0|60=20230626-00:30:01.103|76=ROLX|109=201|150=C|151=0|544=1|8164=REX|8169=20230626-00:30:01.103090|8214=0|10=190|
20230626-01:24:50.000 : 8=FIX.4.2|9=424|35=8|34=12|49=FSX_SIT_ROLX|52=20230626-01:24:50.387|56=RSIT_ROLX_1|1=RSIT_ACCOUNT_1|6=0|11=2023065234168773688500004415|14=0|17=201202306260905400030466|20=0|37=201202306260905400030467_Q|38=1|39=C|40=1|41=2023065234168773688500004415|47=P|54=2|55=1585|58=ERROR_20010044,REX order expired due to no TSE_Open_Price|59=0|60=20230626-00:30:01.104|76=ROLX|109=201|150=C|151=0|544=1|8164=REX|8169=20230626-00:30:01.104072|8214=0|10=215|
20230626-01:24:50.000 : 8=FIX.4.2|9=424|35=8|34=13|49=FSX_SIT_ROLX|52=20230626-01:24:50.387|56=RSIT_ROLX_1|1=RSIT_ACCOUNT_1|6=0|11=2023035126168773671300000157|14=0|17=201202306260905400030468|20=0|37=201202306260905400030469_Q|38=2|39=C|40=1|41=2023035126168773671300000157|47=P|54=1|55=1596|58=ERROR_20010044,REX order expired due to no TSE_Open_Price|59=0|60=20230626-00:30:01.104|76=ROLX|109=201|150=C|151=0|544=1|8164=REX|8169=20230626-00:30:01.104957|8214=0|10=206|
20230626-01:24:50.000 : 8=FIX.4.2|9=424|35=8|34=14|49=FSX_SIT_ROLX|52=20230626-01:24:50.388|56=RSIT_ROLX_1|1=RSIT_ACCOUNT_1|6=0|11=2023760415168773688500004421|14=0|17=201202306260905400030470|20=0|37=201202306260905400030471_Q|38=3|39=C|40=1|41=2023760415168773688500004421|47=P|54=2|55=1596|58=ERROR_20010044,REX order expired due to no TSE_Open_Price|59=0|60=20230626-00:30:01.105|76=ROLX|109=201|150=C|151=0|544=1|8164=REX|8169=20230626-00:30:01.105877|8214=0|10=227|
20230626-01:24:50.000 : 8=FIX.4.2|9=424|35=8|34=15|49=FSX_SIT_ROLX|52=20230626-01:24:50.388|56=RSIT_ROLX_1|1=RSIT_ACCOUNT_1|6=0|11=2023536084168773671400000181|14=0|17=201202306260905400030472|20=0|37=201202306260905400030473_Q|38=2|39=C|40=1|41=2023536084168773671400000181|47=P|54=1|55=1653|58=ERROR_20010044,REX order expired due to no TSE_Open_Price|59=0|60=20230626-00:30:01.106|76=ROLX|109=201|150=C|151=0|544=1|8164=REX|8169=20230626-00:30:01.106817|8214=0|10=206|
20230626-01:24:50.000 : 8=FIX.4.2|9=424|35=8|34=16|49=FSX_SIT_ROLX|52=20230626-01:24:50.389|56=RSIT_ROLX_1|1=RSIT_ACCOUNT_1|6=0|11=2023071834168773688600004445|14=0|17=201202306260905400030474|20=0|37=201202306260905400030475_Q|38=1|39=C|40=1|41=2023071834168773688600004445|47=P|54=2|55=1653|58=ERROR_20010044,REX order expired due to no TSE_Open_Price|59=0|60=20230626-00:30:01.107|76=ROLX|109=201|150=C|151=0|544=1|8164=REX|8169=20230626-00:30:01.107842|8214=0|10=240|
20230626-01:24:50.000 : 8=FIX.4.2|9=424|35=8|34=17|49=FSX_SIT_ROLX|52=20230626-01:24:50.389|56=RSIT_ROLX_1|1=RSIT_ACCOUNT_1|6=0|11=2023214357168773671500000203|14=0|17=201202306260905400030476|20=0|37=201202306260905400030477_Q|38=1|39=C|40=1|41=2023214357168773671500000203|47=P|54=1|55=1684|58=ERROR_20010044,REX order expired due to no TSE_Open_Price|59=0|60=20230626-00:30:01.108|76=ROLX|109=201|150=C|151=0|544=1|8164=REX|8169=20230626-00:30:01.108780|8214=0|10=207|
20230626-01:24:50.000 : 8=FIX.4.2|9=424|35=8|34=18|49=FSX_SIT_ROLX|52=20230626-01:24:50.389|56=RSIT_ROLX_1|1=RSIT_ACCOUNT_1|6=0|11=2023602573168773688700004467|14=0|17=201202306260905400030478|20=0|37=201202306260905400030479_Q|38=3|39=C|40=1|41=2023602573168773688700004467|47=P|54=2|55=1684|58=ERROR_20010044,REX order expired due to no TSE_Open_Price|59=0|60=20230626-00:30:01.109|76=ROLX|109=201|150=C|151=0|544=1|8164=REX|8169=20230626-00:30:01.109729|8214=0|10=018|
20230626-01:24:50.000 : 8=FIX.4.2|9=424|35=8|34=19|49=FSX_SIT_ROLX|52=20230626-01:24:50.390|56=RSIT_ROLX_1|1=RSIT_ACCOUNT_1|6=0|11=2023427160168773671500000205|14=0|17=201202306260905400030480|20=0|37=201202306260905400030481_Q|38=4|39=C|40=1|41=2023427160168773671500000205|47=P|54=1|55=1686|58=ERROR_20010044,REX order expired due to no TSE_Open_Price|59=0|60=20230626-00:30:01.110|76=ROLX|109=201|150=C|151=0|544=1|8164=REX|8169=20230626-00:30:01.110616|8214=0|10=180|
20230626-01:24:50.000 : 8=FIX.4.2|9=424|35=8|34=20|49=FSX_SIT_ROLX|52=20230626-01:24:50.390|56=RSIT_ROLX_1|1=RSIT_ACCOUNT_1|6=0|11=2023654870168773688700004469|14=0|17=201202306260905400030482|20=0|37=201202306260905400030483_Q|38=4|39=C|40=1|41=2023654870168773688700004469|47=P|54=2|55=1686|58=ERROR_20010044,REX order expired due to no TSE_Open_Price|59=0|60=20230626-00:30:01.111|76=ROLX|109=201|150=C|151=0|544=1|8164=REX|8169=20230626-00:30:01.111347|8214=0|10=252|
20230626-01:24:50.000 : 8=FIX.4.2|9=424|35=8|34=21|49=FSX_SIT_ROLX|52=20230626-01:24:50.391|56=RSIT_ROLX_1|1=RSIT_ACCOUNT_1|6=0|11=2023238167168773671700000247|14=0|17=201202306260905400030484|20=0|37=201202306260905400030485_Q|38=2|39=C|40=1|41=2023238167168773671700000247|47=P|54=1|55=1787|58=ERROR_20010044,REX order expired due to no TSE_Open_Price|59=0|60=20230626-00:30:01.112|76=ROLX|109=201|150=C|151=0|544=1|8164=REX|8169=20230626-00:30:01.112015|8214=0|10=209|
20230626-01:24:50.000 : 8=FIX.4.2|9=424|35=8|34=22|49=FSX_SIT_ROLX|52=20230626-01:24:50.391|56=RSIT_ROLX_1|1=RSIT_ACCOUNT_1|6=0|11=2023584603168773688900004511|14=0|17=201202306260905400030486|20=0|37=201202306260905400030487_Q|38=1|39=C|40=1|41=2023584603168773688900004511|47=P|54=2|55=1787|58=ERROR_20010044,REX order expired due to no TSE_Open_Price|59=0|60=20230626-00:30:01.112|76=ROLX|109=201|150=C|151=0|544=1|8164=REX|8169=20230626-00:30:01.112751|8214=0|10=235|
20230626-01:24:50.000 : 8=FIX.4.2|9=424|35=8|34=23|49=FSX_SIT_ROLX|52=20230626-01:24:50.391|56=RSIT_ROLX_1|1=RSIT_ACCOUNT_1|6=0|11=2023527683168773671700000252|14=0|17=201202306260905400030488|20=0|37=201202306260905400030489_Q|38=4|39=C|40=1|41=2023527683168773671700000252|47=P|54=1|55=1798|58=ERROR_20010044,REX order expired due to no TSE_Open_Price|59=0|60=20230626-00:30:01.113|76=ROLX|109=201|150=C|151=0|544=1|8164=REX|8169=20230626-00:30:01.113654|8214=0|10=234|
20230626-01:24:50.000 : 8=FIX.4.2|9=424|35=8|34=24|49=FSX_SIT_ROLX|52=20230626-01:24:50.392|56=RSIT_ROLX_1|1=RSIT_ACCOUNT_1|6=0|11=2023276431168773688900004516|14=0|17=201202306260905400030490|20=0|37=201202306260905400030491_Q|38=4|39=C|40=1|41=2023276431168773688900004516|47=P|54=2|55=1798|58=ERROR_20010044,REX order expired due to no TSE_Open_Price|59=0|60=20230626-00:30:01.114|76=ROLX|109=201|150=C|151=0|544=1|8164=REX|8169=20230626-00:30:01.114321|8214=0|10=234|
20230626-01:24:50.000 : 8=FIX.4.2|9=424|35=8|34=25|49=FSX_SIT_ROLX|52=20230626-01:24:50.392|56=RSIT_ROLX_1|1=RSIT_ACCOUNT_1|6=0|11=2023876543168773671700000258|14=0|17=201202306260905400030492|20=0|37=201202306260905400030493_Q|38=5|39=C|40=1|41=2023876543168773671700000258|47=P|54=1|55=1807|58=ERROR_20010044,REX order expired due to no TSE_Open_Price|59=0|60=20230626-00:30:01.114|76=ROLX|109=201|150=C|151=0|544=1|8164=REX|8169=20230626-00:30:01.114983|8214=0|10=242|
20230626-01:24:50.000 : 8=FIX.4.2|9=424|35=8|34=26|49=FSX_SIT_ROLX|52=20230626-01:24:50.393|56=RSIT_ROLX_1|1=RSIT_ACCOUNT_1|6=0|11=2023278510168773688900004522|14=0|17=201202306260905400030494|20=0|37=201202306260905400030495_Q|38=3|39=C|40=1|41=2023278510168773688900004522|47=P|54=2|55=1807|58=ERROR_20010044,REX order expired due to no TSE_Open_Price|59=0|60=20230626-00:30:01.115|76=ROLX|109=201|150=C|151=0|544=1|8164=REX|8169=20230626-00:30:01.115720|8214=0|10=234|
