2023-06-08 18:57:09,164 : (Core) S >> 8=FIX.4.2|9=84|35=A|34=1|49=RUAT_ROLX_4|52=20230608-09:57:09.000|56=FSX_UAT_ROLX|98=0|108=30|141=Y|10=129|
