2023-08-10 13:21:30,221 : (Core) S >> 8=FIX.4.2|9=83|35=A|34=1|49=RSIT_EDP_4|52=20230810-04:21:30.000|56=FSX_SIT_EDP|98=0|108=300|141=Y|10=203|
2023-08-10 13:21:30,292 : (Core) R << 8=FIX.4.2|9=83|35=A|34=1|49=FSX_SIT_EDP|52=20230810-04:21:30.266|56=RSIT_EDP_4|98=0|108=300|141=Y|10=217|
