2023-08-10 15:42:05,682 : (Core) S >> 8=FIX.4.2|9=83|35=A|34=1|49=RSIT_EDP_8|52=20230810-06:42:05.000|56=FSX_SIT_EDP|98=0|108=300|141=Y|10=214|
2023-08-10 15:42:05,755 : (Core) R << 8=FIX.4.2|9=83|35=A|34=1|49=FSX_SIT_EDP|52=20230810-06:42:05.750|56=RSIT_EDP_8|98=0|108=300|141=Y|10=226|
