20230809-08:38:55.000 : 8=FIX.4.2|9=82|35=A|34=1|49=RUAT_EDP_4|52=20230809-08:38:55.000|56=FSX_UAT_EDP|98=0|108=30|141=Y|10=169|
20230809-08:39:44.000 : 8=FIX.4.2|9=82|35=A|34=1|49=RUAT_EDP_4|52=20230809-08:39:44.000|56=FSX_UAT_EDP|98=0|108=30|141=Y|10=168|
20230809-08:40:16.000 : 8=FIX.4.2|9=82|35=A|34=1|49=RUAT_EDP_4|52=20230809-08:40:16.000|56=FSX_UAT_EDP|98=0|108=30|141=Y|10=159|
20230809-08:40:40.000 : 8=FIX.4.2|9=82|35=A|34=1|49=RUAT_EDP_4|52=20230809-08:40:40.000|56=FSX_UAT_EDP|98=0|108=30|141=Y|10=156|
