20230810-04:00:41.000 : 8=FIX.4.2|9=83|35=A|34=1|49=RSIT_EDP_1|52=20230810-04:00:41.000|56=FSX_SIT_EDP|98=0|108=300|141=Y|10=199|
20230810-04:05:41.000 : 8=FIX.4.2|9=83|35=A|34=1|49=RSIT_EDP_1|52=20230810-04:05:41.000|56=FSX_SIT_EDP|98=0|108=300|141=Y|10=204|
20230810-04:06:19.000 : 8=FIX.4.2|9=83|35=A|34=1|49=RSIT_EDP_1|52=20230810-04:06:19.000|56=FSX_SIT_EDP|98=0|108=300|141=Y|10=210|
20230810-04:07:19.000 : 8=FIX.4.2|9=83|35=A|34=1|49=RSIT_EDP_1|52=20230810-04:07:19.000|56=FSX_SIT_EDP|98=0|108=300|141=Y|10=211|
