20230810-04:07:20.000 : 8=FIX.4.2|9=83|35=A|34=1|49=RSIT_EDP_7|52=20230810-04:07:20.000|56=FSX_SIT_EDP|98=0|108=300|141=Y|10=209|
20230810-04:07:20.000 : 8=FIX.4.2|9=83|35=A|34=1|49=FSX_SIT_EDP|52=20230810-04:07:20.156|56=RSIT_EDP_7|98=0|108=300|141=Y|10=221|
20230810-04:07:21.000 : 8=FIX.4.2|9=187|35=D|34=2|49=RSIT_EDP_7|52=20230810-04:07:21.000|56=FSX_SIT_EDP|1=RSIT_EDP_ACCOUNT_7|11=16916404414051000001|38=100|40=1|54=2|55=1356|60=20230810-04:07:21.895234|109=16916404414051000001|10=163|
20230810-04:07:21.000 : 8=FIX.4.2|9=187|35=D|34=3|49=RSIT_EDP_7|52=20230810-04:07:21.000|56=FSX_SIT_EDP|1=RSIT_EDP_ACCOUNT_7|11=16916404411587000002|38=100|40=1|54=1|55=1356|60=20230810-04:07:21.902211|109=16916404411587000002|10=171|
20230810-04:07:21.000 : 8=FIX.4.2|9=187|35=D|34=4|49=RSIT_EDP_7|52=20230810-04:07:21.000|56=FSX_SIT_EDP|1=RSIT_EDP_ACCOUNT_7|11=16916404414563000003|38=100|40=1|54=2|55=1356|60=20230810-04:07:21.908071|109=16916404414563000003|10=179|
20230810-04:07:21.000 : 8=FIX.4.2|9=187|35=D|34=5|49=RSIT_EDP_7|52=20230810-04:07:21.000|56=FSX_SIT_EDP|1=RSIT_EDP_ACCOUNT_7|11=16916404416834000004|38=100|40=1|54=1|55=1356|60=20230810-04:07:21.912856|109=16916404416834000004|10=193|
20230810-04:07:21.000 : 8=FIX.4.2|9=187|35=D|34=6|49=RSIT_EDP_7|52=20230810-04:07:21.000|56=FSX_SIT_EDP|1=RSIT_EDP_ACCOUNT_7|11=16916404418647000005|38=100|40=1|54=2|55=1356|60=20230810-04:07:21.918421|109=16916404418647000005|10=199|
20230810-04:07:21.000 : 8=FIX.4.2|9=429|35=8|34=2|49=FSX_SIT_EDP|52=20230810-04:07:21.951|56=RSIT_EDP_7|1=RSIT_EDP_ACCOUNT_7|6=0|11=16916404414051000001|14=0|17=None|20=0|31=0|32=0|37=None|38=100|39=8|40=1|44=0|47=P|54=2|55=1356|58=ERROR_10010013,No available instrument risk check data found: instrumentDate=not_found,expectedDate=20230810|59=3|60=20230810-04:07:21.951|103=3|109=107|110=0|150=8|151=0|544=1|8060=3|8164=EDP|8169=20230810-04:07:21.951163|8174=0|8214=0|10=107|
20230810-04:07:22.000 : 8=FIX.4.2|9=429|35=8|34=3|49=FSX_SIT_EDP|52=20230810-04:07:22.024|56=RSIT_EDP_7|1=RSIT_EDP_ACCOUNT_7|6=0|11=16916404411587000002|14=0|17=None|20=0|31=0|32=0|37=None|38=100|39=8|40=1|44=0|47=P|54=1|55=1356|58=ERROR_10010013,No available instrument risk check data found: instrumentDate=not_found,expectedDate=20230810|59=3|60=20230810-04:07:22.024|103=3|109=107|110=0|150=8|151=0|544=1|8060=3|8164=EDP|8169=20230810-04:07:22.024533|8174=0|8214=0|10=096|
20230810-04:07:22.000 : 8=FIX.4.2|9=429|35=8|34=4|49=FSX_SIT_EDP|52=20230810-04:07:22.025|56=RSIT_EDP_7|1=RSIT_EDP_ACCOUNT_7|6=0|11=16916404414563000003|14=0|17=None|20=0|31=0|32=0|37=None|38=100|39=8|40=1|44=0|47=P|54=2|55=1356|58=ERROR_10010013,No available instrument risk check data found: instrumentDate=not_found,expectedDate=20230810|59=3|60=20230810-04:07:22.025|103=3|109=107|110=0|150=8|151=0|544=1|8060=3|8164=EDP|8169=20230810-04:07:22.025298|8174=0|8214=0|10=107|
20230810-04:07:22.000 : 8=FIX.4.2|9=429|35=8|34=5|49=FSX_SIT_EDP|52=20230810-04:07:22.026|56=RSIT_EDP_7|1=RSIT_EDP_ACCOUNT_7|6=0|11=16916404416834000004|14=0|17=None|20=0|31=0|32=0|37=None|38=100|39=8|40=1|44=0|47=P|54=1|55=1356|58=ERROR_10010013,No available instrument risk check data found: instrumentDate=not_found,expectedDate=20230810|59=3|60=20230810-04:07:22.025|103=3|109=107|110=0|150=8|151=0|544=1|8060=3|8164=EDP|8169=20230810-04:07:22.025957|8174=0|8214=0|10=114|
20230810-04:07:22.000 : 8=FIX.4.2|9=429|35=8|34=6|49=FSX_SIT_EDP|52=20230810-04:07:22.026|56=RSIT_EDP_7|1=RSIT_EDP_ACCOUNT_7|6=0|11=16916404418647000005|14=0|17=None|20=0|31=0|32=0|37=None|38=100|39=8|40=1|44=0|47=P|54=2|55=1356|58=ERROR_10010013,No available instrument risk check data found: instrumentDate=not_found,expectedDate=20230810|59=3|60=20230810-04:07:22.026|103=3|109=107|110=0|150=8|151=0|544=1|8060=3|8164=EDP|8169=20230810-04:07:22.026741|8174=0|8214=0|10=114|
20230810-04:08:22.000 : 8=FIX.4.2|9=64|35=5|34=7|49=RSIT_EDP_7|52=20230810-04:08:22.000|56=FSX_SIT_EDP|10=087|
20230810-04:08:22.000 : 8=FIX.4.2|9=64|35=5|34=7|49=FSX_SIT_EDP|52=20230810-04:08:22.336|56=RSIT_EDP_7|10=099|
