20231016-08:43:14.000 : 8=FIX.4.2|9=82|35=A|34=1|49=UAT_EDP_7|52=20231016-08:43:14.000|56=FSX_UAT_EDP|98=0|108=300|141=Y|10=120|
20231016-08:43:41.000 : 8=FIX.4.2|9=82|35=A|34=1|49=UAT_EDP_7|52=20231016-08:43:41.000|56=FSX_UAT_EDP|98=0|108=300|141=Y|10=120|
20231016-08:44:41.000 : 8=FIX.4.2|9=82|35=A|34=1|49=UAT_EDP_7|52=20231016-08:44:41.000|56=FSX_UAT_EDP|98=0|108=300|141=Y|10=121|
20231016-08:45:41.000 : 8=FIX.4.2|9=82|35=A|34=1|49=UAT_EDP_7|52=20231016-08:45:41.000|56=FSX_UAT_EDP|98=0|108=300|141=Y|10=122|
20231016-08:46:41.000 : 8=FIX.4.2|9=82|35=A|34=1|49=UAT_EDP_7|52=20231016-08:46:41.000|56=FSX_UAT_EDP|98=0|108=300|141=Y|10=123|
20231016-08:47:41.000 : 8=FIX.4.2|9=82|35=A|34=1|49=UAT_EDP_7|52=20231016-08:47:41.000|56=FSX_UAT_EDP|98=0|108=300|141=Y|10=124|
20231016-08:48:41.000 : 8=FIX.4.2|9=82|35=A|34=1|49=UAT_EDP_7|52=20231016-08:48:41.000|56=FSX_UAT_EDP|98=0|108=300|141=Y|10=125|
20231016-08:49:41.000 : 8=FIX.4.2|9=82|35=A|34=1|49=UAT_EDP_7|52=20231016-08:49:41.000|56=FSX_UAT_EDP|98=0|108=300|141=Y|10=126|
20231016-08:50:41.000 : 8=FIX.4.2|9=82|35=A|34=1|49=UAT_EDP_7|52=20231016-08:50:41.000|56=FSX_UAT_EDP|98=0|108=300|141=Y|10=118|
20231016-08:51:41.000 : 8=FIX.4.2|9=82|35=A|34=1|49=UAT_EDP_7|52=20231016-08:51:41.000|56=FSX_UAT_EDP|98=0|108=300|141=Y|10=119|
20231016-08:52:41.000 : 8=FIX.4.2|9=82|35=A|34=1|49=UAT_EDP_7|52=20231016-08:52:41.000|56=FSX_UAT_EDP|98=0|108=300|141=Y|10=120|
20231016-08:53:41.000 : 8=FIX.4.2|9=82|35=A|34=1|49=UAT_EDP_7|52=20231016-08:53:41.000|56=FSX_UAT_EDP|98=0|108=300|141=Y|10=121|
20231016-08:54:41.000 : 8=FIX.4.2|9=82|35=A|34=1|49=UAT_EDP_7|52=20231016-08:54:41.000|56=FSX_UAT_EDP|98=0|108=300|141=Y|10=122|
20231016-08:55:41.000 : 8=FIX.4.2|9=82|35=A|34=1|49=UAT_EDP_7|52=20231016-08:55:41.000|56=FSX_UAT_EDP|98=0|108=300|141=Y|10=123|
20231016-08:56:41.000 : 8=FIX.4.2|9=82|35=A|34=1|49=UAT_EDP_7|52=20231016-08:56:41.000|56=FSX_UAT_EDP|98=0|108=300|141=Y|10=124|
20231016-08:57:41.000 : 8=FIX.4.2|9=82|35=A|34=1|49=UAT_EDP_7|52=20231016-08:57:41.000|56=FSX_UAT_EDP|98=0|108=300|141=Y|10=125|
20231016-08:58:41.000 : 8=FIX.4.2|9=82|35=A|34=1|49=UAT_EDP_7|52=20231016-08:58:41.000|56=FSX_UAT_EDP|98=0|108=300|141=Y|10=126|
20231016-08:59:41.000 : 8=FIX.4.2|9=82|35=A|34=1|49=UAT_EDP_7|52=20231016-08:59:41.000|56=FSX_UAT_EDP|98=0|108=300|141=Y|10=127|
20231016-09:00:41.000 : 8=FIX.4.2|9=82|35=A|34=1|49=UAT_EDP_7|52=20231016-09:00:41.000|56=FSX_UAT_EDP|98=0|108=300|141=Y|10=114|
20231016-09:01:41.000 : 8=FIX.4.2|9=82|35=A|34=1|49=UAT_EDP_7|52=20231016-09:01:41.000|56=FSX_UAT_EDP|98=0|108=300|141=Y|10=115|
20231016-09:02:41.000 : 8=FIX.4.2|9=82|35=A|34=1|49=UAT_EDP_7|52=20231016-09:02:41.000|56=FSX_UAT_EDP|98=0|108=300|141=Y|10=116|
20231016-09:03:41.000 : 8=FIX.4.2|9=82|35=A|34=1|49=UAT_EDP_7|52=20231016-09:03:41.000|56=FSX_UAT_EDP|98=0|108=300|141=Y|10=117|
20231016-09:04:41.000 : 8=FIX.4.2|9=82|35=A|34=1|49=UAT_EDP_7|52=20231016-09:04:41.000|56=FSX_UAT_EDP|98=0|108=300|141=Y|10=118|
20231016-09:05:41.000 : 8=FIX.4.2|9=82|35=A|34=1|49=UAT_EDP_7|52=20231016-09:05:41.000|56=FSX_UAT_EDP|98=0|108=300|141=Y|10=119|
20231016-09:06:41.000 : 8=FIX.4.2|9=82|35=A|34=1|49=UAT_EDP_7|52=20231016-09:06:41.000|56=FSX_UAT_EDP|98=0|108=300|141=Y|10=120|
20231016-09:07:42.000 : 8=FIX.4.2|9=82|35=A|34=1|49=UAT_EDP_7|52=20231016-09:07:42.000|56=FSX_UAT_EDP|98=0|108=300|141=Y|10=122|
20231016-09:08:41.000 : 8=FIX.4.2|9=82|35=A|34=1|49=UAT_EDP_7|52=20231016-09:08:41.000|56=FSX_UAT_EDP|98=0|108=300|141=Y|10=122|
20231016-09:09:41.000 : 8=FIX.4.2|9=82|35=A|34=1|49=UAT_EDP_7|52=20231016-09:09:41.000|56=FSX_UAT_EDP|98=0|108=300|141=Y|10=123|
20231016-09:10:41.000 : 8=FIX.4.2|9=82|35=A|34=1|49=UAT_EDP_7|52=20231016-09:10:41.000|56=FSX_UAT_EDP|98=0|108=300|141=Y|10=115|
20231016-09:11:41.000 : 8=FIX.4.2|9=82|35=A|34=1|49=UAT_EDP_7|52=20231016-09:11:41.000|56=FSX_UAT_EDP|98=0|108=300|141=Y|10=116|
20231016-09:12:41.000 : 8=FIX.4.2|9=82|35=A|34=1|49=UAT_EDP_7|52=20231016-09:12:41.000|56=FSX_UAT_EDP|98=0|108=300|141=Y|10=117|
20231016-09:13:41.000 : 8=FIX.4.2|9=82|35=A|34=1|49=UAT_EDP_7|52=20231016-09:13:41.000|56=FSX_UAT_EDP|98=0|108=300|141=Y|10=118|
20231016-09:14:41.000 : 8=FIX.4.2|9=82|35=A|34=1|49=UAT_EDP_7|52=20231016-09:14:41.000|56=FSX_UAT_EDP|98=0|108=300|141=Y|10=119|
20231016-09:15:41.000 : 8=FIX.4.2|9=82|35=A|34=1|49=UAT_EDP_7|52=20231016-09:15:41.000|56=FSX_UAT_EDP|98=0|108=300|141=Y|10=120|
20231016-09:16:41.000 : 8=FIX.4.2|9=82|35=A|34=1|49=UAT_EDP_7|52=20231016-09:16:41.000|56=FSX_UAT_EDP|98=0|108=300|141=Y|10=121|
20231016-09:17:41.000 : 8=FIX.4.2|9=82|35=A|34=1|49=UAT_EDP_7|52=20231016-09:17:41.000|56=FSX_UAT_EDP|98=0|108=300|141=Y|10=122|
20231016-09:18:41.000 : 8=FIX.4.2|9=82|35=A|34=1|49=UAT_EDP_7|52=20231016-09:18:41.000|56=FSX_UAT_EDP|98=0|108=300|141=Y|10=123|
20231016-09:19:41.000 : 8=FIX.4.2|9=82|35=A|34=1|49=UAT_EDP_7|52=20231016-09:19:41.000|56=FSX_UAT_EDP|98=0|108=300|141=Y|10=124|
20231016-09:20:41.000 : 8=FIX.4.2|9=82|35=A|34=1|49=UAT_EDP_7|52=20231016-09:20:41.000|56=FSX_UAT_EDP|98=0|108=300|141=Y|10=116|
20231016-09:21:41.000 : 8=FIX.4.2|9=82|35=A|34=1|49=UAT_EDP_7|52=20231016-09:21:41.000|56=FSX_UAT_EDP|98=0|108=300|141=Y|10=117|
20231016-09:22:41.000 : 8=FIX.4.2|9=82|35=A|34=1|49=UAT_EDP_7|52=20231016-09:22:41.000|56=FSX_UAT_EDP|98=0|108=300|141=Y|10=118|
20231016-09:23:41.000 : 8=FIX.4.2|9=82|35=A|34=1|49=UAT_EDP_7|52=20231016-09:23:41.000|56=FSX_UAT_EDP|98=0|108=300|141=Y|10=119|
20231016-09:24:41.000 : 8=FIX.4.2|9=82|35=A|34=1|49=UAT_EDP_7|52=20231016-09:24:41.000|56=FSX_UAT_EDP|98=0|108=300|141=Y|10=120|
20231016-09:25:41.000 : 8=FIX.4.2|9=82|35=A|34=1|49=UAT_EDP_7|52=20231016-09:25:41.000|56=FSX_UAT_EDP|98=0|108=300|141=Y|10=121|
20231016-09:26:42.000 : 8=FIX.4.2|9=82|35=A|34=1|49=UAT_EDP_7|52=20231016-09:26:42.000|56=FSX_UAT_EDP|98=0|108=300|141=Y|10=123|
20231016-09:27:41.000 : 8=FIX.4.2|9=82|35=A|34=1|49=UAT_EDP_7|52=20231016-09:27:41.000|56=FSX_UAT_EDP|98=0|108=300|141=Y|10=123|
20231016-09:28:41.000 : 8=FIX.4.2|9=82|35=A|34=1|49=UAT_EDP_7|52=20231016-09:28:41.000|56=FSX_UAT_EDP|98=0|108=300|141=Y|10=124|
20231016-09:29:41.000 : 8=FIX.4.2|9=82|35=A|34=1|49=UAT_EDP_7|52=20231016-09:29:41.000|56=FSX_UAT_EDP|98=0|108=300|141=Y|10=125|
20231016-09:30:42.000 : 8=FIX.4.2|9=82|35=A|34=1|49=UAT_EDP_7|52=20231016-09:30:42.000|56=FSX_UAT_EDP|98=0|108=300|141=Y|10=118|
20231016-09:31:41.000 : 8=FIX.4.2|9=82|35=A|34=1|49=UAT_EDP_7|52=20231016-09:31:41.000|56=FSX_UAT_EDP|98=0|108=300|141=Y|10=118|
20231016-09:32:41.000 : 8=FIX.4.2|9=82|35=A|34=1|49=UAT_EDP_7|52=20231016-09:32:41.000|56=FSX_UAT_EDP|98=0|108=300|141=Y|10=119|
20231016-09:33:41.000 : 8=FIX.4.2|9=82|35=A|34=1|49=UAT_EDP_7|52=20231016-09:33:41.000|56=FSX_UAT_EDP|98=0|108=300|141=Y|10=120|
20231016-09:34:41.000 : 8=FIX.4.2|9=82|35=A|34=1|49=UAT_EDP_7|52=20231016-09:34:41.000|56=FSX_UAT_EDP|98=0|108=300|141=Y|10=121|
20231016-09:35:41.000 : 8=FIX.4.2|9=82|35=A|34=1|49=UAT_EDP_7|52=20231016-09:35:41.000|56=FSX_UAT_EDP|98=0|108=300|141=Y|10=122|
20231016-09:36:41.000 : 8=FIX.4.2|9=82|35=A|34=1|49=UAT_EDP_7|52=20231016-09:36:41.000|56=FSX_UAT_EDP|98=0|108=300|141=Y|10=123|
20231016-09:37:41.000 : 8=FIX.4.2|9=82|35=A|34=1|49=UAT_EDP_7|52=20231016-09:37:41.000|56=FSX_UAT_EDP|98=0|108=300|141=Y|10=124|
20231016-09:38:41.000 : 8=FIX.4.2|9=82|35=A|34=1|49=UAT_EDP_7|52=20231016-09:38:41.000|56=FSX_UAT_EDP|98=0|108=300|141=Y|10=125|
20231016-09:39:41.000 : 8=FIX.4.2|9=82|35=A|34=1|49=UAT_EDP_7|52=20231016-09:39:41.000|56=FSX_UAT_EDP|98=0|108=300|141=Y|10=126|
20231016-09:40:41.000 : 8=FIX.4.2|9=82|35=A|34=1|49=UAT_EDP_7|52=20231016-09:40:41.000|56=FSX_UAT_EDP|98=0|108=300|141=Y|10=118|
20231016-09:41:41.000 : 8=FIX.4.2|9=82|35=A|34=1|49=UAT_EDP_7|52=20231016-09:41:41.000|56=FSX_UAT_EDP|98=0|108=300|141=Y|10=119|
20231016-09:42:41.000 : 8=FIX.4.2|9=82|35=A|34=1|49=UAT_EDP_7|52=20231016-09:42:41.000|56=FSX_UAT_EDP|98=0|108=300|141=Y|10=120|
20231016-09:43:41.000 : 8=FIX.4.2|9=82|35=A|34=1|49=UAT_EDP_7|52=20231016-09:43:41.000|56=FSX_UAT_EDP|98=0|108=300|141=Y|10=121|
20231016-09:44:41.000 : 8=FIX.4.2|9=82|35=A|34=1|49=UAT_EDP_7|52=20231016-09:44:41.000|56=FSX_UAT_EDP|98=0|108=300|141=Y|10=122|
20231016-09:45:41.000 : 8=FIX.4.2|9=82|35=A|34=1|49=UAT_EDP_7|52=20231016-09:45:41.000|56=FSX_UAT_EDP|98=0|108=300|141=Y|10=123|
20231016-09:46:41.000 : 8=FIX.4.2|9=82|35=A|34=1|49=UAT_EDP_7|52=20231016-09:46:41.000|56=FSX_UAT_EDP|98=0|108=300|141=Y|10=124|
20231016-09:47:41.000 : 8=FIX.4.2|9=82|35=A|34=1|49=UAT_EDP_7|52=20231016-09:47:41.000|56=FSX_UAT_EDP|98=0|108=300|141=Y|10=125|
20231016-09:48:41.000 : 8=FIX.4.2|9=82|35=A|34=1|49=UAT_EDP_7|52=20231016-09:48:41.000|56=FSX_UAT_EDP|98=0|108=300|141=Y|10=126|
20231016-09:49:41.000 : 8=FIX.4.2|9=82|35=A|34=1|49=UAT_EDP_7|52=20231016-09:49:41.000|56=FSX_UAT_EDP|98=0|108=300|141=Y|10=127|
20231016-09:50:41.000 : 8=FIX.4.2|9=82|35=A|34=1|49=UAT_EDP_7|52=20231016-09:50:41.000|56=FSX_UAT_EDP|98=0|108=300|141=Y|10=119|
20231016-09:51:41.000 : 8=FIX.4.2|9=82|35=A|34=1|49=UAT_EDP_7|52=20231016-09:51:41.000|56=FSX_UAT_EDP|98=0|108=300|141=Y|10=120|
20231016-09:52:41.000 : 8=FIX.4.2|9=82|35=A|34=1|49=UAT_EDP_7|52=20231016-09:52:41.000|56=FSX_UAT_EDP|98=0|108=300|141=Y|10=121|
20231016-09:53:41.000 : 8=FIX.4.2|9=82|35=A|34=1|49=UAT_EDP_7|52=20231016-09:53:41.000|56=FSX_UAT_EDP|98=0|108=300|141=Y|10=122|
20231016-09:54:42.000 : 8=FIX.4.2|9=82|35=A|34=1|49=UAT_EDP_7|52=20231016-09:54:42.000|56=FSX_UAT_EDP|98=0|108=300|141=Y|10=124|
20231016-09:55:41.000 : 8=FIX.4.2|9=82|35=A|34=1|49=UAT_EDP_7|52=20231016-09:55:41.000|56=FSX_UAT_EDP|98=0|108=300|141=Y|10=124|
20231016-09:56:43.000 : 8=FIX.4.2|9=82|35=A|34=1|49=UAT_EDP_7|52=20231016-09:56:43.000|56=FSX_UAT_EDP|98=0|108=300|141=Y|10=127|
20231016-09:57:41.000 : 8=FIX.4.2|9=82|35=A|34=1|49=UAT_EDP_7|52=20231016-09:57:41.000|56=FSX_UAT_EDP|98=0|108=300|141=Y|10=126|
20231016-09:58:42.000 : 8=FIX.4.2|9=82|35=A|34=1|49=UAT_EDP_7|52=20231016-09:58:42.000|56=FSX_UAT_EDP|98=0|108=300|141=Y|10=128|
20231016-09:59:41.000 : 8=FIX.4.2|9=82|35=A|34=1|49=UAT_EDP_7|52=20231016-09:59:41.000|56=FSX_UAT_EDP|98=0|108=300|141=Y|10=128|
20231016-10:00:41.000 : 8=FIX.4.2|9=82|35=A|34=1|49=UAT_EDP_7|52=20231016-10:00:41.000|56=FSX_UAT_EDP|98=0|108=300|141=Y|10=106|
20231016-10:01:41.000 : 8=FIX.4.2|9=82|35=A|34=1|49=UAT_EDP_7|52=20231016-10:01:41.000|56=FSX_UAT_EDP|98=0|108=300|141=Y|10=107|
20231016-10:02:41.000 : 8=FIX.4.2|9=82|35=A|34=1|49=UAT_EDP_7|52=20231016-10:02:41.000|56=FSX_UAT_EDP|98=0|108=300|141=Y|10=108|
20231016-10:03:41.000 : 8=FIX.4.2|9=82|35=A|34=1|49=UAT_EDP_7|52=20231016-10:03:41.000|56=FSX_UAT_EDP|98=0|108=300|141=Y|10=109|
20231016-10:04:41.000 : 8=FIX.4.2|9=82|35=A|34=1|49=UAT_EDP_7|52=20231016-10:04:41.000|56=FSX_UAT_EDP|98=0|108=300|141=Y|10=110|
20231016-10:05:41.000 : 8=FIX.4.2|9=82|35=A|34=1|49=UAT_EDP_7|52=20231016-10:05:41.000|56=FSX_UAT_EDP|98=0|108=300|141=Y|10=111|
20231016-10:06:42.000 : 8=FIX.4.2|9=82|35=A|34=1|49=UAT_EDP_7|52=20231016-10:06:42.000|56=FSX_UAT_EDP|98=0|108=300|141=Y|10=113|
20231016-10:07:42.000 : 8=FIX.4.2|9=82|35=A|34=1|49=UAT_EDP_7|52=20231016-10:07:42.000|56=FSX_UAT_EDP|98=0|108=300|141=Y|10=114|
20231016-10:08:42.000 : 8=FIX.4.2|9=82|35=A|34=1|49=UAT_EDP_7|52=20231016-10:08:42.000|56=FSX_UAT_EDP|98=0|108=300|141=Y|10=115|
20231016-10:09:41.000 : 8=FIX.4.2|9=82|35=A|34=1|49=UAT_EDP_7|52=20231016-10:09:41.000|56=FSX_UAT_EDP|98=0|108=300|141=Y|10=115|
20231016-10:10:41.000 : 8=FIX.4.2|9=82|35=A|34=1|49=UAT_EDP_7|52=20231016-10:10:41.000|56=FSX_UAT_EDP|98=0|108=300|141=Y|10=107|
20231016-10:11:41.000 : 8=FIX.4.2|9=82|35=A|34=1|49=UAT_EDP_7|52=20231016-10:11:41.000|56=FSX_UAT_EDP|98=0|108=300|141=Y|10=108|
20231016-10:12:41.000 : 8=FIX.4.2|9=82|35=A|34=1|49=UAT_EDP_7|52=20231016-10:12:41.000|56=FSX_UAT_EDP|98=0|108=300|141=Y|10=109|
20231016-10:13:41.000 : 8=FIX.4.2|9=82|35=A|34=1|49=UAT_EDP_7|52=20231016-10:13:41.000|56=FSX_UAT_EDP|98=0|108=300|141=Y|10=110|
20231016-10:14:41.000 : 8=FIX.4.2|9=82|35=A|34=1|49=UAT_EDP_7|52=20231016-10:14:41.000|56=FSX_UAT_EDP|98=0|108=300|141=Y|10=111|
20231016-10:15:41.000 : 8=FIX.4.2|9=82|35=A|34=1|49=UAT_EDP_7|52=20231016-10:15:41.000|56=FSX_UAT_EDP|98=0|108=300|141=Y|10=112|
20231016-10:16:41.000 : 8=FIX.4.2|9=82|35=A|34=1|49=UAT_EDP_7|52=20231016-10:16:41.000|56=FSX_UAT_EDP|98=0|108=300|141=Y|10=113|
20231016-10:17:41.000 : 8=FIX.4.2|9=82|35=A|34=1|49=UAT_EDP_7|52=20231016-10:17:41.000|56=FSX_UAT_EDP|98=0|108=300|141=Y|10=114|
20231016-10:18:41.000 : 8=FIX.4.2|9=82|35=A|34=1|49=UAT_EDP_7|52=20231016-10:18:41.000|56=FSX_UAT_EDP|98=0|108=300|141=Y|10=115|
20231016-10:19:41.000 : 8=FIX.4.2|9=82|35=A|34=1|49=UAT_EDP_7|52=20231016-10:19:41.000|56=FSX_UAT_EDP|98=0|108=300|141=Y|10=116|
20231016-10:20:41.000 : 8=FIX.4.2|9=82|35=A|34=1|49=UAT_EDP_7|52=20231016-10:20:41.000|56=FSX_UAT_EDP|98=0|108=300|141=Y|10=108|
20231016-10:21:41.000 : 8=FIX.4.2|9=82|35=A|34=1|49=UAT_EDP_7|52=20231016-10:21:41.000|56=FSX_UAT_EDP|98=0|108=300|141=Y|10=109|
20231016-10:22:41.000 : 8=FIX.4.2|9=82|35=A|34=1|49=UAT_EDP_7|52=20231016-10:22:41.000|56=FSX_UAT_EDP|98=0|108=300|141=Y|10=110|
20231016-10:23:41.000 : 8=FIX.4.2|9=82|35=A|34=1|49=UAT_EDP_7|52=20231016-10:23:41.000|56=FSX_UAT_EDP|98=0|108=300|141=Y|10=111|
20231016-10:24:41.000 : 8=FIX.4.2|9=82|35=A|34=1|49=UAT_EDP_7|52=20231016-10:24:41.000|56=FSX_UAT_EDP|98=0|108=300|141=Y|10=112|
20231016-10:25:41.000 : 8=FIX.4.2|9=82|35=A|34=1|49=UAT_EDP_7|52=20231016-10:25:41.000|56=FSX_UAT_EDP|98=0|108=300|141=Y|10=113|
20231016-10:26:41.000 : 8=FIX.4.2|9=82|35=A|34=1|49=UAT_EDP_7|52=20231016-10:26:41.000|56=FSX_UAT_EDP|98=0|108=300|141=Y|10=114|
20231016-10:27:41.000 : 8=FIX.4.2|9=82|35=A|34=1|49=UAT_EDP_7|52=20231016-10:27:41.000|56=FSX_UAT_EDP|98=0|108=300|141=Y|10=115|
20231016-10:28:41.000 : 8=FIX.4.2|9=82|35=A|34=1|49=UAT_EDP_7|52=20231016-10:28:41.000|56=FSX_UAT_EDP|98=0|108=300|141=Y|10=116|
20231016-10:29:41.000 : 8=FIX.4.2|9=82|35=A|34=1|49=UAT_EDP_7|52=20231016-10:29:41.000|56=FSX_UAT_EDP|98=0|108=300|141=Y|10=117|
20231016-10:30:41.000 : 8=FIX.4.2|9=82|35=A|34=1|49=UAT_EDP_7|52=20231016-10:30:41.000|56=FSX_UAT_EDP|98=0|108=300|141=Y|10=109|
20231016-10:31:41.000 : 8=FIX.4.2|9=82|35=A|34=1|49=UAT_EDP_7|52=20231016-10:31:41.000|56=FSX_UAT_EDP|98=0|108=300|141=Y|10=110|
20231016-10:32:41.000 : 8=FIX.4.2|9=82|35=A|34=1|49=UAT_EDP_7|52=20231016-10:32:41.000|56=FSX_UAT_EDP|98=0|108=300|141=Y|10=111|
20231016-10:33:41.000 : 8=FIX.4.2|9=82|35=A|34=1|49=UAT_EDP_7|52=20231016-10:33:41.000|56=FSX_UAT_EDP|98=0|108=300|141=Y|10=112|
20231016-10:34:41.000 : 8=FIX.4.2|9=82|35=A|34=1|49=UAT_EDP_7|52=20231016-10:34:41.000|56=FSX_UAT_EDP|98=0|108=300|141=Y|10=113|
20231016-10:35:41.000 : 8=FIX.4.2|9=82|35=A|34=1|49=UAT_EDP_7|52=20231016-10:35:41.000|56=FSX_UAT_EDP|98=0|108=300|141=Y|10=114|
20231016-10:36:41.000 : 8=FIX.4.2|9=82|35=A|34=1|49=UAT_EDP_7|52=20231016-10:36:41.000|56=FSX_UAT_EDP|98=0|108=300|141=Y|10=115|
20231016-10:37:41.000 : 8=FIX.4.2|9=82|35=A|34=1|49=UAT_EDP_7|52=20231016-10:37:41.000|56=FSX_UAT_EDP|98=0|108=300|141=Y|10=116|
20231016-10:38:41.000 : 8=FIX.4.2|9=82|35=A|34=1|49=UAT_EDP_7|52=20231016-10:38:41.000|56=FSX_UAT_EDP|98=0|108=300|141=Y|10=117|
20231016-10:39:41.000 : 8=FIX.4.2|9=82|35=A|34=1|49=UAT_EDP_7|52=20231016-10:39:41.000|56=FSX_UAT_EDP|98=0|108=300|141=Y|10=118|
20231016-10:40:41.000 : 8=FIX.4.2|9=82|35=A|34=1|49=UAT_EDP_7|52=20231016-10:40:41.000|56=FSX_UAT_EDP|98=0|108=300|141=Y|10=110|
20231016-10:41:41.000 : 8=FIX.4.2|9=82|35=A|34=1|49=UAT_EDP_7|52=20231016-10:41:41.000|56=FSX_UAT_EDP|98=0|108=300|141=Y|10=111|
20231016-10:42:41.000 : 8=FIX.4.2|9=82|35=A|34=1|49=UAT_EDP_7|52=20231016-10:42:41.000|56=FSX_UAT_EDP|98=0|108=300|141=Y|10=112|
20231016-10:43:42.000 : 8=FIX.4.2|9=82|35=A|34=1|49=UAT_EDP_7|52=20231016-10:43:42.000|56=FSX_UAT_EDP|98=0|108=300|141=Y|10=114|
20231016-10:44:41.000 : 8=FIX.4.2|9=82|35=A|34=1|49=UAT_EDP_7|52=20231016-10:44:41.000|56=FSX_UAT_EDP|98=0|108=300|141=Y|10=114|
20231016-10:45:41.000 : 8=FIX.4.2|9=82|35=A|34=1|49=UAT_EDP_7|52=20231016-10:45:41.000|56=FSX_UAT_EDP|98=0|108=300|141=Y|10=115|
20231016-10:46:41.000 : 8=FIX.4.2|9=82|35=A|34=1|49=UAT_EDP_7|52=20231016-10:46:41.000|56=FSX_UAT_EDP|98=0|108=300|141=Y|10=116|
20231016-10:47:43.000 : 8=FIX.4.2|9=82|35=A|34=1|49=UAT_EDP_7|52=20231016-10:47:43.000|56=FSX_UAT_EDP|98=0|108=300|141=Y|10=119|
20231016-10:48:41.000 : 8=FIX.4.2|9=82|35=A|34=1|49=UAT_EDP_7|52=20231016-10:48:41.000|56=FSX_UAT_EDP|98=0|108=300|141=Y|10=118|
20231016-10:49:41.000 : 8=FIX.4.2|9=82|35=A|34=1|49=UAT_EDP_7|52=20231016-10:49:41.000|56=FSX_UAT_EDP|98=0|108=300|141=Y|10=119|
20231016-10:50:41.000 : 8=FIX.4.2|9=82|35=A|34=1|49=UAT_EDP_7|52=20231016-10:50:41.000|56=FSX_UAT_EDP|98=0|108=300|141=Y|10=111|
20231016-10:51:43.000 : 8=FIX.4.2|9=82|35=A|34=1|49=UAT_EDP_7|52=20231016-10:51:43.000|56=FSX_UAT_EDP|98=0|108=300|141=Y|10=114|
20231016-10:52:41.000 : 8=FIX.4.2|9=82|35=A|34=1|49=UAT_EDP_7|52=20231016-10:52:41.000|56=FSX_UAT_EDP|98=0|108=300|141=Y|10=113|
20231016-10:53:41.000 : 8=FIX.4.2|9=82|35=A|34=1|49=UAT_EDP_7|52=20231016-10:53:41.000|56=FSX_UAT_EDP|98=0|108=300|141=Y|10=114|
20231016-10:54:41.000 : 8=FIX.4.2|9=82|35=A|34=1|49=UAT_EDP_7|52=20231016-10:54:41.000|56=FSX_UAT_EDP|98=0|108=300|141=Y|10=115|
20231016-10:55:41.000 : 8=FIX.4.2|9=82|35=A|34=1|49=UAT_EDP_7|52=20231016-10:55:41.000|56=FSX_UAT_EDP|98=0|108=300|141=Y|10=116|
20231016-10:56:41.000 : 8=FIX.4.2|9=82|35=A|34=1|49=UAT_EDP_7|52=20231016-10:56:41.000|56=FSX_UAT_EDP|98=0|108=300|141=Y|10=117|
20231016-10:57:41.000 : 8=FIX.4.2|9=82|35=A|34=1|49=UAT_EDP_7|52=20231016-10:57:41.000|56=FSX_UAT_EDP|98=0|108=300|141=Y|10=118|
20231016-10:58:41.000 : 8=FIX.4.2|9=82|35=A|34=1|49=UAT_EDP_7|52=20231016-10:58:41.000|56=FSX_UAT_EDP|98=0|108=300|141=Y|10=119|
20231016-10:59:41.000 : 8=FIX.4.2|9=82|35=A|34=1|49=UAT_EDP_7|52=20231016-10:59:41.000|56=FSX_UAT_EDP|98=0|108=300|141=Y|10=120|
20231016-11:00:41.000 : 8=FIX.4.2|9=82|35=A|34=1|49=UAT_EDP_7|52=20231016-11:00:41.000|56=FSX_UAT_EDP|98=0|108=300|141=Y|10=107|
20231016-11:01:41.000 : 8=FIX.4.2|9=82|35=A|34=1|49=UAT_EDP_7|52=20231016-11:01:41.000|56=FSX_UAT_EDP|98=0|108=300|141=Y|10=108|
20231016-11:02:41.000 : 8=FIX.4.2|9=82|35=A|34=1|49=UAT_EDP_7|52=20231016-11:02:41.000|56=FSX_UAT_EDP|98=0|108=300|141=Y|10=109|
20231016-11:03:41.000 : 8=FIX.4.2|9=82|35=A|34=1|49=UAT_EDP_7|52=20231016-11:03:41.000|56=FSX_UAT_EDP|98=0|108=300|141=Y|10=110|
20231016-11:04:41.000 : 8=FIX.4.2|9=82|35=A|34=1|49=UAT_EDP_7|52=20231016-11:04:41.000|56=FSX_UAT_EDP|98=0|108=300|141=Y|10=111|
20231016-11:05:41.000 : 8=FIX.4.2|9=82|35=A|34=1|49=UAT_EDP_7|52=20231016-11:05:41.000|56=FSX_UAT_EDP|98=0|108=300|141=Y|10=112|
20231016-11:06:41.000 : 8=FIX.4.2|9=82|35=A|34=1|49=UAT_EDP_7|52=20231016-11:06:41.000|56=FSX_UAT_EDP|98=0|108=300|141=Y|10=113|
20231016-11:07:41.000 : 8=FIX.4.2|9=82|35=A|34=1|49=UAT_EDP_7|52=20231016-11:07:41.000|56=FSX_UAT_EDP|98=0|108=300|141=Y|10=114|
20231016-11:08:41.000 : 8=FIX.4.2|9=82|35=A|34=1|49=UAT_EDP_7|52=20231016-11:08:41.000|56=FSX_UAT_EDP|98=0|108=300|141=Y|10=115|
20231016-11:09:41.000 : 8=FIX.4.2|9=82|35=A|34=1|49=UAT_EDP_7|52=20231016-11:09:41.000|56=FSX_UAT_EDP|98=0|108=300|141=Y|10=116|
20231016-11:10:41.000 : 8=FIX.4.2|9=82|35=A|34=1|49=UAT_EDP_7|52=20231016-11:10:41.000|56=FSX_UAT_EDP|98=0|108=300|141=Y|10=108|
20231016-11:11:41.000 : 8=FIX.4.2|9=82|35=A|34=1|49=UAT_EDP_7|52=20231016-11:11:41.000|56=FSX_UAT_EDP|98=0|108=300|141=Y|10=109|
20231016-11:12:41.000 : 8=FIX.4.2|9=82|35=A|34=1|49=UAT_EDP_7|52=20231016-11:12:41.000|56=FSX_UAT_EDP|98=0|108=300|141=Y|10=110|
20231016-11:13:41.000 : 8=FIX.4.2|9=82|35=A|34=1|49=UAT_EDP_7|52=20231016-11:13:41.000|56=FSX_UAT_EDP|98=0|108=300|141=Y|10=111|
20231016-11:14:41.000 : 8=FIX.4.2|9=82|35=A|34=1|49=UAT_EDP_7|52=20231016-11:14:41.000|56=FSX_UAT_EDP|98=0|108=300|141=Y|10=112|
20231016-11:15:41.000 : 8=FIX.4.2|9=82|35=A|34=1|49=UAT_EDP_7|52=20231016-11:15:41.000|56=FSX_UAT_EDP|98=0|108=300|141=Y|10=113|
20231016-11:16:41.000 : 8=FIX.4.2|9=82|35=A|34=1|49=UAT_EDP_7|52=20231016-11:16:41.000|56=FSX_UAT_EDP|98=0|108=300|141=Y|10=114|
20231016-11:17:41.000 : 8=FIX.4.2|9=82|35=A|34=1|49=UAT_EDP_7|52=20231016-11:17:41.000|56=FSX_UAT_EDP|98=0|108=300|141=Y|10=115|
20231016-11:18:41.000 : 8=FIX.4.2|9=82|35=A|34=1|49=UAT_EDP_7|52=20231016-11:18:41.000|56=FSX_UAT_EDP|98=0|108=300|141=Y|10=116|
20231016-11:19:41.000 : 8=FIX.4.2|9=82|35=A|34=1|49=UAT_EDP_7|52=20231016-11:19:41.000|56=FSX_UAT_EDP|98=0|108=300|141=Y|10=117|
