20231002-03:39:10.000 : 8=FIX.4.2|9=83|35=A|34=1|49=RSIT_EDP_1|52=20231002-03:39:10.000|56=FSX_SIT_EDP|98=0|108=300|141=Y|10=200|
20231002-03:39:10.000 : 8=FIX.4.2|9=83|35=A|34=1|49=FSX_SIT_EDP|52=20231002-03:39:10.994|56=RSIT_EDP_1|98=0|108=300|141=Y|10=222|
20231002-03:39:12.000 : 8=FIX.4.2|9=162|35=D|34=2|49=RSIT_EDP_1|52=20231002-03:39:12.000|56=FSX_SIT_EDP|1=RSIT_EDP_ACCOUNT_1|11=16962179528431000001|38=100|40=1|54=1|55=1332|60=20231002-03:39:12.743831|10=203|
20231002-03:39:12.000 : 8=FIX.4.2|9=162|35=D|34=3|49=RSIT_EDP_1|52=20231002-03:39:12.000|56=FSX_SIT_EDP|1=RSIT_EDP_ACCOUNT_1|11=16962179521385000002|38=100|40=1|54=1|55=1333|60=20231002-03:39:12.751873|10=212|
20231002-03:39:12.000 : 8=FIX.4.2|9=162|35=D|34=4|49=RSIT_EDP_1|52=20231002-03:39:12.000|56=FSX_SIT_EDP|1=RSIT_EDP_ACCOUNT_1|11=16962179526103000003|38=100|40=1|54=1|55=1414|60=20231002-03:39:12.757043|10=202|
20231002-03:39:12.000 : 8=FIX.4.2|9=162|35=D|34=5|49=RSIT_EDP_1|52=20231002-03:39:12.000|56=FSX_SIT_EDP|1=RSIT_EDP_ACCOUNT_1|11=16962179527831000004|38=100|40=1|54=1|55=1417|60=20231002-03:39:12.762249|10=220|
20231002-03:39:12.000 : 8=FIX.4.2|9=162|35=D|34=6|49=RSIT_EDP_1|52=20231002-03:39:12.000|56=FSX_SIT_EDP|1=RSIT_EDP_ACCOUNT_1|11=16962179525437000005|38=100|40=1|54=1|55=1605|60=20231002-03:39:12.767198|10=229|
20231002-03:39:12.000 : 8=FIX.4.2|9=162|35=D|34=7|49=RSIT_EDP_1|52=20231002-03:39:12.000|56=FSX_SIT_EDP|1=RSIT_EDP_ACCOUNT_1|11=16962179520483000006|38=100|40=1|54=1|55=1721|60=20231002-03:39:12.772261|10=213|
20231002-03:39:12.000 : 8=FIX.4.2|9=162|35=D|34=8|49=RSIT_EDP_1|52=20231002-03:39:12.000|56=FSX_SIT_EDP|1=RSIT_EDP_ACCOUNT_1|11=16962179521705000007|38=100|40=1|54=1|55=1801|60=20231002-03:39:12.777403|10=215|
20231002-03:39:12.000 : 8=FIX.4.2|9=162|35=D|34=9|49=RSIT_EDP_1|52=20231002-03:39:12.000|56=FSX_SIT_EDP|1=RSIT_EDP_ACCOUNT_1|11=16962179521835000008|38=100|40=1|54=1|55=1802|60=20231002-03:39:12.782419|10=225|
20231002-03:39:12.000 : 8=FIX.4.2|9=163|35=D|34=10|49=RSIT_EDP_1|52=20231002-03:39:12.000|56=FSX_SIT_EDP|1=RSIT_EDP_ACCOUNT_1|11=16962179524718000009|38=100|40=1|54=1|55=1803|60=20231002-03:39:12.787601|10=013|
20231002-03:39:12.000 : 8=FIX.4.2|9=163|35=D|34=11|49=RSIT_EDP_1|52=20231002-03:39:12.000|56=FSX_SIT_EDP|1=RSIT_EDP_ACCOUNT_1|11=16962179527052000010|38=100|40=1|54=1|55=1808|60=20231002-03:39:12.792655|10=010|
20231002-03:39:12.000 : 8=FIX.4.2|9=163|35=D|34=12|49=RSIT_EDP_1|52=20231002-03:39:12.000|56=FSX_SIT_EDP|1=RSIT_EDP_ACCOUNT_1|11=16962179525468000011|38=100|40=1|54=1|55=1812|60=20231002-03:39:12.797664|10=021|
20231002-03:39:12.000 : 8=FIX.4.2|9=163|35=D|34=13|49=RSIT_EDP_1|52=20231002-03:39:12.000|56=FSX_SIT_EDP|1=RSIT_EDP_ACCOUNT_1|11=16962179524562000012|38=100|40=1|54=1|55=1820|60=20231002-03:39:12.802620|10=251|
20231002-03:39:12.000 : 8=FIX.4.2|9=163|35=D|34=14|49=RSIT_EDP_1|52=20231002-03:39:12.000|56=FSX_SIT_EDP|1=RSIT_EDP_ACCOUNT_1|11=16962179526283000013|38=100|40=1|54=1|55=1860|60=20231002-03:39:12.807012|10=003|
20231002-03:39:12.000 : 8=FIX.4.2|9=163|35=D|34=15|49=RSIT_EDP_1|52=20231002-03:39:12.000|56=FSX_SIT_EDP|1=RSIT_EDP_ACCOUNT_1|11=16962179525238000014|38=100|40=1|54=1|55=1878|60=20231002-03:39:12.811814|10=018|
20231002-03:39:12.000 : 8=FIX.4.2|9=163|35=D|34=16|49=RSIT_EDP_1|52=20231002-03:39:12.000|56=FSX_SIT_EDP|1=RSIT_EDP_ACCOUNT_1|11=16962179521627000015|38=100|40=1|54=1|55=1893|60=20231002-03:39:12.816664|10=023|
20231002-03:39:12.000 : 8=FIX.4.2|9=163|35=D|34=17|49=RSIT_EDP_1|52=20231002-03:39:12.000|56=FSX_SIT_EDP|1=RSIT_EDP_ACCOUNT_1|11=16962179523860000016|38=100|40=1|54=1|55=1911|60=20231002-03:39:12.821709|10=013|
20231002-03:39:12.000 : 8=FIX.4.2|9=163|35=D|34=18|49=RSIT_EDP_1|52=20231002-03:39:12.000|56=FSX_SIT_EDP|1=RSIT_EDP_ACCOUNT_1|11=16962179527631000017|38=100|40=1|54=1|55=1944|60=20231002-03:39:12.826699|10=034|
20231002-03:39:12.000 : 8=FIX.4.2|9=163|35=D|34=19|49=RSIT_EDP_1|52=20231002-03:39:12.000|56=FSX_SIT_EDP|1=RSIT_EDP_ACCOUNT_1|11=16962179527546000018|38=100|40=1|54=1|55=1951|60=20231002-03:39:12.831662|10=025|
20231002-03:39:12.000 : 8=FIX.4.2|9=163|35=D|34=20|49=RSIT_EDP_1|52=20231002-03:39:12.000|56=FSX_SIT_EDP|1=RSIT_EDP_ACCOUNT_1|11=16962179523216000019|38=100|40=1|54=1|55=1959|60=20231002-03:39:12.836359|10=024|
20231002-03:39:12.000 : 8=FIX.4.2|9=163|35=D|34=21|49=RSIT_EDP_1|52=20231002-03:39:12.000|56=FSX_SIT_EDP|1=RSIT_EDP_ACCOUNT_1|11=16962179525261000020|38=100|40=1|54=1|55=1963|60=20231002-03:39:12.841174|10=005|
20231002-03:39:12.000 : 8=FIX.4.2|9=163|35=D|34=22|49=RSIT_EDP_1|52=20231002-03:39:12.000|56=FSX_SIT_EDP|1=RSIT_EDP_ACCOUNT_1|11=16962179525031000021|38=100|40=1|54=1|55=2002|60=20231002-03:39:12.845433|10=245|
20231002-03:39:12.000 : 8=FIX.4.2|9=163|35=D|34=23|49=RSIT_EDP_1|52=20231002-03:39:12.000|56=FSX_SIT_EDP|1=RSIT_EDP_ACCOUNT_1|11=16962179526530000022|38=100|40=1|54=1|55=2127|60=20231002-03:39:12.850466|10=006|
20231002-03:39:12.000 : 8=FIX.4.2|9=163|35=D|34=24|49=RSIT_EDP_1|52=20231002-03:39:12.000|56=FSX_SIT_EDP|1=RSIT_EDP_ACCOUNT_1|11=16962179523420000023|38=100|40=1|54=1|55=2175|60=20231002-03:39:12.855664|10=011|
20231002-03:39:12.000 : 8=FIX.4.2|9=163|35=D|34=25|49=RSIT_EDP_1|52=20231002-03:39:12.000|56=FSX_SIT_EDP|1=RSIT_EDP_ACCOUNT_1|11=16962179527618000024|38=100|40=1|54=1|55=2181|60=20231002-03:39:12.860352|10=013|
20231002-03:39:12.000 : 8=FIX.4.2|9=163|35=D|34=26|49=RSIT_EDP_1|52=20231002-03:39:12.000|56=FSX_SIT_EDP|1=RSIT_EDP_ACCOUNT_1|11=16962179527465000025|38=100|40=1|54=1|55=2201|60=20231002-03:39:12.865314|10=011|
20231002-03:39:12.000 : 8=FIX.4.2|9=163|35=D|34=27|49=RSIT_EDP_1|52=20231002-03:39:12.000|56=FSX_SIT_EDP|1=RSIT_EDP_ACCOUNT_1|11=16962179526413000026|38=100|40=1|54=1|55=2206|60=20231002-03:39:12.870432|10=007|
20231002-03:39:12.000 : 8=FIX.4.2|9=163|35=D|34=28|49=RSIT_EDP_1|52=20231002-03:39:12.000|56=FSX_SIT_EDP|1=RSIT_EDP_ACCOUNT_1|11=16962179524732000027|38=100|40=1|54=1|55=2212|60=20231002-03:39:12.875300|10=007|
20231002-03:39:12.000 : 8=FIX.4.2|9=163|35=D|34=29|49=RSIT_EDP_1|52=20231002-03:39:12.000|56=FSX_SIT_EDP|1=RSIT_EDP_ACCOUNT_1|11=16962179525241000028|38=100|40=1|54=1|55=2229|60=20231002-03:39:12.880306|10=015|
20231002-03:39:12.000 : 8=FIX.4.2|9=163|35=D|34=30|49=RSIT_EDP_1|52=20231002-03:39:12.000|56=FSX_SIT_EDP|1=RSIT_EDP_ACCOUNT_1|11=16962179522461000029|38=100|40=1|54=1|55=2264|60=20231002-03:39:12.885258|10=019|
20231002-03:39:12.000 : 8=FIX.4.2|9=163|35=D|34=31|49=RSIT_EDP_1|52=20231002-03:39:12.000|56=FSX_SIT_EDP|1=RSIT_EDP_ACCOUNT_1|11=16962179525706000030|38=100|40=1|54=1|55=2267|60=20231002-03:39:12.890071|10=009|
20231002-03:39:12.000 : 8=FIX.4.2|9=163|35=D|34=32|49=RSIT_EDP_1|52=20231002-03:39:12.000|56=FSX_SIT_EDP|1=RSIT_EDP_ACCOUNT_1|11=16962179522548000031|38=100|40=1|54=1|55=2269|60=20231002-03:39:12.894910|10=020|
20231002-03:39:12.000 : 8=FIX.4.2|9=163|35=D|34=33|49=RSIT_EDP_1|52=20231002-03:39:12.000|56=FSX_SIT_EDP|1=RSIT_EDP_ACCOUNT_1|11=16962179523102000032|38=100|40=1|54=1|55=2282|60=20231002-03:39:12.899810|10=008|
20231002-03:39:12.000 : 8=FIX.4.2|9=163|35=D|34=34|49=RSIT_EDP_1|52=20231002-03:39:12.000|56=FSX_SIT_EDP|1=RSIT_EDP_ACCOUNT_1|11=16962179527840000033|38=100|40=1|54=1|55=2331|60=20231002-03:39:12.904790|10=012|
20231002-03:39:12.000 : 8=FIX.4.2|9=163|35=D|34=35|49=RSIT_EDP_1|52=20231002-03:39:12.000|56=FSX_SIT_EDP|1=RSIT_EDP_ACCOUNT_1|11=16962179522075000034|38=100|40=1|54=1|55=2371|60=20231002-03:39:12.909807|10=017|
20231002-03:39:12.000 : 8=FIX.4.2|9=163|35=D|34=36|49=RSIT_EDP_1|52=20231002-03:39:12.000|56=FSX_SIT_EDP|1=RSIT_EDP_ACCOUNT_1|11=16962179527265000035|38=100|40=1|54=1|55=2412|60=20231002-03:39:12.914646|10=018|
20231002-03:39:12.000 : 8=FIX.4.2|9=345|35=8|34=2|49=FSX_SIT_EDP|52=20231002-03:39:12.963|56=RSIT_EDP_1|1=RSIT_EDP_ACCOUNT_1|6=0|11=16962179528431000001|14=0|17=1708688055384117248|20=0|31=0|32=0|37=1708688055362641920|38=100|39=0|40=1|47=P|54=1|55=1332|59=3|60=20231002-03:39:12.962|76=EDP|109=101|110=0|150=0|151=100|544=1|8060=3|8164=EDP|8169=20231002-03:39:12.962980|8174=0|8214=0|10=221|
20231002-03:39:12.000 : 8=FIX.4.2|9=457|35=8|34=3|49=FSX_SIT_EDP|52=20231002-03:39:12.964|56=RSIT_EDP_1|1=RSIT_EDP_ACCOUNT_1|6=0|11=16962179528431000001|14=0|17=1708688055384117249|20=0|37=1708688055362641920|38=100|39=4|40=1|41=16962179528431000001|47=P|54=1|55=1332|58=ERROR_00010051,Order rejected due to IoC expired.|59=3|60=20231002-03:39:12.964|76=EDP|109=101|110=0|150=4|151=100|544=1|8031=669|8032=669|8033=669|8051=03:39:12.902|8060=3|8164=EDP|8169=20231002-03:39:12.964102|8174=0|8214=0|10=208|
20231002-03:39:12.000 : 8=FIX.4.2|9=345|35=8|34=4|49=FSX_SIT_EDP|52=20231002-03:39:12.965|56=RSIT_EDP_1|1=RSIT_EDP_ACCOUNT_1|6=0|11=16962179521385000002|14=0|17=1708688055396700160|20=0|31=0|32=0|37=1708688055375224832|38=100|39=0|40=1|47=P|54=1|55=1333|59=3|60=20231002-03:39:12.965|76=EDP|109=101|110=0|150=0|151=100|544=1|8060=3|8164=EDP|8169=20231002-03:39:12.965775|8174=0|8214=0|10=233|
20231002-03:39:12.000 : 8=FIX.4.2|9=163|35=D|34=37|49=RSIT_EDP_1|52=20231002-03:39:12.000|56=FSX_SIT_EDP|1=RSIT_EDP_ACCOUNT_1|11=16962179523156000036|38=100|40=1|54=1|55=2427|60=20231002-03:39:12.919439|10=026|
20231002-03:39:12.000 : 8=FIX.4.2|9=163|35=D|34=38|49=RSIT_EDP_1|52=20231002-03:39:12.000|56=FSX_SIT_EDP|1=RSIT_EDP_ACCOUNT_1|11=16962179520218000037|38=100|40=1|54=1|55=2432|60=20231002-03:39:12.924228|10=012|
20231002-03:39:12.000 : 8=FIX.4.2|9=163|35=D|34=39|49=RSIT_EDP_1|52=20231002-03:39:12.000|56=FSX_SIT_EDP|1=RSIT_EDP_ACCOUNT_1|11=16962179527615000038|38=100|40=1|54=1|55=2433|60=20231002-03:39:12.929070|10=023|
20231002-03:39:12.000 : 8=FIX.4.2|9=163|35=D|34=40|49=RSIT_EDP_1|52=20231002-03:39:12.000|56=FSX_SIT_EDP|1=RSIT_EDP_ACCOUNT_1|11=16962179520236000039|38=100|40=1|54=1|55=2501|60=20231002-03:39:12.934003|10=252|
20231002-03:39:12.000 : 8=FIX.4.2|9=163|35=D|34=41|49=RSIT_EDP_1|52=20231002-03:39:12.000|56=FSX_SIT_EDP|1=RSIT_EDP_ACCOUNT_1|11=16962179526245000040|38=100|40=1|54=1|55=2531|60=20231002-03:39:12.939148|10=013|
20231002-03:39:12.000 : 8=FIX.4.2|9=163|35=D|34=42|49=RSIT_EDP_1|52=20231002-03:39:12.000|56=FSX_SIT_EDP|1=RSIT_EDP_ACCOUNT_1|11=16962179522014000041|38=100|40=1|54=1|55=2579|60=20231002-03:39:12.944296|10=017|
20231002-03:39:12.000 : 8=FIX.4.2|9=163|35=D|34=43|49=RSIT_EDP_1|52=20231002-03:39:12.000|56=FSX_SIT_EDP|1=RSIT_EDP_ACCOUNT_1|11=16962179521487000042|38=100|40=1|54=1|55=2587|60=20231002-03:39:12.949494|10=036|
20231002-03:39:12.000 : 8=FIX.4.2|9=163|35=D|34=44|49=RSIT_EDP_1|52=20231002-03:39:12.000|56=FSX_SIT_EDP|1=RSIT_EDP_ACCOUNT_1|11=16962179528764000043|38=100|40=1|54=1|55=2593|60=20231002-03:39:12.954098|10=036|
20231002-03:39:12.000 : 8=FIX.4.2|9=163|35=D|34=45|49=RSIT_EDP_1|52=20231002-03:39:12.000|56=FSX_SIT_EDP|1=RSIT_EDP_ACCOUNT_1|11=16962179527618000044|38=100|40=1|54=1|55=2607|60=20231002-03:39:12.959160|10=026|
20231002-03:39:12.000 : 8=FIX.4.2|9=163|35=D|34=46|49=RSIT_EDP_1|52=20231002-03:39:12.000|56=FSX_SIT_EDP|1=RSIT_EDP_ACCOUNT_1|11=16962179520862000045|38=100|40=1|54=1|55=2651|60=20231002-03:39:12.964238|10=023|
20231002-03:39:12.000 : 8=FIX.4.2|9=163|35=D|34=47|49=RSIT_EDP_1|52=20231002-03:39:12.000|56=FSX_SIT_EDP|1=RSIT_EDP_ACCOUNT_1|11=16962179526328000046|38=100|40=1|54=1|55=2670|60=20231002-03:39:12.969128|10=032|
20231002-03:39:12.000 : 8=FIX.4.2|9=163|35=D|34=48|49=RSIT_EDP_1|52=20231002-03:39:12.000|56=FSX_SIT_EDP|1=RSIT_EDP_ACCOUNT_1|11=16962179522843000047|38=100|40=1|54=1|55=2768|60=20231002-03:39:12.974256|10=038|
20231002-03:39:12.000 : 8=FIX.4.2|9=163|35=D|34=49|49=RSIT_EDP_1|52=20231002-03:39:12.000|56=FSX_SIT_EDP|1=RSIT_EDP_ACCOUNT_1|11=16962179521423000048|38=100|40=1|54=1|55=2784|60=20231002-03:39:12.979068|10=037|
20231002-03:39:12.000 : 8=FIX.4.2|9=163|35=D|34=50|49=RSIT_EDP_1|52=20231002-03:39:12.000|56=FSX_SIT_EDP|1=RSIT_EDP_ACCOUNT_1|11=16962179526182000049|38=100|40=1|54=1|55=2801|60=20231002-03:39:12.983816|10=023|
20231002-03:39:12.000 : 8=FIX.4.2|9=163|35=D|34=51|49=RSIT_EDP_1|52=20231002-03:39:12.000|56=FSX_SIT_EDP|1=RSIT_EDP_ACCOUNT_1|11=16962179525013000050|38=100|40=1|54=1|55=2809|60=20231002-03:39:12.988506|10=017|
20231002-03:39:12.000 : 8=FIX.4.2|9=163|35=D|34=52|49=RSIT_EDP_1|52=20231002-03:39:12.000|56=FSX_SIT_EDP|1=RSIT_EDP_ACCOUNT_1|11=16962179524160000051|38=100|40=1|54=1|55=2810|60=20231002-03:39:12.993169|10=014|
20231002-03:39:12.000 : 8=FIX.4.2|9=163|35=D|34=53|49=RSIT_EDP_1|52=20231002-03:39:12.000|56=FSX_SIT_EDP|1=RSIT_EDP_ACCOUNT_1|11=16962179527821000052|38=100|40=1|54=1|55=2811|60=20231002-03:39:12.997843|10=027|
20231002-03:39:13.000 : 8=FIX.4.2|9=163|35=D|34=54|49=RSIT_EDP_1|52=20231002-03:39:13.000|56=FSX_SIT_EDP|1=RSIT_EDP_ACCOUNT_1|11=16962179532658000053|38=100|40=1|54=1|55=2815|60=20231002-03:39:13.002190|10=011|
20231002-03:39:13.000 : 8=FIX.4.2|9=163|35=D|34=55|49=RSIT_EDP_1|52=20231002-03:39:13.000|56=FSX_SIT_EDP|1=RSIT_EDP_ACCOUNT_1|11=16962179530486000054|38=100|40=1|54=1|55=2871|60=20231002-03:39:13.007266|10=021|
20231002-03:39:13.000 : 8=FIX.4.2|9=163|35=D|34=56|49=RSIT_EDP_1|52=20231002-03:39:13.000|56=FSX_SIT_EDP|1=RSIT_EDP_ACCOUNT_1|11=16962179533058000055|38=100|40=1|54=1|55=2875|60=20231002-03:39:13.012266|10=021|
20231002-03:39:13.000 : 8=FIX.4.2|9=163|35=D|34=57|49=RSIT_EDP_1|52=20231002-03:39:13.000|56=FSX_SIT_EDP|1=RSIT_EDP_ACCOUNT_1|11=16962179538027000056|38=100|40=1|54=1|55=2897|60=20231002-03:39:13.017167|10=033|
20231002-03:39:13.000 : 8=FIX.4.2|9=163|35=D|34=58|49=RSIT_EDP_1|52=20231002-03:39:13.000|56=FSX_SIT_EDP|1=RSIT_EDP_ACCOUNT_1|11=16962179538512000057|38=100|40=1|54=1|55=3003|60=20231002-03:39:13.022117|10=005|
20231002-03:39:13.000 : 8=FIX.4.2|9=163|35=D|34=59|49=RSIT_EDP_1|52=20231002-03:39:13.000|56=FSX_SIT_EDP|1=RSIT_EDP_ACCOUNT_1|11=16962179530723000058|38=100|40=1|54=1|55=3038|60=20231002-03:39:13.027080|10=015|
20231002-03:39:13.000 : 8=FIX.4.2|9=163|35=D|34=60|49=RSIT_EDP_1|52=20231002-03:39:13.000|56=FSX_SIT_EDP|1=RSIT_EDP_ACCOUNT_1|11=16962179537326000059|38=100|40=1|54=1|55=3064|60=20231002-03:39:13.032341|10=009|
20231002-03:39:13.000 : 8=FIX.4.2|9=163|35=D|34=61|49=RSIT_EDP_1|52=20231002-03:39:13.000|56=FSX_SIT_EDP|1=RSIT_EDP_ACCOUNT_1|11=16962179532657000060|38=100|40=1|54=1|55=3086|60=20231002-03:39:13.037373|10=018|
20231002-03:39:13.000 : 8=FIX.4.2|9=163|35=D|34=62|49=RSIT_EDP_1|52=20231002-03:39:13.000|56=FSX_SIT_EDP|1=RSIT_EDP_ACCOUNT_1|11=16962179530547000061|38=100|40=1|54=1|55=3088|60=20231002-03:39:13.041666|10=018|
20231002-03:39:13.000 : 8=FIX.4.2|9=163|35=D|34=63|49=RSIT_EDP_1|52=20231002-03:39:13.000|56=FSX_SIT_EDP|1=RSIT_EDP_ACCOUNT_1|11=16962179534063000062|38=100|40=1|54=1|55=3092|60=20231002-03:39:13.047028|10=010|
20231002-03:39:13.000 : 8=FIX.4.2|9=163|35=D|34=64|49=RSIT_EDP_1|52=20231002-03:39:13.000|56=FSX_SIT_EDP|1=RSIT_EDP_ACCOUNT_1|11=16962179534687000063|38=100|40=1|54=1|55=3099|60=20231002-03:39:13.051965|10=036|
20231002-03:39:13.000 : 8=FIX.4.2|9=163|35=D|34=65|49=RSIT_EDP_1|52=20231002-03:39:13.000|56=FSX_SIT_EDP|1=RSIT_EDP_ACCOUNT_1|11=16962179537384000064|38=100|40=1|54=1|55=3101|60=20231002-03:39:13.056803|10=015|
20231002-03:39:13.000 : 8=FIX.4.2|9=163|35=D|34=66|49=RSIT_EDP_1|52=20231002-03:39:13.000|56=FSX_SIT_EDP|1=RSIT_EDP_ACCOUNT_1|11=16962179530873000065|38=100|40=1|54=1|55=3105|60=20231002-03:39:13.061375|10=017|
20231002-03:39:13.000 : 8=FIX.4.2|9=163|35=D|34=67|49=RSIT_EDP_1|52=20231002-03:39:13.000|56=FSX_SIT_EDP|1=RSIT_EDP_ACCOUNT_1|11=16962179531836000066|38=100|40=1|54=1|55=3107|60=20231002-03:39:13.066201|10=014|
20231002-03:39:13.000 : 8=FIX.4.2|9=163|35=D|34=68|49=RSIT_EDP_1|52=20231002-03:39:13.000|56=FSX_SIT_EDP|1=RSIT_EDP_ACCOUNT_1|11=16962179533714000067|38=100|40=1|54=1|55=3116|60=20231002-03:39:13.070905|10=019|
20231002-03:39:13.000 : 8=FIX.4.2|9=163|35=D|34=69|49=RSIT_EDP_1|52=20231002-03:39:13.000|56=FSX_SIT_EDP|1=RSIT_EDP_ACCOUNT_1|11=16962179537052000068|38=100|40=1|54=1|55=3141|60=20231002-03:39:13.076087|10=025|
20231002-03:39:13.000 : 8=FIX.4.2|9=163|35=D|34=70|49=RSIT_EDP_1|52=20231002-03:39:13.000|56=FSX_SIT_EDP|1=RSIT_EDP_ACCOUNT_1|11=16962179535362000069|38=100|40=1|54=1|55=3197|60=20231002-03:39:13.081014|10=017|
20231002-03:39:13.000 : 8=FIX.4.2|9=163|35=D|34=71|49=RSIT_EDP_1|52=20231002-03:39:13.000|56=FSX_SIT_EDP|1=RSIT_EDP_ACCOUNT_1|11=16962179533104000070|38=100|40=1|54=1|55=3231|60=20231002-03:39:13.085844|10=006|
20231002-03:39:13.000 : 8=FIX.4.2|9=163|35=D|34=72|49=RSIT_EDP_1|52=20231002-03:39:13.000|56=FSX_SIT_EDP|1=RSIT_EDP_ACCOUNT_1|11=16962179532735000071|38=100|40=1|54=1|55=3288|60=20231002-03:39:13.090694|10=028|
20231002-03:39:13.000 : 8=FIX.4.2|9=163|35=D|34=73|49=RSIT_EDP_1|52=20231002-03:39:13.000|56=FSX_SIT_EDP|1=RSIT_EDP_ACCOUNT_1|11=16962179533501000072|38=100|40=1|54=1|55=3289|60=20231002-03:39:13.095701|10=017|
20231002-03:39:13.000 : 8=FIX.4.2|9=163|35=D|34=74|49=RSIT_EDP_1|52=20231002-03:39:13.000|56=FSX_SIT_EDP|1=RSIT_EDP_ACCOUNT_1|11=16962179533410000073|38=100|40=1|54=1|55=3291|60=20231002-03:39:13.100709|10=006|
20231002-03:39:13.000 : 8=FIX.4.2|9=163|35=D|34=75|49=RSIT_EDP_1|52=20231002-03:39:13.000|56=FSX_SIT_EDP|1=RSIT_EDP_ACCOUNT_1|11=16962179535103000074|38=100|40=1|54=1|55=3349|60=20231002-03:39:13.104881|10=018|
20231002-03:39:13.000 : 8=FIX.4.2|9=163|35=D|34=76|49=RSIT_EDP_1|52=20231002-03:39:13.000|56=FSX_SIT_EDP|1=RSIT_EDP_ACCOUNT_1|11=16962179536705000075|38=100|40=1|54=1|55=3360|60=20231002-03:39:13.109618|10=025|
20231002-03:39:13.000 : 8=FIX.4.2|9=163|35=D|34=77|49=RSIT_EDP_1|52=20231002-03:39:13.000|56=FSX_SIT_EDP|1=RSIT_EDP_ACCOUNT_1|11=16962179537285000076|38=100|40=1|54=1|55=3391|60=20231002-03:39:13.114655|10=032|
20231002-03:39:13.000 : 8=FIX.4.2|9=163|35=D|34=78|49=RSIT_EDP_1|52=20231002-03:39:13.000|56=FSX_SIT_EDP|1=RSIT_EDP_ACCOUNT_1|11=16962179538250000077|38=100|40=1|54=1|55=3401|60=20231002-03:39:13.119608|10=022|
20231002-03:39:13.000 : 8=FIX.4.2|9=163|35=D|34=79|49=RSIT_EDP_1|52=20231002-03:39:13.000|56=FSX_SIT_EDP|1=RSIT_EDP_ACCOUNT_1|11=16962179537568000078|38=100|40=1|54=1|55=3405|60=20231002-03:39:13.124633|10=033|
20231002-03:39:13.000 : 8=FIX.4.2|9=163|35=D|34=80|49=RSIT_EDP_1|52=20231002-03:39:13.000|56=FSX_SIT_EDP|1=RSIT_EDP_ACCOUNT_1|11=16962179530714000079|38=100|40=1|54=1|55=3436|60=20231002-03:39:13.129909|10=027|
20231002-03:39:13.000 : 8=FIX.4.2|9=163|35=D|34=81|49=RSIT_EDP_1|52=20231002-03:39:13.000|56=FSX_SIT_EDP|1=RSIT_EDP_ACCOUNT_1|11=16962179538706000080|38=100|40=1|54=1|55=3549|60=20231002-03:39:13.135023|10=018|
20231002-03:39:13.000 : 8=FIX.4.2|9=163|35=D|34=82|49=RSIT_EDP_1|52=20231002-03:39:13.000|56=FSX_SIT_EDP|1=RSIT_EDP_ACCOUNT_1|11=16962179532071000081|38=100|40=1|54=1|55=3563|60=20231002-03:39:13.139987|10=028|
20231002-03:39:13.000 : 8=FIX.4.2|9=163|35=D|34=83|49=RSIT_EDP_1|52=20231002-03:39:13.000|56=FSX_SIT_EDP|1=RSIT_EDP_ACCOUNT_1|11=16962179538712000082|38=100|40=1|54=1|55=3591|60=20231002-03:39:13.144848|10=031|
20231002-03:39:13.000 : 8=FIX.4.2|9=163|35=D|34=84|49=RSIT_EDP_1|52=20231002-03:39:13.000|56=FSX_SIT_EDP|1=RSIT_EDP_ACCOUNT_1|11=16962179531465000083|38=100|40=1|54=1|55=3626|60=20231002-03:39:13.149862|10=031|
20231002-03:39:13.000 : 8=FIX.4.2|9=163|35=D|34=85|49=RSIT_EDP_1|52=20231002-03:39:13.000|56=FSX_SIT_EDP|1=RSIT_EDP_ACCOUNT_1|11=16962179530126000084|38=100|40=1|54=1|55=3635|60=20231002-03:39:13.154848|10=026|
20231002-03:39:13.000 : 8=FIX.4.2|9=163|35=D|34=86|49=RSIT_EDP_1|52=20231002-03:39:13.000|56=FSX_SIT_EDP|1=RSIT_EDP_ACCOUNT_1|11=16962179531027000085|38=100|40=1|54=1|55=3659|60=20231002-03:39:13.159693|10=038|
20231002-03:39:13.000 : 8=FIX.4.2|9=163|35=D|34=87|49=RSIT_EDP_1|52=20231002-03:39:13.000|56=FSX_SIT_EDP|1=RSIT_EDP_ACCOUNT_1|11=16962179537360000086|38=100|40=1|54=1|55=3697|60=20231002-03:39:13.164421|10=033|
20231002-03:39:13.000 : 8=FIX.4.2|9=163|35=D|34=88|49=RSIT_EDP_1|52=20231002-03:39:13.000|56=FSX_SIT_EDP|1=RSIT_EDP_ACCOUNT_1|11=16962179536204000087|38=100|40=1|54=1|55=3765|60=20231002-03:39:13.169204|10=031|
20231002-03:39:13.000 : 8=FIX.4.2|9=163|35=D|34=89|49=RSIT_EDP_1|52=20231002-03:39:13.000|56=FSX_SIT_EDP|1=RSIT_EDP_ACCOUNT_1|11=16962179531856000088|38=100|40=1|54=1|55=3769|60=20231002-03:39:13.174004|10=039|
20231002-03:39:13.000 : 8=FIX.4.2|9=163|35=D|34=90|49=RSIT_EDP_1|52=20231002-03:39:13.000|56=FSX_SIT_EDP|1=RSIT_EDP_ACCOUNT_1|11=16962179531726000089|38=100|40=1|54=1|55=3774|60=20231002-03:39:13.178778|10=046|
20231002-03:39:13.000 : 8=FIX.4.2|9=163|35=D|34=91|49=RSIT_EDP_1|52=20231002-03:39:13.000|56=FSX_SIT_EDP|1=RSIT_EDP_ACCOUNT_1|11=16962179536357000090|38=100|40=1|54=1|55=3861|60=20231002-03:39:13.183629|10=032|
20231002-03:39:13.000 : 8=FIX.4.2|9=163|35=D|34=92|49=RSIT_EDP_1|52=20231002-03:39:13.000|56=FSX_SIT_EDP|1=RSIT_EDP_ACCOUNT_1|11=16962179538623000091|38=100|40=1|54=1|55=3880|60=20231002-03:39:13.188270|10=030|
20231002-03:39:13.000 : 8=FIX.4.2|9=163|35=D|34=93|49=RSIT_EDP_1|52=20231002-03:39:13.000|56=FSX_SIT_EDP|1=RSIT_EDP_ACCOUNT_1|11=16962179530462000092|38=100|40=1|54=1|55=3923|60=20231002-03:39:13.193161|10=018|
20231002-03:39:13.000 : 8=FIX.4.2|9=163|35=D|34=94|49=RSIT_EDP_1|52=20231002-03:39:13.000|56=FSX_SIT_EDP|1=RSIT_EDP_ACCOUNT_1|11=16962179532603000093|38=100|40=1|54=1|55=3941|60=20231002-03:39:13.198003|10=019|
20231002-03:39:13.000 : 8=FIX.4.2|9=163|35=D|34=95|49=RSIT_EDP_1|52=20231002-03:39:13.000|56=FSX_SIT_EDP|1=RSIT_EDP_ACCOUNT_1|11=16962179531235000094|38=100|40=1|54=1|55=3994|60=20231002-03:39:13.202649|10=031|
20231002-03:39:13.000 : 8=FIX.4.2|9=163|35=D|34=96|49=RSIT_EDP_1|52=20231002-03:39:13.000|56=FSX_SIT_EDP|1=RSIT_EDP_ACCOUNT_1|11=16962179534380000095|38=100|40=1|54=1|55=4004|60=20231002-03:39:13.207338|10=020|
20231002-03:39:13.000 : 8=FIX.4.2|9=163|35=D|34=97|49=RSIT_EDP_1|52=20231002-03:39:13.000|56=FSX_SIT_EDP|1=RSIT_EDP_ACCOUNT_1|11=16962179531834000096|38=100|40=1|54=1|55=4005|60=20231002-03:39:13.212058|10=019|
20231002-03:39:13.000 : 8=FIX.4.2|9=163|35=D|34=98|49=RSIT_EDP_1|52=20231002-03:39:13.000|56=FSX_SIT_EDP|1=RSIT_EDP_ACCOUNT_1|11=16962179534678000097|38=100|40=1|54=1|55=4021|60=20231002-03:39:13.216755|10=036|
20231002-03:39:13.000 : 8=FIX.4.2|9=163|35=D|34=99|49=RSIT_EDP_1|52=20231002-03:39:13.000|56=FSX_SIT_EDP|1=RSIT_EDP_ACCOUNT_1|11=16962179537582000098|38=100|40=1|54=1|55=4042|60=20231002-03:39:13.221529|10=033|
20231002-03:39:13.000 : 8=FIX.4.2|9=164|35=D|34=100|49=RSIT_EDP_1|52=20231002-03:39:13.000|56=FSX_SIT_EDP|1=RSIT_EDP_ACCOUNT_1|11=16962179536132000099|38=100|40=1|54=1|55=4043|60=20231002-03:39:13.226270|10=055|
20231002-03:39:13.000 : 8=FIX.4.2|9=164|35=D|34=101|49=RSIT_EDP_1|52=20231002-03:39:13.000|56=FSX_SIT_EDP|1=RSIT_EDP_ACCOUNT_1|11=16962179531283000100|38=100|40=1|54=1|55=4045|60=20231002-03:39:13.230927|10=047|
20231002-03:39:13.000 : 8=FIX.4.2|9=164|35=D|34=102|49=RSIT_EDP_1|52=20231002-03:39:13.000|56=FSX_SIT_EDP|1=RSIT_EDP_ACCOUNT_1|11=16962179537460000101|38=100|40=1|54=1|55=4061|60=20231002-03:39:13.235581|10=051|
20231002-03:39:13.000 : 8=FIX.4.2|9=164|35=D|34=103|49=RSIT_EDP_1|52=20231002-03:39:13.000|56=FSX_SIT_EDP|1=RSIT_EDP_ACCOUNT_1|11=16962179537285000102|38=100|40=1|54=1|55=4062|60=20231002-03:39:13.240347|10=055|
20231002-03:39:13.000 : 8=FIX.4.2|9=164|35=D|34=104|49=RSIT_EDP_1|52=20231002-03:39:13.000|56=FSX_SIT_EDP|1=RSIT_EDP_ACCOUNT_1|11=16962179538506000103|38=100|40=1|54=1|55=4088|60=20231002-03:39:13.245100|10=054|
20231002-03:39:13.000 : 8=FIX.4.2|9=164|35=D|34=105|49=RSIT_EDP_1|52=20231002-03:39:13.000|56=FSX_SIT_EDP|1=RSIT_EDP_ACCOUNT_1|11=16962179538257000104|38=100|40=1|54=1|55=4091|60=20231002-03:39:13.249794|10=076|
20231002-03:39:13.000 : 8=FIX.4.2|9=164|35=D|34=106|49=RSIT_EDP_1|52=20231002-03:39:13.000|56=FSX_SIT_EDP|1=RSIT_EDP_ACCOUNT_1|11=16962179537684000105|38=100|40=1|54=1|55=4114|60=20231002-03:39:13.255047|10=065|
20231002-03:39:13.000 : 8=FIX.4.2|9=164|35=D|34=107|49=RSIT_EDP_1|52=20231002-03:39:13.000|56=FSX_SIT_EDP|1=RSIT_EDP_ACCOUNT_1|11=16962179538765000106|38=100|40=1|54=1|55=4118|60=20231002-03:39:13.260185|10=071|
20231002-03:39:13.000 : 8=FIX.4.2|9=164|35=D|34=108|49=RSIT_EDP_1|52=20231002-03:39:13.000|56=FSX_SIT_EDP|1=RSIT_EDP_ACCOUNT_1|11=16962179535370000107|38=100|40=1|54=1|55=4151|60=20231002-03:39:13.265047|10=061|
20231002-03:39:13.000 : 8=FIX.4.2|9=164|35=D|34=109|49=RSIT_EDP_1|52=20231002-03:39:13.000|56=FSX_SIT_EDP|1=RSIT_EDP_ACCOUNT_1|11=16962179536725000108|38=100|40=1|54=1|55=4182|60=20231002-03:39:13.269958|10=087|
20231002-03:39:13.000 : 8=FIX.4.2|9=164|35=D|34=110|49=RSIT_EDP_1|52=20231002-03:39:13.000|56=FSX_SIT_EDP|1=RSIT_EDP_ACCOUNT_1|11=16962179531032000109|38=100|40=1|54=1|55=4183|60=20231002-03:39:13.274907|10=057|
20231002-03:39:13.000 : 8=FIX.4.2|9=164|35=D|34=111|49=RSIT_EDP_1|52=20231002-03:39:13.000|56=FSX_SIT_EDP|1=RSIT_EDP_ACCOUNT_1|11=16962179532768000110|38=100|40=1|54=1|55=4185|60=20231002-03:39:13.279689|10=081|
20231002-03:39:13.000 : 8=FIX.4.2|9=164|35=D|34=112|49=RSIT_EDP_1|52=20231002-03:39:13.000|56=FSX_SIT_EDP|1=RSIT_EDP_ACCOUNT_1|11=16962179537438000111|38=100|40=1|54=1|55=4186|60=20231002-03:39:13.284612|10=065|
20231002-03:39:13.000 : 8=FIX.4.2|9=164|35=D|34=113|49=RSIT_EDP_1|52=20231002-03:39:13.000|56=FSX_SIT_EDP|1=RSIT_EDP_ACCOUNT_1|11=16962179535763000112|38=100|40=1|54=1|55=4202|60=20231002-03:39:13.289255|10=063|
20231002-03:39:13.000 : 8=FIX.4.2|9=164|35=D|34=114|49=RSIT_EDP_1|52=20231002-03:39:13.000|56=FSX_SIT_EDP|1=RSIT_EDP_ACCOUNT_1|11=16962179536721000113|38=100|40=1|54=1|55=4203|60=20231002-03:39:13.294037|10=055|
20231002-03:39:13.000 : 8=FIX.4.2|9=164|35=D|34=115|49=RSIT_EDP_1|52=20231002-03:39:13.000|56=FSX_SIT_EDP|1=RSIT_EDP_ACCOUNT_1|11=16962179530271000114|38=100|40=1|54=1|55=4204|60=20231002-03:39:13.298740|10=057|
20231002-03:39:13.000 : 8=FIX.4.2|9=164|35=D|34=116|49=RSIT_EDP_1|52=20231002-03:39:13.000|56=FSX_SIT_EDP|1=RSIT_EDP_ACCOUNT_1|11=16962179536574000115|38=100|40=1|54=1|55=4205|60=20231002-03:39:13.303339|10=063|
20231002-03:39:13.000 : 8=FIX.4.2|9=164|35=D|34=117|49=RSIT_EDP_1|52=20231002-03:39:13.000|56=FSX_SIT_EDP|1=RSIT_EDP_ACCOUNT_1|11=16962179533018000116|38=100|40=1|54=1|55=4206|60=20231002-03:39:13.307519|10=060|
20231002-03:39:13.000 : 8=FIX.4.2|9=164|35=D|34=118|49=RSIT_EDP_1|52=20231002-03:39:13.000|56=FSX_SIT_EDP|1=RSIT_EDP_ACCOUNT_1|11=16962179532710000117|38=100|40=1|54=1|55=4208|60=20231002-03:39:13.312132|10=049|
20231002-03:39:13.000 : 8=FIX.4.2|9=164|35=D|34=119|49=RSIT_EDP_1|52=20231002-03:39:13.000|56=FSX_SIT_EDP|1=RSIT_EDP_ACCOUNT_1|11=16962179538167000118|38=100|40=1|54=1|55=4272|60=20231002-03:39:13.316315|10=071|
20231002-03:39:13.000 : 8=FIX.4.2|9=164|35=D|34=120|49=RSIT_EDP_1|52=20231002-03:39:13.000|56=FSX_SIT_EDP|1=RSIT_EDP_ACCOUNT_1|11=16962179532673000119|38=100|40=1|54=1|55=4307|60=20231002-03:39:13.320480|10=057|
20231002-03:39:13.000 : 8=FIX.4.2|9=164|35=D|34=121|49=RSIT_EDP_1|52=20231002-03:39:13.000|56=FSX_SIT_EDP|1=RSIT_EDP_ACCOUNT_1|11=16962179533086000120|38=100|40=1|54=1|55=4324|60=20231002-03:39:13.325094|10=054|
20231002-03:39:13.000 : 8=FIX.4.2|9=164|35=D|34=122|49=RSIT_EDP_1|52=20231002-03:39:13.000|56=FSX_SIT_EDP|1=RSIT_EDP_ACCOUNT_1|11=16962179531870000121|38=100|40=1|54=1|55=4385|60=20231002-03:39:13.329747|10=071|
20231002-03:39:13.000 : 8=FIX.4.2|9=164|35=D|34=123|49=RSIT_EDP_1|52=20231002-03:39:13.000|56=FSX_SIT_EDP|1=RSIT_EDP_ACCOUNT_1|11=16962179537835000122|38=100|40=1|54=1|55=4401|60=20231002-03:39:13.334701|10=055|
20231002-03:39:13.000 : 8=FIX.4.2|9=164|35=D|34=124|49=RSIT_EDP_1|52=20231002-03:39:13.000|56=FSX_SIT_EDP|1=RSIT_EDP_ACCOUNT_1|11=16962179537631000123|38=100|40=1|54=1|55=4403|60=20231002-03:39:13.339186|10=065|
20231002-03:39:13.000 : 8=FIX.4.2|9=164|35=D|34=125|49=RSIT_EDP_1|52=20231002-03:39:13.000|56=FSX_SIT_EDP|1=RSIT_EDP_ACCOUNT_1|11=16962179534701000124|38=100|40=1|54=1|55=4443|60=20231002-03:39:13.344087|10=062|
20231002-03:39:13.000 : 8=FIX.4.2|9=164|35=D|34=126|49=RSIT_EDP_1|52=20231002-03:39:13.000|56=FSX_SIT_EDP|1=RSIT_EDP_ACCOUNT_1|11=16962179534851000125|38=100|40=1|54=1|55=4483|60=20231002-03:39:13.348826|10=079|
20231002-03:39:13.000 : 8=FIX.4.2|9=164|35=D|34=127|49=RSIT_EDP_1|52=20231002-03:39:13.000|56=FSX_SIT_EDP|1=RSIT_EDP_ACCOUNT_1|11=16962179538734000126|38=100|40=1|54=1|55=4506|60=20231002-03:39:13.353621|10=070|
20231002-03:39:13.000 : 8=FIX.4.2|9=164|35=D|34=128|49=RSIT_EDP_1|52=20231002-03:39:13.000|56=FSX_SIT_EDP|1=RSIT_EDP_ACCOUNT_1|11=16962179535378000127|38=100|40=1|54=1|55=4516|60=20231002-03:39:13.358008|10=078|
20231002-03:39:13.000 : 8=FIX.4.2|9=164|35=D|34=129|49=RSIT_EDP_1|52=20231002-03:39:13.000|56=FSX_SIT_EDP|1=RSIT_EDP_ACCOUNT_1|11=16962179530483000128|38=100|40=1|54=1|55=4521|60=20231002-03:39:13.362400|10=059|
20231002-03:39:13.000 : 8=FIX.4.2|9=164|35=D|34=130|49=RSIT_EDP_1|52=20231002-03:39:13.000|56=FSX_SIT_EDP|1=RSIT_EDP_ACCOUNT_1|11=16962179531802000129|38=100|40=1|54=1|55=4527|60=20231002-03:39:13.367175|10=068|
20231002-03:39:13.000 : 8=FIX.4.2|9=164|35=D|34=131|49=RSIT_EDP_1|52=20231002-03:39:13.000|56=FSX_SIT_EDP|1=RSIT_EDP_ACCOUNT_1|11=16962179533541000130|38=100|40=1|54=1|55=4530|60=20231002-03:39:13.371852|10=054|
20231002-03:39:13.000 : 8=FIX.4.2|9=164|35=D|34=132|49=RSIT_EDP_1|52=20231002-03:39:13.000|56=FSX_SIT_EDP|1=RSIT_EDP_ACCOUNT_1|11=16962179533054000131|38=100|40=1|54=1|55=4536|60=20231002-03:39:13.376448|10=067|
20231002-03:39:13.000 : 8=FIX.4.2|9=164|35=D|34=133|49=RSIT_EDP_1|52=20231002-03:39:13.000|56=FSX_SIT_EDP|1=RSIT_EDP_ACCOUNT_1|11=16962179532580000132|38=100|40=1|54=1|55=4540|60=20231002-03:39:13.381189|10=065|
20231002-03:39:13.000 : 8=FIX.4.2|9=164|35=D|34=134|49=RSIT_EDP_1|52=20231002-03:39:13.000|56=FSX_SIT_EDP|1=RSIT_EDP_ACCOUNT_1|11=16962179533415000133|38=100|40=1|54=1|55=4544|60=20231002-03:39:13.386003|10=059|
20231002-03:39:13.000 : 8=FIX.4.2|9=164|35=D|34=135|49=RSIT_EDP_1|52=20231002-03:39:13.000|56=FSX_SIT_EDP|1=RSIT_EDP_ACCOUNT_1|11=16962179537184000134|38=100|40=1|54=1|55=4552|60=20231002-03:39:13.390700|10=066|
20231002-03:39:13.000 : 8=FIX.4.2|9=164|35=D|34=136|49=RSIT_EDP_1|52=20231002-03:39:13.000|56=FSX_SIT_EDP|1=RSIT_EDP_ACCOUNT_1|11=16962179531347000135|38=100|40=1|54=1|55=4581|60=20231002-03:39:13.395298|10=082|
20231002-03:39:13.000 : 8=FIX.4.2|9=164|35=D|34=137|49=RSIT_EDP_1|52=20231002-03:39:13.000|56=FSX_SIT_EDP|1=RSIT_EDP_ACCOUNT_1|11=16962179534871000136|38=100|40=1|54=1|55=4587|60=20231002-03:39:13.399648|10=098|
20231002-03:39:13.000 : 8=FIX.4.2|9=164|35=D|34=138|49=RSIT_EDP_1|52=20231002-03:39:13.000|56=FSX_SIT_EDP|1=RSIT_EDP_ACCOUNT_1|11=16962179531583000137|38=100|40=1|54=1|55=4612|60=20231002-03:39:13.403893|10=074|
20231002-03:39:13.000 : 8=FIX.4.2|9=164|35=D|34=139|49=RSIT_EDP_1|52=20231002-03:39:13.000|56=FSX_SIT_EDP|1=RSIT_EDP_ACCOUNT_1|11=16962179537342000138|38=100|40=1|54=1|55=4613|60=20231002-03:39:13.408748|10=080|
20231002-03:39:13.000 : 8=FIX.4.2|9=164|35=D|34=140|49=RSIT_EDP_1|52=20231002-03:39:13.000|56=FSX_SIT_EDP|1=RSIT_EDP_ACCOUNT_1|11=16962179536872000139|38=100|40=1|54=1|55=4631|60=20231002-03:39:13.413146|10=068|
20231002-03:39:13.000 : 8=FIX.4.2|9=164|35=D|34=141|49=RSIT_EDP_1|52=20231002-03:39:13.000|56=FSX_SIT_EDP|1=RSIT_EDP_ACCOUNT_1|11=16962179531645000140|38=100|40=1|54=1|55=4665|60=20231002-03:39:13.417912|10=066|
20231002-03:39:13.000 : 8=FIX.4.2|9=164|35=D|34=142|49=RSIT_EDP_1|52=20231002-03:39:13.000|56=FSX_SIT_EDP|1=RSIT_EDP_ACCOUNT_1|11=16962179533720000141|38=100|40=1|54=1|55=4666|60=20231002-03:39:13.422539|10=066|
20231002-03:39:13.000 : 8=FIX.4.2|9=164|35=D|34=143|49=RSIT_EDP_1|52=20231002-03:39:13.000|56=FSX_SIT_EDP|1=RSIT_EDP_ACCOUNT_1|11=16962179536458000142|38=100|40=1|54=1|55=4676|60=20231002-03:39:13.427146|10=079|
20231002-03:39:13.000 : 8=FIX.4.2|9=164|35=D|34=144|49=RSIT_EDP_1|52=20231002-03:39:13.000|56=FSX_SIT_EDP|1=RSIT_EDP_ACCOUNT_1|11=16962179532617000143|38=100|40=1|54=1|55=4681|60=20231002-03:39:13.431557|10=071|
20231002-03:39:13.000 : 8=FIX.4.2|9=164|35=D|34=145|49=RSIT_EDP_1|52=20231002-03:39:13.000|56=FSX_SIT_EDP|1=RSIT_EDP_ACCOUNT_1|11=16962179534126000144|38=100|40=1|54=1|55=4684|60=20231002-03:39:13.436261|10=070|
20231002-03:39:13.000 : 8=FIX.4.2|9=164|35=D|34=146|49=RSIT_EDP_1|52=20231002-03:39:13.000|56=FSX_SIT_EDP|1=RSIT_EDP_ACCOUNT_1|11=16962179535621000145|38=100|40=1|54=1|55=4686|60=20231002-03:39:13.441106|10=069|
20231002-03:39:13.000 : 8=FIX.4.2|9=164|35=D|34=147|49=RSIT_EDP_1|52=20231002-03:39:13.000|56=FSX_SIT_EDP|1=RSIT_EDP_ACCOUNT_1|11=16962179531487000146|38=100|40=1|54=1|55=4704|60=20231002-03:39:13.445565|10=081|
20231002-03:39:13.000 : 8=FIX.4.2|9=164|35=D|34=148|49=RSIT_EDP_1|52=20231002-03:39:13.000|56=FSX_SIT_EDP|1=RSIT_EDP_ACCOUNT_1|11=16962179535807000147|38=100|40=1|54=1|55=4716|60=20231002-03:39:13.450362|10=077|
20231002-03:39:13.000 : 8=FIX.4.2|9=164|35=D|34=149|49=RSIT_EDP_1|52=20231002-03:39:13.000|56=FSX_SIT_EDP|1=RSIT_EDP_ACCOUNT_1|11=16962179536834000148|38=100|40=1|54=1|55=4732|60=20231002-03:39:13.454889|10=096|
20231002-03:39:13.000 : 8=FIX.4.2|9=164|35=D|34=150|49=RSIT_EDP_1|52=20231002-03:39:13.000|56=FSX_SIT_EDP|1=RSIT_EDP_ACCOUNT_1|11=16962179533527000149|38=100|40=1|54=1|55=4739|60=20231002-03:39:13.459605|10=083|
20231002-03:39:13.000 : 8=FIX.4.2|9=164|35=D|34=151|49=RSIT_EDP_1|52=20231002-03:39:13.000|56=FSX_SIT_EDP|1=RSIT_EDP_ACCOUNT_1|11=16962179533016000150|38=100|40=1|54=1|55=4751|60=20231002-03:39:13.464314|10=056|
20231002-03:39:13.000 : 8=FIX.4.2|9=164|35=D|34=152|49=RSIT_EDP_1|52=20231002-03:39:13.000|56=FSX_SIT_EDP|1=RSIT_EDP_ACCOUNT_1|11=16962179535231000151|38=100|40=1|54=1|55=4755|60=20231002-03:39:13.469013|10=064|
20231002-03:39:13.000 : 8=FIX.4.2|9=164|35=D|34=153|49=RSIT_EDP_1|52=20231002-03:39:13.000|56=FSX_SIT_EDP|1=RSIT_EDP_ACCOUNT_1|11=16962179532736000152|38=100|40=1|54=1|55=4768|60=20231002-03:39:13.473799|10=093|
20231002-03:39:13.000 : 8=FIX.4.2|9=164|35=D|34=154|49=RSIT_EDP_1|52=20231002-03:39:13.000|56=FSX_SIT_EDP|1=RSIT_EDP_ACCOUNT_1|11=16962179532750000153|38=100|40=1|54=1|55=4887|60=20231002-03:39:13.478425|10=084|
20231002-03:39:13.000 : 8=FIX.4.2|9=164|35=D|34=155|49=RSIT_EDP_1|52=20231002-03:39:13.000|56=FSX_SIT_EDP|1=RSIT_EDP_ACCOUNT_1|11=16962179533176000154|38=100|40=1|54=1|55=4902|60=20231002-03:39:13.483159|10=077|
20231002-03:39:13.000 : 8=FIX.4.2|9=164|35=D|34=156|49=RSIT_EDP_1|52=20231002-03:39:13.000|56=FSX_SIT_EDP|1=RSIT_EDP_ACCOUNT_1|11=16962179538745000155|38=100|40=1|54=1|55=4912|60=20231002-03:39:13.487793|10=095|
20231002-03:39:13.000 : 8=FIX.4.2|9=164|35=D|34=157|49=RSIT_EDP_1|52=20231002-03:39:13.000|56=FSX_SIT_EDP|1=RSIT_EDP_ACCOUNT_1|11=16962179537543000156|38=100|40=1|54=1|55=4919|60=20231002-03:39:13.492416|10=087|
20231002-03:39:13.000 : 8=FIX.4.2|9=164|35=D|34=158|49=RSIT_EDP_1|52=20231002-03:39:13.000|56=FSX_SIT_EDP|1=RSIT_EDP_ACCOUNT_1|11=16962179532548000157|38=100|40=1|54=1|55=4921|60=20231002-03:39:13.497066|10=088|
20231002-03:39:13.000 : 8=FIX.4.2|9=164|35=D|34=159|49=RSIT_EDP_1|52=20231002-03:39:13.000|56=FSX_SIT_EDP|1=RSIT_EDP_ACCOUNT_1|11=16962179532681000158|38=100|40=1|54=1|55=4922|60=20231002-03:39:13.501673|10=079|
20231002-03:39:13.000 : 8=FIX.4.2|9=164|35=D|34=160|49=RSIT_EDP_1|52=20231002-03:39:13.000|56=FSX_SIT_EDP|1=RSIT_EDP_ACCOUNT_1|11=16962179532501000159|38=100|40=1|54=1|55=4927|60=20231002-03:39:13.506308|10=068|
20231002-03:39:13.000 : 8=FIX.4.2|9=164|35=D|34=161|49=RSIT_EDP_1|52=20231002-03:39:13.000|56=FSX_SIT_EDP|1=RSIT_EDP_ACCOUNT_1|11=16962179532038000160|38=100|40=1|54=1|55=4967|60=20231002-03:39:13.510930|10=066|
20231002-03:39:13.000 : 8=FIX.4.2|9=164|35=D|34=162|49=RSIT_EDP_1|52=20231002-03:39:13.000|56=FSX_SIT_EDP|1=RSIT_EDP_ACCOUNT_1|11=16962179536853000161|38=100|40=1|54=1|55=4980|60=20231002-03:39:13.515499|10=087|
20231002-03:39:13.000 : 8=FIX.4.2|9=164|35=D|34=163|49=RSIT_EDP_1|52=20231002-03:39:13.000|56=FSX_SIT_EDP|1=RSIT_EDP_ACCOUNT_1|11=16962179533752000162|38=100|40=1|54=1|55=5019|60=20231002-03:39:13.519890|10=077|
20231002-03:39:13.000 : 8=FIX.4.2|9=164|35=D|34=164|49=RSIT_EDP_1|52=20231002-03:39:13.000|56=FSX_SIT_EDP|1=RSIT_EDP_ACCOUNT_1|11=16962179534370000163|38=100|40=1|54=1|55=5021|60=20231002-03:39:13.524549|10=066|
20231002-03:39:13.000 : 8=FIX.4.2|9=164|35=D|34=165|49=RSIT_EDP_1|52=20231002-03:39:13.000|56=FSX_SIT_EDP|1=RSIT_EDP_ACCOUNT_1|11=16962179534168000164|38=100|40=1|54=1|55=5076|60=20231002-03:39:13.529348|10=085|
20231002-03:39:13.000 : 8=FIX.4.2|9=164|35=D|34=166|49=RSIT_EDP_1|52=20231002-03:39:13.000|56=FSX_SIT_EDP|1=RSIT_EDP_ACCOUNT_1|11=16962179530243000165|38=100|40=1|54=1|55=5101|60=20231002-03:39:13.534385|10=063|
20231002-03:39:13.000 : 8=FIX.4.2|9=164|35=D|34=167|49=RSIT_EDP_1|52=20231002-03:39:13.000|56=FSX_SIT_EDP|1=RSIT_EDP_ACCOUNT_1|11=16962179535427000166|38=100|40=1|54=1|55=5105|60=20231002-03:39:13.539024|10=073|
20231002-03:39:13.000 : 8=FIX.4.2|9=164|35=D|34=168|49=RSIT_EDP_1|52=20231002-03:39:13.000|56=FSX_SIT_EDP|1=RSIT_EDP_ACCOUNT_1|11=16962179535621000167|38=100|40=1|54=1|55=5110|60=20231002-03:39:13.543677|10=076|
20231002-03:39:13.000 : 8=FIX.4.2|9=164|35=D|34=169|49=RSIT_EDP_1|52=20231002-03:39:13.000|56=FSX_SIT_EDP|1=RSIT_EDP_ACCOUNT_1|11=16962179536173000168|38=100|40=1|54=1|55=5201|60=20231002-03:39:13.548408|10=079|
20231002-03:39:13.000 : 8=FIX.4.2|9=164|35=D|34=170|49=RSIT_EDP_1|52=20231002-03:39:13.000|56=FSX_SIT_EDP|1=RSIT_EDP_ACCOUNT_1|11=16962179534821000169|38=100|40=1|54=1|55=5214|60=20231002-03:39:13.553053|10=066|
20231002-03:39:13.000 : 8=FIX.4.2|9=164|35=D|34=171|49=RSIT_EDP_1|52=20231002-03:39:13.000|56=FSX_SIT_EDP|1=RSIT_EDP_ACCOUNT_1|11=16962179532371000170|38=100|40=1|54=1|55=5232|60=20231002-03:39:13.557286|10=069|
20231002-03:39:13.000 : 8=FIX.4.2|9=164|35=D|34=172|49=RSIT_EDP_1|52=20231002-03:39:13.000|56=FSX_SIT_EDP|1=RSIT_EDP_ACCOUNT_1|11=16962179538750000171|38=100|40=1|54=1|55=5233|60=20231002-03:39:13.561907|10=074|
20231002-03:39:13.000 : 8=FIX.4.2|9=460|35=8|34=5|49=FSX_SIT_EDP|52=20231002-03:39:12.966|56=RSIT_EDP_1|1=RSIT_EDP_ACCOUNT_1|6=0|11=16962179521385000002|14=0|17=1708688055396700161|20=0|37=1708688055375224832|38=100|39=4|40=1|41=16962179521385000002|47=P|54=1|55=1333|58=ERROR_00010051,Order rejected due to IoC expired.|59=3|60=20231002-03:39:12.966|76=EDP|109=101|110=0|150=4|151=100|544=1|8031=2528|8032=2528|8033=2528|8051=03:39:12.943|8060=3|8164=EDP|8169=20231002-03:39:12.966808|8174=0|8214=0|10=106|
20231002-03:39:13.000 : 8=FIX.4.2|9=345|35=8|34=6|49=FSX_SIT_EDP|52=20231002-03:39:12.970|56=RSIT_EDP_1|1=RSIT_EDP_ACCOUNT_1|6=0|11=16962179527831000004|14=0|17=1708688055405088768|20=0|31=0|32=0|37=1708688055387807744|38=100|39=0|40=1|47=P|54=1|55=1417|59=3|60=20231002-03:39:12.969|76=EDP|109=101|110=0|150=0|151=100|544=1|8060=3|8164=EDP|8169=20231002-03:39:12.969891|8174=0|8214=0|10=015|
20231002-03:39:13.000 : 8=FIX.4.2|9=460|35=8|34=7|49=FSX_SIT_EDP|52=20231002-03:39:12.970|56=RSIT_EDP_1|1=RSIT_EDP_ACCOUNT_1|6=0|11=16962179527831000004|14=0|17=1708688055405088769|20=0|37=1708688055387807744|38=100|39=4|40=1|41=16962179527831000004|47=P|54=1|55=1417|58=ERROR_00010051,Order rejected due to IoC expired.|59=3|60=20231002-03:39:12.970|76=EDP|109=101|110=0|150=4|151=100|544=1|8031=1864|8032=1864|8033=1864|8051=03:39:12.947|8060=3|8164=EDP|8169=20231002-03:39:12.970803|8174=0|8214=0|10=135|
20231002-03:39:13.000 : 8=FIX.4.2|9=345|35=8|34=8|49=FSX_SIT_EDP|52=20231002-03:39:12.975|56=RSIT_EDP_1|1=RSIT_EDP_ACCOUNT_1|6=0|11=16962179520483000006|14=0|17=1708688055421620224|20=0|31=0|32=0|37=1708688055404584960|38=100|39=0|40=1|47=P|54=1|55=1721|59=3|60=20231002-03:39:12.974|76=EDP|109=101|110=0|150=0|151=100|544=1|8060=3|8164=EDP|8169=20231002-03:39:12.974860|8174=0|8214=0|10=231|
20231002-03:39:13.000 : 8=FIX.4.2|9=460|35=8|34=9|49=FSX_SIT_EDP|52=20231002-03:39:12.976|56=RSIT_EDP_1|1=RSIT_EDP_ACCOUNT_1|6=0|11=16962179520483000006|14=0|17=1708688055421620225|20=0|37=1708688055404584960|38=100|39=4|40=1|41=16962179520483000006|47=P|54=1|55=1721|58=ERROR_00010051,Order rejected due to IoC expired.|59=3|60=20231002-03:39:12.976|76=EDP|109=101|110=0|150=4|151=100|544=1|8031=2854|8032=2854|8033=2854|8051=03:39:12.950|8060=3|8164=EDP|8169=20231002-03:39:12.976224|8174=0|8214=0|10=109|
20231002-03:39:13.000 : 8=FIX.4.2|9=346|35=8|34=10|49=FSX_SIT_EDP|52=20231002-03:39:12.979|56=RSIT_EDP_1|1=RSIT_EDP_ACCOUNT_1|6=0|11=16962179525437000005|14=0|17=1708688055430578176|20=0|31=0|32=0|37=1708688055396196352|38=100|39=0|40=1|47=P|54=1|55=1605|59=3|60=20231002-03:39:12.979|76=EDP|109=101|110=0|150=0|151=100|544=1|8060=3|8164=EDP|8169=20231002-03:39:12.979059|8174=0|8214=0|10=057|
20231002-03:39:13.000 : 8=FIX.4.2|9=164|35=D|34=173|49=RSIT_EDP_1|52=20231002-03:39:13.000|56=FSX_SIT_EDP|1=RSIT_EDP_ACCOUNT_1|11=16962179533482000172|38=100|40=1|54=1|55=5301|60=20231002-03:39:13.566532|10=068|
20231002-03:39:13.000 : 8=FIX.4.2|9=164|35=D|34=174|49=RSIT_EDP_1|52=20231002-03:39:13.000|56=FSX_SIT_EDP|1=RSIT_EDP_ACCOUNT_1|11=16962179538603000173|38=100|40=1|54=1|55=5332|60=20231002-03:39:13.571240|10=066|
20231002-03:39:13.000 : 8=FIX.4.2|9=164|35=D|34=175|49=RSIT_EDP_1|52=20231002-03:39:13.000|56=FSX_SIT_EDP|1=RSIT_EDP_ACCOUNT_1|11=16962179530268000174|38=100|40=1|54=1|55=5333|60=20231002-03:39:13.575872|10=083|
20231002-03:39:13.000 : 8=FIX.4.2|9=164|35=D|34=176|49=RSIT_EDP_1|52=20231002-03:39:13.000|56=FSX_SIT_EDP|1=RSIT_EDP_ACCOUNT_1|11=16962179533170000175|38=100|40=1|54=1|55=5334|60=20231002-03:39:13.580235|10=070|
20231002-03:39:13.000 : 8=FIX.4.2|9=164|35=D|34=177|49=RSIT_EDP_1|52=20231002-03:39:13.000|56=FSX_SIT_EDP|1=RSIT_EDP_ACCOUNT_1|11=16962179534206000176|38=100|40=1|54=1|55=5406|60=20231002-03:39:13.584787|10=089|
20231002-03:39:13.000 : 8=FIX.4.2|9=164|35=D|34=178|49=RSIT_EDP_1|52=20231002-03:39:13.000|56=FSX_SIT_EDP|1=RSIT_EDP_ACCOUNT_1|11=16962179534518000177|38=100|40=1|54=1|55=5411|60=20231002-03:39:13.589402|10=082|
20231002-03:39:13.000 : 8=FIX.4.2|9=164|35=D|34=179|49=RSIT_EDP_1|52=20231002-03:39:13.000|56=FSX_SIT_EDP|1=RSIT_EDP_ACCOUNT_1|11=16962179535671000178|38=100|40=1|54=1|55=5444|60=20231002-03:39:13.594039|10=093|
20231002-03:39:13.000 : 8=FIX.4.2|9=164|35=D|34=180|49=RSIT_EDP_1|52=20231002-03:39:13.000|56=FSX_SIT_EDP|1=RSIT_EDP_ACCOUNT_1|11=16962179537423000179|38=100|40=1|54=1|55=5463|60=20231002-03:39:13.598612|10=085|
20231002-03:39:13.000 : 8=FIX.4.2|9=164|35=D|34=181|49=RSIT_EDP_1|52=20231002-03:39:13.000|56=FSX_SIT_EDP|1=RSIT_EDP_ACCOUNT_1|11=16962179530657000180|38=100|40=1|54=1|55=5471|60=20231002-03:39:13.603275|10=071|
20231002-03:39:13.000 : 8=FIX.4.2|9=164|35=D|34=182|49=RSIT_EDP_1|52=20231002-03:39:13.000|56=FSX_SIT_EDP|1=RSIT_EDP_ACCOUNT_1|11=16962179537836000181|38=100|40=1|54=1|55=5631|60=20231002-03:39:13.607856|10=086|
20231002-03:39:13.000 : 8=FIX.4.2|9=164|35=D|34=183|49=RSIT_EDP_1|52=20231002-03:39:13.000|56=FSX_SIT_EDP|1=RSIT_EDP_ACCOUNT_1|11=16962179531037000182|38=100|40=1|54=1|55=5706|60=20231002-03:39:13.612531|10=064|
20231002-03:39:13.000 : 8=FIX.4.2|9=164|35=D|34=184|49=RSIT_EDP_1|52=20231002-03:39:13.000|56=FSX_SIT_EDP|1=RSIT_EDP_ACCOUNT_1|11=16962179532845000183|38=100|40=1|54=1|55=5711|60=20231002-03:39:13.617355|10=079|
20231002-03:39:13.000 : 8=FIX.4.2|9=164|35=D|34=185|49=RSIT_EDP_1|52=20231002-03:39:13.000|56=FSX_SIT_EDP|1=RSIT_EDP_ACCOUNT_1|11=16962179537185000184|38=100|40=1|54=1|55=5714|60=20231002-03:39:13.622111|10=072|
20231002-03:39:13.000 : 8=FIX.4.2|9=164|35=D|34=186|49=RSIT_EDP_1|52=20231002-03:39:13.000|56=FSX_SIT_EDP|1=RSIT_EDP_ACCOUNT_1|11=16962179531037000185|38=100|40=1|54=1|55=5801|60=20231002-03:39:13.626775|10=081|
20231002-03:39:13.000 : 8=FIX.4.2|9=164|35=D|34=187|49=RSIT_EDP_1|52=20231002-03:39:13.000|56=FSX_SIT_EDP|1=RSIT_EDP_ACCOUNT_1|11=16962179537406000186|38=100|40=1|54=1|55=5803|60=20231002-03:39:13.631389|10=088|
20231002-03:39:13.000 : 8=FIX.4.2|9=164|35=D|34=188|49=RSIT_EDP_1|52=20231002-03:39:13.000|56=FSX_SIT_EDP|1=RSIT_EDP_ACCOUNT_1|11=16962179531058000187|38=100|40=1|54=1|55=5830|60=20231002-03:39:13.636037|10=082|
20231002-03:39:13.000 : 8=FIX.4.2|9=164|35=D|34=189|49=RSIT_EDP_1|52=20231002-03:39:13.000|56=FSX_SIT_EDP|1=RSIT_EDP_ACCOUNT_1|11=16962179535347000188|38=100|40=1|54=1|55=5831|60=20231002-03:39:13.640910|10=085|
20231002-03:39:13.000 : 8=FIX.4.2|9=164|35=D|34=190|49=RSIT_EDP_1|52=20231002-03:39:13.000|56=FSX_SIT_EDP|1=RSIT_EDP_ACCOUNT_1|11=16962179531532000189|38=100|40=1|54=1|55=5832|60=20231002-03:39:13.645764|10=083|
20231002-03:39:13.000 : 8=FIX.4.2|9=164|35=D|34=191|49=RSIT_EDP_1|52=20231002-03:39:13.000|56=FSX_SIT_EDP|1=RSIT_EDP_ACCOUNT_1|11=16962179530548000190|38=100|40=1|54=1|55=5901|60=20231002-03:39:13.650499|10=080|
20231002-03:39:13.000 : 8=FIX.4.2|9=164|35=D|34=192|49=RSIT_EDP_1|52=20231002-03:39:13.000|56=FSX_SIT_EDP|1=RSIT_EDP_ACCOUNT_1|11=16962179531782000191|38=100|40=1|54=1|55=5929|60=20231002-03:39:13.655280|10=086|
20231002-03:39:13.000 : 8=FIX.4.2|9=164|35=D|34=193|49=RSIT_EDP_1|52=20231002-03:39:13.000|56=FSX_SIT_EDP|1=RSIT_EDP_ACCOUNT_1|11=16962179538170000192|38=100|40=1|54=1|55=5938|60=20231002-03:39:13.659712|10=090|
20231002-03:39:13.000 : 8=FIX.4.2|9=164|35=D|34=194|49=RSIT_EDP_1|52=20231002-03:39:13.000|56=FSX_SIT_EDP|1=RSIT_EDP_ACCOUNT_1|11=16962179538701000193|38=100|40=1|54=1|55=5947|60=20231002-03:39:13.664412|10=085|
20231002-03:39:13.000 : 8=FIX.4.2|9=164|35=D|34=195|49=RSIT_EDP_1|52=20231002-03:39:13.000|56=FSX_SIT_EDP|1=RSIT_EDP_ACCOUNT_1|11=16962179534856000194|38=100|40=1|54=1|55=5991|60=20231002-03:39:13.669114|10=097|
20231002-03:39:13.000 : 8=FIX.4.2|9=164|35=D|34=196|49=RSIT_EDP_1|52=20231002-03:39:13.000|56=FSX_SIT_EDP|1=RSIT_EDP_ACCOUNT_1|11=16962179534218000195|38=100|40=1|54=1|55=6005|60=20231002-03:39:13.673546|10=082|
20231002-03:39:13.000 : 8=FIX.4.2|9=164|35=D|34=197|49=RSIT_EDP_1|52=20231002-03:39:13.000|56=FSX_SIT_EDP|1=RSIT_EDP_ACCOUNT_1|11=16962179533462000196|38=100|40=1|54=1|55=6028|60=20231002-03:39:13.678210|10=082|
20231002-03:39:13.000 : 8=FIX.4.2|9=164|35=D|34=198|49=RSIT_EDP_1|52=20231002-03:39:13.000|56=FSX_SIT_EDP|1=RSIT_EDP_ACCOUNT_1|11=16962179530521000197|38=100|40=1|54=1|55=6103|60=20231002-03:39:13.682858|10=084|
20231002-03:39:13.000 : 8=FIX.4.2|9=164|35=D|34=199|49=RSIT_EDP_1|52=20231002-03:39:13.000|56=FSX_SIT_EDP|1=RSIT_EDP_ACCOUNT_1|11=16962179534867000198|38=100|40=1|54=1|55=6113|60=20231002-03:39:13.687451|10=098|
20231002-03:39:13.000 : 8=FIX.4.2|9=164|35=D|34=200|49=RSIT_EDP_1|52=20231002-03:39:13.000|56=FSX_SIT_EDP|1=RSIT_EDP_ACCOUNT_1|11=16962179536782000199|38=100|40=1|54=1|55=6134|60=20231002-03:39:13.692146|10=080|
20231002-03:39:13.000 : 8=FIX.4.2|9=164|35=D|34=201|49=RSIT_EDP_1|52=20231002-03:39:13.000|56=FSX_SIT_EDP|1=RSIT_EDP_ACCOUNT_1|11=16962179532041000200|38=100|40=1|54=1|55=6136|60=20231002-03:39:13.696456|10=058|
20231002-03:39:13.000 : 8=FIX.4.2|9=164|35=D|34=202|49=RSIT_EDP_1|52=20231002-03:39:13.000|56=FSX_SIT_EDP|1=RSIT_EDP_ACCOUNT_1|11=16962179532715000201|38=100|40=1|54=1|55=6141|60=20231002-03:39:13.701074|10=047|
20231002-03:39:13.000 : 8=FIX.4.2|9=164|35=D|34=203|49=RSIT_EDP_1|52=20231002-03:39:13.000|56=FSX_SIT_EDP|1=RSIT_EDP_ACCOUNT_1|11=16962179530813000202|38=100|40=1|54=1|55=6146|60=20231002-03:39:13.705748|10=063|
20231002-03:39:13.000 : 8=FIX.4.2|9=164|35=D|34=204|49=RSIT_EDP_1|52=20231002-03:39:13.000|56=FSX_SIT_EDP|1=RSIT_EDP_ACCOUNT_1|11=16962179537164000203|38=100|40=1|54=1|55=6201|60=20231002-03:39:13.710419|10=054|
20231002-03:39:13.000 : 8=FIX.4.2|9=164|35=D|34=205|49=RSIT_EDP_1|52=20231002-03:39:13.000|56=FSX_SIT_EDP|1=RSIT_EDP_ACCOUNT_1|11=16962179535260000204|38=100|40=1|54=1|55=6268|60=20231002-03:39:13.715180|10=064|
20231002-03:39:13.000 : 8=FIX.4.2|9=164|35=D|34=206|49=RSIT_EDP_1|52=20231002-03:39:13.000|56=FSX_SIT_EDP|1=RSIT_EDP_ACCOUNT_1|11=16962179533470000205|38=100|40=1|54=1|55=6302|60=20231002-03:39:13.719837|10=069|
20231002-03:39:13.000 : 8=FIX.4.2|9=164|35=D|34=207|49=RSIT_EDP_1|52=20231002-03:39:13.000|56=FSX_SIT_EDP|1=RSIT_EDP_ACCOUNT_1|11=16962179533148000206|38=100|40=1|54=1|55=6305|60=20231002-03:39:13.724443|10=065|
20231002-03:39:13.000 : 8=FIX.4.2|9=164|35=D|34=208|49=RSIT_EDP_1|52=20231002-03:39:13.000|56=FSX_SIT_EDP|1=RSIT_EDP_ACCOUNT_1|11=16962179536132000207|38=100|40=1|54=1|55=6361|60=20231002-03:39:13.728733|10=071|
20231002-03:39:13.000 : 8=FIX.4.2|9=164|35=D|34=209|49=RSIT_EDP_1|52=20231002-03:39:13.000|56=FSX_SIT_EDP|1=RSIT_EDP_ACCOUNT_1|11=16962179530753000208|38=100|40=1|54=1|55=6370|60=20231002-03:39:13.732701|10=066|
20231002-03:39:13.000 : 8=FIX.4.2|9=164|35=D|34=210|49=RSIT_EDP_1|52=20231002-03:39:13.000|56=FSX_SIT_EDP|1=RSIT_EDP_ACCOUNT_1|11=16962179534803000209|38=100|40=1|54=1|55=6383|60=20231002-03:39:13.737364|10=073|
20231002-03:39:13.000 : 8=FIX.4.2|9=164|35=D|34=211|49=RSIT_EDP_1|52=20231002-03:39:13.000|56=FSX_SIT_EDP|1=RSIT_EDP_ACCOUNT_1|11=16962179533041000210|38=100|40=1|54=1|55=6395|60=20231002-03:39:13.742048|10=057|
20231002-03:39:13.000 : 8=FIX.4.2|9=164|35=D|34=212|49=RSIT_EDP_1|52=20231002-03:39:13.000|56=FSX_SIT_EDP|1=RSIT_EDP_ACCOUNT_1|11=16962179532061000211|38=100|40=1|54=1|55=6406|60=20231002-03:39:13.746579|10=066|
20231002-03:39:13.000 : 8=FIX.4.2|9=164|35=D|34=213|49=RSIT_EDP_1|52=20231002-03:39:13.000|56=FSX_SIT_EDP|1=RSIT_EDP_ACCOUNT_1|11=16962179533681000212|38=100|40=1|54=1|55=6417|60=20231002-03:39:13.751322|10=061|
20231002-03:39:13.000 : 8=FIX.4.2|9=164|35=D|34=214|49=RSIT_EDP_1|52=20231002-03:39:13.000|56=FSX_SIT_EDP|1=RSIT_EDP_ACCOUNT_1|11=16962179530841000213|38=100|40=1|54=1|55=6436|60=20231002-03:39:13.755943|10=072|
20231002-03:39:13.000 : 8=FIX.4.2|9=164|35=D|34=215|49=RSIT_EDP_1|52=20231002-03:39:13.000|56=FSX_SIT_EDP|1=RSIT_EDP_ACCOUNT_1|11=16962179537035000214|38=100|40=1|54=1|55=6448|60=20231002-03:39:13.760331|10=066|
20231002-03:39:13.000 : 8=FIX.4.2|9=164|35=D|34=216|49=RSIT_EDP_1|52=20231002-03:39:13.000|56=FSX_SIT_EDP|1=RSIT_EDP_ACCOUNT_1|11=16962179536258000215|38=100|40=1|54=1|55=6457|60=20231002-03:39:13.764963|10=089|
20231002-03:39:13.000 : 8=FIX.4.2|9=164|35=D|34=217|49=RSIT_EDP_1|52=20231002-03:39:13.000|56=FSX_SIT_EDP|1=RSIT_EDP_ACCOUNT_1|11=16962179532173000216|38=100|40=1|54=1|55=6460|60=20231002-03:39:13.769591|10=079|
20231002-03:39:13.000 : 8=FIX.4.2|9=461|35=8|34=11|49=FSX_SIT_EDP|52=20231002-03:39:12.980|56=RSIT_EDP_1|1=RSIT_EDP_ACCOUNT_1|6=0|11=16962179525437000005|14=0|17=1708688055430578177|20=0|37=1708688055396196352|38=100|39=4|40=1|41=16962179525437000005|47=P|54=1|55=1605|58=ERROR_00010051,Order rejected due to IoC expired.|59=3|60=20231002-03:39:12.980|76=EDP|109=101|110=0|150=4|151=100|544=1|8031=1701|8032=1701|8033=1701|8051=03:39:12.948|8060=3|8164=EDP|8169=20231002-03:39:12.980351|8174=0|8214=0|10=143|
20231002-03:39:13.000 : 8=FIX.4.2|9=346|35=8|34=12|49=FSX_SIT_EDP|52=20231002-03:39:12.982|56=RSIT_EDP_1|1=RSIT_EDP_ACCOUNT_1|6=0|11=16962179526103000003|14=0|17=1708688055430008832|20=0|31=0|32=0|37=1708688055383613440|38=100|39=0|40=1|47=P|54=1|55=1414|59=3|60=20231002-03:39:12.982|76=EDP|109=101|110=0|150=0|151=100|544=1|8060=3|8164=EDP|8169=20231002-03:39:12.982010|8174=0|8214=0|10=246|
20231002-03:39:13.000 : 8=FIX.4.2|9=461|35=8|34=13|49=FSX_SIT_EDP|52=20231002-03:39:12.983|56=RSIT_EDP_1|1=RSIT_EDP_ACCOUNT_1|6=0|11=16962179526103000003|14=0|17=1708688055430008833|20=0|37=1708688055383613440|38=100|39=4|40=1|41=16962179526103000003|47=P|54=1|55=1414|58=ERROR_00010051,Order rejected due to IoC expired.|59=3|60=20231002-03:39:12.983|76=EDP|109=101|110=0|150=4|151=100|544=1|8031=5703|8032=5703|8033=5703|8051=03:39:12.945|8060=3|8164=EDP|8169=20231002-03:39:12.983310|8174=0|8214=0|10=115|
20231002-03:39:13.000 : 8=FIX.4.2|9=346|35=8|34=14|49=FSX_SIT_EDP|52=20231002-03:39:12.987|56=RSIT_EDP_1|1=RSIT_EDP_ACCOUNT_1|6=0|11=16962179521835000008|14=0|17=1708688055446786048|20=0|31=0|32=0|37=1708688055412973568|38=100|39=0|40=1|47=P|54=1|55=1802|59=3|60=20231002-03:39:12.987|76=EDP|109=101|110=0|150=0|151=100|544=1|8060=3|8164=EDP|8169=20231002-03:39:12.987240|8174=0|8214=0|10=057|
20231002-03:39:13.000 : 8=FIX.4.2|9=461|35=8|34=15|49=FSX_SIT_EDP|52=20231002-03:39:12.988|56=RSIT_EDP_1|1=RSIT_EDP_ACCOUNT_1|6=0|11=16962179521835000008|14=0|17=1708688055446786049|20=0|37=1708688055412973568|38=100|39=4|40=1|41=16962179521835000008|47=P|54=1|55=1802|58=ERROR_00010051,Order rejected due to IoC expired.|59=3|60=20231002-03:39:12.988|76=EDP|109=101|110=0|150=4|151=100|544=1|8031=1292|8032=1292|8033=1292|8051=03:39:12.953|8060=3|8164=EDP|8169=20231002-03:39:12.988694|8174=0|8214=0|10=200|
20231002-03:39:13.000 : 8=FIX.4.2|9=346|35=8|34=16|49=FSX_SIT_EDP|52=20231002-03:39:12.991|56=RSIT_EDP_1|1=RSIT_EDP_ACCOUNT_1|6=0|11=16962179524718000009|14=0|17=1708688055459614720|20=0|31=0|32=0|37=1708688055421362176|38=100|39=0|40=1|47=P|54=1|55=1803|59=3|60=20231002-03:39:12.991|76=EDP|109=101|110=0|150=0|151=100|544=1|8060=3|8164=EDP|8169=20231002-03:39:12.991657|8174=0|8214=0|10=039|
20231002-03:39:13.000 : 8=FIX.4.2|9=458|35=8|34=17|49=FSX_SIT_EDP|52=20231002-03:39:12.993|56=RSIT_EDP_1|1=RSIT_EDP_ACCOUNT_1|6=0|11=16962179524718000009|14=0|17=1708688055459614721|20=0|37=1708688055421362176|38=100|39=4|40=1|41=16962179524718000009|47=P|54=1|55=1803|58=ERROR_00010051,Order rejected due to IoC expired.|59=3|60=20231002-03:39:12.993|76=EDP|109=101|110=0|150=4|151=100|544=1|8031=938|8032=938|8033=938|8051=03:39:12.955|8060=3|8164=EDP|8169=20231002-03:39:12.993319|8174=0|8214=0|10=053|
20231002-03:39:13.000 : 8=FIX.4.2|9=346|35=8|34=18|49=FSX_SIT_EDP|52=20231002-03:39:12.995|56=RSIT_EDP_1|1=RSIT_EDP_ACCOUNT_1|6=0|11=16962179521705000007|14=0|17=1708688055449796608|20=0|31=0|32=0|37=1708688055408779264|38=100|39=0|40=1|47=P|54=1|55=1801|59=3|60=20231002-03:39:12.995|76=EDP|109=101|110=0|150=0|151=100|544=1|8060=3|8164=EDP|8169=20231002-03:39:12.995475|8174=0|8214=0|10=070|
20231002-03:39:13.000 : 8=FIX.4.2|9=461|35=8|34=19|49=FSX_SIT_EDP|52=20231002-03:39:12.997|56=RSIT_EDP_1|1=RSIT_EDP_ACCOUNT_1|6=0|11=16962179521705000007|14=0|17=1708688055449796609|20=0|37=1708688055408779264|38=100|39=4|40=1|41=16962179521705000007|47=P|54=1|55=1801|58=ERROR_00010051,Order rejected due to IoC expired.|59=3|60=20231002-03:39:12.996|76=EDP|109=101|110=0|150=4|151=100|544=1|8031=5101|8032=5101|8033=5101|8051=03:39:12.951|8060=3|8164=EDP|8169=20231002-03:39:12.996961|8174=0|8214=0|10=173|
20231002-03:39:13.000 : 8=FIX.4.2|9=346|35=8|34=20|49=FSX_SIT_EDP|52=20231002-03:39:13.000|56=RSIT_EDP_1|1=RSIT_EDP_ACCOUNT_1|6=0|11=16962179525468000011|14=0|17=1708688055552212992|20=0|31=0|32=0|37=1708688055547191296|38=100|39=0|40=1|47=P|54=1|55=1812|59=3|60=20231002-03:39:13.000|76=EDP|109=101|110=0|150=0|151=100|544=1|8060=3|8164=EDP|8169=20231002-03:39:13.000564|8174=0|8214=0|10=240|
20231002-03:39:13.000 : 8=FIX.4.2|9=461|35=8|34=21|49=FSX_SIT_EDP|52=20231002-03:39:13.002|56=RSIT_EDP_1|1=RSIT_EDP_ACCOUNT_1|6=0|11=16962179525468000011|14=0|17=1708688055552212993|20=0|37=1708688055547191296|38=100|39=4|40=1|41=16962179525468000011|47=P|54=1|55=1812|58=ERROR_00010051,Order rejected due to IoC expired.|59=3|60=20231002-03:39:13.001|76=EDP|109=101|110=0|150=4|151=100|544=1|8031=2288|8032=2288|8033=2288|8051=03:39:12.984|8060=3|8164=EDP|8169=20231002-03:39:13.001869|8174=0|8214=0|10=145|
20231002-03:39:13.000 : 8=FIX.4.2|9=346|35=8|34=22|49=FSX_SIT_EDP|52=20231002-03:39:13.005|56=RSIT_EDP_1|1=RSIT_EDP_ACCOUNT_1|6=0|11=16962179527052000010|14=0|17=1708688055564226560|20=0|31=0|32=0|37=1708688055538802688|38=100|39=0|40=1|47=P|54=1|55=1808|59=3|60=20231002-03:39:13.005|76=EDP|109=101|110=0|150=0|151=100|544=1|8060=3|8164=EDP|8169=20231002-03:39:13.005131|8174=0|8214=0|10=245|
20231002-03:39:13.000 : 8=FIX.4.2|9=461|35=8|34=23|49=FSX_SIT_EDP|52=20231002-03:39:13.006|56=RSIT_EDP_1|1=RSIT_EDP_ACCOUNT_1|6=0|11=16962179527052000010|14=0|17=1708688055564226561|20=0|37=1708688055538802688|38=100|39=4|40=1|41=16962179527052000010|47=P|54=1|55=1808|58=ERROR_00010051,Order rejected due to IoC expired.|59=3|60=20231002-03:39:13.006|76=EDP|109=101|110=0|150=4|151=100|544=1|8031=1854|8032=1854|8033=1854|8051=03:39:12.983|8060=3|8164=EDP|8169=20231002-03:39:13.006537|8174=0|8214=0|10=134|
20231002-03:39:13.000 : 8=FIX.4.2|9=346|35=8|34=24|49=FSX_SIT_EDP|52=20231002-03:39:13.008|56=RSIT_EDP_1|1=RSIT_EDP_ACCOUNT_1|6=0|11=16962179524562000012|14=0|17=1708688055585767424|20=0|31=0|32=0|37=1708688055555579904|38=100|39=0|40=1|47=P|54=1|55=1820|59=3|60=20231002-03:39:13.008|76=EDP|109=101|110=0|150=0|151=100|544=1|8060=3|8164=EDP|8169=20231002-03:39:13.008829|8174=0|8214=0|10=026|
20231002-03:39:13.000 : 8=FIX.4.2|9=461|35=8|34=25|49=FSX_SIT_EDP|52=20231002-03:39:13.010|56=RSIT_EDP_1|1=RSIT_EDP_ACCOUNT_1|6=0|11=16962179524562000012|14=0|17=1708688055585767425|20=0|37=1708688055555579904|38=100|39=4|40=1|41=16962179524562000012|47=P|54=1|55=1820|58=ERROR_00010051,Order rejected due to IoC expired.|59=3|60=20231002-03:39:13.009|76=EDP|109=101|110=0|150=4|151=100|544=1|8031=3654|8032=3654|8033=3654|8051=03:39:12.987|8060=3|8164=EDP|8169=20231002-03:39:13.009873|8174=0|8214=0|10=161|
20231002-03:39:13.000 : 8=FIX.4.2|9=346|35=8|34=26|49=FSX_SIT_EDP|52=20231002-03:39:13.012|56=RSIT_EDP_1|1=RSIT_EDP_ACCOUNT_1|6=0|11=16962179525238000014|14=0|17=1708688055589392384|20=0|31=0|32=0|37=1708688055572357120|38=100|39=0|40=1|47=P|54=1|55=1878|59=3|60=20231002-03:39:13.012|76=EDP|109=101|110=0|150=0|151=100|544=1|8060=3|8164=EDP|8169=20231002-03:39:13.012219|8174=0|8214=0|10=008|
20231002-03:39:13.000 : 8=FIX.4.2|9=164|35=D|34=218|49=RSIT_EDP_1|52=20231002-03:39:13.000|56=FSX_SIT_EDP|1=RSIT_EDP_ACCOUNT_1|11=16962179538075000217|38=100|40=1|54=1|55=6465|60=20231002-03:39:13.774266|10=088|
20231002-03:39:13.000 : 8=FIX.4.2|9=464|35=8|34=27|49=FSX_SIT_EDP|52=20231002-03:39:13.013|56=RSIT_EDP_1|1=RSIT_EDP_ACCOUNT_1|6=0|11=16962179525238000014|14=0|17=1708688055589392385|20=0|37=1708688055572357120|38=100|39=4|40=1|41=16962179525238000014|47=P|54=1|55=1878|58=ERROR_00010051,Order rejected due to IoC expired.|59=3|60=20231002-03:39:13.013|76=EDP|109=101|110=0|150=4|151=100|544=1|8031=14985|8032=14985|8033=14985|8051=03:39:12.990|8060=3|8164=EDP|8169=20231002-03:39:13.013532|8174=0|8214=0|10=065|
20231002-03:39:13.000 : 8=FIX.4.2|9=346|35=8|34=28|49=FSX_SIT_EDP|52=20231002-03:39:13.015|56=RSIT_EDP_1|1=RSIT_EDP_ACCOUNT_1|6=0|11=16962179526283000013|14=0|17=1708688055593832448|20=0|31=0|32=0|37=1708688055563968512|38=100|39=0|40=1|47=P|54=1|55=1860|59=3|60=20231002-03:39:13.015|76=EDP|109=101|110=0|150=0|151=100|544=1|8060=3|8164=EDP|8169=20231002-03:39:13.015587|8174=0|8214=0|10=026|
20231002-03:39:13.000 : 8=FIX.4.2|9=458|35=8|34=29|49=FSX_SIT_EDP|52=20231002-03:39:13.017|56=RSIT_EDP_1|1=RSIT_EDP_ACCOUNT_1|6=0|11=16962179526283000013|14=0|17=1708688055593832449|20=0|37=1708688055563968512|38=100|39=4|40=1|41=16962179526283000013|47=P|54=1|55=1860|58=ERROR_00010051,Order rejected due to IoC expired.|59=3|60=20231002-03:39:13.016|76=EDP|109=101|110=0|150=4|151=100|544=1|8031=802|8032=802|8033=802|8051=03:39:12.988|8060=3|8164=EDP|8169=20231002-03:39:13.016987|8174=0|8214=0|10=017|
20231002-03:39:13.000 : 8=FIX.4.2|9=346|35=8|34=30|49=FSX_SIT_EDP|52=20231002-03:39:13.019|56=RSIT_EDP_1|1=RSIT_EDP_ACCOUNT_1|6=0|11=16962179523860000016|14=0|17=1708688055602544640|20=0|31=0|32=0|37=1708688055580745728|38=100|39=0|40=1|47=P|54=1|55=1911|59=3|60=20231002-03:39:13.019|76=EDP|109=101|110=0|150=0|151=100|544=1|8060=3|8164=EDP|8169=20231002-03:39:13.019083|8174=0|8214=0|10=006|
20231002-03:39:13.000 : 8=FIX.4.2|9=461|35=8|34=31|49=FSX_SIT_EDP|52=20231002-03:39:13.020|56=RSIT_EDP_1|1=RSIT_EDP_ACCOUNT_1|6=0|11=16962179523860000016|14=0|17=1708688055602544641|20=0|37=1708688055580745728|38=100|39=4|40=1|41=16962179523860000016|47=P|54=1|55=1911|58=ERROR_00010051,Order rejected due to IoC expired.|59=3|60=20231002-03:39:13.020|76=EDP|109=101|110=0|150=4|151=100|544=1|8031=3585|8032=3585|8033=3585|8051=03:39:12.993|8060=3|8164=EDP|8169=20231002-03:39:13.020099|8174=0|8214=0|10=140|
20231002-03:39:13.000 : 8=FIX.4.2|9=373|35=8|34=32|49=FSX_SIT_EDP|52=20231002-03:39:13.023|56=RSIT_EDP_1|1=RSIT_EDP_ACCOUNT_1|6=0|11=16962179521627000015|14=0|17=1708688055602544643|20=0|31=0|32=0|37=1708688055576551424|38=100|39=8|40=1|44=0|47=P|54=1|55=1893|58=Self Match Prevention|59=3|60=20231002-03:39:13.023|103=0|109=101|110=0|150=8|151=0|544=1|8060=3|8164=EDP|8169=20231002-03:39:13.023320|8174=0|8214=0|10=133|
20231002-03:39:13.000 : 8=FIX.4.2|9=346|35=8|34=33|49=FSX_SIT_EDP|52=20231002-03:39:13.025|56=RSIT_EDP_1|1=RSIT_EDP_ACCOUNT_1|6=0|11=16962179527631000017|14=0|17=1708688055609180160|20=0|31=0|32=0|37=1708688055589134336|38=100|39=0|40=1|47=P|54=1|55=1944|59=3|60=20231002-03:39:13.025|76=EDP|109=101|110=0|150=0|151=100|544=1|8060=3|8164=EDP|8169=20231002-03:39:13.025013|8174=0|8214=0|10=252|
20231002-03:39:13.000 : 8=FIX.4.2|9=461|35=8|34=34|49=FSX_SIT_EDP|52=20231002-03:39:13.026|56=RSIT_EDP_1|1=RSIT_EDP_ACCOUNT_1|6=0|11=16962179527631000017|14=0|17=1708688055609180161|20=0|37=1708688055589134336|38=100|39=4|40=1|41=16962179527631000017|47=P|54=1|55=1944|58=ERROR_00010051,Order rejected due to IoC expired.|59=3|60=20231002-03:39:13.026|76=EDP|109=101|110=0|150=4|151=100|544=1|8031=2052|8032=2052|8033=2052|8051=03:39:12.995|8060=3|8164=EDP|8169=20231002-03:39:13.026118|8174=0|8214=0|10=123|
20231002-03:39:13.000 : 8=FIX.4.2|9=346|35=8|34=35|49=FSX_SIT_EDP|52=20231002-03:39:13.039|56=RSIT_EDP_1|1=RSIT_EDP_ACCOUNT_1|6=0|11=16962179527546000018|14=0|17=1708688055714037760|20=0|31=0|32=0|37=1708688055702380544|38=100|39=0|40=1|47=P|54=1|55=1951|59=3|60=20231002-03:39:13.039|76=EDP|109=101|110=0|150=0|151=100|544=1|8060=3|8164=EDP|8169=20231002-03:39:13.039158|8174=0|8214=0|10=022|
20231002-03:39:13.000 : 8=FIX.4.2|9=461|35=8|34=36|49=FSX_SIT_EDP|52=20231002-03:39:13.040|56=RSIT_EDP_1|1=RSIT_EDP_ACCOUNT_1|6=0|11=16962179527546000018|14=0|17=1708688055714037761|20=0|37=1708688055702380544|38=100|39=4|40=1|41=16962179527546000018|47=P|54=1|55=1951|58=ERROR_00010051,Order rejected due to IoC expired.|59=3|60=20231002-03:39:13.040|76=EDP|109=101|110=0|150=4|151=100|544=1|8031=2913|8032=2913|8033=2913|8051=03:39:13.021|8060=3|8164=EDP|8169=20231002-03:39:13.040378|8174=0|8214=0|10=125|
20231002-03:39:13.000 : 8=FIX.4.2|9=346|35=8|34=37|49=FSX_SIT_EDP|52=20231002-03:39:13.045|56=RSIT_EDP_1|1=RSIT_EDP_ACCOUNT_1|6=0|11=16962179523216000019|14=0|17=1708688055740956672|20=0|31=0|32=0|37=1708688055706574848|38=100|39=0|40=1|47=P|54=1|55=1959|59=3|60=20231002-03:39:13.045|76=EDP|109=101|110=0|150=0|151=100|544=1|8060=3|8164=EDP|8169=20231002-03:39:13.045173|8174=0|8214=0|10=038|
20231002-03:39:13.000 : 8=FIX.4.2|9=461|35=8|34=38|49=FSX_SIT_EDP|52=20231002-03:39:13.046|56=RSIT_EDP_1|1=RSIT_EDP_ACCOUNT_1|6=0|11=16962179523216000019|14=0|17=1708688055740956673|20=0|37=1708688055706574848|38=100|39=4|40=1|41=16962179523216000019|47=P|54=1|55=1959|58=ERROR_00010051,Order rejected due to IoC expired.|59=3|60=20231002-03:39:13.046|76=EDP|109=101|110=0|150=4|151=100|544=1|8031=4101|8032=4101|8033=4101|8051=03:39:13.023|8060=3|8164=EDP|8169=20231002-03:39:13.046469|8174=0|8214=0|10=138|
20231002-03:39:13.000 : 8=FIX.4.2|9=164|35=D|34=219|49=RSIT_EDP_1|52=20231002-03:39:13.000|56=FSX_SIT_EDP|1=RSIT_EDP_ACCOUNT_1|11=16962179532631000218|38=100|40=1|54=1|55=6471|60=20231002-03:39:13.779272|10=081|
20231002-03:39:13.000 : 8=FIX.4.2|9=164|35=D|34=220|49=RSIT_EDP_1|52=20231002-03:39:13.000|56=FSX_SIT_EDP|1=RSIT_EDP_ACCOUNT_1|11=16962179536184000219|38=100|40=1|54=1|55=6472|60=20231002-03:39:13.783976|10=088|
20231002-03:39:13.000 : 8=FIX.4.2|9=164|35=D|34=221|49=RSIT_EDP_1|52=20231002-03:39:13.000|56=FSX_SIT_EDP|1=RSIT_EDP_ACCOUNT_1|11=16962179536302000220|38=100|40=1|54=1|55=6473|60=20231002-03:39:13.788116|10=065|
20231002-03:39:13.000 : 8=FIX.4.2|9=164|35=D|34=222|49=RSIT_EDP_1|52=20231002-03:39:13.000|56=FSX_SIT_EDP|1=RSIT_EDP_ACCOUNT_1|11=16962179534016000221|38=100|40=1|54=1|55=6479|60=20231002-03:39:13.792836|10=077|
20231002-03:39:13.000 : 8=FIX.4.2|9=164|35=D|34=223|49=RSIT_EDP_1|52=20231002-03:39:13.000|56=FSX_SIT_EDP|1=RSIT_EDP_ACCOUNT_1|11=16962179534561000222|38=100|40=1|54=1|55=6481|60=20231002-03:39:13.797511|10=072|
20231002-03:39:13.000 : 8=FIX.4.2|9=164|35=D|34=224|49=RSIT_EDP_1|52=20231002-03:39:13.000|56=FSX_SIT_EDP|1=RSIT_EDP_ACCOUNT_1|11=16962179538452000223|38=100|40=1|54=1|55=6504|60=20231002-03:39:13.801799|10=077|
20231002-03:39:13.000 : 8=FIX.4.2|9=164|35=D|34=225|49=RSIT_EDP_1|52=20231002-03:39:13.000|56=FSX_SIT_EDP|1=RSIT_EDP_ACCOUNT_1|11=16962179531264000224|38=100|40=1|54=1|55=6506|60=20231002-03:39:13.806405|10=064|
20231002-03:39:13.000 : 8=FIX.4.2|9=164|35=D|34=226|49=RSIT_EDP_1|52=20231002-03:39:13.000|56=FSX_SIT_EDP|1=RSIT_EDP_ACCOUNT_1|11=16962179532716000225|38=100|40=1|54=1|55=6532|60=20231002-03:39:13.811009|10=064|
20231002-03:39:13.000 : 8=FIX.4.2|9=164|35=D|34=227|49=RSIT_EDP_1|52=20231002-03:39:13.000|56=FSX_SIT_EDP|1=RSIT_EDP_ACCOUNT_1|11=16962179538720000226|38=100|40=1|54=1|55=6586|60=20231002-03:39:13.815591|10=086|
20231002-03:39:13.000 : 8=FIX.4.2|9=164|35=D|34=228|49=RSIT_EDP_1|52=20231002-03:39:13.000|56=FSX_SIT_EDP|1=RSIT_EDP_ACCOUNT_1|11=16962179534160000227|38=100|40=1|54=1|55=6592|60=20231002-03:39:13.819517|10=081|
20231002-03:39:13.000 : 8=FIX.4.2|9=164|35=D|34=229|49=RSIT_EDP_1|52=20231002-03:39:13.000|56=FSX_SIT_EDP|1=RSIT_EDP_ACCOUNT_1|11=16962179531673000228|38=100|40=1|54=1|55=6674|60=20231002-03:39:13.823330|10=078|
20231002-03:39:13.000 : 8=FIX.4.2|9=164|35=D|34=230|49=RSIT_EDP_1|52=20231002-03:39:13.000|56=FSX_SIT_EDP|1=RSIT_EDP_ACCOUNT_1|11=16962179537168000229|38=100|40=1|54=1|55=6701|60=20231002-03:39:13.827895|10=087|
20231002-03:39:13.000 : 8=FIX.4.2|9=164|35=D|34=231|49=RSIT_EDP_1|52=20231002-03:39:13.000|56=FSX_SIT_EDP|1=RSIT_EDP_ACCOUNT_1|11=16962179530631000230|38=100|40=1|54=1|55=6724|60=20231002-03:39:13.832465|10=062|
20231002-03:39:13.000 : 8=FIX.4.2|9=164|35=D|34=232|49=RSIT_EDP_1|52=20231002-03:39:13.000|56=FSX_SIT_EDP|1=RSIT_EDP_ACCOUNT_1|11=16962179538346000231|38=100|40=1|54=1|55=6728|60=20231002-03:39:13.837061|10=076|
20231002-03:39:13.000 : 8=FIX.4.2|9=164|35=D|34=233|49=RSIT_EDP_1|52=20231002-03:39:13.000|56=FSX_SIT_EDP|1=RSIT_EDP_ACCOUNT_1|11=16962179534182000232|38=100|40=1|54=1|55=6753|60=20231002-03:39:13.841602|10=066|
20231002-03:39:13.000 : 8=FIX.4.2|9=164|35=D|34=234|49=RSIT_EDP_1|52=20231002-03:39:13.000|56=FSX_SIT_EDP|1=RSIT_EDP_ACCOUNT_1|11=16962179537365000233|38=100|40=1|54=1|55=6754|60=20231002-03:39:13.846199|10=091|
20231002-03:39:13.000 : 8=FIX.4.2|9=164|35=D|34=235|49=RSIT_EDP_1|52=20231002-03:39:13.000|56=FSX_SIT_EDP|1=RSIT_EDP_ACCOUNT_1|11=16962179538541000234|38=100|40=1|54=1|55=6755|60=20231002-03:39:13.850800|10=075|
20231002-03:39:13.000 : 8=FIX.4.2|9=164|35=D|34=236|49=RSIT_EDP_1|52=20231002-03:39:13.000|56=FSX_SIT_EDP|1=RSIT_EDP_ACCOUNT_1|11=16962179535837000235|38=100|40=1|54=1|55=6762|60=20231002-03:39:13.855474|10=092|
20231002-03:39:13.000 : 8=FIX.4.2|9=164|35=D|34=237|49=RSIT_EDP_1|52=20231002-03:39:13.000|56=FSX_SIT_EDP|1=RSIT_EDP_ACCOUNT_1|11=16962179537165000236|38=100|40=1|54=1|55=6770|60=20231002-03:39:13.860186|10=085|
20231002-03:39:13.000 : 8=FIX.4.2|9=164|35=D|34=238|49=RSIT_EDP_1|52=20231002-03:39:13.000|56=FSX_SIT_EDP|1=RSIT_EDP_ACCOUNT_1|11=16962179536875000237|38=100|40=1|54=1|55=6806|60=20231002-03:39:13.864896|10=106|
20231002-03:39:13.000 : 8=FIX.4.2|9=164|35=D|34=239|49=RSIT_EDP_1|52=20231002-03:39:13.000|56=FSX_SIT_EDP|1=RSIT_EDP_ACCOUNT_1|11=16962179537534000238|38=100|40=1|54=1|55=6841|60=20231002-03:39:13.869672|10=097|
20231002-03:39:13.000 : 8=FIX.4.2|9=164|35=D|34=240|49=RSIT_EDP_1|52=20231002-03:39:13.000|56=FSX_SIT_EDP|1=RSIT_EDP_ACCOUNT_1|11=16962179531635000239|38=100|40=1|54=1|55=6845|60=20231002-03:39:13.874420|10=077|
20231002-03:39:13.000 : 8=FIX.4.2|9=346|35=8|34=39|49=FSX_SIT_EDP|52=20231002-03:39:13.048|56=RSIT_EDP_1|1=RSIT_EDP_ACCOUNT_1|6=0|11=16962179525261000020|14=0|17=1708688055749345280|20=0|31=0|32=0|37=1708688055714963456|38=100|39=0|40=1|47=P|54=1|55=1963|59=3|60=20231002-03:39:13.048|76=EDP|109=101|110=0|150=0|151=100|544=1|8060=3|8164=EDP|8169=20231002-03:39:13.048126|8174=0|8214=0|10=028|
20231002-03:39:13.000 : 8=FIX.4.2|9=461|35=8|34=40|49=FSX_SIT_EDP|52=20231002-03:39:13.049|56=RSIT_EDP_1|1=RSIT_EDP_ACCOUNT_1|6=0|11=16962179525261000020|14=0|17=1708688055749345281|20=0|37=1708688055714963456|38=100|39=4|40=1|41=16962179525261000020|47=P|54=1|55=1963|58=ERROR_00010051,Order rejected due to IoC expired.|59=3|60=20231002-03:39:13.049|76=EDP|109=101|110=0|150=4|151=100|544=1|8031=1906|8032=1906|8033=1906|8051=03:39:13.024|8060=3|8164=EDP|8169=20231002-03:39:13.049670|8174=0|8214=0|10=140|
20231002-03:39:13.000 : 8=FIX.4.2|9=346|35=8|34=41|49=FSX_SIT_EDP|52=20231002-03:39:13.052|56=RSIT_EDP_1|1=RSIT_EDP_ACCOUNT_1|6=0|11=16962179525031000021|14=0|17=1708688055753216000|20=0|31=0|32=0|37=1708688055719157760|38=100|39=0|40=1|47=P|54=1|55=2002|59=3|60=20231002-03:39:13.052|76=EDP|109=101|110=0|150=0|151=100|544=1|8060=3|8164=EDP|8169=20231002-03:39:13.052818|8174=0|8214=0|10=231|
20231002-03:39:13.000 : 8=FIX.4.2|9=461|35=8|34=42|49=FSX_SIT_EDP|52=20231002-03:39:13.054|56=RSIT_EDP_1|1=RSIT_EDP_ACCOUNT_1|6=0|11=16962179525031000021|14=0|17=1708688055753216001|20=0|37=1708688055719157760|38=100|39=4|40=1|41=16962179525031000021|47=P|54=1|55=2002|58=ERROR_00010051,Order rejected due to IoC expired.|59=3|60=20231002-03:39:13.054|76=EDP|109=101|110=0|150=4|151=100|544=1|8031=1775|8032=1775|8033=1775|8051=03:39:13.026|8060=3|8164=EDP|8169=20231002-03:39:13.054208|8174=0|8214=0|10=098|
20231002-03:39:13.000 : 8=FIX.4.2|9=346|35=8|34=43|49=FSX_SIT_EDP|52=20231002-03:39:13.057|56=RSIT_EDP_1|1=RSIT_EDP_ACCOUNT_1|6=0|11=16962179527618000024|14=0|17=1708688055755980800|20=0|31=0|32=0|37=1708688055735934976|38=100|39=0|40=1|47=P|54=1|55=2181|59=3|60=20231002-03:39:13.057|76=EDP|109=101|110=0|150=0|151=100|544=1|8060=3|8164=EDP|8169=20231002-03:39:13.057350|8174=0|8214=0|10=035|
20231002-03:39:13.000 : 8=FIX.4.2|9=461|35=8|34=44|49=FSX_SIT_EDP|52=20231002-03:39:13.058|56=RSIT_EDP_1|1=RSIT_EDP_ACCOUNT_1|6=0|11=16962179527618000024|14=0|17=1708688055755980801|20=0|37=1708688055735934976|38=100|39=4|40=1|41=16962179527618000024|47=P|54=1|55=2181|58=ERROR_00010051,Order rejected due to IoC expired.|59=3|60=20231002-03:39:13.058|76=EDP|109=101|110=0|150=4|151=100|544=1|8031=2688|8032=2688|8033=2688|8051=03:39:13.030|8060=3|8164=EDP|8169=20231002-03:39:13.058329|8174=0|8214=0|10=191|
20231002-03:39:13.000 : 8=FIX.4.2|9=164|35=D|34=241|49=RSIT_EDP_1|52=20231002-03:39:13.000|56=FSX_SIT_EDP|1=RSIT_EDP_ACCOUNT_1|11=16962179538042000240|38=100|40=1|54=1|55=6849|60=20231002-03:39:13.878826|10=087|
20231002-03:39:13.000 : 8=FIX.4.2|9=164|35=D|34=242|49=RSIT_EDP_1|52=20231002-03:39:13.000|56=FSX_SIT_EDP|1=RSIT_EDP_ACCOUNT_1|11=16962179538502000241|38=100|40=1|54=1|55=6856|60=20231002-03:39:13.882966|10=088|
20231002-03:39:13.000 : 8=FIX.4.2|9=164|35=D|34=243|49=RSIT_EDP_1|52=20231002-03:39:13.000|56=FSX_SIT_EDP|1=RSIT_EDP_ACCOUNT_1|11=16962179533605000242|38=100|40=1|54=1|55=6857|60=20231002-03:39:13.887148|10=087|
20231002-03:39:13.000 : 8=FIX.4.2|9=164|35=D|34=244|49=RSIT_EDP_1|52=20231002-03:39:13.000|56=FSX_SIT_EDP|1=RSIT_EDP_ACCOUNT_1|11=16962179530726000243|38=100|40=1|54=1|55=6923|60=20231002-03:39:13.891776|10=086|
20231002-03:39:13.000 : 8=FIX.4.2|9=164|35=D|34=245|49=RSIT_EDP_1|52=20231002-03:39:13.000|56=FSX_SIT_EDP|1=RSIT_EDP_ACCOUNT_1|11=16962179534283000244|38=100|40=1|54=1|55=6925|60=20231002-03:39:13.896134|10=085|
20231002-03:39:13.000 : 8=FIX.4.2|9=164|35=D|34=246|49=RSIT_EDP_1|52=20231002-03:39:13.000|56=FSX_SIT_EDP|1=RSIT_EDP_ACCOUNT_1|11=16962179538276000245|38=100|40=1|54=1|55=6951|60=20231002-03:39:13.900891|10=088|
20231002-03:39:13.000 : 8=FIX.4.2|9=164|35=D|34=247|49=RSIT_EDP_1|52=20231002-03:39:13.000|56=FSX_SIT_EDP|1=RSIT_EDP_ACCOUNT_1|11=16962179537481000246|38=100|40=1|54=1|55=6952|60=20231002-03:39:13.905640|10=085|
20231002-03:39:13.000 : 8=FIX.4.2|9=164|35=D|34=248|49=RSIT_EDP_1|52=20231002-03:39:13.000|56=FSX_SIT_EDP|1=RSIT_EDP_ACCOUNT_1|11=16962179538243000247|38=100|40=1|54=1|55=6963|60=20231002-03:39:13.910357|10=087|
20231002-03:39:13.000 : 8=FIX.4.2|9=164|35=D|34=249|49=RSIT_EDP_1|52=20231002-03:39:13.000|56=FSX_SIT_EDP|1=RSIT_EDP_ACCOUNT_1|11=16962179533756000248|38=100|40=1|54=1|55=6965|60=20231002-03:39:13.915017|10=093|
20231002-03:39:13.000 : 8=FIX.4.2|9=164|35=D|34=250|49=RSIT_EDP_1|52=20231002-03:39:13.000|56=FSX_SIT_EDP|1=RSIT_EDP_ACCOUNT_1|11=16962179536401000249|38=100|40=1|54=1|55=6967|60=20231002-03:39:13.919621|10=083|
20231002-03:39:13.000 : 8=FIX.4.2|9=164|35=D|34=251|49=RSIT_EDP_1|52=20231002-03:39:13.000|56=FSX_SIT_EDP|1=RSIT_EDP_ACCOUNT_1|11=16962179534062000250|38=100|40=1|54=1|55=6976|60=20231002-03:39:13.924309|10=076|
20231002-03:39:13.000 : 8=FIX.4.2|9=164|35=D|34=252|49=RSIT_EDP_1|52=20231002-03:39:13.000|56=FSX_SIT_EDP|1=RSIT_EDP_ACCOUNT_1|11=16962179531036000251|38=100|40=1|54=1|55=6988|60=20231002-03:39:13.929039|10=084|
20231002-03:39:13.000 : 8=FIX.4.2|9=164|35=D|34=253|49=RSIT_EDP_1|52=20231002-03:39:13.000|56=FSX_SIT_EDP|1=RSIT_EDP_ACCOUNT_1|11=16962179531207000252|38=100|40=1|54=1|55=7012|60=20231002-03:39:13.933407|10=059|
20231002-03:39:13.000 : 8=FIX.4.2|9=164|35=D|34=254|49=RSIT_EDP_1|52=20231002-03:39:13.000|56=FSX_SIT_EDP|1=RSIT_EDP_ACCOUNT_1|11=16962179536123000253|38=100|40=1|54=1|55=7013|60=20231002-03:39:13.938055|10=068|
20231002-03:39:13.000 : 8=FIX.4.2|9=164|35=D|34=255|49=RSIT_EDP_1|52=20231002-03:39:13.000|56=FSX_SIT_EDP|1=RSIT_EDP_ACCOUNT_1|11=16962179538367000254|38=100|40=1|54=1|55=7164|60=20231002-03:39:13.942717|10=089|
20231002-03:39:13.000 : 8=FIX.4.2|9=164|35=D|34=256|49=RSIT_EDP_1|52=20231002-03:39:13.000|56=FSX_SIT_EDP|1=RSIT_EDP_ACCOUNT_1|11=16962179535314000255|38=100|40=1|54=1|55=7167|60=20231002-03:39:13.947504|10=082|
20231002-03:39:13.000 : 8=FIX.4.2|9=164|35=D|34=257|49=RSIT_EDP_1|52=20231002-03:39:13.000|56=FSX_SIT_EDP|1=RSIT_EDP_ACCOUNT_1|11=16962179532147000256|38=100|40=1|54=1|55=7180|60=20231002-03:39:13.952448|10=083|
20231002-03:39:13.000 : 8=FIX.4.2|9=164|35=D|34=258|49=RSIT_EDP_1|52=20231002-03:39:13.000|56=FSX_SIT_EDP|1=RSIT_EDP_ACCOUNT_1|11=16962179536428000257|38=100|40=1|54=1|55=7181|60=20231002-03:39:13.956931|10=093|
20231002-03:39:13.000 : 8=FIX.4.2|9=164|35=D|34=259|49=RSIT_EDP_1|52=20231002-03:39:13.000|56=FSX_SIT_EDP|1=RSIT_EDP_ACCOUNT_1|11=16962179536710000258|38=100|40=1|54=1|55=7182|60=20231002-03:39:13.961583|10=089|
20231002-03:39:13.000 : 8=FIX.4.2|9=164|35=D|34=260|49=RSIT_EDP_1|52=20231002-03:39:13.000|56=FSX_SIT_EDP|1=RSIT_EDP_ACCOUNT_1|11=16962179535326000259|38=100|40=1|54=1|55=7186|60=20231002-03:39:13.966211|10=081|
20231002-03:39:13.000 : 8=FIX.4.2|9=164|35=D|34=261|49=RSIT_EDP_1|52=20231002-03:39:13.000|56=FSX_SIT_EDP|1=RSIT_EDP_ACCOUNT_1|11=16962179538231000260|38=100|40=1|54=1|55=7202|60=20231002-03:39:13.970937|10=071|
20231002-03:39:13.000 : 8=FIX.4.2|9=164|35=D|34=262|49=RSIT_EDP_1|52=20231002-03:39:13.000|56=FSX_SIT_EDP|1=RSIT_EDP_ACCOUNT_1|11=16962179534175000261|38=100|40=1|54=1|55=7205|60=20231002-03:39:13.975796|10=087|
20231002-03:39:13.000 : 8=FIX.4.2|9=164|35=D|34=263|49=RSIT_EDP_1|52=20231002-03:39:13.000|56=FSX_SIT_EDP|1=RSIT_EDP_ACCOUNT_1|11=16962179532605000262|38=100|40=1|54=1|55=7211|60=20231002-03:39:13.979885|10=085|
20231002-03:39:13.000 : 8=FIX.4.2|9=164|35=D|34=264|49=RSIT_EDP_1|52=20231002-03:39:13.000|56=FSX_SIT_EDP|1=RSIT_EDP_ACCOUNT_1|11=16962179531273000263|38=100|40=1|54=1|55=7240|60=20231002-03:39:13.984627|10=079|
20231002-03:39:13.000 : 8=FIX.4.2|9=164|35=D|34=265|49=RSIT_EDP_1|52=20231002-03:39:13.000|56=FSX_SIT_EDP|1=RSIT_EDP_ACCOUNT_1|11=16962179533687000264|38=100|40=1|54=1|55=7259|60=20231002-03:39:13.989429|10=107|
20231002-03:39:13.000 : 8=FIX.4.2|9=164|35=D|34=266|49=RSIT_EDP_1|52=20231002-03:39:13.000|56=FSX_SIT_EDP|1=RSIT_EDP_ACCOUNT_1|11=16962179533278000265|38=100|40=1|54=1|55=7261|60=20231002-03:39:13.994182|10=090|
20231002-03:39:13.000 : 8=FIX.4.2|9=164|35=D|34=267|49=RSIT_EDP_1|52=20231002-03:39:13.000|56=FSX_SIT_EDP|1=RSIT_EDP_ACCOUNT_1|11=16962179531270000266|38=100|40=1|54=1|55=7272|60=20231002-03:39:13.998365|10=091|
20231002-03:39:14.000 : 8=FIX.4.2|9=164|35=D|34=268|49=RSIT_EDP_1|52=20231002-03:39:14.000|56=FSX_SIT_EDP|1=RSIT_EDP_ACCOUNT_1|11=16962179540512000267|38=100|40=1|54=1|55=7276|60=20231002-03:39:14.003009|10=070|
20231002-03:39:14.000 : 8=FIX.4.2|9=164|35=D|34=269|49=RSIT_EDP_1|52=20231002-03:39:14.000|56=FSX_SIT_EDP|1=RSIT_EDP_ACCOUNT_1|11=16962179545021000268|38=100|40=1|54=1|55=7282|60=20231002-03:39:14.007716|10=078|
20231002-03:39:14.000 : 8=FIX.4.2|9=164|35=D|34=270|49=RSIT_EDP_1|52=20231002-03:39:14.000|56=FSX_SIT_EDP|1=RSIT_EDP_ACCOUNT_1|11=16962179542046000269|38=100|40=1|54=1|55=7313|60=20231002-03:39:14.012213|10=058|
20231002-03:39:14.000 : 8=FIX.4.2|9=164|35=D|34=271|49=RSIT_EDP_1|52=20231002-03:39:14.000|56=FSX_SIT_EDP|1=RSIT_EDP_ACCOUNT_1|11=16962179542408000270|38=100|40=1|54=1|55=7337|60=20231002-03:39:14.017081|10=067|
20231002-03:39:14.000 : 8=FIX.4.2|9=164|35=D|34=272|49=RSIT_EDP_1|52=20231002-03:39:14.000|56=FSX_SIT_EDP|1=RSIT_EDP_ACCOUNT_1|11=16962179545860000271|38=100|40=1|54=1|55=7453|60=20231002-03:39:14.022219|10=072|
20231002-03:39:14.000 : 8=FIX.4.2|9=164|35=D|34=273|49=RSIT_EDP_1|52=20231002-03:39:14.000|56=FSX_SIT_EDP|1=RSIT_EDP_ACCOUNT_1|11=16962179546051000272|38=100|40=1|54=1|55=7458|60=20231002-03:39:14.027128|10=076|
20231002-03:39:14.000 : 8=FIX.4.2|9=164|35=D|34=274|49=RSIT_EDP_1|52=20231002-03:39:14.000|56=FSX_SIT_EDP|1=RSIT_EDP_ACCOUNT_1|11=16962179544085000273|38=100|40=1|54=1|55=7459|60=20231002-03:39:14.031822|10=080|
20231002-03:39:14.000 : 8=FIX.4.2|9=164|35=D|34=275|49=RSIT_EDP_1|52=20231002-03:39:14.000|56=FSX_SIT_EDP|1=RSIT_EDP_ACCOUNT_1|11=16962179546731000274|38=100|40=1|54=1|55=7476|60=20231002-03:39:14.036555|10=089|
20231002-03:39:14.000 : 8=FIX.4.2|9=164|35=D|34=276|49=RSIT_EDP_1|52=20231002-03:39:14.000|56=FSX_SIT_EDP|1=RSIT_EDP_ACCOUNT_1|11=16962179540671000275|38=100|40=1|54=1|55=7518|60=20231002-03:39:14.041378|10=084|
20231002-03:39:14.000 : 8=FIX.4.2|9=164|35=D|34=277|49=RSIT_EDP_1|52=20231002-03:39:14.000|56=FSX_SIT_EDP|1=RSIT_EDP_ACCOUNT_1|11=16962179543854000276|38=100|40=1|54=1|55=7532|60=20231002-03:39:14.046376|10=091|
20231002-03:39:14.000 : 8=FIX.4.2|9=164|35=D|34=278|49=RSIT_EDP_1|52=20231002-03:39:14.000|56=FSX_SIT_EDP|1=RSIT_EDP_ACCOUNT_1|11=16962179542785000277|38=100|40=1|54=1|55=7550|60=20231002-03:39:14.051318|10=087|
20231002-03:39:14.000 : 8=FIX.4.2|9=164|35=D|34=279|49=RSIT_EDP_1|52=20231002-03:39:14.000|56=FSX_SIT_EDP|1=RSIT_EDP_ACCOUNT_1|11=16962179545482000278|38=100|40=1|54=1|55=7616|60=20231002-03:39:14.055320|10=086|
20231002-03:39:14.000 : 8=FIX.4.2|9=164|35=D|34=280|49=RSIT_EDP_1|52=20231002-03:39:14.000|56=FSX_SIT_EDP|1=RSIT_EDP_ACCOUNT_1|11=16962179544615000279|38=100|40=1|54=1|55=7649|60=20231002-03:39:14.060198|10=091|
20231002-03:39:14.000 : 8=FIX.4.2|9=164|35=D|34=281|49=RSIT_EDP_1|52=20231002-03:39:14.000|56=FSX_SIT_EDP|1=RSIT_EDP_ACCOUNT_1|11=16962179541457000280|38=100|40=1|54=1|55=7701|60=20231002-03:39:14.064969|10=084|
20231002-03:39:14.000 : 8=FIX.4.2|9=164|35=D|34=282|49=RSIT_EDP_1|52=20231002-03:39:14.000|56=FSX_SIT_EDP|1=RSIT_EDP_ACCOUNT_1|11=16962179545726000281|38=100|40=1|54=1|55=7730|60=20231002-03:39:14.069819|10=090|
20231002-03:39:14.000 : 8=FIX.4.2|9=164|35=D|34=283|49=RSIT_EDP_1|52=20231002-03:39:14.000|56=FSX_SIT_EDP|1=RSIT_EDP_ACCOUNT_1|11=16962179546427000282|38=100|40=1|54=1|55=7731|60=20231002-03:39:14.074588|10=091|
20231002-03:39:14.000 : 8=FIX.4.2|9=164|35=D|34=284|49=RSIT_EDP_1|52=20231002-03:39:14.000|56=FSX_SIT_EDP|1=RSIT_EDP_ACCOUNT_1|11=16962179540341000283|38=100|40=1|54=1|55=7732|60=20231002-03:39:14.078815|10=080|
20231002-03:39:14.000 : 8=FIX.4.2|9=164|35=D|34=285|49=RSIT_EDP_1|52=20231002-03:39:14.000|56=FSX_SIT_EDP|1=RSIT_EDP_ACCOUNT_1|11=16962179546802000284|38=100|40=1|54=1|55=7735|60=20231002-03:39:14.083497|10=095|
20231002-03:39:14.000 : 8=FIX.4.2|9=346|35=8|34=45|49=FSX_SIT_EDP|52=20231002-03:39:13.061|56=RSIT_EDP_1|1=RSIT_EDP_ACCOUNT_1|6=0|11=16962179526530000022|14=0|17=1708688055761928192|20=0|31=0|32=0|37=1708688055727546368|38=100|39=0|40=1|47=P|54=1|55=2127|59=3|60=20231002-03:39:13.061|76=EDP|109=101|110=0|150=0|151=100|544=1|8060=3|8164=EDP|8169=20231002-03:39:13.061744|8174=0|8214=0|10=017|
20231002-03:39:14.000 : 8=FIX.4.2|9=164|35=D|34=286|49=RSIT_EDP_1|52=20231002-03:39:14.000|56=FSX_SIT_EDP|1=RSIT_EDP_ACCOUNT_1|11=16962179548703000285|38=100|40=1|54=1|55=7747|60=20231002-03:39:14.088392|10=101|
20231002-03:39:14.000 : 8=FIX.4.2|9=461|35=8|34=46|49=FSX_SIT_EDP|52=20231002-03:39:13.063|56=RSIT_EDP_1|1=RSIT_EDP_ACCOUNT_1|6=0|11=16962179526530000022|14=0|17=1708688055761928193|20=0|37=1708688055727546368|38=100|39=4|40=1|41=16962179526530000022|47=P|54=1|55=2127|58=ERROR_00010051,Order rejected due to IoC expired.|59=3|60=20231002-03:39:13.063|76=EDP|109=101|110=0|150=4|151=100|544=1|8031=1106|8032=1106|8033=1106|8051=03:39:13.027|8060=3|8164=EDP|8169=20231002-03:39:13.063064|8174=0|8214=0|10=113|
20231002-03:39:14.000 : 8=FIX.4.2|9=346|35=8|34=47|49=FSX_SIT_EDP|52=20231002-03:39:13.066|56=RSIT_EDP_1|1=RSIT_EDP_ACCOUNT_1|6=0|11=16962179523420000023|14=0|17=1708688055772758016|20=0|31=0|32=0|37=1708688055731740672|38=100|39=0|40=1|47=P|54=1|55=2175|59=3|60=20231002-03:39:13.066|76=EDP|109=101|110=0|150=0|151=100|544=1|8060=3|8164=EDP|8169=20231002-03:39:13.066484|8174=0|8214=0|10=021|
20231002-03:39:14.000 : 8=FIX.4.2|9=461|35=8|34=48|49=FSX_SIT_EDP|52=20231002-03:39:13.068|56=RSIT_EDP_1|1=RSIT_EDP_ACCOUNT_1|6=0|11=16962179523420000023|14=0|17=1708688055772758017|20=0|37=1708688055731740672|38=100|39=4|40=1|41=16962179523420000023|47=P|54=1|55=2175|58=ERROR_00010051,Order rejected due to IoC expired.|59=3|60=20231002-03:39:13.067|76=EDP|109=101|110=0|150=4|151=100|544=1|8031=2836|8032=2836|8033=2836|8051=03:39:13.029|8060=3|8164=EDP|8169=20231002-03:39:13.067945|8174=0|8214=0|10=153|
20231002-03:39:14.000 : 8=FIX.4.2|9=164|35=D|34=287|49=RSIT_EDP_1|52=20231002-03:39:14.000|56=FSX_SIT_EDP|1=RSIT_EDP_ACCOUNT_1|11=16962179545024000286|38=100|40=1|54=1|55=7752|60=20231002-03:39:14.093537|10=089|
20231002-03:39:14.000 : 8=FIX.4.2|9=164|35=D|34=288|49=RSIT_EDP_1|52=20231002-03:39:14.000|56=FSX_SIT_EDP|1=RSIT_EDP_ACCOUNT_1|11=16962179544253000287|38=100|40=1|54=1|55=7780|60=20231002-03:39:14.098319|10=098|
20231002-03:39:14.000 : 8=FIX.4.2|9=164|35=D|34=289|49=RSIT_EDP_1|52=20231002-03:39:14.000|56=FSX_SIT_EDP|1=RSIT_EDP_ACCOUNT_1|11=16962179541205000288|38=100|40=1|54=1|55=7846|60=20231002-03:39:14.102960|10=085|
20231002-03:39:14.000 : 8=FIX.4.2|9=164|35=D|34=290|49=RSIT_EDP_1|52=20231002-03:39:14.000|56=FSX_SIT_EDP|1=RSIT_EDP_ACCOUNT_1|11=16962179548650000289|38=100|40=1|54=1|55=7911|60=20231002-03:39:14.107735|10=087|
20231002-03:39:14.000 : 8=FIX.4.2|9=164|35=D|34=291|49=RSIT_EDP_1|52=20231002-03:39:14.000|56=FSX_SIT_EDP|1=RSIT_EDP_ACCOUNT_1|11=16962179546540000290|38=100|40=1|54=1|55=7912|60=20231002-03:39:14.112223|10=065|
20231002-03:39:14.000 : 8=FIX.4.2|9=164|35=D|34=292|49=RSIT_EDP_1|52=20231002-03:39:14.000|56=FSX_SIT_EDP|1=RSIT_EDP_ACCOUNT_1|11=16962179545241000291|38=100|40=1|54=1|55=7936|60=20231002-03:39:14.116796|10=089|
20231002-03:39:14.000 : 8=FIX.4.2|9=164|35=D|34=293|49=RSIT_EDP_1|52=20231002-03:39:14.000|56=FSX_SIT_EDP|1=RSIT_EDP_ACCOUNT_1|11=16962179546745000292|38=100|40=1|54=1|55=7947|60=20231002-03:39:14.121547|10=093|
20231002-03:39:14.000 : 8=FIX.4.2|9=164|35=D|34=294|49=RSIT_EDP_1|52=20231002-03:39:14.000|56=FSX_SIT_EDP|1=RSIT_EDP_ACCOUNT_1|11=16962179541480000293|38=100|40=1|54=1|55=7951|60=20231002-03:39:14.126401|10=075|
20231002-03:39:14.000 : 8=FIX.4.2|9=164|35=D|34=295|49=RSIT_EDP_1|52=20231002-03:39:14.000|56=FSX_SIT_EDP|1=RSIT_EDP_ACCOUNT_1|11=16962179547652000294|38=100|40=1|54=1|55=7956|60=20231002-03:39:14.131216|10=089|
20231002-03:39:14.000 : 8=FIX.4.2|9=164|35=D|34=296|49=RSIT_EDP_1|52=20231002-03:39:14.000|56=FSX_SIT_EDP|1=RSIT_EDP_ACCOUNT_1|11=16962179545346000295|38=100|40=1|54=1|55=7966|60=20231002-03:39:14.135902|10=096|
20231002-03:39:14.000 : 8=FIX.4.2|9=164|35=D|34=297|49=RSIT_EDP_1|52=20231002-03:39:14.000|56=FSX_SIT_EDP|1=RSIT_EDP_ACCOUNT_1|11=16962179545120000296|38=100|40=1|54=1|55=7984|60=20231002-03:39:14.140650|10=084|
20231002-03:39:14.000 : 8=FIX.4.2|9=164|35=D|34=298|49=RSIT_EDP_1|52=20231002-03:39:14.000|56=FSX_SIT_EDP|1=RSIT_EDP_ACCOUNT_1|11=16962179544016000297|38=100|40=1|54=1|55=7988|60=20231002-03:39:14.145522|10=096|
20231002-03:39:14.000 : 8=FIX.4.2|9=164|35=D|34=299|49=RSIT_EDP_1|52=20231002-03:39:14.000|56=FSX_SIT_EDP|1=RSIT_EDP_ACCOUNT_1|11=16962179540584000298|38=100|40=1|54=1|55=8012|60=20231002-03:39:14.150335|10=081|
20231002-03:39:14.000 : 8=FIX.4.2|9=164|35=D|34=300|49=RSIT_EDP_1|52=20231002-03:39:14.000|56=FSX_SIT_EDP|1=RSIT_EDP_ACCOUNT_1|11=16962179548746000299|38=100|40=1|54=1|55=8015|60=20231002-03:39:14.155184|10=083|
20231002-03:39:14.000 : 8=FIX.4.2|9=164|35=D|34=301|49=RSIT_EDP_1|52=20231002-03:39:14.000|56=FSX_SIT_EDP|1=RSIT_EDP_ACCOUNT_1|11=16962179541435000300|38=100|40=1|54=1|55=8056|60=20231002-03:39:14.159872|10=068|
20231002-03:39:14.000 : 8=FIX.4.2|9=164|35=D|34=302|49=RSIT_EDP_1|52=20231002-03:39:14.000|56=FSX_SIT_EDP|1=RSIT_EDP_ACCOUNT_1|11=16962179540152000301|38=100|40=1|54=1|55=8060|60=20231002-03:39:14.164641|10=050|
20231002-03:39:14.000 : 8=FIX.4.2|9=164|35=D|34=303|49=RSIT_EDP_1|52=20231002-03:39:14.000|56=FSX_SIT_EDP|1=RSIT_EDP_ACCOUNT_1|11=16962179542854000302|38=100|40=1|54=1|55=8086|60=20231002-03:39:14.169342|10=074|
20231002-03:39:14.000 : 8=FIX.4.2|9=164|35=D|34=304|49=RSIT_EDP_1|52=20231002-03:39:14.000|56=FSX_SIT_EDP|1=RSIT_EDP_ACCOUNT_1|11=16962179542315000303|38=100|40=1|54=1|55=8088|60=20231002-03:39:14.173242|10=064|
20231002-03:39:14.000 : 8=FIX.4.2|9=164|35=D|34=305|49=RSIT_EDP_1|52=20231002-03:39:14.000|56=FSX_SIT_EDP|1=RSIT_EDP_ACCOUNT_1|11=16962179546547000304|38=100|40=1|54=1|55=8111|60=20231002-03:39:14.177922|10=073|
20231002-03:39:14.000 : 8=FIX.4.2|9=164|35=D|34=306|49=RSIT_EDP_1|52=20231002-03:39:14.000|56=FSX_SIT_EDP|1=RSIT_EDP_ACCOUNT_1|11=16962179547230000305|38=100|40=1|54=1|55=8129|60=20231002-03:39:14.182569|10=077|
20231002-03:39:14.000 : 8=FIX.4.2|9=164|35=D|34=307|49=RSIT_EDP_1|52=20231002-03:39:14.000|56=FSX_SIT_EDP|1=RSIT_EDP_ACCOUNT_1|11=16962179541408000306|38=100|40=1|54=1|55=8136|60=20231002-03:39:14.187169|10=079|
20231002-03:39:14.000 : 8=FIX.4.2|9=164|35=D|34=308|49=RSIT_EDP_1|52=20231002-03:39:14.000|56=FSX_SIT_EDP|1=RSIT_EDP_ACCOUNT_1|11=16962179547203000307|38=100|40=1|54=1|55=8174|60=20231002-03:39:14.192044|10=070|
20231002-03:39:14.000 : 8=FIX.4.2|9=346|35=8|34=49|49=FSX_SIT_EDP|52=20231002-03:39:13.070|56=RSIT_EDP_1|1=RSIT_EDP_ACCOUNT_1|6=0|11=16962179527465000025|14=0|17=1708688055764369408|20=0|31=0|32=0|37=1708688055744323584|38=100|39=0|40=1|47=P|54=1|55=2201|59=3|60=20231002-03:39:13.070|76=EDP|109=101|110=0|150=0|151=100|544=1|8060=3|8164=EDP|8169=20231002-03:39:13.070749|8174=0|8214=0|10=024|
20231002-03:39:14.000 : 8=FIX.4.2|9=461|35=8|34=50|49=FSX_SIT_EDP|52=20231002-03:39:13.072|56=RSIT_EDP_1|1=RSIT_EDP_ACCOUNT_1|6=0|11=16962179527465000025|14=0|17=1708688055764369409|20=0|37=1708688055744323584|38=100|39=4|40=1|41=16962179527465000025|47=P|54=1|55=2201|58=ERROR_00010051,Order rejected due to IoC expired.|59=3|60=20231002-03:39:13.071|76=EDP|109=101|110=0|150=4|151=100|544=1|8031=4696|8032=4696|8033=4696|8051=03:39:13.031|8060=3|8164=EDP|8169=20231002-03:39:13.071926|8174=0|8214=0|10=168|
20231002-03:39:14.000 : 8=FIX.4.2|9=346|35=8|34=51|49=FSX_SIT_EDP|52=20231002-03:39:13.083|56=RSIT_EDP_1|1=RSIT_EDP_ACCOUNT_1|6=0|11=16962179526413000026|14=0|17=1708688055904534528|20=0|31=0|32=0|37=1708688055865958400|38=100|39=0|40=1|47=P|54=1|55=2206|59=3|60=20231002-03:39:13.083|76=EDP|109=101|110=0|150=0|151=100|544=1|8060=3|8164=EDP|8169=20231002-03:39:13.083733|8174=0|8214=0|10=018|
20231002-03:39:14.000 : 8=FIX.4.2|9=164|35=D|34=309|49=RSIT_EDP_1|52=20231002-03:39:14.000|56=FSX_SIT_EDP|1=RSIT_EDP_ACCOUNT_1|11=16962179546583000308|38=100|40=1|54=1|55=8227|60=20231002-03:39:14.196792|10=095|
20231002-03:39:14.000 : 8=FIX.4.2|9=164|35=D|34=310|49=RSIT_EDP_1|52=20231002-03:39:14.000|56=FSX_SIT_EDP|1=RSIT_EDP_ACCOUNT_1|11=16962179546407000309|38=100|40=1|54=1|55=8233|60=20231002-03:39:14.201562|10=062|
20231002-03:39:14.000 : 8=FIX.4.2|9=164|35=D|34=311|49=RSIT_EDP_1|52=20231002-03:39:14.000|56=FSX_SIT_EDP|1=RSIT_EDP_ACCOUNT_1|11=16962179544260000310|38=100|40=1|54=1|55=8252|60=20231002-03:39:14.206360|10=052|
20231002-03:39:14.000 : 8=FIX.4.2|9=164|35=D|34=312|49=RSIT_EDP_1|52=20231002-03:39:14.000|56=FSX_SIT_EDP|1=RSIT_EDP_ACCOUNT_1|11=16962179544685000311|38=100|40=1|54=1|55=8253|60=20231002-03:39:14.211105|10=059|
20231002-03:39:14.000 : 8=FIX.4.2|9=164|35=D|34=313|49=RSIT_EDP_1|52=20231002-03:39:14.000|56=FSX_SIT_EDP|1=RSIT_EDP_ACCOUNT_1|11=16962179540517000312|38=100|40=1|54=1|55=8273|60=20231002-03:39:14.215925|10=067|
20231002-03:39:14.000 : 8=FIX.4.2|9=164|35=D|34=314|49=RSIT_EDP_1|52=20231002-03:39:14.000|56=FSX_SIT_EDP|1=RSIT_EDP_ACCOUNT_1|11=16962179547513000313|38=100|40=1|54=1|55=8279|60=20231002-03:39:14.220586|10=077|
20231002-03:39:14.000 : 8=FIX.4.2|9=164|35=D|34=315|49=RSIT_EDP_1|52=20231002-03:39:14.000|56=FSX_SIT_EDP|1=RSIT_EDP_ACCOUNT_1|11=16962179546714000314|38=100|40=1|54=1|55=8282|60=20231002-03:39:14.225357|10=076|
20231002-03:39:14.000 : 8=FIX.4.2|9=164|35=D|34=316|49=RSIT_EDP_1|52=20231002-03:39:14.000|56=FSX_SIT_EDP|1=RSIT_EDP_ACCOUNT_1|11=16962179542015000315|38=100|40=1|54=1|55=8283|60=20231002-03:39:14.230177|10=065|
20231002-03:39:14.000 : 8=FIX.4.2|9=164|35=D|34=317|49=RSIT_EDP_1|52=20231002-03:39:14.000|56=FSX_SIT_EDP|1=RSIT_EDP_ACCOUNT_1|11=16962179540423000316|38=100|40=1|54=1|55=8303|60=20231002-03:39:14.235156|10=063|
20231002-03:39:14.000 : 8=FIX.4.2|9=164|35=D|34=318|49=RSIT_EDP_1|52=20231002-03:39:14.000|56=FSX_SIT_EDP|1=RSIT_EDP_ACCOUNT_1|11=16962179541428000317|38=100|40=1|54=1|55=8304|60=20231002-03:39:14.239916|10=080|
20231002-03:39:14.000 : 8=FIX.4.2|9=164|35=D|34=319|49=RSIT_EDP_1|52=20231002-03:39:14.000|56=FSX_SIT_EDP|1=RSIT_EDP_ACCOUNT_1|11=16962179541364000318|38=100|40=1|54=1|55=8331|60=20231002-03:39:14.244656|10=078|
20231002-03:39:14.000 : 8=FIX.4.2|9=164|35=D|34=320|49=RSIT_EDP_1|52=20231002-03:39:14.000|56=FSX_SIT_EDP|1=RSIT_EDP_ACCOUNT_1|11=16962179542016000319|38=100|40=1|54=1|55=8334|60=20231002-03:39:14.249405|10=066|
20231002-03:39:14.000 : 8=FIX.4.2|9=164|35=D|34=321|49=RSIT_EDP_1|52=20231002-03:39:14.000|56=FSX_SIT_EDP|1=RSIT_EDP_ACCOUNT_1|11=16962179542357000320|38=100|40=1|54=1|55=8354|60=20231002-03:39:14.254207|10=065|
20231002-03:39:14.000 : 8=FIX.4.2|9=164|35=D|34=322|49=RSIT_EDP_1|52=20231002-03:39:14.000|56=FSX_SIT_EDP|1=RSIT_EDP_ACCOUNT_1|11=16962179548012000321|38=100|40=1|54=1|55=8359|60=20231002-03:39:14.258963|10=079|
20231002-03:39:14.000 : 8=FIX.4.2|9=164|35=D|34=323|49=RSIT_EDP_1|52=20231002-03:39:14.000|56=FSX_SIT_EDP|1=RSIT_EDP_ACCOUNT_1|11=16962179540234000322|38=100|40=1|54=1|55=8369|60=20231002-03:39:14.263201|10=061|
20231002-03:39:14.000 : 8=FIX.4.2|9=164|35=D|34=324|49=RSIT_EDP_1|52=20231002-03:39:14.000|56=FSX_SIT_EDP|1=RSIT_EDP_ACCOUNT_1|11=16962179546137000323|38=100|40=1|54=1|55=8377|60=20231002-03:39:14.267980|10=088|
20231002-03:39:14.000 : 8=FIX.4.2|9=164|35=D|34=325|49=RSIT_EDP_1|52=20231002-03:39:14.000|56=FSX_SIT_EDP|1=RSIT_EDP_ACCOUNT_1|11=16962179544162000324|38=100|40=1|54=1|55=8410|60=20231002-03:39:14.272830|10=064|
20231002-03:39:14.000 : 8=FIX.4.2|9=164|35=D|34=326|49=RSIT_EDP_1|52=20231002-03:39:14.000|56=FSX_SIT_EDP|1=RSIT_EDP_ACCOUNT_1|11=16962179541420000325|38=100|40=1|54=1|55=8418|60=20231002-03:39:14.277530|10=070|
20231002-03:39:14.000 : 8=FIX.4.2|9=164|35=D|34=327|49=RSIT_EDP_1|52=20231002-03:39:14.000|56=FSX_SIT_EDP|1=RSIT_EDP_ACCOUNT_1|11=16962179540168000326|38=100|40=1|54=1|55=8439|60=20231002-03:39:14.282326|10=082|
20231002-03:39:14.000 : 8=FIX.4.2|9=164|35=D|34=328|49=RSIT_EDP_1|52=20231002-03:39:14.000|56=FSX_SIT_EDP|1=RSIT_EDP_ACCOUNT_1|11=16962179542631000327|38=100|40=1|54=1|55=8473|60=20231002-03:39:14.287158|10=087|
20231002-03:39:14.000 : 8=FIX.4.2|9=164|35=D|34=329|49=RSIT_EDP_1|52=20231002-03:39:14.000|56=FSX_SIT_EDP|1=RSIT_EDP_ACCOUNT_1|11=16962179546758000328|38=100|40=1|54=1|55=8570|60=20231002-03:39:14.292240|10=089|
20231002-03:39:14.000 : 8=FIX.4.2|9=164|35=D|34=330|49=RSIT_EDP_1|52=20231002-03:39:14.000|56=FSX_SIT_EDP|1=RSIT_EDP_ACCOUNT_1|11=16962179542063000329|38=100|40=1|54=1|55=8572|60=20231002-03:39:14.297184|10=081|
20231002-03:39:14.000 : 8=FIX.4.2|9=164|35=D|34=331|49=RSIT_EDP_1|52=20231002-03:39:14.000|56=FSX_SIT_EDP|1=RSIT_EDP_ACCOUNT_1|11=16962179545016000330|38=100|40=1|54=1|55=8593|60=20231002-03:39:14.302095|10=066|
20231002-03:39:14.000 : 8=FIX.4.2|9=164|35=D|34=332|49=RSIT_EDP_1|52=20231002-03:39:14.000|56=FSX_SIT_EDP|1=RSIT_EDP_ACCOUNT_1|11=16962179544528000331|38=100|40=1|54=1|55=8595|60=20231002-03:39:14.306914|10=081|
20231002-03:39:14.000 : 8=FIX.4.2|9=164|35=D|34=333|49=RSIT_EDP_1|52=20231002-03:39:14.000|56=FSX_SIT_EDP|1=RSIT_EDP_ACCOUNT_1|11=16962179545480000332|38=100|40=1|54=1|55=8601|60=20231002-03:39:14.311760|10=064|
20231002-03:39:14.000 : 8=FIX.4.2|9=164|35=D|34=334|49=RSIT_EDP_1|52=20231002-03:39:14.000|56=FSX_SIT_EDP|1=RSIT_EDP_ACCOUNT_1|11=16962179545124000333|38=100|40=1|54=1|55=8795|60=20231002-03:39:14.316744|10=082|
20231002-03:39:14.000 : 8=FIX.4.2|9=164|35=D|34=335|49=RSIT_EDP_1|52=20231002-03:39:14.000|56=FSX_SIT_EDP|1=RSIT_EDP_ACCOUNT_1|11=16962179548357000334|38=100|40=1|54=1|55=8804|60=20231002-03:39:14.321652|10=080|
20231002-03:39:14.000 : 8=FIX.4.2|9=164|35=D|34=336|49=RSIT_EDP_1|52=20231002-03:39:14.000|56=FSX_SIT_EDP|1=RSIT_EDP_ACCOUNT_1|11=16962179547546000335|38=100|40=1|54=1|55=8876|60=20231002-03:39:14.326498|10=103|
20231002-03:39:14.000 : 8=FIX.4.2|9=164|35=D|34=337|49=RSIT_EDP_1|52=20231002-03:39:14.000|56=FSX_SIT_EDP|1=RSIT_EDP_ACCOUNT_1|11=16962179548763000336|38=100|40=1|54=1|55=8905|60=20231002-03:39:14.331316|10=085|
20231002-03:39:14.000 : 8=FIX.4.2|9=164|35=D|34=338|49=RSIT_EDP_1|52=20231002-03:39:14.000|56=FSX_SIT_EDP|1=RSIT_EDP_ACCOUNT_1|11=16962179548647000337|38=100|40=1|54=1|55=9001|60=20231002-03:39:14.336481|10=084|
20231002-03:39:14.000 : 8=FIX.4.2|9=164|35=D|34=339|49=RSIT_EDP_1|52=20231002-03:39:14.000|56=FSX_SIT_EDP|1=RSIT_EDP_ACCOUNT_1|11=16962179540624000338|38=100|40=1|54=1|55=9003|60=20231002-03:39:14.341433|10=068|
20231002-03:39:14.000 : 8=FIX.4.2|9=164|35=D|34=340|49=RSIT_EDP_1|52=20231002-03:39:14.000|56=FSX_SIT_EDP|1=RSIT_EDP_ACCOUNT_1|11=16962179542376000339|38=100|40=1|54=1|55=9005|60=20231002-03:39:14.346335|10=075|
20231002-03:39:14.000 : 8=FIX.4.2|9=164|35=D|34=341|49=RSIT_EDP_1|52=20231002-03:39:14.000|56=FSX_SIT_EDP|1=RSIT_EDP_ACCOUNT_1|11=16962179547436000340|38=100|40=1|54=1|55=9006|60=20231002-03:39:14.351445|10=069|
20231002-03:39:14.000 : 8=FIX.4.2|9=164|35=D|34=342|49=RSIT_EDP_1|52=20231002-03:39:14.000|56=FSX_SIT_EDP|1=RSIT_EDP_ACCOUNT_1|11=16962179544721000341|38=100|40=1|54=1|55=9007|60=20231002-03:39:14.356214|10=065|
20231002-03:39:14.000 : 8=FIX.4.2|9=164|35=D|34=343|49=RSIT_EDP_1|52=20231002-03:39:14.000|56=FSX_SIT_EDP|1=RSIT_EDP_ACCOUNT_1|11=16962179547015000342|38=100|40=1|54=1|55=9008|60=20231002-03:39:14.361078|10=071|
20231002-03:39:14.000 : 8=FIX.4.2|9=164|35=D|34=344|49=RSIT_EDP_1|52=20231002-03:39:14.000|56=FSX_SIT_EDP|1=RSIT_EDP_ACCOUNT_1|11=16962179540467000343|38=100|40=1|54=1|55=9009|60=20231002-03:39:14.365833|10=081|
20231002-03:39:14.000 : 8=FIX.4.2|9=164|35=D|34=345|49=RSIT_EDP_1|52=20231002-03:39:14.000|56=FSX_SIT_EDP|1=RSIT_EDP_ACCOUNT_1|11=16962179541240000344|38=100|40=1|54=1|55=9024|60=20231002-03:39:14.370527|10=066|
20231002-03:39:14.000 : 8=FIX.4.2|9=164|35=D|34=346|49=RSIT_EDP_1|52=20231002-03:39:14.000|56=FSX_SIT_EDP|1=RSIT_EDP_ACCOUNT_1|11=16962179544608000345|38=100|40=1|54=1|55=9031|60=20231002-03:39:14.375346|10=081|
20231002-03:39:14.000 : 8=FIX.4.2|9=164|35=D|34=347|49=RSIT_EDP_1|52=20231002-03:39:14.000|56=FSX_SIT_EDP|1=RSIT_EDP_ACCOUNT_1|11=16962179548157000346|38=100|40=1|54=1|55=9041|60=20231002-03:39:14.380327|10=082|
20231002-03:39:14.000 : 8=FIX.4.2|9=164|35=D|34=348|49=RSIT_EDP_1|52=20231002-03:39:14.000|56=FSX_SIT_EDP|1=RSIT_EDP_ACCOUNT_1|11=16962179540416000347|38=100|40=1|54=1|55=9042|60=20231002-03:39:14.384775|10=086|
20231002-03:39:14.000 : 8=FIX.4.2|9=164|35=D|34=349|49=RSIT_EDP_1|52=20231002-03:39:14.000|56=FSX_SIT_EDP|1=RSIT_EDP_ACCOUNT_1|11=16962179546458000348|38=100|40=1|54=1|55=9044|60=20231002-03:39:14.389656|10=105|
20231002-03:39:14.000 : 8=FIX.4.2|9=164|35=D|34=350|49=RSIT_EDP_1|52=20231002-03:39:14.000|56=FSX_SIT_EDP|1=RSIT_EDP_ACCOUNT_1|11=16962179544268000349|38=100|40=1|54=1|55=9045|60=20231002-03:39:14.394450|10=084|
20231002-03:39:14.000 : 8=FIX.4.2|9=164|35=D|34=351|49=RSIT_EDP_1|52=20231002-03:39:14.000|56=FSX_SIT_EDP|1=RSIT_EDP_ACCOUNT_1|11=16962179545431000350|38=100|40=1|54=1|55=9048|60=20231002-03:39:14.399678|10=090|
20231002-03:39:14.000 : 8=FIX.4.2|9=164|35=D|34=352|49=RSIT_EDP_1|52=20231002-03:39:14.000|56=FSX_SIT_EDP|1=RSIT_EDP_ACCOUNT_1|11=16962179540236000351|38=100|40=1|54=1|55=9064|60=20231002-03:39:14.404848|10=074|
20231002-03:39:14.000 : 8=FIX.4.2|9=461|35=8|34=52|49=FSX_SIT_EDP|52=20231002-03:39:13.085|56=RSIT_EDP_1|1=RSIT_EDP_ACCOUNT_1|6=0|11=16962179526413000026|14=0|17=1708688055904534529|20=0|37=1708688055865958400|38=100|39=4|40=1|41=16962179526413000026|47=P|54=1|55=2206|58=ERROR_00010051,Order rejected due to IoC expired.|59=3|60=20231002-03:39:13.085|76=EDP|109=101|110=0|150=4|151=100|544=1|8031=3836|8032=3836|8033=3836|8051=03:39:13.060|8060=3|8164=EDP|8169=20231002-03:39:13.085115|8174=0|8214=0|10=150|
20231002-03:39:14.000 : 8=FIX.4.2|9=346|35=8|34=53|49=FSX_SIT_EDP|52=20231002-03:39:13.087|56=RSIT_EDP_1|1=RSIT_EDP_ACCOUNT_1|6=0|11=16962179525241000028|14=0|17=1708688055908159488|20=0|31=0|32=0|37=1708688055878541312|38=100|39=0|40=1|47=P|54=1|55=2229|59=3|60=20231002-03:39:13.087|76=EDP|109=101|110=0|150=0|151=100|544=1|8060=3|8164=EDP|8169=20231002-03:39:13.087799|8174=0|8214=0|10=055|
20231002-03:39:14.000 : 8=FIX.4.2|9=461|35=8|34=54|49=FSX_SIT_EDP|52=20231002-03:39:13.089|56=RSIT_EDP_1|1=RSIT_EDP_ACCOUNT_1|6=0|11=16962179525241000028|14=0|17=1708688055908159489|20=0|37=1708688055878541312|38=100|39=4|40=1|41=16962179525241000028|47=P|54=1|55=2229|58=ERROR_00010051,Order rejected due to IoC expired.|59=3|60=20231002-03:39:13.089|76=EDP|109=101|110=0|150=4|151=100|544=1|8031=2803|8032=2803|8033=2803|8051=03:39:13.063|8060=3|8164=EDP|8169=20231002-03:39:13.089221|8174=0|8214=0|10=155|
20231002-03:39:14.000 : 8=FIX.4.2|9=346|35=8|34=55|49=FSX_SIT_EDP|52=20231002-03:39:13.091|56=RSIT_EDP_1|1=RSIT_EDP_ACCOUNT_1|6=0|11=16962179523102000032|14=0|17=1708688055908159490|20=0|31=0|32=0|37=1708688055903707136|38=100|39=0|40=1|47=P|54=1|55=2282|59=3|60=20231002-03:39:13.091|76=EDP|109=101|110=0|150=0|151=100|544=1|8060=3|8164=EDP|8169=20231002-03:39:13.091731|8174=0|8214=0|10=006|
20231002-03:39:14.000 : 8=FIX.4.2|9=461|35=8|34=56|49=FSX_SIT_EDP|52=20231002-03:39:13.093|56=RSIT_EDP_1|1=RSIT_EDP_ACCOUNT_1|6=0|11=16962179523102000032|14=0|17=1708688055908159491|20=0|37=1708688055903707136|38=100|39=4|40=1|41=16962179523102000032|47=P|54=1|55=2282|58=ERROR_00010051,Order rejected due to IoC expired.|59=3|60=20231002-03:39:13.093|76=EDP|109=101|110=0|150=4|151=100|544=1|8031=4056|8032=4056|8033=4056|8051=03:39:13.069|8060=3|8164=EDP|8169=20231002-03:39:13.093072|8174=0|8214=0|10=125|
20231002-03:39:14.000 : 8=FIX.4.2|9=346|35=8|34=57|49=FSX_SIT_EDP|52=20231002-03:39:13.095|56=RSIT_EDP_1|1=RSIT_EDP_ACCOUNT_1|6=0|11=16962179524732000027|14=0|17=1708688055902781440|20=0|31=0|32=0|37=1708688055870152704|38=100|39=0|40=1|47=P|54=1|55=2212|59=3|60=20231002-03:39:13.095|76=EDP|109=101|110=0|150=0|151=100|544=1|8060=3|8164=EDP|8169=20231002-03:39:13.095666|8174=0|8214=0|10=022|
