20231002-03:38:35.000 : 8=FIX.4.2|9=84|35=A|34=1|49=RSIT_EDP_99|52=20231002-03:38:35.000|56=FSX_SIT_EDP|98=0|108=300|141=Y|10=016|
20231002-03:39:35.000 : 8=FIX.4.2|9=84|35=A|34=1|49=RSIT_EDP_99|52=20231002-03:39:35.000|56=FSX_SIT_EDP|98=0|108=300|141=Y|10=017|
20231002-03:40:36.000 : 8=FIX.4.2|9=84|35=A|34=1|49=RSIT_EDP_99|52=20231002-03:40:36.000|56=FSX_SIT_EDP|98=0|108=300|141=Y|10=010|
20231002-03:41:35.000 : 8=FIX.4.2|9=84|35=A|34=1|49=RSIT_EDP_99|52=20231002-03:41:35.000|56=FSX_SIT_EDP|98=0|108=300|141=Y|10=010|
20231002-03:42:35.000 : 8=FIX.4.2|9=84|35=A|34=1|49=RSIT_EDP_99|52=20231002-03:42:35.000|56=FSX_SIT_EDP|98=0|108=300|141=Y|10=011|
20231002-03:43:35.000 : 8=FIX.4.2|9=84|35=A|34=1|49=RSIT_EDP_99|52=20231002-03:43:35.000|56=FSX_SIT_EDP|98=0|108=300|141=Y|10=012|
