20231016-08:30:16.000 : 8=FIX.4.2|9=82|35=A|34=1|49=UAT_EDP_6|52=20231016-08:30:16.000|56=FSX_SIT_EDP|98=0|108=300|141=Y|10=123|
20231016-08:31:16.000 : 8=FIX.4.2|9=82|35=A|34=1|49=UAT_EDP_6|52=20231016-08:31:16.000|56=FSX_SIT_EDP|98=0|108=300|141=Y|10=124|
20231016-08:31:21.000 : 8=FIX.4.2|9=82|35=A|34=1|49=UAT_EDP_6|52=20231016-08:31:21.000|56=FSX_SIT_EDP|98=0|108=300|141=Y|10=120|
20231016-08:32:16.000 : 8=FIX.4.2|9=82|35=A|34=1|49=UAT_EDP_6|52=20231016-08:32:16.000|56=FSX_SIT_EDP|98=0|108=300|141=Y|10=125|
20231016-08:32:21.000 : 8=FIX.4.2|9=82|35=A|34=1|49=UAT_EDP_6|52=20231016-08:32:21.000|56=FSX_SIT_EDP|98=0|108=300|141=Y|10=121|
20231016-08:33:16.000 : 8=FIX.4.2|9=82|35=A|34=1|49=UAT_EDP_6|52=20231016-08:33:16.000|56=FSX_SIT_EDP|98=0|108=300|141=Y|10=126|
20231016-08:33:21.000 : 8=FIX.4.2|9=82|35=A|34=1|49=UAT_EDP_6|52=20231016-08:33:21.000|56=FSX_SIT_EDP|98=0|108=300|141=Y|10=122|
20231016-08:34:15.000 : 8=FIX.4.2|9=82|35=A|34=1|49=UAT_EDP_6|52=20231016-08:34:15.000|56=FSX_SIT_EDP|98=0|108=300|141=Y|10=126|
20231016-08:34:16.000 : 8=FIX.4.2|9=82|35=A|34=1|49=UAT_EDP_6|52=20231016-08:34:16.000|56=FSX_SIT_EDP|98=0|108=300|141=Y|10=127|
20231016-08:34:21.000 : 8=FIX.4.2|9=82|35=A|34=1|49=UAT_EDP_6|52=20231016-08:34:21.000|56=FSX_SIT_EDP|98=0|108=300|141=Y|10=123|
20231016-08:35:15.000 : 8=FIX.4.2|9=82|35=A|34=1|49=UAT_EDP_6|52=20231016-08:35:15.000|56=FSX_SIT_EDP|98=0|108=300|141=Y|10=127|
20231016-08:35:16.000 : 8=FIX.4.2|9=82|35=A|34=1|49=UAT_EDP_6|52=20231016-08:35:16.000|56=FSX_SIT_EDP|98=0|108=300|141=Y|10=128|
20231016-08:35:21.000 : 8=FIX.4.2|9=82|35=A|34=1|49=UAT_EDP_6|52=20231016-08:35:21.000|56=FSX_SIT_EDP|98=0|108=300|141=Y|10=124|
20231016-08:36:06.000 : 8=FIX.4.2|9=82|35=A|34=1|49=UAT_EDP_6|52=20231016-08:36:06.000|56=FSX_SIT_EDP|98=0|108=300|141=Y|10=128|
20231016-08:36:15.000 : 8=FIX.4.2|9=82|35=A|34=1|49=UAT_EDP_6|52=20231016-08:36:15.000|56=FSX_SIT_EDP|98=0|108=300|141=Y|10=128|
20231016-08:36:16.000 : 8=FIX.4.2|9=82|35=A|34=1|49=UAT_EDP_6|52=20231016-08:36:16.000|56=FSX_SIT_EDP|98=0|108=300|141=Y|10=129|
20231016-08:36:21.000 : 8=FIX.4.2|9=82|35=A|34=1|49=UAT_EDP_6|52=20231016-08:36:21.000|56=FSX_SIT_EDP|98=0|108=300|141=Y|10=125|
20231016-08:37:15.000 : 8=FIX.4.2|9=82|35=A|34=1|49=UAT_EDP_6|52=20231016-08:37:15.000|56=FSX_SIT_EDP|98=0|108=300|141=Y|10=129|
20231016-08:37:16.000 : 8=FIX.4.2|9=82|35=A|34=1|49=UAT_EDP_6|52=20231016-08:37:16.000|56=FSX_SIT_EDP|98=0|108=300|141=Y|10=130|
20231016-08:37:21.000 : 8=FIX.4.2|9=82|35=A|34=1|49=UAT_EDP_6|52=20231016-08:37:21.000|56=FSX_SIT_EDP|98=0|108=300|141=Y|10=126|
20231016-08:38:15.000 : 8=FIX.4.2|9=82|35=A|34=1|49=UAT_EDP_6|52=20231016-08:38:15.000|56=FSX_SIT_EDP|98=0|108=300|141=Y|10=130|
20231016-08:38:16.000 : 8=FIX.4.2|9=82|35=A|34=1|49=UAT_EDP_6|52=20231016-08:38:16.000|56=FSX_SIT_EDP|98=0|108=300|141=Y|10=131|
20231016-08:38:22.000 : 8=FIX.4.2|9=82|35=A|34=1|49=UAT_EDP_6|52=20231016-08:38:22.000|56=FSX_SIT_EDP|98=0|108=300|141=Y|10=128|
