2023-10-11 16:07:20,353 : (Core) S >> 8=FIX.4.2|9=87|35=A|34=1|49=FSX_UAT_EDP_DC|52=20231011-07:07:20.000|56=RUAT_EDP_DC_6|98=0|108=5|141=Y|10=051|
2023-10-11 16:07:20,427 : (Core) R << 8=FIX.4.2|9=87|35=A|34=1|49=RUAT_EDP_DC_6|52=20231011-07:07:20.409|56=FSX_UAT_EDP_DC|98=0|108=5|141=Y|10=064|
2023-10-11 16:07:25,426 : (Core) S >> 8=FIX.4.2|9=70|35=0|34=2|49=FSX_UAT_EDP_DC|52=20231011-07:07:25.000|56=RUAT_EDP_DC_6|10=008|
2023-10-11 16:07:25,430 : (Core) R << 8=FIX.4.2|9=70|35=0|34=2|49=RUAT_EDP_DC_6|52=20231011-07:07:25.412|56=FSX_UAT_EDP_DC|10=015|
2023-10-11 16:07:30,415 : (Core) S >> 8=FIX.4.2|9=70|35=0|34=3|49=FSX_UAT_EDP_DC|52=20231011-07:07:30.000|56=RUAT_EDP_DC_6|10=005|
2023-10-11 16:07:30,561 : (Core) R << 8=FIX.4.2|9=70|35=0|34=3|49=RUAT_EDP_DC_6|52=20231011-07:07:30.483|56=FSX_UAT_EDP_DC|10=020|
2023-10-11 16:07:35,522 : (Core) S >> 8=FIX.4.2|9=70|35=0|34=4|49=FSX_UAT_EDP_DC|52=20231011-07:07:35.000|56=RUAT_EDP_DC_6|10=011|
2023-10-11 16:07:35,676 : (Core) R << 8=FIX.4.2|9=70|35=0|34=4|49=RUAT_EDP_DC_6|52=20231011-07:07:35.576|56=FSX_UAT_EDP_DC|10=029|
2023-10-11 16:07:40,598 : (Core) R << 8=FIX.4.2|9=70|35=0|34=5|49=RUAT_EDP_DC_6|52=20231011-07:07:40.580|56=FSX_UAT_EDP_DC|10=021|
2023-10-11 16:07:40,599 : (Core) S >> 8=FIX.4.2|9=70|35=0|34=5|49=FSX_UAT_EDP_DC|52=20231011-07:07:40.000|56=RUAT_EDP_DC_6|10=008|
2023-10-11 16:07:45,530 : (Core) S >> 8=FIX.4.2|9=70|35=0|34=6|49=FSX_UAT_EDP_DC|52=20231011-07:07:45.000|56=RUAT_EDP_DC_6|10=014|
2023-10-11 16:07:45,615 : (Core) R << 8=FIX.4.2|9=70|35=0|34=6|49=RUAT_EDP_DC_6|52=20231011-07:07:45.586|56=FSX_UAT_EDP_DC|10=033|
2023-10-11 16:07:50,525 : (Core) S >> 8=FIX.4.2|9=70|35=0|34=7|49=FSX_UAT_EDP_DC|52=20231011-07:07:50.000|56=RUAT_EDP_DC_6|10=011|
2023-10-11 16:07:50,593 : (Core) R << 8=FIX.4.2|9=70|35=0|34=7|49=RUAT_EDP_DC_6|52=20231011-07:07:50.579|56=FSX_UAT_EDP_DC|10=032|
2023-10-11 16:07:55,491 : (Core) S >> 8=FIX.4.2|9=70|35=0|34=8|49=FSX_UAT_EDP_DC|52=20231011-07:07:55.000|56=RUAT_EDP_DC_6|10=017|
2023-10-11 16:07:55,558 : (Core) R << 8=FIX.4.2|9=70|35=0|34=8|49=RUAT_EDP_DC_6|52=20231011-07:07:55.545|56=FSX_UAT_EDP_DC|10=031|
2023-10-11 16:08:00,440 : (Core) S >> 8=FIX.4.2|9=70|35=0|34=9|49=FSX_UAT_EDP_DC|52=20231011-07:08:00.000|56=RUAT_EDP_DC_6|10=009|
2023-10-11 16:08:00,508 : (Core) R << 8=FIX.4.2|9=70|35=0|34=9|49=RUAT_EDP_DC_6|52=20231011-07:08:00.494|56=FSX_UAT_EDP_DC|10=026|
2023-10-11 16:08:05,369 : (Core) S >> 8=FIX.4.2|9=71|35=0|34=10|49=FSX_UAT_EDP_DC|52=20231011-07:08:05.000|56=RUAT_EDP_DC_6|10=055|
2023-10-11 16:08:05,436 : (Core) R << 8=FIX.4.2|9=71|35=0|34=10|49=RUAT_EDP_DC_6|52=20231011-07:08:05.422|56=FSX_UAT_EDP_DC|10=063|
2023-10-11 16:08:10,288 : (Core) S >> 8=FIX.4.2|9=71|35=0|34=11|49=FSX_UAT_EDP_DC|52=20231011-07:08:10.000|56=RUAT_EDP_DC_6|10=052|
2023-10-11 16:08:10,356 : (Core) R << 8=FIX.4.2|9=71|35=0|34=11|49=RUAT_EDP_DC_6|52=20231011-07:08:10.343|56=FSX_UAT_EDP_DC|10=062|
2023-10-11 16:08:15,190 : (Core) S >> 8=FIX.4.2|9=71|35=0|34=12|49=FSX_UAT_EDP_DC|52=20231011-07:08:15.000|56=RUAT_EDP_DC_6|10=058|
2023-10-11 16:08:15,257 : (Core) R << 8=FIX.4.2|9=71|35=0|34=12|49=RUAT_EDP_DC_6|52=20231011-07:08:15.245|56=FSX_UAT_EDP_DC|10=069|
2023-10-11 16:08:20,068 : (Core) S >> 8=FIX.4.2|9=71|35=0|34=13|49=FSX_UAT_EDP_DC|52=20231011-07:08:20.000|56=RUAT_EDP_DC_6|10=055|
2023-10-11 16:08:20,137 : (Core) R << 8=FIX.4.2|9=71|35=0|34=13|49=RUAT_EDP_DC_6|52=20231011-07:08:20.124|56=FSX_UAT_EDP_DC|10=062|
2023-10-11 16:08:25,138 : (Core) R << 8=FIX.4.2|9=71|35=0|34=14|49=RUAT_EDP_DC_6|52=20231011-07:08:25.126|56=FSX_UAT_EDP_DC|10=070|
2023-10-11 16:08:25,139 : (Core) S >> 8=FIX.4.2|9=71|35=0|34=14|49=FSX_UAT_EDP_DC|52=20231011-07:08:25.000|56=RUAT_EDP_DC_6|10=061|
2023-10-11 16:08:30,209 : (Core) R << 8=FIX.4.2|9=71|35=0|34=15|49=RUAT_EDP_DC_6|52=20231011-07:08:30.196|56=FSX_UAT_EDP_DC|10=074|
2023-10-11 16:08:30,209 : (Core) S >> 8=FIX.4.2|9=71|35=0|34=15|49=FSX_UAT_EDP_DC|52=20231011-07:08:30.000|56=RUAT_EDP_DC_6|10=058|
2023-10-11 16:08:35,382 : (Core) R << 8=FIX.4.2|9=71|35=0|34=16|49=RUAT_EDP_DC_6|52=20231011-07:08:35.265|56=FSX_UAT_EDP_DC|10=077|
2023-10-11 16:08:35,383 : (Core) S >> 8=FIX.4.2|9=71|35=0|34=16|49=FSX_UAT_EDP_DC|52=20231011-07:08:35.000|56=RUAT_EDP_DC_6|10=064|
2023-10-11 16:08:40,135 : (Core) S >> 8=FIX.4.2|9=71|35=0|34=17|49=FSX_UAT_EDP_DC|52=20231011-07:08:40.000|56=RUAT_EDP_DC_6|10=061|
2023-10-11 16:08:40,204 : (Core) R << 8=FIX.4.2|9=71|35=0|34=17|49=RUAT_EDP_DC_6|52=20231011-07:08:40.191|56=FSX_UAT_EDP_DC|10=072|
2023-10-11 16:08:45,208 : (Core) R << 8=FIX.4.2|9=71|35=0|34=18|49=RUAT_EDP_DC_6|52=20231011-07:08:45.194|56=FSX_UAT_EDP_DC|10=081|
2023-10-11 16:08:45,208 : (Core) S >> 8=FIX.4.2|9=71|35=0|34=18|49=FSX_UAT_EDP_DC|52=20231011-07:08:45.000|56=RUAT_EDP_DC_6|10=067|
2023-10-11 16:08:50,276 : (Core) R << 8=FIX.4.2|9=71|35=0|34=19|49=RUAT_EDP_DC_6|52=20231011-07:08:50.263|56=FSX_UAT_EDP_DC|10=075|
2023-10-11 16:08:50,277 : (Core) S >> 8=FIX.4.2|9=71|35=0|34=19|49=FSX_UAT_EDP_DC|52=20231011-07:08:50.000|56=RUAT_EDP_DC_6|10=064|
2023-10-11 16:08:52,431 : (Core) R << 8=FIX.4.2|9=80|35=1|34=20|49=RUAT_EDP_DC_6|52=20231011-07:08:51.264|56=FSX_UAT_EDP_DC|112=TEST|10=088|
2023-10-11 16:08:52,431 : (Core) S >> 8=FIX.4.2|9=80|35=0|34=20|49=FSX_UAT_EDP_DC|52=20231011-07:08:52.000|56=RUAT_EDP_DC_6|112=TEST|10=076|
2023-10-11 16:08:56,578 : (Core) R << 8=FIX.4.2|9=71|35=0|34=21|49=RUAT_EDP_DC_6|52=20231011-07:08:56.531|56=FSX_UAT_EDP_DC|10=072|
2023-10-11 16:08:57,514 : (Core) S >> 8=FIX.4.2|9=71|35=0|34=21|49=FSX_UAT_EDP_DC|52=20231011-07:08:57.000|56=RUAT_EDP_DC_6|10=064|
2023-10-11 16:09:01,584 : (Core) R << 8=FIX.4.2|9=71|35=0|34=22|49=RUAT_EDP_DC_6|52=20231011-07:09:01.571|56=FSX_UAT_EDP_DC|10=068|
2023-10-11 16:09:02,519 : (Core) S >> 8=FIX.4.2|9=71|35=0|34=22|49=FSX_UAT_EDP_DC|52=20231011-07:09:02.000|56=RUAT_EDP_DC_6|10=056|
2023-10-11 16:09:06,613 : (Core) R << 8=FIX.4.2|9=71|35=0|34=23|49=RUAT_EDP_DC_6|52=20231011-07:09:06.578|56=FSX_UAT_EDP_DC|10=081|
2023-10-11 16:09:07,546 : (Core) S >> 8=FIX.4.2|9=71|35=0|34=23|49=FSX_UAT_EDP_DC|52=20231011-07:09:07.000|56=RUAT_EDP_DC_6|10=062|
2023-10-11 16:09:11,631 : (Core) R << 8=FIX.4.2|9=71|35=0|34=24|49=RUAT_EDP_DC_6|52=20231011-07:09:11.603|56=FSX_UAT_EDP_DC|10=067|
2023-10-11 16:09:12,557 : (Core) S >> 8=FIX.4.2|9=71|35=0|34=24|49=FSX_UAT_EDP_DC|52=20231011-07:09:12.000|56=RUAT_EDP_DC_6|10=059|
2023-10-11 16:09:16,654 : (Core) R << 8=FIX.4.2|9=71|35=0|34=25|49=RUAT_EDP_DC_6|52=20231011-07:09:16.615|56=FSX_UAT_EDP_DC|10=076|
2023-10-11 16:09:17,580 : (Core) S >> 8=FIX.4.2|9=71|35=0|34=25|49=FSX_UAT_EDP_DC|52=20231011-07:09:17.000|56=RUAT_EDP_DC_6|10=065|
2023-10-11 16:09:21,671 : (Core) R << 8=FIX.4.2|9=71|35=0|34=26|49=RUAT_EDP_DC_6|52=20231011-07:09:21.638|56=FSX_UAT_EDP_DC|10=078|
2023-10-11 16:09:22,595 : (Core) S >> 8=FIX.4.2|9=71|35=0|34=26|49=FSX_UAT_EDP_DC|52=20231011-07:09:22.000|56=RUAT_EDP_DC_6|10=062|
2023-10-11 16:09:26,683 : (Core) R << 8=FIX.4.2|9=71|35=0|34=27|49=RUAT_EDP_DC_6|52=20231011-07:09:26.651|56=FSX_UAT_EDP_DC|10=079|
2023-10-11 16:09:27,614 : (Core) S >> 8=FIX.4.2|9=71|35=0|34=27|49=FSX_UAT_EDP_DC|52=20231011-07:09:27.000|56=RUAT_EDP_DC_6|10=068|
2023-10-11 16:09:31,701 : (Core) R << 8=FIX.4.2|9=71|35=0|34=28|49=RUAT_EDP_DC_6|52=20231011-07:09:31.672|56=FSX_UAT_EDP_DC|10=079|
2023-10-11 16:09:32,615 : (Core) S >> 8=FIX.4.2|9=71|35=0|34=28|49=FSX_UAT_EDP_DC|52=20231011-07:09:32.000|56=RUAT_EDP_DC_6|10=065|
2023-10-11 16:09:36,721 : (Core) R << 8=FIX.4.2|9=71|35=0|34=29|49=RUAT_EDP_DC_6|52=20231011-07:09:36.686|56=FSX_UAT_EDP_DC|10=090|
2023-10-11 16:09:37,638 : (Core) S >> 8=FIX.4.2|9=71|35=0|34=29|49=FSX_UAT_EDP_DC|52=20231011-07:09:37.000|56=RUAT_EDP_DC_6|10=071|
2023-10-11 16:09:41,709 : (Core) R << 8=FIX.4.2|9=71|35=0|34=30|49=RUAT_EDP_DC_6|52=20231011-07:09:41.695|56=FSX_UAT_EDP_DC|10=078|
2023-10-11 16:09:42,620 : (Core) S >> 8=FIX.4.2|9=71|35=0|34=30|49=FSX_UAT_EDP_DC|52=20231011-07:09:42.000|56=RUAT_EDP_DC_6|10=059|
2023-10-11 16:09:46,691 : (Core) R << 8=FIX.4.2|9=71|35=0|34=31|49=RUAT_EDP_DC_6|52=20231011-07:09:46.678|56=FSX_UAT_EDP_DC|10=085|
2023-10-11 16:09:47,598 : (Core) S >> 8=FIX.4.2|9=71|35=0|34=31|49=FSX_UAT_EDP_DC|52=20231011-07:09:47.000|56=RUAT_EDP_DC_6|10=065|
2023-10-11 16:09:51,762 : (Core) R << 8=FIX.4.2|9=71|35=0|34=32|49=RUAT_EDP_DC_6|52=20231011-07:09:51.664|56=FSX_UAT_EDP_DC|10=077|
2023-10-11 16:09:52,662 : (Core) S >> 8=FIX.4.2|9=71|35=0|34=32|49=FSX_UAT_EDP_DC|52=20231011-07:09:52.000|56=RUAT_EDP_DC_6|10=062|
2023-10-11 16:09:56,730 : (Core) R << 8=FIX.4.2|9=71|35=0|34=33|49=RUAT_EDP_DC_6|52=20231011-07:09:56.716|56=FSX_UAT_EDP_DC|10=081|
2023-10-11 16:09:57,628 : (Core) S >> 8=FIX.4.2|9=71|35=0|34=33|49=FSX_UAT_EDP_DC|52=20231011-07:09:57.000|56=RUAT_EDP_DC_6|10=068|
2023-10-11 16:10:01,808 : (Core) R << 8=FIX.4.2|9=71|35=0|34=34|49=RUAT_EDP_DC_6|52=20231011-07:10:01.686|56=FSX_UAT_EDP_DC|10=070|
2023-10-11 16:10:02,700 : (Core) S >> 8=FIX.4.2|9=71|35=0|34=34|49=FSX_UAT_EDP_DC|52=20231011-07:10:02.000|56=RUAT_EDP_DC_6|10=051|
2023-10-11 16:10:06,825 : (Core) R << 8=FIX.4.2|9=71|35=0|34=35|49=RUAT_EDP_DC_6|52=20231011-07:10:06.761|56=FSX_UAT_EDP_DC|10=070|
2023-10-11 16:10:07,715 : (Core) S >> 8=FIX.4.2|9=71|35=0|34=35|49=FSX_UAT_EDP_DC|52=20231011-07:10:07.000|56=RUAT_EDP_DC_6|10=057|
2023-10-11 16:10:12,020 : (Core) R << 8=FIX.4.2|9=71|35=0|34=36|49=RUAT_EDP_DC_6|52=20231011-07:10:11.775|56=FSX_UAT_EDP_DC|10=072|
2023-10-11 16:10:12,020 : (Core) S >> 8=FIX.4.2|9=71|35=0|34=36|49=FSX_UAT_EDP_DC|52=20231011-07:10:12.000|56=RUAT_EDP_DC_6|10=054|
2023-10-11 16:10:16,090 : (Core) R << 8=FIX.4.2|9=71|35=0|34=37|49=RUAT_EDP_DC_6|52=20231011-07:10:16.075|56=FSX_UAT_EDP_DC|10=071|
2023-10-11 16:10:17,853 : (Core) S >> 8=FIX.4.2|9=71|35=0|34=37|49=FSX_UAT_EDP_DC|52=20231011-07:10:17.000|56=RUAT_EDP_DC_6|10=060|
2023-10-11 16:10:22,166 : (Core) R << 8=FIX.4.2|9=71|35=0|34=38|49=RUAT_EDP_DC_6|52=20231011-07:10:21.910|56=FSX_UAT_EDP_DC|10=066|
2023-10-11 16:10:22,167 : (Core) S >> 8=FIX.4.2|9=71|35=0|34=38|49=FSX_UAT_EDP_DC|52=20231011-07:10:22.000|56=RUAT_EDP_DC_6|10=057|
2023-10-11 16:10:26,234 : (Core) R << 8=FIX.4.2|9=71|35=0|34=39|49=RUAT_EDP_DC_6|52=20231011-07:10:26.222|56=FSX_UAT_EDP_DC|10=068|
2023-10-11 16:10:27,109 : (Core) S >> 8=FIX.4.2|9=71|35=0|34=39|49=FSX_UAT_EDP_DC|52=20231011-07:10:27.000|56=RUAT_EDP_DC_6|10=063|
2023-10-11 16:10:31,181 : (Core) R << 8=FIX.4.2|9=71|35=0|34=40|49=RUAT_EDP_DC_6|52=20231011-07:10:31.168|56=FSX_UAT_EDP_DC|10=065|
2023-10-11 16:10:32,053 : (Core) S >> 8=FIX.4.2|9=71|35=0|34=40|49=FSX_UAT_EDP_DC|52=20231011-07:10:32.000|56=RUAT_EDP_DC_6|10=051|
2023-10-11 16:10:36,184 : (Core) R << 8=FIX.4.2|9=71|35=0|34=41|49=RUAT_EDP_DC_6|52=20231011-07:10:36.114|56=FSX_UAT_EDP_DC|10=062|
2023-10-11 16:10:37,050 : (Core) S >> 8=FIX.4.2|9=71|35=0|34=41|49=FSX_UAT_EDP_DC|52=20231011-07:10:37.000|56=RUAT_EDP_DC_6|10=057|
2023-10-11 16:10:41,120 : (Core) R << 8=FIX.4.2|9=71|35=0|34=42|49=RUAT_EDP_DC_6|52=20231011-07:10:41.107|56=FSX_UAT_EDP_DC|10=061|
2023-10-11 16:10:42,844 : (Core) S >> 8=FIX.4.2|9=71|35=0|34=42|49=FSX_UAT_EDP_DC|52=20231011-07:10:42.000|56=RUAT_EDP_DC_6|10=054|
2023-10-11 16:10:46,966 : (Core) R << 8=FIX.4.2|9=71|35=0|34=43|49=RUAT_EDP_DC_6|52=20231011-07:10:46.904|56=FSX_UAT_EDP_DC|10=072|
2023-10-11 16:10:47,827 : (Core) S >> 8=FIX.4.2|9=71|35=0|34=43|49=FSX_UAT_EDP_DC|52=20231011-07:10:47.000|56=RUAT_EDP_DC_6|10=060|
2023-10-11 16:10:51,983 : (Core) R << 8=FIX.4.2|9=71|35=0|34=44|49=RUAT_EDP_DC_6|52=20231011-07:10:51.886|56=FSX_UAT_EDP_DC|10=078|
2023-10-11 16:10:52,839 : (Core) S >> 8=FIX.4.2|9=71|35=0|34=44|49=FSX_UAT_EDP_DC|52=20231011-07:10:52.000|56=RUAT_EDP_DC_6|10=057|
2023-10-11 16:10:56,909 : (Core) R << 8=FIX.4.2|9=71|35=0|34=45|49=RUAT_EDP_DC_6|52=20231011-07:10:56.895|56=FSX_UAT_EDP_DC|10=084|
2023-10-11 16:10:57,759 : (Core) S >> 8=FIX.4.2|9=71|35=0|34=45|49=FSX_UAT_EDP_DC|52=20231011-07:10:57.000|56=RUAT_EDP_DC_6|10=063|
2023-10-11 16:11:01,829 : (Core) R << 8=FIX.4.2|9=71|35=0|34=46|49=RUAT_EDP_DC_6|52=20231011-07:11:01.817|56=FSX_UAT_EDP_DC|10=070|
2023-10-11 16:11:02,677 : (Core) S >> 8=FIX.4.2|9=71|35=0|34=46|49=FSX_UAT_EDP_DC|52=20231011-07:11:02.000|56=RUAT_EDP_DC_6|10=055|
2023-10-11 16:11:06,748 : (Core) R << 8=FIX.4.2|9=71|35=0|34=47|49=RUAT_EDP_DC_6|52=20231011-07:11:06.733|56=FSX_UAT_EDP_DC|10=073|
2023-10-11 16:11:07,594 : (Core) S >> 8=FIX.4.2|9=71|35=0|34=47|49=FSX_UAT_EDP_DC|52=20231011-07:11:07.000|56=RUAT_EDP_DC_6|10=061|
2023-10-11 16:11:11,669 : (Core) R << 8=FIX.4.2|9=71|35=0|34=48|49=RUAT_EDP_DC_6|52=20231011-07:11:11.652|56=FSX_UAT_EDP_DC|10=070|
2023-10-11 16:11:12,511 : (Core) S >> 8=FIX.4.2|9=71|35=0|34=48|49=FSX_UAT_EDP_DC|52=20231011-07:11:12.000|56=RUAT_EDP_DC_6|10=058|
2023-10-11 16:11:16,581 : (Core) R << 8=FIX.4.2|9=71|35=0|34=49|49=RUAT_EDP_DC_6|52=20231011-07:11:16.567|56=FSX_UAT_EDP_DC|10=081|
