2023-11-10 19:32:52,453 : (Core) S >> 8=FIX.4.4|9=78|35=A|34=1|49=TRADER_C|52=20231110-10:32:52.000|56=terminal_1|98=0|108=5|141=Y|10=059|
2023-11-10 19:32:52,459 : (Core) R << 8=FIX.4.4|9=78|35=A|34=1|49=terminal_1|52=20231110-10:32:52.499|56=TRADER_C|98=0|108=5|141=Y|10=081|
2023-11-10 19:32:57,470 : (Core) S >> 8=FIX.4.4|9=61|35=0|34=2|49=TRADER_C|52=20231110-10:32:57.000|56=terminal_1|10=016|
2023-11-10 19:32:57,471 : (Core) R << 8=FIX.4.4|9=61|35=0|34=2|49=terminal_1|52=20231110-10:32:57.507|56=TRADER_C|10=028|
2023-11-10 19:33:02,467 : (Core) S >> 8=FIX.4.4|9=61|35=0|34=3|49=TRADER_C|52=20231110-10:33:02.000|56=terminal_1|10=008|
2023-11-10 19:33:02,471 : (Core) R << 8=FIX.4.4|9=61|35=0|34=3|49=terminal_1|52=20231110-10:33:02.511|56=TRADER_C|10=015|
2023-11-10 19:33:07,466 : (Core) S >> 8=FIX.4.4|9=61|35=0|34=4|49=TRADER_C|52=20231110-10:33:07.000|56=terminal_1|10=014|
2023-11-10 19:33:07,664 : (Core) R << 8=FIX.4.4|9=61|35=0|34=4|49=terminal_1|52=20231110-10:33:07.517|56=TRADER_C|10=027|
2023-11-10 19:33:12,646 : (Core) S >> 8=FIX.4.4|9=61|35=0|34=5|49=TRADER_C|52=20231110-10:33:12.000|56=terminal_1|10=011|
2023-11-10 19:33:12,650 : (Core) R << 8=FIX.4.4|9=61|35=0|34=5|49=terminal_1|52=20231110-10:33:12.690|56=TRADER_C|10=026|
