2023-11-10 19:26:13,669 : (Core) S >> 8=FIX.4.2|9=71|35=5|34=49|49=FSX_UAT_EDP_DC|52=20231110-10:26:13.000|56=RUAT_EDP_DC_6|10=065|
