2023-11-13 15:17:47,201 : (Core) S >> 8=FIX.4.4|9=61|35=5|34=1|49=TRADER_C|52=20231113-06:17:47.000|56=terminal_1|10=030|
2023-11-13 15:17:47,208 : (Core) S >> 8=FIX.4.4|9=78|35=A|34=1|49=TRADER_C|52=20231113-06:17:47.000|56=terminal_1|98=0|108=5|141=Y|10=074|
2023-11-13 15:17:47,214 : (Core) R << 8=FIX.4.4|9=78|35=A|34=1|49=terminal_1|52=20231113-06:17:47.216|56=TRADER_C|98=0|108=5|141=Y|10=083|
2023-11-13 15:17:48,214 : -------------------------------------------------------------------------------------------------
2023-11-13 15:17:48,214 : (sendMsg) New Ack >> 8=FIX.4.4|9=244|35=D|34=2|49=TRADER_C|52=20231113-06:17:48.000|56=terminal_1|1=RSIT_EDP_ACCOUNT_1|11=16998562686810000001|38=100|40=2|48=509090809|54=1|55=9989.EDP|59=0|60=20231113-06:17:48.213791|100=EiB Market|110=0|528=P|544=1|8060=3|8164=EDP|8174=0|8214=0|10=094|
2023-11-13 15:17:48,220 : -------------------------------------------------------------------------------------------------
2023-11-13 15:17:48,222 : (Core) recvMsg << 8=FIX.4.4|9=226|35=8|34=2|49=terminal_1|52=20231113-06:17:48.221|56=TRADER_C|1=RSIT_EDP_ACCOUNT_1|6=0|11=16998562686810000001|14=0|17=1|37=1|39=0|40=2|44=0|48=509090809|54=1|55=9989.EDP|60=20231113-06:17:48.221|150=0|151=0|167=CS|528=P|544=1|10=006|
2023-11-13 15:17:53,213 : (Core) S >> 8=FIX.4.4|9=61|35=0|34=3|49=TRADER_C|52=20231113-06:17:53.000|56=terminal_1|10=024|
2023-11-13 15:17:53,222 : (Core) R << 8=FIX.4.4|9=61|35=0|34=3|49=terminal_1|52=20231113-06:17:53.223|56=TRADER_C|10=031|
2023-11-13 15:17:58,182 : (Core) S >> 8=FIX.4.4|9=61|35=0|34=4|49=TRADER_C|52=20231113-06:17:58.000|56=terminal_1|10=030|
2023-11-13 15:17:58,193 : (Core) R << 8=FIX.4.4|9=61|35=0|34=4|49=terminal_1|52=20231113-06:17:58.193|56=TRADER_C|10=043|
2023-11-13 15:17:59,184 : (Core) S >> 8=FIX.4.4|9=61|35=5|34=5|49=TRADER_C|52=20231113-06:17:59.000|56=terminal_1|10=037|
2023-11-13 15:17:59,192 : (Core) R << 8=FIX.4.4|9=61|35=5|34=5|49=terminal_1|52=20231113-06:17:59.193|56=TRADER_C|10=050|
