2023-11-10 22:23:09,083 : (Core) S >> 8=FIX.4.4|9=78|35=A|34=1|49=TRADER_C|52=20231110-13:23:09.000|56=terminal_1|98=0|108=5|141=Y|10=064|
2023-11-10 22:23:09,089 : (Core) R << 8=FIX.4.4|9=78|35=A|34=1|49=terminal_1|52=20231110-13:23:09.093|56=TRADER_C|98=0|108=5|141=Y|10=076|
2023-11-10 22:23:10,086 : -------------------------------------------------------------------------------------------------
2023-11-10 22:23:10,086 : (sendMsg) New Ack >> 8=FIX.4.4|9=244|35=D|34=2|49=TRADER_C|52=20231110-13:23:10.000|56=terminal_1|1=RSIT_EDP_ACCOUNT_1|11=16996225900658000001|38=100|40=2|48=509090809|54=1|55=9989.EDP|59=0|60=20231110-13:23:10.085162|100=EiB Market|110=0|528=P|544=1|8060=3|8164=EDP|8174=0|8214=0|10=048|
2023-11-10 22:23:10,093 : -------------------------------------------------------------------------------------------------
2023-11-10 22:23:10,093 : (Core) recvMsg << 8=FIX.4.4|9=228|35=8|34=2|49=terminal_1|52=20231110-13:23:10.098|56=TRADER_C|1=RSIT_EDP_ACCOUNT_1|6=0|11=16996225900658000001|14=0|17=24|37=15|39=0|40=2|44=0|48=509090809|54=1|55=9989.EDP|60=20231110-13:23:10.097|150=0|151=0|167=CS|528=P|544=1|10=092|
2023-11-10 22:23:15,077 : (Core) S >> 8=FIX.4.4|9=61|35=0|34=3|49=TRADER_C|52=20231110-13:23:15.000|56=terminal_1|10=014|
2023-11-10 22:23:15,081 : (Core) R << 8=FIX.4.4|9=61|35=0|34=3|49=terminal_1|52=20231110-13:23:15.086|56=TRADER_C|10=028|
2023-11-10 22:23:20,055 : (Core) S >> 8=FIX.4.4|9=61|35=0|34=4|49=TRADER_C|52=20231110-13:23:20.000|56=terminal_1|10=011|
2023-11-10 22:23:20,088 : (Core) R << 8=FIX.4.4|9=61|35=0|34=4|49=terminal_1|52=20231110-13:23:20.092|56=TRADER_C|10=022|
2023-11-10 22:23:21,083 : (Core) S >> 8=FIX.4.4|9=61|35=5|34=5|49=TRADER_C|52=20231110-13:23:21.000|56=terminal_1|10=018|
2023-11-10 22:23:21,990 : (Core) R << 8=FIX.4.4|9=70|35=1|34=5|49=terminal_1|52=20231110-13:23:21.093|56=TRADER_C|112=TEST|10=044|
2023-11-10 22:23:21,991 : (Core) S >> 8=FIX.4.4|9=70|35=0|34=6|49=TRADER_C|52=20231110-13:23:21.000|56=terminal_1|112=TEST|10=032|
2023-11-10 22:23:21,992 : (Core) R << 8=FIX.4.4|9=61|35=5|34=6|49=terminal_1|52=20231110-13:23:21.990|56=TRADER_C|10=037|
