20231110-10:30:32.000 : 8=FIX.4.4|9=78|35=A|34=1|49=TRADER_R|52=20231110-10:30:32.000|56=terminal_1|98=0|108=5|141=Y|10=070|
