20231110-10:32:52.000 : 8=FIX.4.4|9=78|35=A|34=1|49=TRADER_C|52=20231110-10:32:52.000|56=terminal_1|98=0|108=5|141=Y|10=059|
20231110-10:32:52.000 : 8=FIX.4.4|9=78|35=A|34=1|49=terminal_1|52=20231110-10:32:52.499|56=TRADER_C|98=0|108=5|141=Y|10=081|
20231110-10:32:57.000 : 8=FIX.4.4|9=61|35=0|34=2|49=TRADER_C|52=20231110-10:32:57.000|56=terminal_1|10=016|
20231110-10:32:57.000 : 8=FIX.4.4|9=61|35=0|34=2|49=terminal_1|52=20231110-10:32:57.507|56=TRADER_C|10=028|
20231110-10:33:02.000 : 8=FIX.4.4|9=61|35=0|34=3|49=TRADER_C|52=20231110-10:33:02.000|56=terminal_1|10=008|
20231110-10:33:02.000 : 8=FIX.4.4|9=61|35=0|34=3|49=terminal_1|52=20231110-10:33:02.511|56=TRADER_C|10=015|
20231110-10:33:07.000 : 8=FIX.4.4|9=61|35=0|34=4|49=TRADER_C|52=20231110-10:33:07.000|56=terminal_1|10=014|
20231110-10:33:07.000 : 8=FIX.4.4|9=61|35=0|34=4|49=terminal_1|52=20231110-10:33:07.517|56=TRADER_C|10=027|
20231110-10:33:12.000 : 8=FIX.4.4|9=61|35=0|34=5|49=TRADER_C|52=20231110-10:33:12.000|56=terminal_1|10=011|
20231110-10:33:12.000 : 8=FIX.4.4|9=61|35=0|34=5|49=terminal_1|52=20231110-10:33:12.690|56=TRADER_C|10=026|
