20231011-07:07:20.000 : 8=FIX.4.2|9=87|35=A|34=1|49=FSX_UAT_EDP_DC|52=20231011-07:07:20.000|56=RUAT_EDP_DC_6|98=0|108=5|141=Y|10=051|
20231011-07:07:20.000 : 8=FIX.4.2|9=87|35=A|34=1|49=RUAT_EDP_DC_6|52=20231011-07:07:20.409|56=FSX_UAT_EDP_DC|98=0|108=5|141=Y|10=064|
20231011-07:07:25.000 : 8=FIX.4.2|9=70|35=0|34=2|49=FSX_UAT_EDP_DC|52=20231011-07:07:25.000|56=RUAT_EDP_DC_6|10=008|
20231011-07:07:25.000 : 8=FIX.4.2|9=70|35=0|34=2|49=RUAT_EDP_DC_6|52=20231011-07:07:25.412|56=FSX_UAT_EDP_DC|10=015|
20231011-07:07:30.000 : 8=FIX.4.2|9=70|35=0|34=3|49=FSX_UAT_EDP_DC|52=20231011-07:07:30.000|56=RUAT_EDP_DC_6|10=005|
20231011-07:07:30.000 : 8=FIX.4.2|9=70|35=0|34=3|49=RUAT_EDP_DC_6|52=20231011-07:07:30.483|56=FSX_UAT_EDP_DC|10=020|
20231011-07:07:35.000 : 8=FIX.4.2|9=70|35=0|34=4|49=FSX_UAT_EDP_DC|52=20231011-07:07:35.000|56=RUAT_EDP_DC_6|10=011|
20231011-07:07:35.000 : 8=FIX.4.2|9=70|35=0|34=4|49=RUAT_EDP_DC_6|52=20231011-07:07:35.576|56=FSX_UAT_EDP_DC|10=029|
20231011-07:07:40.000 : 8=FIX.4.2|9=70|35=0|34=5|49=RUAT_EDP_DC_6|52=20231011-07:07:40.580|56=FSX_UAT_EDP_DC|10=021|
20231011-07:07:40.000 : 8=FIX.4.2|9=70|35=0|34=5|49=FSX_UAT_EDP_DC|52=20231011-07:07:40.000|56=RUAT_EDP_DC_6|10=008|
20231011-07:07:45.000 : 8=FIX.4.2|9=70|35=0|34=6|49=FSX_UAT_EDP_DC|52=20231011-07:07:45.000|56=RUAT_EDP_DC_6|10=014|
20231011-07:07:45.000 : 8=FIX.4.2|9=70|35=0|34=6|49=RUAT_EDP_DC_6|52=20231011-07:07:45.586|56=FSX_UAT_EDP_DC|10=033|
20231011-07:07:50.000 : 8=FIX.4.2|9=70|35=0|34=7|49=FSX_UAT_EDP_DC|52=20231011-07:07:50.000|56=RUAT_EDP_DC_6|10=011|
20231011-07:07:50.000 : 8=FIX.4.2|9=70|35=0|34=7|49=RUAT_EDP_DC_6|52=20231011-07:07:50.579|56=FSX_UAT_EDP_DC|10=032|
20231011-07:07:55.000 : 8=FIX.4.2|9=70|35=0|34=8|49=FSX_UAT_EDP_DC|52=20231011-07:07:55.000|56=RUAT_EDP_DC_6|10=017|
20231011-07:07:55.000 : 8=FIX.4.2|9=70|35=0|34=8|49=RUAT_EDP_DC_6|52=20231011-07:07:55.545|56=FSX_UAT_EDP_DC|10=031|
20231011-07:08:00.000 : 8=FIX.4.2|9=70|35=0|34=9|49=FSX_UAT_EDP_DC|52=20231011-07:08:00.000|56=RUAT_EDP_DC_6|10=009|
20231011-07:08:00.000 : 8=FIX.4.2|9=70|35=0|34=9|49=RUAT_EDP_DC_6|52=20231011-07:08:00.494|56=FSX_UAT_EDP_DC|10=026|
20231011-07:08:05.000 : 8=FIX.4.2|9=71|35=0|34=10|49=FSX_UAT_EDP_DC|52=20231011-07:08:05.000|56=RUAT_EDP_DC_6|10=055|
20231011-07:08:05.000 : 8=FIX.4.2|9=71|35=0|34=10|49=RUAT_EDP_DC_6|52=20231011-07:08:05.422|56=FSX_UAT_EDP_DC|10=063|
20231011-07:08:10.000 : 8=FIX.4.2|9=71|35=0|34=11|49=FSX_UAT_EDP_DC|52=20231011-07:08:10.000|56=RUAT_EDP_DC_6|10=052|
20231011-07:08:10.000 : 8=FIX.4.2|9=71|35=0|34=11|49=RUAT_EDP_DC_6|52=20231011-07:08:10.343|56=FSX_UAT_EDP_DC|10=062|
20231011-07:08:15.000 : 8=FIX.4.2|9=71|35=0|34=12|49=FSX_UAT_EDP_DC|52=20231011-07:08:15.000|56=RUAT_EDP_DC_6|10=058|
20231011-07:08:15.000 : 8=FIX.4.2|9=71|35=0|34=12|49=RUAT_EDP_DC_6|52=20231011-07:08:15.245|56=FSX_UAT_EDP_DC|10=069|
20231011-07:08:20.000 : 8=FIX.4.2|9=71|35=0|34=13|49=FSX_UAT_EDP_DC|52=20231011-07:08:20.000|56=RUAT_EDP_DC_6|10=055|
20231011-07:08:20.000 : 8=FIX.4.2|9=71|35=0|34=13|49=RUAT_EDP_DC_6|52=20231011-07:08:20.124|56=FSX_UAT_EDP_DC|10=062|
20231011-07:08:25.000 : 8=FIX.4.2|9=71|35=0|34=14|49=RUAT_EDP_DC_6|52=20231011-07:08:25.126|56=FSX_UAT_EDP_DC|10=070|
20231011-07:08:25.000 : 8=FIX.4.2|9=71|35=0|34=14|49=FSX_UAT_EDP_DC|52=20231011-07:08:25.000|56=RUAT_EDP_DC_6|10=061|
20231011-07:08:30.000 : 8=FIX.4.2|9=71|35=0|34=15|49=RUAT_EDP_DC_6|52=20231011-07:08:30.196|56=FSX_UAT_EDP_DC|10=074|
20231011-07:08:30.000 : 8=FIX.4.2|9=71|35=0|34=15|49=FSX_UAT_EDP_DC|52=20231011-07:08:30.000|56=RUAT_EDP_DC_6|10=058|
20231011-07:08:35.000 : 8=FIX.4.2|9=71|35=0|34=16|49=RUAT_EDP_DC_6|52=20231011-07:08:35.265|56=FSX_UAT_EDP_DC|10=077|
20231011-07:08:35.000 : 8=FIX.4.2|9=71|35=0|34=16|49=FSX_UAT_EDP_DC|52=20231011-07:08:35.000|56=RUAT_EDP_DC_6|10=064|
20231011-07:08:40.000 : 8=FIX.4.2|9=71|35=0|34=17|49=FSX_UAT_EDP_DC|52=20231011-07:08:40.000|56=RUAT_EDP_DC_6|10=061|
20231011-07:08:40.000 : 8=FIX.4.2|9=71|35=0|34=17|49=RUAT_EDP_DC_6|52=20231011-07:08:40.191|56=FSX_UAT_EDP_DC|10=072|
20231011-07:08:45.000 : 8=FIX.4.2|9=71|35=0|34=18|49=RUAT_EDP_DC_6|52=20231011-07:08:45.194|56=FSX_UAT_EDP_DC|10=081|
20231011-07:08:45.000 : 8=FIX.4.2|9=71|35=0|34=18|49=FSX_UAT_EDP_DC|52=20231011-07:08:45.000|56=RUAT_EDP_DC_6|10=067|
20231011-07:08:50.000 : 8=FIX.4.2|9=71|35=0|34=19|49=RUAT_EDP_DC_6|52=20231011-07:08:50.263|56=FSX_UAT_EDP_DC|10=075|
20231011-07:08:50.000 : 8=FIX.4.2|9=71|35=0|34=19|49=FSX_UAT_EDP_DC|52=20231011-07:08:50.000|56=RUAT_EDP_DC_6|10=064|
20231011-07:08:52.000 : 8=FIX.4.2|9=80|35=1|34=20|49=RUAT_EDP_DC_6|52=20231011-07:08:51.264|56=FSX_UAT_EDP_DC|112=TEST|10=088|
20231011-07:08:52.000 : 8=FIX.4.2|9=80|35=0|34=20|49=FSX_UAT_EDP_DC|52=20231011-07:08:52.000|56=RUAT_EDP_DC_6|112=TEST|10=076|
20231011-07:08:56.000 : 8=FIX.4.2|9=71|35=0|34=21|49=RUAT_EDP_DC_6|52=20231011-07:08:56.531|56=FSX_UAT_EDP_DC|10=072|
20231011-07:08:57.000 : 8=FIX.4.2|9=71|35=0|34=21|49=FSX_UAT_EDP_DC|52=20231011-07:08:57.000|56=RUAT_EDP_DC_6|10=064|
20231011-07:09:01.000 : 8=FIX.4.2|9=71|35=0|34=22|49=RUAT_EDP_DC_6|52=20231011-07:09:01.571|56=FSX_UAT_EDP_DC|10=068|
20231011-07:09:02.000 : 8=FIX.4.2|9=71|35=0|34=22|49=FSX_UAT_EDP_DC|52=20231011-07:09:02.000|56=RUAT_EDP_DC_6|10=056|
20231011-07:09:06.000 : 8=FIX.4.2|9=71|35=0|34=23|49=RUAT_EDP_DC_6|52=20231011-07:09:06.578|56=FSX_UAT_EDP_DC|10=081|
20231011-07:09:07.000 : 8=FIX.4.2|9=71|35=0|34=23|49=FSX_UAT_EDP_DC|52=20231011-07:09:07.000|56=RUAT_EDP_DC_6|10=062|
20231011-07:09:11.000 : 8=FIX.4.2|9=71|35=0|34=24|49=RUAT_EDP_DC_6|52=20231011-07:09:11.603|56=FSX_UAT_EDP_DC|10=067|
20231011-07:09:12.000 : 8=FIX.4.2|9=71|35=0|34=24|49=FSX_UAT_EDP_DC|52=20231011-07:09:12.000|56=RUAT_EDP_DC_6|10=059|
20231011-07:09:16.000 : 8=FIX.4.2|9=71|35=0|34=25|49=RUAT_EDP_DC_6|52=20231011-07:09:16.615|56=FSX_UAT_EDP_DC|10=076|
20231011-07:09:17.000 : 8=FIX.4.2|9=71|35=0|34=25|49=FSX_UAT_EDP_DC|52=20231011-07:09:17.000|56=RUAT_EDP_DC_6|10=065|
20231011-07:09:21.000 : 8=FIX.4.2|9=71|35=0|34=26|49=RUAT_EDP_DC_6|52=20231011-07:09:21.638|56=FSX_UAT_EDP_DC|10=078|
20231011-07:09:22.000 : 8=FIX.4.2|9=71|35=0|34=26|49=FSX_UAT_EDP_DC|52=20231011-07:09:22.000|56=RUAT_EDP_DC_6|10=062|
20231011-07:09:26.000 : 8=FIX.4.2|9=71|35=0|34=27|49=RUAT_EDP_DC_6|52=20231011-07:09:26.651|56=FSX_UAT_EDP_DC|10=079|
20231011-07:09:27.000 : 8=FIX.4.2|9=71|35=0|34=27|49=FSX_UAT_EDP_DC|52=20231011-07:09:27.000|56=RUAT_EDP_DC_6|10=068|
20231011-07:09:31.000 : 8=FIX.4.2|9=71|35=0|34=28|49=RUAT_EDP_DC_6|52=20231011-07:09:31.672|56=FSX_UAT_EDP_DC|10=079|
20231011-07:09:32.000 : 8=FIX.4.2|9=71|35=0|34=28|49=FSX_UAT_EDP_DC|52=20231011-07:09:32.000|56=RUAT_EDP_DC_6|10=065|
20231011-07:09:36.000 : 8=FIX.4.2|9=71|35=0|34=29|49=RUAT_EDP_DC_6|52=20231011-07:09:36.686|56=FSX_UAT_EDP_DC|10=090|
20231011-07:09:37.000 : 8=FIX.4.2|9=71|35=0|34=29|49=FSX_UAT_EDP_DC|52=20231011-07:09:37.000|56=RUAT_EDP_DC_6|10=071|
20231011-07:09:41.000 : 8=FIX.4.2|9=71|35=0|34=30|49=RUAT_EDP_DC_6|52=20231011-07:09:41.695|56=FSX_UAT_EDP_DC|10=078|
20231011-07:09:42.000 : 8=FIX.4.2|9=71|35=0|34=30|49=FSX_UAT_EDP_DC|52=20231011-07:09:42.000|56=RUAT_EDP_DC_6|10=059|
20231011-07:09:46.000 : 8=FIX.4.2|9=71|35=0|34=31|49=RUAT_EDP_DC_6|52=20231011-07:09:46.678|56=FSX_UAT_EDP_DC|10=085|
20231011-07:09:47.000 : 8=FIX.4.2|9=71|35=0|34=31|49=FSX_UAT_EDP_DC|52=20231011-07:09:47.000|56=RUAT_EDP_DC_6|10=065|
20231011-07:09:51.000 : 8=FIX.4.2|9=71|35=0|34=32|49=RUAT_EDP_DC_6|52=20231011-07:09:51.664|56=FSX_UAT_EDP_DC|10=077|
20231011-07:09:52.000 : 8=FIX.4.2|9=71|35=0|34=32|49=FSX_UAT_EDP_DC|52=20231011-07:09:52.000|56=RUAT_EDP_DC_6|10=062|
20231011-07:09:56.000 : 8=FIX.4.2|9=71|35=0|34=33|49=RUAT_EDP_DC_6|52=20231011-07:09:56.716|56=FSX_UAT_EDP_DC|10=081|
20231011-07:09:57.000 : 8=FIX.4.2|9=71|35=0|34=33|49=FSX_UAT_EDP_DC|52=20231011-07:09:57.000|56=RUAT_EDP_DC_6|10=068|
20231011-07:10:01.000 : 8=FIX.4.2|9=71|35=0|34=34|49=RUAT_EDP_DC_6|52=20231011-07:10:01.686|56=FSX_UAT_EDP_DC|10=070|
20231011-07:10:02.000 : 8=FIX.4.2|9=71|35=0|34=34|49=FSX_UAT_EDP_DC|52=20231011-07:10:02.000|56=RUAT_EDP_DC_6|10=051|
20231011-07:10:06.000 : 8=FIX.4.2|9=71|35=0|34=35|49=RUAT_EDP_DC_6|52=20231011-07:10:06.761|56=FSX_UAT_EDP_DC|10=070|
20231011-07:10:07.000 : 8=FIX.4.2|9=71|35=0|34=35|49=FSX_UAT_EDP_DC|52=20231011-07:10:07.000|56=RUAT_EDP_DC_6|10=057|
20231011-07:10:12.000 : 8=FIX.4.2|9=71|35=0|34=36|49=RUAT_EDP_DC_6|52=20231011-07:10:11.775|56=FSX_UAT_EDP_DC|10=072|
20231011-07:10:12.000 : 8=FIX.4.2|9=71|35=0|34=36|49=FSX_UAT_EDP_DC|52=20231011-07:10:12.000|56=RUAT_EDP_DC_6|10=054|
20231011-07:10:16.000 : 8=FIX.4.2|9=71|35=0|34=37|49=RUAT_EDP_DC_6|52=20231011-07:10:16.075|56=FSX_UAT_EDP_DC|10=071|
20231011-07:10:17.000 : 8=FIX.4.2|9=71|35=0|34=37|49=FSX_UAT_EDP_DC|52=20231011-07:10:17.000|56=RUAT_EDP_DC_6|10=060|
20231011-07:10:22.000 : 8=FIX.4.2|9=71|35=0|34=38|49=RUAT_EDP_DC_6|52=20231011-07:10:21.910|56=FSX_UAT_EDP_DC|10=066|
20231011-07:10:22.000 : 8=FIX.4.2|9=71|35=0|34=38|49=FSX_UAT_EDP_DC|52=20231011-07:10:22.000|56=RUAT_EDP_DC_6|10=057|
20231011-07:10:26.000 : 8=FIX.4.2|9=71|35=0|34=39|49=RUAT_EDP_DC_6|52=20231011-07:10:26.222|56=FSX_UAT_EDP_DC|10=068|
20231011-07:10:27.000 : 8=FIX.4.2|9=71|35=0|34=39|49=FSX_UAT_EDP_DC|52=20231011-07:10:27.000|56=RUAT_EDP_DC_6|10=063|
20231011-07:10:31.000 : 8=FIX.4.2|9=71|35=0|34=40|49=RUAT_EDP_DC_6|52=20231011-07:10:31.168|56=FSX_UAT_EDP_DC|10=065|
20231011-07:10:32.000 : 8=FIX.4.2|9=71|35=0|34=40|49=FSX_UAT_EDP_DC|52=20231011-07:10:32.000|56=RUAT_EDP_DC_6|10=051|
20231011-07:10:36.000 : 8=FIX.4.2|9=71|35=0|34=41|49=RUAT_EDP_DC_6|52=20231011-07:10:36.114|56=FSX_UAT_EDP_DC|10=062|
20231011-07:10:37.000 : 8=FIX.4.2|9=71|35=0|34=41|49=FSX_UAT_EDP_DC|52=20231011-07:10:37.000|56=RUAT_EDP_DC_6|10=057|
20231011-07:10:41.000 : 8=FIX.4.2|9=71|35=0|34=42|49=RUAT_EDP_DC_6|52=20231011-07:10:41.107|56=FSX_UAT_EDP_DC|10=061|
20231011-07:10:42.000 : 8=FIX.4.2|9=71|35=0|34=42|49=FSX_UAT_EDP_DC|52=20231011-07:10:42.000|56=RUAT_EDP_DC_6|10=054|
20231011-07:10:46.000 : 8=FIX.4.2|9=71|35=0|34=43|49=RUAT_EDP_DC_6|52=20231011-07:10:46.904|56=FSX_UAT_EDP_DC|10=072|
20231011-07:10:47.000 : 8=FIX.4.2|9=71|35=0|34=43|49=FSX_UAT_EDP_DC|52=20231011-07:10:47.000|56=RUAT_EDP_DC_6|10=060|
20231011-07:10:51.000 : 8=FIX.4.2|9=71|35=0|34=44|49=RUAT_EDP_DC_6|52=20231011-07:10:51.886|56=FSX_UAT_EDP_DC|10=078|
20231011-07:10:52.000 : 8=FIX.4.2|9=71|35=0|34=44|49=FSX_UAT_EDP_DC|52=20231011-07:10:52.000|56=RUAT_EDP_DC_6|10=057|
20231011-07:10:56.000 : 8=FIX.4.2|9=71|35=0|34=45|49=RUAT_EDP_DC_6|52=20231011-07:10:56.895|56=FSX_UAT_EDP_DC|10=084|
20231011-07:10:57.000 : 8=FIX.4.2|9=71|35=0|34=45|49=FSX_UAT_EDP_DC|52=20231011-07:10:57.000|56=RUAT_EDP_DC_6|10=063|
20231011-07:11:01.000 : 8=FIX.4.2|9=71|35=0|34=46|49=RUAT_EDP_DC_6|52=20231011-07:11:01.817|56=FSX_UAT_EDP_DC|10=070|
20231011-07:11:02.000 : 8=FIX.4.2|9=71|35=0|34=46|49=FSX_UAT_EDP_DC|52=20231011-07:11:02.000|56=RUAT_EDP_DC_6|10=055|
20231011-07:11:06.000 : 8=FIX.4.2|9=71|35=0|34=47|49=RUAT_EDP_DC_6|52=20231011-07:11:06.733|56=FSX_UAT_EDP_DC|10=073|
20231011-07:11:07.000 : 8=FIX.4.2|9=71|35=0|34=47|49=FSX_UAT_EDP_DC|52=20231011-07:11:07.000|56=RUAT_EDP_DC_6|10=061|
20231011-07:11:11.000 : 8=FIX.4.2|9=71|35=0|34=48|49=RUAT_EDP_DC_6|52=20231011-07:11:11.652|56=FSX_UAT_EDP_DC|10=070|
20231011-07:11:12.000 : 8=FIX.4.2|9=71|35=0|34=48|49=FSX_UAT_EDP_DC|52=20231011-07:11:12.000|56=RUAT_EDP_DC_6|10=058|
20231011-07:11:16.000 : 8=FIX.4.2|9=71|35=0|34=49|49=RUAT_EDP_DC_6|52=20231011-07:11:16.567|56=FSX_UAT_EDP_DC|10=081|
