2023-08-10 13:20:59,759 : (Core) S >> 8=FIX.4.2|9=83|35=A|34=1|49=RSIT_EDP_3|52=20230810-04:20:59.000|56=FSX_SIT_EDP|98=0|108=300|141=Y|10=212|
2023-08-10 13:20:59,868 : (Core) R << 8=FIX.4.2|9=83|35=A|34=1|49=FSX_SIT_EDP|52=20230810-04:20:59.827|56=RSIT_EDP_3|98=0|108=300|141=Y|10=229|
2023-08-10 13:21:01,684 : (sendMsg) S >> 8=FIX.4.2|9=187|35=D|34=2|49=RSIT_EDP_3|52=20230810-04:21:01.000|56=FSX_SIT_EDP|1=RSIT_EDP_ACCOUNT_3|11=16916412618123000001|38=100|40=1|54=2|55=1356|60=20230810-04:21:01.684121|109=16916412618123000001|10=144|
2023-08-10 13:21:01,691 : (sendMsg) S >> 8=FIX.4.2|9=187|35=D|34=3|49=RSIT_EDP_3|52=20230810-04:21:01.000|56=FSX_SIT_EDP|1=RSIT_EDP_ACCOUNT_3|11=16916412612367000002|38=100|40=1|54=1|55=1356|60=20230810-04:21:01.691188|109=16916412612367000002|10=165|
2023-08-10 13:21:01,697 : (sendMsg) S >> 8=FIX.4.2|9=187|35=D|34=4|49=RSIT_EDP_3|52=20230810-04:21:01.000|56=FSX_SIT_EDP|1=RSIT_EDP_ACCOUNT_3|11=16916412617651000003|38=100|40=1|54=2|55=1356|60=20230810-04:21:01.697033|109=16916412617651000003|10=166|
2023-08-10 13:21:01,703 : (sendMsg) S >> 8=FIX.4.2|9=187|35=D|34=5|49=RSIT_EDP_3|52=20230810-04:21:01.000|56=FSX_SIT_EDP|1=RSIT_EDP_ACCOUNT_3|11=16916412616257000004|38=100|40=1|54=1|55=1356|60=20230810-04:21:01.702924|109=16916412616257000004|10=166|
2023-08-10 13:21:01,709 : (sendMsg) S >> 8=FIX.4.2|9=187|35=D|34=6|49=RSIT_EDP_3|52=20230810-04:21:01.000|56=FSX_SIT_EDP|1=RSIT_EDP_ACCOUNT_3|11=16916412617562000005|38=100|40=1|54=2|55=1356|60=20230810-04:21:01.708791|109=16916412617562000005|10=178|
2023-08-10 13:21:01,774 : (recvMsg) R << 8=FIX.4.2|9=429|35=8|34=2|49=FSX_SIT_EDP|52=20230810-04:21:01.732|56=RSIT_EDP_3|1=RSIT_EDP_ACCOUNT_3|6=0|11=16916412618123000001|14=0|17=None|20=0|31=0|32=0|37=None|38=100|39=8|40=1|44=0|47=P|54=2|55=1356|58=ERROR_10010013,No available instrument risk check data found: instrumentDate=not_found,expectedDate=20230810|59=3|60=20230810-04:21:01.732|103=3|109=103|110=0|150=8|151=0|544=1|8060=3|8164=EDP|8169=20230810-04:21:01.732695|8174=0|8214=0|10=083|
2023-08-10 13:21:01,774 : Result : Rejected ,ordStatus =8
2023-08-10 13:21:01,774 : -------------------------------------------------------------------------------------------------
2023-08-10 13:21:01,861 : (recvMsg) R << 8=FIX.4.2|9=429|35=8|34=3|49=FSX_SIT_EDP|52=20230810-04:21:01.820|56=RSIT_EDP_3|1=RSIT_EDP_ACCOUNT_3|6=0|11=16916412612367000002|14=0|17=None|20=0|31=0|32=0|37=None|38=100|39=8|40=1|44=0|47=P|54=1|55=1356|58=ERROR_10010013,No available instrument risk check data found: instrumentDate=not_found,expectedDate=20230810|59=3|60=20230810-04:21:01.819|103=3|109=103|110=0|150=8|151=0|544=1|8060=3|8164=EDP|8169=20230810-04:21:01.819960|8174=0|8214=0|10=093|
2023-08-10 13:21:01,862 : Result : Rejected ,ordStatus =8
2023-08-10 13:21:01,862 : -------------------------------------------------------------------------------------------------
2023-08-10 13:21:01,943 : (recvMsg) R << 8=FIX.4.2|9=429|35=8|34=4|49=FSX_SIT_EDP|52=20230810-04:21:01.821|56=RSIT_EDP_3|1=RSIT_EDP_ACCOUNT_3|6=0|11=16916412617651000003|14=0|17=None|20=0|31=0|32=0|37=None|38=100|39=8|40=1|44=0|47=P|54=2|55=1356|58=ERROR_10010013,No available instrument risk check data found: instrumentDate=not_found,expectedDate=20230810|59=3|60=20230810-04:21:01.821|103=3|109=103|110=0|150=8|151=0|544=1|8060=3|8164=EDP|8169=20230810-04:21:01.821200|8174=0|8214=0|10=071|
2023-08-10 13:21:01,943 : Result : Rejected ,ordStatus =8
2023-08-10 13:21:01,943 : -------------------------------------------------------------------------------------------------
2023-08-10 13:21:01,943 : (recvMsg) R << 8=FIX.4.2|9=429|35=8|34=5|49=FSX_SIT_EDP|52=20230810-04:21:01.822|56=RSIT_EDP_3|1=RSIT_EDP_ACCOUNT_3|6=0|11=16916412616257000004|14=0|17=None|20=0|31=0|32=0|37=None|38=100|39=8|40=1|44=0|47=P|54=1|55=1356|58=ERROR_10010013,No available instrument risk check data found: instrumentDate=not_found,expectedDate=20230810|59=3|60=20230810-04:21:01.821|103=3|109=103|110=0|150=8|151=0|544=1|8060=3|8164=EDP|8169=20230810-04:21:01.821948|8174=0|8214=0|10=093|
2023-08-10 13:21:01,943 : Result : Rejected ,ordStatus =8
2023-08-10 13:21:01,944 : -------------------------------------------------------------------------------------------------
2023-08-10 13:21:01,944 : (recvMsg) R << 8=FIX.4.2|9=429|35=8|34=6|49=FSX_SIT_EDP|52=20230810-04:21:01.822|56=RSIT_EDP_3|1=RSIT_EDP_ACCOUNT_3|6=0|11=16916412617562000005|14=0|17=None|20=0|31=0|32=0|37=None|38=100|39=8|40=1|44=0|47=P|54=2|55=1356|58=ERROR_10010013,No available instrument risk check data found: instrumentDate=not_found,expectedDate=20230810|59=3|60=20230810-04:21:01.822|103=3|109=103|110=0|150=8|151=0|544=1|8060=3|8164=EDP|8169=20230810-04:21:01.822738|8174=0|8214=0|10=095|
2023-08-10 13:21:01,944 : Result : Rejected ,ordStatus =8
2023-08-10 13:21:01,944 : -------------------------------------------------------------------------------------------------
2023-08-10 13:21:25,296 : Result : Total = 5,Accepted = 0,Filled = 0,Rejected = 5,Expired = 0, TosTNeT_rejected = 0, comfirmation = 0
2023-08-10 13:21:59,691 : (Core) S >> 8=FIX.4.2|9=83|35=A|34=1|49=RSIT_EDP_3|52=20230810-04:21:59.000|56=FSX_SIT_EDP|98=0|108=300|141=Y|10=213|
2023-08-10 13:21:59,782 : (Core) R << 8=FIX.4.2|9=83|35=A|34=1|49=FSX_SIT_EDP|52=20230810-04:21:59.736|56=RSIT_EDP_3|98=0|108=300|141=Y|10=229|
2023-08-10 13:22:02,695 : (Core) S >> 8=FIX.4.2|9=64|35=5|34=2|49=RSIT_EDP_3|52=20230810-04:22:02.000|56=FSX_SIT_EDP|10=072|
2023-08-10 13:22:02,791 : (Core) R << 8=FIX.4.2|9=64|35=5|34=2|49=FSX_SIT_EDP|52=20230810-04:22:02.742|56=RSIT_EDP_3|10=085|
2023-08-10 13:22:02,795 : Result : Total = 5,Accepted = 0,Filled = 0,Rejected = 5,Expired = 0, TosTNeT_rejected = 0, comfirmation = 0
