2023-06-09 16:20:02,461 : (Core) S >> 8=FIX.4.2|9=84|35=A|34=1|49=RSIT_ROLX_1|52=20230609-07:20:02.000|56=FSX_SIT_ROLX|98=0|108=30|141=Y|10=120|
2023-06-09 16:20:02,818 : (Core) R << 8=FIX.4.2|9=84|35=A|34=1|49=FSX_SIT_ROLX|52=20230609-07:20:04.524|56=RSIT_ROLX_1|98=0|108=30|141=Y|10=133|
2023-06-09 16:20:03,820 : (Core) S >> 8=FIX.4.2|9=66|35=5|34=2|49=RSIT_ROLX_1|52=20230609-07:20:03.000|56=FSX_SIT_ROLX|10=040|
2023-06-09 16:20:04,068 : (Core) R << 8=FIX.4.2|9=66|35=5|34=2|49=FSX_SIT_ROLX|52=20230609-07:20:05.774|56=RSIT_ROLX_1|10=060|
2023-06-09 16:20:04,071 : Order Not Miss, Result : Total = 0,Success = 0,Fail = 0
