2023-11-06 16:57:59,068 : (Core) S >> 8=FIX.4.2|9=83|35=A|34=1|49=RSIT_EDP_2|52=20231106-07:57:59.000|56=FSX_SIT_EDP|98=0|108=300|141=Y|10=223|
2023-11-06 16:57:59,133 : (Core) R << 8=FIX.4.2|9=83|35=A|34=1|49=FSX_SIT_EDP|52=20231106-07:57:59.127|56=RSIT_EDP_2|98=0|108=300|141=Y|10=233|
2023-11-06 16:58:01,998 : -------------------------------------------------------------------------------------------------
2023-11-06 16:58:01,999 : (sendMsg) New Ack >> 8=FIX.4.2|9=214|35=D|34=2|49=RSIT_EDP_2|52=20231106-07:58:01.000|56=FSX_SIT_EDP|1=RSIT_EDP_ACCOUNT_2|11=16992574817043000001|38=100|40=1|47=P|54=1|55=5110|59=3|60=20231106-07:58:01.998414|110=0|544=1|8060=3|8164=EDP|8174=0|8214=0|10=112|
2023-11-06 16:58:02,140 : -------------------------------------------------------------------------------------------------
2023-11-06 16:58:02,141 : (recvMsg) Order Accepted << 8=FIX.4.2|9=345|35=8|34=2|49=FSX_SIT_EDP|52=20231106-07:58:02.133|56=RSIT_EDP_2|1=RSIT_EDP_ACCOUNT_2|6=0|11=16992574817043000001|14=0|17=1721436764762853376|20=0|31=0|32=0|37=1721436764739993600|38=100|39=0|40=1|47=P|54=1|55=5110|59=3|60=20231106-07:58:02.124|76=EDP|109=102|110=0|150=0|151=100|544=1|8060=3|8164=EDP|8169=20231106-07:58:02.133485|8174=0|8214=0|10=228|ordStatus = 0
2023-11-06 16:58:02,141 : Result : Order Accepted ,ordStatus =0
2023-11-06 16:58:02,141 : -------------------------------------------------------------------------------------------------
2023-11-06 16:58:02,141 : (recvMsg) Order Expired << 8=FIX.4.2|9=464|35=8|34=3|49=FSX_SIT_EDP|52=20231106-07:58:02.134|56=RSIT_EDP_2|1=RSIT_EDP_ACCOUNT_2|6=0|11=16992574817043000001|14=0|17=1721436764762853377|20=0|37=1721436764739993600|38=100|39=4|40=1|41=16992574817043000001|47=P|54=1|55=5110|58=ERROR_00010051,Order rejected due to IoC expired.|59=3|60=20231106-07:58:02.124|76=EDP|109=102|110=0|150=4|151=100|544=1|8031=1516|8032=1516.5|8033=1520.5|8051=07:58:02.063|8060=3|8164=EDP|8169=20231106-07:58:02.134606|8174=0|8214=0|10=024|
2023-11-06 16:58:02,141 : Result : Order Expired ,ordStatus =4
2023-11-06 16:58:12,078 : (Core) S >> 8=FIX.4.2|9=64|35=5|34=3|49=RSIT_EDP_2|52=20231106-07:58:12.000|56=FSX_SIT_EDP|10=084|
2023-11-06 16:58:12,147 : (Core) R << 8=FIX.4.2|9=64|35=5|34=4|49=FSX_SIT_EDP|52=20231106-07:58:12.137|56=RSIT_EDP_2|10=096|
