2023-06-08 18:54:56,141 : (Core) S >> 8=FIX.4.2|9=84|35=A|34=1|49=RUAT_ROLX_3|52=20230608-09:54:56.000|56=FSX_UAT_ROLX|98=0|108=30|141=Y|10=127|
2023-06-08 18:54:56,318 : (Core) R << 8=FIX.4.2|9=84|35=A|34=1|49=FSX_UAT_ROLX|52=20230608-09:54:56.177|56=RUAT_ROLX_3|98=0|108=30|141=Y|10=142|
2023-06-08 18:54:57,320 : (Core) S >> 8=FIX.4.2|9=66|35=5|34=2|49=RUAT_ROLX_3|52=20230608-09:54:57.000|56=FSX_UAT_ROLX|10=047|
2023-06-08 18:54:57,500 : (Core) R << 8=FIX.4.2|9=66|35=5|34=2|49=FSX_UAT_ROLX|52=20230608-09:54:57.359|56=RUAT_ROLX_3|10=064|
2023-06-08 18:54:57,503 : Order Not Miss, Result : Total = 0,Success = 0,Fail = 0
