20231006-10:55:04.000 : 8=FIX.4.2|9=83|35=A|34=1|49=RSIT_EDP_2|52=20231006-10:55:04.000|56=FSX_SIT_EDP|98=0|108=300|141=Y|10=204|
20231006-10:55:04.000 : 8=FIX.4.2|9=83|35=A|34=1|49=RSIT_EDP_2|52=20231006-10:55:04.000|56=FSX_SIT_EDP|98=0|108=300|141=Y|10=204|
20231006-10:55:04.000 : 8=FIX.4.2|9=83|35=A|34=1|49=RSIT_EDP_2|52=20231006-10:55:04.000|56=FSX_SIT_EDP|98=0|108=300|141=Y|10=204|
20231006-10:55:04.000 : 8=FIX.4.2|9=83|35=A|34=1|49=RSIT_EDP_2|52=20231006-10:55:04.000|56=FSX_SIT_EDP|98=0|108=300|141=Y|10=204|
20231006-10:55:04.000 : 8=FIX.4.2|9=83|35=A|34=1|49=RSIT_EDP_2|52=20231006-10:55:04.000|56=FSX_SIT_EDP|98=0|108=300|141=Y|10=204|
20231006-10:55:04.000 : 8=FIX.4.2|9=83|35=A|34=1|49=FSX_SIT_EDP|52=20231006-10:55:04.243|56=RSIT_EDP_2|98=0|108=300|141=Y|10=213|
20231006-10:55:06.000 : 8=FIX.4.2|9=162|35=D|34=2|49=RSIT_EDP_2|52=20231006-10:55:06.000|56=FSX_SIT_EDP|1=RSIT_EDP_ACCOUNT_3|11=16965897063724000001|38=100|40=1|54=2|55=5110|60=20231006-10:55:06.005279|10=217|
20231006-10:55:06.000 : 8=FIX.4.2|9=404|35=8|34=2|49=FSX_SIT_EDP|52=20231006-10:55:06.114|56=RSIT_EDP_2|1=RSIT_EDP_ACCOUNT_3|6=0|11=16965897063724000001|14=0|17=None|20=0|31=0|32=0|37=None|38=100|39=8|40=1|44=0|47=P|54=2|55=5110|58=ERROR_10010009,Invalid account: senderCompID=RSIT_EDP_2, account=RSIT_EDP_ACCOUNT_3|59=3|60=20231006-10:55:06.113|103=3|109=102|110=0|150=8|151=0|544=1|8060=3|8164=EDP|8169=20231006-10:55:06.113891|8174=0|8214=0|10=118|
20231006-10:56:04.000 : 8=FIX.4.2|9=83|35=A|34=1|49=RSIT_EDP_2|52=20231006-10:56:04.000|56=FSX_SIT_EDP|98=0|108=300|141=Y|10=205|
20231006-10:56:04.000 : 8=FIX.4.2|9=83|35=A|34=1|49=RSIT_EDP_2|52=20231006-10:56:04.000|56=FSX_SIT_EDP|98=0|108=300|141=Y|10=205|
20231006-10:56:04.000 : 8=FIX.4.2|9=83|35=A|34=1|49=RSIT_EDP_2|52=20231006-10:56:04.000|56=FSX_SIT_EDP|98=0|108=300|141=Y|10=205|
20231006-10:56:04.000 : 8=FIX.4.2|9=83|35=A|34=1|49=RSIT_EDP_2|52=20231006-10:56:04.000|56=FSX_SIT_EDP|98=0|108=300|141=Y|10=205|
20231006-10:56:06.000 : 8=FIX.4.2|9=64|35=5|34=3|49=RSIT_EDP_2|52=20231006-10:56:06.000|56=FSX_SIT_EDP|10=078|
20231006-10:56:06.000 : 8=FIX.4.2|9=64|35=5|34=3|49=FSX_SIT_EDP|52=20231006-10:56:06.731|56=RSIT_EDP_2|10=089|
20231006-11:03:30.000 : 8=FIX.4.2|9=83|35=A|34=1|49=RSIT_EDP_2|52=20231006-11:03:30.000|56=FSX_SIT_EDP|98=0|108=300|141=Y|10=197|
20231006-11:03:30.000 : 8=FIX.4.2|9=83|35=A|34=1|49=RSIT_EDP_2|52=20231006-11:03:30.000|56=FSX_SIT_EDP|98=0|108=300|141=Y|10=197|
20231006-11:03:30.000 : 8=FIX.4.2|9=83|35=A|34=1|49=FSX_SIT_EDP|52=20231006-11:03:30.444|56=RSIT_EDP_2|98=0|108=300|141=Y|10=209|
20231006-11:03:32.000 : 8=FIX.4.2|9=162|35=D|34=2|49=RSIT_EDP_2|52=20231006-11:03:32.000|56=FSX_SIT_EDP|1=RSIT_EDP_ACCOUNT_1|11=16965902126218000001|38=100|40=1|54=2|55=5110|60=20231006-11:03:32.153435|10=184|
20231006-11:03:32.000 : 8=FIX.4.2|9=404|35=8|34=2|49=FSX_SIT_EDP|52=20231006-11:03:32.314|56=RSIT_EDP_2|1=RSIT_EDP_ACCOUNT_1|6=0|11=16965902126218000001|14=0|17=None|20=0|31=0|32=0|37=None|38=100|39=8|40=1|44=0|47=P|54=2|55=5110|58=ERROR_10010009,Invalid account: senderCompID=RSIT_EDP_2, account=RSIT_EDP_ACCOUNT_1|59=3|60=20231006-11:03:32.314|103=3|109=102|110=0|150=8|151=0|544=1|8060=3|8164=EDP|8169=20231006-11:03:32.314542|8174=0|8214=0|10=079|
20231006-11:04:30.000 : 8=FIX.4.2|9=83|35=A|34=1|49=RSIT_EDP_2|52=20231006-11:04:30.000|56=FSX_SIT_EDP|98=0|108=300|141=Y|10=198|
20231006-11:04:32.000 : 8=FIX.4.2|9=64|35=5|34=3|49=RSIT_EDP_2|52=20231006-11:04:32.000|56=FSX_SIT_EDP|10=071|
20231006-11:04:32.000 : 8=FIX.4.2|9=64|35=5|34=3|49=FSX_SIT_EDP|52=20231006-11:04:32.583|56=RSIT_EDP_2|10=087|
20231006-11:05:37.000 : 8=FIX.4.2|9=83|35=A|34=1|49=RSIT_EDP_2|52=20231006-11:05:37.000|56=FSX_SIT_EDP|98=0|108=300|141=Y|10=206|
20231006-11:05:37.000 : 8=FIX.4.2|9=83|35=A|34=1|49=RSIT_EDP_2|52=20231006-11:05:37.000|56=FSX_SIT_EDP|98=0|108=300|141=Y|10=206|
20231006-11:05:37.000 : 8=FIX.4.2|9=83|35=A|34=1|49=RSIT_EDP_2|52=20231006-11:05:37.000|56=FSX_SIT_EDP|98=0|108=300|141=Y|10=206|
20231006-11:05:37.000 : 8=FIX.4.2|9=83|35=A|34=1|49=RSIT_EDP_2|52=20231006-11:05:37.000|56=FSX_SIT_EDP|98=0|108=300|141=Y|10=206|
20231006-11:05:37.000 : 8=FIX.4.2|9=83|35=A|34=1|49=RSIT_EDP_2|52=20231006-11:05:37.000|56=FSX_SIT_EDP|98=0|108=300|141=Y|10=206|
20231006-11:05:37.000 : 8=FIX.4.2|9=83|35=A|34=1|49=RSIT_EDP_2|52=20231006-11:05:37.000|56=FSX_SIT_EDP|98=0|108=300|141=Y|10=206|
20231006-11:05:37.000 : 8=FIX.4.2|9=83|35=A|34=1|49=RSIT_EDP_2|52=20231006-11:05:37.000|56=FSX_SIT_EDP|98=0|108=300|141=Y|10=206|
20231006-11:05:37.000 : 8=FIX.4.2|9=83|35=A|34=1|49=RSIT_EDP_2|52=20231006-11:05:37.000|56=FSX_SIT_EDP|98=0|108=300|141=Y|10=206|
20231006-11:05:37.000 : 8=FIX.4.2|9=83|35=A|34=1|49=RSIT_EDP_2|52=20231006-11:05:37.000|56=FSX_SIT_EDP|98=0|108=300|141=Y|10=206|
20231006-11:05:38.000 : 8=FIX.4.2|9=83|35=A|34=1|49=FSX_SIT_EDP|52=20231006-11:05:38.063|56=RSIT_EDP_2|98=0|108=300|141=Y|10=216|
20231006-11:05:38.000 : 8=FIX.4.2|9=83|35=A|34=1|49=RSIT_EDP_2|52=20231006-11:05:38.000|56=FSX_SIT_EDP|98=0|108=300|141=Y|10=207|
20231006-11:05:39.000 : 8=FIX.4.2|9=163|35=D|34=2|49=RSIT_EDP_2|52=20231006-11:05:39.000|56=FSX_SIT_EDP|1=RSIT_EDP_ACCOUNT_10|11=16965903391725000001|38=100|40=1|54=2|55=5110|60=20231006-11:05:39.798370|10=016|
20231006-11:05:39.000 : 8=FIX.4.2|9=406|35=8|34=2|49=FSX_SIT_EDP|52=20231006-11:05:39.907|56=RSIT_EDP_2|1=RSIT_EDP_ACCOUNT_10|6=0|11=16965903391725000001|14=0|17=None|20=0|31=0|32=0|37=None|38=100|39=8|40=1|44=0|47=P|54=2|55=5110|58=ERROR_10010009,Invalid account: senderCompID=RSIT_EDP_2, account=RSIT_EDP_ACCOUNT_10|59=3|60=20231006-11:05:39.907|103=3|109=102|110=0|150=8|151=0|544=1|8060=3|8164=EDP|8169=20231006-11:05:39.907842|8174=0|8214=0|10=239|
20231006-11:06:37.000 : 8=FIX.4.2|9=83|35=A|34=1|49=RSIT_EDP_2|52=20231006-11:06:37.000|56=FSX_SIT_EDP|98=0|108=300|141=Y|10=207|
20231006-11:06:37.000 : 8=FIX.4.2|9=83|35=A|34=1|49=RSIT_EDP_2|52=20231006-11:06:37.000|56=FSX_SIT_EDP|98=0|108=300|141=Y|10=207|
20231006-11:06:37.000 : 8=FIX.4.2|9=83|35=A|34=1|49=RSIT_EDP_2|52=20231006-11:06:37.000|56=FSX_SIT_EDP|98=0|108=300|141=Y|10=207|
20231006-11:06:37.000 : 8=FIX.4.2|9=83|35=A|34=1|49=RSIT_EDP_2|52=20231006-11:06:37.000|56=FSX_SIT_EDP|98=0|108=300|141=Y|10=207|
20231006-11:06:37.000 : 8=FIX.4.2|9=83|35=A|34=1|49=RSIT_EDP_2|52=20231006-11:06:37.000|56=FSX_SIT_EDP|98=0|108=300|141=Y|10=207|
20231006-11:06:37.000 : 8=FIX.4.2|9=83|35=A|34=1|49=RSIT_EDP_2|52=20231006-11:06:37.000|56=FSX_SIT_EDP|98=0|108=300|141=Y|10=207|
20231006-11:06:37.000 : 8=FIX.4.2|9=83|35=A|34=1|49=RSIT_EDP_2|52=20231006-11:06:37.000|56=FSX_SIT_EDP|98=0|108=300|141=Y|10=207|
20231006-11:06:37.000 : 8=FIX.4.2|9=83|35=A|34=1|49=RSIT_EDP_2|52=20231006-11:06:37.000|56=FSX_SIT_EDP|98=0|108=300|141=Y|10=207|
20231006-11:06:38.000 : 8=FIX.4.2|9=83|35=A|34=1|49=RSIT_EDP_2|52=20231006-11:06:38.000|56=FSX_SIT_EDP|98=0|108=300|141=Y|10=208|
20231006-11:06:40.000 : 8=FIX.4.2|9=64|35=5|34=3|49=RSIT_EDP_2|52=20231006-11:06:40.000|56=FSX_SIT_EDP|10=072|
20231006-11:06:40.000 : 8=FIX.4.2|9=64|35=5|34=3|49=FSX_SIT_EDP|52=20231006-11:06:40.786|56=RSIT_EDP_2|10=093|
20231006-11:09:49.000 : 8=FIX.4.2|9=83|35=A|34=1|49=RSIT_EDP_2|52=20231006-11:09:49.000|56=FSX_SIT_EDP|98=0|108=300|141=Y|10=213|
20231006-11:09:50.000 : 8=FIX.4.2|9=83|35=A|34=1|49=FSX_SIT_EDP|52=20231006-11:09:50.050|56=RSIT_EDP_2|98=0|108=300|141=Y|10=210|
20231006-11:09:51.000 : 8=FIX.4.2|9=162|35=D|34=2|49=RSIT_EDP_2|52=20231006-11:09:51.000|56=FSX_SIT_EDP|1=RSIT_EDP_ACCOUNT_2|11=16965905910613000001|38=100|40=1|54=2|55=5110|60=20231006-11:09:51.767725|10=215|
20231006-11:09:51.000 : 8=FIX.4.2|9=380|35=8|34=2|49=FSX_SIT_EDP|52=20231006-11:09:51.922|56=RSIT_EDP_2|1=RSIT_EDP_ACCOUNT_2|6=0|11=16965905910613000001|14=0|17=1710251016493219840|20=0|31=0|32=0|37=1710251016482066432|38=100|39=8|40=1|44=0|47=P|54=2|55=5110|58=ERROR_20010064,Book is Closed|59=3|60=20231006-11:09:51.922|103=2|109=102|110=0|150=8|151=0|544=1|8060=3|8164=EDP|8169=20231006-11:09:51.922788|8174=0|8214=0|10=004|
20231006-11:09:51.000 : 8=FIX.4.2|9=64|35=5|34=3|49=RSIT_EDP_2|52=20231006-11:09:51.000|56=FSX_SIT_EDP|10=077|
20231006-11:09:52.000 : 8=FIX.4.2|9=64|35=5|34=3|49=FSX_SIT_EDP|52=20231006-11:09:51.995|56=RSIT_EDP_2|10=100|
20231006-11:11:09.000 : 8=FIX.4.2|9=83|35=A|34=1|49=RSIT_EDP_2|52=20231006-11:11:09.000|56=FSX_SIT_EDP|98=0|108=300|141=Y|10=202|
20231006-11:11:09.000 : 8=FIX.4.2|9=83|35=A|34=1|49=FSX_SIT_EDP|52=20231006-11:11:09.578|56=RSIT_EDP_2|98=0|108=300|141=Y|10=222|
20231006-11:11:11.000 : 8=FIX.4.2|9=162|35=D|34=2|49=RSIT_EDP_2|52=20231006-11:11:11.000|56=FSX_SIT_EDP|1=RSIT_EDP_ACCOUNT_2|11=16965906711274000001|38=100|40=1|54=2|55=5110|60=20231006-11:11:11.285045|10=186|
20231006-11:11:11.000 : 8=FIX.4.2|9=380|35=8|34=2|49=FSX_SIT_EDP|52=20231006-11:11:11.407|56=RSIT_EDP_2|1=RSIT_EDP_ACCOUNT_2|6=0|11=16965906711274000001|14=0|17=1710251349877473280|20=0|31=0|32=0|37=1710251349870514176|38=100|39=8|40=1|44=0|47=P|54=2|55=5110|58=ERROR_20010064,Book is Closed|59=3|60=20231006-11:11:11.407|103=2|109=102|110=0|150=8|151=0|544=1|8060=3|8164=EDP|8169=20231006-11:11:11.407343|8174=0|8214=0|10=239|
20231006-11:11:11.000 : 8=FIX.4.2|9=64|35=5|34=3|49=RSIT_EDP_2|52=20231006-11:11:11.000|56=FSX_SIT_EDP|10=066|
20231006-11:11:11.000 : 8=FIX.4.2|9=64|35=5|34=3|49=FSX_SIT_EDP|52=20231006-11:11:11.481|56=RSIT_EDP_2|10=079|
