20231006-10:36:18.000 : 8=FIX.4.2|9=83|35=A|34=1|49=RSIT_EDP_7|52=20231006-10:36:18.000|56=FSX_SIT_EDP|98=0|108=300|141=Y|10=213|
20231006-10:36:18.000 : 8=FIX.4.2|9=83|35=A|34=1|49=RSIT_EDP_7|52=20231006-10:36:18.000|56=FSX_SIT_EDP|98=0|108=300|141=Y|10=213|
20231006-10:36:18.000 : 8=FIX.4.2|9=83|35=A|34=1|49=RSIT_EDP_7|52=20231006-10:36:18.000|56=FSX_SIT_EDP|98=0|108=300|141=Y|10=213|
20231006-10:36:18.000 : 8=FIX.4.2|9=83|35=A|34=1|49=RSIT_EDP_7|52=20231006-10:36:18.000|56=FSX_SIT_EDP|98=0|108=300|141=Y|10=213|
20231006-10:36:18.000 : 8=FIX.4.2|9=83|35=A|34=1|49=FSX_SIT_EDP|52=20231006-10:36:18.440|56=RSIT_EDP_7|98=0|108=300|141=Y|10=221|
20231006-10:36:19.000 : 8=FIX.4.2|9=84|35=h|34=2|49=FSX_SIT_EDP|52=20231006-10:36:19.087|56=RSIT_EDP_7|336=EDP|339=3|340=2|10=098|
20231006-10:36:19.000 : 8=FIX.4.2|9=126|35=j|34=2|49=RSIT_EDP_7|52=20231006-10:36:19.000|56=FSX_SIT_EDP|45=2|58=Conditionally Required Field Missing (39)|372=h|380=5|10=033|
20231006-10:36:19.000 : 8=FIX.4.2|9=84|35=h|34=3|49=FSX_SIT_EDP|52=20231006-10:36:19.087|56=RSIT_EDP_7|336=EDP|339=3|340=3|10=100|
20231006-10:36:19.000 : 8=FIX.4.2|9=126|35=j|34=3|49=RSIT_EDP_7|52=20231006-10:36:19.000|56=FSX_SIT_EDP|45=3|58=Conditionally Required Field Missing (39)|372=h|380=5|10=035|
20231006-10:36:20.000 : 8=FIX.4.2|9=162|35=D|34=4|49=RSIT_EDP_7|52=20231006-10:36:20.000|56=FSX_SIT_EDP|1=RSIT_EDP_ACCOUNT_2|11=16965885807480000001|38=100|40=1|54=1|55=5110|60=20231006-10:36:20.232140|10=203|
20231006-10:36:20.000 : 8=FIX.4.2|9=162|35=D|34=5|49=RSIT_EDP_7|52=20231006-10:36:20.000|56=FSX_SIT_EDP|1=RSIT_EDP_ACCOUNT_2|11=16965885803205000002|38=100|40=1|54=2|55=5110|60=20231006-10:36:20.237865|10=216|
20231006-10:36:21.000 : 8=FIX.4.2|9=404|35=8|34=4|49=FSX_SIT_EDP|52=20231006-10:36:21.092|56=RSIT_EDP_7|1=RSIT_EDP_ACCOUNT_2|6=0|11=16965885807480000001|14=0|17=None|20=0|31=0|32=0|37=None|38=100|39=8|40=1|44=0|47=P|54=1|55=5110|58=ERROR_10010009,Invalid account: senderCompID=RSIT_EDP_7, account=RSIT_EDP_ACCOUNT_2|59=3|60=20231006-10:36:21.091|103=3|109=107|110=0|150=8|151=0|544=1|8060=3|8164=EDP|8169=20231006-10:36:21.091860|8174=0|8214=0|10=133|
20231006-10:36:21.000 : 8=FIX.4.2|9=404|35=8|34=5|49=FSX_SIT_EDP|52=20231006-10:36:21.092|56=RSIT_EDP_7|1=RSIT_EDP_ACCOUNT_2|6=0|11=16965885803205000002|14=0|17=None|20=0|31=0|32=0|37=None|38=100|39=8|40=1|44=0|47=P|54=2|55=5110|58=ERROR_10010009,Invalid account: senderCompID=RSIT_EDP_7, account=RSIT_EDP_ACCOUNT_2|59=3|60=20231006-10:36:21.092|103=3|109=107|110=0|150=8|151=0|544=1|8060=3|8164=EDP|8169=20231006-10:36:21.092887|8174=0|8214=0|10=138|
20231006-10:37:18.000 : 8=FIX.4.2|9=83|35=A|34=1|49=RSIT_EDP_7|52=20231006-10:37:18.000|56=FSX_SIT_EDP|98=0|108=300|141=Y|10=214|
20231006-10:37:18.000 : 8=FIX.4.2|9=83|35=A|34=1|49=RSIT_EDP_7|52=20231006-10:37:18.000|56=FSX_SIT_EDP|98=0|108=300|141=Y|10=214|
20231006-10:37:19.000 : 8=FIX.4.2|9=83|35=A|34=1|49=RSIT_EDP_7|52=20231006-10:37:19.000|56=FSX_SIT_EDP|98=0|108=300|141=Y|10=215|
20231006-10:37:21.000 : 8=FIX.4.2|9=64|35=5|34=6|49=RSIT_EDP_7|52=20231006-10:37:21.000|56=FSX_SIT_EDP|10=082|
20231006-10:37:21.000 : 8=FIX.4.2|9=64|35=5|34=6|49=FSX_SIT_EDP|52=20231006-10:37:21.502|56=RSIT_EDP_7|10=089|
20231006-11:10:06.000 : 8=FIX.4.2|9=83|35=A|34=1|49=RSIT_EDP_7|52=20231006-11:10:06.000|56=FSX_SIT_EDP|98=0|108=300|141=Y|10=203|
20231006-11:10:06.000 : 8=FIX.4.2|9=83|35=A|34=1|49=FSX_SIT_EDP|52=20231006-11:10:06.493|56=RSIT_EDP_7|98=0|108=300|141=Y|10=219|
20231006-11:10:08.000 : 8=FIX.4.2|9=162|35=D|34=2|49=RSIT_EDP_7|52=20231006-11:10:08.000|56=FSX_SIT_EDP|1=RSIT_EDP_ACCOUNT_7|11=16965906084307000001|38=100|40=1|54=2|55=5110|60=20231006-11:10:08.325140|10=197|
20231006-11:10:08.000 : 8=FIX.4.2|9=64|35=5|34=3|49=RSIT_EDP_7|52=20231006-11:10:08.000|56=FSX_SIT_EDP|10=076|
20231006-11:10:09.000 : 8=FIX.4.2|9=64|35=5|34=2|49=FSX_SIT_EDP|52=20231006-11:10:09.069|56=RSIT_EDP_7|10=091|
20231006-11:11:35.000 : 8=FIX.4.2|9=83|35=A|34=1|49=RSIT_EDP_7|52=20231006-11:11:35.000|56=FSX_SIT_EDP|98=0|108=300|141=Y|10=206|
20231006-11:11:35.000 : 8=FIX.4.2|9=83|35=A|34=1|49=FSX_SIT_EDP|52=20231006-11:11:35.718|56=RSIT_EDP_7|98=0|108=300|141=Y|10=222|
20231006-11:11:37.000 : 8=FIX.4.2|9=162|35=D|34=2|49=RSIT_EDP_7|52=20231006-11:11:37.000|56=FSX_SIT_EDP|1=RSIT_EDP_ACCOUNT_7|11=16965906975107000001|38=100|40=1|54=2|55=5110|60=20231006-11:11:37.438943|10=226|
20231006-11:11:37.000 : 8=FIX.4.2|9=380|35=8|34=2|49=FSX_SIT_EDP|52=20231006-11:11:37.619|56=RSIT_EDP_7|1=RSIT_EDP_ACCOUNT_7|6=0|11=16965906975107000001|14=0|17=1710251459818569728|20=0|31=0|32=0|37=1710251459811610624|38=100|39=8|40=1|44=0|47=P|54=2|55=5110|58=ERROR_20010064,Book is Closed|59=3|60=20231006-11:11:37.619|103=2|109=107|110=0|150=8|151=0|544=1|8060=3|8164=EDP|8169=20231006-11:11:37.619504|8174=0|8214=0|10=045|
20231006-11:11:37.000 : 8=FIX.4.2|9=64|35=5|34=3|49=RSIT_EDP_7|52=20231006-11:11:37.000|56=FSX_SIT_EDP|10=079|
20231006-11:11:37.000 : 8=FIX.4.2|9=64|35=5|34=3|49=FSX_SIT_EDP|52=20231006-11:11:37.738|56=RSIT_EDP_7|10=097|
