20231006-11:10:02.000 : 8=FIX.4.2|9=83|35=A|34=1|49=RSIT_EDP_6|52=20231006-11:10:02.000|56=FSX_SIT_EDP|98=0|108=300|141=Y|10=198|
20231006-11:10:02.000 : 8=FIX.4.2|9=83|35=A|34=1|49=FSX_SIT_EDP|52=20231006-11:10:02.831|56=RSIT_EDP_6|98=0|108=300|141=Y|10=210|
20231006-11:10:04.000 : 8=FIX.4.2|9=84|35=h|34=2|49=FSX_SIT_EDP|52=20231006-11:10:04.126|56=RSIT_EDP_6|336=EDP|339=3|340=2|10=078|
20231006-11:10:04.000 : 8=FIX.4.2|9=126|35=j|34=2|49=RSIT_EDP_6|52=20231006-11:10:04.000|56=FSX_SIT_EDP|45=2|58=Conditionally Required Field Missing (39)|372=h|380=5|10=019|
20231006-11:10:04.000 : 8=FIX.4.2|9=84|35=h|34=3|49=FSX_SIT_EDP|52=20231006-11:10:04.126|56=RSIT_EDP_6|336=EDP|339=3|340=3|10=080|
20231006-11:10:04.000 : 8=FIX.4.2|9=126|35=j|34=3|49=RSIT_EDP_6|52=20231006-11:10:04.000|56=FSX_SIT_EDP|45=3|58=Conditionally Required Field Missing (39)|372=h|380=5|10=021|
20231006-11:10:04.000 : 8=FIX.4.2|9=162|35=D|34=4|49=RSIT_EDP_6|52=20231006-11:10:04.000|56=FSX_SIT_EDP|1=RSIT_EDP_ACCOUNT_6|11=16965906043754000001|38=100|40=1|54=2|55=5110|60=20231006-11:10:04.661520|10=195|
20231006-11:10:05.000 : 8=FIX.4.2|9=380|35=8|34=4|49=FSX_SIT_EDP|52=20231006-11:10:04.835|56=RSIT_EDP_6|1=RSIT_EDP_ACCOUNT_6|6=0|11=16965906043754000001|14=0|17=1710251070654267392|20=0|31=0|32=0|37=1710251070643113984|38=100|39=8|40=1|44=0|47=P|54=2|55=5110|58=ERROR_20010064,Book is Closed|59=3|60=20231006-11:10:04.835|103=2|109=106|110=0|150=8|151=0|544=1|8060=3|8164=EDP|8169=20231006-11:10:04.835314|8174=0|8214=0|10=250|
20231006-11:10:05.000 : 8=FIX.4.2|9=64|35=5|34=5|49=RSIT_EDP_6|52=20231006-11:10:05.000|56=FSX_SIT_EDP|10=074|
20231006-11:10:05.000 : 8=FIX.4.2|9=64|35=5|34=5|49=FSX_SIT_EDP|52=20231006-11:10:05.189|56=RSIT_EDP_6|10=092|
20231006-11:11:30.000 : 8=FIX.4.2|9=83|35=A|34=1|49=RSIT_EDP_6|52=20231006-11:11:30.000|56=FSX_SIT_EDP|98=0|108=300|141=Y|10=200|
20231006-11:11:30.000 : 8=FIX.4.2|9=83|35=A|34=1|49=FSX_SIT_EDP|52=20231006-11:11:30.218|56=RSIT_EDP_6|98=0|108=300|141=Y|10=211|
20231006-11:11:31.000 : 8=FIX.4.2|9=162|35=D|34=2|49=RSIT_EDP_6|52=20231006-11:11:31.000|56=FSX_SIT_EDP|1=RSIT_EDP_ACCOUNT_6|11=16965906912615000001|38=100|40=1|54=2|55=5110|60=20231006-11:11:31.928107|10=203|
20231006-11:11:32.000 : 8=FIX.4.2|9=380|35=8|34=2|49=FSX_SIT_EDP|52=20231006-11:11:32.110|56=RSIT_EDP_6|1=RSIT_EDP_ACCOUNT_6|6=0|11=16965906912615000001|14=0|17=1710251436712148992|20=0|31=0|32=0|37=1710251436700995584|38=100|39=8|40=1|44=0|47=P|54=2|55=5110|58=ERROR_20010064,Book is Closed|59=3|60=20231006-11:11:32.110|103=2|109=106|110=0|150=8|151=0|544=1|8060=3|8164=EDP|8169=20231006-11:11:32.110467|8174=0|8214=0|10=241|
20231006-11:11:32.000 : 8=FIX.4.2|9=64|35=5|34=3|49=RSIT_EDP_6|52=20231006-11:11:32.000|56=FSX_SIT_EDP|10=073|
20231006-11:11:32.000 : 8=FIX.4.2|9=64|35=5|34=3|49=FSX_SIT_EDP|52=20231006-11:11:32.238|56=RSIT_EDP_6|10=086|
