20231006-10:36:19.000 : 8=FIX.4.2|9=83|35=A|34=1|49=RSIT_EDP_9|52=20231006-10:36:19.000|56=FSX_SIT_EDP|98=0|108=300|141=Y|10=216|
20231006-10:36:19.000 : 8=FIX.4.2|9=83|35=A|34=1|49=FSX_SIT_EDP|52=20231006-10:36:19.445|56=RSIT_EDP_9|98=0|108=300|141=Y|10=229|
20231006-10:36:20.000 : 8=FIX.4.2|9=162|35=D|34=2|49=RSIT_EDP_9|52=20231006-10:36:20.000|56=FSX_SIT_EDP|1=RSIT_EDP_ACCOUNT_9|11=16965885805013000001|38=100|40=1|54=1|55=5110|60=20231006-10:36:20.233452|10=207|
20231006-10:36:20.000 : 8=FIX.4.2|9=162|35=D|34=3|49=RSIT_EDP_9|52=20231006-10:36:20.000|56=FSX_SIT_EDP|1=RSIT_EDP_ACCOUNT_9|11=16965885807286000002|38=100|40=1|54=2|55=5110|60=20231006-10:36:20.238541|10=228|
20231006-10:36:22.000 : 8=FIX.4.2|9=380|35=8|34=2|49=FSX_SIT_EDP|52=20231006-10:36:20.413|56=RSIT_EDP_9|1=RSIT_EDP_ACCOUNT_9|6=0|11=16965885805013000001|14=0|17=1710242579592003584|20=0|31=0|32=0|37=1710242579585044480|38=100|39=8|40=1|44=0|47=P|54=1|55=5110|58=ERROR_20010064,Book is Closed|59=3|60=20231006-10:36:20.413|103=2|109=109|110=0|150=8|151=0|544=1|8060=3|8164=EDP|8169=20231006-10:36:20.413455|8174=0|8214=0|10=016|
20231006-10:36:22.000 : 8=FIX.4.2|9=380|35=8|34=3|49=FSX_SIT_EDP|52=20231006-10:36:20.516|56=RSIT_EDP_9|1=RSIT_EDP_ACCOUNT_9|6=0|11=16965885807286000002|14=0|17=1710242580032405504|20=0|31=0|32=0|37=1710242580017057793|38=100|39=8|40=1|44=0|47=P|54=2|55=5110|58=ERROR_20010064,Book is Closed|59=3|60=20231006-10:36:20.516|103=2|109=109|110=0|150=8|151=0|544=1|8060=3|8164=EDP|8169=20231006-10:36:20.516589|8174=0|8214=0|10=025|
20231006-10:36:24.000 : 8=FIX.4.2|9=84|35=h|34=4|49=FSX_SIT_EDP|52=20231006-10:36:24.246|56=RSIT_EDP_9|336=EDP|339=3|340=2|10=095|
20231006-10:36:24.000 : 8=FIX.4.2|9=126|35=j|34=4|49=RSIT_EDP_9|52=20231006-10:36:24.000|56=FSX_SIT_EDP|45=4|58=Conditionally Required Field Missing (39)|372=h|380=5|10=035|
20231006-10:36:24.000 : 8=FIX.4.2|9=84|35=h|34=5|49=FSX_SIT_EDP|52=20231006-10:36:24.247|56=RSIT_EDP_9|336=EDP|339=3|340=3|10=098|
20231006-10:36:24.000 : 8=FIX.4.2|9=126|35=j|34=5|49=RSIT_EDP_9|52=20231006-10:36:24.000|56=FSX_SIT_EDP|45=5|58=Conditionally Required Field Missing (39)|372=h|380=5|10=037|
20231006-10:37:20.000 : 8=FIX.4.2|9=64|35=5|34=6|49=RSIT_EDP_9|52=20231006-10:37:20.000|56=FSX_SIT_EDP|10=083|
20231006-10:37:21.000 : 8=FIX.4.2|9=64|35=5|34=6|49=FSX_SIT_EDP|52=20231006-10:37:20.632|56=RSIT_EDP_9|10=094|
20231006-10:55:04.000 : 8=FIX.4.2|9=83|35=A|34=1|49=RSIT_EDP_9|52=20231006-10:55:04.000|56=FSX_SIT_EDP|98=0|108=300|141=Y|10=211|
20231006-10:55:04.000 : 8=FIX.4.2|9=83|35=A|34=1|49=FSX_SIT_EDP|52=20231006-10:55:04.246|56=RSIT_EDP_9|98=0|108=300|141=Y|10=223|
20231006-10:55:06.000 : 8=FIX.4.2|9=162|35=D|34=2|49=RSIT_EDP_9|52=20231006-10:55:06.000|56=FSX_SIT_EDP|1=RSIT_EDP_ACCOUNT_9|11=16965897067520000001|38=100|40=1|54=2|55=5110|60=20231006-10:55:06.004992|10=229|
20231006-10:55:06.000 : 8=FIX.4.2|9=380|35=8|34=2|49=FSX_SIT_EDP|52=20231006-10:55:06.163|56=RSIT_EDP_9|1=RSIT_EDP_ACCOUNT_9|6=0|11=16965897067520000001|14=0|17=1710247301333925888|20=0|31=0|32=0|37=1710247301326966784|38=100|39=8|40=1|44=0|47=P|54=2|55=5110|58=ERROR_20010064,Book is Closed|59=3|60=20231006-10:55:06.163|103=2|109=109|110=0|150=8|151=0|544=1|8060=3|8164=EDP|8169=20231006-10:55:06.163440|8174=0|8214=0|10=040|
20231006-10:56:06.000 : 8=FIX.4.2|9=64|35=5|34=3|49=RSIT_EDP_9|52=20231006-10:56:06.000|56=FSX_SIT_EDP|10=085|
20231006-10:56:06.000 : 8=FIX.4.2|9=64|35=5|34=3|49=FSX_SIT_EDP|52=20231006-10:56:06.826|56=RSIT_EDP_9|10=101|
20231006-11:10:12.000 : 8=FIX.4.2|9=83|35=A|34=1|49=RSIT_EDP_9|52=20231006-11:10:12.000|56=FSX_SIT_EDP|98=0|108=300|141=Y|10=202|
20231006-11:10:13.000 : 8=FIX.4.2|9=83|35=A|34=1|49=FSX_SIT_EDP|52=20231006-11:10:13.199|56=RSIT_EDP_9|98=0|108=300|141=Y|10=222|
20231006-11:10:14.000 : 8=FIX.4.2|9=162|35=D|34=2|49=RSIT_EDP_9|52=20231006-11:10:14.000|56=FSX_SIT_EDP|1=RSIT_EDP_ACCOUNT_9|11=16965906147306000001|38=100|40=1|54=2|55=5110|60=20231006-11:10:14.552916|10=207|
20231006-11:10:14.000 : 8=FIX.4.2|9=380|35=8|34=2|49=FSX_SIT_EDP|52=20231006-11:10:14.771|56=RSIT_EDP_9|1=RSIT_EDP_ACCOUNT_9|6=0|11=16965906147306000001|14=0|17=1710251112316289024|20=0|31=0|32=0|37=1710251112313524224|38=100|39=8|40=1|44=0|47=P|54=2|55=5110|58=ERROR_20010064,Book is Closed|59=3|60=20231006-11:10:14.771|103=2|109=109|110=0|150=8|151=0|544=1|8060=3|8164=EDP|8169=20231006-11:10:14.771673|8174=0|8214=0|10=235|
20231006-11:10:14.000 : 8=FIX.4.2|9=64|35=5|34=3|49=RSIT_EDP_9|52=20231006-11:10:14.000|56=FSX_SIT_EDP|10=075|
20231006-11:10:14.000 : 8=FIX.4.2|9=64|35=5|34=3|49=FSX_SIT_EDP|52=20231006-11:10:14.888|56=RSIT_EDP_9|10=099|
20231006-11:11:46.000 : 8=FIX.4.2|9=83|35=A|34=1|49=RSIT_EDP_9|52=20231006-11:11:46.000|56=FSX_SIT_EDP|98=0|108=300|141=Y|10=210|
20231006-11:11:46.000 : 8=FIX.4.2|9=83|35=A|34=1|49=FSX_SIT_EDP|52=20231006-11:11:46.573|56=RSIT_EDP_9|98=0|108=300|141=Y|10=225|
20231006-11:11:47.000 : 8=FIX.4.2|9=162|35=D|34=2|49=RSIT_EDP_9|52=20231006-11:11:47.000|56=FSX_SIT_EDP|1=RSIT_EDP_ACCOUNT_9|11=16965907077128000001|38=100|40=1|54=2|55=5110|60=20231006-11:11:47.404583|10=222|
20231006-11:11:47.000 : 8=FIX.4.2|9=380|35=8|34=2|49=FSX_SIT_EDP|52=20231006-11:11:47.534|56=RSIT_EDP_9|1=RSIT_EDP_ACCOUNT_9|6=0|11=16965907077128000001|14=0|17=1710251501392510976|20=0|31=0|32=0|37=1710251501389746176|38=100|39=8|40=1|44=0|47=P|54=2|55=5110|58=ERROR_20010064,Book is Closed|59=3|60=20231006-11:11:47.534|103=2|109=109|110=0|150=8|151=0|544=1|8060=3|8164=EDP|8169=20231006-11:11:47.534591|8174=0|8214=0|10=031|
20231006-11:11:47.000 : 8=FIX.4.2|9=64|35=5|34=3|49=RSIT_EDP_9|52=20231006-11:11:47.000|56=FSX_SIT_EDP|10=082|
20231006-11:11:47.000 : 8=FIX.4.2|9=64|35=5|34=3|49=FSX_SIT_EDP|52=20231006-11:11:47.605|56=RSIT_EDP_9|10=093|
