20231006-10:36:19.000 : 8=FIX.4.2|9=83|35=A|34=1|49=RSIT_EDP_1|52=20231006-10:36:19.000|56=FSX_SIT_EDP|98=0|108=300|141=Y|10=208|
20231006-10:36:19.000 : 8=FIX.4.2|9=83|35=A|34=1|49=FSX_SIT_EDP|52=20231006-10:36:19.458|56=RSIT_EDP_1|98=0|108=300|141=Y|10=225|
20231006-10:36:20.000 : 8=FIX.4.2|9=162|35=D|34=2|49=RSIT_EDP_1|52=20231006-10:36:20.000|56=FSX_SIT_EDP|1=RSIT_EDP_ACCOUNT_1|11=16965885802643000001|38=100|40=1|54=1|55=5110|60=20231006-10:36:20.245384|10=204|
20231006-10:36:20.000 : 8=FIX.4.2|9=162|35=D|34=3|49=RSIT_EDP_1|52=20231006-10:36:20.000|56=FSX_SIT_EDP|1=RSIT_EDP_ACCOUNT_1|11=16965885805382000002|38=100|40=1|54=2|55=5110|60=20231006-10:36:20.251040|10=196|
20231006-10:36:20.000 : 8=FIX.4.2|9=380|35=8|34=2|49=FSX_SIT_EDP|52=20231006-10:36:20.434|56=RSIT_EDP_1|1=RSIT_EDP_ACCOUNT_1|6=0|11=16965885802643000001|14=0|17=1710242579688472576|20=0|31=0|32=0|37=1710242579681513472|38=100|39=8|40=1|44=0|47=P|54=1|55=5110|58=ERROR_20010064,Book is Closed|59=3|60=20231006-10:36:20.434|103=2|109=101|110=0|150=8|151=0|544=1|8060=3|8164=EDP|8169=20231006-10:36:20.434574|8174=0|8214=0|10=025|
20231006-10:36:20.000 : 8=FIX.4.2|9=380|35=8|34=3|49=FSX_SIT_EDP|52=20231006-10:36:20.515|56=RSIT_EDP_1|1=RSIT_EDP_ACCOUNT_1|6=0|11=16965885805382000002|14=0|17=1710242580024016896|20=0|31=0|32=0|37=1710242580017057792|38=100|39=8|40=1|44=0|47=P|54=2|55=5110|58=ERROR_20010064,Book is Closed|59=3|60=20231006-10:36:20.515|103=2|109=101|110=0|150=8|151=0|544=1|8060=3|8164=EDP|8169=20231006-10:36:20.515700|8174=0|8214=0|10=246|
20231006-10:36:24.000 : 8=FIX.4.2|9=84|35=h|34=4|49=FSX_SIT_EDP|52=20231006-10:36:24.246|56=RSIT_EDP_1|336=EDP|339=3|340=2|10=087|
20231006-10:36:24.000 : 8=FIX.4.2|9=126|35=j|34=4|49=RSIT_EDP_1|52=20231006-10:36:24.000|56=FSX_SIT_EDP|45=4|58=Conditionally Required Field Missing (39)|372=h|380=5|10=027|
20231006-10:36:24.000 : 8=FIX.4.2|9=84|35=h|34=5|49=FSX_SIT_EDP|52=20231006-10:36:24.247|56=RSIT_EDP_1|336=EDP|339=3|340=3|10=090|
20231006-10:36:24.000 : 8=FIX.4.2|9=126|35=j|34=5|49=RSIT_EDP_1|52=20231006-10:36:24.000|56=FSX_SIT_EDP|45=5|58=Conditionally Required Field Missing (39)|372=h|380=5|10=029|
20231006-10:37:21.000 : 8=FIX.4.2|9=64|35=5|34=6|49=RSIT_EDP_1|52=20231006-10:37:21.000|56=FSX_SIT_EDP|10=076|
20231006-10:37:21.000 : 8=FIX.4.2|9=64|35=5|34=6|49=FSX_SIT_EDP|52=20231006-10:37:21.513|56=RSIT_EDP_1|10=085|
20231006-10:48:28.000 : 8=FIX.4.2|9=83|35=A|34=1|49=RSIT_EDP_1|52=20231006-10:48:28.000|56=FSX_SIT_EDP|98=0|108=300|141=Y|10=211|
20231006-10:48:28.000 : 8=FIX.4.2|9=83|35=A|34=1|49=RSIT_EDP_1|52=20231006-10:48:28.000|56=FSX_SIT_EDP|98=0|108=300|141=Y|10=211|
20231006-10:48:28.000 : 8=FIX.4.2|9=83|35=A|34=1|49=RSIT_EDP_1|52=20231006-10:48:28.000|56=FSX_SIT_EDP|98=0|108=300|141=Y|10=211|
20231006-10:48:28.000 : 8=FIX.4.2|9=83|35=A|34=1|49=RSIT_EDP_1|52=20231006-10:48:28.000|56=FSX_SIT_EDP|98=0|108=300|141=Y|10=211|
20231006-10:48:28.000 : 8=FIX.4.2|9=83|35=A|34=1|49=RSIT_EDP_1|52=20231006-10:48:28.000|56=FSX_SIT_EDP|98=0|108=300|141=Y|10=211|
20231006-10:48:28.000 : 8=FIX.4.2|9=83|35=A|34=1|49=RSIT_EDP_1|52=20231006-10:48:28.000|56=FSX_SIT_EDP|98=0|108=300|141=Y|10=211|
20231006-10:48:28.000 : 8=FIX.4.2|9=83|35=A|34=1|49=RSIT_EDP_1|52=20231006-10:48:28.000|56=FSX_SIT_EDP|98=0|108=300|141=Y|10=211|
20231006-10:48:28.000 : 8=FIX.4.2|9=83|35=A|34=1|49=RSIT_EDP_1|52=20231006-10:48:28.000|56=FSX_SIT_EDP|98=0|108=300|141=Y|10=211|
20231006-10:48:28.000 : 8=FIX.4.2|9=83|35=A|34=1|49=RSIT_EDP_1|52=20231006-10:48:28.000|56=FSX_SIT_EDP|98=0|108=300|141=Y|10=211|
20231006-10:48:28.000 : 8=FIX.4.2|9=83|35=A|34=1|49=RSIT_EDP_1|52=20231006-10:48:28.000|56=FSX_SIT_EDP|98=0|108=300|141=Y|10=211|
20231006-10:48:28.000 : 8=FIX.4.2|9=83|35=A|34=1|49=RSIT_EDP_1|52=20231006-10:48:28.000|56=FSX_SIT_EDP|98=0|108=300|141=Y|10=211|
20231006-10:48:28.000 : 8=FIX.4.2|9=83|35=A|34=1|49=FSX_SIT_EDP|52=20231006-10:48:29.016|56=RSIT_EDP_1|98=0|108=300|141=Y|10=219|
20231006-10:48:30.000 : 8=FIX.4.2|9=162|35=D|34=2|49=RSIT_EDP_1|52=20231006-10:48:30.000|56=FSX_SIT_EDP|1=RSIT_EDP_ACCOUNT_2|11=16965893100723000001|38=100|40=1|54=2|55=5110|60=20231006-10:48:30.751912|10=202|
20231006-10:48:30.000 : 8=FIX.4.2|9=404|35=8|34=2|49=FSX_SIT_EDP|52=20231006-10:48:30.917|56=RSIT_EDP_1|1=RSIT_EDP_ACCOUNT_2|6=0|11=16965893100723000001|14=0|17=None|20=0|31=0|32=0|37=None|38=100|39=8|40=1|44=0|47=P|54=2|55=5110|58=ERROR_10010009,Invalid account: senderCompID=RSIT_EDP_1, account=RSIT_EDP_ACCOUNT_2|59=3|60=20231006-10:48:30.917|103=3|109=101|110=0|150=8|151=0|544=1|8060=3|8164=EDP|8169=20231006-10:48:30.917401|8174=0|8214=0|10=119|
20231006-10:49:28.000 : 8=FIX.4.2|9=83|35=A|34=1|49=RSIT_EDP_1|52=20231006-10:49:28.000|56=FSX_SIT_EDP|98=0|108=300|141=Y|10=212|
20231006-10:49:28.000 : 8=FIX.4.2|9=83|35=A|34=1|49=RSIT_EDP_1|52=20231006-10:49:28.000|56=FSX_SIT_EDP|98=0|108=300|141=Y|10=212|
20231006-10:49:28.000 : 8=FIX.4.2|9=83|35=A|34=1|49=RSIT_EDP_1|52=20231006-10:49:28.000|56=FSX_SIT_EDP|98=0|108=300|141=Y|10=212|
20231006-10:49:28.000 : 8=FIX.4.2|9=83|35=A|34=1|49=RSIT_EDP_1|52=20231006-10:49:28.000|56=FSX_SIT_EDP|98=0|108=300|141=Y|10=212|
20231006-10:49:28.000 : 8=FIX.4.2|9=83|35=A|34=1|49=RSIT_EDP_1|52=20231006-10:49:28.000|56=FSX_SIT_EDP|98=0|108=300|141=Y|10=212|
20231006-10:49:28.000 : 8=FIX.4.2|9=83|35=A|34=1|49=RSIT_EDP_1|52=20231006-10:49:28.000|56=FSX_SIT_EDP|98=0|108=300|141=Y|10=212|
20231006-10:49:28.000 : 8=FIX.4.2|9=83|35=A|34=1|49=RSIT_EDP_1|52=20231006-10:49:28.000|56=FSX_SIT_EDP|98=0|108=300|141=Y|10=212|
20231006-10:49:28.000 : 8=FIX.4.2|9=83|35=A|34=1|49=RSIT_EDP_1|52=20231006-10:49:28.000|56=FSX_SIT_EDP|98=0|108=300|141=Y|10=212|
20231006-10:49:28.000 : 8=FIX.4.2|9=83|35=A|34=1|49=RSIT_EDP_1|52=20231006-10:49:28.000|56=FSX_SIT_EDP|98=0|108=300|141=Y|10=212|
20231006-10:49:28.000 : 8=FIX.4.2|9=83|35=A|34=1|49=RSIT_EDP_1|52=20231006-10:49:28.000|56=FSX_SIT_EDP|98=0|108=300|141=Y|10=212|
20231006-10:49:31.000 : 8=FIX.4.2|9=64|35=5|34=3|49=RSIT_EDP_1|52=20231006-10:49:31.000|56=FSX_SIT_EDP|10=077|
20231006-10:49:31.000 : 8=FIX.4.2|9=64|35=5|34=3|49=FSX_SIT_EDP|52=20231006-10:49:31.473|56=RSIT_EDP_1|10=091|
20231006-10:55:04.000 : 8=FIX.4.2|9=83|35=A|34=1|49=RSIT_EDP_1|52=20231006-10:55:04.000|56=FSX_SIT_EDP|98=0|108=300|141=Y|10=203|
20231006-10:55:04.000 : 8=FIX.4.2|9=83|35=A|34=1|49=FSX_SIT_EDP|52=20231006-10:55:04.244|56=RSIT_EDP_1|98=0|108=300|141=Y|10=213|
20231006-10:55:06.000 : 8=FIX.4.2|9=162|35=D|34=2|49=RSIT_EDP_1|52=20231006-10:55:06.000|56=FSX_SIT_EDP|1=RSIT_EDP_ACCOUNT_1|11=16965897067038000001|38=100|40=1|54=2|55=5110|60=20231006-10:55:06.000435|10=205|
20231006-10:55:06.000 : 8=FIX.4.2|9=380|35=8|34=2|49=FSX_SIT_EDP|52=20231006-10:55:06.159|56=RSIT_EDP_1|1=RSIT_EDP_ACCOUNT_1|6=0|11=16965897067038000001|14=0|17=1710247301308760064|20=0|31=0|32=0|37=1710247301297606656|38=100|39=8|40=1|44=0|47=P|54=2|55=5110|58=ERROR_20010064,Book is Closed|59=3|60=20231006-10:55:06.159|103=2|109=101|110=0|150=8|151=0|544=1|8060=3|8164=EDP|8169=20231006-10:55:06.159206|8174=0|8214=0|10=016|
20231006-10:56:06.000 : 8=FIX.4.2|9=64|35=5|34=3|49=RSIT_EDP_1|52=20231006-10:56:06.000|56=FSX_SIT_EDP|10=077|
20231006-10:56:06.000 : 8=FIX.4.2|9=64|35=5|34=3|49=FSX_SIT_EDP|52=20231006-10:56:06.769|56=RSIT_EDP_1|10=099|
20231006-11:03:06.000 : 8=FIX.4.2|9=83|35=A|34=1|49=RSIT_EDP_1|52=20231006-11:03:06.000|56=FSX_SIT_EDP|98=0|108=300|141=Y|10=199|
20231006-11:03:06.000 : 8=FIX.4.2|9=83|35=A|34=1|49=FSX_SIT_EDP|52=20231006-11:03:06.267|56=RSIT_EDP_1|98=0|108=300|141=Y|10=214|
20231006-11:03:08.000 : 8=FIX.4.2|9=162|35=D|34=2|49=RSIT_EDP_1|52=20231006-11:03:08.000|56=FSX_SIT_EDP|1=RSIT_EDP_ACCOUNT_1|11=16965901880523000001|38=100|40=1|54=2|55=5110|60=20231006-11:03:08.096341|10=196|
20231006-11:03:08.000 : 8=FIX.4.2|9=380|35=8|34=2|49=FSX_SIT_EDP|52=20231006-11:03:08.227|56=RSIT_EDP_1|1=RSIT_EDP_ACCOUNT_1|6=0|11=16965901880523000001|14=0|17=1710249323256889344|20=0|31=0|32=0|37=1710249323241541632|38=100|39=8|40=1|44=0|47=P|54=2|55=5110|58=ERROR_20010064,Book is Closed|59=3|60=20231006-11:03:08.227|103=2|109=101|110=0|150=8|151=0|544=1|8060=3|8164=EDP|8169=20231006-11:03:08.227256|8174=0|8214=0|10=249|
20231006-11:04:09.000 : 8=FIX.4.2|9=64|35=5|34=3|49=RSIT_EDP_1|52=20231006-11:04:09.000|56=FSX_SIT_EDP|10=074|
20231006-11:04:09.000 : 8=FIX.4.2|9=64|35=5|34=3|49=FSX_SIT_EDP|52=20231006-11:04:09.483|56=RSIT_EDP_1|10=089|
20231006-11:07:54.000 : 8=FIX.4.2|9=83|35=A|34=1|49=RSIT_EDP_1|52=20231006-11:07:54.000|56=FSX_SIT_EDP|98=0|108=300|141=Y|10=206|
20231006-11:07:55.000 : 8=FIX.4.2|9=83|35=A|34=1|49=FSX_SIT_EDP|52=20231006-11:07:55.089|56=RSIT_EDP_1|98=0|108=300|141=Y|10=224|
20231006-11:07:56.000 : 8=FIX.4.2|9=162|35=D|34=2|49=RSIT_EDP_1|52=20231006-11:07:56.000|56=FSX_SIT_EDP|1=RSIT_EDP_ACCOUNT_1|11=16965904766748000001|38=100|40=1|54=2|55=5110|60=20231006-11:07:56.455146|10=227|
20231006-11:07:56.000 : 8=FIX.4.2|9=380|35=8|34=2|49=FSX_SIT_EDP|52=20231006-11:07:56.637|56=RSIT_EDP_1|1=RSIT_EDP_ACCOUNT_1|6=0|11=16965904766748000001|14=0|17=1710250532931911680|20=0|31=0|32=0|37=1710250532924952576|38=100|39=8|40=1|44=0|47=P|54=2|55=5110|58=ERROR_20010064,Book is Closed|59=3|60=20231006-11:07:56.637|103=2|109=101|110=0|150=8|151=0|544=1|8060=3|8164=EDP|8169=20231006-11:07:56.637467|8174=0|8214=0|10=046|
20231006-11:09:48.000 : 8=FIX.4.2|9=83|35=A|34=1|49=RSIT_EDP_1|52=20231006-11:09:48.000|56=FSX_SIT_EDP|98=0|108=300|141=Y|10=211|
20231006-11:11:03.000 : 8=FIX.4.2|9=83|35=A|34=1|49=RSIT_EDP_1|52=20231006-11:11:03.000|56=FSX_SIT_EDP|98=0|108=300|141=Y|10=195|
20231006-11:11:04.000 : 8=FIX.4.2|9=83|35=A|34=1|49=FSX_SIT_EDP|52=20231006-11:11:03.930|56=RSIT_EDP_1|98=0|108=300|141=Y|10=207|
20231006-11:11:05.000 : 8=FIX.4.2|9=162|35=D|34=2|49=RSIT_EDP_1|52=20231006-11:11:05.000|56=FSX_SIT_EDP|1=RSIT_EDP_ACCOUNT_1|11=16965906654587000001|38=100|40=1|54=2|55=5110|60=20231006-11:11:05.756006|10=203|
20231006-11:11:05.000 : 8=FIX.4.2|9=380|35=8|34=2|49=FSX_SIT_EDP|52=20231006-11:11:05.922|56=RSIT_EDP_1|1=RSIT_EDP_ACCOUNT_1|6=0|11=16965906654587000001|14=0|17=1710251326842355712|20=0|31=0|32=0|37=1710251326827008000|38=100|39=8|40=1|44=0|47=P|54=2|55=5110|58=ERROR_20010064,Book is Closed|59=3|60=20231006-11:11:05.922|103=2|109=101|110=0|150=8|151=0|544=1|8060=3|8164=EDP|8169=20231006-11:11:05.922470|8174=0|8214=0|10=232|
20231006-11:11:05.000 : 8=FIX.4.2|9=64|35=5|34=3|49=RSIT_EDP_1|52=20231006-11:11:05.000|56=FSX_SIT_EDP|10=068|
20231006-11:11:06.000 : 8=FIX.4.2|9=64|35=5|34=3|49=FSX_SIT_EDP|52=20231006-11:11:05.994|56=RSIT_EDP_1|10=090|
