20231006-11:09:54.000 : 8=FIX.4.2|9=83|35=A|34=1|49=RSIT_EDP_3|52=20231006-11:09:54.000|56=FSX_SIT_EDP|98=0|108=300|141=Y|10=210|
20231006-11:11:14.000 : 8=FIX.4.2|9=83|35=A|34=1|49=RSIT_EDP_3|52=20231006-11:11:14.000|56=FSX_SIT_EDP|98=0|108=300|141=Y|10=199|
