20231006-10:36:18.000 : 8=FIX.4.2|9=83|35=A|34=1|49=RSIT_EDP_5|52=20231006-10:36:18.000|56=FSX_SIT_EDP|98=0|108=300|141=Y|10=211|
20231006-10:36:18.000 : 8=FIX.4.2|9=83|35=A|34=1|49=FSX_SIT_EDP|52=20231006-10:36:18.441|56=RSIT_EDP_5|98=0|108=300|141=Y|10=220|
20231006-10:36:19.000 : 8=FIX.4.2|9=84|35=h|34=2|49=FSX_SIT_EDP|52=20231006-10:36:19.392|56=RSIT_EDP_5|336=EDP|339=3|340=2|10=095|
20231006-10:36:19.000 : 8=FIX.4.2|9=126|35=j|34=2|49=RSIT_EDP_5|52=20231006-10:36:19.000|56=FSX_SIT_EDP|45=2|58=Conditionally Required Field Missing (39)|372=h|380=5|10=031|
20231006-10:36:19.000 : 8=FIX.4.2|9=84|35=h|34=3|49=FSX_SIT_EDP|52=20231006-10:36:19.393|56=RSIT_EDP_5|336=EDP|339=3|340=3|10=098|
20231006-10:36:19.000 : 8=FIX.4.2|9=126|35=j|34=3|49=RSIT_EDP_5|52=20231006-10:36:19.000|56=FSX_SIT_EDP|45=3|58=Conditionally Required Field Missing (39)|372=h|380=5|10=033|
20231006-10:36:20.000 : 8=FIX.4.2|9=162|35=D|34=4|49=RSIT_EDP_5|52=20231006-10:36:20.000|56=FSX_SIT_EDP|1=RSIT_EDP_ACCOUNT_5|11=16965885808321000001|38=100|40=1|54=1|55=5110|60=20231006-10:36:20.233470|10=206|
20231006-10:36:20.000 : 8=FIX.4.2|9=162|35=D|34=5|49=RSIT_EDP_5|52=20231006-10:36:20.000|56=FSX_SIT_EDP|1=RSIT_EDP_ACCOUNT_5|11=16965885806123000002|38=100|40=1|54=2|55=5110|60=20231006-10:36:20.238956|10=221|
20231006-10:36:20.000 : 8=FIX.4.2|9=380|35=8|34=4|49=FSX_SIT_EDP|52=20231006-10:36:20.419|56=RSIT_EDP_5|1=RSIT_EDP_ACCOUNT_5|6=0|11=16965885808321000001|14=0|17=1710242579592003585|20=0|31=0|32=0|37=1710242579585044481|38=100|39=8|40=1|44=0|47=P|54=1|55=5110|58=ERROR_20010064,Book is Closed|59=3|60=20231006-10:36:20.419|103=2|109=105|110=0|150=8|151=0|544=1|8060=3|8164=EDP|8169=20231006-10:36:20.419557|8174=0|8214=0|10=034|
20231006-10:36:20.000 : 8=FIX.4.2|9=380|35=8|34=5|49=FSX_SIT_EDP|52=20231006-10:36:20.542|56=RSIT_EDP_5|1=RSIT_EDP_ACCOUNT_5|6=0|11=16965885806123000002|14=0|17=1710242580128874496|20=0|31=0|32=0|37=1710242580121915392|38=100|39=8|40=1|44=0|47=P|54=2|55=5110|58=ERROR_20010064,Book is Closed|59=3|60=20231006-10:36:20.542|103=2|109=105|110=0|150=8|151=0|544=1|8060=3|8164=EDP|8169=20231006-10:36:20.542553|8174=0|8214=0|10=012|
20231006-10:37:20.000 : 8=FIX.4.2|9=64|35=5|34=6|49=RSIT_EDP_5|52=20231006-10:37:20.000|56=FSX_SIT_EDP|10=079|
20231006-10:37:20.000 : 8=FIX.4.2|9=64|35=5|34=6|49=FSX_SIT_EDP|52=20231006-10:37:20.923|56=RSIT_EDP_5|10=093|
20231006-10:55:04.000 : 8=FIX.4.2|9=83|35=A|34=1|49=RSIT_EDP_5|52=20231006-10:55:04.000|56=FSX_SIT_EDP|98=0|108=300|141=Y|10=207|
20231006-10:55:04.000 : 8=FIX.4.2|9=83|35=A|34=1|49=FSX_SIT_EDP|52=20231006-10:55:04.245|56=RSIT_EDP_5|98=0|108=300|141=Y|10=218|
20231006-10:55:06.000 : 8=FIX.4.2|9=162|35=D|34=2|49=RSIT_EDP_5|52=20231006-10:55:06.000|56=FSX_SIT_EDP|1=RSIT_EDP_ACCOUNT_5|11=16965897065170000001|38=100|40=1|54=2|55=5110|60=20231006-10:55:06.004720|10=209|
20231006-10:55:06.000 : 8=FIX.4.2|9=380|35=8|34=2|49=FSX_SIT_EDP|52=20231006-10:55:06.164|56=RSIT_EDP_5|1=RSIT_EDP_ACCOUNT_5|6=0|11=16965897065170000001|14=0|17=1710247301329731584|20=0|31=0|32=0|37=1710247301322772480|38=100|39=8|40=1|44=0|47=P|54=2|55=5110|58=ERROR_20010064,Book is Closed|59=3|60=20231006-10:55:06.164|103=2|109=105|110=0|150=8|151=0|544=1|8060=3|8164=EDP|8169=20231006-10:55:06.164703|8174=0|8214=0|10=009|
20231006-10:56:06.000 : 8=FIX.4.2|9=64|35=5|34=3|49=RSIT_EDP_5|52=20231006-10:56:06.000|56=FSX_SIT_EDP|10=081|
20231006-10:56:06.000 : 8=FIX.4.2|9=64|35=5|34=3|49=FSX_SIT_EDP|52=20231006-10:56:06.839|56=RSIT_EDP_5|10=101|
20231006-11:09:59.000 : 8=FIX.4.2|9=83|35=A|34=1|49=RSIT_EDP_5|52=20231006-11:09:59.000|56=FSX_SIT_EDP|98=0|108=300|141=Y|10=217|
20231006-11:09:59.000 : 8=FIX.4.2|9=83|35=A|34=1|49=FSX_SIT_EDP|52=20231006-11:09:59.473|56=RSIT_EDP_5|98=0|108=300|141=Y|10=231|
20231006-11:10:01.000 : 8=FIX.4.2|9=162|35=D|34=2|49=RSIT_EDP_5|52=20231006-11:10:01.000|56=FSX_SIT_EDP|1=RSIT_EDP_ACCOUNT_5|11=16965906016124000001|38=100|40=1|54=2|55=5110|60=20231006-11:10:01.302374|10=175|
20231006-11:10:01.000 : 8=FIX.4.2|9=64|35=5|34=3|49=RSIT_EDP_5|52=20231006-11:10:01.000|56=FSX_SIT_EDP|10=067|
20231006-11:10:01.000 : 8=FIX.4.2|9=380|35=8|34=2|49=FSX_SIT_EDP|52=20231006-11:10:01.476|56=RSIT_EDP_5|1=RSIT_EDP_ACCOUNT_5|6=0|11=16965906016124000001|14=0|17=1710251056536240128|20=0|31=0|32=0|37=1710251056529281024|38=100|39=8|40=1|44=0|47=P|54=2|55=5110|58=ERROR_20010064,Book is Closed|59=3|60=20231006-11:10:01.476|103=2|109=105|110=0|150=8|151=0|544=1|8060=3|8164=EDP|8169=20231006-11:10:01.476781|8174=0|8214=0|10=227|
20231006-11:10:01.000 : 8=FIX.4.2|9=64|35=5|34=3|49=FSX_SIT_EDP|52=20231006-11:10:01.534|56=RSIT_EDP_5|10=079|
20231006-11:11:24.000 : 8=FIX.4.2|9=83|35=A|34=1|49=RSIT_EDP_5|52=20231006-11:11:24.000|56=FSX_SIT_EDP|98=0|108=300|141=Y|10=202|
20231006-11:11:24.000 : 8=FIX.4.2|9=83|35=A|34=1|49=FSX_SIT_EDP|52=20231006-11:11:24.697|56=RSIT_EDP_5|98=0|108=300|141=Y|10=224|
20231006-11:11:26.000 : 8=FIX.4.2|9=162|35=D|34=2|49=RSIT_EDP_5|52=20231006-11:11:26.000|56=FSX_SIT_EDP|1=RSIT_EDP_ACCOUNT_5|11=16965906868764000001|38=100|40=1|54=2|55=5110|60=20231006-11:11:26.422447|10=220|
20231006-11:11:26.000 : 8=FIX.4.2|9=380|35=8|34=2|49=FSX_SIT_EDP|52=20231006-11:11:26.608|56=RSIT_EDP_5|1=RSIT_EDP_ACCOUNT_5|6=0|11=16965906868764000001|14=0|17=1710251413605728256|20=0|31=0|32=0|37=1710251413602963456|38=100|39=8|40=1|44=0|47=P|54=2|55=5110|58=ERROR_20010064,Book is Closed|59=3|60=20231006-11:11:26.608|103=2|109=105|110=0|150=8|151=0|544=1|8060=3|8164=EDP|8169=20231006-11:11:26.608428|8174=0|8214=0|10=021|
20231006-11:11:26.000 : 8=FIX.4.2|9=64|35=5|34=3|49=RSIT_EDP_5|52=20231006-11:11:26.000|56=FSX_SIT_EDP|10=075|
20231006-11:11:26.000 : 8=FIX.4.2|9=64|35=5|34=3|49=FSX_SIT_EDP|52=20231006-11:11:26.736|56=RSIT_EDP_5|10=091|
