20231006-10:36:18.000 : 8=FIX.4.2|9=84|35=A|34=1|49=RSIT_EDP_99|52=20231006-10:36:18.000|56=FSX_SIT_EDP|98=0|108=300|141=Y|10=017|
20231006-10:36:18.000 : 8=FIX.4.2|9=84|35=A|34=1|49=FSX_SIT_EDP|52=20231006-10:36:18.439|56=RSIT_EDP_99|98=0|108=300|141=Y|10=033|
20231006-10:36:20.000 : 8=FIX.4.2|9=164|35=D|34=2|49=RSIT_EDP_99|52=20231006-10:36:20.000|56=FSX_SIT_EDP|1=RSIT_EDP_ACCOUNT_99|11=16965885808052000001|38=100|40=1|54=1|55=5110|60=20231006-10:36:20.233050|10=067|
20231006-10:36:20.000 : 8=FIX.4.2|9=164|35=D|34=3|49=RSIT_EDP_99|52=20231006-10:36:20.000|56=FSX_SIT_EDP|1=RSIT_EDP_ACCOUNT_99|11=16965885802054000002|38=100|40=1|54=2|55=5110|60=20231006-10:36:20.238249|10=081|
20231006-10:36:20.000 : 8=FIX.4.2|9=382|35=8|34=2|49=FSX_SIT_EDP|52=20231006-10:36:20.421|56=RSIT_EDP_99|1=RSIT_EDP_ACCOUNT_99|6=0|11=16965885808052000001|14=0|17=1710242579608780800|20=0|31=0|32=0|37=1710242579601821696|38=100|39=8|40=1|44=0|47=P|54=1|55=5110|58=ERROR_20010064,Book is Closed|59=3|60=20231006-10:36:20.421|103=2|109=199|110=0|150=8|151=0|544=1|8060=3|8164=EDP|8169=20231006-10:36:20.421661|8174=0|8214=0|10=145|
20231006-10:36:20.000 : 8=FIX.4.2|9=382|35=8|34=3|49=FSX_SIT_EDP|52=20231006-10:36:20.883|56=RSIT_EDP_99|1=RSIT_EDP_ACCOUNT_99|6=0|11=16965885802054000002|14=0|17=1710242581559132160|20=0|31=0|32=0|37=1710242581552173056|38=100|39=8|40=1|44=0|47=P|54=2|55=5110|58=ERROR_20010064,Book is Closed|59=3|60=20231006-10:36:20.883|103=2|109=199|110=0|150=8|151=0|544=1|8060=3|8164=EDP|8169=20231006-10:36:20.883623|8174=0|8214=0|10=154|
20231006-10:36:22.000 : 8=FIX.4.2|9=85|35=h|34=4|49=FSX_SIT_EDP|52=20231006-10:36:22.674|56=RSIT_EDP_99|336=EDP|339=3|340=2|10=156|
20231006-10:36:22.000 : 8=FIX.4.2|9=127|35=j|34=4|49=RSIT_EDP_99|52=20231006-10:36:22.000|56=FSX_SIT_EDP|45=4|58=Conditionally Required Field Missing (39)|372=h|380=5|10=091|
20231006-10:36:22.000 : 8=FIX.4.2|9=85|35=h|34=5|49=FSX_SIT_EDP|52=20231006-10:36:22.676|56=RSIT_EDP_99|336=EDP|339=3|340=3|10=160|
20231006-10:36:22.000 : 8=FIX.4.2|9=127|35=j|34=5|49=RSIT_EDP_99|52=20231006-10:36:22.000|56=FSX_SIT_EDP|45=5|58=Conditionally Required Field Missing (39)|372=h|380=5|10=093|
20231006-10:37:20.000 : 8=FIX.4.2|9=65|35=5|34=6|49=RSIT_EDP_99|52=20231006-10:37:20.000|56=FSX_SIT_EDP|10=141|
20231006-10:37:21.000 : 8=FIX.4.2|9=65|35=5|34=6|49=FSX_SIT_EDP|52=20231006-10:37:21.005|56=RSIT_EDP_99|10=147|
20231006-11:11:56.000 : 8=FIX.4.2|9=84|35=A|34=1|49=RSIT_EDP_99|52=20231006-11:11:56.000|56=FSX_SIT_EDP|98=0|108=300|141=Y|10=013|
20231006-11:11:56.000 : 8=FIX.4.2|9=84|35=A|34=1|49=FSX_SIT_EDP|52=20231006-11:11:56.384|56=RSIT_EDP_99|98=0|108=300|141=Y|10=028|
20231006-11:11:58.000 : 8=FIX.4.2|9=164|35=D|34=2|49=RSIT_EDP_99|52=20231006-11:11:58.000|56=FSX_SIT_EDP|1=RSIT_EDP_ACCOUNT_99|11=16965907184235000001|38=100|40=1|54=2|55=5110|60=20231006-11:11:58.210636|10=078|
20231006-11:11:58.000 : 8=FIX.4.2|9=382|35=8|34=2|49=FSX_SIT_EDP|52=20231006-11:11:58.375|56=RSIT_EDP_99|1=RSIT_EDP_ACCOUNT_99|6=0|11=16965907184235000001|14=0|17=1710251546846183424|20=0|31=0|32=0|37=1710251546839224320|38=100|39=8|40=1|44=0|47=P|54=2|55=5110|58=ERROR_20010064,Book is Closed|59=3|60=20231006-11:11:58.374|103=2|109=199|110=0|150=8|151=0|544=1|8060=3|8164=EDP|8169=20231006-11:11:58.374999|8174=0|8214=0|10=177|
20231006-11:11:58.000 : 8=FIX.4.2|9=65|35=5|34=3|49=RSIT_EDP_99|52=20231006-11:11:58.000|56=FSX_SIT_EDP|10=142|
20231006-11:11:58.000 : 8=FIX.4.2|9=65|35=5|34=3|49=FSX_SIT_EDP|52=20231006-11:11:58.436|56=RSIT_EDP_99|10=155|
