20231006-10:36:18.000 : 8=FIX.4.2|9=84|35=A|34=1|49=RSIT_EDP_10|52=20231006-10:36:18.000|56=FSX_SIT_EDP|98=0|108=300|141=Y|10=000|
20231006-10:36:18.000 : 8=FIX.4.2|9=84|35=A|34=1|49=FSX_SIT_EDP|52=20231006-10:36:18.440|56=RSIT_EDP_10|98=0|108=300|141=Y|10=008|
20231006-10:36:19.000 : 8=FIX.4.2|9=85|35=h|34=2|49=FSX_SIT_EDP|52=20231006-10:36:19.432|56=RSIT_EDP_10|336=EDP|339=3|340=2|10=135|
20231006-10:36:19.000 : 8=FIX.4.2|9=127|35=j|34=2|49=RSIT_EDP_10|52=20231006-10:36:19.000|56=FSX_SIT_EDP|45=2|58=Conditionally Required Field Missing (39)|372=h|380=5|10=076|
20231006-10:36:19.000 : 8=FIX.4.2|9=85|35=h|34=3|49=FSX_SIT_EDP|52=20231006-10:36:19.433|56=RSIT_EDP_10|336=EDP|339=3|340=3|10=138|
20231006-10:36:19.000 : 8=FIX.4.2|9=127|35=j|34=3|49=RSIT_EDP_10|52=20231006-10:36:19.000|56=FSX_SIT_EDP|45=3|58=Conditionally Required Field Missing (39)|372=h|380=5|10=078|
20231006-10:36:20.000 : 8=FIX.4.2|9=164|35=D|34=4|49=RSIT_EDP_10|52=20231006-10:36:20.000|56=FSX_SIT_EDP|1=RSIT_EDP_ACCOUNT_10|11=16965885807231000001|38=100|40=1|54=1|55=5110|60=20231006-10:36:20.233434|10=039|
20231006-10:36:20.000 : 8=FIX.4.2|9=164|35=D|34=5|49=RSIT_EDP_10|52=20231006-10:36:20.000|56=FSX_SIT_EDP|1=RSIT_EDP_ACCOUNT_10|11=16965885806382000002|38=100|40=1|54=2|55=5110|60=20231006-10:36:20.238710|10=050|
20231006-10:36:20.000 : 8=FIX.4.2|9=382|35=8|34=4|49=FSX_SIT_EDP|52=20231006-10:36:20.436|56=RSIT_EDP_10|1=RSIT_EDP_ACCOUNT_10|6=0|11=16965885807231000001|14=0|17=1710242579667501056|20=0|31=0|32=0|37=1710242579664736256|38=100|39=8|40=1|44=0|47=P|54=1|55=5110|58=ERROR_20010064,Book is Closed|59=3|60=20231006-10:36:20.436|103=2|109=110|110=0|150=8|151=0|544=1|8060=3|8164=EDP|8169=20231006-10:36:20.436717|8174=0|8214=0|10=119|
20231006-10:36:20.000 : 8=FIX.4.2|9=382|35=8|34=5|49=FSX_SIT_EDP|52=20231006-10:36:20.565|56=RSIT_EDP_10|1=RSIT_EDP_ACCOUNT_10|6=0|11=16965885806382000002|14=0|17=1710242580229537792|20=0|31=0|32=0|37=1710242580222578688|38=100|39=8|40=1|44=0|47=P|54=2|55=5110|58=ERROR_20010064,Book is Closed|59=3|60=20231006-10:36:20.565|103=2|109=110|110=0|150=8|151=0|544=1|8060=3|8164=EDP|8169=20231006-10:36:20.565717|8174=0|8214=0|10=134|
20231006-10:37:20.000 : 8=FIX.4.2|9=65|35=5|34=6|49=RSIT_EDP_10|52=20231006-10:37:20.000|56=FSX_SIT_EDP|10=124|
20231006-10:37:20.000 : 8=FIX.4.2|9=65|35=5|34=6|49=FSX_SIT_EDP|52=20231006-10:37:20.854|56=RSIT_EDP_10|10=141|
20231006-11:11:50.000 : 8=FIX.4.2|9=84|35=A|34=1|49=RSIT_EDP_10|52=20231006-11:11:50.000|56=FSX_SIT_EDP|98=0|108=300|141=Y|10=246|
20231006-11:11:51.000 : 8=FIX.4.2|9=84|35=A|34=1|49=FSX_SIT_EDP|52=20231006-11:11:50.968|56=RSIT_EDP_10|98=0|108=300|141=Y|10=013|
20231006-11:11:52.000 : 8=FIX.4.2|9=164|35=D|34=2|49=RSIT_EDP_10|52=20231006-11:11:52.000|56=FSX_SIT_EDP|1=RSIT_EDP_ACCOUNT_10|11=16965907127234000001|38=100|40=1|54=2|55=5110|60=20231006-11:11:52.797600|10=039|
20231006-11:11:52.000 : 8=FIX.4.2|9=382|35=8|34=2|49=FSX_SIT_EDP|52=20231006-11:11:52.963|56=RSIT_EDP_10|1=RSIT_EDP_ACCOUNT_10|6=0|11=16965907127234000001|14=0|17=1710251524138221568|20=0|31=0|32=0|37=1710251524135456768|38=100|39=8|40=1|44=0|47=P|54=2|55=5110|58=ERROR_20010064,Book is Closed|59=3|60=20231006-11:11:52.963|103=2|109=110|110=0|150=8|151=0|544=1|8060=3|8164=EDP|8169=20231006-11:11:52.963436|8174=0|8214=0|10=101|
20231006-11:11:52.000 : 8=FIX.4.2|9=65|35=5|34=3|49=RSIT_EDP_10|52=20231006-11:11:52.000|56=FSX_SIT_EDP|10=119|
20231006-11:11:52.000 : 8=FIX.4.2|9=65|35=5|34=3|49=FSX_SIT_EDP|52=20231006-11:11:53.028|56=RSIT_EDP_10|10=130|
