20231006-10:55:04.000 : 8=FIX.4.2|9=83|35=A|34=1|49=RSIT_EDP_4|52=20231006-10:55:04.000|56=FSX_SIT_EDP|98=0|108=300|141=Y|10=206|
20231006-10:55:04.000 : 8=FIX.4.2|9=83|35=A|34=1|49=FSX_SIT_EDP|52=20231006-10:55:04.248|56=RSIT_EDP_4|98=0|108=300|141=Y|10=220|
20231006-10:55:04.000 : 8=FIX.4.2|9=84|35=h|34=2|49=FSX_SIT_EDP|52=20231006-10:55:04.410|56=RSIT_EDP_4|336=EDP|339=3|340=2|10=080|
20231006-10:55:04.000 : 8=FIX.4.2|9=126|35=j|34=2|49=RSIT_EDP_4|52=20231006-10:55:04.000|56=FSX_SIT_EDP|45=2|58=Conditionally Required Field Missing (39)|372=h|380=5|10=025|
20231006-10:55:04.000 : 8=FIX.4.2|9=84|35=h|34=3|49=FSX_SIT_EDP|52=20231006-10:55:04.411|56=RSIT_EDP_4|336=EDP|339=3|340=3|10=083|
20231006-10:55:04.000 : 8=FIX.4.2|9=126|35=j|34=3|49=RSIT_EDP_4|52=20231006-10:55:04.000|56=FSX_SIT_EDP|45=3|58=Conditionally Required Field Missing (39)|372=h|380=5|10=027|
20231006-10:55:06.000 : 8=FIX.4.2|9=162|35=D|34=4|49=RSIT_EDP_4|52=20231006-10:55:06.000|56=FSX_SIT_EDP|1=RSIT_EDP_ACCOUNT_4|11=16965897063450000001|38=100|40=1|54=2|55=5110|60=20231006-10:55:06.022109|10=209|
20231006-10:55:06.000 : 8=FIX.4.2|9=380|35=8|34=4|49=FSX_SIT_EDP|52=20231006-10:55:06.211|56=RSIT_EDP_4|1=RSIT_EDP_ACCOUNT_4|6=0|11=16965897063450000001|14=0|17=1710247301518475264|20=0|31=0|32=0|37=1710247301511516160|38=100|39=8|40=1|44=0|47=P|54=2|55=5110|58=ERROR_20010064,Book is Closed|59=3|60=20231006-10:55:06.211|103=2|109=104|110=0|150=8|151=0|544=1|8060=3|8164=EDP|8169=20231006-10:55:06.211195|8174=0|8214=0|10=238|
20231006-10:56:06.000 : 8=FIX.4.2|9=64|35=5|34=5|49=RSIT_EDP_4|52=20231006-10:56:06.000|56=FSX_SIT_EDP|10=082|
20231006-10:56:06.000 : 8=FIX.4.2|9=64|35=5|34=5|49=FSX_SIT_EDP|52=20231006-10:56:06.562|56=RSIT_EDP_4|10=095|
20231006-11:01:23.000 : 8=FIX.4.2|9=83|35=A|34=1|49=RSIT_EDP_4|52=20231006-11:01:23.000|56=FSX_SIT_EDP|98=0|108=300|141=Y|10=199|
20231006-11:01:23.000 : 8=FIX.4.2|9=83|35=A|34=1|49=FSX_SIT_EDP|52=20231006-11:01:23.516|56=RSIT_EDP_4|98=0|108=300|141=Y|10=211|
20231006-11:01:25.000 : 8=FIX.4.2|9=162|35=D|34=2|49=RSIT_EDP_4|52=20231006-11:01:25.000|56=FSX_SIT_EDP|1=RSIT_EDP_ACCOUNT_4|11=16965900850678000001|38=100|40=1|54=2|55=5110|60=20231006-11:01:25.354114|10=198|
20231006-11:01:25.000 : 8=FIX.4.2|9=380|35=8|34=2|49=FSX_SIT_EDP|52=20231006-11:01:25.486|56=RSIT_EDP_4|1=RSIT_EDP_ACCOUNT_4|6=0|11=16965900850678000001|14=0|17=1710248892313124864|20=0|31=0|32=0|37=1710248892306165760|38=100|39=8|40=1|44=0|47=P|54=2|55=5110|58=ERROR_20010064,Book is Closed|59=3|60=20231006-11:01:25.486|103=2|109=104|110=0|150=8|151=0|544=1|8060=3|8164=EDP|8169=20231006-11:01:25.486866|8174=0|8214=0|10=037|
20231006-11:02:25.000 : 8=FIX.4.2|9=64|35=5|34=3|49=RSIT_EDP_4|52=20231006-11:02:25.000|56=FSX_SIT_EDP|10=073|
20231006-11:02:25.000 : 8=FIX.4.2|9=64|35=5|34=3|49=FSX_SIT_EDP|52=20231006-11:02:26.037|56=RSIT_EDP_4|10=084|
20231006-11:05:37.000 : 8=FIX.4.2|9=83|35=A|34=1|49=RSIT_EDP_4|52=20231006-11:05:37.000|56=FSX_SIT_EDP|98=0|108=300|141=Y|10=208|
20231006-11:05:38.000 : 8=FIX.4.2|9=83|35=A|34=1|49=FSX_SIT_EDP|52=20231006-11:05:38.065|56=RSIT_EDP_4|98=0|108=300|141=Y|10=220|
20231006-11:05:39.000 : 8=FIX.4.2|9=162|35=D|34=2|49=RSIT_EDP_4|52=20231006-11:05:39.000|56=FSX_SIT_EDP|1=RSIT_EDP_ACCOUNT_4|11=16965903395138000001|38=100|40=1|54=2|55=5110|60=20231006-11:05:39.795338|10=231|
20231006-11:05:39.000 : 8=FIX.4.2|9=380|35=8|34=2|49=FSX_SIT_EDP|52=20231006-11:05:39.927|56=RSIT_EDP_4|1=RSIT_EDP_ACCOUNT_4|6=0|11=16965903395138000001|14=0|17=1710249959524417536|20=0|31=0|32=0|37=1710249959513264128|38=100|39=8|40=1|44=0|47=P|54=2|55=5110|58=ERROR_20010064,Book is Closed|59=3|60=20231006-11:05:39.927|103=2|109=104|110=0|150=8|151=0|544=1|8060=3|8164=EDP|8169=20231006-11:05:39.927847|8174=0|8214=0|10=074|
20231006-11:06:40.000 : 8=FIX.4.2|9=64|35=5|34=3|49=RSIT_EDP_4|52=20231006-11:06:40.000|56=FSX_SIT_EDP|10=074|
20231006-11:06:40.000 : 8=FIX.4.2|9=64|35=5|34=3|49=FSX_SIT_EDP|52=20231006-11:06:40.318|56=RSIT_EDP_4|10=086|
20231006-11:09:55.000 : 8=FIX.4.2|9=83|35=A|34=1|49=RSIT_EDP_4|52=20231006-11:09:55.000|56=FSX_SIT_EDP|98=0|108=300|141=Y|10=212|
20231006-11:09:56.000 : 8=FIX.4.2|9=83|35=A|34=1|49=FSX_SIT_EDP|52=20231006-11:09:56.239|56=RSIT_EDP_4|98=0|108=300|141=Y|10=227|
20231006-11:09:57.000 : 8=FIX.4.2|9=162|35=D|34=2|49=RSIT_EDP_4|52=20231006-11:09:57.000|56=FSX_SIT_EDP|1=RSIT_EDP_ACCOUNT_4|11=16965905972857000001|38=100|40=1|54=2|55=5110|60=20231006-11:09:57.793282|10=246|
20231006-11:09:57.000 : 8=FIX.4.2|9=380|35=8|34=2|49=FSX_SIT_EDP|52=20231006-11:09:58.012|56=RSIT_EDP_4|1=RSIT_EDP_ACCOUNT_4|6=0|11=16965905972857000001|14=0|17=1710251042011365376|20=0|31=0|32=0|37=1710251042000211968|38=100|39=8|40=1|44=0|47=P|54=2|55=5110|58=ERROR_20010064,Book is Closed|59=3|60=20231006-11:09:58.012|103=2|109=104|110=0|150=8|151=0|544=1|8060=3|8164=EDP|8169=20231006-11:09:58.012423|8174=0|8214=0|10=243|
20231006-11:09:57.000 : 8=FIX.4.2|9=64|35=5|34=3|49=RSIT_EDP_4|52=20231006-11:09:57.000|56=FSX_SIT_EDP|10=085|
20231006-11:09:58.000 : 8=FIX.4.2|9=64|35=5|34=3|49=FSX_SIT_EDP|52=20231006-11:09:58.139|56=RSIT_EDP_4|10=099|
20231006-11:11:19.000 : 8=FIX.4.2|9=83|35=A|34=1|49=RSIT_EDP_4|52=20231006-11:11:19.000|56=FSX_SIT_EDP|98=0|108=300|141=Y|10=205|
20231006-11:11:19.000 : 8=FIX.4.2|9=83|35=A|34=1|49=FSX_SIT_EDP|52=20231006-11:11:19.209|56=RSIT_EDP_4|98=0|108=300|141=Y|10=216|
20231006-11:11:21.000 : 8=FIX.4.2|9=162|35=D|34=2|49=RSIT_EDP_4|52=20231006-11:11:21.000|56=FSX_SIT_EDP|1=RSIT_EDP_ACCOUNT_4|11=16965906811678000001|38=100|40=1|54=2|55=5110|60=20231006-11:11:21.034233|10=192|
20231006-11:11:21.000 : 8=FIX.4.2|9=380|35=8|34=2|49=FSX_SIT_EDP|52=20231006-11:11:21.164|56=RSIT_EDP_4|1=RSIT_EDP_ACCOUNT_4|6=0|11=16965906811678000001|14=0|17=1710251390780325888|20=0|31=0|32=0|37=1710251390769172480|38=100|39=8|40=1|44=0|47=P|54=2|55=5110|58=ERROR_20010064,Book is Closed|59=3|60=20231006-11:11:21.164|103=2|109=104|110=0|150=8|151=0|544=1|8060=3|8164=EDP|8169=20231006-11:11:21.164800|8174=0|8214=0|10=255|
20231006-11:11:21.000 : 8=FIX.4.2|9=64|35=5|34=3|49=RSIT_EDP_4|52=20231006-11:11:21.000|56=FSX_SIT_EDP|10=069|
20231006-11:11:21.000 : 8=FIX.4.2|9=64|35=5|34=3|49=FSX_SIT_EDP|52=20231006-11:11:21.225|56=RSIT_EDP_4|10=078|
